{
  "address": "0x7746ef546d562b443AE4B4145541a3b1a3D75717",
  "abi": [
    {
      "inputs": [
        {
          "internalType": "address",
          "name": "addr",
          "type": "address"
        }
      ],
      "name": "AddressToSubstrateAccount",
      "outputs": [
        {
          "internalType": "bytes32",
          "name": "account",
          "type": "bytes32"
        }
      ],
      "stateMutability": "view",
      "type": "function"
    },
    {
      "inputs": [
        {
          "internalType": "bytes",
          "name": "src",
          "type": "bytes"
        }
      ],
      "name": "blake2bHash",
      "outputs": [
        {
          "internalType": "bytes32",
          "name": "des",
          "type": "bytes32"
        }
      ],
      "stateMutability": "view",
      "type": "function"
    }
  ],
  "transactionHash": "0x1161fc610c3023bb9daab3f8f051766ff0caa28fd6339eaf8c10949fa0bac1a7",
  "args": [],
  "numDeployments": 1,
  "solcInputHash": "7fb39b6eb4a3e960c9750ead88b76a49",
  "bytecode": "0x6107fd61003a600b82828239805160001a60731461002d57634e487b7160e01b600052600060045260246000fd5b30600052607381538281f3fe73000000000000000000000000000000000000000030146080604052600436106100405760003560e01c806332640a521461004557806336e7c7621461006a575b600080fd5b610058610053366004610514565b61007d565b60405190815260200160405180910390f35b610058610078366004610553565b610113565b6000806040518060400160405280600481526020016332bb369d60e11b81525090506000836040516020016100ca919060609190911b6bffffffffffffffffffffffff1916815260140190565b6040516020818303038152906040529050600082826040516020016100f092919061063f565b604051602081830303815290604052905061010a81610113565b95945050505050565b600080610130604051806020016040528060008152506020610156565b905061013c818461020f565b80602001905181019061014f919061065c565b9392505050565b61017a60405180606001604052806060815260200160008152602001600081525090565b8251156101bc5760405162461bcd60e51b815260206004820152600b60248201526a496e76616c6964206b657960a81b60448201526064015b60405180910390fd5b816020146101fe5760405162461bcd60e51b815260206004820152600f60248201526e24b73b30b634b21037baba2fb632b760891b60448201526064016101b3565b610209818484610379565b92915050565b805160609080158061022a5750610227608082610675565b15155b156102ac578261023b608083610675565b6102469060806106ad565b67ffffffffffffffff81111561025e5761025e61053d565b6040519080825280601f01601f191660200182016040528015610288576020820181803683370190505b5060405160200161029a92919061063f565b60405160208183030381529060405292505b608083516102ba9190610675565b156102c7576102c76106c4565b6102d484848360016103f7565b8351602085015167ffffffffffffffff8111156102f3576102f361053d565b6040519080825280601f01601f19166020018201604052801561031d576020820181803683370190505b509250846020015160101415610340576014810151601084015260108352610371565b84602001516020141561035c5760248101516020840152610371565b60248101516020840152604481015160408401525b505092915050565b80836020018181525050600083604001818152505060405180610100016040528060d581526020016106f360d59139808452825160248201805160f083901b60f886901b1718905280156103f057806040146103d457600080fd5b83516080146103e5576103e56106c4565b6103f08585836104cc565b5050505050565b835160408501518451606483019060208701905b80156104ba5760808110610040578151835260208083015190840152604080830151908401526060808301519084015260809182019161044b90826106ad565b905060808710156104675761046087856106da565b935061047f565b6104726080886106ad565b96506104606080856106da565b60ff841660e486015360ff8460081c1660e586015360ff8460101c1660e6860153806104ac578560f48601535b6104b5896104f6565b61040b565b50505060409095019490945250505050565b608082516104da9190610675565b156104e457600080fd5b6104f183838360006103f7565b505050565b80516020810160406024830160d5836009600019fa6104f157600080fd5b60006020828403121561052657600080fd5b81356001600160a01b038116811461014f57600080fd5b634e487b7160e01b600052604160045260246000fd5b60006020828403121561056557600080fd5b813567ffffffffffffffff8082111561057d57600080fd5b818401915084601f83011261059157600080fd5b8135818111156105a3576105a361053d565b604051601f8201601f19908116603f011681019083821181831017156105cb576105cb61053d565b816040528281528760208487010111156105e457600080fd5b826020860160208301376000928101602001929092525095945050505050565b6000815160005b81811015610625576020818501810151868301520161060b565b81811115610634576000828601525b509290920192915050565b600061065461064e8386610604565b84610604565b949350505050565b60006020828403121561066e57600080fd5b5051919050565b60008261069257634e487b7160e01b600052601260045260246000fd5b500690565b634e487b7160e01b600052601160045260246000fd5b6000828210156106bf576106bf610697565b500390565b634e487b7160e01b600052600160045260246000fd5b600082198211156106ed576106ed610697565b50019056fe0000000c08c9bdf267e6096a3ba7ca8485ae67bb2bf894fe72f36e3cf1361d5f3af54fa5d182e6ad7f520e511f6c3e2b8c68059b6bbd41fbabd9831f79217e1319cde05b00000000000000000000000000000000000000000000000000000000000000000000000000000000000000000000000000000000000000000000000000000000000000000000000000000000000000000000000000000000000000000000000000000000000000000000000000000000000000000000000000000000000000000000000000000000000000000000000000a2646970667358221220433c7c70bb6e199e7de1192cce3edc763afef141a446dc33df6886e3d1bf434d64736f6c634300080a0033",
  "devdoc": {
    "kind": "dev",
    "methods": {},
    "version": 1
  },
  "userdoc": {
    "kind": "user",
    "methods": {},
    "version": 1
  },
  "storageLayout": {
    "storage": [],
    "types": null
  }
}