{
  "address": "0x558De0E24956A634735914B1eA252c4c2214124C",
  "abi": [
    {
      "anonymous": false,
      "inputs": [
        {
          "indexed": false,
          "internalType": "uint8",
          "name": "version",
          "type": "uint8"
        }
      ],
      "name": "Initialized",
      "type": "event"
    },
    {
      "anonymous": false,
      "inputs": [
        {
          "indexed": false,
          "internalType": "address",
          "name": "minter",
          "type": "address"
        },
        {
          "indexed": false,
          "internalType": "address",
          "name": "assetAddress",
          "type": "address"
        },
        {
          "indexed": false,
          "internalType": "uint256",
          "name": "amount",
          "type": "uint256"
        },
        {
          "indexed": false,
          "internalType": "address",
          "name": "receiver",
          "type": "address"
        },
        {
          "indexed": false,
          "internalType": "bytes",
          "name": "callcode",
          "type": "bytes"
        },
        {
          "indexed": false,
          "internalType": "string",
          "name": "remark",
          "type": "string"
        }
      ],
      "name": "Mint",
      "type": "event"
    },
    {
      "anonymous": false,
      "inputs": [
        {
          "indexed": true,
          "internalType": "address",
          "name": "previousOwner",
          "type": "address"
        },
        {
          "indexed": true,
          "internalType": "address",
          "name": "newOwner",
          "type": "address"
        }
      ],
      "name": "OwnershipTransferred",
      "type": "event"
    },
    {
      "anonymous": false,
      "inputs": [
        {
          "indexed": false,
          "internalType": "address",
          "name": "account",
          "type": "address"
        }
      ],
      "name": "Paused",
      "type": "event"
    },
    {
      "anonymous": false,
      "inputs": [
        {
          "indexed": false,
          "internalType": "address",
          "name": "redeemer",
          "type": "address"
        },
        {
          "indexed": false,
          "internalType": "address",
          "name": "assetAddress",
          "type": "address"
        },
        {
          "indexed": false,
          "internalType": "uint256",
          "name": "amount",
          "type": "uint256"
        },
        {
          "indexed": false,
          "internalType": "address",
          "name": "receiver",
          "type": "address"
        },
        {
          "indexed": false,
          "internalType": "bytes",
          "name": "callcode",
          "type": "bytes"
        }
      ],
      "name": "Redeem",
      "type": "event"
    },
    {
      "anonymous": false,
      "inputs": [
        {
          "indexed": false,
          "internalType": "address",
          "name": "swapper",
          "type": "address"
        },
        {
          "indexed": false,
          "internalType": "uint32",
          "name": "poolId",
          "type": "uint32"
        },
        {
          "indexed": false,
          "internalType": "address",
          "name": "assetInAddress",
          "type": "address"
        },
        {
          "indexed": false,
          "internalType": "address",
          "name": "assetOutAddress",
          "type": "address"
        },
        {
          "indexed": false,
          "internalType": "uint256",
          "name": "assetInAmount",
          "type": "uint256"
        },
        {
          "indexed": false,
          "internalType": "uint128",
          "name": "minDy",
          "type": "uint128"
        },
        {
          "indexed": false,
          "internalType": "address",
          "name": "receiver",
          "type": "address"
        },
        {
          "indexed": false,
          "internalType": "bytes",
          "name": "callcode",
          "type": "bytes"
        }
      ],
      "name": "StablePoolSwap",
      "type": "event"
    },
    {
      "anonymous": false,
      "inputs": [
        {
          "indexed": false,
          "internalType": "address",
          "name": "swapper",
          "type": "address"
        },
        {
          "indexed": false,
          "internalType": "address",
          "name": "assetInAddress",
          "type": "address"
        },
        {
          "indexed": false,
          "internalType": "address",
          "name": "assetOutAddress",
          "type": "address"
        },
        {
          "indexed": false,
          "internalType": "uint256",
          "name": "assetInAmount",
          "type": "uint256"
        },
        {
          "indexed": false,
          "internalType": "uint128",
          "name": "assetOutMin",
          "type": "uint128"
        },
        {
          "indexed": false,
          "internalType": "address",
          "name": "receiver",
          "type": "address"
        },
        {
          "indexed": false,
          "internalType": "bytes",
          "name": "callcode",
          "type": "bytes"
        }
      ],
      "name": "Swap",
      "type": "event"
    },
    {
      "anonymous": false,
      "inputs": [
        {
          "indexed": false,
          "internalType": "address",
          "name": "account",
          "type": "address"
        }
      ],
      "name": "Unpaused",
      "type": "event"
    },
    {
      "inputs": [],
      "name": "BNCAddress",
      "outputs": [
        {
          "internalType": "address",
          "name": "",
          "type": "address"
        }
      ],
      "stateMutability": "view",
      "type": "function"
    },
    {
      "inputs": [
        {
          "internalType": "address",
          "name": "",
          "type": "address"
        }
      ],
      "name": "addressToAssetInfo",
      "outputs": [
        {
          "internalType": "bytes2",
          "name": "currencyId",
          "type": "bytes2"
        },
        {
          "internalType": "uint256",
          "name": "operationalMin",
          "type": "uint256"
        }
      ],
      "stateMutability": "view",
      "type": "function"
    },
    {
      "inputs": [],
      "name": "bifrostParaId",
      "outputs": [
        {
          "internalType": "uint32",
          "name": "",
          "type": "uint32"
        }
      ],
      "stateMutability": "view",
      "type": "function"
    },
    {
      "inputs": [
        {
          "internalType": "address",
          "name": "_BNCAddress",
          "type": "address"
        },
        {
          "internalType": "uint32",
          "name": "_bifrostParaId",
          "type": "uint32"
        },
        {
          "internalType": "bytes2",
          "name": "_nativeCurrencyId",
          "type": "bytes2"
        }
      ],
      "name": "initialize",
      "outputs": [],
      "stateMutability": "nonpayable",
      "type": "function"
    },
    {
      "inputs": [
        {
          "internalType": "address",
          "name": "assetAddress",
          "type": "address"
        },
        {
          "internalType": "uint256",
          "name": "amount",
          "type": "uint256"
        },
        {
          "internalType": "address",
          "name": "receiver",
          "type": "address"
        },
        {
          "internalType": "string",
          "name": "remark",
          "type": "string"
        }
      ],
      "name": "mintVAsset",
      "outputs": [],
      "stateMutability": "nonpayable",
      "type": "function"
    },
    {
      "inputs": [
        {
          "internalType": "address",
          "name": "assetAddress",
          "type": "address"
        },
        {
          "internalType": "uint256",
          "name": "amount",
          "type": "uint256"
        },
        {
          "internalType": "address",
          "name": "receiver",
          "type": "address"
        },
        {
          "internalType": "string",
          "name": "remark",
          "type": "string"
        },
        {
          "internalType": "uint32",
          "name": "channel_id",
          "type": "uint32"
        }
      ],
      "name": "mintVAssetWithChannelId",
      "outputs": [],
      "stateMutability": "nonpayable",
      "type": "function"
    },
    {
      "inputs": [
        {
          "internalType": "address",
          "name": "receiver",
          "type": "address"
        },
        {
          "internalType": "string",
          "name": "remark",
          "type": "string"
        }
      ],
      "name": "mintVNativeAsset",
      "outputs": [],
      "stateMutability": "payable",
      "type": "function"
    },
    {
      "inputs": [
        {
          "internalType": "address",
          "name": "receiver",
          "type": "address"
        },
        {
          "internalType": "string",
          "name": "remark",
          "type": "string"
        },
        {
          "internalType": "uint32",
          "name": "channel_id",
          "type": "uint32"
        }
      ],
      "name": "mintVNativeAssetWithChannelId",
      "outputs": [],
      "stateMutability": "payable",
      "type": "function"
    },
    {
      "inputs": [
        {
          "internalType": "enum MoonbeamSlpx.Operation",
          "name": "",
          "type": "uint8"
        }
      ],
      "name": "operationToFeeInfo",
      "outputs": [
        {
          "internalType": "uint64",
          "name": "transactRequiredWeightAtMost",
          "type": "uint64"
        },
        {
          "internalType": "uint256",
          "name": "feeAmount",
          "type": "uint256"
        },
        {
          "internalType": "uint64",
          "name": "overallWeight",
          "type": "uint64"
        }
      ],
      "stateMutability": "view",
      "type": "function"
    },
    {
      "inputs": [],
      "name": "owner",
      "outputs": [
        {
          "internalType": "address",
          "name": "",
          "type": "address"
        }
      ],
      "stateMutability": "view",
      "type": "function"
    },
    {
      "inputs": [],
      "name": "pause",
      "outputs": [],
      "stateMutability": "nonpayable",
      "type": "function"
    },
    {
      "inputs": [],
      "name": "paused",
      "outputs": [
        {
          "internalType": "bool",
          "name": "",
          "type": "bool"
        }
      ],
      "stateMutability": "view",
      "type": "function"
    },
    {
      "inputs": [
        {
          "internalType": "address",
          "name": "vAssetAddress",
          "type": "address"
        },
        {
          "internalType": "uint256",
          "name": "amount",
          "type": "uint256"
        },
        {
          "internalType": "address",
          "name": "receiver",
          "type": "address"
        }
      ],
      "name": "redeemAsset",
      "outputs": [],
      "stateMutability": "nonpayable",
      "type": "function"
    },
    {
      "inputs": [],
      "name": "renounceOwnership",
      "outputs": [],
      "stateMutability": "nonpayable",
      "type": "function"
    },
    {
      "inputs": [
        {
          "internalType": "address",
          "name": "assetAddress",
          "type": "address"
        },
        {
          "internalType": "bytes2",
          "name": "currencyId",
          "type": "bytes2"
        },
        {
          "internalType": "uint256",
          "name": "minimumValue",
          "type": "uint256"
        }
      ],
      "name": "setAssetAddressInfo",
      "outputs": [],
      "stateMutability": "nonpayable",
      "type": "function"
    },
    {
      "inputs": [
        {
          "internalType": "enum MoonbeamSlpx.Operation",
          "name": "_operation",
          "type": "uint8"
        },
        {
          "internalType": "uint64",
          "name": "_transactRequiredWeightAtMost",
          "type": "uint64"
        },
        {
          "internalType": "uint64",
          "name": "_overallWeight",
          "type": "uint64"
        },
        {
          "internalType": "uint256",
          "name": "_feeAmount",
          "type": "uint256"
        }
      ],
      "name": "setOperationToFeeInfo",
      "outputs": [],
      "stateMutability": "nonpayable",
      "type": "function"
    },
    {
      "inputs": [
        {
          "internalType": "uint32",
          "name": "poolId",
          "type": "uint32"
        },
        {
          "internalType": "address",
          "name": "assetInAddress",
          "type": "address"
        },
        {
          "internalType": "address",
          "name": "assetOutAddress",
          "type": "address"
        },
        {
          "internalType": "uint256",
          "name": "assetInAmount",
          "type": "uint256"
        },
        {
          "internalType": "uint128",
          "name": "minDy",
          "type": "uint128"
        },
        {
          "internalType": "address",
          "name": "receiver",
          "type": "address"
        }
      ],
      "name": "stablePoolSwap",
      "outputs": [],
      "stateMutability": "nonpayable",
      "type": "function"
    },
    {
      "inputs": [
        {
          "internalType": "address",
          "name": "assetInAddress",
          "type": "address"
        },
        {
          "internalType": "address",
          "name": "assetOutAddress",
          "type": "address"
        },
        {
          "internalType": "uint256",
          "name": "assetInAmount",
          "type": "uint256"
        },
        {
          "internalType": "uint128",
          "name": "assetOutMin",
          "type": "uint128"
        },
        {
          "internalType": "address",
          "name": "receiver",
          "type": "address"
        }
      ],
      "name": "swapAssetsForExactAssets",
      "outputs": [],
      "stateMutability": "nonpayable",
      "type": "function"
    },
    {
      "inputs": [
        {
          "internalType": "address",
          "name": "assetInAddress",
          "type": "address"
        },
        {
          "internalType": "uint256",
          "name": "assetInAmount",
          "type": "uint256"
        },
        {
          "internalType": "uint128",
          "name": "assetOutMin",
          "type": "uint128"
        },
        {
          "internalType": "address",
          "name": "receiver",
          "type": "address"
        }
      ],
      "name": "swapAssetsForExactNativeAssets",
      "outputs": [],
      "stateMutability": "nonpayable",
      "type": "function"
    },
    {
      "inputs": [
        {
          "internalType": "address",
          "name": "assetOutAddress",
          "type": "address"
        },
        {
          "internalType": "uint128",
          "name": "assetOutMin",
          "type": "uint128"
        },
        {
          "internalType": "address",
          "name": "receiver",
          "type": "address"
        }
      ],
      "name": "swapNativeAssetsForExactAssets",
      "outputs": [],
      "stateMutability": "payable",
      "type": "function"
    },
    {
      "inputs": [
        {
          "internalType": "address",
          "name": "newOwner",
          "type": "address"
        }
      ],
      "name": "transferOwnership",
      "outputs": [],
      "stateMutability": "nonpayable",
      "type": "function"
    },
    {
      "inputs": [],
      "name": "unpause",
      "outputs": [],
      "stateMutability": "nonpayable",
      "type": "function"
    }
  ],
  "transactionHash": "0xbd8eed262b2cd27beb023c3ed66c22972219158d51567a0b3fd0b3e4154b0e8d",
  "args": [],
  "numDeployments": 3,
  "solcInputHash": "5d0d41d00ebc4debd8b705b8263ef922",
  "bytecode": "0x608060405234801561001057600080fd5b5061313e806100206000396000f3fe6080604052600436106101355760003560e01c806362c64fe1116100ab5780638da5cb5b1161006f5780638da5cb5b14610314578063bddef61a14610332578063c86093a8146103a3578063c8645456146103dc578063d6aa374d14610437578063f2fde38b1461045757600080fd5b806362c64fe1146102a45780636b9491ec146102b7578063715018a6146102ca5780638456cb59146102df57806386c64bb2146102f457600080fd5b80634899b9a8116100fd5780634899b9a8146101e15780634972a9211461020157806352b11006146102215780635bbfef45146102415780635c975abb146102615780635ede28821461028457600080fd5b806323e498791461013a57806324af04471461014f5780632916705c1461016f578063374f00ff1461018f5780633f4ba83a146101cc575b600080fd5b61014d6101483660046124e9565b610477565b005b34801561015b57600080fd5b5061014d61016a3660046125ef565b61063a565b34801561017b57600080fd5b5061014d61018a36600461266a565b6107f0565b34801561019b57600080fd5b506099546101af906001600160a01b031681565b6040516001600160a01b0390911681526020015b60405180910390f35b3480156101d857600080fd5b5061014d6109b2565b3480156101ed57600080fd5b5061014d6101fc3660046126e2565b6109c4565b34801561020d57600080fd5b5061014d61021c366004612715565b610b6e565b34801561022d57600080fd5b5061014d61023c36600461279a565b610d35565b34801561024d57600080fd5b5061014d61025c3660046127d6565b610e4d565b34801561026d57600080fd5b5060655460ff1660405190151581526020016101c3565b34801561029057600080fd5b5061014d61029f366004612810565b61119b565b61014d6102b2366004612862565b61135d565b61014d6102c53660046128af565b61151d565b3480156102d657600080fd5b5061014d6116cf565b3480156102eb57600080fd5b5061014d6116e1565b34801561030057600080fd5b5061014d61030f366004612929565b6116f1565b34801561032057600080fd5b506033546001600160a01b03166101af565b34801561033e57600080fd5b5061037961034d366004612974565b609b602052600090815260409020805460018201546002909201546001600160401b0391821692911683565b604080516001600160401b03948516815260208101939093529216918101919091526060016101c3565b3480156103af57600080fd5b506099546103c790600160a01b900463ffffffff1681565b60405163ffffffff90911681526020016101c3565b3480156103e857600080fd5b506104176103f7366004612996565b609a602052600090815260409020805460019091015460f09190911b9082565b604080516001600160f01b031990931683526020830191909152016101c3565b34801561044357600080fd5b5061014d6104523660046129b1565b6117a3565b34801561046357600080fd5b5061014d610472366004612996565b611955565b61047f6119ce565b600061048a84611a14565b90506000610499610802611a14565b90506104a434611ae3565b6040516000906104be90600160f81b9086906020016129fe565b604051602081830303815290604052905060007395A4D4b345c551A9182289F9dD7A018b7Fd0f94063cb070de56104f23390565b85878a876040518663ffffffff1660e01b8152600401610516959493929190612a82565b600060405180830381865af4158015610533573d6000803e3d6000fd5b505050506040513d6000823e601f3d908101601f1916820160405261055b9190810190612ad8565b905060006105696002611c58565b609954815160208301516040808501519051635b2479ff60e11b815294955061080d9463b648f3fe946105b3946097946001600160a01b039092169390928a929190600401612b89565b600060405180830381600087803b1580156105cd57600080fd5b505af11580156105e1573d6000803e3d6000fd5b505050507fe869557c53c6b4ca27e56668068f17eca71394d04718a9214a7667f1474950ff61060d3390565b6108028a348b8b886040516106289796959493929190612cdf565b60405180910390a15050505050505050565b6106426119ce565b60208151111561066d5760405162461bcd60e51b815260040161066490612d3e565b60405180910390fd5b600061067885611a14565b90506106848585611ddf565b60405160009061069e90600160f81b9086906020016129fe565b604051602081830303815290604052905060007395A4D4b345c551A9182289F9dD7A018b7Fd0f94063b92155276106d23390565b8585886040518563ffffffff1660e01b81526004016106f49493929190612d67565b600060405180830381865af4158015610711573d6000803e3d6000fd5b505050506040513d6000823e601f3d908101601f191682016040526107399190810190612ad8565b905060006107476000611c58565b609954815160208301516040808501519051635b2479ff60e11b815294955061080d9463b648f3fe94610791946097946001600160a01b039092169390928a929190600401612b89565b600060405180830381600087803b1580156107ab57600080fd5b505af11580156107bf573d6000803e3d6000fd5b505050506000805160206130e98339815191526107d93390565b898989868a60405161062896959493929190612dad565b6107f86119ce565b60208251111561081a5760405162461bcd60e51b815260040161066490612d3e565b600061082586611a14565b90506108318686611ddf565b60405160009061084b90600160f81b9087906020016129fe565b604051602081830303815290604052905060007395A4D4b345c551A9182289F9dD7A018b7Fd0f9406370c8aa2d61087f3390565b858589896040518663ffffffff1660e01b81526004016108a3959493929190612dfa565b600060405180830381865af41580156108c0573d6000803e3d6000fd5b505050506040513d6000823e601f3d908101601f191682016040526108e89190810190612ad8565b905060006108f66000611c58565b609954815160208301516040808501519051635b2479ff60e11b815294955061080d9463b648f3fe94610940946097946001600160a01b039092169390928a929190600401612b89565b600060405180830381600087803b15801561095a57600080fd5b505af115801561096e573d6000803e3d6000fd5b505050506000805160206130e98339815191526109883390565b8a8a8a868b60405161099f96959493929190612dad565b60405180910390a1505050505050505050565b6109ba612018565b6109c2612072565b565b6109cc6119ce565b60006109d784611a14565b90506109e38484611ddf565b6040516000906109fd90600160f81b9085906020016129fe565b604051602081830303815290604052905060007395A4D4b345c551A9182289F9dD7A018b7Fd0f940639f004783610a313390565b85856040518463ffffffff1660e01b8152600401610a5193929190612e59565b600060405180830381865af4158015610a6e573d6000803e3d6000fd5b505050506040513d6000823e601f3d908101601f19168201604052610a969190810190612ad8565b90506000610aa46001611c58565b609954815160208301516040808501519051635b2479ff60e11b815294955061080d9463b648f3fe94610aee946097946001600160a01b039092169390928a929190600401612b89565b600060405180830381600087803b158015610b0857600080fd5b505af1158015610b1c573d6000803e3d6000fd5b505050507f89996e9f85ecc9022265638d75df5de89dd421fab215e1b013ece5fcc188adce610b483390565b88888886604051610b5d959493929190612e8d565b60405180910390a150505050505050565b610b766119ce565b6000610b8186611a14565b90506000610b8e86611a14565b9050610b9a8786611ddf565b604051600090610bb490600160f81b9086906020016129fe565b604051602081830303815290604052905060007395A4D4b345c551A9182289F9dD7A018b7Fd0f940636bc6c67f610be83390565b8c87878b886040518763ffffffff1660e01b8152600401610c0e96959493929190612ec8565b600060405180830381865af4158015610c2b573d6000803e3d6000fd5b505050506040513d6000823e601f3d908101601f19168201604052610c539190810190612ad8565b90506000610c616003611c58565b609954815160208301516040808501519051635b2479ff60e11b815294955061080d9463b648f3fe94610cab946097946001600160a01b039092169390928a929190600401612b89565b600060405180830381600087803b158015610cc557600080fd5b505af1158015610cd9573d6000803e3d6000fd5b505050507ff9a157c40f0a1b19376934e7c611456abb1d51640748e1a86602391e13d96af5610d053390565b8c8c8c8c8c8c89604051610d20989796959493929190612f2b565b60405180910390a15050505050505050505050565b610d3d612018565b6001600160a01b038316610d8a5760405162461bcd60e51b8152602060048201526014602482015273496e76616c69642061737365744164647265737360601b6044820152606401610664565b80610dce5760405162461bcd60e51b8152602060048201526014602482015273496e76616c6964206d696e696d756d56616c756560601b6044820152606401610664565b6001600160f01b03198216610e1a5760405162461bcd60e51b8152602060048201526012602482015271125b9d985b1a590818dd5c9c995b98de525960721b6044820152606401610664565b6001600160a01b03929092166000908152609a60205260409020805461ffff191660f09290921c91909117815560010155565b600054610100900460ff1615808015610e6d5750600054600160ff909116105b80610e875750303b158015610e87575060005460ff166001145b610eea5760405162461bcd60e51b815260206004820152602e60248201527f496e697469616c697a61626c653a20636f6e747261637420697320616c72656160448201526d191e481a5b9a5d1a585b1a5e995960921b6064820152608401610664565b6000805460ff191660011790558015610f0d576000805461ff0019166101001790555b610f156120c4565b610f1d6120f3565b6001600160a01b038416610f655760405162461bcd60e51b815260206004820152600f60248201526e496e76616c6964206164647265737360881b6044820152606401610664565b8263ffffffff166107d11480610f8257508263ffffffff166107ee145b610fc65760405162461bcd60e51b8152602060048201526015602482015274125b9d985b1a5908189a599c9bdcdd14185c985259605a1b6044820152606401610664565b61010560f11b6001600160f01b031983161480610ff1575061080160f01b6001600160f01b03198316145b61103d5760405162461bcd60e51b815260206004820152601860248201527f496e76616c6964206e617469766543757272656e6379496400000000000000006044820152606401610664565b61105184600160f01b64e8d4a51000610d35565b61106661080283670de0b6b3a7640000610d35565b609980546001600160a01b0386166001600160c01b031990911617600160a01b63ffffffff861602179055604080516001808252818301909252600091816020015b60608152602001906001900390816110a857905050604051600060208201526001600160e01b031960e087901b1660218201529091506025016040516020818303038152906040528160008151811061110357611103612f99565b6020908102919091018101919091526040805180820190915260018082528183018490526097805460ff1916909117815583519192909161114a916098919086019061236d565b50905050508015611195576000805461ff0019169055604051600181527f7f26b83ff96e1f2b6a682f133852f6798a09c465da95921460cefb38474024989060200160405180910390a15b50505050565b6111a36119ce565b60006111ae86611a14565b905060006111bb86611a14565b90506111c78786611ddf565b6040516000906111e190600160f81b9086906020016129fe565b604051602081830303815290604052905060007395A4D4b345c551A9182289F9dD7A018b7Fd0f94063cb070de56112153390565b86868a876040518663ffffffff1660e01b8152600401611239959493929190612a82565b600060405180830381865af4158015611256573d6000803e3d6000fd5b505050506040513d6000823e601f3d908101601f1916820160405261127e9190810190612ad8565b9050600061128c6002611c58565b609954815160208301516040808501519051635b2479ff60e11b815294955061080d9463b648f3fe946112d6946097946001600160a01b039092169390928a929190600401612b89565b600060405180830381600087803b1580156112f057600080fd5b505af1158015611304573d6000803e3d6000fd5b505050507fe869557c53c6b4ca27e56668068f17eca71394d04718a9214a7667f1474950ff6113303390565b8b8b8b8b8b886040516113499796959493929190612cdf565b60405180910390a150505050505050505050565b6113656119ce565b6020815111156113875760405162461bcd60e51b815260040161066490612d3e565b6000611394610802611a14565b905061139f34611ae3565b6040516000906113b990600160f81b9086906020016129fe565b604051602081830303815290604052905060007395A4D4b345c551A9182289F9dD7A018b7Fd0f94063b92155276113ed3390565b8585886040518563ffffffff1660e01b815260040161140f9493929190612d67565b600060405180830381865af415801561142c573d6000803e3d6000fd5b505050506040513d6000823e601f3d908101601f191682016040526114549190810190612ad8565b905060006114626000611c58565b609954815160208301516040808501519051635b2479ff60e11b815294955061080d9463b648f3fe946114ac946097946001600160a01b039092169390928a929190600401612b89565b600060405180830381600087803b1580156114c657600080fd5b505af11580156114da573d6000803e3d6000fd5b505050506000805160206130e98339815191526114f43390565b6108023489868a60405161150d96959493929190612dad565b60405180910390a1505050505050565b6115256119ce565b6020825111156115475760405162461bcd60e51b815260040161066490612d3e565b6000611554610802611a14565b905061155f34611ae3565b60405160009061157990600160f81b9087906020016129fe565b604051602081830303815290604052905060007395A4D4b345c551A9182289F9dD7A018b7Fd0f9406370c8aa2d6115ad3390565b858589896040518663ffffffff1660e01b81526004016115d1959493929190612dfa565b600060405180830381865af41580156115ee573d6000803e3d6000fd5b505050506040513d6000823e601f3d908101601f191682016040526116169190810190612ad8565b905060006116246000611c58565b609954815160208301516040808501519051635b2479ff60e11b815294955061080d9463b648f3fe9461166e946097946001600160a01b039092169390928a929190600401612b89565b600060405180830381600087803b15801561168857600080fd5b505af115801561169c573d6000803e3d6000fd5b505050506000805160206130e98339815191526116b63390565b610802348a868b604051610b5d96959493929190612dad565b6116d7612018565b6109c26000612122565b6116e9612018565b6109c2612174565b6116f9612018565b6040518060600160405280846001600160401b03168152602001828152602001836001600160401b0316815250609b600086600381111561173c5761173c612faf565b600381111561174d5761174d612faf565b81526020808201929092526040908101600020835181546001600160401b0391821667ffffffffffffffff1991821617835593850151600183015593909101516002909101805491909316911617905550505050565b6117ab6119ce565b60006117b685611a14565b905060006117c5610802611a14565b90506117d18686611ddf565b6040516000906117eb90600160f81b9086906020016129fe565b604051602081830303815290604052905060007395A4D4b345c551A9182289F9dD7A018b7Fd0f94063cb070de561181f3390565b86868a876040518663ffffffff1660e01b8152600401611843959493929190612a82565b600060405180830381865af4158015611860573d6000803e3d6000fd5b505050506040513d6000823e601f3d908101601f191682016040526118889190810190612ad8565b905060006118966002611c58565b609954815160208301516040808501519051635b2479ff60e11b815294955061080d9463b648f3fe946118e0946097946001600160a01b039092169390928a929190600401612b89565b600060405180830381600087803b1580156118fa57600080fd5b505af115801561190e573d6000803e3d6000fd5b505050507fe869557c53c6b4ca27e56668068f17eca71394d04718a9214a7667f1474950ff61193a3390565b8a6108028b8b8b8860405161099f9796959493929190612cdf565b61195d612018565b6001600160a01b0381166119c25760405162461bcd60e51b815260206004820152602660248201527f4f776e61626c653a206e6577206f776e657220697320746865207a65726f206160448201526564647265737360d01b6064820152608401610664565b6119cb81612122565b50565b60655460ff16156109c25760405162461bcd60e51b815260206004820152601060248201526f14185d5cd8589b194e881c185d5cd95960821b6044820152606401610664565b6001600160a01b0381166000908152609a602090815260408083208151808301909252805460f01b6001600160f01b03191682526001015491810182905290611a945760405162461bcd60e51b8152602060048201526012602482015271105cdcd95d081a5cc81b9bdd08195e1a5cdd60721b6044820152606401610664565b80516001600160f01b031916611adc5760405162461bcd60e51b815260206004820152600d60248201526c125b9d985b1a5908185cdcd95d609a1b6044820152606401610664565b5192915050565b610802600052609a6020527fae00947ee313780ebd51d12b4f1ecb575ce4eb6b099d8cff17facd5b92da71f054811015611b585760405162461bcd60e51b81526020600482015260166024820152754c657373207468616e204d696e696d756d56616c756560501b6044820152606401610664565b6000737746ef546d562b443AE4B4145541a3b1a3D757176332640a52336040516001600160e01b031960e084901b1681526001600160a01b039091166004820152602401602060405180830381865af4158015611bb9573d6000803e3d6000fd5b505050506040513d601f19601f82011682018060405250810190611bdd9190612fc5565b90506000611bea826121b1565b60405163b9f813ff60e01b81529091506108049063b9f813ff90611c219061080290879086906001600160401b0390600401612fde565b600060405180830381600087803b158015611c3b57600080fd5b505af1158015611c4f573d6000803e3d6000fd5b50505050505050565b6040805160608101825260008082526020820181905291810182905290609b81846003811115611c8a57611c8a612faf565b6003811115611c9b57611c9b612faf565b81526020808201929092526040908101600020815160608101835281546001600160401b03908116808352600184015495830195909552600290920154909116918101919091529150611d3c5760405162461bcd60e51b8152602060048201526024808201527f496e76616c6964207472616e7361637452657175697265645765696768744174604482015263135bdcdd60e21b6064820152608401610664565b6000816020015111611d845760405162461bcd60e51b8152602060048201526011602482015270125b9d985b1a5908199959505b5bdd5b9d607a1b6044820152606401610664565b600081604001516001600160401b031611611dd95760405162461bcd60e51b8152602060048201526015602482015274125b9d985b1a59081bdd995c985b1b15d95a59da1d605a1b6044820152606401610664565b92915050565b6001600160a01b038216611e2c5760405162461bcd60e51b8152602060048201526014602482015273496e76616c69642061737365744164647265737360601b6044820152606401610664565b6001600160a01b0382166000908152609a6020526040902060010154811015611e905760405162461bcd60e51b81526020600482015260166024820152754c657373207468616e204d696e696d756d56616c756560501b6044820152606401610664565b6000737746ef546d562b443AE4B4145541a3b1a3D757176332640a52336040516001600160e01b031960e084901b1681526001600160a01b039091166004820152602401602060405180830381865af4158015611ef1573d6000803e3d6000fd5b505050506040513d601f19601f82011682018060405250810190611f159190612fc5565b90506000611f22826121b1565b9050836001600160a01b0381166323b872dd336040516001600160e01b031960e084901b1681526001600160a01b039091166004820152306024820152604481018790526064016020604051808303816000875af1158015611f88573d6000803e3d6000fd5b505050506040513d601f19601f82011682018060405250810190611fac919061307b565b5060405163b9f813ff60e01b81526108049063b9f813ff90611fdf908890889087906001600160401b0390600401612fde565b600060405180830381600087803b158015611ff957600080fd5b505af115801561200d573d6000803e3d6000fd5b505050505050505050565b6033546001600160a01b031633146109c25760405162461bcd60e51b815260206004820181905260248201527f4f776e61626c653a2063616c6c6572206973206e6f7420746865206f776e65726044820152606401610664565b61207a6122c1565b6065805460ff191690557f5db9ee0a495bf2e6ff9c91a7834c1ba4fdd244a5e8aa4e537bd38aeae4b073aa335b6040516001600160a01b03909116815260200160405180910390a1565b600054610100900460ff166120eb5760405162461bcd60e51b81526004016106649061309d565b6109c261230a565b600054610100900460ff1661211a5760405162461bcd60e51b81526004016106649061309d565b6109c261233a565b603380546001600160a01b038381166001600160a01b0319831681179093556040519116919082907f8be0079c531659141344cd1fd0a4f28419497f9722a3daafe3b4186f6b6457e090600090a35050565b61217c6119ce565b6065805460ff191660011790557f62e78cea01bee320cd4e420270b5ea74000d11b0c9f74754ebdbfc544b05a2586120a73390565b60408051808201825260008082526060602083018190528351600280825291810190945291929091816020015b60608152602001906001900390816121de5790505060995460405160006020820152600160a01b90910460e01b6001600160e01b03191660218201529091506025016040516020818303038152906040528160008151811061224257612242612f99565b6020026020010181905250826040516020016122759190600160f81b815260018101919091526000602182015260220190565b6040516020818303038152906040528160018151811061229757612297612f99565b60209081029190910181019190915260408051808201909152600181529081019190915292915050565b60655460ff166109c25760405162461bcd60e51b815260206004820152601460248201527314185d5cd8589b194e881b9bdd081c185d5cd95960621b6044820152606401610664565b600054610100900460ff166123315760405162461bcd60e51b81526004016106649061309d565b6109c233612122565b600054610100900460ff166123615760405162461bcd60e51b81526004016106649061309d565b6065805460ff19169055565b8280548282559060005260206000209081019282156123ba579160200282015b828111156123ba57825180516123aa9184916020909101906123ca565b509160200191906001019061238d565b506123c692915061244a565b5090565b8280546123d690612b4e565b90600052602060002090601f0160209004810192826123f8576000855561243e565b82601f1061241157805160ff191683800117855561243e565b8280016001018555821561243e579182015b8281111561243e578251825591602001919060010190612423565b506123c6929150612467565b808211156123c657600061245e828261247c565b5060010161244a565b5b808211156123c65760008155600101612468565b50805461248890612b4e565b6000825580601f10612498575050565b601f0160209004906000526020600020908101906119cb9190612467565b80356001600160a01b03811681146124cd57600080fd5b919050565b80356001600160801b03811681146124cd57600080fd5b6000806000606084860312156124fe57600080fd5b612507846124b6565b9250612515602085016124d2565b9150612523604085016124b6565b90509250925092565b634e487b7160e01b600052604160045260246000fd5b604051601f8201601f191681016001600160401b038111828210171561256a5761256a61252c565b604052919050565b60006001600160401b0382111561258b5761258b61252c565b50601f01601f191660200190565b600082601f8301126125aa57600080fd5b81356125bd6125b882612572565b612542565b8181528460208386010111156125d257600080fd5b816020850160208301376000918101602001919091529392505050565b6000806000806080858703121561260557600080fd5b61260e856124b6565b935060208501359250612623604086016124b6565b915060608501356001600160401b0381111561263e57600080fd5b61264a87828801612599565b91505092959194509250565b803563ffffffff811681146124cd57600080fd5b600080600080600060a0868803121561268257600080fd5b61268b866124b6565b9450602086013593506126a0604087016124b6565b925060608601356001600160401b038111156126bb57600080fd5b6126c788828901612599565b9250506126d660808701612656565b90509295509295909350565b6000806000606084860312156126f757600080fd5b612700846124b6565b925060208401359150612523604085016124b6565b60008060008060008060c0878903121561272e57600080fd5b61273787612656565b9550612745602088016124b6565b9450612753604088016124b6565b935060608701359250612768608088016124d2565b915061277660a088016124b6565b90509295509295509295565b80356001600160f01b0319811681146124cd57600080fd5b6000806000606084860312156127af57600080fd5b6127b8846124b6565b92506127c660208501612782565b9150604084013590509250925092565b6000806000606084860312156127eb57600080fd5b6127f4846124b6565b925061280260208501612656565b915061252360408501612782565b600080600080600060a0868803121561282857600080fd5b612831866124b6565b945061283f602087016124b6565b935060408601359250612854606087016124d2565b91506126d6608087016124b6565b6000806040838503121561287557600080fd5b61287e836124b6565b915060208301356001600160401b0381111561289957600080fd5b6128a585828601612599565b9150509250929050565b6000806000606084860312156128c457600080fd5b6128cd846124b6565b925060208401356001600160401b038111156128e857600080fd5b6128f486828701612599565b92505061252360408501612656565b8035600481106124cd57600080fd5b80356001600160401b03811681146124cd57600080fd5b6000806000806080858703121561293f57600080fd5b61294885612903565b935061295660208601612912565b925061296460408601612912565b9396929550929360600135925050565b60006020828403121561298657600080fd5b61298f82612903565b9392505050565b6000602082840312156129a857600080fd5b61298f826124b6565b600080600080608085870312156129c757600080fd5b6129d0856124b6565b9350602085013592506129e5604086016124d2565b91506129f3606086016124b6565b905092959194509250565b6001600160f81b031992909216825260601b6bffffffffffffffffffffffff1916600182015260150190565b60005b83811015612a45578181015183820152602001612a2d565b838111156111955750506000910152565b60008151808452612a6e816020860160208601612a2a565b601f01601f19169290920160200192915050565b6001600160a01b03861681526001600160f01b03198581166020830152841660408201526001600160801b038316606082015260a060808201819052600090612acd90830184612a56565b979650505050505050565b600060208284031215612aea57600080fd5b81516001600160401b03811115612b0057600080fd5b8201601f81018413612b1157600080fd5b8051612b1f6125b882612572565b818152856020838501011115612b3457600080fd5b612b45826020830160208601612a2a565b95945050505050565b600181811c90821680612b6257607f821691505b60208210811415612b8357634e487b7160e01b600052602260045260246000fd5b50919050565b60c081526000610100820160ff89541660c08401526001808a01604060e086015282815480855261012094508487019150848160051b8801019450600083815260209350838120815b83811015612c855789880361011f190185528154839080891c89821680612bfa57607f821691505b898210811415612c1857634e487b7160e01b87526022600452602487fd5b818c5260208c01818015612c335760018114612c4457612c6e565b60ff19851682528b82019550612c6e565b600088815260209020895b85811015612c6857815484820152908e01908d01612c4f565b83019650505b50939b505050958701955050908601908601612bd2565b5050505050612c9e8186018b6001600160a01b03169052565b50506001600160401b03871660408401528281036060840152612cc18187612a56565b915050836080830152612acd60a08301846001600160401b03169052565b6001600160a01b03888116825287811660208301528681166040830152606082018690526001600160801b0385166080830152831660a082015260e060c08201819052600090612d3190830184612a56565b9998505050505050505050565b6020808252600f908201526e72656d61726b20746f6f206c6f6e6760881b604082015260600190565b6001600160a01b03851681526001600160f01b031984166020820152608060408201819052600090612d9b90830185612a56565b8281036060840152612acd8185612a56565b6001600160a01b0387811682528681166020830152604082018690528416606082015260c060808201819052600090612de890830185612a56565b82810360a0840152612d318185612a56565b6001600160a01b03861681526001600160f01b03198516602082015260a060408201819052600090612e2e90830186612a56565b8281036060840152612e408186612a56565b91505063ffffffff831660808301529695505050505050565b6001600160a01b03841681526001600160f01b031983166020820152606060408201819052600090612b4590830184612a56565b6001600160a01b0386811682528581166020830152604082018590528316606082015260a060808201819052600090612acd90830184612a56565b6001600160a01b038716815263ffffffff861660208201526001600160f01b03198581166040830152841660608201526001600160801b038316608082015260c060a08201819052600090612f1f90830184612a56565b98975050505050505050565b6001600160a01b03898116825263ffffffff8916602083015287811660408301528681166060830152608082018690526001600160801b03851660a0830152831660c082015261010060e08201819052600090612f8a83820185612a56565b9b9a5050505050505050505050565b634e487b7160e01b600052603260045260246000fd5b634e487b7160e01b600052602160045260246000fd5b600060208284031215612fd757600080fd5b5051919050565b60018060a01b03851681526000602085818401526080604084015260c0830160ff865116608085015281860151604060a086015281815180845260e08701915060e08160051b8801019350848301925060005b8181101561305f5760df1988860301835261304d858551612a56565b94509285019291850191600101613031565b5050506001600160401b0386166060860152509150612b459050565b60006020828403121561308d57600080fd5b8151801515811461298f57600080fd5b6020808252602b908201527f496e697469616c697a61626c653a20636f6e7472616374206973206e6f74206960408201526a6e697469616c697a696e6760a81b60608201526080019056feca31869d7c65b3930a575eef33c6f69db06b0f1168af96408c4fceca8de0fadca264697066735822122040e1e465f4718a12f5a96fc2b6b251c27fba681256d2cf83163585ddfe4e5c2e64736f6c634300080a0033",
  "deployedBytecode": "0x6080604052600436106101355760003560e01c806362c64fe1116100ab5780638da5cb5b1161006f5780638da5cb5b14610314578063bddef61a14610332578063c86093a8146103a3578063c8645456146103dc578063d6aa374d14610437578063f2fde38b1461045757600080fd5b806362c64fe1146102a45780636b9491ec146102b7578063715018a6146102ca5780638456cb59146102df57806386c64bb2146102f457600080fd5b80634899b9a8116100fd5780634899b9a8146101e15780634972a9211461020157806352b11006146102215780635bbfef45146102415780635c975abb146102615780635ede28821461028457600080fd5b806323e498791461013a57806324af04471461014f5780632916705c1461016f578063374f00ff1461018f5780633f4ba83a146101cc575b600080fd5b61014d6101483660046124e9565b610477565b005b34801561015b57600080fd5b5061014d61016a3660046125ef565b61063a565b34801561017b57600080fd5b5061014d61018a36600461266a565b6107f0565b34801561019b57600080fd5b506099546101af906001600160a01b031681565b6040516001600160a01b0390911681526020015b60405180910390f35b3480156101d857600080fd5b5061014d6109b2565b3480156101ed57600080fd5b5061014d6101fc3660046126e2565b6109c4565b34801561020d57600080fd5b5061014d61021c366004612715565b610b6e565b34801561022d57600080fd5b5061014d61023c36600461279a565b610d35565b34801561024d57600080fd5b5061014d61025c3660046127d6565b610e4d565b34801561026d57600080fd5b5060655460ff1660405190151581526020016101c3565b34801561029057600080fd5b5061014d61029f366004612810565b61119b565b61014d6102b2366004612862565b61135d565b61014d6102c53660046128af565b61151d565b3480156102d657600080fd5b5061014d6116cf565b3480156102eb57600080fd5b5061014d6116e1565b34801561030057600080fd5b5061014d61030f366004612929565b6116f1565b34801561032057600080fd5b506033546001600160a01b03166101af565b34801561033e57600080fd5b5061037961034d366004612974565b609b602052600090815260409020805460018201546002909201546001600160401b0391821692911683565b604080516001600160401b03948516815260208101939093529216918101919091526060016101c3565b3480156103af57600080fd5b506099546103c790600160a01b900463ffffffff1681565b60405163ffffffff90911681526020016101c3565b3480156103e857600080fd5b506104176103f7366004612996565b609a602052600090815260409020805460019091015460f09190911b9082565b604080516001600160f01b031990931683526020830191909152016101c3565b34801561044357600080fd5b5061014d6104523660046129b1565b6117a3565b34801561046357600080fd5b5061014d610472366004612996565b611955565b61047f6119ce565b600061048a84611a14565b90506000610499610802611a14565b90506104a434611ae3565b6040516000906104be90600160f81b9086906020016129fe565b6040516020818303038152906040529050600073__$e184f4046250cd750dfdb139628ab13bdc$__63cb070de56104f23390565b85878a876040518663ffffffff1660e01b8152600401610516959493929190612a82565b600060405180830381865af4158015610533573d6000803e3d6000fd5b505050506040513d6000823e601f3d908101601f1916820160405261055b9190810190612ad8565b905060006105696002611c58565b609954815160208301516040808501519051635b2479ff60e11b815294955061080d9463b648f3fe946105b3946097946001600160a01b039092169390928a929190600401612b89565b600060405180830381600087803b1580156105cd57600080fd5b505af11580156105e1573d6000803e3d6000fd5b505050507fe869557c53c6b4ca27e56668068f17eca71394d04718a9214a7667f1474950ff61060d3390565b6108028a348b8b886040516106289796959493929190612cdf565b60405180910390a15050505050505050565b6106426119ce565b60208151111561066d5760405162461bcd60e51b815260040161066490612d3e565b60405180910390fd5b600061067885611a14565b90506106848585611ddf565b60405160009061069e90600160f81b9086906020016129fe565b6040516020818303038152906040529050600073__$e184f4046250cd750dfdb139628ab13bdc$__63b92155276106d23390565b8585886040518563ffffffff1660e01b81526004016106f49493929190612d67565b600060405180830381865af4158015610711573d6000803e3d6000fd5b505050506040513d6000823e601f3d908101601f191682016040526107399190810190612ad8565b905060006107476000611c58565b609954815160208301516040808501519051635b2479ff60e11b815294955061080d9463b648f3fe94610791946097946001600160a01b039092169390928a929190600401612b89565b600060405180830381600087803b1580156107ab57600080fd5b505af11580156107bf573d6000803e3d6000fd5b505050506000805160206130e98339815191526107d93390565b898989868a60405161062896959493929190612dad565b6107f86119ce565b60208251111561081a5760405162461bcd60e51b815260040161066490612d3e565b600061082586611a14565b90506108318686611ddf565b60405160009061084b90600160f81b9087906020016129fe565b6040516020818303038152906040529050600073__$e184f4046250cd750dfdb139628ab13bdc$__6370c8aa2d61087f3390565b858589896040518663ffffffff1660e01b81526004016108a3959493929190612dfa565b600060405180830381865af41580156108c0573d6000803e3d6000fd5b505050506040513d6000823e601f3d908101601f191682016040526108e89190810190612ad8565b905060006108f66000611c58565b609954815160208301516040808501519051635b2479ff60e11b815294955061080d9463b648f3fe94610940946097946001600160a01b039092169390928a929190600401612b89565b600060405180830381600087803b15801561095a57600080fd5b505af115801561096e573d6000803e3d6000fd5b505050506000805160206130e98339815191526109883390565b8a8a8a868b60405161099f96959493929190612dad565b60405180910390a1505050505050505050565b6109ba612018565b6109c2612072565b565b6109cc6119ce565b60006109d784611a14565b90506109e38484611ddf565b6040516000906109fd90600160f81b9085906020016129fe565b6040516020818303038152906040529050600073__$e184f4046250cd750dfdb139628ab13bdc$__639f004783610a313390565b85856040518463ffffffff1660e01b8152600401610a5193929190612e59565b600060405180830381865af4158015610a6e573d6000803e3d6000fd5b505050506040513d6000823e601f3d908101601f19168201604052610a969190810190612ad8565b90506000610aa46001611c58565b609954815160208301516040808501519051635b2479ff60e11b815294955061080d9463b648f3fe94610aee946097946001600160a01b039092169390928a929190600401612b89565b600060405180830381600087803b158015610b0857600080fd5b505af1158015610b1c573d6000803e3d6000fd5b505050507f89996e9f85ecc9022265638d75df5de89dd421fab215e1b013ece5fcc188adce610b483390565b88888886604051610b5d959493929190612e8d565b60405180910390a150505050505050565b610b766119ce565b6000610b8186611a14565b90506000610b8e86611a14565b9050610b9a8786611ddf565b604051600090610bb490600160f81b9086906020016129fe565b6040516020818303038152906040529050600073__$e184f4046250cd750dfdb139628ab13bdc$__636bc6c67f610be83390565b8c87878b886040518763ffffffff1660e01b8152600401610c0e96959493929190612ec8565b600060405180830381865af4158015610c2b573d6000803e3d6000fd5b505050506040513d6000823e601f3d908101601f19168201604052610c539190810190612ad8565b90506000610c616003611c58565b609954815160208301516040808501519051635b2479ff60e11b815294955061080d9463b648f3fe94610cab946097946001600160a01b039092169390928a929190600401612b89565b600060405180830381600087803b158015610cc557600080fd5b505af1158015610cd9573d6000803e3d6000fd5b505050507ff9a157c40f0a1b19376934e7c611456abb1d51640748e1a86602391e13d96af5610d053390565b8c8c8c8c8c8c89604051610d20989796959493929190612f2b565b60405180910390a15050505050505050505050565b610d3d612018565b6001600160a01b038316610d8a5760405162461bcd60e51b8152602060048201526014602482015273496e76616c69642061737365744164647265737360601b6044820152606401610664565b80610dce5760405162461bcd60e51b8152602060048201526014602482015273496e76616c6964206d696e696d756d56616c756560601b6044820152606401610664565b6001600160f01b03198216610e1a5760405162461bcd60e51b8152602060048201526012602482015271125b9d985b1a590818dd5c9c995b98de525960721b6044820152606401610664565b6001600160a01b03929092166000908152609a60205260409020805461ffff191660f09290921c91909117815560010155565b600054610100900460ff1615808015610e6d5750600054600160ff909116105b80610e875750303b158015610e87575060005460ff166001145b610eea5760405162461bcd60e51b815260206004820152602e60248201527f496e697469616c697a61626c653a20636f6e747261637420697320616c72656160448201526d191e481a5b9a5d1a585b1a5e995960921b6064820152608401610664565b6000805460ff191660011790558015610f0d576000805461ff0019166101001790555b610f156120c4565b610f1d6120f3565b6001600160a01b038416610f655760405162461bcd60e51b815260206004820152600f60248201526e496e76616c6964206164647265737360881b6044820152606401610664565b8263ffffffff166107d11480610f8257508263ffffffff166107ee145b610fc65760405162461bcd60e51b8152602060048201526015602482015274125b9d985b1a5908189a599c9bdcdd14185c985259605a1b6044820152606401610664565b61010560f11b6001600160f01b031983161480610ff1575061080160f01b6001600160f01b03198316145b61103d5760405162461bcd60e51b815260206004820152601860248201527f496e76616c6964206e617469766543757272656e6379496400000000000000006044820152606401610664565b61105184600160f01b64e8d4a51000610d35565b61106661080283670de0b6b3a7640000610d35565b609980546001600160a01b0386166001600160c01b031990911617600160a01b63ffffffff861602179055604080516001808252818301909252600091816020015b60608152602001906001900390816110a857905050604051600060208201526001600160e01b031960e087901b1660218201529091506025016040516020818303038152906040528160008151811061110357611103612f99565b6020908102919091018101919091526040805180820190915260018082528183018490526097805460ff1916909117815583519192909161114a916098919086019061236d565b50905050508015611195576000805461ff0019169055604051600181527f7f26b83ff96e1f2b6a682f133852f6798a09c465da95921460cefb38474024989060200160405180910390a15b50505050565b6111a36119ce565b60006111ae86611a14565b905060006111bb86611a14565b90506111c78786611ddf565b6040516000906111e190600160f81b9086906020016129fe565b6040516020818303038152906040529050600073__$e184f4046250cd750dfdb139628ab13bdc$__63cb070de56112153390565b86868a876040518663ffffffff1660e01b8152600401611239959493929190612a82565b600060405180830381865af4158015611256573d6000803e3d6000fd5b505050506040513d6000823e601f3d908101601f1916820160405261127e9190810190612ad8565b9050600061128c6002611c58565b609954815160208301516040808501519051635b2479ff60e11b815294955061080d9463b648f3fe946112d6946097946001600160a01b039092169390928a929190600401612b89565b600060405180830381600087803b1580156112f057600080fd5b505af1158015611304573d6000803e3d6000fd5b505050507fe869557c53c6b4ca27e56668068f17eca71394d04718a9214a7667f1474950ff6113303390565b8b8b8b8b8b886040516113499796959493929190612cdf565b60405180910390a150505050505050505050565b6113656119ce565b6020815111156113875760405162461bcd60e51b815260040161066490612d3e565b6000611394610802611a14565b905061139f34611ae3565b6040516000906113b990600160f81b9086906020016129fe565b6040516020818303038152906040529050600073__$e184f4046250cd750dfdb139628ab13bdc$__63b92155276113ed3390565b8585886040518563ffffffff1660e01b815260040161140f9493929190612d67565b600060405180830381865af415801561142c573d6000803e3d6000fd5b505050506040513d6000823e601f3d908101601f191682016040526114549190810190612ad8565b905060006114626000611c58565b609954815160208301516040808501519051635b2479ff60e11b815294955061080d9463b648f3fe946114ac946097946001600160a01b039092169390928a929190600401612b89565b600060405180830381600087803b1580156114c657600080fd5b505af11580156114da573d6000803e3d6000fd5b505050506000805160206130e98339815191526114f43390565b6108023489868a60405161150d96959493929190612dad565b60405180910390a1505050505050565b6115256119ce565b6020825111156115475760405162461bcd60e51b815260040161066490612d3e565b6000611554610802611a14565b905061155f34611ae3565b60405160009061157990600160f81b9087906020016129fe565b6040516020818303038152906040529050600073__$e184f4046250cd750dfdb139628ab13bdc$__6370c8aa2d6115ad3390565b858589896040518663ffffffff1660e01b81526004016115d1959493929190612dfa565b600060405180830381865af41580156115ee573d6000803e3d6000fd5b505050506040513d6000823e601f3d908101601f191682016040526116169190810190612ad8565b905060006116246000611c58565b609954815160208301516040808501519051635b2479ff60e11b815294955061080d9463b648f3fe9461166e946097946001600160a01b039092169390928a929190600401612b89565b600060405180830381600087803b15801561168857600080fd5b505af115801561169c573d6000803e3d6000fd5b505050506000805160206130e98339815191526116b63390565b610802348a868b604051610b5d96959493929190612dad565b6116d7612018565b6109c26000612122565b6116e9612018565b6109c2612174565b6116f9612018565b6040518060600160405280846001600160401b03168152602001828152602001836001600160401b0316815250609b600086600381111561173c5761173c612faf565b600381111561174d5761174d612faf565b81526020808201929092526040908101600020835181546001600160401b0391821667ffffffffffffffff1991821617835593850151600183015593909101516002909101805491909316911617905550505050565b6117ab6119ce565b60006117b685611a14565b905060006117c5610802611a14565b90506117d18686611ddf565b6040516000906117eb90600160f81b9086906020016129fe565b6040516020818303038152906040529050600073__$e184f4046250cd750dfdb139628ab13bdc$__63cb070de561181f3390565b86868a876040518663ffffffff1660e01b8152600401611843959493929190612a82565b600060405180830381865af4158015611860573d6000803e3d6000fd5b505050506040513d6000823e601f3d908101601f191682016040526118889190810190612ad8565b905060006118966002611c58565b609954815160208301516040808501519051635b2479ff60e11b815294955061080d9463b648f3fe946118e0946097946001600160a01b039092169390928a929190600401612b89565b600060405180830381600087803b1580156118fa57600080fd5b505af115801561190e573d6000803e3d6000fd5b505050507fe869557c53c6b4ca27e56668068f17eca71394d04718a9214a7667f1474950ff61193a3390565b8a6108028b8b8b8860405161099f9796959493929190612cdf565b61195d612018565b6001600160a01b0381166119c25760405162461bcd60e51b815260206004820152602660248201527f4f776e61626c653a206e6577206f776e657220697320746865207a65726f206160448201526564647265737360d01b6064820152608401610664565b6119cb81612122565b50565b60655460ff16156109c25760405162461bcd60e51b815260206004820152601060248201526f14185d5cd8589b194e881c185d5cd95960821b6044820152606401610664565b6001600160a01b0381166000908152609a602090815260408083208151808301909252805460f01b6001600160f01b03191682526001015491810182905290611a945760405162461bcd60e51b8152602060048201526012602482015271105cdcd95d081a5cc81b9bdd08195e1a5cdd60721b6044820152606401610664565b80516001600160f01b031916611adc5760405162461bcd60e51b815260206004820152600d60248201526c125b9d985b1a5908185cdcd95d609a1b6044820152606401610664565b5192915050565b610802600052609a6020527fae00947ee313780ebd51d12b4f1ecb575ce4eb6b099d8cff17facd5b92da71f054811015611b585760405162461bcd60e51b81526020600482015260166024820152754c657373207468616e204d696e696d756d56616c756560501b6044820152606401610664565b600073__$ddfb0e6c1c4d05795fcce73a90830b0995$__6332640a52336040516001600160e01b031960e084901b1681526001600160a01b039091166004820152602401602060405180830381865af4158015611bb9573d6000803e3d6000fd5b505050506040513d601f19601f82011682018060405250810190611bdd9190612fc5565b90506000611bea826121b1565b60405163b9f813ff60e01b81529091506108049063b9f813ff90611c219061080290879086906001600160401b0390600401612fde565b600060405180830381600087803b158015611c3b57600080fd5b505af1158015611c4f573d6000803e3d6000fd5b50505050505050565b6040805160608101825260008082526020820181905291810182905290609b81846003811115611c8a57611c8a612faf565b6003811115611c9b57611c9b612faf565b81526020808201929092526040908101600020815160608101835281546001600160401b03908116808352600184015495830195909552600290920154909116918101919091529150611d3c5760405162461bcd60e51b8152602060048201526024808201527f496e76616c6964207472616e7361637452657175697265645765696768744174604482015263135bdcdd60e21b6064820152608401610664565b6000816020015111611d845760405162461bcd60e51b8152602060048201526011602482015270125b9d985b1a5908199959505b5bdd5b9d607a1b6044820152606401610664565b600081604001516001600160401b031611611dd95760405162461bcd60e51b8152602060048201526015602482015274125b9d985b1a59081bdd995c985b1b15d95a59da1d605a1b6044820152606401610664565b92915050565b6001600160a01b038216611e2c5760405162461bcd60e51b8152602060048201526014602482015273496e76616c69642061737365744164647265737360601b6044820152606401610664565b6001600160a01b0382166000908152609a6020526040902060010154811015611e905760405162461bcd60e51b81526020600482015260166024820152754c657373207468616e204d696e696d756d56616c756560501b6044820152606401610664565b600073__$ddfb0e6c1c4d05795fcce73a90830b0995$__6332640a52336040516001600160e01b031960e084901b1681526001600160a01b039091166004820152602401602060405180830381865af4158015611ef1573d6000803e3d6000fd5b505050506040513d601f19601f82011682018060405250810190611f159190612fc5565b90506000611f22826121b1565b9050836001600160a01b0381166323b872dd336040516001600160e01b031960e084901b1681526001600160a01b039091166004820152306024820152604481018790526064016020604051808303816000875af1158015611f88573d6000803e3d6000fd5b505050506040513d601f19601f82011682018060405250810190611fac919061307b565b5060405163b9f813ff60e01b81526108049063b9f813ff90611fdf908890889087906001600160401b0390600401612fde565b600060405180830381600087803b158015611ff957600080fd5b505af115801561200d573d6000803e3d6000fd5b505050505050505050565b6033546001600160a01b031633146109c25760405162461bcd60e51b815260206004820181905260248201527f4f776e61626c653a2063616c6c6572206973206e6f7420746865206f776e65726044820152606401610664565b61207a6122c1565b6065805460ff191690557f5db9ee0a495bf2e6ff9c91a7834c1ba4fdd244a5e8aa4e537bd38aeae4b073aa335b6040516001600160a01b03909116815260200160405180910390a1565b600054610100900460ff166120eb5760405162461bcd60e51b81526004016106649061309d565b6109c261230a565b600054610100900460ff1661211a5760405162461bcd60e51b81526004016106649061309d565b6109c261233a565b603380546001600160a01b038381166001600160a01b0319831681179093556040519116919082907f8be0079c531659141344cd1fd0a4f28419497f9722a3daafe3b4186f6b6457e090600090a35050565b61217c6119ce565b6065805460ff191660011790557f62e78cea01bee320cd4e420270b5ea74000d11b0c9f74754ebdbfc544b05a2586120a73390565b60408051808201825260008082526060602083018190528351600280825291810190945291929091816020015b60608152602001906001900390816121de5790505060995460405160006020820152600160a01b90910460e01b6001600160e01b03191660218201529091506025016040516020818303038152906040528160008151811061224257612242612f99565b6020026020010181905250826040516020016122759190600160f81b815260018101919091526000602182015260220190565b6040516020818303038152906040528160018151811061229757612297612f99565b60209081029190910181019190915260408051808201909152600181529081019190915292915050565b60655460ff166109c25760405162461bcd60e51b815260206004820152601460248201527314185d5cd8589b194e881b9bdd081c185d5cd95960621b6044820152606401610664565b600054610100900460ff166123315760405162461bcd60e51b81526004016106649061309d565b6109c233612122565b600054610100900460ff166123615760405162461bcd60e51b81526004016106649061309d565b6065805460ff19169055565b8280548282559060005260206000209081019282156123ba579160200282015b828111156123ba57825180516123aa9184916020909101906123ca565b509160200191906001019061238d565b506123c692915061244a565b5090565b8280546123d690612b4e565b90600052602060002090601f0160209004810192826123f8576000855561243e565b82601f1061241157805160ff191683800117855561243e565b8280016001018555821561243e579182015b8281111561243e578251825591602001919060010190612423565b506123c6929150612467565b808211156123c657600061245e828261247c565b5060010161244a565b5b808211156123c65760008155600101612468565b50805461248890612b4e565b6000825580601f10612498575050565b601f0160209004906000526020600020908101906119cb9190612467565b80356001600160a01b03811681146124cd57600080fd5b919050565b80356001600160801b03811681146124cd57600080fd5b6000806000606084860312156124fe57600080fd5b612507846124b6565b9250612515602085016124d2565b9150612523604085016124b6565b90509250925092565b634e487b7160e01b600052604160045260246000fd5b604051601f8201601f191681016001600160401b038111828210171561256a5761256a61252c565b604052919050565b60006001600160401b0382111561258b5761258b61252c565b50601f01601f191660200190565b600082601f8301126125aa57600080fd5b81356125bd6125b882612572565b612542565b8181528460208386010111156125d257600080fd5b816020850160208301376000918101602001919091529392505050565b6000806000806080858703121561260557600080fd5b61260e856124b6565b935060208501359250612623604086016124b6565b915060608501356001600160401b0381111561263e57600080fd5b61264a87828801612599565b91505092959194509250565b803563ffffffff811681146124cd57600080fd5b600080600080600060a0868803121561268257600080fd5b61268b866124b6565b9450602086013593506126a0604087016124b6565b925060608601356001600160401b038111156126bb57600080fd5b6126c788828901612599565b9250506126d660808701612656565b90509295509295909350565b6000806000606084860312156126f757600080fd5b612700846124b6565b925060208401359150612523604085016124b6565b60008060008060008060c0878903121561272e57600080fd5b61273787612656565b9550612745602088016124b6565b9450612753604088016124b6565b935060608701359250612768608088016124d2565b915061277660a088016124b6565b90509295509295509295565b80356001600160f01b0319811681146124cd57600080fd5b6000806000606084860312156127af57600080fd5b6127b8846124b6565b92506127c660208501612782565b9150604084013590509250925092565b6000806000606084860312156127eb57600080fd5b6127f4846124b6565b925061280260208501612656565b915061252360408501612782565b600080600080600060a0868803121561282857600080fd5b612831866124b6565b945061283f602087016124b6565b935060408601359250612854606087016124d2565b91506126d6608087016124b6565b6000806040838503121561287557600080fd5b61287e836124b6565b915060208301356001600160401b0381111561289957600080fd5b6128a585828601612599565b9150509250929050565b6000806000606084860312156128c457600080fd5b6128cd846124b6565b925060208401356001600160401b038111156128e857600080fd5b6128f486828701612599565b92505061252360408501612656565b8035600481106124cd57600080fd5b80356001600160401b03811681146124cd57600080fd5b6000806000806080858703121561293f57600080fd5b61294885612903565b935061295660208601612912565b925061296460408601612912565b9396929550929360600135925050565b60006020828403121561298657600080fd5b61298f82612903565b9392505050565b6000602082840312156129a857600080fd5b61298f826124b6565b600080600080608085870312156129c757600080fd5b6129d0856124b6565b9350602085013592506129e5604086016124d2565b91506129f3606086016124b6565b905092959194509250565b6001600160f81b031992909216825260601b6bffffffffffffffffffffffff1916600182015260150190565b60005b83811015612a45578181015183820152602001612a2d565b838111156111955750506000910152565b60008151808452612a6e816020860160208601612a2a565b601f01601f19169290920160200192915050565b6001600160a01b03861681526001600160f01b03198581166020830152841660408201526001600160801b038316606082015260a060808201819052600090612acd90830184612a56565b979650505050505050565b600060208284031215612aea57600080fd5b81516001600160401b03811115612b0057600080fd5b8201601f81018413612b1157600080fd5b8051612b1f6125b882612572565b818152856020838501011115612b3457600080fd5b612b45826020830160208601612a2a565b95945050505050565b600181811c90821680612b6257607f821691505b60208210811415612b8357634e487b7160e01b600052602260045260246000fd5b50919050565b60c081526000610100820160ff89541660c08401526001808a01604060e086015282815480855261012094508487019150848160051b8801019450600083815260209350838120815b83811015612c855789880361011f190185528154839080891c89821680612bfa57607f821691505b898210811415612c1857634e487b7160e01b87526022600452602487fd5b818c5260208c01818015612c335760018114612c4457612c6e565b60ff19851682528b82019550612c6e565b600088815260209020895b85811015612c6857815484820152908e01908d01612c4f565b83019650505b50939b505050958701955050908601908601612bd2565b5050505050612c9e8186018b6001600160a01b03169052565b50506001600160401b03871660408401528281036060840152612cc18187612a56565b915050836080830152612acd60a08301846001600160401b03169052565b6001600160a01b03888116825287811660208301528681166040830152606082018690526001600160801b0385166080830152831660a082015260e060c08201819052600090612d3190830184612a56565b9998505050505050505050565b6020808252600f908201526e72656d61726b20746f6f206c6f6e6760881b604082015260600190565b6001600160a01b03851681526001600160f01b031984166020820152608060408201819052600090612d9b90830185612a56565b8281036060840152612acd8185612a56565b6001600160a01b0387811682528681166020830152604082018690528416606082015260c060808201819052600090612de890830185612a56565b82810360a0840152612d318185612a56565b6001600160a01b03861681526001600160f01b03198516602082015260a060408201819052600090612e2e90830186612a56565b8281036060840152612e408186612a56565b91505063ffffffff831660808301529695505050505050565b6001600160a01b03841681526001600160f01b031983166020820152606060408201819052600090612b4590830184612a56565b6001600160a01b0386811682528581166020830152604082018590528316606082015260a060808201819052600090612acd90830184612a56565b6001600160a01b038716815263ffffffff861660208201526001600160f01b03198581166040830152841660608201526001600160801b038316608082015260c060a08201819052600090612f1f90830184612a56565b98975050505050505050565b6001600160a01b03898116825263ffffffff8916602083015287811660408301528681166060830152608082018690526001600160801b03851660a0830152831660c082015261010060e08201819052600090612f8a83820185612a56565b9b9a5050505050505050505050565b634e487b7160e01b600052603260045260246000fd5b634e487b7160e01b600052602160045260246000fd5b600060208284031215612fd757600080fd5b5051919050565b60018060a01b03851681526000602085818401526080604084015260c0830160ff865116608085015281860151604060a086015281815180845260e08701915060e08160051b8801019350848301925060005b8181101561305f5760df1988860301835261304d858551612a56565b94509285019291850191600101613031565b5050506001600160401b0386166060860152509150612b459050565b60006020828403121561308d57600080fd5b8151801515811461298f57600080fd5b6020808252602b908201527f496e697469616c697a61626c653a20636f6e7472616374206973206e6f74206960408201526a6e697469616c697a696e6760a81b60608201526080019056feca31869d7c65b3930a575eef33c6f69db06b0f1168af96408c4fceca8de0fadca264697066735822122040e1e465f4718a12f5a96fc2b6b251c27fba681256d2cf83163585ddfe4e5c2e64736f6c634300080a0033",
  "libraries": {
    "AddressToAccount": "0x7746ef546d562b443AE4B4145541a3b1a3D75717",
    "BuildCallData": "0x95A4D4b345c551A9182289F9dD7A018b7Fd0f940"
  },
  "devdoc": {
    "kind": "dev",
    "methods": {
      "owner()": {
        "details": "Returns the address of the current owner."
      },
      "paused()": {
        "details": "Returns true if the contract is paused, and false otherwise."
      },
      "renounceOwnership()": {
        "details": "Leaves the contract without owner. It will not be possible to call `onlyOwner` functions. Can only be called by the current owner. NOTE: Renouncing ownership will leave the contract without an owner, thereby disabling any functionality that is only available to the owner."
      },
      "transferOwnership(address)": {
        "details": "Transfers ownership of the contract to a new account (`newOwner`). Can only be called by the current owner."
      }
    },
    "version": 1
  },
  "userdoc": {
    "kind": "user",
    "methods": {
      "mintVAsset(address,uint256,address,string)": {
        "notice": "Minted vAssets"
      },
      "mintVAssetWithChannelId(address,uint256,address,string,uint32)": {
        "notice": "Minted vAssets"
      },
      "mintVNativeAsset(address,string)": {
        "notice": "Minted vNative assets such as vASTR, vGLMR, vMOVR"
      },
      "mintVNativeAssetWithChannelId(address,string,uint32)": {
        "notice": "Minted vNative assets such as vASTR, vGLMR, vMOVR"
      },
      "redeemAsset(address,uint256,address)": {
        "notice": "Redeem assets"
      },
      "swapAssetsForExactAssets(address,address,uint256,uint128,address)": {
        "notice": "Swap one asset for another"
      },
      "swapAssetsForExactNativeAssets(address,uint256,uint128,address)": {
        "notice": "Swap one asset for native asset"
      },
      "swapNativeAssetsForExactAssets(address,uint128,address)": {
        "notice": "Swap native asset for another"
      }
    },
    "version": 1
  },
  "storageLayout": {
    "storage": [
      {
        "astId": 3265,
        "contract": "contracts/MoonbeamSlpx.sol:MoonbeamSlpx",
        "label": "_initialized",
        "offset": 0,
        "slot": "0",
        "type": "t_uint8"
      },
      {
        "astId": 3268,
        "contract": "contracts/MoonbeamSlpx.sol:MoonbeamSlpx",
        "label": "_initializing",
        "offset": 1,
        "slot": "0",
        "type": "t_bool"
      },
      {
        "astId": 3935,
        "contract": "contracts/MoonbeamSlpx.sol:MoonbeamSlpx",
        "label": "__gap",
        "offset": 0,
        "slot": "1",
        "type": "t_array(t_uint256)50_storage"
      },
      {
        "astId": 3137,
        "contract": "contracts/MoonbeamSlpx.sol:MoonbeamSlpx",
        "label": "_owner",
        "offset": 0,
        "slot": "51",
        "type": "t_address"
      },
      {
        "astId": 3257,
        "contract": "contracts/MoonbeamSlpx.sol:MoonbeamSlpx",
        "label": "__gap",
        "offset": 0,
        "slot": "52",
        "type": "t_array(t_uint256)49_storage"
      },
      {
        "astId": 3449,
        "contract": "contracts/MoonbeamSlpx.sol:MoonbeamSlpx",
        "label": "_paused",
        "offset": 0,
        "slot": "101",
        "type": "t_bool"
      },
      {
        "astId": 3554,
        "contract": "contracts/MoonbeamSlpx.sol:MoonbeamSlpx",
        "label": "__gap",
        "offset": 0,
        "slot": "102",
        "type": "t_array(t_uint256)49_storage"
      },
      {
        "astId": 10124,
        "contract": "contracts/MoonbeamSlpx.sol:MoonbeamSlpx",
        "label": "xcmTransactorDestination",
        "offset": 0,
        "slot": "151",
        "type": "t_struct(Multilocation)12495_storage"
      },
      {
        "astId": 10126,
        "contract": "contracts/MoonbeamSlpx.sol:MoonbeamSlpx",
        "label": "BNCAddress",
        "offset": 0,
        "slot": "153",
        "type": "t_address"
      },
      {
        "astId": 10128,
        "contract": "contracts/MoonbeamSlpx.sol:MoonbeamSlpx",
        "label": "bifrostParaId",
        "offset": 20,
        "slot": "153",
        "type": "t_uint32"
      },
      {
        "astId": 10150,
        "contract": "contracts/MoonbeamSlpx.sol:MoonbeamSlpx",
        "label": "addressToAssetInfo",
        "offset": 0,
        "slot": "154",
        "type": "t_mapping(t_address,t_struct(AssetInfo)10138_storage)"
      },
      {
        "astId": 10156,
        "contract": "contracts/MoonbeamSlpx.sol:MoonbeamSlpx",
        "label": "operationToFeeInfo",
        "offset": 0,
        "slot": "155",
        "type": "t_mapping(t_enum(Operation)10133,t_struct(FeeInfo)10145_storage)"
      }
    ],
    "types": {
      "t_address": {
        "encoding": "inplace",
        "label": "address",
        "numberOfBytes": "20"
      },
      "t_array(t_bytes_storage)dyn_storage": {
        "base": "t_bytes_storage",
        "encoding": "dynamic_array",
        "label": "bytes[]",
        "numberOfBytes": "32"
      },
      "t_array(t_uint256)49_storage": {
        "base": "t_uint256",
        "encoding": "inplace",
        "label": "uint256[49]",
        "numberOfBytes": "1568"
      },
      "t_array(t_uint256)50_storage": {
        "base": "t_uint256",
        "encoding": "inplace",
        "label": "uint256[50]",
        "numberOfBytes": "1600"
      },
      "t_bool": {
        "encoding": "inplace",
        "label": "bool",
        "numberOfBytes": "1"
      },
      "t_bytes2": {
        "encoding": "inplace",
        "label": "bytes2",
        "numberOfBytes": "2"
      },
      "t_bytes_storage": {
        "encoding": "bytes",
        "label": "bytes",
        "numberOfBytes": "32"
      },
      "t_enum(Operation)10133": {
        "encoding": "inplace",
        "label": "enum MoonbeamSlpx.Operation",
        "numberOfBytes": "1"
      },
      "t_mapping(t_address,t_struct(AssetInfo)10138_storage)": {
        "encoding": "mapping",
        "key": "t_address",
        "label": "mapping(address => struct MoonbeamSlpx.AssetInfo)",
        "numberOfBytes": "32",
        "value": "t_struct(AssetInfo)10138_storage"
      },
      "t_mapping(t_enum(Operation)10133,t_struct(FeeInfo)10145_storage)": {
        "encoding": "mapping",
        "key": "t_enum(Operation)10133",
        "label": "mapping(enum MoonbeamSlpx.Operation => struct MoonbeamSlpx.FeeInfo)",
        "numberOfBytes": "32",
        "value": "t_struct(FeeInfo)10145_storage"
      },
      "t_struct(AssetInfo)10138_storage": {
        "encoding": "inplace",
        "label": "struct MoonbeamSlpx.AssetInfo",
        "members": [
          {
            "astId": 10135,
            "contract": "contracts/MoonbeamSlpx.sol:MoonbeamSlpx",
            "label": "currencyId",
            "offset": 0,
            "slot": "0",
            "type": "t_bytes2"
          },
          {
            "astId": 10137,
            "contract": "contracts/MoonbeamSlpx.sol:MoonbeamSlpx",
            "label": "operationalMin",
            "offset": 0,
            "slot": "1",
            "type": "t_uint256"
          }
        ],
        "numberOfBytes": "64"
      },
      "t_struct(FeeInfo)10145_storage": {
        "encoding": "inplace",
        "label": "struct MoonbeamSlpx.FeeInfo",
        "members": [
          {
            "astId": 10140,
            "contract": "contracts/MoonbeamSlpx.sol:MoonbeamSlpx",
            "label": "transactRequiredWeightAtMost",
            "offset": 0,
            "slot": "0",
            "type": "t_uint64"
          },
          {
            "astId": 10142,
            "contract": "contracts/MoonbeamSlpx.sol:MoonbeamSlpx",
            "label": "feeAmount",
            "offset": 0,
            "slot": "1",
            "type": "t_uint256"
          },
          {
            "astId": 10144,
            "contract": "contracts/MoonbeamSlpx.sol:MoonbeamSlpx",
            "label": "overallWeight",
            "offset": 0,
            "slot": "2",
            "type": "t_uint64"
          }
        ],
        "numberOfBytes": "96"
      },
      "t_struct(Multilocation)12495_storage": {
        "encoding": "inplace",
        "label": "struct XcmTransactorV2.Multilocation",
        "members": [
          {
            "astId": 12491,
            "contract": "contracts/MoonbeamSlpx.sol:MoonbeamSlpx",
            "label": "parents",
            "offset": 0,
            "slot": "0",
            "type": "t_uint8"
          },
          {
            "astId": 12494,
            "contract": "contracts/MoonbeamSlpx.sol:MoonbeamSlpx",
            "label": "interior",
            "offset": 0,
            "slot": "1",
            "type": "t_array(t_bytes_storage)dyn_storage"
          }
        ],
        "numberOfBytes": "64"
      },
      "t_uint256": {
        "encoding": "inplace",
        "label": "uint256",
        "numberOfBytes": "32"
      },
      "t_uint32": {
        "encoding": "inplace",
        "label": "uint32",
        "numberOfBytes": "4"
      },
      "t_uint64": {
        "encoding": "inplace",
        "label": "uint64",
        "numberOfBytes": "8"
      },
      "t_uint8": {
        "encoding": "inplace",
        "label": "uint8",
        "numberOfBytes": "1"
      }
    }
  }
}