{
  "address": "0x0e13c5327914929b62A1809F62ad044C4be0A29D",
  "abi": [
    {
      "anonymous": false,
      "inputs": [
        {
          "indexed": false,
          "internalType": "uint8",
          "name": "version",
          "type": "uint8"
        }
      ],
      "name": "Initialized",
      "type": "event"
    },
    {
      "anonymous": false,
      "inputs": [
        {
          "indexed": false,
          "internalType": "address",
          "name": "minter",
          "type": "address"
        },
        {
          "indexed": false,
          "internalType": "address",
          "name": "assetAddress",
          "type": "address"
        },
        {
          "indexed": false,
          "internalType": "uint256",
          "name": "amount",
          "type": "uint256"
        },
        {
          "indexed": false,
          "internalType": "address",
          "name": "receiver",
          "type": "address"
        },
        {
          "indexed": false,
          "internalType": "bytes",
          "name": "callcode",
          "type": "bytes"
        },
        {
          "indexed": false,
          "internalType": "string",
          "name": "remark",
          "type": "string"
        }
      ],
      "name": "Mint",
      "type": "event"
    },
    {
      "anonymous": false,
      "inputs": [
        {
          "indexed": true,
          "internalType": "address",
          "name": "previousOwner",
          "type": "address"
        },
        {
          "indexed": true,
          "internalType": "address",
          "name": "newOwner",
          "type": "address"
        }
      ],
      "name": "OwnershipTransferred",
      "type": "event"
    },
    {
      "anonymous": false,
      "inputs": [
        {
          "indexed": false,
          "internalType": "address",
          "name": "account",
          "type": "address"
        }
      ],
      "name": "Paused",
      "type": "event"
    },
    {
      "anonymous": false,
      "inputs": [
        {
          "indexed": false,
          "internalType": "address",
          "name": "redeemer",
          "type": "address"
        },
        {
          "indexed": false,
          "internalType": "address",
          "name": "assetAddress",
          "type": "address"
        },
        {
          "indexed": false,
          "internalType": "uint256",
          "name": "amount",
          "type": "uint256"
        },
        {
          "indexed": false,
          "internalType": "address",
          "name": "receiver",
          "type": "address"
        },
        {
          "indexed": false,
          "internalType": "bytes",
          "name": "callcode",
          "type": "bytes"
        }
      ],
      "name": "Redeem",
      "type": "event"
    },
    {
      "anonymous": false,
      "inputs": [
        {
          "indexed": false,
          "internalType": "address",
          "name": "swapper",
          "type": "address"
        },
        {
          "indexed": false,
          "internalType": "uint32",
          "name": "poolId",
          "type": "uint32"
        },
        {
          "indexed": false,
          "internalType": "address",
          "name": "assetInAddress",
          "type": "address"
        },
        {
          "indexed": false,
          "internalType": "address",
          "name": "assetOutAddress",
          "type": "address"
        },
        {
          "indexed": false,
          "internalType": "uint256",
          "name": "assetInAmount",
          "type": "uint256"
        },
        {
          "indexed": false,
          "internalType": "uint128",
          "name": "minDy",
          "type": "uint128"
        },
        {
          "indexed": false,
          "internalType": "address",
          "name": "receiver",
          "type": "address"
        },
        {
          "indexed": false,
          "internalType": "bytes",
          "name": "callcode",
          "type": "bytes"
        }
      ],
      "name": "StablePoolSwap",
      "type": "event"
    },
    {
      "anonymous": false,
      "inputs": [
        {
          "indexed": false,
          "internalType": "address",
          "name": "swapper",
          "type": "address"
        },
        {
          "indexed": false,
          "internalType": "address",
          "name": "assetInAddress",
          "type": "address"
        },
        {
          "indexed": false,
          "internalType": "address",
          "name": "assetOutAddress",
          "type": "address"
        },
        {
          "indexed": false,
          "internalType": "uint256",
          "name": "assetInAmount",
          "type": "uint256"
        },
        {
          "indexed": false,
          "internalType": "uint128",
          "name": "assetOutMin",
          "type": "uint128"
        },
        {
          "indexed": false,
          "internalType": "address",
          "name": "receiver",
          "type": "address"
        },
        {
          "indexed": false,
          "internalType": "bytes",
          "name": "callcode",
          "type": "bytes"
        }
      ],
      "name": "Swap",
      "type": "event"
    },
    {
      "anonymous": false,
      "inputs": [
        {
          "indexed": false,
          "internalType": "address",
          "name": "account",
          "type": "address"
        }
      ],
      "name": "Unpaused",
      "type": "event"
    },
    {
      "inputs": [],
      "name": "BNCAddress",
      "outputs": [
        {
          "internalType": "address",
          "name": "",
          "type": "address"
        }
      ],
      "stateMutability": "view",
      "type": "function"
    },
    {
      "inputs": [
        {
          "internalType": "address",
          "name": "",
          "type": "address"
        }
      ],
      "name": "addressToAssetInfo",
      "outputs": [
        {
          "internalType": "bytes2",
          "name": "currencyId",
          "type": "bytes2"
        },
        {
          "internalType": "uint256",
          "name": "operationalMin",
          "type": "uint256"
        }
      ],
      "stateMutability": "view",
      "type": "function"
    },
    {
      "inputs": [],
      "name": "bifrostParaId",
      "outputs": [
        {
          "internalType": "uint32",
          "name": "",
          "type": "uint32"
        }
      ],
      "stateMutability": "view",
      "type": "function"
    },
    {
      "inputs": [
        {
          "internalType": "address",
          "name": "_BNCAddress",
          "type": "address"
        },
        {
          "internalType": "uint32",
          "name": "_bifrostParaId",
          "type": "uint32"
        },
        {
          "internalType": "bytes2",
          "name": "_nativeCurrencyId",
          "type": "bytes2"
        }
      ],
      "name": "initialize",
      "outputs": [],
      "stateMutability": "nonpayable",
      "type": "function"
    },
    {
      "inputs": [
        {
          "internalType": "address",
          "name": "assetAddress",
          "type": "address"
        },
        {
          "internalType": "uint256",
          "name": "amount",
          "type": "uint256"
        },
        {
          "internalType": "address",
          "name": "receiver",
          "type": "address"
        },
        {
          "internalType": "string",
          "name": "remark",
          "type": "string"
        }
      ],
      "name": "mintVAsset",
      "outputs": [],
      "stateMutability": "nonpayable",
      "type": "function"
    },
    {
      "inputs": [
        {
          "internalType": "address",
          "name": "receiver",
          "type": "address"
        },
        {
          "internalType": "string",
          "name": "remark",
          "type": "string"
        }
      ],
      "name": "mintVNativeAsset",
      "outputs": [],
      "stateMutability": "payable",
      "type": "function"
    },
    {
      "inputs": [
        {
          "internalType": "enum MoonbeamSlpx.Operation",
          "name": "",
          "type": "uint8"
        }
      ],
      "name": "operationToFeeInfo",
      "outputs": [
        {
          "internalType": "uint64",
          "name": "transactRequiredWeightAtMost",
          "type": "uint64"
        },
        {
          "internalType": "uint256",
          "name": "feeAmount",
          "type": "uint256"
        },
        {
          "internalType": "uint64",
          "name": "overallWeight",
          "type": "uint64"
        }
      ],
      "stateMutability": "view",
      "type": "function"
    },
    {
      "inputs": [],
      "name": "owner",
      "outputs": [
        {
          "internalType": "address",
          "name": "",
          "type": "address"
        }
      ],
      "stateMutability": "view",
      "type": "function"
    },
    {
      "inputs": [],
      "name": "pause",
      "outputs": [],
      "stateMutability": "nonpayable",
      "type": "function"
    },
    {
      "inputs": [],
      "name": "paused",
      "outputs": [
        {
          "internalType": "bool",
          "name": "",
          "type": "bool"
        }
      ],
      "stateMutability": "view",
      "type": "function"
    },
    {
      "inputs": [
        {
          "internalType": "address",
          "name": "vAssetAddress",
          "type": "address"
        },
        {
          "internalType": "uint256",
          "name": "amount",
          "type": "uint256"
        },
        {
          "internalType": "address",
          "name": "receiver",
          "type": "address"
        }
      ],
      "name": "redeemAsset",
      "outputs": [],
      "stateMutability": "nonpayable",
      "type": "function"
    },
    {
      "inputs": [],
      "name": "renounceOwnership",
      "outputs": [],
      "stateMutability": "nonpayable",
      "type": "function"
    },
    {
      "inputs": [
        {
          "internalType": "address",
          "name": "assetAddress",
          "type": "address"
        },
        {
          "internalType": "bytes2",
          "name": "currencyId",
          "type": "bytes2"
        },
        {
          "internalType": "uint256",
          "name": "minimumValue",
          "type": "uint256"
        }
      ],
      "name": "setAssetAddressInfo",
      "outputs": [],
      "stateMutability": "nonpayable",
      "type": "function"
    },
    {
      "inputs": [
        {
          "internalType": "enum MoonbeamSlpx.Operation",
          "name": "_operation",
          "type": "uint8"
        },
        {
          "internalType": "uint64",
          "name": "_transactRequiredWeightAtMost",
          "type": "uint64"
        },
        {
          "internalType": "uint64",
          "name": "_overallWeight",
          "type": "uint64"
        },
        {
          "internalType": "uint256",
          "name": "_feeAmount",
          "type": "uint256"
        }
      ],
      "name": "setOperationToFeeInfo",
      "outputs": [],
      "stateMutability": "nonpayable",
      "type": "function"
    },
    {
      "inputs": [
        {
          "internalType": "uint32",
          "name": "poolId",
          "type": "uint32"
        },
        {
          "internalType": "address",
          "name": "assetInAddress",
          "type": "address"
        },
        {
          "internalType": "address",
          "name": "assetOutAddress",
          "type": "address"
        },
        {
          "internalType": "uint256",
          "name": "assetInAmount",
          "type": "uint256"
        },
        {
          "internalType": "uint128",
          "name": "minDy",
          "type": "uint128"
        },
        {
          "internalType": "address",
          "name": "receiver",
          "type": "address"
        }
      ],
      "name": "stablePoolSwap",
      "outputs": [],
      "stateMutability": "nonpayable",
      "type": "function"
    },
    {
      "inputs": [
        {
          "internalType": "address",
          "name": "assetInAddress",
          "type": "address"
        },
        {
          "internalType": "address",
          "name": "assetOutAddress",
          "type": "address"
        },
        {
          "internalType": "uint256",
          "name": "assetInAmount",
          "type": "uint256"
        },
        {
          "internalType": "uint128",
          "name": "assetOutMin",
          "type": "uint128"
        },
        {
          "internalType": "address",
          "name": "receiver",
          "type": "address"
        }
      ],
      "name": "swapAssetsForExactAssets",
      "outputs": [],
      "stateMutability": "nonpayable",
      "type": "function"
    },
    {
      "inputs": [
        {
          "internalType": "address",
          "name": "assetInAddress",
          "type": "address"
        },
        {
          "internalType": "uint256",
          "name": "assetInAmount",
          "type": "uint256"
        },
        {
          "internalType": "uint128",
          "name": "assetOutMin",
          "type": "uint128"
        },
        {
          "internalType": "address",
          "name": "receiver",
          "type": "address"
        }
      ],
      "name": "swapAssetsForExactNativeAssets",
      "outputs": [],
      "stateMutability": "nonpayable",
      "type": "function"
    },
    {
      "inputs": [
        {
          "internalType": "address",
          "name": "assetOutAddress",
          "type": "address"
        },
        {
          "internalType": "uint128",
          "name": "assetOutMin",
          "type": "uint128"
        },
        {
          "internalType": "address",
          "name": "receiver",
          "type": "address"
        }
      ],
      "name": "swapNativeAssetsForExactAssets",
      "outputs": [],
      "stateMutability": "payable",
      "type": "function"
    },
    {
      "inputs": [
        {
          "internalType": "address",
          "name": "newOwner",
          "type": "address"
        }
      ],
      "name": "transferOwnership",
      "outputs": [],
      "stateMutability": "nonpayable",
      "type": "function"
    },
    {
      "inputs": [],
      "name": "unpause",
      "outputs": [],
      "stateMutability": "nonpayable",
      "type": "function"
    }
  ],
  "transactionHash": "0x8829d66460c84c00680e49668fff4e9ff56dc94caa49c920bc074f9cd82c5585",
  "args": [],
  "numDeployments": 2,
  "solcInputHash": "78ccdc394f323f274fe9010af2604bd5",
  "bytecode": "0x608060405234801561001057600080fd5b50612da6806100206000396000f3fe60806040526004361061011f5760003560e01c806362c64fe1116100a0578063bddef61a11610064578063bddef61a146102e9578063c86093a81461035a578063c864545614610393578063d6aa374d146103ee578063f2fde38b1461040e57600080fd5b806362c64fe11461026e578063715018a6146102815780638456cb591461029657806386c64bb2146102ab5780638da5cb5b146102cb57600080fd5b80634972a921116100e75780634972a921146101cb57806352b11006146101eb5780635bbfef451461020b5780635c975abb1461022b5780635ede28821461024e57600080fd5b806323e498791461012457806324af044714610139578063374f00ff146101595780633f4ba83a146101965780634899b9a8146101ab575b600080fd5b6101376101323660046122b9565b61042e565b005b34801561014557600080fd5b506101376101543660046123bf565b6105f1565b34801561016557600080fd5b50609954610179906001600160a01b031681565b6040516001600160a01b0390911681526020015b60405180910390f35b3480156101a257600080fd5b506101376107d7565b3480156101b757600080fd5b506101376101c6366004612426565b6107e9565b3480156101d757600080fd5b506101376101e636600461246d565b610993565b3480156101f757600080fd5b506101376102063660046124f2565b610b5a565b34801561021757600080fd5b5061013761022636600461252e565b610c72565b34801561023757600080fd5b5060655460ff16604051901515815260200161018d565b34801561025a57600080fd5b50610137610269366004612568565b610fc0565b61013761027c3660046125c6565b611182565b34801561028d57600080fd5b50610137611376565b3480156102a257600080fd5b50610137611388565b3480156102b757600080fd5b506101376102c6366004612639565b611398565b3480156102d757600080fd5b506033546001600160a01b0316610179565b3480156102f557600080fd5b50610330610304366004612684565b609b602052600090815260409020805460018201546002909201546001600160401b0391821692911683565b604080516001600160401b039485168152602081019390935292169181019190915260600161018d565b34801561036657600080fd5b5060995461037e90600160a01b900463ffffffff1681565b60405163ffffffff909116815260200161018d565b34801561039f57600080fd5b506103ce6103ae3660046126a6565b609a602052600090815260409020805460019091015460f09190911b9082565b604080516001600160f01b0319909316835260208301919091520161018d565b3480156103fa57600080fd5b506101376104093660046126c1565b611560565b34801561041a57600080fd5b506101376104293660046126a6565b611725565b61043661179e565b6000610441846117e4565b905060006104506108026117e4565b905061045b346118b3565b60405160009061047590600160f81b90869060200161270e565b60405160208183030381529060405290506000734238Ea4AdFa2bD6a5fC9B5E245dc1900cF0258aa63cb070de56104a93390565b85878a876040518663ffffffff1660e01b81526004016104cd959493929190612792565b600060405180830381865af41580156104ea573d6000803e3d6000fd5b505050506040513d6000823e601f3d908101601f1916820160405261051291908101906127e8565b905060006105206002611a28565b609954815160208301516040808501519051635b2479ff60e11b815294955061080d9463b648f3fe9461056a946097946001600160a01b039092169390928a929190600401612899565b600060405180830381600087803b15801561058457600080fd5b505af1158015610598573d6000803e3d6000fd5b505050507fe869557c53c6b4ca27e56668068f17eca71394d04718a9214a7667f1474950ff6105c43390565b6108028a348b8b886040516105df97969594939291906129ef565b60405180910390a15050505050505050565b6105f961179e565b6020815111156106425760405162461bcd60e51b815260206004820152600f60248201526e72656d61726b20746f6f206c6f6e6760881b60448201526064015b60405180910390fd5b600061064d856117e4565b90506106598585611baf565b60405160009061067390600160f81b90869060200161270e565b60405160208183030381529060405290506000734238Ea4AdFa2bD6a5fC9B5E245dc1900cF0258aa63b92155276106a73390565b8585886040518563ffffffff1660e01b81526004016106c99493929190612a4e565b600060405180830381865af41580156106e6573d6000803e3d6000fd5b505050506040513d6000823e601f3d908101601f1916820160405261070e91908101906127e8565b9050600061071c6000611a28565b609954815160208301516040808501519051635b2479ff60e11b815294955061080d9463b648f3fe94610766946097946001600160a01b039092169390928a929190600401612899565b600060405180830381600087803b15801561078057600080fd5b505af1158015610794573d6000803e3d6000fd5b505050507fca31869d7c65b3930a575eef33c6f69db06b0f1168af96408c4fceca8de0fadc6107c03390565b898989868a6040516105df96959493929190612a94565b6107df611de8565b6107e7611e42565b565b6107f161179e565b60006107fc846117e4565b90506108088484611baf565b60405160009061082290600160f81b90859060200161270e565b60405160208183030381529060405290506000734238Ea4AdFa2bD6a5fC9B5E245dc1900cF0258aa639f0047836108563390565b85856040518463ffffffff1660e01b815260040161087693929190612ae1565b600060405180830381865af4158015610893573d6000803e3d6000fd5b505050506040513d6000823e601f3d908101601f191682016040526108bb91908101906127e8565b905060006108c96001611a28565b609954815160208301516040808501519051635b2479ff60e11b815294955061080d9463b648f3fe94610913946097946001600160a01b039092169390928a929190600401612899565b600060405180830381600087803b15801561092d57600080fd5b505af1158015610941573d6000803e3d6000fd5b505050507f89996e9f85ecc9022265638d75df5de89dd421fab215e1b013ece5fcc188adce61096d3390565b88888886604051610982959493929190612b15565b60405180910390a150505050505050565b61099b61179e565b60006109a6866117e4565b905060006109b3866117e4565b90506109bf8786611baf565b6040516000906109d990600160f81b90869060200161270e565b60405160208183030381529060405290506000734238Ea4AdFa2bD6a5fC9B5E245dc1900cF0258aa636bc6c67f610a0d3390565b8c87878b886040518763ffffffff1660e01b8152600401610a3396959493929190612b50565b600060405180830381865af4158015610a50573d6000803e3d6000fd5b505050506040513d6000823e601f3d908101601f19168201604052610a7891908101906127e8565b90506000610a866003611a28565b609954815160208301516040808501519051635b2479ff60e11b815294955061080d9463b648f3fe94610ad0946097946001600160a01b039092169390928a929190600401612899565b600060405180830381600087803b158015610aea57600080fd5b505af1158015610afe573d6000803e3d6000fd5b505050507ff9a157c40f0a1b19376934e7c611456abb1d51640748e1a86602391e13d96af5610b2a3390565b8c8c8c8c8c8c89604051610b45989796959493929190612bb3565b60405180910390a15050505050505050505050565b610b62611de8565b6001600160a01b038316610baf5760405162461bcd60e51b8152602060048201526014602482015273496e76616c69642061737365744164647265737360601b6044820152606401610639565b80610bf35760405162461bcd60e51b8152602060048201526014602482015273496e76616c6964206d696e696d756d56616c756560601b6044820152606401610639565b6001600160f01b03198216610c3f5760405162461bcd60e51b8152602060048201526012602482015271125b9d985b1a590818dd5c9c995b98de525960721b6044820152606401610639565b6001600160a01b03929092166000908152609a60205260409020805461ffff191660f09290921c91909117815560010155565b600054610100900460ff1615808015610c925750600054600160ff909116105b80610cac5750303b158015610cac575060005460ff166001145b610d0f5760405162461bcd60e51b815260206004820152602e60248201527f496e697469616c697a61626c653a20636f6e747261637420697320616c72656160448201526d191e481a5b9a5d1a585b1a5e995960921b6064820152608401610639565b6000805460ff191660011790558015610d32576000805461ff0019166101001790555b610d3a611e94565b610d42611ec3565b6001600160a01b038416610d8a5760405162461bcd60e51b815260206004820152600f60248201526e496e76616c6964206164647265737360881b6044820152606401610639565b8263ffffffff166107d11480610da757508263ffffffff166107ee145b610deb5760405162461bcd60e51b8152602060048201526015602482015274125b9d985b1a5908189a599c9bdcdd14185c985259605a1b6044820152606401610639565b61010560f11b6001600160f01b031983161480610e16575061080160f01b6001600160f01b03198316145b610e625760405162461bcd60e51b815260206004820152601860248201527f496e76616c6964206e617469766543757272656e6379496400000000000000006044820152606401610639565b610e7684600160f01b64e8d4a51000610b5a565b610e8b61080283670de0b6b3a7640000610b5a565b609980546001600160a01b0386166001600160c01b031990911617600160a01b63ffffffff861602179055604080516001808252818301909252600091816020015b6060815260200190600190039081610ecd57905050604051600060208201526001600160e01b031960e087901b16602182015290915060250160405160208183030381529060405281600081518110610f2857610f28612c21565b6020908102919091018101919091526040805180820190915260018082528183018490526097805460ff19169091178155835191929091610f6f916098919086019061213d565b50905050508015610fba576000805461ff0019169055604051600181527f7f26b83ff96e1f2b6a682f133852f6798a09c465da95921460cefb38474024989060200160405180910390a15b50505050565b610fc861179e565b6000610fd3866117e4565b90506000610fe0866117e4565b9050610fec8786611baf565b60405160009061100690600160f81b90869060200161270e565b60405160208183030381529060405290506000734238Ea4AdFa2bD6a5fC9B5E245dc1900cF0258aa63cb070de561103a3390565b86868a876040518663ffffffff1660e01b815260040161105e959493929190612792565b600060405180830381865af415801561107b573d6000803e3d6000fd5b505050506040513d6000823e601f3d908101601f191682016040526110a391908101906127e8565b905060006110b16002611a28565b609954815160208301516040808501519051635b2479ff60e11b815294955061080d9463b648f3fe946110fb946097946001600160a01b039092169390928a929190600401612899565b600060405180830381600087803b15801561111557600080fd5b505af1158015611129573d6000803e3d6000fd5b505050507fe869557c53c6b4ca27e56668068f17eca71394d04718a9214a7667f1474950ff6111553390565b8b8b8b8b8b8860405161116e97969594939291906129ef565b60405180910390a150505050505050505050565b61118a61179e565b6020815111156111ce5760405162461bcd60e51b815260206004820152600f60248201526e72656d61726b20746f6f206c6f6e6760881b6044820152606401610639565b60006111db6108026117e4565b90506111e6346118b3565b60405160009061120090600160f81b90869060200161270e565b60405160208183030381529060405290506000734238Ea4AdFa2bD6a5fC9B5E245dc1900cF0258aa63b92155276112343390565b8585886040518563ffffffff1660e01b81526004016112569493929190612a4e565b600060405180830381865af4158015611273573d6000803e3d6000fd5b505050506040513d6000823e601f3d908101601f1916820160405261129b91908101906127e8565b905060006112a96000611a28565b609954815160208301516040808501519051635b2479ff60e11b815294955061080d9463b648f3fe946112f3946097946001600160a01b039092169390928a929190600401612899565b600060405180830381600087803b15801561130d57600080fd5b505af1158015611321573d6000803e3d6000fd5b505050507fca31869d7c65b3930a575eef33c6f69db06b0f1168af96408c4fceca8de0fadc61134d3390565b6108023489868a60405161136696959493929190612a94565b60405180910390a1505050505050565b61137e611de8565b6107e76000611ef2565b611390611de8565b6107e7611f44565b6113a0611de8565b6402540be400836001600160401b0316111561140d5760405162461bcd60e51b815260206004820152602660248201527f7472616e73616374526571756972656457656967687441744d6f737420746f6f604482015265206c6172676560d01b6064820152608401610639565b64e8d4a510008111156114585760405162461bcd60e51b8152602060048201526013602482015272666565416d6f756e7420746f6f206c6172676560681b6044820152606401610639565b6402540be400826001600160401b031611156114b65760405162461bcd60e51b815260206004820152601760248201527f4f766572616c6c57656967687420746f6f206c617267650000000000000000006044820152606401610639565b6040518060600160405280846001600160401b03168152602001828152602001836001600160401b0316815250609b60008660038111156114f9576114f9612c37565b600381111561150a5761150a612c37565b81526020808201929092526040908101600020835181546001600160401b0391821667ffffffffffffffff1991821617835593850151600183015593909101516002909101805491909316911617905550505050565b61156861179e565b6000611573856117e4565b905060006115826108026117e4565b905061158e8686611baf565b6040516000906115a890600160f81b90869060200161270e565b60405160208183030381529060405290506000734238Ea4AdFa2bD6a5fC9B5E245dc1900cF0258aa63cb070de56115dc3390565b86868a876040518663ffffffff1660e01b8152600401611600959493929190612792565b600060405180830381865af415801561161d573d6000803e3d6000fd5b505050506040513d6000823e601f3d908101601f1916820160405261164591908101906127e8565b905060006116536002611a28565b609954815160208301516040808501519051635b2479ff60e11b815294955061080d9463b648f3fe9461169d946097946001600160a01b039092169390928a929190600401612899565b600060405180830381600087803b1580156116b757600080fd5b505af11580156116cb573d6000803e3d6000fd5b505050507fe869557c53c6b4ca27e56668068f17eca71394d04718a9214a7667f1474950ff6116f73390565b8a6108028b8b8b8860405161171297969594939291906129ef565b60405180910390a1505050505050505050565b61172d611de8565b6001600160a01b0381166117925760405162461bcd60e51b815260206004820152602660248201527f4f776e61626c653a206e6577206f776e657220697320746865207a65726f206160448201526564647265737360d01b6064820152608401610639565b61179b81611ef2565b50565b60655460ff16156107e75760405162461bcd60e51b815260206004820152601060248201526f14185d5cd8589b194e881c185d5cd95960821b6044820152606401610639565b6001600160a01b0381166000908152609a602090815260408083208151808301909252805460f01b6001600160f01b031916825260010154918101829052906118645760405162461bcd60e51b8152602060048201526012602482015271105cdcd95d081a5cc81b9bdd08195e1a5cdd60721b6044820152606401610639565b80516001600160f01b0319166118ac5760405162461bcd60e51b815260206004820152600d60248201526c125b9d985b1a5908185cdcd95d609a1b6044820152606401610639565b5192915050565b610802600052609a6020527fae00947ee313780ebd51d12b4f1ecb575ce4eb6b099d8cff17facd5b92da71f0548110156119285760405162461bcd60e51b81526020600482015260166024820152754c657373207468616e204d696e696d756d56616c756560501b6044820152606401610639565b6000737746ef546d562b443AE4B4145541a3b1a3D757176332640a52336040516001600160e01b031960e084901b1681526001600160a01b039091166004820152602401602060405180830381865af4158015611989573d6000803e3d6000fd5b505050506040513d601f19601f820116820180604052508101906119ad9190612c4d565b905060006119ba82611f81565b60405163b9f813ff60e01b81529091506108049063b9f813ff906119f19061080290879086906001600160401b0390600401612c66565b600060405180830381600087803b158015611a0b57600080fd5b505af1158015611a1f573d6000803e3d6000fd5b50505050505050565b6040805160608101825260008082526020820181905291810182905290609b81846003811115611a5a57611a5a612c37565b6003811115611a6b57611a6b612c37565b81526020808201929092526040908101600020815160608101835281546001600160401b03908116808352600184015495830195909552600290920154909116918101919091529150611b0c5760405162461bcd60e51b8152602060048201526024808201527f496e76616c6964207472616e7361637452657175697265645765696768744174604482015263135bdcdd60e21b6064820152608401610639565b6000816020015111611b545760405162461bcd60e51b8152602060048201526011602482015270125b9d985b1a5908199959505b5bdd5b9d607a1b6044820152606401610639565b600081604001516001600160401b031611611ba95760405162461bcd60e51b8152602060048201526015602482015274125b9d985b1a59081bdd995c985b1b15d95a59da1d605a1b6044820152606401610639565b92915050565b6001600160a01b038216611bfc5760405162461bcd60e51b8152602060048201526014602482015273496e76616c69642061737365744164647265737360601b6044820152606401610639565b6001600160a01b0382166000908152609a6020526040902060010154811015611c605760405162461bcd60e51b81526020600482015260166024820152754c657373207468616e204d696e696d756d56616c756560501b6044820152606401610639565b6000737746ef546d562b443AE4B4145541a3b1a3D757176332640a52336040516001600160e01b031960e084901b1681526001600160a01b039091166004820152602401602060405180830381865af4158015611cc1573d6000803e3d6000fd5b505050506040513d601f19601f82011682018060405250810190611ce59190612c4d565b90506000611cf282611f81565b9050836001600160a01b0381166323b872dd336040516001600160e01b031960e084901b1681526001600160a01b039091166004820152306024820152604481018790526064016020604051808303816000875af1158015611d58573d6000803e3d6000fd5b505050506040513d601f19601f82011682018060405250810190611d7c9190612d03565b5060405163b9f813ff60e01b81526108049063b9f813ff90611daf908890889087906001600160401b0390600401612c66565b600060405180830381600087803b158015611dc957600080fd5b505af1158015611ddd573d6000803e3d6000fd5b505050505050505050565b6033546001600160a01b031633146107e75760405162461bcd60e51b815260206004820181905260248201527f4f776e61626c653a2063616c6c6572206973206e6f7420746865206f776e65726044820152606401610639565b611e4a612091565b6065805460ff191690557f5db9ee0a495bf2e6ff9c91a7834c1ba4fdd244a5e8aa4e537bd38aeae4b073aa335b6040516001600160a01b03909116815260200160405180910390a1565b600054610100900460ff16611ebb5760405162461bcd60e51b815260040161063990612d25565b6107e76120da565b600054610100900460ff16611eea5760405162461bcd60e51b815260040161063990612d25565b6107e761210a565b603380546001600160a01b038381166001600160a01b0319831681179093556040519116919082907f8be0079c531659141344cd1fd0a4f28419497f9722a3daafe3b4186f6b6457e090600090a35050565b611f4c61179e565b6065805460ff191660011790557f62e78cea01bee320cd4e420270b5ea74000d11b0c9f74754ebdbfc544b05a258611e773390565b60408051808201825260008082526060602083018190528351600280825291810190945291929091816020015b6060815260200190600190039081611fae5790505060995460405160006020820152600160a01b90910460e01b6001600160e01b03191660218201529091506025016040516020818303038152906040528160008151811061201257612012612c21565b6020026020010181905250826040516020016120459190600160f81b815260018101919091526000602182015260220190565b6040516020818303038152906040528160018151811061206757612067612c21565b60209081029190910181019190915260408051808201909152600181529081019190915292915050565b60655460ff166107e75760405162461bcd60e51b815260206004820152601460248201527314185d5cd8589b194e881b9bdd081c185d5cd95960621b6044820152606401610639565b600054610100900460ff166121015760405162461bcd60e51b815260040161063990612d25565b6107e733611ef2565b600054610100900460ff166121315760405162461bcd60e51b815260040161063990612d25565b6065805460ff19169055565b82805482825590600052602060002090810192821561218a579160200282015b8281111561218a578251805161217a91849160209091019061219a565b509160200191906001019061215d565b5061219692915061221a565b5090565b8280546121a69061285e565b90600052602060002090601f0160209004810192826121c8576000855561220e565b82601f106121e157805160ff191683800117855561220e565b8280016001018555821561220e579182015b8281111561220e5782518255916020019190600101906121f3565b50612196929150612237565b8082111561219657600061222e828261224c565b5060010161221a565b5b808211156121965760008155600101612238565b5080546122589061285e565b6000825580601f10612268575050565b601f01602090049060005260206000209081019061179b9190612237565b80356001600160a01b038116811461229d57600080fd5b919050565b80356001600160801b038116811461229d57600080fd5b6000806000606084860312156122ce57600080fd5b6122d784612286565b92506122e5602085016122a2565b91506122f360408501612286565b90509250925092565b634e487b7160e01b600052604160045260246000fd5b604051601f8201601f191681016001600160401b038111828210171561233a5761233a6122fc565b604052919050565b60006001600160401b0382111561235b5761235b6122fc565b50601f01601f191660200190565b600082601f83011261237a57600080fd5b813561238d61238882612342565b612312565b8181528460208386010111156123a257600080fd5b816020850160208301376000918101602001919091529392505050565b600080600080608085870312156123d557600080fd5b6123de85612286565b9350602085013592506123f360408601612286565b915060608501356001600160401b0381111561240e57600080fd5b61241a87828801612369565b91505092959194509250565b60008060006060848603121561243b57600080fd5b61244484612286565b9250602084013591506122f360408501612286565b803563ffffffff8116811461229d57600080fd5b60008060008060008060c0878903121561248657600080fd5b61248f87612459565b955061249d60208801612286565b94506124ab60408801612286565b9350606087013592506124c0608088016122a2565b91506124ce60a08801612286565b90509295509295509295565b80356001600160f01b03198116811461229d57600080fd5b60008060006060848603121561250757600080fd5b61251084612286565b925061251e602085016124da565b9150604084013590509250925092565b60008060006060848603121561254357600080fd5b61254c84612286565b925061255a60208501612459565b91506122f3604085016124da565b600080600080600060a0868803121561258057600080fd5b61258986612286565b945061259760208701612286565b9350604086013592506125ac606087016122a2565b91506125ba60808701612286565b90509295509295909350565b600080604083850312156125d957600080fd5b6125e283612286565b915060208301356001600160401b038111156125fd57600080fd5b61260985828601612369565b9150509250929050565b80356004811061229d57600080fd5b80356001600160401b038116811461229d57600080fd5b6000806000806080858703121561264f57600080fd5b61265885612613565b935061266660208601612622565b925061267460408601612622565b9396929550929360600135925050565b60006020828403121561269657600080fd5b61269f82612613565b9392505050565b6000602082840312156126b857600080fd5b61269f82612286565b600080600080608085870312156126d757600080fd5b6126e085612286565b9350602085013592506126f5604086016122a2565b915061270360608601612286565b905092959194509250565b6001600160f81b031992909216825260601b6bffffffffffffffffffffffff1916600182015260150190565b60005b8381101561275557818101518382015260200161273d565b83811115610fba5750506000910152565b6000815180845261277e81602086016020860161273a565b601f01601f19169290920160200192915050565b6001600160a01b03861681526001600160f01b03198581166020830152841660408201526001600160801b038316606082015260a0608082018190526000906127dd90830184612766565b979650505050505050565b6000602082840312156127fa57600080fd5b81516001600160401b0381111561281057600080fd5b8201601f8101841361282157600080fd5b805161282f61238882612342565b81815285602083850101111561284457600080fd5b61285582602083016020860161273a565b95945050505050565b600181811c9082168061287257607f821691505b6020821081141561289357634e487b7160e01b600052602260045260246000fd5b50919050565b60c081526000610100820160ff89541660c08401526001808a01604060e086015282815480855261012094508487019150848160051b8801019450600083815260209350838120815b838110156129955789880361011f190185528154839080891c8982168061290a57607f821691505b89821081141561292857634e487b7160e01b87526022600452602487fd5b818c5260208c0181801561294357600181146129545761297e565b60ff19851682528b8201955061297e565b600088815260209020895b8581101561297857815484820152908e01908d0161295f565b83019650505b50939b5050509587019550509086019086016128e2565b50505050506129ae8186018b6001600160a01b03169052565b50506001600160401b038716604084015282810360608401526129d18187612766565b9150508360808301526127dd60a08301846001600160401b03169052565b6001600160a01b03888116825287811660208301528681166040830152606082018690526001600160801b0385166080830152831660a082015260e060c08201819052600090612a4190830184612766565b9998505050505050505050565b6001600160a01b03851681526001600160f01b031984166020820152608060408201819052600090612a8290830185612766565b82810360608401526127dd8185612766565b6001600160a01b0387811682528681166020830152604082018690528416606082015260c060808201819052600090612acf90830185612766565b82810360a0840152612a418185612766565b6001600160a01b03841681526001600160f01b03198316602082015260606040820181905260009061285590830184612766565b6001600160a01b0386811682528581166020830152604082018590528316606082015260a0608082018190526000906127dd90830184612766565b6001600160a01b038716815263ffffffff861660208201526001600160f01b03198581166040830152841660608201526001600160801b038316608082015260c060a08201819052600090612ba790830184612766565b98975050505050505050565b6001600160a01b03898116825263ffffffff8916602083015287811660408301528681166060830152608082018690526001600160801b03851660a0830152831660c082015261010060e08201819052600090612c1283820185612766565b9b9a5050505050505050505050565b634e487b7160e01b600052603260045260246000fd5b634e487b7160e01b600052602160045260246000fd5b600060208284031215612c5f57600080fd5b5051919050565b60018060a01b03851681526000602085818401526080604084015260c0830160ff865116608085015281860151604060a086015281815180845260e08701915060e08160051b8801019350848301925060005b81811015612ce75760df19888603018352612cd5858551612766565b94509285019291850191600101612cb9565b5050506001600160401b03861660608601525091506128559050565b600060208284031215612d1557600080fd5b8151801515811461269f57600080fd5b6020808252602b908201527f496e697469616c697a61626c653a20636f6e7472616374206973206e6f74206960408201526a6e697469616c697a696e6760a81b60608201526080019056fea2646970667358221220f45ac93c229a5b1f8499bb5de4f1f8f837b178cbbeaf63149d59f9b8e84a182e64736f6c634300080a0033",
  "deployedBytecode": "0x60806040526004361061011f5760003560e01c806362c64fe1116100a0578063bddef61a11610064578063bddef61a146102e9578063c86093a81461035a578063c864545614610393578063d6aa374d146103ee578063f2fde38b1461040e57600080fd5b806362c64fe11461026e578063715018a6146102815780638456cb591461029657806386c64bb2146102ab5780638da5cb5b146102cb57600080fd5b80634972a921116100e75780634972a921146101cb57806352b11006146101eb5780635bbfef451461020b5780635c975abb1461022b5780635ede28821461024e57600080fd5b806323e498791461012457806324af044714610139578063374f00ff146101595780633f4ba83a146101965780634899b9a8146101ab575b600080fd5b6101376101323660046122b9565b61042e565b005b34801561014557600080fd5b506101376101543660046123bf565b6105f1565b34801561016557600080fd5b50609954610179906001600160a01b031681565b6040516001600160a01b0390911681526020015b60405180910390f35b3480156101a257600080fd5b506101376107d7565b3480156101b757600080fd5b506101376101c6366004612426565b6107e9565b3480156101d757600080fd5b506101376101e636600461246d565b610993565b3480156101f757600080fd5b506101376102063660046124f2565b610b5a565b34801561021757600080fd5b5061013761022636600461252e565b610c72565b34801561023757600080fd5b5060655460ff16604051901515815260200161018d565b34801561025a57600080fd5b50610137610269366004612568565b610fc0565b61013761027c3660046125c6565b611182565b34801561028d57600080fd5b50610137611376565b3480156102a257600080fd5b50610137611388565b3480156102b757600080fd5b506101376102c6366004612639565b611398565b3480156102d757600080fd5b506033546001600160a01b0316610179565b3480156102f557600080fd5b50610330610304366004612684565b609b602052600090815260409020805460018201546002909201546001600160401b0391821692911683565b604080516001600160401b039485168152602081019390935292169181019190915260600161018d565b34801561036657600080fd5b5060995461037e90600160a01b900463ffffffff1681565b60405163ffffffff909116815260200161018d565b34801561039f57600080fd5b506103ce6103ae3660046126a6565b609a602052600090815260409020805460019091015460f09190911b9082565b604080516001600160f01b0319909316835260208301919091520161018d565b3480156103fa57600080fd5b506101376104093660046126c1565b611560565b34801561041a57600080fd5b506101376104293660046126a6565b611725565b61043661179e565b6000610441846117e4565b905060006104506108026117e4565b905061045b346118b3565b60405160009061047590600160f81b90869060200161270e565b6040516020818303038152906040529050600073__$e184f4046250cd750dfdb139628ab13bdc$__63cb070de56104a93390565b85878a876040518663ffffffff1660e01b81526004016104cd959493929190612792565b600060405180830381865af41580156104ea573d6000803e3d6000fd5b505050506040513d6000823e601f3d908101601f1916820160405261051291908101906127e8565b905060006105206002611a28565b609954815160208301516040808501519051635b2479ff60e11b815294955061080d9463b648f3fe9461056a946097946001600160a01b039092169390928a929190600401612899565b600060405180830381600087803b15801561058457600080fd5b505af1158015610598573d6000803e3d6000fd5b505050507fe869557c53c6b4ca27e56668068f17eca71394d04718a9214a7667f1474950ff6105c43390565b6108028a348b8b886040516105df97969594939291906129ef565b60405180910390a15050505050505050565b6105f961179e565b6020815111156106425760405162461bcd60e51b815260206004820152600f60248201526e72656d61726b20746f6f206c6f6e6760881b60448201526064015b60405180910390fd5b600061064d856117e4565b90506106598585611baf565b60405160009061067390600160f81b90869060200161270e565b6040516020818303038152906040529050600073__$e184f4046250cd750dfdb139628ab13bdc$__63b92155276106a73390565b8585886040518563ffffffff1660e01b81526004016106c99493929190612a4e565b600060405180830381865af41580156106e6573d6000803e3d6000fd5b505050506040513d6000823e601f3d908101601f1916820160405261070e91908101906127e8565b9050600061071c6000611a28565b609954815160208301516040808501519051635b2479ff60e11b815294955061080d9463b648f3fe94610766946097946001600160a01b039092169390928a929190600401612899565b600060405180830381600087803b15801561078057600080fd5b505af1158015610794573d6000803e3d6000fd5b505050507fca31869d7c65b3930a575eef33c6f69db06b0f1168af96408c4fceca8de0fadc6107c03390565b898989868a6040516105df96959493929190612a94565b6107df611de8565b6107e7611e42565b565b6107f161179e565b60006107fc846117e4565b90506108088484611baf565b60405160009061082290600160f81b90859060200161270e565b6040516020818303038152906040529050600073__$e184f4046250cd750dfdb139628ab13bdc$__639f0047836108563390565b85856040518463ffffffff1660e01b815260040161087693929190612ae1565b600060405180830381865af4158015610893573d6000803e3d6000fd5b505050506040513d6000823e601f3d908101601f191682016040526108bb91908101906127e8565b905060006108c96001611a28565b609954815160208301516040808501519051635b2479ff60e11b815294955061080d9463b648f3fe94610913946097946001600160a01b039092169390928a929190600401612899565b600060405180830381600087803b15801561092d57600080fd5b505af1158015610941573d6000803e3d6000fd5b505050507f89996e9f85ecc9022265638d75df5de89dd421fab215e1b013ece5fcc188adce61096d3390565b88888886604051610982959493929190612b15565b60405180910390a150505050505050565b61099b61179e565b60006109a6866117e4565b905060006109b3866117e4565b90506109bf8786611baf565b6040516000906109d990600160f81b90869060200161270e565b6040516020818303038152906040529050600073__$e184f4046250cd750dfdb139628ab13bdc$__636bc6c67f610a0d3390565b8c87878b886040518763ffffffff1660e01b8152600401610a3396959493929190612b50565b600060405180830381865af4158015610a50573d6000803e3d6000fd5b505050506040513d6000823e601f3d908101601f19168201604052610a7891908101906127e8565b90506000610a866003611a28565b609954815160208301516040808501519051635b2479ff60e11b815294955061080d9463b648f3fe94610ad0946097946001600160a01b039092169390928a929190600401612899565b600060405180830381600087803b158015610aea57600080fd5b505af1158015610afe573d6000803e3d6000fd5b505050507ff9a157c40f0a1b19376934e7c611456abb1d51640748e1a86602391e13d96af5610b2a3390565b8c8c8c8c8c8c89604051610b45989796959493929190612bb3565b60405180910390a15050505050505050505050565b610b62611de8565b6001600160a01b038316610baf5760405162461bcd60e51b8152602060048201526014602482015273496e76616c69642061737365744164647265737360601b6044820152606401610639565b80610bf35760405162461bcd60e51b8152602060048201526014602482015273496e76616c6964206d696e696d756d56616c756560601b6044820152606401610639565b6001600160f01b03198216610c3f5760405162461bcd60e51b8152602060048201526012602482015271125b9d985b1a590818dd5c9c995b98de525960721b6044820152606401610639565b6001600160a01b03929092166000908152609a60205260409020805461ffff191660f09290921c91909117815560010155565b600054610100900460ff1615808015610c925750600054600160ff909116105b80610cac5750303b158015610cac575060005460ff166001145b610d0f5760405162461bcd60e51b815260206004820152602e60248201527f496e697469616c697a61626c653a20636f6e747261637420697320616c72656160448201526d191e481a5b9a5d1a585b1a5e995960921b6064820152608401610639565b6000805460ff191660011790558015610d32576000805461ff0019166101001790555b610d3a611e94565b610d42611ec3565b6001600160a01b038416610d8a5760405162461bcd60e51b815260206004820152600f60248201526e496e76616c6964206164647265737360881b6044820152606401610639565b8263ffffffff166107d11480610da757508263ffffffff166107ee145b610deb5760405162461bcd60e51b8152602060048201526015602482015274125b9d985b1a5908189a599c9bdcdd14185c985259605a1b6044820152606401610639565b61010560f11b6001600160f01b031983161480610e16575061080160f01b6001600160f01b03198316145b610e625760405162461bcd60e51b815260206004820152601860248201527f496e76616c6964206e617469766543757272656e6379496400000000000000006044820152606401610639565b610e7684600160f01b64e8d4a51000610b5a565b610e8b61080283670de0b6b3a7640000610b5a565b609980546001600160a01b0386166001600160c01b031990911617600160a01b63ffffffff861602179055604080516001808252818301909252600091816020015b6060815260200190600190039081610ecd57905050604051600060208201526001600160e01b031960e087901b16602182015290915060250160405160208183030381529060405281600081518110610f2857610f28612c21565b6020908102919091018101919091526040805180820190915260018082528183018490526097805460ff19169091178155835191929091610f6f916098919086019061213d565b50905050508015610fba576000805461ff0019169055604051600181527f7f26b83ff96e1f2b6a682f133852f6798a09c465da95921460cefb38474024989060200160405180910390a15b50505050565b610fc861179e565b6000610fd3866117e4565b90506000610fe0866117e4565b9050610fec8786611baf565b60405160009061100690600160f81b90869060200161270e565b6040516020818303038152906040529050600073__$e184f4046250cd750dfdb139628ab13bdc$__63cb070de561103a3390565b86868a876040518663ffffffff1660e01b815260040161105e959493929190612792565b600060405180830381865af415801561107b573d6000803e3d6000fd5b505050506040513d6000823e601f3d908101601f191682016040526110a391908101906127e8565b905060006110b16002611a28565b609954815160208301516040808501519051635b2479ff60e11b815294955061080d9463b648f3fe946110fb946097946001600160a01b039092169390928a929190600401612899565b600060405180830381600087803b15801561111557600080fd5b505af1158015611129573d6000803e3d6000fd5b505050507fe869557c53c6b4ca27e56668068f17eca71394d04718a9214a7667f1474950ff6111553390565b8b8b8b8b8b8860405161116e97969594939291906129ef565b60405180910390a150505050505050505050565b61118a61179e565b6020815111156111ce5760405162461bcd60e51b815260206004820152600f60248201526e72656d61726b20746f6f206c6f6e6760881b6044820152606401610639565b60006111db6108026117e4565b90506111e6346118b3565b60405160009061120090600160f81b90869060200161270e565b6040516020818303038152906040529050600073__$e184f4046250cd750dfdb139628ab13bdc$__63b92155276112343390565b8585886040518563ffffffff1660e01b81526004016112569493929190612a4e565b600060405180830381865af4158015611273573d6000803e3d6000fd5b505050506040513d6000823e601f3d908101601f1916820160405261129b91908101906127e8565b905060006112a96000611a28565b609954815160208301516040808501519051635b2479ff60e11b815294955061080d9463b648f3fe946112f3946097946001600160a01b039092169390928a929190600401612899565b600060405180830381600087803b15801561130d57600080fd5b505af1158015611321573d6000803e3d6000fd5b505050507fca31869d7c65b3930a575eef33c6f69db06b0f1168af96408c4fceca8de0fadc61134d3390565b6108023489868a60405161136696959493929190612a94565b60405180910390a1505050505050565b61137e611de8565b6107e76000611ef2565b611390611de8565b6107e7611f44565b6113a0611de8565b6402540be400836001600160401b0316111561140d5760405162461bcd60e51b815260206004820152602660248201527f7472616e73616374526571756972656457656967687441744d6f737420746f6f604482015265206c6172676560d01b6064820152608401610639565b64e8d4a510008111156114585760405162461bcd60e51b8152602060048201526013602482015272666565416d6f756e7420746f6f206c6172676560681b6044820152606401610639565b6402540be400826001600160401b031611156114b65760405162461bcd60e51b815260206004820152601760248201527f4f766572616c6c57656967687420746f6f206c617267650000000000000000006044820152606401610639565b6040518060600160405280846001600160401b03168152602001828152602001836001600160401b0316815250609b60008660038111156114f9576114f9612c37565b600381111561150a5761150a612c37565b81526020808201929092526040908101600020835181546001600160401b0391821667ffffffffffffffff1991821617835593850151600183015593909101516002909101805491909316911617905550505050565b61156861179e565b6000611573856117e4565b905060006115826108026117e4565b905061158e8686611baf565b6040516000906115a890600160f81b90869060200161270e565b6040516020818303038152906040529050600073__$e184f4046250cd750dfdb139628ab13bdc$__63cb070de56115dc3390565b86868a876040518663ffffffff1660e01b8152600401611600959493929190612792565b600060405180830381865af415801561161d573d6000803e3d6000fd5b505050506040513d6000823e601f3d908101601f1916820160405261164591908101906127e8565b905060006116536002611a28565b609954815160208301516040808501519051635b2479ff60e11b815294955061080d9463b648f3fe9461169d946097946001600160a01b039092169390928a929190600401612899565b600060405180830381600087803b1580156116b757600080fd5b505af11580156116cb573d6000803e3d6000fd5b505050507fe869557c53c6b4ca27e56668068f17eca71394d04718a9214a7667f1474950ff6116f73390565b8a6108028b8b8b8860405161171297969594939291906129ef565b60405180910390a1505050505050505050565b61172d611de8565b6001600160a01b0381166117925760405162461bcd60e51b815260206004820152602660248201527f4f776e61626c653a206e6577206f776e657220697320746865207a65726f206160448201526564647265737360d01b6064820152608401610639565b61179b81611ef2565b50565b60655460ff16156107e75760405162461bcd60e51b815260206004820152601060248201526f14185d5cd8589b194e881c185d5cd95960821b6044820152606401610639565b6001600160a01b0381166000908152609a602090815260408083208151808301909252805460f01b6001600160f01b031916825260010154918101829052906118645760405162461bcd60e51b8152602060048201526012602482015271105cdcd95d081a5cc81b9bdd08195e1a5cdd60721b6044820152606401610639565b80516001600160f01b0319166118ac5760405162461bcd60e51b815260206004820152600d60248201526c125b9d985b1a5908185cdcd95d609a1b6044820152606401610639565b5192915050565b610802600052609a6020527fae00947ee313780ebd51d12b4f1ecb575ce4eb6b099d8cff17facd5b92da71f0548110156119285760405162461bcd60e51b81526020600482015260166024820152754c657373207468616e204d696e696d756d56616c756560501b6044820152606401610639565b600073__$ddfb0e6c1c4d05795fcce73a90830b0995$__6332640a52336040516001600160e01b031960e084901b1681526001600160a01b039091166004820152602401602060405180830381865af4158015611989573d6000803e3d6000fd5b505050506040513d601f19601f820116820180604052508101906119ad9190612c4d565b905060006119ba82611f81565b60405163b9f813ff60e01b81529091506108049063b9f813ff906119f19061080290879086906001600160401b0390600401612c66565b600060405180830381600087803b158015611a0b57600080fd5b505af1158015611a1f573d6000803e3d6000fd5b50505050505050565b6040805160608101825260008082526020820181905291810182905290609b81846003811115611a5a57611a5a612c37565b6003811115611a6b57611a6b612c37565b81526020808201929092526040908101600020815160608101835281546001600160401b03908116808352600184015495830195909552600290920154909116918101919091529150611b0c5760405162461bcd60e51b8152602060048201526024808201527f496e76616c6964207472616e7361637452657175697265645765696768744174604482015263135bdcdd60e21b6064820152608401610639565b6000816020015111611b545760405162461bcd60e51b8152602060048201526011602482015270125b9d985b1a5908199959505b5bdd5b9d607a1b6044820152606401610639565b600081604001516001600160401b031611611ba95760405162461bcd60e51b8152602060048201526015602482015274125b9d985b1a59081bdd995c985b1b15d95a59da1d605a1b6044820152606401610639565b92915050565b6001600160a01b038216611bfc5760405162461bcd60e51b8152602060048201526014602482015273496e76616c69642061737365744164647265737360601b6044820152606401610639565b6001600160a01b0382166000908152609a6020526040902060010154811015611c605760405162461bcd60e51b81526020600482015260166024820152754c657373207468616e204d696e696d756d56616c756560501b6044820152606401610639565b600073__$ddfb0e6c1c4d05795fcce73a90830b0995$__6332640a52336040516001600160e01b031960e084901b1681526001600160a01b039091166004820152602401602060405180830381865af4158015611cc1573d6000803e3d6000fd5b505050506040513d601f19601f82011682018060405250810190611ce59190612c4d565b90506000611cf282611f81565b9050836001600160a01b0381166323b872dd336040516001600160e01b031960e084901b1681526001600160a01b039091166004820152306024820152604481018790526064016020604051808303816000875af1158015611d58573d6000803e3d6000fd5b505050506040513d601f19601f82011682018060405250810190611d7c9190612d03565b5060405163b9f813ff60e01b81526108049063b9f813ff90611daf908890889087906001600160401b0390600401612c66565b600060405180830381600087803b158015611dc957600080fd5b505af1158015611ddd573d6000803e3d6000fd5b505050505050505050565b6033546001600160a01b031633146107e75760405162461bcd60e51b815260206004820181905260248201527f4f776e61626c653a2063616c6c6572206973206e6f7420746865206f776e65726044820152606401610639565b611e4a612091565b6065805460ff191690557f5db9ee0a495bf2e6ff9c91a7834c1ba4fdd244a5e8aa4e537bd38aeae4b073aa335b6040516001600160a01b03909116815260200160405180910390a1565b600054610100900460ff16611ebb5760405162461bcd60e51b815260040161063990612d25565b6107e76120da565b600054610100900460ff16611eea5760405162461bcd60e51b815260040161063990612d25565b6107e761210a565b603380546001600160a01b038381166001600160a01b0319831681179093556040519116919082907f8be0079c531659141344cd1fd0a4f28419497f9722a3daafe3b4186f6b6457e090600090a35050565b611f4c61179e565b6065805460ff191660011790557f62e78cea01bee320cd4e420270b5ea74000d11b0c9f74754ebdbfc544b05a258611e773390565b60408051808201825260008082526060602083018190528351600280825291810190945291929091816020015b6060815260200190600190039081611fae5790505060995460405160006020820152600160a01b90910460e01b6001600160e01b03191660218201529091506025016040516020818303038152906040528160008151811061201257612012612c21565b6020026020010181905250826040516020016120459190600160f81b815260018101919091526000602182015260220190565b6040516020818303038152906040528160018151811061206757612067612c21565b60209081029190910181019190915260408051808201909152600181529081019190915292915050565b60655460ff166107e75760405162461bcd60e51b815260206004820152601460248201527314185d5cd8589b194e881b9bdd081c185d5cd95960621b6044820152606401610639565b600054610100900460ff166121015760405162461bcd60e51b815260040161063990612d25565b6107e733611ef2565b600054610100900460ff166121315760405162461bcd60e51b815260040161063990612d25565b6065805460ff19169055565b82805482825590600052602060002090810192821561218a579160200282015b8281111561218a578251805161217a91849160209091019061219a565b509160200191906001019061215d565b5061219692915061221a565b5090565b8280546121a69061285e565b90600052602060002090601f0160209004810192826121c8576000855561220e565b82601f106121e157805160ff191683800117855561220e565b8280016001018555821561220e579182015b8281111561220e5782518255916020019190600101906121f3565b50612196929150612237565b8082111561219657600061222e828261224c565b5060010161221a565b5b808211156121965760008155600101612238565b5080546122589061285e565b6000825580601f10612268575050565b601f01602090049060005260206000209081019061179b9190612237565b80356001600160a01b038116811461229d57600080fd5b919050565b80356001600160801b038116811461229d57600080fd5b6000806000606084860312156122ce57600080fd5b6122d784612286565b92506122e5602085016122a2565b91506122f360408501612286565b90509250925092565b634e487b7160e01b600052604160045260246000fd5b604051601f8201601f191681016001600160401b038111828210171561233a5761233a6122fc565b604052919050565b60006001600160401b0382111561235b5761235b6122fc565b50601f01601f191660200190565b600082601f83011261237a57600080fd5b813561238d61238882612342565b612312565b8181528460208386010111156123a257600080fd5b816020850160208301376000918101602001919091529392505050565b600080600080608085870312156123d557600080fd5b6123de85612286565b9350602085013592506123f360408601612286565b915060608501356001600160401b0381111561240e57600080fd5b61241a87828801612369565b91505092959194509250565b60008060006060848603121561243b57600080fd5b61244484612286565b9250602084013591506122f360408501612286565b803563ffffffff8116811461229d57600080fd5b60008060008060008060c0878903121561248657600080fd5b61248f87612459565b955061249d60208801612286565b94506124ab60408801612286565b9350606087013592506124c0608088016122a2565b91506124ce60a08801612286565b90509295509295509295565b80356001600160f01b03198116811461229d57600080fd5b60008060006060848603121561250757600080fd5b61251084612286565b925061251e602085016124da565b9150604084013590509250925092565b60008060006060848603121561254357600080fd5b61254c84612286565b925061255a60208501612459565b91506122f3604085016124da565b600080600080600060a0868803121561258057600080fd5b61258986612286565b945061259760208701612286565b9350604086013592506125ac606087016122a2565b91506125ba60808701612286565b90509295509295909350565b600080604083850312156125d957600080fd5b6125e283612286565b915060208301356001600160401b038111156125fd57600080fd5b61260985828601612369565b9150509250929050565b80356004811061229d57600080fd5b80356001600160401b038116811461229d57600080fd5b6000806000806080858703121561264f57600080fd5b61265885612613565b935061266660208601612622565b925061267460408601612622565b9396929550929360600135925050565b60006020828403121561269657600080fd5b61269f82612613565b9392505050565b6000602082840312156126b857600080fd5b61269f82612286565b600080600080608085870312156126d757600080fd5b6126e085612286565b9350602085013592506126f5604086016122a2565b915061270360608601612286565b905092959194509250565b6001600160f81b031992909216825260601b6bffffffffffffffffffffffff1916600182015260150190565b60005b8381101561275557818101518382015260200161273d565b83811115610fba5750506000910152565b6000815180845261277e81602086016020860161273a565b601f01601f19169290920160200192915050565b6001600160a01b03861681526001600160f01b03198581166020830152841660408201526001600160801b038316606082015260a0608082018190526000906127dd90830184612766565b979650505050505050565b6000602082840312156127fa57600080fd5b81516001600160401b0381111561281057600080fd5b8201601f8101841361282157600080fd5b805161282f61238882612342565b81815285602083850101111561284457600080fd5b61285582602083016020860161273a565b95945050505050565b600181811c9082168061287257607f821691505b6020821081141561289357634e487b7160e01b600052602260045260246000fd5b50919050565b60c081526000610100820160ff89541660c08401526001808a01604060e086015282815480855261012094508487019150848160051b8801019450600083815260209350838120815b838110156129955789880361011f190185528154839080891c8982168061290a57607f821691505b89821081141561292857634e487b7160e01b87526022600452602487fd5b818c5260208c0181801561294357600181146129545761297e565b60ff19851682528b8201955061297e565b600088815260209020895b8581101561297857815484820152908e01908d0161295f565b83019650505b50939b5050509587019550509086019086016128e2565b50505050506129ae8186018b6001600160a01b03169052565b50506001600160401b038716604084015282810360608401526129d18187612766565b9150508360808301526127dd60a08301846001600160401b03169052565b6001600160a01b03888116825287811660208301528681166040830152606082018690526001600160801b0385166080830152831660a082015260e060c08201819052600090612a4190830184612766565b9998505050505050505050565b6001600160a01b03851681526001600160f01b031984166020820152608060408201819052600090612a8290830185612766565b82810360608401526127dd8185612766565b6001600160a01b0387811682528681166020830152604082018690528416606082015260c060808201819052600090612acf90830185612766565b82810360a0840152612a418185612766565b6001600160a01b03841681526001600160f01b03198316602082015260606040820181905260009061285590830184612766565b6001600160a01b0386811682528581166020830152604082018590528316606082015260a0608082018190526000906127dd90830184612766565b6001600160a01b038716815263ffffffff861660208201526001600160f01b03198581166040830152841660608201526001600160801b038316608082015260c060a08201819052600090612ba790830184612766565b98975050505050505050565b6001600160a01b03898116825263ffffffff8916602083015287811660408301528681166060830152608082018690526001600160801b03851660a0830152831660c082015261010060e08201819052600090612c1283820185612766565b9b9a5050505050505050505050565b634e487b7160e01b600052603260045260246000fd5b634e487b7160e01b600052602160045260246000fd5b600060208284031215612c5f57600080fd5b5051919050565b60018060a01b03851681526000602085818401526080604084015260c0830160ff865116608085015281860151604060a086015281815180845260e08701915060e08160051b8801019350848301925060005b81811015612ce75760df19888603018352612cd5858551612766565b94509285019291850191600101612cb9565b5050506001600160401b03861660608601525091506128559050565b600060208284031215612d1557600080fd5b8151801515811461269f57600080fd5b6020808252602b908201527f496e697469616c697a61626c653a20636f6e7472616374206973206e6f74206960408201526a6e697469616c697a696e6760a81b60608201526080019056fea2646970667358221220f45ac93c229a5b1f8499bb5de4f1f8f837b178cbbeaf63149d59f9b8e84a182e64736f6c634300080a0033",
  "libraries": {
    "AddressToAccount": "0x7746ef546d562b443AE4B4145541a3b1a3D75717",
    "BuildCallData": "0x4238Ea4AdFa2bD6a5fC9B5E245dc1900cF0258aa"
  },
  "devdoc": {
    "kind": "dev",
    "methods": {
      "owner()": {
        "details": "Returns the address of the current owner."
      },
      "paused()": {
        "details": "Returns true if the contract is paused, and false otherwise."
      },
      "renounceOwnership()": {
        "details": "Leaves the contract without owner. It will not be possible to call `onlyOwner` functions. Can only be called by the current owner. NOTE: Renouncing ownership will leave the contract without an owner, thereby disabling any functionality that is only available to the owner."
      },
      "transferOwnership(address)": {
        "details": "Transfers ownership of the contract to a new account (`newOwner`). Can only be called by the current owner."
      }
    },
    "version": 1
  },
  "userdoc": {
    "kind": "user",
    "methods": {
      "mintVAsset(address,uint256,address,string)": {
        "notice": "Minted vAssets"
      },
      "mintVNativeAsset(address,string)": {
        "notice": "Minted vNative assets such as vASTR, vGLMR, vMOVR"
      },
      "redeemAsset(address,uint256,address)": {
        "notice": "Redeem assets"
      },
      "swapAssetsForExactAssets(address,address,uint256,uint128,address)": {
        "notice": "Swap one asset for another"
      },
      "swapAssetsForExactNativeAssets(address,uint256,uint128,address)": {
        "notice": "Swap one asset for native asset"
      },
      "swapNativeAssetsForExactAssets(address,uint128,address)": {
        "notice": "Swap native asset for another"
      }
    },
    "version": 1
  },
  "storageLayout": {
    "storage": [
      {
        "astId": 138,
        "contract": "contracts/MoonbeamSlpx.sol:MoonbeamSlpx",
        "label": "_initialized",
        "offset": 0,
        "slot": "0",
        "type": "t_uint8"
      },
      {
        "astId": 141,
        "contract": "contracts/MoonbeamSlpx.sol:MoonbeamSlpx",
        "label": "_initializing",
        "offset": 1,
        "slot": "0",
        "type": "t_bool"
      },
      {
        "astId": 798,
        "contract": "contracts/MoonbeamSlpx.sol:MoonbeamSlpx",
        "label": "__gap",
        "offset": 0,
        "slot": "1",
        "type": "t_array(t_uint256)50_storage"
      },
      {
        "astId": 10,
        "contract": "contracts/MoonbeamSlpx.sol:MoonbeamSlpx",
        "label": "_owner",
        "offset": 0,
        "slot": "51",
        "type": "t_address"
      },
      {
        "astId": 130,
        "contract": "contracts/MoonbeamSlpx.sol:MoonbeamSlpx",
        "label": "__gap",
        "offset": 0,
        "slot": "52",
        "type": "t_array(t_uint256)49_storage"
      },
      {
        "astId": 321,
        "contract": "contracts/MoonbeamSlpx.sol:MoonbeamSlpx",
        "label": "_paused",
        "offset": 0,
        "slot": "101",
        "type": "t_bool"
      },
      {
        "astId": 426,
        "contract": "contracts/MoonbeamSlpx.sol:MoonbeamSlpx",
        "label": "__gap",
        "offset": 0,
        "slot": "102",
        "type": "t_array(t_uint256)49_storage"
      },
      {
        "astId": 908,
        "contract": "contracts/MoonbeamSlpx.sol:MoonbeamSlpx",
        "label": "xcmTransactorDestination",
        "offset": 0,
        "slot": "151",
        "type": "t_struct(Multilocation)2194_storage"
      },
      {
        "astId": 910,
        "contract": "contracts/MoonbeamSlpx.sol:MoonbeamSlpx",
        "label": "BNCAddress",
        "offset": 0,
        "slot": "153",
        "type": "t_address"
      },
      {
        "astId": 912,
        "contract": "contracts/MoonbeamSlpx.sol:MoonbeamSlpx",
        "label": "bifrostParaId",
        "offset": 20,
        "slot": "153",
        "type": "t_uint32"
      },
      {
        "astId": 934,
        "contract": "contracts/MoonbeamSlpx.sol:MoonbeamSlpx",
        "label": "addressToAssetInfo",
        "offset": 0,
        "slot": "154",
        "type": "t_mapping(t_address,t_struct(AssetInfo)922_storage)"
      },
      {
        "astId": 940,
        "contract": "contracts/MoonbeamSlpx.sol:MoonbeamSlpx",
        "label": "operationToFeeInfo",
        "offset": 0,
        "slot": "155",
        "type": "t_mapping(t_enum(Operation)917,t_struct(FeeInfo)929_storage)"
      }
    ],
    "types": {
      "t_address": {
        "encoding": "inplace",
        "label": "address",
        "numberOfBytes": "20"
      },
      "t_array(t_bytes_storage)dyn_storage": {
        "base": "t_bytes_storage",
        "encoding": "dynamic_array",
        "label": "bytes[]",
        "numberOfBytes": "32"
      },
      "t_array(t_uint256)49_storage": {
        "base": "t_uint256",
        "encoding": "inplace",
        "label": "uint256[49]",
        "numberOfBytes": "1568"
      },
      "t_array(t_uint256)50_storage": {
        "base": "t_uint256",
        "encoding": "inplace",
        "label": "uint256[50]",
        "numberOfBytes": "1600"
      },
      "t_bool": {
        "encoding": "inplace",
        "label": "bool",
        "numberOfBytes": "1"
      },
      "t_bytes2": {
        "encoding": "inplace",
        "label": "bytes2",
        "numberOfBytes": "2"
      },
      "t_bytes_storage": {
        "encoding": "bytes",
        "label": "bytes",
        "numberOfBytes": "32"
      },
      "t_enum(Operation)917": {
        "encoding": "inplace",
        "label": "enum MoonbeamSlpx.Operation",
        "numberOfBytes": "1"
      },
      "t_mapping(t_address,t_struct(AssetInfo)922_storage)": {
        "encoding": "mapping",
        "key": "t_address",
        "label": "mapping(address => struct MoonbeamSlpx.AssetInfo)",
        "numberOfBytes": "32",
        "value": "t_struct(AssetInfo)922_storage"
      },
      "t_mapping(t_enum(Operation)917,t_struct(FeeInfo)929_storage)": {
        "encoding": "mapping",
        "key": "t_enum(Operation)917",
        "label": "mapping(enum MoonbeamSlpx.Operation => struct MoonbeamSlpx.FeeInfo)",
        "numberOfBytes": "32",
        "value": "t_struct(FeeInfo)929_storage"
      },
      "t_struct(AssetInfo)922_storage": {
        "encoding": "inplace",
        "label": "struct MoonbeamSlpx.AssetInfo",
        "members": [
          {
            "astId": 919,
            "contract": "contracts/MoonbeamSlpx.sol:MoonbeamSlpx",
            "label": "currencyId",
            "offset": 0,
            "slot": "0",
            "type": "t_bytes2"
          },
          {
            "astId": 921,
            "contract": "contracts/MoonbeamSlpx.sol:MoonbeamSlpx",
            "label": "operationalMin",
            "offset": 0,
            "slot": "1",
            "type": "t_uint256"
          }
        ],
        "numberOfBytes": "64"
      },
      "t_struct(FeeInfo)929_storage": {
        "encoding": "inplace",
        "label": "struct MoonbeamSlpx.FeeInfo",
        "members": [
          {
            "astId": 924,
            "contract": "contracts/MoonbeamSlpx.sol:MoonbeamSlpx",
            "label": "transactRequiredWeightAtMost",
            "offset": 0,
            "slot": "0",
            "type": "t_uint64"
          },
          {
            "astId": 926,
            "contract": "contracts/MoonbeamSlpx.sol:MoonbeamSlpx",
            "label": "feeAmount",
            "offset": 0,
            "slot": "1",
            "type": "t_uint256"
          },
          {
            "astId": 928,
            "contract": "contracts/MoonbeamSlpx.sol:MoonbeamSlpx",
            "label": "overallWeight",
            "offset": 0,
            "slot": "2",
            "type": "t_uint64"
          }
        ],
        "numberOfBytes": "96"
      },
      "t_struct(Multilocation)2194_storage": {
        "encoding": "inplace",
        "label": "struct XcmTransactorV2.Multilocation",
        "members": [
          {
            "astId": 2190,
            "contract": "contracts/MoonbeamSlpx.sol:MoonbeamSlpx",
            "label": "parents",
            "offset": 0,
            "slot": "0",
            "type": "t_uint8"
          },
          {
            "astId": 2193,
            "contract": "contracts/MoonbeamSlpx.sol:MoonbeamSlpx",
            "label": "interior",
            "offset": 0,
            "slot": "1",
            "type": "t_array(t_bytes_storage)dyn_storage"
          }
        ],
        "numberOfBytes": "64"
      },
      "t_uint256": {
        "encoding": "inplace",
        "label": "uint256",
        "numberOfBytes": "32"
      },
      "t_uint32": {
        "encoding": "inplace",
        "label": "uint32",
        "numberOfBytes": "4"
      },
      "t_uint64": {
        "encoding": "inplace",
        "label": "uint64",
        "numberOfBytes": "8"
      },
      "t_uint8": {
        "encoding": "inplace",
        "label": "uint8",
        "numberOfBytes": "1"
      }
    }
  }
}