{
  "address": "0x335459F95CBc08a27D7f52b578f31134ecbb8b16",
  "abi": [
    {
      "anonymous": false,
      "inputs": [
        {
          "indexed": false,
          "internalType": "address",
          "name": "assetAddress",
          "type": "address"
        },
        {
          "indexed": false,
          "internalType": "uint128",
          "name": "amount",
          "type": "uint128"
        },
        {
          "indexed": false,
          "internalType": "uint64",
          "name": "dest_chain_id",
          "type": "uint64"
        },
        {
          "indexed": false,
          "internalType": "bytes",
          "name": "receiver",
          "type": "bytes"
        },
        {
          "indexed": false,
          "internalType": "string",
          "name": "remark",
          "type": "string"
        },
        {
          "indexed": false,
          "internalType": "uint32",
          "name": "channel_id",
          "type": "uint32"
        }
      ],
      "name": "CreateOrder",
      "type": "event"
    },
    {
      "anonymous": false,
      "inputs": [
        {
          "indexed": false,
          "internalType": "uint8",
          "name": "version",
          "type": "uint8"
        }
      ],
      "name": "Initialized",
      "type": "event"
    },
    {
      "anonymous": false,
      "inputs": [
        {
          "indexed": false,
          "internalType": "address",
          "name": "minter",
          "type": "address"
        },
        {
          "indexed": false,
          "internalType": "address",
          "name": "assetAddress",
          "type": "address"
        },
        {
          "indexed": false,
          "internalType": "uint256",
          "name": "amount",
          "type": "uint256"
        },
        {
          "indexed": false,
          "internalType": "address",
          "name": "receiver",
          "type": "address"
        },
        {
          "indexed": false,
          "internalType": "bytes",
          "name": "callcode",
          "type": "bytes"
        },
        {
          "indexed": false,
          "internalType": "string",
          "name": "remark",
          "type": "string"
        }
      ],
      "name": "Mint",
      "type": "event"
    },
    {
      "anonymous": false,
      "inputs": [
        {
          "indexed": true,
          "internalType": "address",
          "name": "previousOwner",
          "type": "address"
        },
        {
          "indexed": true,
          "internalType": "address",
          "name": "newOwner",
          "type": "address"
        }
      ],
      "name": "OwnershipTransferred",
      "type": "event"
    },
    {
      "anonymous": false,
      "inputs": [
        {
          "indexed": false,
          "internalType": "address",
          "name": "account",
          "type": "address"
        }
      ],
      "name": "Paused",
      "type": "event"
    },
    {
      "anonymous": false,
      "inputs": [
        {
          "indexed": false,
          "internalType": "address",
          "name": "redeemer",
          "type": "address"
        },
        {
          "indexed": false,
          "internalType": "address",
          "name": "assetAddress",
          "type": "address"
        },
        {
          "indexed": false,
          "internalType": "uint256",
          "name": "amount",
          "type": "uint256"
        },
        {
          "indexed": false,
          "internalType": "address",
          "name": "receiver",
          "type": "address"
        },
        {
          "indexed": false,
          "internalType": "bytes",
          "name": "callcode",
          "type": "bytes"
        }
      ],
      "name": "Redeem",
      "type": "event"
    },
    {
      "anonymous": false,
      "inputs": [
        {
          "indexed": false,
          "internalType": "address",
          "name": "account",
          "type": "address"
        }
      ],
      "name": "Unpaused",
      "type": "event"
    },
    {
      "inputs": [],
      "name": "BNCAddress",
      "outputs": [
        {
          "internalType": "address",
          "name": "",
          "type": "address"
        }
      ],
      "stateMutability": "view",
      "type": "function"
    },
    {
      "inputs": [
        {
          "internalType": "address",
          "name": "",
          "type": "address"
        }
      ],
      "name": "addressToAssetInfo",
      "outputs": [
        {
          "internalType": "bytes2",
          "name": "currencyId",
          "type": "bytes2"
        },
        {
          "internalType": "uint256",
          "name": "operationalMin",
          "type": "uint256"
        }
      ],
      "stateMutability": "view",
      "type": "function"
    },
    {
      "inputs": [],
      "name": "bifrostParaId",
      "outputs": [
        {
          "internalType": "uint32",
          "name": "",
          "type": "uint32"
        }
      ],
      "stateMutability": "view",
      "type": "function"
    },
    {
      "inputs": [
        {
          "internalType": "address",
          "name": "assetAddress",
          "type": "address"
        },
        {
          "internalType": "uint128",
          "name": "amount",
          "type": "uint128"
        },
        {
          "internalType": "uint64",
          "name": "dest_chain_id",
          "type": "uint64"
        },
        {
          "internalType": "bytes",
          "name": "receiver",
          "type": "bytes"
        },
        {
          "internalType": "string",
          "name": "remark",
          "type": "string"
        },
        {
          "internalType": "uint32",
          "name": "channel_id",
          "type": "uint32"
        }
      ],
      "name": "create_order",
      "outputs": [],
      "stateMutability": "payable",
      "type": "function"
    },
    {
      "inputs": [
        {
          "internalType": "uint64",
          "name": "",
          "type": "uint64"
        }
      ],
      "name": "destChainInfo",
      "outputs": [
        {
          "internalType": "bool",
          "name": "is_evm",
          "type": "bool"
        },
        {
          "internalType": "bool",
          "name": "is_substrate",
          "type": "bool"
        },
        {
          "internalType": "bytes1",
          "name": "raw_chain_index",
          "type": "bytes1"
        }
      ],
      "stateMutability": "view",
      "type": "function"
    },
    {
      "inputs": [
        {
          "internalType": "address",
          "name": "_BNCAddress",
          "type": "address"
        },
        {
          "internalType": "uint32",
          "name": "_bifrostParaId",
          "type": "uint32"
        },
        {
          "internalType": "bytes2",
          "name": "_nativeCurrencyId",
          "type": "bytes2"
        }
      ],
      "name": "initialize",
      "outputs": [],
      "stateMutability": "nonpayable",
      "type": "function"
    },
    {
      "inputs": [
        {
          "internalType": "address",
          "name": "assetAddress",
          "type": "address"
        },
        {
          "internalType": "uint256",
          "name": "amount",
          "type": "uint256"
        },
        {
          "internalType": "address",
          "name": "receiver",
          "type": "address"
        },
        {
          "internalType": "string",
          "name": "remark",
          "type": "string"
        }
      ],
      "name": "mintVAsset",
      "outputs": [],
      "stateMutability": "nonpayable",
      "type": "function"
    },
    {
      "inputs": [
        {
          "internalType": "address",
          "name": "assetAddress",
          "type": "address"
        },
        {
          "internalType": "uint256",
          "name": "amount",
          "type": "uint256"
        },
        {
          "internalType": "address",
          "name": "receiver",
          "type": "address"
        },
        {
          "internalType": "string",
          "name": "remark",
          "type": "string"
        },
        {
          "internalType": "uint32",
          "name": "channel_id",
          "type": "uint32"
        }
      ],
      "name": "mintVAssetWithChannelId",
      "outputs": [],
      "stateMutability": "nonpayable",
      "type": "function"
    },
    {
      "inputs": [
        {
          "internalType": "address",
          "name": "receiver",
          "type": "address"
        },
        {
          "internalType": "string",
          "name": "remark",
          "type": "string"
        }
      ],
      "name": "mintVNativeAsset",
      "outputs": [],
      "stateMutability": "payable",
      "type": "function"
    },
    {
      "inputs": [
        {
          "internalType": "address",
          "name": "receiver",
          "type": "address"
        },
        {
          "internalType": "string",
          "name": "remark",
          "type": "string"
        },
        {
          "internalType": "uint32",
          "name": "channel_id",
          "type": "uint32"
        }
      ],
      "name": "mintVNativeAssetWithChannelId",
      "outputs": [],
      "stateMutability": "payable",
      "type": "function"
    },
    {
      "inputs": [
        {
          "internalType": "enum MoonbeamSlpx.Operation",
          "name": "",
          "type": "uint8"
        }
      ],
      "name": "operationToFeeInfo",
      "outputs": [
        {
          "internalType": "uint64",
          "name": "transactRequiredWeightAtMost",
          "type": "uint64"
        },
        {
          "internalType": "uint256",
          "name": "feeAmount",
          "type": "uint256"
        },
        {
          "internalType": "uint64",
          "name": "overallWeight",
          "type": "uint64"
        }
      ],
      "stateMutability": "view",
      "type": "function"
    },
    {
      "inputs": [],
      "name": "owner",
      "outputs": [
        {
          "internalType": "address",
          "name": "",
          "type": "address"
        }
      ],
      "stateMutability": "view",
      "type": "function"
    },
    {
      "inputs": [],
      "name": "pause",
      "outputs": [],
      "stateMutability": "nonpayable",
      "type": "function"
    },
    {
      "inputs": [],
      "name": "paused",
      "outputs": [
        {
          "internalType": "bool",
          "name": "",
          "type": "bool"
        }
      ],
      "stateMutability": "view",
      "type": "function"
    },
    {
      "inputs": [
        {
          "internalType": "address",
          "name": "vAssetAddress",
          "type": "address"
        },
        {
          "internalType": "uint256",
          "name": "amount",
          "type": "uint256"
        },
        {
          "internalType": "address",
          "name": "receiver",
          "type": "address"
        }
      ],
      "name": "redeemAsset",
      "outputs": [],
      "stateMutability": "nonpayable",
      "type": "function"
    },
    {
      "inputs": [],
      "name": "renounceOwnership",
      "outputs": [],
      "stateMutability": "nonpayable",
      "type": "function"
    },
    {
      "inputs": [
        {
          "internalType": "address",
          "name": "assetAddress",
          "type": "address"
        },
        {
          "internalType": "bytes2",
          "name": "currencyId",
          "type": "bytes2"
        },
        {
          "internalType": "uint256",
          "name": "minimumValue",
          "type": "uint256"
        }
      ],
      "name": "setAssetAddressInfo",
      "outputs": [],
      "stateMutability": "nonpayable",
      "type": "function"
    },
    {
      "inputs": [
        {
          "internalType": "uint64",
          "name": "dest_chain_id",
          "type": "uint64"
        },
        {
          "internalType": "bool",
          "name": "is_evm",
          "type": "bool"
        },
        {
          "internalType": "bool",
          "name": "is_substrate",
          "type": "bool"
        },
        {
          "internalType": "bytes1",
          "name": "raw_chain_index",
          "type": "bytes1"
        }
      ],
      "name": "setDestChainInfo",
      "outputs": [],
      "stateMutability": "nonpayable",
      "type": "function"
    },
    {
      "inputs": [
        {
          "internalType": "enum MoonbeamSlpx.Operation",
          "name": "_operation",
          "type": "uint8"
        },
        {
          "internalType": "uint64",
          "name": "_transactRequiredWeightAtMost",
          "type": "uint64"
        },
        {
          "internalType": "uint64",
          "name": "_overallWeight",
          "type": "uint64"
        },
        {
          "internalType": "uint256",
          "name": "_feeAmount",
          "type": "uint256"
        }
      ],
      "name": "setOperationToFeeInfo",
      "outputs": [],
      "stateMutability": "nonpayable",
      "type": "function"
    },
    {
      "inputs": [
        {
          "internalType": "address",
          "name": "newOwner",
          "type": "address"
        }
      ],
      "name": "transferOwnership",
      "outputs": [],
      "stateMutability": "nonpayable",
      "type": "function"
    },
    {
      "inputs": [],
      "name": "unpause",
      "outputs": [],
      "stateMutability": "nonpayable",
      "type": "function"
    }
  ],
  "transactionHash": "0x883bdaa51c99796be6f8beecb8c210b72e17df5448aed276d03c9d92c3c5e14b",
  "args": [],
  "numDeployments": 6,
  "solcInputHash": "e253134c9a43b55dfeb83cee77fd514a",
  "bytecode": "0x608060405234801561001057600080fd5b50612f02806100206000396000f3fe60806040526004361061012a5760003560e01c806362c64fe1116100ab5780638da5cb5b1161006f5780638da5cb5b14610335578063bddef61a14610353578063c86093a8146103c4578063c8645456146103fd578063cd80072614610458578063f2fde38b1461047857600080fd5b806362c64fe1146102c55780636b9491ec146102d8578063715018a6146102eb5780638456cb591461030057806386c64bb21461031557600080fd5b806352b11006116100f257806352b11006146101e357806357b0ca04146102035780635bbfef451461026f5780635c975abb1461028f57806362aba6eb146102b257600080fd5b806324af04471461012f5780632916705c14610151578063374f00ff146101715780633f4ba83a146101ae5780634899b9a8146101c3575b600080fd5b34801561013b57600080fd5b5061014f61014a3660046123b6565b610498565b005b34801561015d57600080fd5b5061014f61016c366004612431565b610660565b34801561017d57600080fd5b50609954610191906001600160a01b031681565b6040516001600160a01b0390911681526020015b60405180910390f35b3480156101ba57600080fd5b5061014f610822565b3480156101cf57600080fd5b5061014f6101de3660046124a9565b610834565b3480156101ef57600080fd5b5061014f6101fe3660046124fd565b6109de565b34801561020f57600080fd5b5061024861021e366004612550565b609c6020526000908152604090205460ff8082169161010081049091169062010000900460f81b83565b60408051931515845291151560208401526001600160f81b031916908201526060016101a5565b34801561027b57600080fd5b5061014f61028a36600461256b565b610af6565b34801561029b57600080fd5b5060655460ff1660405190151581526020016101a5565b61014f6102c03660046125a5565b610e44565b61014f6102d336600461266e565b61125a565b61014f6102e63660046126bb565b61141a565b3480156102f757600080fd5b5061014f6115cc565b34801561030c57600080fd5b5061014f6115de565b34801561032157600080fd5b5061014f61033036600461271e565b6115ee565b34801561034157600080fd5b506033546001600160a01b0316610191565b34801561035f57600080fd5b5061039a61036e366004612769565b609b602052600090815260409020805460018201546002909201546001600160401b0391821692911683565b604080516001600160401b03948516815260208101939093529216918101919091526060016101a5565b3480156103d057600080fd5b506099546103e890600160a01b900463ffffffff1681565b60405163ffffffff90911681526020016101a5565b34801561040957600080fd5b50610438610418366004612784565b609a602052600090815260409020805460019091015460f09190911b9082565b604080516001600160f01b031990931683526020830191909152016101a5565b34801561046457600080fd5b5061014f6104733660046127ad565b6116a0565b34801561048457600080fd5b5061014f610493366004612784565b611767565b6104a06117e0565b6020815111156104cb5760405162461bcd60e51b81526004016104c290612814565b60405180910390fd5b60006104d685611826565b90506104e285856118f5565b6040516000906104fc90600160f81b90869060200161283d565b6040516020818303038152906040529050600073B922dc02C04a12AE59336140824641E29dac286063b92155276105303390565b8585886040518563ffffffff1660e01b815260040161055294939291906128c1565b600060405180830381865af415801561056f573d6000803e3d6000fd5b505050506040513d6000823e601f3d908101601f191682016040526105979190810190612912565b905060006105a56000611b2e565b609954815160208301516040808501519051635b2479ff60e11b815294955061080d9463b648f3fe946105ef946097946001600160a01b039092169390928a9291906004016129c3565b600060405180830381600087803b15801561060957600080fd5b505af115801561061d573d6000803e3d6000fd5b50505050600080516020612ead8339815191526106373390565b898989868a60405161064e96959493929190612b19565b60405180910390a15050505050505050565b6106686117e0565b60208251111561068a5760405162461bcd60e51b81526004016104c290612814565b600061069586611826565b90506106a186866118f5565b6040516000906106bb90600160f81b90879060200161283d565b6040516020818303038152906040529050600073B922dc02C04a12AE59336140824641E29dac28606370c8aa2d6106ef3390565b858589896040518663ffffffff1660e01b8152600401610713959493929190612b73565b600060405180830381865af4158015610730573d6000803e3d6000fd5b505050506040513d6000823e601f3d908101601f191682016040526107589190810190612912565b905060006107666000611b2e565b609954815160208301516040808501519051635b2479ff60e11b815294955061080d9463b648f3fe946107b0946097946001600160a01b039092169390928a9291906004016129c3565b600060405180830381600087803b1580156107ca57600080fd5b505af11580156107de573d6000803e3d6000fd5b50505050600080516020612ead8339815191526107f83390565b8a8a8a868b60405161080f96959493929190612b19565b60405180910390a1505050505050505050565b61082a611cb5565b610832611d0f565b565b61083c6117e0565b600061084784611826565b905061085384846118f5565b60405160009061086d90600160f81b90859060200161283d565b6040516020818303038152906040529050600073B922dc02C04a12AE59336140824641E29dac2860639f0047836108a13390565b85856040518463ffffffff1660e01b81526004016108c193929190612bd2565b600060405180830381865af41580156108de573d6000803e3d6000fd5b505050506040513d6000823e601f3d908101601f191682016040526109069190810190612912565b905060006109146001611b2e565b609954815160208301516040808501519051635b2479ff60e11b815294955061080d9463b648f3fe9461095e946097946001600160a01b039092169390928a9291906004016129c3565b600060405180830381600087803b15801561097857600080fd5b505af115801561098c573d6000803e3d6000fd5b505050507f89996e9f85ecc9022265638d75df5de89dd421fab215e1b013ece5fcc188adce6109b83390565b888888866040516109cd959493929190612c06565b60405180910390a150505050505050565b6109e6611cb5565b6001600160a01b038316610a335760405162461bcd60e51b8152602060048201526014602482015273496e76616c69642061737365744164647265737360601b60448201526064016104c2565b80610a775760405162461bcd60e51b8152602060048201526014602482015273496e76616c6964206d696e696d756d56616c756560601b60448201526064016104c2565b6001600160f01b03198216610ac35760405162461bcd60e51b8152602060048201526012602482015271125b9d985b1a590818dd5c9c995b98de525960721b60448201526064016104c2565b6001600160a01b03929092166000908152609a60205260409020805461ffff191660f09290921c91909117815560010155565b600054610100900460ff1615808015610b165750600054600160ff909116105b80610b305750303b158015610b30575060005460ff166001145b610b935760405162461bcd60e51b815260206004820152602e60248201527f496e697469616c697a61626c653a20636f6e747261637420697320616c72656160448201526d191e481a5b9a5d1a585b1a5e995960921b60648201526084016104c2565b6000805460ff191660011790558015610bb6576000805461ff0019166101001790555b610bbe611d61565b610bc6611d90565b6001600160a01b038416610c0e5760405162461bcd60e51b815260206004820152600f60248201526e496e76616c6964206164647265737360881b60448201526064016104c2565b8263ffffffff166107d11480610c2b57508263ffffffff166107ee145b610c6f5760405162461bcd60e51b8152602060048201526015602482015274125b9d985b1a5908189a599c9bdcdd14185c985259605a1b60448201526064016104c2565b61010560f11b6001600160f01b031983161480610c9a575061080160f01b6001600160f01b03198316145b610ce65760405162461bcd60e51b815260206004820152601860248201527f496e76616c6964206e617469766543757272656e63794964000000000000000060448201526064016104c2565b610cfa84600160f01b64e8d4a510006109de565b610d0f61080283670de0b6b3a76400006109de565b609980546001600160a01b0386166001600160c01b031990911617600160a01b63ffffffff861602179055604080516001808252818301909252600091816020015b6060815260200190600190039081610d5157905050604051600060208201526001600160e01b031960e087901b16602182015290915060250160405160208183030381529060405281600081518110610dac57610dac612c41565b6020908102919091018101919091526040805180820190915260018082528183018490526097805460ff19169091178155835191929091610df3916098919086019061217f565b50905050508015610e3e576000805461ff0019169055604051600181527f7f26b83ff96e1f2b6a682f133852f6798a09c465da95921460cefb38474024989060200160405180910390a15b50505050565b60008251118015610e5757506020825111155b610ebb5760405162461bcd60e51b815260206004820152602f60248201527f72656d61726b206d757374206265206c657373207468616e203332206279746560448201526e7320616e64206e6f7420656d70747960881b60648201526084016104c2565b6000856001600160801b031611610f145760405162461bcd60e51b815260206004820152601d60248201527f616d6f756e74206d7573742062652067726561746572207468616e203000000060448201526064016104c2565b6001600160401b0384166000908152609c60209081526040918290208251606081018452905460ff8082161580158452610100830490911615159383019390935262010000900460f81b6001600160f81b03191692810192909252610fc9578351601414610fc45760405162461bcd60e51b815260206004820152601c60248201527f65766d2061646472657373206d7573742062652032302062797465730000000060448201526064016104c2565b611085565b806020015115611032578351602014610fc45760405162461bcd60e51b815260206004820152602560248201527f737562737472617465207075626c6963206b6579206d75737420626520333220604482015264627974657360d81b60648201526084016104c2565b60405162461bcd60e51b815260206004820152602260248201527f44657374696e6174696f6e20636861696e206973206e6f7420737570706f7274604482015261195960f21b60648201526084016104c2565b600061109088611826565b90506001600160a01b03881661080214156110bf573496506110ba876001600160801b0316611dbf565b6110d2565b6110d288886001600160801b03166118f5565b600073B922dc02C04a12AE59336140824641E29dac28606309e4f001334643868d89604001518d60405160200161110a929190612c57565b6040516020818303038152906040528c8c6040518963ffffffff1660e01b815260040161113e989796959493929190612c88565b600060405180830381865af415801561115b573d6000803e3d6000fd5b505050506040513d6000823e601f3d908101601f191682016040526111839190810190612912565b905060006111916000611b2e565b609954815160208301516040808501519051635b2479ff60e11b815294955061080d9463b648f3fe946111db946097946001600160a01b039092169390928a9291906004016129c3565b600060405180830381600087803b1580156111f557600080fd5b505af1158015611209573d6000803e3d6000fd5b505050507f4833a533f452aba531d47f820ee79a351edade0ef9a2e288a3ac9671b6941a0c8a8a8a8a8a8a60405161124696959493929190612d0a565b60405180910390a150505050505050505050565b6112626117e0565b6020815111156112845760405162461bcd60e51b81526004016104c290612814565b6000611291610802611826565b905061129c34611dbf565b6040516000906112b690600160f81b90869060200161283d565b6040516020818303038152906040529050600073B922dc02C04a12AE59336140824641E29dac286063b92155276112ea3390565b8585886040518563ffffffff1660e01b815260040161130c94939291906128c1565b600060405180830381865af4158015611329573d6000803e3d6000fd5b505050506040513d6000823e601f3d908101601f191682016040526113519190810190612912565b9050600061135f6000611b2e565b609954815160208301516040808501519051635b2479ff60e11b815294955061080d9463b648f3fe946113a9946097946001600160a01b039092169390928a9291906004016129c3565b600060405180830381600087803b1580156113c357600080fd5b505af11580156113d7573d6000803e3d6000fd5b50505050600080516020612ead8339815191526113f13390565b6108023489868a60405161140a96959493929190612b19565b60405180910390a1505050505050565b6114226117e0565b6020825111156114445760405162461bcd60e51b81526004016104c290612814565b6000611451610802611826565b905061145c34611dbf565b60405160009061147690600160f81b90879060200161283d565b6040516020818303038152906040529050600073B922dc02C04a12AE59336140824641E29dac28606370c8aa2d6114aa3390565b858589896040518663ffffffff1660e01b81526004016114ce959493929190612b73565b600060405180830381865af41580156114eb573d6000803e3d6000fd5b505050506040513d6000823e601f3d908101601f191682016040526115139190810190612912565b905060006115216000611b2e565b609954815160208301516040808501519051635b2479ff60e11b815294955061080d9463b648f3fe9461156b946097946001600160a01b039092169390928a9291906004016129c3565b600060405180830381600087803b15801561158557600080fd5b505af1158015611599573d6000803e3d6000fd5b50505050600080516020612ead8339815191526115b33390565b610802348a868b6040516109cd96959493929190612b19565b6115d4611cb5565b6108326000611f34565b6115e6611cb5565b610832611f86565b6115f6611cb5565b6040518060600160405280846001600160401b03168152602001828152602001836001600160401b0316815250609b600086600381111561163957611639612d78565b600381111561164a5761164a612d78565b81526020808201929092526040908101600020835181546001600160401b0391821667ffffffffffffffff1991821617835593850151600183015593909101516002909101805491909316911617905550505050565b6116a8611cb5565b8280156116b25750815b156117135760405162461bcd60e51b815260206004820152602b60248201527f426f74682069735f65766d20616e642069735f7375627374726174652063616e60448201526a6e6f74206265207472756560a81b60648201526084016104c2565b6001600160401b03939093166000908152609c60205260409020805461ffff191692151561ff00191692909217610100911515919091021762ff000019166201000060f89390931c92909202919091179055565b61176f611cb5565b6001600160a01b0381166117d45760405162461bcd60e51b815260206004820152602660248201527f4f776e61626c653a206e6577206f776e657220697320746865207a65726f206160448201526564647265737360d01b60648201526084016104c2565b6117dd81611f34565b50565b60655460ff16156108325760405162461bcd60e51b815260206004820152601060248201526f14185d5cd8589b194e881c185d5cd95960821b60448201526064016104c2565b6001600160a01b0381166000908152609a602090815260408083208151808301909252805460f01b6001600160f01b031916825260010154918101829052906118a65760405162461bcd60e51b8152602060048201526012602482015271105cdcd95d081a5cc81b9bdd08195e1a5cdd60721b60448201526064016104c2565b80516001600160f01b0319166118ee5760405162461bcd60e51b815260206004820152600d60248201526c125b9d985b1a5908185cdcd95d609a1b60448201526064016104c2565b5192915050565b6001600160a01b0382166119425760405162461bcd60e51b8152602060048201526014602482015273496e76616c69642061737365744164647265737360601b60448201526064016104c2565b6001600160a01b0382166000908152609a60205260409020600101548110156119a65760405162461bcd60e51b81526020600482015260166024820152754c657373207468616e204d696e696d756d56616c756560501b60448201526064016104c2565b6000737746ef546d562b443AE4B4145541a3b1a3D757176332640a52336040516001600160e01b031960e084901b1681526001600160a01b039091166004820152602401602060405180830381865af4158015611a07573d6000803e3d6000fd5b505050506040513d601f19601f82011682018060405250810190611a2b9190612d8e565b90506000611a3882611fc3565b9050836001600160a01b0381166323b872dd336040516001600160e01b031960e084901b1681526001600160a01b039091166004820152306024820152604481018790526064016020604051808303816000875af1158015611a9e573d6000803e3d6000fd5b505050506040513d601f19601f82011682018060405250810190611ac29190612da7565b5060405163b9f813ff60e01b81526108049063b9f813ff90611af5908890889087906001600160401b0390600401612dc4565b600060405180830381600087803b158015611b0f57600080fd5b505af1158015611b23573d6000803e3d6000fd5b505050505050505050565b6040805160608101825260008082526020820181905291810182905290609b81846003811115611b6057611b60612d78565b6003811115611b7157611b71612d78565b81526020808201929092526040908101600020815160608101835281546001600160401b03908116808352600184015495830195909552600290920154909116918101919091529150611c125760405162461bcd60e51b8152602060048201526024808201527f496e76616c6964207472616e7361637452657175697265645765696768744174604482015263135bdcdd60e21b60648201526084016104c2565b6000816020015111611c5a5760405162461bcd60e51b8152602060048201526011602482015270125b9d985b1a5908199959505b5bdd5b9d607a1b60448201526064016104c2565b600081604001516001600160401b031611611caf5760405162461bcd60e51b8152602060048201526015602482015274125b9d985b1a59081bdd995c985b1b15d95a59da1d605a1b60448201526064016104c2565b92915050565b6033546001600160a01b031633146108325760405162461bcd60e51b815260206004820181905260248201527f4f776e61626c653a2063616c6c6572206973206e6f7420746865206f776e657260448201526064016104c2565b611d176120d3565b6065805460ff191690557f5db9ee0a495bf2e6ff9c91a7834c1ba4fdd244a5e8aa4e537bd38aeae4b073aa335b6040516001600160a01b03909116815260200160405180910390a1565b600054610100900460ff16611d885760405162461bcd60e51b81526004016104c290612e61565b61083261211c565b600054610100900460ff16611db75760405162461bcd60e51b81526004016104c290612e61565b61083261214c565b610802600052609a6020527fae00947ee313780ebd51d12b4f1ecb575ce4eb6b099d8cff17facd5b92da71f054811015611e345760405162461bcd60e51b81526020600482015260166024820152754c657373207468616e204d696e696d756d56616c756560501b60448201526064016104c2565b6000737746ef546d562b443AE4B4145541a3b1a3D757176332640a52336040516001600160e01b031960e084901b1681526001600160a01b039091166004820152602401602060405180830381865af4158015611e95573d6000803e3d6000fd5b505050506040513d601f19601f82011682018060405250810190611eb99190612d8e565b90506000611ec682611fc3565b60405163b9f813ff60e01b81529091506108049063b9f813ff90611efd9061080290879086906001600160401b0390600401612dc4565b600060405180830381600087803b158015611f1757600080fd5b505af1158015611f2b573d6000803e3d6000fd5b50505050505050565b603380546001600160a01b038381166001600160a01b0319831681179093556040519116919082907f8be0079c531659141344cd1fd0a4f28419497f9722a3daafe3b4186f6b6457e090600090a35050565b611f8e6117e0565b6065805460ff191660011790557f62e78cea01bee320cd4e420270b5ea74000d11b0c9f74754ebdbfc544b05a258611d443390565b60408051808201825260008082526060602083018190528351600280825291810190945291929091816020015b6060815260200190600190039081611ff05790505060995460405160006020820152600160a01b90910460e01b6001600160e01b03191660218201529091506025016040516020818303038152906040528160008151811061205457612054612c41565b6020026020010181905250826040516020016120879190600160f81b815260018101919091526000602182015260220190565b604051602081830303815290604052816001815181106120a9576120a9612c41565b60209081029190910181019190915260408051808201909152600181529081019190915292915050565b60655460ff166108325760405162461bcd60e51b815260206004820152601460248201527314185d5cd8589b194e881b9bdd081c185d5cd95960621b60448201526064016104c2565b600054610100900460ff166121435760405162461bcd60e51b81526004016104c290612e61565b61083233611f34565b600054610100900460ff166121735760405162461bcd60e51b81526004016104c290612e61565b6065805460ff19169055565b8280548282559060005260206000209081019282156121cc579160200282015b828111156121cc57825180516121bc9184916020909101906121dc565b509160200191906001019061219f565b506121d892915061225c565b5090565b8280546121e890612988565b90600052602060002090601f01602090048101928261220a5760008555612250565b82601f1061222357805160ff1916838001178555612250565b82800160010185558215612250579182015b82811115612250578251825591602001919060010190612235565b506121d8929150612279565b808211156121d8576000612270828261228e565b5060010161225c565b5b808211156121d8576000815560010161227a565b50805461229a90612988565b6000825580601f106122aa575050565b601f0160209004906000526020600020908101906117dd9190612279565b80356001600160a01b03811681146122df57600080fd5b919050565b634e487b7160e01b600052604160045260246000fd5b604051601f8201601f191681016001600160401b0381118282101715612322576123226122e4565b604052919050565b60006001600160401b03821115612343576123436122e4565b50601f01601f191660200190565b600061236461235f8461232a565b6122fa565b905082815283838301111561237857600080fd5b828260208301376000602084830101529392505050565b600082601f8301126123a057600080fd5b6123af83833560208501612351565b9392505050565b600080600080608085870312156123cc57600080fd5b6123d5856122c8565b9350602085013592506123ea604086016122c8565b915060608501356001600160401b0381111561240557600080fd5b6124118782880161238f565b91505092959194509250565b803563ffffffff811681146122df57600080fd5b600080600080600060a0868803121561244957600080fd5b612452866122c8565b945060208601359350612467604087016122c8565b925060608601356001600160401b0381111561248257600080fd5b61248e8882890161238f565b92505061249d6080870161241d565b90509295509295909350565b6000806000606084860312156124be57600080fd5b6124c7846122c8565b9250602084013591506124dc604085016122c8565b90509250925092565b80356001600160f01b0319811681146122df57600080fd5b60008060006060848603121561251257600080fd5b61251b846122c8565b9250612529602085016124e5565b9150604084013590509250925092565b80356001600160401b03811681146122df57600080fd5b60006020828403121561256257600080fd5b6123af82612539565b60008060006060848603121561258057600080fd5b612589846122c8565b92506125976020850161241d565b91506124dc604085016124e5565b60008060008060008060c087890312156125be57600080fd5b6125c7876122c8565b955060208701356001600160801b03811681146125e357600080fd5b94506125f160408801612539565b935060608701356001600160401b038082111561260d57600080fd5b818901915089601f83011261262157600080fd5b6126308a833560208501612351565b9450608089013591508082111561264657600080fd5b5061265389828a0161238f565b92505061266260a0880161241d565b90509295509295509295565b6000806040838503121561268157600080fd5b61268a836122c8565b915060208301356001600160401b038111156126a557600080fd5b6126b18582860161238f565b9150509250929050565b6000806000606084860312156126d057600080fd5b6126d9846122c8565b925060208401356001600160401b038111156126f457600080fd5b6127008682870161238f565b9250506124dc6040850161241d565b8035600481106122df57600080fd5b6000806000806080858703121561273457600080fd5b61273d8561270f565b935061274b60208601612539565b925061275960408601612539565b9396929550929360600135925050565b60006020828403121561277b57600080fd5b6123af8261270f565b60006020828403121561279657600080fd5b6123af826122c8565b80151581146117dd57600080fd5b600080600080608085870312156127c357600080fd5b6127cc85612539565b935060208501356127dc8161279f565b925060408501356127ec8161279f565b915060608501356001600160f81b03198116811461280957600080fd5b939692955090935050565b6020808252600f908201526e72656d61726b20746f6f206c6f6e6760881b604082015260600190565b6001600160f81b031992909216825260601b6bffffffffffffffffffffffff1916600182015260150190565b60005b8381101561288457818101518382015260200161286c565b83811115610e3e5750506000910152565b600081518084526128ad816020860160208601612869565b601f01601f19169290920160200192915050565b6001600160a01b03851681526001600160f01b0319841660208201526080604082018190526000906128f590830185612895565b82810360608401526129078185612895565b979650505050505050565b60006020828403121561292457600080fd5b81516001600160401b0381111561293a57600080fd5b8201601f8101841361294b57600080fd5b805161295961235f8261232a565b81815285602083850101111561296e57600080fd5b61297f826020830160208601612869565b95945050505050565b600181811c9082168061299c57607f821691505b602082108114156129bd57634e487b7160e01b600052602260045260246000fd5b50919050565b60c081526000610100820160ff89541660c08401526001808a01604060e086015282815480855261012094508487019150848160051b8801019450600083815260209350838120815b83811015612abf5789880361011f190185528154839080891c89821680612a3457607f821691505b898210811415612a5257634e487b7160e01b87526022600452602487fd5b818c5260208c01818015612a6d5760018114612a7e57612aa8565b60ff19851682528b82019550612aa8565b600088815260209020895b85811015612aa257815484820152908e01908d01612a89565b83019650505b50939b505050958701955050908601908601612a0c565b5050505050612ad88186018b6001600160a01b03169052565b50506001600160401b03871660408401528281036060840152612afb8187612895565b91505083608083015261290760a08301846001600160401b03169052565b6001600160a01b0387811682528681166020830152604082018690528416606082015260c060808201819052600090612b5490830185612895565b82810360a0840152612b668185612895565b9998505050505050505050565b6001600160a01b03861681526001600160f01b03198516602082015260a060408201819052600090612ba790830186612895565b8281036060840152612bb98186612895565b91505063ffffffff831660808301529695505050505050565b6001600160a01b03841681526001600160f01b03198316602082015260606040820181905260009061297f90830184612895565b6001600160a01b0386811682528581166020830152604082018590528316606082015260a06080820181905260009061290790830184612895565b634e487b7160e01b600052603260045260246000fd5b6001600160f81b0319831681528151600090612c7a816001850160208701612869565b919091016001019392505050565b6001600160a01b038916815260208101889052604081018790526001600160f01b0319861660608201526001600160801b038516608082015261010060a08201819052600090612cda83820187612895565b905082810360c0840152612cee8186612895565b91505063ffffffff831660e08301529998505050505050505050565b6001600160a01b03871681526001600160801b03861660208201526001600160401b038516604082015260c060608201819052600090612d4c90830186612895565b8281036080840152612d5e8186612895565b91505063ffffffff831660a0830152979650505050505050565b634e487b7160e01b600052602160045260246000fd5b600060208284031215612da057600080fd5b5051919050565b600060208284031215612db957600080fd5b81516123af8161279f565b60018060a01b03851681526000602085818401526080604084015260c0830160ff865116608085015281860151604060a086015281815180845260e08701915060e08160051b8801019350848301925060005b81811015612e455760df19888603018352612e33858551612895565b94509285019291850191600101612e17565b5050506001600160401b038616606086015250915061297f9050565b6020808252602b908201527f496e697469616c697a61626c653a20636f6e7472616374206973206e6f74206960408201526a6e697469616c697a696e6760a81b60608201526080019056feca31869d7c65b3930a575eef33c6f69db06b0f1168af96408c4fceca8de0fadca26469706673582212206b2492d421223063ea4ecca794bec661dd718151bf8f4f8247a2ef7c5c5d4d8e64736f6c634300080a0033",
  "deployedBytecode": "0x60806040526004361061012a5760003560e01c806362c64fe1116100ab5780638da5cb5b1161006f5780638da5cb5b14610335578063bddef61a14610353578063c86093a8146103c4578063c8645456146103fd578063cd80072614610458578063f2fde38b1461047857600080fd5b806362c64fe1146102c55780636b9491ec146102d8578063715018a6146102eb5780638456cb591461030057806386c64bb21461031557600080fd5b806352b11006116100f257806352b11006146101e357806357b0ca04146102035780635bbfef451461026f5780635c975abb1461028f57806362aba6eb146102b257600080fd5b806324af04471461012f5780632916705c14610151578063374f00ff146101715780633f4ba83a146101ae5780634899b9a8146101c3575b600080fd5b34801561013b57600080fd5b5061014f61014a3660046123b6565b610498565b005b34801561015d57600080fd5b5061014f61016c366004612431565b610660565b34801561017d57600080fd5b50609954610191906001600160a01b031681565b6040516001600160a01b0390911681526020015b60405180910390f35b3480156101ba57600080fd5b5061014f610822565b3480156101cf57600080fd5b5061014f6101de3660046124a9565b610834565b3480156101ef57600080fd5b5061014f6101fe3660046124fd565b6109de565b34801561020f57600080fd5b5061024861021e366004612550565b609c6020526000908152604090205460ff8082169161010081049091169062010000900460f81b83565b60408051931515845291151560208401526001600160f81b031916908201526060016101a5565b34801561027b57600080fd5b5061014f61028a36600461256b565b610af6565b34801561029b57600080fd5b5060655460ff1660405190151581526020016101a5565b61014f6102c03660046125a5565b610e44565b61014f6102d336600461266e565b61125a565b61014f6102e63660046126bb565b61141a565b3480156102f757600080fd5b5061014f6115cc565b34801561030c57600080fd5b5061014f6115de565b34801561032157600080fd5b5061014f61033036600461271e565b6115ee565b34801561034157600080fd5b506033546001600160a01b0316610191565b34801561035f57600080fd5b5061039a61036e366004612769565b609b602052600090815260409020805460018201546002909201546001600160401b0391821692911683565b604080516001600160401b03948516815260208101939093529216918101919091526060016101a5565b3480156103d057600080fd5b506099546103e890600160a01b900463ffffffff1681565b60405163ffffffff90911681526020016101a5565b34801561040957600080fd5b50610438610418366004612784565b609a602052600090815260409020805460019091015460f09190911b9082565b604080516001600160f01b031990931683526020830191909152016101a5565b34801561046457600080fd5b5061014f6104733660046127ad565b6116a0565b34801561048457600080fd5b5061014f610493366004612784565b611767565b6104a06117e0565b6020815111156104cb5760405162461bcd60e51b81526004016104c290612814565b60405180910390fd5b60006104d685611826565b90506104e285856118f5565b6040516000906104fc90600160f81b90869060200161283d565b6040516020818303038152906040529050600073__$e184f4046250cd750dfdb139628ab13bdc$__63b92155276105303390565b8585886040518563ffffffff1660e01b815260040161055294939291906128c1565b600060405180830381865af415801561056f573d6000803e3d6000fd5b505050506040513d6000823e601f3d908101601f191682016040526105979190810190612912565b905060006105a56000611b2e565b609954815160208301516040808501519051635b2479ff60e11b815294955061080d9463b648f3fe946105ef946097946001600160a01b039092169390928a9291906004016129c3565b600060405180830381600087803b15801561060957600080fd5b505af115801561061d573d6000803e3d6000fd5b50505050600080516020612ead8339815191526106373390565b898989868a60405161064e96959493929190612b19565b60405180910390a15050505050505050565b6106686117e0565b60208251111561068a5760405162461bcd60e51b81526004016104c290612814565b600061069586611826565b90506106a186866118f5565b6040516000906106bb90600160f81b90879060200161283d565b6040516020818303038152906040529050600073__$e184f4046250cd750dfdb139628ab13bdc$__6370c8aa2d6106ef3390565b858589896040518663ffffffff1660e01b8152600401610713959493929190612b73565b600060405180830381865af4158015610730573d6000803e3d6000fd5b505050506040513d6000823e601f3d908101601f191682016040526107589190810190612912565b905060006107666000611b2e565b609954815160208301516040808501519051635b2479ff60e11b815294955061080d9463b648f3fe946107b0946097946001600160a01b039092169390928a9291906004016129c3565b600060405180830381600087803b1580156107ca57600080fd5b505af11580156107de573d6000803e3d6000fd5b50505050600080516020612ead8339815191526107f83390565b8a8a8a868b60405161080f96959493929190612b19565b60405180910390a1505050505050505050565b61082a611cb5565b610832611d0f565b565b61083c6117e0565b600061084784611826565b905061085384846118f5565b60405160009061086d90600160f81b90859060200161283d565b6040516020818303038152906040529050600073__$e184f4046250cd750dfdb139628ab13bdc$__639f0047836108a13390565b85856040518463ffffffff1660e01b81526004016108c193929190612bd2565b600060405180830381865af41580156108de573d6000803e3d6000fd5b505050506040513d6000823e601f3d908101601f191682016040526109069190810190612912565b905060006109146001611b2e565b609954815160208301516040808501519051635b2479ff60e11b815294955061080d9463b648f3fe9461095e946097946001600160a01b039092169390928a9291906004016129c3565b600060405180830381600087803b15801561097857600080fd5b505af115801561098c573d6000803e3d6000fd5b505050507f89996e9f85ecc9022265638d75df5de89dd421fab215e1b013ece5fcc188adce6109b83390565b888888866040516109cd959493929190612c06565b60405180910390a150505050505050565b6109e6611cb5565b6001600160a01b038316610a335760405162461bcd60e51b8152602060048201526014602482015273496e76616c69642061737365744164647265737360601b60448201526064016104c2565b80610a775760405162461bcd60e51b8152602060048201526014602482015273496e76616c6964206d696e696d756d56616c756560601b60448201526064016104c2565b6001600160f01b03198216610ac35760405162461bcd60e51b8152602060048201526012602482015271125b9d985b1a590818dd5c9c995b98de525960721b60448201526064016104c2565b6001600160a01b03929092166000908152609a60205260409020805461ffff191660f09290921c91909117815560010155565b600054610100900460ff1615808015610b165750600054600160ff909116105b80610b305750303b158015610b30575060005460ff166001145b610b935760405162461bcd60e51b815260206004820152602e60248201527f496e697469616c697a61626c653a20636f6e747261637420697320616c72656160448201526d191e481a5b9a5d1a585b1a5e995960921b60648201526084016104c2565b6000805460ff191660011790558015610bb6576000805461ff0019166101001790555b610bbe611d61565b610bc6611d90565b6001600160a01b038416610c0e5760405162461bcd60e51b815260206004820152600f60248201526e496e76616c6964206164647265737360881b60448201526064016104c2565b8263ffffffff166107d11480610c2b57508263ffffffff166107ee145b610c6f5760405162461bcd60e51b8152602060048201526015602482015274125b9d985b1a5908189a599c9bdcdd14185c985259605a1b60448201526064016104c2565b61010560f11b6001600160f01b031983161480610c9a575061080160f01b6001600160f01b03198316145b610ce65760405162461bcd60e51b815260206004820152601860248201527f496e76616c6964206e617469766543757272656e63794964000000000000000060448201526064016104c2565b610cfa84600160f01b64e8d4a510006109de565b610d0f61080283670de0b6b3a76400006109de565b609980546001600160a01b0386166001600160c01b031990911617600160a01b63ffffffff861602179055604080516001808252818301909252600091816020015b6060815260200190600190039081610d5157905050604051600060208201526001600160e01b031960e087901b16602182015290915060250160405160208183030381529060405281600081518110610dac57610dac612c41565b6020908102919091018101919091526040805180820190915260018082528183018490526097805460ff19169091178155835191929091610df3916098919086019061217f565b50905050508015610e3e576000805461ff0019169055604051600181527f7f26b83ff96e1f2b6a682f133852f6798a09c465da95921460cefb38474024989060200160405180910390a15b50505050565b60008251118015610e5757506020825111155b610ebb5760405162461bcd60e51b815260206004820152602f60248201527f72656d61726b206d757374206265206c657373207468616e203332206279746560448201526e7320616e64206e6f7420656d70747960881b60648201526084016104c2565b6000856001600160801b031611610f145760405162461bcd60e51b815260206004820152601d60248201527f616d6f756e74206d7573742062652067726561746572207468616e203000000060448201526064016104c2565b6001600160401b0384166000908152609c60209081526040918290208251606081018452905460ff8082161580158452610100830490911615159383019390935262010000900460f81b6001600160f81b03191692810192909252610fc9578351601414610fc45760405162461bcd60e51b815260206004820152601c60248201527f65766d2061646472657373206d7573742062652032302062797465730000000060448201526064016104c2565b611085565b806020015115611032578351602014610fc45760405162461bcd60e51b815260206004820152602560248201527f737562737472617465207075626c6963206b6579206d75737420626520333220604482015264627974657360d81b60648201526084016104c2565b60405162461bcd60e51b815260206004820152602260248201527f44657374696e6174696f6e20636861696e206973206e6f7420737570706f7274604482015261195960f21b60648201526084016104c2565b600061109088611826565b90506001600160a01b03881661080214156110bf573496506110ba876001600160801b0316611dbf565b6110d2565b6110d288886001600160801b03166118f5565b600073__$e184f4046250cd750dfdb139628ab13bdc$__6309e4f001334643868d89604001518d60405160200161110a929190612c57565b6040516020818303038152906040528c8c6040518963ffffffff1660e01b815260040161113e989796959493929190612c88565b600060405180830381865af415801561115b573d6000803e3d6000fd5b505050506040513d6000823e601f3d908101601f191682016040526111839190810190612912565b905060006111916000611b2e565b609954815160208301516040808501519051635b2479ff60e11b815294955061080d9463b648f3fe946111db946097946001600160a01b039092169390928a9291906004016129c3565b600060405180830381600087803b1580156111f557600080fd5b505af1158015611209573d6000803e3d6000fd5b505050507f4833a533f452aba531d47f820ee79a351edade0ef9a2e288a3ac9671b6941a0c8a8a8a8a8a8a60405161124696959493929190612d0a565b60405180910390a150505050505050505050565b6112626117e0565b6020815111156112845760405162461bcd60e51b81526004016104c290612814565b6000611291610802611826565b905061129c34611dbf565b6040516000906112b690600160f81b90869060200161283d565b6040516020818303038152906040529050600073__$e184f4046250cd750dfdb139628ab13bdc$__63b92155276112ea3390565b8585886040518563ffffffff1660e01b815260040161130c94939291906128c1565b600060405180830381865af4158015611329573d6000803e3d6000fd5b505050506040513d6000823e601f3d908101601f191682016040526113519190810190612912565b9050600061135f6000611b2e565b609954815160208301516040808501519051635b2479ff60e11b815294955061080d9463b648f3fe946113a9946097946001600160a01b039092169390928a9291906004016129c3565b600060405180830381600087803b1580156113c357600080fd5b505af11580156113d7573d6000803e3d6000fd5b50505050600080516020612ead8339815191526113f13390565b6108023489868a60405161140a96959493929190612b19565b60405180910390a1505050505050565b6114226117e0565b6020825111156114445760405162461bcd60e51b81526004016104c290612814565b6000611451610802611826565b905061145c34611dbf565b60405160009061147690600160f81b90879060200161283d565b6040516020818303038152906040529050600073__$e184f4046250cd750dfdb139628ab13bdc$__6370c8aa2d6114aa3390565b858589896040518663ffffffff1660e01b81526004016114ce959493929190612b73565b600060405180830381865af41580156114eb573d6000803e3d6000fd5b505050506040513d6000823e601f3d908101601f191682016040526115139190810190612912565b905060006115216000611b2e565b609954815160208301516040808501519051635b2479ff60e11b815294955061080d9463b648f3fe9461156b946097946001600160a01b039092169390928a9291906004016129c3565b600060405180830381600087803b15801561158557600080fd5b505af1158015611599573d6000803e3d6000fd5b50505050600080516020612ead8339815191526115b33390565b610802348a868b6040516109cd96959493929190612b19565b6115d4611cb5565b6108326000611f34565b6115e6611cb5565b610832611f86565b6115f6611cb5565b6040518060600160405280846001600160401b03168152602001828152602001836001600160401b0316815250609b600086600381111561163957611639612d78565b600381111561164a5761164a612d78565b81526020808201929092526040908101600020835181546001600160401b0391821667ffffffffffffffff1991821617835593850151600183015593909101516002909101805491909316911617905550505050565b6116a8611cb5565b8280156116b25750815b156117135760405162461bcd60e51b815260206004820152602b60248201527f426f74682069735f65766d20616e642069735f7375627374726174652063616e60448201526a6e6f74206265207472756560a81b60648201526084016104c2565b6001600160401b03939093166000908152609c60205260409020805461ffff191692151561ff00191692909217610100911515919091021762ff000019166201000060f89390931c92909202919091179055565b61176f611cb5565b6001600160a01b0381166117d45760405162461bcd60e51b815260206004820152602660248201527f4f776e61626c653a206e6577206f776e657220697320746865207a65726f206160448201526564647265737360d01b60648201526084016104c2565b6117dd81611f34565b50565b60655460ff16156108325760405162461bcd60e51b815260206004820152601060248201526f14185d5cd8589b194e881c185d5cd95960821b60448201526064016104c2565b6001600160a01b0381166000908152609a602090815260408083208151808301909252805460f01b6001600160f01b031916825260010154918101829052906118a65760405162461bcd60e51b8152602060048201526012602482015271105cdcd95d081a5cc81b9bdd08195e1a5cdd60721b60448201526064016104c2565b80516001600160f01b0319166118ee5760405162461bcd60e51b815260206004820152600d60248201526c125b9d985b1a5908185cdcd95d609a1b60448201526064016104c2565b5192915050565b6001600160a01b0382166119425760405162461bcd60e51b8152602060048201526014602482015273496e76616c69642061737365744164647265737360601b60448201526064016104c2565b6001600160a01b0382166000908152609a60205260409020600101548110156119a65760405162461bcd60e51b81526020600482015260166024820152754c657373207468616e204d696e696d756d56616c756560501b60448201526064016104c2565b600073__$ddfb0e6c1c4d05795fcce73a90830b0995$__6332640a52336040516001600160e01b031960e084901b1681526001600160a01b039091166004820152602401602060405180830381865af4158015611a07573d6000803e3d6000fd5b505050506040513d601f19601f82011682018060405250810190611a2b9190612d8e565b90506000611a3882611fc3565b9050836001600160a01b0381166323b872dd336040516001600160e01b031960e084901b1681526001600160a01b039091166004820152306024820152604481018790526064016020604051808303816000875af1158015611a9e573d6000803e3d6000fd5b505050506040513d601f19601f82011682018060405250810190611ac29190612da7565b5060405163b9f813ff60e01b81526108049063b9f813ff90611af5908890889087906001600160401b0390600401612dc4565b600060405180830381600087803b158015611b0f57600080fd5b505af1158015611b23573d6000803e3d6000fd5b505050505050505050565b6040805160608101825260008082526020820181905291810182905290609b81846003811115611b6057611b60612d78565b6003811115611b7157611b71612d78565b81526020808201929092526040908101600020815160608101835281546001600160401b03908116808352600184015495830195909552600290920154909116918101919091529150611c125760405162461bcd60e51b8152602060048201526024808201527f496e76616c6964207472616e7361637452657175697265645765696768744174604482015263135bdcdd60e21b60648201526084016104c2565b6000816020015111611c5a5760405162461bcd60e51b8152602060048201526011602482015270125b9d985b1a5908199959505b5bdd5b9d607a1b60448201526064016104c2565b600081604001516001600160401b031611611caf5760405162461bcd60e51b8152602060048201526015602482015274125b9d985b1a59081bdd995c985b1b15d95a59da1d605a1b60448201526064016104c2565b92915050565b6033546001600160a01b031633146108325760405162461bcd60e51b815260206004820181905260248201527f4f776e61626c653a2063616c6c6572206973206e6f7420746865206f776e657260448201526064016104c2565b611d176120d3565b6065805460ff191690557f5db9ee0a495bf2e6ff9c91a7834c1ba4fdd244a5e8aa4e537bd38aeae4b073aa335b6040516001600160a01b03909116815260200160405180910390a1565b600054610100900460ff16611d885760405162461bcd60e51b81526004016104c290612e61565b61083261211c565b600054610100900460ff16611db75760405162461bcd60e51b81526004016104c290612e61565b61083261214c565b610802600052609a6020527fae00947ee313780ebd51d12b4f1ecb575ce4eb6b099d8cff17facd5b92da71f054811015611e345760405162461bcd60e51b81526020600482015260166024820152754c657373207468616e204d696e696d756d56616c756560501b60448201526064016104c2565b600073__$ddfb0e6c1c4d05795fcce73a90830b0995$__6332640a52336040516001600160e01b031960e084901b1681526001600160a01b039091166004820152602401602060405180830381865af4158015611e95573d6000803e3d6000fd5b505050506040513d601f19601f82011682018060405250810190611eb99190612d8e565b90506000611ec682611fc3565b60405163b9f813ff60e01b81529091506108049063b9f813ff90611efd9061080290879086906001600160401b0390600401612dc4565b600060405180830381600087803b158015611f1757600080fd5b505af1158015611f2b573d6000803e3d6000fd5b50505050505050565b603380546001600160a01b038381166001600160a01b0319831681179093556040519116919082907f8be0079c531659141344cd1fd0a4f28419497f9722a3daafe3b4186f6b6457e090600090a35050565b611f8e6117e0565b6065805460ff191660011790557f62e78cea01bee320cd4e420270b5ea74000d11b0c9f74754ebdbfc544b05a258611d443390565b60408051808201825260008082526060602083018190528351600280825291810190945291929091816020015b6060815260200190600190039081611ff05790505060995460405160006020820152600160a01b90910460e01b6001600160e01b03191660218201529091506025016040516020818303038152906040528160008151811061205457612054612c41565b6020026020010181905250826040516020016120879190600160f81b815260018101919091526000602182015260220190565b604051602081830303815290604052816001815181106120a9576120a9612c41565b60209081029190910181019190915260408051808201909152600181529081019190915292915050565b60655460ff166108325760405162461bcd60e51b815260206004820152601460248201527314185d5cd8589b194e881b9bdd081c185d5cd95960621b60448201526064016104c2565b600054610100900460ff166121435760405162461bcd60e51b81526004016104c290612e61565b61083233611f34565b600054610100900460ff166121735760405162461bcd60e51b81526004016104c290612e61565b6065805460ff19169055565b8280548282559060005260206000209081019282156121cc579160200282015b828111156121cc57825180516121bc9184916020909101906121dc565b509160200191906001019061219f565b506121d892915061225c565b5090565b8280546121e890612988565b90600052602060002090601f01602090048101928261220a5760008555612250565b82601f1061222357805160ff1916838001178555612250565b82800160010185558215612250579182015b82811115612250578251825591602001919060010190612235565b506121d8929150612279565b808211156121d8576000612270828261228e565b5060010161225c565b5b808211156121d8576000815560010161227a565b50805461229a90612988565b6000825580601f106122aa575050565b601f0160209004906000526020600020908101906117dd9190612279565b80356001600160a01b03811681146122df57600080fd5b919050565b634e487b7160e01b600052604160045260246000fd5b604051601f8201601f191681016001600160401b0381118282101715612322576123226122e4565b604052919050565b60006001600160401b03821115612343576123436122e4565b50601f01601f191660200190565b600061236461235f8461232a565b6122fa565b905082815283838301111561237857600080fd5b828260208301376000602084830101529392505050565b600082601f8301126123a057600080fd5b6123af83833560208501612351565b9392505050565b600080600080608085870312156123cc57600080fd5b6123d5856122c8565b9350602085013592506123ea604086016122c8565b915060608501356001600160401b0381111561240557600080fd5b6124118782880161238f565b91505092959194509250565b803563ffffffff811681146122df57600080fd5b600080600080600060a0868803121561244957600080fd5b612452866122c8565b945060208601359350612467604087016122c8565b925060608601356001600160401b0381111561248257600080fd5b61248e8882890161238f565b92505061249d6080870161241d565b90509295509295909350565b6000806000606084860312156124be57600080fd5b6124c7846122c8565b9250602084013591506124dc604085016122c8565b90509250925092565b80356001600160f01b0319811681146122df57600080fd5b60008060006060848603121561251257600080fd5b61251b846122c8565b9250612529602085016124e5565b9150604084013590509250925092565b80356001600160401b03811681146122df57600080fd5b60006020828403121561256257600080fd5b6123af82612539565b60008060006060848603121561258057600080fd5b612589846122c8565b92506125976020850161241d565b91506124dc604085016124e5565b60008060008060008060c087890312156125be57600080fd5b6125c7876122c8565b955060208701356001600160801b03811681146125e357600080fd5b94506125f160408801612539565b935060608701356001600160401b038082111561260d57600080fd5b818901915089601f83011261262157600080fd5b6126308a833560208501612351565b9450608089013591508082111561264657600080fd5b5061265389828a0161238f565b92505061266260a0880161241d565b90509295509295509295565b6000806040838503121561268157600080fd5b61268a836122c8565b915060208301356001600160401b038111156126a557600080fd5b6126b18582860161238f565b9150509250929050565b6000806000606084860312156126d057600080fd5b6126d9846122c8565b925060208401356001600160401b038111156126f457600080fd5b6127008682870161238f565b9250506124dc6040850161241d565b8035600481106122df57600080fd5b6000806000806080858703121561273457600080fd5b61273d8561270f565b935061274b60208601612539565b925061275960408601612539565b9396929550929360600135925050565b60006020828403121561277b57600080fd5b6123af8261270f565b60006020828403121561279657600080fd5b6123af826122c8565b80151581146117dd57600080fd5b600080600080608085870312156127c357600080fd5b6127cc85612539565b935060208501356127dc8161279f565b925060408501356127ec8161279f565b915060608501356001600160f81b03198116811461280957600080fd5b939692955090935050565b6020808252600f908201526e72656d61726b20746f6f206c6f6e6760881b604082015260600190565b6001600160f81b031992909216825260601b6bffffffffffffffffffffffff1916600182015260150190565b60005b8381101561288457818101518382015260200161286c565b83811115610e3e5750506000910152565b600081518084526128ad816020860160208601612869565b601f01601f19169290920160200192915050565b6001600160a01b03851681526001600160f01b0319841660208201526080604082018190526000906128f590830185612895565b82810360608401526129078185612895565b979650505050505050565b60006020828403121561292457600080fd5b81516001600160401b0381111561293a57600080fd5b8201601f8101841361294b57600080fd5b805161295961235f8261232a565b81815285602083850101111561296e57600080fd5b61297f826020830160208601612869565b95945050505050565b600181811c9082168061299c57607f821691505b602082108114156129bd57634e487b7160e01b600052602260045260246000fd5b50919050565b60c081526000610100820160ff89541660c08401526001808a01604060e086015282815480855261012094508487019150848160051b8801019450600083815260209350838120815b83811015612abf5789880361011f190185528154839080891c89821680612a3457607f821691505b898210811415612a5257634e487b7160e01b87526022600452602487fd5b818c5260208c01818015612a6d5760018114612a7e57612aa8565b60ff19851682528b82019550612aa8565b600088815260209020895b85811015612aa257815484820152908e01908d01612a89565b83019650505b50939b505050958701955050908601908601612a0c565b5050505050612ad88186018b6001600160a01b03169052565b50506001600160401b03871660408401528281036060840152612afb8187612895565b91505083608083015261290760a08301846001600160401b03169052565b6001600160a01b0387811682528681166020830152604082018690528416606082015260c060808201819052600090612b5490830185612895565b82810360a0840152612b668185612895565b9998505050505050505050565b6001600160a01b03861681526001600160f01b03198516602082015260a060408201819052600090612ba790830186612895565b8281036060840152612bb98186612895565b91505063ffffffff831660808301529695505050505050565b6001600160a01b03841681526001600160f01b03198316602082015260606040820181905260009061297f90830184612895565b6001600160a01b0386811682528581166020830152604082018590528316606082015260a06080820181905260009061290790830184612895565b634e487b7160e01b600052603260045260246000fd5b6001600160f81b0319831681528151600090612c7a816001850160208701612869565b919091016001019392505050565b6001600160a01b038916815260208101889052604081018790526001600160f01b0319861660608201526001600160801b038516608082015261010060a08201819052600090612cda83820187612895565b905082810360c0840152612cee8186612895565b91505063ffffffff831660e08301529998505050505050505050565b6001600160a01b03871681526001600160801b03861660208201526001600160401b038516604082015260c060608201819052600090612d4c90830186612895565b8281036080840152612d5e8186612895565b91505063ffffffff831660a0830152979650505050505050565b634e487b7160e01b600052602160045260246000fd5b600060208284031215612da057600080fd5b5051919050565b600060208284031215612db957600080fd5b81516123af8161279f565b60018060a01b03851681526000602085818401526080604084015260c0830160ff865116608085015281860151604060a086015281815180845260e08701915060e08160051b8801019350848301925060005b81811015612e455760df19888603018352612e33858551612895565b94509285019291850191600101612e17565b5050506001600160401b038616606086015250915061297f9050565b6020808252602b908201527f496e697469616c697a61626c653a20636f6e7472616374206973206e6f74206960408201526a6e697469616c697a696e6760a81b60608201526080019056feca31869d7c65b3930a575eef33c6f69db06b0f1168af96408c4fceca8de0fadca26469706673582212206b2492d421223063ea4ecca794bec661dd718151bf8f4f8247a2ef7c5c5d4d8e64736f6c634300080a0033",
  "libraries": {
    "AddressToAccount": "0x7746ef546d562b443AE4B4145541a3b1a3D75717",
    "BuildCallData": "0xB922dc02C04a12AE59336140824641E29dac2860"
  },
  "devdoc": {
    "kind": "dev",
    "methods": {
      "create_order(address,uint128,uint64,bytes,string,uint32)": {
        "details": "Create order to mint vAsset or redeem vAsset on bifrost chain",
        "params": {
          "amount": "The amount of the asset to mint or redeem",
          "assetAddress": "The address of the asset to mint or redeem",
          "channel_id": "The channel id of the order, you can set it. Bifrost chain will use it to share reward.*",
          "dest_chain_id": "When order is executed, Asset/vAsset will be transferred to this chain",
          "receiver": "The receiver address on the destination chain, 20 bytes for EVM, 32 bytes for Substrate",
          "remark": "The remark of the order, less than 32 bytes. For example, \"OmniLS\""
        }
      },
      "owner()": {
        "details": "Returns the address of the current owner."
      },
      "paused()": {
        "details": "Returns true if the contract is paused, and false otherwise."
      },
      "renounceOwnership()": {
        "details": "Leaves the contract without owner. It will not be possible to call `onlyOwner` functions. Can only be called by the current owner. NOTE: Renouncing ownership will leave the contract without an owner, thereby disabling any functionality that is only available to the owner."
      },
      "transferOwnership(address)": {
        "details": "Transfers ownership of the contract to a new account (`newOwner`). Can only be called by the current owner."
      }
    },
    "version": 1
  },
  "userdoc": {
    "kind": "user",
    "methods": {
      "mintVAsset(address,uint256,address,string)": {
        "notice": "Minted vAssets"
      },
      "mintVAssetWithChannelId(address,uint256,address,string,uint32)": {
        "notice": "Minted vAssets"
      },
      "mintVNativeAsset(address,string)": {
        "notice": "Minted vNative assets such as vASTR, vGLMR, vMOVR"
      },
      "mintVNativeAssetWithChannelId(address,string,uint32)": {
        "notice": "Minted vNative assets such as vASTR, vGLMR, vMOVR"
      },
      "redeemAsset(address,uint256,address)": {
        "notice": "Redeem assets"
      }
    },
    "version": 1
  },
  "storageLayout": {
    "storage": [
      {
        "astId": 139,
        "contract": "contracts/MoonbeamSlpx.sol:MoonbeamSlpx",
        "label": "_initialized",
        "offset": 0,
        "slot": "0",
        "type": "t_uint8"
      },
      {
        "astId": 142,
        "contract": "contracts/MoonbeamSlpx.sol:MoonbeamSlpx",
        "label": "_initializing",
        "offset": 1,
        "slot": "0",
        "type": "t_bool"
      },
      {
        "astId": 809,
        "contract": "contracts/MoonbeamSlpx.sol:MoonbeamSlpx",
        "label": "__gap",
        "offset": 0,
        "slot": "1",
        "type": "t_array(t_uint256)50_storage"
      },
      {
        "astId": 11,
        "contract": "contracts/MoonbeamSlpx.sol:MoonbeamSlpx",
        "label": "_owner",
        "offset": 0,
        "slot": "51",
        "type": "t_address"
      },
      {
        "astId": 131,
        "contract": "contracts/MoonbeamSlpx.sol:MoonbeamSlpx",
        "label": "__gap",
        "offset": 0,
        "slot": "52",
        "type": "t_array(t_uint256)49_storage"
      },
      {
        "astId": 323,
        "contract": "contracts/MoonbeamSlpx.sol:MoonbeamSlpx",
        "label": "_paused",
        "offset": 0,
        "slot": "101",
        "type": "t_bool"
      },
      {
        "astId": 428,
        "contract": "contracts/MoonbeamSlpx.sol:MoonbeamSlpx",
        "label": "__gap",
        "offset": 0,
        "slot": "102",
        "type": "t_array(t_uint256)49_storage"
      },
      {
        "astId": 2390,
        "contract": "contracts/MoonbeamSlpx.sol:MoonbeamSlpx",
        "label": "xcmTransactorDestination",
        "offset": 0,
        "slot": "151",
        "type": "t_struct(Multilocation)4116_storage"
      },
      {
        "astId": 2392,
        "contract": "contracts/MoonbeamSlpx.sol:MoonbeamSlpx",
        "label": "BNCAddress",
        "offset": 0,
        "slot": "153",
        "type": "t_address"
      },
      {
        "astId": 2394,
        "contract": "contracts/MoonbeamSlpx.sol:MoonbeamSlpx",
        "label": "bifrostParaId",
        "offset": 20,
        "slot": "153",
        "type": "t_uint32"
      },
      {
        "astId": 2416,
        "contract": "contracts/MoonbeamSlpx.sol:MoonbeamSlpx",
        "label": "addressToAssetInfo",
        "offset": 0,
        "slot": "154",
        "type": "t_mapping(t_address,t_struct(AssetInfo)2404_storage)"
      },
      {
        "astId": 2422,
        "contract": "contracts/MoonbeamSlpx.sol:MoonbeamSlpx",
        "label": "operationToFeeInfo",
        "offset": 0,
        "slot": "155",
        "type": "t_mapping(t_enum(Operation)2399,t_struct(FeeInfo)2411_storage)"
      },
      {
        "astId": 2434,
        "contract": "contracts/MoonbeamSlpx.sol:MoonbeamSlpx",
        "label": "destChainInfo",
        "offset": 0,
        "slot": "156",
        "type": "t_mapping(t_uint64,t_struct(DestChainInfo)2429_storage)"
      }
    ],
    "types": {
      "t_address": {
        "encoding": "inplace",
        "label": "address",
        "numberOfBytes": "20"
      },
      "t_array(t_bytes_storage)dyn_storage": {
        "base": "t_bytes_storage",
        "encoding": "dynamic_array",
        "label": "bytes[]",
        "numberOfBytes": "32"
      },
      "t_array(t_uint256)49_storage": {
        "base": "t_uint256",
        "encoding": "inplace",
        "label": "uint256[49]",
        "numberOfBytes": "1568"
      },
      "t_array(t_uint256)50_storage": {
        "base": "t_uint256",
        "encoding": "inplace",
        "label": "uint256[50]",
        "numberOfBytes": "1600"
      },
      "t_bool": {
        "encoding": "inplace",
        "label": "bool",
        "numberOfBytes": "1"
      },
      "t_bytes1": {
        "encoding": "inplace",
        "label": "bytes1",
        "numberOfBytes": "1"
      },
      "t_bytes2": {
        "encoding": "inplace",
        "label": "bytes2",
        "numberOfBytes": "2"
      },
      "t_bytes_storage": {
        "encoding": "bytes",
        "label": "bytes",
        "numberOfBytes": "32"
      },
      "t_enum(Operation)2399": {
        "encoding": "inplace",
        "label": "enum MoonbeamSlpx.Operation",
        "numberOfBytes": "1"
      },
      "t_mapping(t_address,t_struct(AssetInfo)2404_storage)": {
        "encoding": "mapping",
        "key": "t_address",
        "label": "mapping(address => struct MoonbeamSlpx.AssetInfo)",
        "numberOfBytes": "32",
        "value": "t_struct(AssetInfo)2404_storage"
      },
      "t_mapping(t_enum(Operation)2399,t_struct(FeeInfo)2411_storage)": {
        "encoding": "mapping",
        "key": "t_enum(Operation)2399",
        "label": "mapping(enum MoonbeamSlpx.Operation => struct MoonbeamSlpx.FeeInfo)",
        "numberOfBytes": "32",
        "value": "t_struct(FeeInfo)2411_storage"
      },
      "t_mapping(t_uint64,t_struct(DestChainInfo)2429_storage)": {
        "encoding": "mapping",
        "key": "t_uint64",
        "label": "mapping(uint64 => struct MoonbeamSlpx.DestChainInfo)",
        "numberOfBytes": "32",
        "value": "t_struct(DestChainInfo)2429_storage"
      },
      "t_struct(AssetInfo)2404_storage": {
        "encoding": "inplace",
        "label": "struct MoonbeamSlpx.AssetInfo",
        "members": [
          {
            "astId": 2401,
            "contract": "contracts/MoonbeamSlpx.sol:MoonbeamSlpx",
            "label": "currencyId",
            "offset": 0,
            "slot": "0",
            "type": "t_bytes2"
          },
          {
            "astId": 2403,
            "contract": "contracts/MoonbeamSlpx.sol:MoonbeamSlpx",
            "label": "operationalMin",
            "offset": 0,
            "slot": "1",
            "type": "t_uint256"
          }
        ],
        "numberOfBytes": "64"
      },
      "t_struct(DestChainInfo)2429_storage": {
        "encoding": "inplace",
        "label": "struct MoonbeamSlpx.DestChainInfo",
        "members": [
          {
            "astId": 2424,
            "contract": "contracts/MoonbeamSlpx.sol:MoonbeamSlpx",
            "label": "is_evm",
            "offset": 0,
            "slot": "0",
            "type": "t_bool"
          },
          {
            "astId": 2426,
            "contract": "contracts/MoonbeamSlpx.sol:MoonbeamSlpx",
            "label": "is_substrate",
            "offset": 1,
            "slot": "0",
            "type": "t_bool"
          },
          {
            "astId": 2428,
            "contract": "contracts/MoonbeamSlpx.sol:MoonbeamSlpx",
            "label": "raw_chain_index",
            "offset": 2,
            "slot": "0",
            "type": "t_bytes1"
          }
        ],
        "numberOfBytes": "32"
      },
      "t_struct(FeeInfo)2411_storage": {
        "encoding": "inplace",
        "label": "struct MoonbeamSlpx.FeeInfo",
        "members": [
          {
            "astId": 2406,
            "contract": "contracts/MoonbeamSlpx.sol:MoonbeamSlpx",
            "label": "transactRequiredWeightAtMost",
            "offset": 0,
            "slot": "0",
            "type": "t_uint64"
          },
          {
            "astId": 2408,
            "contract": "contracts/MoonbeamSlpx.sol:MoonbeamSlpx",
            "label": "feeAmount",
            "offset": 0,
            "slot": "1",
            "type": "t_uint256"
          },
          {
            "astId": 2410,
            "contract": "contracts/MoonbeamSlpx.sol:MoonbeamSlpx",
            "label": "overallWeight",
            "offset": 0,
            "slot": "2",
            "type": "t_uint64"
          }
        ],
        "numberOfBytes": "96"
      },
      "t_struct(Multilocation)4116_storage": {
        "encoding": "inplace",
        "label": "struct XcmTransactorV2.Multilocation",
        "members": [
          {
            "astId": 4112,
            "contract": "contracts/MoonbeamSlpx.sol:MoonbeamSlpx",
            "label": "parents",
            "offset": 0,
            "slot": "0",
            "type": "t_uint8"
          },
          {
            "astId": 4115,
            "contract": "contracts/MoonbeamSlpx.sol:MoonbeamSlpx",
            "label": "interior",
            "offset": 0,
            "slot": "1",
            "type": "t_array(t_bytes_storage)dyn_storage"
          }
        ],
        "numberOfBytes": "64"
      },
      "t_uint256": {
        "encoding": "inplace",
        "label": "uint256",
        "numberOfBytes": "32"
      },
      "t_uint32": {
        "encoding": "inplace",
        "label": "uint32",
        "numberOfBytes": "4"
      },
      "t_uint64": {
        "encoding": "inplace",
        "label": "uint64",
        "numberOfBytes": "8"
      },
      "t_uint8": {
        "encoding": "inplace",
        "label": "uint8",
        "numberOfBytes": "1"
      }
    }
  }
}