{
  "address": "0x6F8895a9270f81D0a0838644A57F639eB49f02Ca",
  "abi": [
    {
      "inputs": [
        {
          "internalType": "address",
          "name": "_astarZkSlpx",
          "type": "address"
        }
      ],
      "stateMutability": "nonpayable",
      "type": "constructor"
    },
    {
      "anonymous": false,
      "inputs": [
        {
          "indexed": false,
          "internalType": "address",
          "name": "caller",
          "type": "address"
        },
        {
          "indexed": false,
          "internalType": "address",
          "name": "derivativeAddress",
          "type": "address"
        },
        {
          "indexed": false,
          "internalType": "uint256",
          "name": "amount",
          "type": "uint256"
        }
      ],
      "name": "Mint",
      "type": "event"
    },
    {
      "anonymous": false,
      "inputs": [
        {
          "indexed": true,
          "internalType": "address",
          "name": "previousOwner",
          "type": "address"
        },
        {
          "indexed": true,
          "internalType": "address",
          "name": "newOwner",
          "type": "address"
        }
      ],
      "name": "OwnershipTransferred",
      "type": "event"
    },
    {
      "anonymous": false,
      "inputs": [
        {
          "indexed": false,
          "internalType": "address",
          "name": "caller",
          "type": "address"
        },
        {
          "indexed": false,
          "internalType": "address",
          "name": "derivativeAddress",
          "type": "address"
        },
        {
          "indexed": false,
          "internalType": "uint256",
          "name": "amount",
          "type": "uint256"
        }
      ],
      "name": "Redeem",
      "type": "event"
    },
    {
      "inputs": [],
      "name": "BNC",
      "outputs": [
        {
          "internalType": "address",
          "name": "",
          "type": "address"
        }
      ],
      "stateMutability": "view",
      "type": "function"
    },
    {
      "inputs": [],
      "name": "VASTR",
      "outputs": [
        {
          "internalType": "address",
          "name": "",
          "type": "address"
        }
      ],
      "stateMutability": "view",
      "type": "function"
    },
    {
      "inputs": [],
      "name": "astarSlpx",
      "outputs": [
        {
          "internalType": "address",
          "name": "",
          "type": "address"
        }
      ],
      "stateMutability": "view",
      "type": "function"
    },
    {
      "inputs": [],
      "name": "astarZkSlpx",
      "outputs": [
        {
          "internalType": "address",
          "name": "",
          "type": "address"
        }
      ],
      "stateMutability": "view",
      "type": "function"
    },
    {
      "inputs": [],
      "name": "astrNativeOFT",
      "outputs": [
        {
          "internalType": "address",
          "name": "",
          "type": "address"
        }
      ],
      "stateMutability": "view",
      "type": "function"
    },
    {
      "inputs": [
        {
          "internalType": "address",
          "name": "addr",
          "type": "address"
        },
        {
          "internalType": "uint256",
          "name": "_amount",
          "type": "uint256"
        },
        {
          "internalType": "uint256",
          "name": "_minAmount",
          "type": "uint256"
        },
        {
          "internalType": "bytes",
          "name": "_adapterParams",
          "type": "bytes"
        }
      ],
      "name": "claimAstr",
      "outputs": [],
      "stateMutability": "payable",
      "type": "function"
    },
    {
      "inputs": [
        {
          "internalType": "address",
          "name": "addr",
          "type": "address"
        },
        {
          "internalType": "bytes",
          "name": "_adapterParams",
          "type": "bytes"
        }
      ],
      "name": "claimVAstr",
      "outputs": [],
      "stateMutability": "payable",
      "type": "function"
    },
    {
      "inputs": [
        {
          "internalType": "address",
          "name": "",
          "type": "address"
        }
      ],
      "name": "derivativeAddress",
      "outputs": [
        {
          "internalType": "address",
          "name": "",
          "type": "address"
        }
      ],
      "stateMutability": "view",
      "type": "function"
    },
    {
      "inputs": [],
      "name": "destChainId",
      "outputs": [
        {
          "internalType": "uint16",
          "name": "",
          "type": "uint16"
        }
      ],
      "stateMutability": "view",
      "type": "function"
    },
    {
      "inputs": [
        {
          "internalType": "uint16",
          "name": "",
          "type": "uint16"
        },
        {
          "internalType": "bytes",
          "name": "",
          "type": "bytes"
        },
        {
          "internalType": "uint64",
          "name": "",
          "type": "uint64"
        },
        {
          "internalType": "bytes32",
          "name": "_from",
          "type": "bytes32"
        },
        {
          "internalType": "uint256",
          "name": "_amount",
          "type": "uint256"
        },
        {
          "internalType": "bytes",
          "name": "_payload",
          "type": "bytes"
        }
      ],
      "name": "onOFTReceived",
      "outputs": [],
      "stateMutability": "nonpayable",
      "type": "function"
    },
    {
      "inputs": [],
      "name": "owner",
      "outputs": [
        {
          "internalType": "address",
          "name": "",
          "type": "address"
        }
      ],
      "stateMutability": "view",
      "type": "function"
    },
    {
      "inputs": [],
      "name": "polkadotXcm",
      "outputs": [
        {
          "internalType": "address",
          "name": "",
          "type": "address"
        }
      ],
      "stateMutability": "view",
      "type": "function"
    },
    {
      "inputs": [],
      "name": "renounceOwnership",
      "outputs": [],
      "stateMutability": "nonpayable",
      "type": "function"
    },
    {
      "inputs": [
        {
          "internalType": "address",
          "name": "newOwner",
          "type": "address"
        }
      ],
      "name": "transferOwnership",
      "outputs": [],
      "stateMutability": "nonpayable",
      "type": "function"
    },
    {
      "inputs": [],
      "name": "vAstrProxyOFT",
      "outputs": [
        {
          "internalType": "address",
          "name": "",
          "type": "address"
        }
      ],
      "stateMutability": "view",
      "type": "function"
    },
    {
      "stateMutability": "payable",
      "type": "receive"
    }
  ],
  "transactionHash": "0x8fb27776b0f78ea9a805450ee6cf78dfe2066694f63e7232626426317d57bf34",
  "args": [
    "0x4e1A1FdE10494d714D2620aAF7B27B878458459c"
  ],
  "numDeployments": 1,
  "solcInputHash": "0a121ed68dd3478312a8c69ec9bbeb46",
  "bytecode": "0x6080604052600180546001600160a01b031990811673ffffffff000000000000000100000000000000101790915560028054821673ffffffff00000000000000010000000000000007179055600380548216732fd8bbf5dc8b342c09abf34f211b3488e2d9d69117905560048054821661500417905560058054821673eafaf3eda029a62bcbe8a0c9a4549ef0fed5a4001790556006805490911673f1d4797e51a4640a76769a50b57abe7479add3d8179055600780546109fb60a21b61ffff60a01b199091161790553480156100d557600080fd5b5060405162002133380380620021338339810160408190526100f691610174565b6100ff33610124565b600780546001600160a01b0319166001600160a01b03929092169190911790556101a4565b600080546001600160a01b038381166001600160a01b0319831681178455604051919092169283917f8be0079c531659141344cd1fd0a4f28419497f9722a3daafe3b4186f6b6457e09190a35050565b60006020828403121561018657600080fd5b81516001600160a01b038116811461019d57600080fd5b9392505050565b611f7f80620001b46000396000f3fe6080604052600436106100ec5760003560e01c80638da5cb5b1161008a578063c4af1c0b11610059578063c4af1c0b14610266578063c95b6f0e1461029b578063f29588c7146102bb578063f2fde38b146102db57600080fd5b80638da5cb5b146101d25780639641e45e146101f0578063a852ffb614610210578063aae9ecff1461024657600080fd5b8063552a530e116100c6578063552a530e1461016a578063715018a61461018a5780637fcf35da1461019f5780638890f1ce146101bf57600080fd5b806319cd0839146100f85780632991e4e61461013557806352b814b61461015557600080fd5b366100f357005b600080fd5b34801561010457600080fd5b50600554610118906001600160a01b031681565b6040516001600160a01b0390911681526020015b60405180910390f35b34801561014157600080fd5b50600154610118906001600160a01b031681565b610168610163366004611346565b6102fb565b005b34801561017657600080fd5b50600754610118906001600160a01b031681565b34801561019657600080fd5b506101686104e2565b3480156101ab57600080fd5b506101686101ba3660046113b1565b6104f6565b6101686101cd366004611462565b6106e5565b3480156101de57600080fd5b506000546001600160a01b0316610118565b3480156101fc57600080fd5b50600354610118906001600160a01b031681565b34801561021c57600080fd5b5061011861022b3660046114cc565b6008602052600090815260409020546001600160a01b031681565b34801561025257600080fd5b50600454610118906001600160a01b031681565b34801561027257600080fd5b5060075461028890600160a01b900461ffff1681565b60405161ffff909116815260200161012c565b3480156102a757600080fd5b50600654610118906001600160a01b031681565b3480156102c757600080fd5b50600254610118906001600160a01b031681565b3480156102e757600080fd5b506101686102f63660046114cc565b610857565b6001600160a01b03808416600090815260086020908152604080832054815163e2fda99b60e01b815291519394169263e2fda99b92600480840193919291829003018187875af1158015610353573d6000803e3d6000fd5b505050506040513d601f19601f8201168201806040525081019061037791906114f0565b60015460065460405163095ea7b360e01b81526001600160a01b03918216600482015260248101849052929350169063095ea7b3906044016020604051808303816000875af11580156103ce573d6000803e3d6000fd5b505050506040513d601f19601f820116820180604052508101906103f29190611509565b50600060405180606001604052806104073390565b6001600160a01b0316815260200160006001600160a01b0316815260200185858080601f016020809104026020016040519081016040528093929190818152602001838380828437600092019190915250505091525060065460075460405163695ef6bf60e01b81529293506001600160a01b039182169263695ef6bf9234926104a9923092600160a01b90920461ffff16918c1690899089906004016115c4565b6000604051808303818588803b1580156104c257600080fd5b505af11580156104d6573d6000803e3d6000fd5b50505050505050505050565b6104ea6108d0565b6104f4600061092a565b565b6005546001600160a01b0316336001600160a01b0316148061052b57506006546001600160a01b0316336001600160a01b0316145b61057c5760405162461bcd60e51b815260206004820152601860248201527f6f6e6c79206e6174697665206f66742063616e2063616c6c000000000000000060448201526064015b60405180910390fd5b6007546001600160a01b038581169116146105e35760405162461bcd60e51b815260206004820152602160248201527f6f6e6c792072656365697665206d73672066726f6d2061737461725a6b536c706044820152600f60fb1b6064820152608401610573565b6000806105f283850185611606565b6001600160a01b0380831660009081526008602052604090205492945090925016610620576106208261097a565b60ff81166106b257600554604051632e1a7d4d60e01b8152600481018790526001600160a01b0390911690632e1a7d4d90602401600060405180830381600087803b15801561066e57600080fd5b505af1158015610682573d6000803e3d6000fd5b5050506001600160a01b038084166000908152600860205260409020546106ad925084911687610a12565b6104d6565b8060ff16600114156104d6576001600160a01b038083166000908152600860205260409020546104d69184911687610d27565b6001600160a01b03858116600090815260086020526040908190205490516303b4814560e21b815260048101879052911690630ed2051490602401600060405180830381600087803b15801561073a57600080fd5b505af115801561074e573d6000803e3d6000fd5b50505050600060405180606001604052806107663390565b6001600160a01b0316815260200160006001600160a01b0316815260200184848080601f01602080910402602001604051908101604052809392919081815260200183838082843760009201919091525050509152506005549091506001600160a01b0316632cdf0b956107da3488611645565b60075460405160e084901b6001600160e01b031916815261081d913091600160a01b90910461ffff16906001600160a01b038d16908c908c908a9060040161166b565b6000604051808303818588803b15801561083657600080fd5b505af115801561084a573d6000803e3d6000fd5b5050505050505050505050565b61085f6108d0565b6001600160a01b0381166108c45760405162461bcd60e51b815260206004820152602660248201527f4f776e61626c653a206e6577206f776e657220697320746865207a65726f206160448201526564647265737360d01b6064820152608401610573565b6108cd8161092a565b50565b6000546001600160a01b031633146104f45760405162461bcd60e51b815260206004820181905260248201527f4f776e61626c653a2063616c6c6572206973206e6f7420746865206f776e65726044820152606401610573565b600080546001600160a01b038381166001600160a01b0319831681178455604051919092169283917f8be0079c531659141344cd1fd0a4f28419497f9722a3daafe3b4186f6b6457e09190a35050565b60006040518060200161098c906112db565b601f1982820381018352601f9091011660408190529091506001600160a01b038316906000906109c290849084906020016116b4565b60405160208183030381529060405290506000828251602084016000f56001600160a01b03958616600090815260086020526040902080546001600160a01b031916919096161790945550505050565b6001600160a01b038316610a685760405162461bcd60e51b815260206004820152601960248201527f4d696e743a205f66726f6d20213d2061646472657373283029000000000000006044820152606401610573565b6001600160a01b038216610abe5760405162461bcd60e51b815260206004820152601760248201527f4d696e743a205f746f20213d20616464726573732830290000000000000000006044820152606401610573565b80610b005760405162461bcd60e51b815260206004820152601260248201527104d696e743a205f616d6f756e7420213d20360741b6044820152606401610573565b610b0a8382610f13565b604051600090610b2090829085906020016116d6565b60408051601f198184030181529082905263b921552760e01b8252915060009073051713fD66845a13BF23BACa008C5C22C27Ccb589063b921552790610b7390889061080360f01b908790600401611702565b600060405180830381865af4158015610b90573d6000803e3d6000fd5b505050506040513d6000823e601f3d908101601f19168201604052610bb8919081019061177a565b600354604051635eef7b0d60e11b815291925060009182916001600160a01b03169063bddef61a90610bee90849060040161181c565b6040805180830381865afa158015610c0a573d6000803e3d6000fd5b505050506040513d601f19601f82011682018060405250810190610c2e9190611844565b60048054600254604051637c87590960e11b81529496509294506001600160a01b039081169363f90eb21293610c74936107ee9360009392169188918b918b9101611872565b6020604051808303816000875af1158015610c93573d6000803e3d6000fd5b505050506040513d601f19601f82011682018060405250810190610cb79190611509565b610cd35760405162461bcd60e51b8152600401610573906118c4565b604080516001600160a01b03808a168252881660208201529081018690527fab8530f87dc9b59234c4623bf917212bb2536d647574c8e7e5da92c2ede0c9f89060600160405180910390a150505050505050565b6001600160a01b038316610d7d5760405162461bcd60e51b815260206004820152601b60248201527f52656465656d3a205f66726f6d20213d206164647265737328302900000000006044820152606401610573565b6001600160a01b038216610dd35760405162461bcd60e51b815260206004820152601960248201527f52656465656d3a205f746f20213d2061646472657373283029000000000000006044820152606401610573565b80610e175760405162461bcd60e51b8152602060048201526014602482015273052656465656d3a205f616d6f756e7420213d20360641b6044820152606401610573565b600154610e2e906001600160a01b031684836110d1565b604051600090610e4490829085906020016116d6565b60408051601f1981840301815290829052639f00478360e01b8252915060009073051713fD66845a13BF23BACa008C5C22C27Ccb5890639f00478390610e9790889061090360f01b9087906004016118f0565b600060405180830381865af4158015610eb4573d6000803e3d6000fd5b505050506040513d6000823e601f3d908101601f19168201604052610edc919081019061177a565b600354604051635eef7b0d60e11b815291925060009182916001600160a01b03169063bddef61a90610bee9060019060040161181c565b604051631932052960e11b81526001600160a01b0383166004820152600090734238Ea4AdFa2bD6a5fC9B5E245dc1900cF0258aa906332640a5290602401602060405180830381865af4158015610f6e573d6000803e3d6000fd5b505050506040513d601f19601f82011682018060405250810190610f9291906114f0565b60408051600180825281830190925291925060009190602080830190803683375050604080516001808252818301909252929350600092915060208083019080368337019050509050600082600081518110610ff057610ff061192d565b60200260200101906001600160a01b031690816001600160a01b03168152505083816000815181106110245761102461192d565b60209081029190910101526004805460405163400c0e8d60e01b81526001600160a01b039091169163400c0e8d9161106b918691869189916000916107ee91839101611943565b6020604051808303816000875af115801561108a573d6000803e3d6000fd5b505050506040513d601f19601f820116820180604052508101906110ae9190611509565b6110ca5760405162461bcd60e51b8152600401610573906118c4565b5050505050565b6001600160a01b03831661111e5760405162461bcd60e51b8152602060048201526014602482015273496e76616c69642061737365744164647265737360601b6044820152606401610573565b604051631932052960e11b81526001600160a01b0383166004820152600090734238Ea4AdFa2bD6a5fC9B5E245dc1900cF0258aa906332640a5290602401602060405180830381865af4158015611179573d6000803e3d6000fd5b505050506040513d601f19601f8201168201806040525081019061119d91906114f0565b6040805160018082528183019092529192506000919060208083019080368337505060408051600180825281830190925292935060009291506020808301908036833701905050905085826000815181106111fa576111fa61192d565b60200260200101906001600160a01b031690816001600160a01b031681525050838160008151811061122e5761122e61192d565b6020908102919091010152600480546040516219054d60e41b81526001600160a01b039091169163019054d091611274918691869189916000916107ee91839101611943565b6020604051808303816000875af1158015611293573d6000803e3d6000fd5b505050506040513d601f19601f820116820180604052508101906112b79190611509565b6112d35760405162461bcd60e51b8152600401610573906118c4565b505050505050565b610560806119ea83390190565b6001600160a01b03811681146108cd57600080fd5b60008083601f84011261130f57600080fd5b50813567ffffffffffffffff81111561132757600080fd5b60208301915083602082850101111561133f57600080fd5b9250929050565b60008060006040848603121561135b57600080fd5b8335611366816112e8565b9250602084013567ffffffffffffffff81111561138257600080fd5b61138e868287016112fd565b9497909650939450505050565b67ffffffffffffffff811681146108cd57600080fd5b60008060008060008060008060c0898b0312156113cd57600080fd5b883561ffff811681146113df57600080fd5b9750602089013567ffffffffffffffff808211156113fc57600080fd5b6114088c838d016112fd565b909950975060408b0135915061141d8261139b565b90955060608a0135945060808a0135935060a08a0135908082111561144157600080fd5b5061144e8b828c016112fd565b999c989b5096995094979396929594505050565b60008060008060006080868803121561147a57600080fd5b8535611485816112e8565b94506020860135935060408601359250606086013567ffffffffffffffff8111156114af57600080fd5b6114bb888289016112fd565b969995985093965092949392505050565b6000602082840312156114de57600080fd5b81356114e9816112e8565b9392505050565b60006020828403121561150257600080fd5b5051919050565b60006020828403121561151b57600080fd5b815180151581146114e957600080fd5b60005b8381101561154657818101518382015260200161152e565b83811115611555576000848401525b50505050565b6000815180845261157381602086016020860161152b565b601f01601f19169290920160200192915050565b600060018060a01b03808351168452806020840151166020850152506040820151606060408501526115bc606085018261155b565b949350505050565b60018060a01b038616815261ffff8516602082015283604082015282606082015260a0608082015260006115fb60a0830184611587565b979650505050505050565b6000806040838503121561161957600080fd5b8235611624816112e8565b9150602083013560ff8116811461163a57600080fd5b809150509250929050565b6000821982111561166657634e487b7160e01b600052601160045260246000fd5b500190565b60018060a01b038716815261ffff8616602082015284604082015283606082015282608082015260c060a082015260006116a860c0830184611587565b98975050505050505050565b600083516116c681846020880161152b565b9190910191825250602001919050565b6001600160f81b031992909216825260601b6bffffffffffffffffffffffff1916600182015260150190565b6001600160a01b03841681526001600160f01b0319831660208201526080604082018190526000906117369083018461155b565b8281036060840152600a81526941737461725a6b45766d60b01b602082015260408101915050949350505050565b634e487b7160e01b600052604160045260246000fd5b60006020828403121561178c57600080fd5b815167ffffffffffffffff808211156117a457600080fd5b818401915084601f8301126117b857600080fd5b8151818111156117ca576117ca611764565b604051601f8201601f19908116603f011681019083821181831017156117f2576117f2611764565b8160405282815287602084870101111561180b57600080fd5b6115fb83602083016020880161152b565b602081016004831061183e57634e487b7160e01b600052602160045260246000fd5b91905290565b6000806040838503121561185757600080fd5b82516118628161139b565b6020939093015192949293505050565b868152851515602082015260018060a01b038516604082015283606082015260c0608082015260006118a760c083018561155b565b905067ffffffffffffffff831660a0830152979650505050505050565b6020808252601290820152714661696c656420746f2073656e642078636d60701b604082015260600190565b6001600160a01b03841681526001600160f01b0319831660208201526060604082018190526000906119249083018461155b565b95945050505050565b634e487b7160e01b600052603260045260246000fd5b60c0808252875190820181905260009060209060e0840190828b01845b828110156119855781516001600160a01b031684529284019290840190600101611960565b5050508381038285015288518082528983019183019060005b818110156119ba5783518352928401929184019160010161199e565b505060408501899052871515606086015292506119d5915050565b608082019390935260a0015294935050505056fe6080604052600280546001600160a01b03191673ffffffff0000000000000001000000000000001017905534801561003657600080fd5b506001600081905580546001600160a01b031916331790556105038061005d6000396000f3fe60806040526004361061004e5760003560e01c80630ed205141461005a5780632991e4e61461007c578063722713f7146100b95780638458d2e7146100dc578063e2fda99b146100fc57600080fd5b3661005557005b600080fd5b34801561006657600080fd5b5061007a610075366004610430565b610111565b005b34801561008857600080fd5b5060025461009c906001600160a01b031681565b6040516001600160a01b0390911681526020015b60405180910390f35b3480156100c557600080fd5b506100ce61024e565b6040519081526020016100b0565b3480156100e857600080fd5b5060015461009c906001600160a01b031681565b34801561010857600080fd5b506100ce6102c0565b6101196103d6565b6001546001600160a01b031633146101785760405162461bcd60e51b815260206004820152601d60248201527f44657269766174697665436f6e74726163743a20666f7262696464656e00000060448201526064015b60405180910390fd5b806101955760405162461bcd60e51b815260040161016f90610449565b604051600090339083908381818185875af1925050503d80600081146101d7576040519150601f19603f3d011682016040523d82523d6000602084013e6101dc565b606091505b50509050806102405760405162461bcd60e51b815260206004820152602a60248201527f44657269766174697665436f6e74726163743a206661696c656420746f2077696044820152693a34323930bba0b9ba3960b11b606482015260840161016f565b5061024b6001600055565b50565b6002546040516370a0823160e01b81523060048201526000916001600160a01b0316906370a0823190602401602060405180830381865afa158015610297573d6000803e3d6000fd5b505050506040513d601f19601f820116820180604052508101906102bb919061048b565b905090565b60006102ca6103d6565b6001546001600160a01b031633146103245760405162461bcd60e51b815260206004820152601d60248201527f44657269766174697665436f6e74726163743a20666f7262696464656e000000604482015260640161016f565b600061032e61024e565b90508061034d5760405162461bcd60e51b815260040161016f90610449565b60025460015460405163a9059cbb60e01b81526001600160a01b0391821660048201526024810184905291169063a9059cbb906044016020604051808303816000875af11580156103a2573d6000803e3d6000fd5b505050506040513d601f19601f820116820180604052508101906103c691906104a4565b5090506103d36001600055565b90565b600260005414156104295760405162461bcd60e51b815260206004820152601f60248201527f5265656e7472616e637947756172643a207265656e7472616e742063616c6c00604482015260640161016f565b6002600055565b60006020828403121561044257600080fd5b5035919050565b60208082526022908201527f44657269766174697665436f6e74726163743a2062616c616e636520746f206c6040820152616f7760f01b606082015260800190565b60006020828403121561049d57600080fd5b5051919050565b6000602082840312156104b657600080fd5b815180151581146104c657600080fd5b939250505056fea2646970667358221220db101239d811a925d8eb84533d598407f203da45240bb2c20e6668632c5bd62c64736f6c634300080a0033a264697066735822122087bf6482dccf4e877cbe68eafd06814faaccd840d6ef6c36f10469c882903acb64736f6c634300080a0033",
  "deployedBytecode": "0x6080604052600436106100ec5760003560e01c80638da5cb5b1161008a578063c4af1c0b11610059578063c4af1c0b14610266578063c95b6f0e1461029b578063f29588c7146102bb578063f2fde38b146102db57600080fd5b80638da5cb5b146101d25780639641e45e146101f0578063a852ffb614610210578063aae9ecff1461024657600080fd5b8063552a530e116100c6578063552a530e1461016a578063715018a61461018a5780637fcf35da1461019f5780638890f1ce146101bf57600080fd5b806319cd0839146100f85780632991e4e61461013557806352b814b61461015557600080fd5b366100f357005b600080fd5b34801561010457600080fd5b50600554610118906001600160a01b031681565b6040516001600160a01b0390911681526020015b60405180910390f35b34801561014157600080fd5b50600154610118906001600160a01b031681565b610168610163366004611346565b6102fb565b005b34801561017657600080fd5b50600754610118906001600160a01b031681565b34801561019657600080fd5b506101686104e2565b3480156101ab57600080fd5b506101686101ba3660046113b1565b6104f6565b6101686101cd366004611462565b6106e5565b3480156101de57600080fd5b506000546001600160a01b0316610118565b3480156101fc57600080fd5b50600354610118906001600160a01b031681565b34801561021c57600080fd5b5061011861022b3660046114cc565b6008602052600090815260409020546001600160a01b031681565b34801561025257600080fd5b50600454610118906001600160a01b031681565b34801561027257600080fd5b5060075461028890600160a01b900461ffff1681565b60405161ffff909116815260200161012c565b3480156102a757600080fd5b50600654610118906001600160a01b031681565b3480156102c757600080fd5b50600254610118906001600160a01b031681565b3480156102e757600080fd5b506101686102f63660046114cc565b610857565b6001600160a01b03808416600090815260086020908152604080832054815163e2fda99b60e01b815291519394169263e2fda99b92600480840193919291829003018187875af1158015610353573d6000803e3d6000fd5b505050506040513d601f19601f8201168201806040525081019061037791906114f0565b60015460065460405163095ea7b360e01b81526001600160a01b03918216600482015260248101849052929350169063095ea7b3906044016020604051808303816000875af11580156103ce573d6000803e3d6000fd5b505050506040513d601f19601f820116820180604052508101906103f29190611509565b50600060405180606001604052806104073390565b6001600160a01b0316815260200160006001600160a01b0316815260200185858080601f016020809104026020016040519081016040528093929190818152602001838380828437600092019190915250505091525060065460075460405163695ef6bf60e01b81529293506001600160a01b039182169263695ef6bf9234926104a9923092600160a01b90920461ffff16918c1690899089906004016115c4565b6000604051808303818588803b1580156104c257600080fd5b505af11580156104d6573d6000803e3d6000fd5b50505050505050505050565b6104ea6108d0565b6104f4600061092a565b565b6005546001600160a01b0316336001600160a01b0316148061052b57506006546001600160a01b0316336001600160a01b0316145b61057c5760405162461bcd60e51b815260206004820152601860248201527f6f6e6c79206e6174697665206f66742063616e2063616c6c000000000000000060448201526064015b60405180910390fd5b6007546001600160a01b038581169116146105e35760405162461bcd60e51b815260206004820152602160248201527f6f6e6c792072656365697665206d73672066726f6d2061737461725a6b536c706044820152600f60fb1b6064820152608401610573565b6000806105f283850185611606565b6001600160a01b0380831660009081526008602052604090205492945090925016610620576106208261097a565b60ff81166106b257600554604051632e1a7d4d60e01b8152600481018790526001600160a01b0390911690632e1a7d4d90602401600060405180830381600087803b15801561066e57600080fd5b505af1158015610682573d6000803e3d6000fd5b5050506001600160a01b038084166000908152600860205260409020546106ad925084911687610a12565b6104d6565b8060ff16600114156104d6576001600160a01b038083166000908152600860205260409020546104d69184911687610d27565b6001600160a01b03858116600090815260086020526040908190205490516303b4814560e21b815260048101879052911690630ed2051490602401600060405180830381600087803b15801561073a57600080fd5b505af115801561074e573d6000803e3d6000fd5b50505050600060405180606001604052806107663390565b6001600160a01b0316815260200160006001600160a01b0316815260200184848080601f01602080910402602001604051908101604052809392919081815260200183838082843760009201919091525050509152506005549091506001600160a01b0316632cdf0b956107da3488611645565b60075460405160e084901b6001600160e01b031916815261081d913091600160a01b90910461ffff16906001600160a01b038d16908c908c908a9060040161166b565b6000604051808303818588803b15801561083657600080fd5b505af115801561084a573d6000803e3d6000fd5b5050505050505050505050565b61085f6108d0565b6001600160a01b0381166108c45760405162461bcd60e51b815260206004820152602660248201527f4f776e61626c653a206e6577206f776e657220697320746865207a65726f206160448201526564647265737360d01b6064820152608401610573565b6108cd8161092a565b50565b6000546001600160a01b031633146104f45760405162461bcd60e51b815260206004820181905260248201527f4f776e61626c653a2063616c6c6572206973206e6f7420746865206f776e65726044820152606401610573565b600080546001600160a01b038381166001600160a01b0319831681178455604051919092169283917f8be0079c531659141344cd1fd0a4f28419497f9722a3daafe3b4186f6b6457e09190a35050565b60006040518060200161098c906112db565b601f1982820381018352601f9091011660408190529091506001600160a01b038316906000906109c290849084906020016116b4565b60405160208183030381529060405290506000828251602084016000f56001600160a01b03958616600090815260086020526040902080546001600160a01b031916919096161790945550505050565b6001600160a01b038316610a685760405162461bcd60e51b815260206004820152601960248201527f4d696e743a205f66726f6d20213d2061646472657373283029000000000000006044820152606401610573565b6001600160a01b038216610abe5760405162461bcd60e51b815260206004820152601760248201527f4d696e743a205f746f20213d20616464726573732830290000000000000000006044820152606401610573565b80610b005760405162461bcd60e51b815260206004820152601260248201527104d696e743a205f616d6f756e7420213d20360741b6044820152606401610573565b610b0a8382610f13565b604051600090610b2090829085906020016116d6565b60408051601f198184030181529082905263b921552760e01b8252915060009073__$e184f4046250cd750dfdb139628ab13bdc$__9063b921552790610b7390889061080360f01b908790600401611702565b600060405180830381865af4158015610b90573d6000803e3d6000fd5b505050506040513d6000823e601f3d908101601f19168201604052610bb8919081019061177a565b600354604051635eef7b0d60e11b815291925060009182916001600160a01b03169063bddef61a90610bee90849060040161181c565b6040805180830381865afa158015610c0a573d6000803e3d6000fd5b505050506040513d601f19601f82011682018060405250810190610c2e9190611844565b60048054600254604051637c87590960e11b81529496509294506001600160a01b039081169363f90eb21293610c74936107ee9360009392169188918b918b9101611872565b6020604051808303816000875af1158015610c93573d6000803e3d6000fd5b505050506040513d601f19601f82011682018060405250810190610cb79190611509565b610cd35760405162461bcd60e51b8152600401610573906118c4565b604080516001600160a01b03808a168252881660208201529081018690527fab8530f87dc9b59234c4623bf917212bb2536d647574c8e7e5da92c2ede0c9f89060600160405180910390a150505050505050565b6001600160a01b038316610d7d5760405162461bcd60e51b815260206004820152601b60248201527f52656465656d3a205f66726f6d20213d206164647265737328302900000000006044820152606401610573565b6001600160a01b038216610dd35760405162461bcd60e51b815260206004820152601960248201527f52656465656d3a205f746f20213d2061646472657373283029000000000000006044820152606401610573565b80610e175760405162461bcd60e51b8152602060048201526014602482015273052656465656d3a205f616d6f756e7420213d20360641b6044820152606401610573565b600154610e2e906001600160a01b031684836110d1565b604051600090610e4490829085906020016116d6565b60408051601f1981840301815290829052639f00478360e01b8252915060009073__$e184f4046250cd750dfdb139628ab13bdc$__90639f00478390610e9790889061090360f01b9087906004016118f0565b600060405180830381865af4158015610eb4573d6000803e3d6000fd5b505050506040513d6000823e601f3d908101601f19168201604052610edc919081019061177a565b600354604051635eef7b0d60e11b815291925060009182916001600160a01b03169063bddef61a90610bee9060019060040161181c565b604051631932052960e11b81526001600160a01b038316600482015260009073__$ddfb0e6c1c4d05795fcce73a90830b0995$__906332640a5290602401602060405180830381865af4158015610f6e573d6000803e3d6000fd5b505050506040513d601f19601f82011682018060405250810190610f9291906114f0565b60408051600180825281830190925291925060009190602080830190803683375050604080516001808252818301909252929350600092915060208083019080368337019050509050600082600081518110610ff057610ff061192d565b60200260200101906001600160a01b031690816001600160a01b03168152505083816000815181106110245761102461192d565b60209081029190910101526004805460405163400c0e8d60e01b81526001600160a01b039091169163400c0e8d9161106b918691869189916000916107ee91839101611943565b6020604051808303816000875af115801561108a573d6000803e3d6000fd5b505050506040513d601f19601f820116820180604052508101906110ae9190611509565b6110ca5760405162461bcd60e51b8152600401610573906118c4565b5050505050565b6001600160a01b03831661111e5760405162461bcd60e51b8152602060048201526014602482015273496e76616c69642061737365744164647265737360601b6044820152606401610573565b604051631932052960e11b81526001600160a01b038316600482015260009073__$ddfb0e6c1c4d05795fcce73a90830b0995$__906332640a5290602401602060405180830381865af4158015611179573d6000803e3d6000fd5b505050506040513d601f19601f8201168201806040525081019061119d91906114f0565b6040805160018082528183019092529192506000919060208083019080368337505060408051600180825281830190925292935060009291506020808301908036833701905050905085826000815181106111fa576111fa61192d565b60200260200101906001600160a01b031690816001600160a01b031681525050838160008151811061122e5761122e61192d565b6020908102919091010152600480546040516219054d60e41b81526001600160a01b039091169163019054d091611274918691869189916000916107ee91839101611943565b6020604051808303816000875af1158015611293573d6000803e3d6000fd5b505050506040513d601f19601f820116820180604052508101906112b79190611509565b6112d35760405162461bcd60e51b8152600401610573906118c4565b505050505050565b610560806119ea83390190565b6001600160a01b03811681146108cd57600080fd5b60008083601f84011261130f57600080fd5b50813567ffffffffffffffff81111561132757600080fd5b60208301915083602082850101111561133f57600080fd5b9250929050565b60008060006040848603121561135b57600080fd5b8335611366816112e8565b9250602084013567ffffffffffffffff81111561138257600080fd5b61138e868287016112fd565b9497909650939450505050565b67ffffffffffffffff811681146108cd57600080fd5b60008060008060008060008060c0898b0312156113cd57600080fd5b883561ffff811681146113df57600080fd5b9750602089013567ffffffffffffffff808211156113fc57600080fd5b6114088c838d016112fd565b909950975060408b0135915061141d8261139b565b90955060608a0135945060808a0135935060a08a0135908082111561144157600080fd5b5061144e8b828c016112fd565b999c989b5096995094979396929594505050565b60008060008060006080868803121561147a57600080fd5b8535611485816112e8565b94506020860135935060408601359250606086013567ffffffffffffffff8111156114af57600080fd5b6114bb888289016112fd565b969995985093965092949392505050565b6000602082840312156114de57600080fd5b81356114e9816112e8565b9392505050565b60006020828403121561150257600080fd5b5051919050565b60006020828403121561151b57600080fd5b815180151581146114e957600080fd5b60005b8381101561154657818101518382015260200161152e565b83811115611555576000848401525b50505050565b6000815180845261157381602086016020860161152b565b601f01601f19169290920160200192915050565b600060018060a01b03808351168452806020840151166020850152506040820151606060408501526115bc606085018261155b565b949350505050565b60018060a01b038616815261ffff8516602082015283604082015282606082015260a0608082015260006115fb60a0830184611587565b979650505050505050565b6000806040838503121561161957600080fd5b8235611624816112e8565b9150602083013560ff8116811461163a57600080fd5b809150509250929050565b6000821982111561166657634e487b7160e01b600052601160045260246000fd5b500190565b60018060a01b038716815261ffff8616602082015284604082015283606082015282608082015260c060a082015260006116a860c0830184611587565b98975050505050505050565b600083516116c681846020880161152b565b9190910191825250602001919050565b6001600160f81b031992909216825260601b6bffffffffffffffffffffffff1916600182015260150190565b6001600160a01b03841681526001600160f01b0319831660208201526080604082018190526000906117369083018461155b565b8281036060840152600a81526941737461725a6b45766d60b01b602082015260408101915050949350505050565b634e487b7160e01b600052604160045260246000fd5b60006020828403121561178c57600080fd5b815167ffffffffffffffff808211156117a457600080fd5b818401915084601f8301126117b857600080fd5b8151818111156117ca576117ca611764565b604051601f8201601f19908116603f011681019083821181831017156117f2576117f2611764565b8160405282815287602084870101111561180b57600080fd5b6115fb83602083016020880161152b565b602081016004831061183e57634e487b7160e01b600052602160045260246000fd5b91905290565b6000806040838503121561185757600080fd5b82516118628161139b565b6020939093015192949293505050565b868152851515602082015260018060a01b038516604082015283606082015260c0608082015260006118a760c083018561155b565b905067ffffffffffffffff831660a0830152979650505050505050565b6020808252601290820152714661696c656420746f2073656e642078636d60701b604082015260600190565b6001600160a01b03841681526001600160f01b0319831660208201526060604082018190526000906119249083018461155b565b95945050505050565b634e487b7160e01b600052603260045260246000fd5b60c0808252875190820181905260009060209060e0840190828b01845b828110156119855781516001600160a01b031684529284019290840190600101611960565b5050508381038285015288518082528983019183019060005b818110156119ba5783518352928401929184019160010161199e565b505060408501899052871515606086015292506119d5915050565b608082019390935260a0015294935050505056fe6080604052600280546001600160a01b03191673ffffffff0000000000000001000000000000001017905534801561003657600080fd5b506001600081905580546001600160a01b031916331790556105038061005d6000396000f3fe60806040526004361061004e5760003560e01c80630ed205141461005a5780632991e4e61461007c578063722713f7146100b95780638458d2e7146100dc578063e2fda99b146100fc57600080fd5b3661005557005b600080fd5b34801561006657600080fd5b5061007a610075366004610430565b610111565b005b34801561008857600080fd5b5060025461009c906001600160a01b031681565b6040516001600160a01b0390911681526020015b60405180910390f35b3480156100c557600080fd5b506100ce61024e565b6040519081526020016100b0565b3480156100e857600080fd5b5060015461009c906001600160a01b031681565b34801561010857600080fd5b506100ce6102c0565b6101196103d6565b6001546001600160a01b031633146101785760405162461bcd60e51b815260206004820152601d60248201527f44657269766174697665436f6e74726163743a20666f7262696464656e00000060448201526064015b60405180910390fd5b806101955760405162461bcd60e51b815260040161016f90610449565b604051600090339083908381818185875af1925050503d80600081146101d7576040519150601f19603f3d011682016040523d82523d6000602084013e6101dc565b606091505b50509050806102405760405162461bcd60e51b815260206004820152602a60248201527f44657269766174697665436f6e74726163743a206661696c656420746f2077696044820152693a34323930bba0b9ba3960b11b606482015260840161016f565b5061024b6001600055565b50565b6002546040516370a0823160e01b81523060048201526000916001600160a01b0316906370a0823190602401602060405180830381865afa158015610297573d6000803e3d6000fd5b505050506040513d601f19601f820116820180604052508101906102bb919061048b565b905090565b60006102ca6103d6565b6001546001600160a01b031633146103245760405162461bcd60e51b815260206004820152601d60248201527f44657269766174697665436f6e74726163743a20666f7262696464656e000000604482015260640161016f565b600061032e61024e565b90508061034d5760405162461bcd60e51b815260040161016f90610449565b60025460015460405163a9059cbb60e01b81526001600160a01b0391821660048201526024810184905291169063a9059cbb906044016020604051808303816000875af11580156103a2573d6000803e3d6000fd5b505050506040513d601f19601f820116820180604052508101906103c691906104a4565b5090506103d36001600055565b90565b600260005414156104295760405162461bcd60e51b815260206004820152601f60248201527f5265656e7472616e637947756172643a207265656e7472616e742063616c6c00604482015260640161016f565b6002600055565b60006020828403121561044257600080fd5b5035919050565b60208082526022908201527f44657269766174697665436f6e74726163743a2062616c616e636520746f206c6040820152616f7760f01b606082015260800190565b60006020828403121561049d57600080fd5b5051919050565b6000602082840312156104b657600080fd5b815180151581146104c657600080fd5b939250505056fea2646970667358221220db101239d811a925d8eb84533d598407f203da45240bb2c20e6668632c5bd62c64736f6c634300080a0033a264697066735822122087bf6482dccf4e877cbe68eafd06814faaccd840d6ef6c36f10469c882903acb64736f6c634300080a0033",
  "libraries": {
    "AddressToAccount": "0x4238Ea4AdFa2bD6a5fC9B5E245dc1900cF0258aa",
    "BuildCallData": "0x051713fD66845a13BF23BACa008C5C22C27Ccb58"
  },
  "devdoc": {
    "kind": "dev",
    "methods": {
      "owner()": {
        "details": "Returns the address of the current owner."
      },
      "renounceOwnership()": {
        "details": "Leaves the contract without owner. It will not be possible to call `onlyOwner` functions. Can only be called by the current owner. NOTE: Renouncing ownership will leave the contract without an owner, thereby disabling any functionality that is only available to the owner."
      },
      "transferOwnership(address)": {
        "details": "Transfers ownership of the contract to a new account (`newOwner`). Can only be called by the current owner."
      }
    },
    "version": 1
  },
  "userdoc": {
    "kind": "user",
    "methods": {},
    "version": 1
  },
  "storageLayout": {
    "storage": [
      {
        "astId": 818,
        "contract": "contracts/AstarReceiver.sol:AstarReceiver",
        "label": "_owner",
        "offset": 0,
        "slot": "0",
        "type": "t_address"
      },
      {
        "astId": 1143,
        "contract": "contracts/AstarReceiver.sol:AstarReceiver",
        "label": "VASTR",
        "offset": 0,
        "slot": "1",
        "type": "t_address"
      },
      {
        "astId": 1146,
        "contract": "contracts/AstarReceiver.sol:AstarReceiver",
        "label": "BNC",
        "offset": 0,
        "slot": "2",
        "type": "t_address"
      },
      {
        "astId": 1149,
        "contract": "contracts/AstarReceiver.sol:AstarReceiver",
        "label": "astarSlpx",
        "offset": 0,
        "slot": "3",
        "type": "t_address"
      },
      {
        "astId": 1152,
        "contract": "contracts/AstarReceiver.sol:AstarReceiver",
        "label": "polkadotXcm",
        "offset": 0,
        "slot": "4",
        "type": "t_address"
      },
      {
        "astId": 1155,
        "contract": "contracts/AstarReceiver.sol:AstarReceiver",
        "label": "astrNativeOFT",
        "offset": 0,
        "slot": "5",
        "type": "t_address"
      },
      {
        "astId": 1158,
        "contract": "contracts/AstarReceiver.sol:AstarReceiver",
        "label": "vAstrProxyOFT",
        "offset": 0,
        "slot": "6",
        "type": "t_address"
      },
      {
        "astId": 1160,
        "contract": "contracts/AstarReceiver.sol:AstarReceiver",
        "label": "astarZkSlpx",
        "offset": 0,
        "slot": "7",
        "type": "t_address"
      },
      {
        "astId": 1163,
        "contract": "contracts/AstarReceiver.sol:AstarReceiver",
        "label": "destChainId",
        "offset": 20,
        "slot": "7",
        "type": "t_uint16"
      },
      {
        "astId": 1167,
        "contract": "contracts/AstarReceiver.sol:AstarReceiver",
        "label": "derivativeAddress",
        "offset": 0,
        "slot": "8",
        "type": "t_mapping(t_address,t_address)"
      }
    ],
    "types": {
      "t_address": {
        "encoding": "inplace",
        "label": "address",
        "numberOfBytes": "20"
      },
      "t_mapping(t_address,t_address)": {
        "encoding": "mapping",
        "key": "t_address",
        "label": "mapping(address => address)",
        "numberOfBytes": "32",
        "value": "t_address"
      },
      "t_uint16": {
        "encoding": "inplace",
        "label": "uint16",
        "numberOfBytes": "2"
      }
    }
  }
}