{
  "address": "0xd8B789158b4Dc956Ff739063cf21bB2294aE5618",
  "abi": [
    {
      "inputs": [
        {
          "internalType": "address",
          "name": "_astarZkSlpx",
          "type": "address"
        }
      ],
      "stateMutability": "nonpayable",
      "type": "constructor"
    },
    {
      "anonymous": false,
      "inputs": [
        {
          "indexed": false,
          "internalType": "address",
          "name": "caller",
          "type": "address"
        },
        {
          "indexed": false,
          "internalType": "address",
          "name": "derivativeAddress",
          "type": "address"
        },
        {
          "indexed": false,
          "internalType": "uint256",
          "name": "amount",
          "type": "uint256"
        }
      ],
      "name": "Mint",
      "type": "event"
    },
    {
      "anonymous": false,
      "inputs": [
        {
          "indexed": true,
          "internalType": "address",
          "name": "previousOwner",
          "type": "address"
        },
        {
          "indexed": true,
          "internalType": "address",
          "name": "newOwner",
          "type": "address"
        }
      ],
      "name": "OwnershipTransferred",
      "type": "event"
    },
    {
      "anonymous": false,
      "inputs": [
        {
          "indexed": false,
          "internalType": "address",
          "name": "caller",
          "type": "address"
        },
        {
          "indexed": false,
          "internalType": "address",
          "name": "derivativeAddress",
          "type": "address"
        },
        {
          "indexed": false,
          "internalType": "uint256",
          "name": "amount",
          "type": "uint256"
        }
      ],
      "name": "Redeem",
      "type": "event"
    },
    {
      "inputs": [],
      "name": "BNC",
      "outputs": [
        {
          "internalType": "address",
          "name": "",
          "type": "address"
        }
      ],
      "stateMutability": "view",
      "type": "function"
    },
    {
      "inputs": [],
      "name": "VASTR",
      "outputs": [
        {
          "internalType": "address",
          "name": "",
          "type": "address"
        }
      ],
      "stateMutability": "view",
      "type": "function"
    },
    {
      "inputs": [],
      "name": "astarSlpx",
      "outputs": [
        {
          "internalType": "address",
          "name": "",
          "type": "address"
        }
      ],
      "stateMutability": "view",
      "type": "function"
    },
    {
      "inputs": [],
      "name": "astarZkSlpx",
      "outputs": [
        {
          "internalType": "address",
          "name": "",
          "type": "address"
        }
      ],
      "stateMutability": "view",
      "type": "function"
    },
    {
      "inputs": [],
      "name": "astrNativeOFT",
      "outputs": [
        {
          "internalType": "address",
          "name": "",
          "type": "address"
        }
      ],
      "stateMutability": "view",
      "type": "function"
    },
    {
      "inputs": [
        {
          "internalType": "address",
          "name": "",
          "type": "address"
        }
      ],
      "name": "callerToDerivativeAddress",
      "outputs": [
        {
          "internalType": "address",
          "name": "",
          "type": "address"
        }
      ],
      "stateMutability": "view",
      "type": "function"
    },
    {
      "inputs": [
        {
          "internalType": "address",
          "name": "addr",
          "type": "address"
        },
        {
          "internalType": "uint256",
          "name": "_amount",
          "type": "uint256"
        },
        {
          "internalType": "uint256",
          "name": "_minAmount",
          "type": "uint256"
        },
        {
          "internalType": "bytes",
          "name": "_adapterParams",
          "type": "bytes"
        }
      ],
      "name": "claimAstr",
      "outputs": [],
      "stateMutability": "payable",
      "type": "function"
    },
    {
      "inputs": [
        {
          "internalType": "address",
          "name": "addr",
          "type": "address"
        },
        {
          "internalType": "bytes",
          "name": "_adapterParams",
          "type": "bytes"
        }
      ],
      "name": "claimVAstr",
      "outputs": [],
      "stateMutability": "payable",
      "type": "function"
    },
    {
      "inputs": [],
      "name": "destChainId",
      "outputs": [
        {
          "internalType": "uint16",
          "name": "",
          "type": "uint16"
        }
      ],
      "stateMutability": "view",
      "type": "function"
    },
    {
      "inputs": [
        {
          "internalType": "address",
          "name": "",
          "type": "address"
        }
      ],
      "name": "isDerivativeAddress",
      "outputs": [
        {
          "internalType": "bool",
          "name": "",
          "type": "bool"
        }
      ],
      "stateMutability": "view",
      "type": "function"
    },
    {
      "inputs": [
        {
          "internalType": "uint16",
          "name": "",
          "type": "uint16"
        },
        {
          "internalType": "bytes",
          "name": "",
          "type": "bytes"
        },
        {
          "internalType": "uint64",
          "name": "",
          "type": "uint64"
        },
        {
          "internalType": "bytes32",
          "name": "_from",
          "type": "bytes32"
        },
        {
          "internalType": "uint256",
          "name": "_amount",
          "type": "uint256"
        },
        {
          "internalType": "bytes",
          "name": "_payload",
          "type": "bytes"
        }
      ],
      "name": "onOFTReceived",
      "outputs": [],
      "stateMutability": "nonpayable",
      "type": "function"
    },
    {
      "inputs": [],
      "name": "owner",
      "outputs": [
        {
          "internalType": "address",
          "name": "",
          "type": "address"
        }
      ],
      "stateMutability": "view",
      "type": "function"
    },
    {
      "inputs": [],
      "name": "polkadotXcm",
      "outputs": [
        {
          "internalType": "address",
          "name": "",
          "type": "address"
        }
      ],
      "stateMutability": "view",
      "type": "function"
    },
    {
      "inputs": [],
      "name": "renounceOwnership",
      "outputs": [],
      "stateMutability": "nonpayable",
      "type": "function"
    },
    {
      "inputs": [
        {
          "internalType": "address",
          "name": "addr",
          "type": "address"
        }
      ],
      "name": "setDerivativeAddress",
      "outputs": [],
      "stateMutability": "nonpayable",
      "type": "function"
    },
    {
      "inputs": [],
      "name": "testAddress",
      "outputs": [
        {
          "internalType": "address",
          "name": "",
          "type": "address"
        }
      ],
      "stateMutability": "view",
      "type": "function"
    },
    {
      "inputs": [
        {
          "internalType": "address",
          "name": "newOwner",
          "type": "address"
        }
      ],
      "name": "transferOwnership",
      "outputs": [],
      "stateMutability": "nonpayable",
      "type": "function"
    },
    {
      "inputs": [],
      "name": "vAstrProxyOFT",
      "outputs": [
        {
          "internalType": "address",
          "name": "",
          "type": "address"
        }
      ],
      "stateMutability": "view",
      "type": "function"
    },
    {
      "stateMutability": "payable",
      "type": "receive"
    }
  ],
  "transactionHash": "0xb1b4fabb031bcacf9d00004a9a866309c3c8fda9da7f111ed81651f4520abacf",
  "args": [
    "0x4e1A1FdE10494d714D2620aAF7B27B878458459c"
  ],
  "numDeployments": 5,
  "solcInputHash": "bc5c72f71933d35f39c53e49e66b7cba",
  "bytecode": "0x60806040523480156200001157600080fd5b506040516200268b3803806200268b8339810160408190526200003491620000b5565b6200003f3362000065565b600180546001600160a01b0319166001600160a01b0392909216919091179055620000e7565b600080546001600160a01b038381166001600160a01b0319831681178455604051919092169283917f8be0079c531659141344cd1fd0a4f28419497f9722a3daafe3b4186f6b6457e09190a35050565b600060208284031215620000c857600080fd5b81516001600160a01b0381168114620000e057600080fd5b9392505050565b61259480620000f76000396000f3fe60806040526004361061010d5760003560e01c80638da5cb5b11610095578063c241339711610064578063c241339714610361578063c4af1c0b14610381578063c95b6f0e146103aa578063f29588c7146103d2578063f2fde38b146103fa57600080fd5b80638da5cb5b146102cf5780639641e45e146102ed578063a7fd9c6b14610315578063aae9ecff1461034b57600080fd5b806352b814b6116100dc57806352b814b614610254578063552a530e14610267578063715018a6146102875780637fcf35da1461029c5780638890f1ce146102bc57600080fd5b806319cd083914610187578063262330b4146101cc57806328b743a2146101ec5780632991e4e61461022c57600080fd5b36610182573360009081526004602052604090205460ff166101805760405162461bcd60e51b815260206004820152602160248201527f73656e646572206973206e6f74206120646572697661746976654164647265736044820152607360f81b60648201526084015b60405180910390fd5b005b600080fd5b34801561019357600080fd5b506101af73eafaf3eda029a62bcbe8a0c9a4549ef0fed5a40081565b6040516001600160a01b0390911681526020015b60405180910390f35b3480156101d857600080fd5b506002546101af906001600160a01b031681565b3480156101f857600080fd5b5061021c6102073660046118f7565b60046020526000908152604090205460ff1681565b60405190151581526020016101c3565b34801561023857600080fd5b506101af73ffffffff0000000000000001000000000000001081565b61018061026236600461195d565b61041a565b34801561027357600080fd5b506001546101af906001600160a01b031681565b34801561029357600080fd5b5061018061078f565b3480156102a857600080fd5b506101806102b73660046119c8565b6107a3565b6101806102ca366004611a79565b6109c0565b3480156102db57600080fd5b506000546001600160a01b03166101af565b3480156102f957600080fd5b506101af732fd8bbf5dc8b342c09abf34f211b3488e2d9d69181565b34801561032157600080fd5b506101af6103303660046118f7565b6003602052600090815260409020546001600160a01b031681565b34801561035757600080fd5b506101af61500481565b34801561036d57600080fd5b5061018061037c3660046118f7565b610c01565b34801561038d57600080fd5b506103976127ec81565b60405161ffff90911681526020016101c3565b3480156103b657600080fd5b506101af73f1d4797e51a4640a76769a50b57abe7479add3d881565b3480156103de57600080fd5b506101af73ffffffff0000000000000001000000000000000781565b34801561040657600080fd5b506101806104153660046118f7565b610cf5565b6001600160a01b0380841660009081526003602052604090205416806104745760405162461bcd60e51b815260206004820152600f60248201526e696e76616c6964206164647265737360881b6044820152606401610177565b6040516351cff8d960e01b815273ffffffff0000000000000001000000000000001060048201526000906001600160a01b038316906351cff8d9906024016020604051808303816000875af11580156104d1573d6000803e3d6000fd5b505050506040513d601f19601f820116820180604052508101906104f59190611ae3565b60405163095ea7b360e01b815273f1d4797e51a4640a76769a50b57abe7479add3d860048201526024810182905290915073ffffffff000000000000000100000000000000109063095ea7b3906044016020604051808303816000875af1158015610564573d6000803e3d6000fd5b505050506040513d601f19601f820116820180604052508101906105889190611afc565b506000604051806060016040528061059d3390565b6001600160a01b0316815260200160006001600160a01b0316815260200186868080601f0160208091040260200160405190810160405280939291908181526020018383808284376000920182905250939094525050604051630d94982d60e21b81529293506001600160a01b0389169290915073f1d4797e51a4640a76769a50b57abe7479add3d89063365260b490610647906127ec908690899087908e908e90600401611b1e565b6040805180830381865afa158015610663573d6000803e3d6000fd5b505050506040513d601f19601f820116820180604052508101906106879190611b6f565b509050803410156106ca5760405162461bcd60e51b815260206004820152600d60248201526c746f6f20736d616c6c2066656560981b6044820152606401610177565b8034146107105760006106dd8234611ba9565b604051909150339082156108fc029083906000818181858888f1935050505015801561070d573d6000803e3d6000fd5b50505b60405163695ef6bf60e01b815273f1d4797e51a4640a76769a50b57abe7479add3d89063695ef6bf9083906107539030906127ec9088908b908b90600401611c59565b6000604051808303818588803b15801561076c57600080fd5b505af1158015610780573d6000803e3d6000fd5b50505050505050505050505050565b610797610d6e565b6107a16000610dc8565b565b3373eafaf3eda029a62bcbe8a0c9a4549ef0fed5a40014806107d857503373f1d4797e51a4640a76769a50b57abe7479add3d8145b6108245760405162461bcd60e51b815260206004820152601860248201527f6f6e6c79206e6174697665206f66742063616e2063616c6c00000000000000006044820152606401610177565b6001546001600160a01b0385811691161461088b5760405162461bcd60e51b815260206004820152602160248201527f6f6e6c792072656365697665206d73672066726f6d2061737461725a6b536c706044820152600f60fb1b6064820152608401610177565b60008061089a83850185611c9b565b6001600160a01b03808316600090815260036020526040902054929450909250166108c8576108c882610c01565b60008160018111156108dc576108dc611cd8565b141561097357604051632e1a7d4d60e01b81526004810186905273eafaf3eda029a62bcbe8a0c9a4549ef0fed5a40090632e1a7d4d90602401600060405180830381600087803b15801561092f57600080fd5b505af1158015610943573d6000803e3d6000fd5b5050506001600160a01b0380841660009081526003602052604090205461096e925084911687610e18565b6109b4565b600181600181111561098757610987611cd8565b14156109b4576001600160a01b038083166000908152600360205260409020546109b49184911687611114565b50505050505050505050565b6001600160a01b03858116600090815260036020526040908190205490516303b4814560e21b815260048101879052911690630ed2051490602401600060405180830381600087803b158015610a1557600080fd5b505af1158015610a29573d6000803e3d6000fd5b5050505060006040518060600160405280610a413390565b6001600160a01b0316815260200160006001600160a01b0316815260200184848080601f0160208091040260200160405190810160405280939291908181526020018383808284376000920182905250939094525050604051630d94982d60e21b81529293506001600160a01b0389169290915073eafaf3eda029a62bcbe8a0c9a4549ef0fed5a4009063365260b490610aeb906127ec9086908c9087908c908c90600401611b1e565b6040805180830381865afa158015610b07573d6000803e3d6000fd5b505050506040513d601f19601f82011682018060405250810190610b2b9190611b6f565b50905080341015610b6e5760405162461bcd60e51b815260206004820152600d60248201526c746f6f20736d616c6c2066656560981b6044820152606401610177565b803414610bb4576000610b818234611ba9565b604051909150339082156108fc029083906000818181858888f19350505050158015610bb1573d6000803e3d6000fd5b50505b73eafaf3eda029a62bcbe8a0c9a4549ef0fed5a400632cdf0b95610bd8838a611cee565b306127ec868c8c8a6040518863ffffffff1660e01b815260040161075396959493929190611d06565b6001600160a01b038181166000908152600360205260409020541615610c695760405162461bcd60e51b815260206004820152601d60248201527f616c7265616479207365742064657269766174697665416464726573730000006044820152606401610177565b600060405180602001610c7b906118d5565b601f1982820381018352601f9091011660405290506001600160a01b0382166000610ca7818385611419565b6001600160a01b0394851660009081526003602090815260408083208054989094166001600160a01b031990981688179093559581526004909552909320805460ff19166001179055505050565b610cfd610d6e565b6001600160a01b038116610d625760405162461bcd60e51b815260206004820152602660248201527f4f776e61626c653a206e6577206f776e657220697320746865207a65726f206160448201526564647265737360d01b6064820152608401610177565b610d6b81610dc8565b50565b6000546001600160a01b031633146107a15760405162461bcd60e51b815260206004820181905260248201527f4f776e61626c653a2063616c6c6572206973206e6f7420746865206f776e65726044820152606401610177565b600080546001600160a01b038381166001600160a01b0319831681178455604051919092169283917f8be0079c531659141344cd1fd0a4f28419497f9722a3daafe3b4186f6b6457e09190a35050565b6001600160a01b038316610e5d5760405162461bcd60e51b815260206004820152600c60248201526b496e76616c69642066726f6d60a01b6044820152606401610177565b6001600160a01b038216610ea05760405162461bcd60e51b815260206004820152600a602482015269496e76616c696420746f60b01b6044820152606401610177565b80610ede5760405162461bcd60e51b815260206004820152600e60248201526d125b9d985b1a5908185b5bdd5b9d60921b6044820152606401610177565b610ee88382611521565b604051600090610efe9082908590602001611d4f565b60408051601f198184030181529082905263b921552760e01b8252915060009073051713fD66845a13BF23BACa008C5C22C27Ccb589063b921552790610f5190889061080360f01b908790600401611d7b565b600060405180830381865af4158015610f6e573d6000803e3d6000fd5b505050506040513d6000823e601f3d908101601f19168201604052610f969190810190611df3565b604051635eef7b0d60e11b81529091506000908190732fd8bbf5dc8b342c09abf34f211b3488e2d9d6919063bddef61a90610fd5908490600401611e95565b6040805180830381865afa158015610ff1573d6000803e3d6000fd5b505050506040513d601f19601f820116820180604052508101906110159190611ebd565b604051637c87590960e11b815291935091506150049063f90eb21290611060906107ee9060009073ffffffff000000000000000100000000000000079087908a908a90600401611eeb565b6020604051808303816000875af115801561107f573d6000803e3d6000fd5b505050506040513d601f19601f820116820180604052508101906110a39190611afc565b6110bf5760405162461bcd60e51b815260040161017790611f3d565b604080516001600160a01b03808a168252881660208201529081018690527fab8530f87dc9b59234c4623bf917212bb2536d647574c8e7e5da92c2ede0c9f8906060015b60405180910390a150505050505050565b6001600160a01b0383166111595760405162461bcd60e51b815260206004820152600c60248201526b496e76616c69642066726f6d60a01b6044820152606401610177565b6001600160a01b03821661119c5760405162461bcd60e51b815260206004820152600a602482015269496e76616c696420746f60b01b6044820152606401610177565b806111da5760405162461bcd60e51b815260206004820152600e60248201526d125b9d985b1a5908185b5bdd5b9d60921b6044820152606401610177565b6111f973ffffffff0000000000000001000000000000001084836116d5565b60405160009061120f9082908590602001611d4f565b60408051601f1981840301815290829052639f00478360e01b8252915060009073051713fD66845a13BF23BACa008C5C22C27Ccb5890639f0047839061126290889061090360f01b908790600401611f69565b600060405180830381865af415801561127f573d6000803e3d6000fd5b505050506040513d6000823e601f3d908101601f191682016040526112a79190810190611df3565b604051635eef7b0d60e11b81529091506000908190732fd8bbf5dc8b342c09abf34f211b3488e2d9d6919063bddef61a906112e790600190600401611e95565b6040805180830381865afa158015611303573d6000803e3d6000fd5b505050506040513d601f19601f820116820180604052508101906113279190611ebd565b604051637c87590960e11b815291935091506150049063f90eb21290611372906107ee9060009073ffffffff000000000000000100000000000000079087908a908a90600401611eeb565b6020604051808303816000875af1158015611391573d6000803e3d6000fd5b505050506040513d601f19601f820116820180604052508101906113b59190611afc565b6113d15760405162461bcd60e51b815260040161017790611f3d565b604080516001600160a01b03808a168252881660208201529081018690527fd12200efa34901b99367694174c3b0d32c99585fdf37c7c26892136ddd0836d990606001611103565b60008347101561146b5760405162461bcd60e51b815260206004820152601d60248201527f437265617465323a20696e73756666696369656e742062616c616e63650000006044820152606401610177565b81516114b95760405162461bcd60e51b815260206004820181905260248201527f437265617465323a2062797465636f6465206c656e677468206973207a65726f6044820152606401610177565b8282516020840186f590506001600160a01b03811661151a5760405162461bcd60e51b815260206004820152601960248201527f437265617465323a204661696c6564206f6e206465706c6f79000000000000006044820152606401610177565b9392505050565b604051631932052960e11b81526001600160a01b0383166004820152600090734238Ea4AdFa2bD6a5fC9B5E245dc1900cF0258aa906332640a5290602401602060405180830381865af415801561157c573d6000803e3d6000fd5b505050506040513d601f19601f820116820180604052508101906115a09190611ae3565b604080516001808252818301909252919250600091906020808301908036833750506040805160018082528183019092529293506000929150602080830190803683370190505090506000826000815181106115fe576115fe611fa6565b60200260200101906001600160a01b031690816001600160a01b031681525050838160008151811061163257611632611fa6565b602090810291909101015260405163400c0e8d60e01b81526150049063400c0e8d9061166f908590859088906000906107ee908290600401611fbc565b6020604051808303816000875af115801561168e573d6000803e3d6000fd5b505050506040513d601f19601f820116820180604052508101906116b29190611afc565b6116ce5760405162461bcd60e51b815260040161017790611f3d565b5050505050565b6001600160a01b0383166117225760405162461bcd60e51b8152602060048201526014602482015273496e76616c69642061737365744164647265737360601b6044820152606401610177565b604051631932052960e11b81526001600160a01b0383166004820152600090734238Ea4AdFa2bD6a5fC9B5E245dc1900cF0258aa906332640a5290602401602060405180830381865af415801561177d573d6000803e3d6000fd5b505050506040513d601f19601f820116820180604052508101906117a19190611ae3565b6040805160018082528183019092529192506000919060208083019080368337505060408051600180825281830190925292935060009291506020808301908036833701905050905085826000815181106117fe576117fe611fa6565b60200260200101906001600160a01b031690816001600160a01b031681525050838160008151811061183257611832611fa6565b60209081029190910101526040516219054d60e41b81526150049063019054d09061186e908590859088906000906107ee908290600401611fbc565b6020604051808303816000875af115801561188d573d6000803e3d6000fd5b505050506040513d601f19601f820116820180604052508101906118b19190611afc565b6118cd5760405162461bcd60e51b815260040161017790611f3d565b505050505050565b6104fc8061206383390190565b6001600160a01b0381168114610d6b57600080fd5b60006020828403121561190957600080fd5b813561151a816118e2565b60008083601f84011261192657600080fd5b50813567ffffffffffffffff81111561193e57600080fd5b60208301915083602082850101111561195657600080fd5b9250929050565b60008060006040848603121561197257600080fd5b833561197d816118e2565b9250602084013567ffffffffffffffff81111561199957600080fd5b6119a586828701611914565b9497909650939450505050565b67ffffffffffffffff81168114610d6b57600080fd5b60008060008060008060008060c0898b0312156119e457600080fd5b883561ffff811681146119f657600080fd5b9750602089013567ffffffffffffffff80821115611a1357600080fd5b611a1f8c838d01611914565b909950975060408b01359150611a34826119b2565b90955060608a0135945060808a0135935060a08a01359080821115611a5857600080fd5b50611a658b828c01611914565b999c989b5096995094979396929594505050565b600080600080600060808688031215611a9157600080fd5b8535611a9c816118e2565b94506020860135935060408601359250606086013567ffffffffffffffff811115611ac657600080fd5b611ad288828901611914565b969995985093965092949392505050565b600060208284031215611af557600080fd5b5051919050565b600060208284031215611b0e57600080fd5b8151801515811461151a57600080fd5b61ffff87168152856020820152846040820152831515606082015260a060808201528160a0820152818360c0830137600081830160c090810191909152601f909201601f1916010195945050505050565b60008060408385031215611b8257600080fd5b505080516020909101519092909150565b634e487b7160e01b600052601160045260246000fd5b600082821015611bbb57611bbb611b93565b500390565b60005b83811015611bdb578181015183820152602001611bc3565b83811115611bea576000848401525b50505050565b60008151808452611c08816020860160208601611bc0565b601f01601f19169290920160200192915050565b600060018060a01b0380835116845280602084015116602085015250604082015160606040850152611c516060850182611bf0565b949350505050565b60018060a01b038616815261ffff8516602082015283604082015282606082015260a060808201526000611c9060a0830184611c1c565b979650505050505050565b60008060408385031215611cae57600080fd5b8235611cb9816118e2565b9150602083013560028110611ccd57600080fd5b809150509250929050565b634e487b7160e01b600052602160045260246000fd5b60008219821115611d0157611d01611b93565b500190565b60018060a01b038716815261ffff8616602082015284604082015283606082015282608082015260c060a08201526000611d4360c0830184611c1c565b98975050505050505050565b6001600160f81b031992909216825260601b6bffffffffffffffffffffffff1916600182015260150190565b6001600160a01b03841681526001600160f01b031983166020820152608060408201819052600090611daf90830184611bf0565b8281036060840152600a81526941737461725a6b45766d60b01b602082015260408101915050949350505050565b634e487b7160e01b600052604160045260246000fd5b600060208284031215611e0557600080fd5b815167ffffffffffffffff80821115611e1d57600080fd5b818401915084601f830112611e3157600080fd5b815181811115611e4357611e43611ddd565b604051601f8201601f19908116603f01168101908382118183101715611e6b57611e6b611ddd565b81604052828152876020848701011115611e8457600080fd5b611c90836020830160208801611bc0565b6020810160048310611eb757634e487b7160e01b600052602160045260246000fd5b91905290565b60008060408385031215611ed057600080fd5b8251611edb816119b2565b6020939093015192949293505050565b868152851515602082015260018060a01b038516604082015283606082015260c060808201526000611f2060c0830185611bf0565b905067ffffffffffffffff831660a0830152979650505050505050565b6020808252601290820152714661696c656420746f2073656e642078636d60701b604082015260600190565b6001600160a01b03841681526001600160f01b031983166020820152606060408201819052600090611f9d90830184611bf0565b95945050505050565b634e487b7160e01b600052603260045260246000fd5b60c0808252875190820181905260009060209060e0840190828b01845b82811015611ffe5781516001600160a01b031684529284019290840190600101611fd9565b5050508381038285015288518082528983019183019060005b8181101561203357835183529284019291840191600101612017565b5050604085018990528715156060860152925061204e915050565b608082019390935260a0015294935050505056fe608060405234801561001057600080fd5b506001600081905580546001600160a01b031916331790556104c5806100376000396000f3fe608060405234801561001057600080fd5b50600436106100415760003560e01c80630ed205141461004657806351cff8d91461005b5780638458d2e714610081575b600080fd5b61005961005436600461040b565b6100ac565b005b61006e610069366004610424565b6101e7565b6040519081526020015b60405180910390f35b600154610094906001600160a01b031681565b6040516001600160a01b039091168152602001610078565b6100b46103b1565b6001546001600160a01b031633146100ff5760405162461bcd60e51b81526020600482015260096024820152683337b93134b23232b760b91b60448201526064015b60405180910390fd5b8061013d5760405162461bcd60e51b815260206004820152600e60248201526d62616c616e636520746f206c6f7760901b60448201526064016100f6565b6001546040516000916001600160a01b03169083908381818185875af1925050503d806000811461018a576040519150601f19603f3d011682016040523d82523d6000602084013e61018f565b606091505b50509050806101d95760405162461bcd60e51b81526020600482015260166024820152753330b4b632b2103a37903bb4ba34323930bba0b9ba3960511b60448201526064016100f6565b506101e46001600055565b50565b60006101f16103b1565b6001546001600160a01b031633146102375760405162461bcd60e51b81526020600482015260096024820152683337b93134b23232b760b91b60448201526064016100f6565b6001600160a01b03821661027d5760405162461bcd60e51b815260206004820152600d60248201526c0696e76616c696420657263323609c1b60448201526064016100f6565b6040516370a0823160e01b81523060048201526000906001600160a01b038416906370a0823190602401602060405180830381865afa1580156102c4573d6000803e3d6000fd5b505050506040513d601f19601f820116820180604052508101906102e89190610454565b9050806103285760405162461bcd60e51b815260206004820152600e60248201526d62616c616e636520746f206c6f7760901b60448201526064016100f6565b60015460405163a9059cbb60e01b81526001600160a01b039182166004820152602481018390529084169063a9059cbb906044016020604051808303816000875af115801561037b573d6000803e3d6000fd5b505050506040513d601f19601f8201168201806040525081019061039f919061046d565b5090506103ac6001600055565b919050565b600260005414156104045760405162461bcd60e51b815260206004820152601f60248201527f5265656e7472616e637947756172643a207265656e7472616e742063616c6c0060448201526064016100f6565b6002600055565b60006020828403121561041d57600080fd5b5035919050565b60006020828403121561043657600080fd5b81356001600160a01b038116811461044d57600080fd5b9392505050565b60006020828403121561046657600080fd5b5051919050565b60006020828403121561047f57600080fd5b8151801515811461044d57600080fdfea26469706673582212207be04a4fd6269f54efda3d0284f6318c801f258d51fcbbb8f3f3c56dad76b98b64736f6c634300080a0033a2646970667358221220e900961c2f5bc4ae5f8deaf0eb83e1bbebfcedc9f42177889d38360fd54c3de964736f6c634300080a0033",
  "deployedBytecode": "0x60806040526004361061010d5760003560e01c80638da5cb5b11610095578063c241339711610064578063c241339714610361578063c4af1c0b14610381578063c95b6f0e146103aa578063f29588c7146103d2578063f2fde38b146103fa57600080fd5b80638da5cb5b146102cf5780639641e45e146102ed578063a7fd9c6b14610315578063aae9ecff1461034b57600080fd5b806352b814b6116100dc57806352b814b614610254578063552a530e14610267578063715018a6146102875780637fcf35da1461029c5780638890f1ce146102bc57600080fd5b806319cd083914610187578063262330b4146101cc57806328b743a2146101ec5780632991e4e61461022c57600080fd5b36610182573360009081526004602052604090205460ff166101805760405162461bcd60e51b815260206004820152602160248201527f73656e646572206973206e6f74206120646572697661746976654164647265736044820152607360f81b60648201526084015b60405180910390fd5b005b600080fd5b34801561019357600080fd5b506101af73eafaf3eda029a62bcbe8a0c9a4549ef0fed5a40081565b6040516001600160a01b0390911681526020015b60405180910390f35b3480156101d857600080fd5b506002546101af906001600160a01b031681565b3480156101f857600080fd5b5061021c6102073660046118f7565b60046020526000908152604090205460ff1681565b60405190151581526020016101c3565b34801561023857600080fd5b506101af73ffffffff0000000000000001000000000000001081565b61018061026236600461195d565b61041a565b34801561027357600080fd5b506001546101af906001600160a01b031681565b34801561029357600080fd5b5061018061078f565b3480156102a857600080fd5b506101806102b73660046119c8565b6107a3565b6101806102ca366004611a79565b6109c0565b3480156102db57600080fd5b506000546001600160a01b03166101af565b3480156102f957600080fd5b506101af732fd8bbf5dc8b342c09abf34f211b3488e2d9d69181565b34801561032157600080fd5b506101af6103303660046118f7565b6003602052600090815260409020546001600160a01b031681565b34801561035757600080fd5b506101af61500481565b34801561036d57600080fd5b5061018061037c3660046118f7565b610c01565b34801561038d57600080fd5b506103976127ec81565b60405161ffff90911681526020016101c3565b3480156103b657600080fd5b506101af73f1d4797e51a4640a76769a50b57abe7479add3d881565b3480156103de57600080fd5b506101af73ffffffff0000000000000001000000000000000781565b34801561040657600080fd5b506101806104153660046118f7565b610cf5565b6001600160a01b0380841660009081526003602052604090205416806104745760405162461bcd60e51b815260206004820152600f60248201526e696e76616c6964206164647265737360881b6044820152606401610177565b6040516351cff8d960e01b815273ffffffff0000000000000001000000000000001060048201526000906001600160a01b038316906351cff8d9906024016020604051808303816000875af11580156104d1573d6000803e3d6000fd5b505050506040513d601f19601f820116820180604052508101906104f59190611ae3565b60405163095ea7b360e01b815273f1d4797e51a4640a76769a50b57abe7479add3d860048201526024810182905290915073ffffffff000000000000000100000000000000109063095ea7b3906044016020604051808303816000875af1158015610564573d6000803e3d6000fd5b505050506040513d601f19601f820116820180604052508101906105889190611afc565b506000604051806060016040528061059d3390565b6001600160a01b0316815260200160006001600160a01b0316815260200186868080601f0160208091040260200160405190810160405280939291908181526020018383808284376000920182905250939094525050604051630d94982d60e21b81529293506001600160a01b0389169290915073f1d4797e51a4640a76769a50b57abe7479add3d89063365260b490610647906127ec908690899087908e908e90600401611b1e565b6040805180830381865afa158015610663573d6000803e3d6000fd5b505050506040513d601f19601f820116820180604052508101906106879190611b6f565b509050803410156106ca5760405162461bcd60e51b815260206004820152600d60248201526c746f6f20736d616c6c2066656560981b6044820152606401610177565b8034146107105760006106dd8234611ba9565b604051909150339082156108fc029083906000818181858888f1935050505015801561070d573d6000803e3d6000fd5b50505b60405163695ef6bf60e01b815273f1d4797e51a4640a76769a50b57abe7479add3d89063695ef6bf9083906107539030906127ec9088908b908b90600401611c59565b6000604051808303818588803b15801561076c57600080fd5b505af1158015610780573d6000803e3d6000fd5b50505050505050505050505050565b610797610d6e565b6107a16000610dc8565b565b3373eafaf3eda029a62bcbe8a0c9a4549ef0fed5a40014806107d857503373f1d4797e51a4640a76769a50b57abe7479add3d8145b6108245760405162461bcd60e51b815260206004820152601860248201527f6f6e6c79206e6174697665206f66742063616e2063616c6c00000000000000006044820152606401610177565b6001546001600160a01b0385811691161461088b5760405162461bcd60e51b815260206004820152602160248201527f6f6e6c792072656365697665206d73672066726f6d2061737461725a6b536c706044820152600f60fb1b6064820152608401610177565b60008061089a83850185611c9b565b6001600160a01b03808316600090815260036020526040902054929450909250166108c8576108c882610c01565b60008160018111156108dc576108dc611cd8565b141561097357604051632e1a7d4d60e01b81526004810186905273eafaf3eda029a62bcbe8a0c9a4549ef0fed5a40090632e1a7d4d90602401600060405180830381600087803b15801561092f57600080fd5b505af1158015610943573d6000803e3d6000fd5b5050506001600160a01b0380841660009081526003602052604090205461096e925084911687610e18565b6109b4565b600181600181111561098757610987611cd8565b14156109b4576001600160a01b038083166000908152600360205260409020546109b49184911687611114565b50505050505050505050565b6001600160a01b03858116600090815260036020526040908190205490516303b4814560e21b815260048101879052911690630ed2051490602401600060405180830381600087803b158015610a1557600080fd5b505af1158015610a29573d6000803e3d6000fd5b5050505060006040518060600160405280610a413390565b6001600160a01b0316815260200160006001600160a01b0316815260200184848080601f0160208091040260200160405190810160405280939291908181526020018383808284376000920182905250939094525050604051630d94982d60e21b81529293506001600160a01b0389169290915073eafaf3eda029a62bcbe8a0c9a4549ef0fed5a4009063365260b490610aeb906127ec9086908c9087908c908c90600401611b1e565b6040805180830381865afa158015610b07573d6000803e3d6000fd5b505050506040513d601f19601f82011682018060405250810190610b2b9190611b6f565b50905080341015610b6e5760405162461bcd60e51b815260206004820152600d60248201526c746f6f20736d616c6c2066656560981b6044820152606401610177565b803414610bb4576000610b818234611ba9565b604051909150339082156108fc029083906000818181858888f19350505050158015610bb1573d6000803e3d6000fd5b50505b73eafaf3eda029a62bcbe8a0c9a4549ef0fed5a400632cdf0b95610bd8838a611cee565b306127ec868c8c8a6040518863ffffffff1660e01b815260040161075396959493929190611d06565b6001600160a01b038181166000908152600360205260409020541615610c695760405162461bcd60e51b815260206004820152601d60248201527f616c7265616479207365742064657269766174697665416464726573730000006044820152606401610177565b600060405180602001610c7b906118d5565b601f1982820381018352601f9091011660405290506001600160a01b0382166000610ca7818385611419565b6001600160a01b0394851660009081526003602090815260408083208054989094166001600160a01b031990981688179093559581526004909552909320805460ff19166001179055505050565b610cfd610d6e565b6001600160a01b038116610d625760405162461bcd60e51b815260206004820152602660248201527f4f776e61626c653a206e6577206f776e657220697320746865207a65726f206160448201526564647265737360d01b6064820152608401610177565b610d6b81610dc8565b50565b6000546001600160a01b031633146107a15760405162461bcd60e51b815260206004820181905260248201527f4f776e61626c653a2063616c6c6572206973206e6f7420746865206f776e65726044820152606401610177565b600080546001600160a01b038381166001600160a01b0319831681178455604051919092169283917f8be0079c531659141344cd1fd0a4f28419497f9722a3daafe3b4186f6b6457e09190a35050565b6001600160a01b038316610e5d5760405162461bcd60e51b815260206004820152600c60248201526b496e76616c69642066726f6d60a01b6044820152606401610177565b6001600160a01b038216610ea05760405162461bcd60e51b815260206004820152600a602482015269496e76616c696420746f60b01b6044820152606401610177565b80610ede5760405162461bcd60e51b815260206004820152600e60248201526d125b9d985b1a5908185b5bdd5b9d60921b6044820152606401610177565b610ee88382611521565b604051600090610efe9082908590602001611d4f565b60408051601f198184030181529082905263b921552760e01b8252915060009073__$e184f4046250cd750dfdb139628ab13bdc$__9063b921552790610f5190889061080360f01b908790600401611d7b565b600060405180830381865af4158015610f6e573d6000803e3d6000fd5b505050506040513d6000823e601f3d908101601f19168201604052610f969190810190611df3565b604051635eef7b0d60e11b81529091506000908190732fd8bbf5dc8b342c09abf34f211b3488e2d9d6919063bddef61a90610fd5908490600401611e95565b6040805180830381865afa158015610ff1573d6000803e3d6000fd5b505050506040513d601f19601f820116820180604052508101906110159190611ebd565b604051637c87590960e11b815291935091506150049063f90eb21290611060906107ee9060009073ffffffff000000000000000100000000000000079087908a908a90600401611eeb565b6020604051808303816000875af115801561107f573d6000803e3d6000fd5b505050506040513d601f19601f820116820180604052508101906110a39190611afc565b6110bf5760405162461bcd60e51b815260040161017790611f3d565b604080516001600160a01b03808a168252881660208201529081018690527fab8530f87dc9b59234c4623bf917212bb2536d647574c8e7e5da92c2ede0c9f8906060015b60405180910390a150505050505050565b6001600160a01b0383166111595760405162461bcd60e51b815260206004820152600c60248201526b496e76616c69642066726f6d60a01b6044820152606401610177565b6001600160a01b03821661119c5760405162461bcd60e51b815260206004820152600a602482015269496e76616c696420746f60b01b6044820152606401610177565b806111da5760405162461bcd60e51b815260206004820152600e60248201526d125b9d985b1a5908185b5bdd5b9d60921b6044820152606401610177565b6111f973ffffffff0000000000000001000000000000001084836116d5565b60405160009061120f9082908590602001611d4f565b60408051601f1981840301815290829052639f00478360e01b8252915060009073__$e184f4046250cd750dfdb139628ab13bdc$__90639f0047839061126290889061090360f01b908790600401611f69565b600060405180830381865af415801561127f573d6000803e3d6000fd5b505050506040513d6000823e601f3d908101601f191682016040526112a79190810190611df3565b604051635eef7b0d60e11b81529091506000908190732fd8bbf5dc8b342c09abf34f211b3488e2d9d6919063bddef61a906112e790600190600401611e95565b6040805180830381865afa158015611303573d6000803e3d6000fd5b505050506040513d601f19601f820116820180604052508101906113279190611ebd565b604051637c87590960e11b815291935091506150049063f90eb21290611372906107ee9060009073ffffffff000000000000000100000000000000079087908a908a90600401611eeb565b6020604051808303816000875af1158015611391573d6000803e3d6000fd5b505050506040513d601f19601f820116820180604052508101906113b59190611afc565b6113d15760405162461bcd60e51b815260040161017790611f3d565b604080516001600160a01b03808a168252881660208201529081018690527fd12200efa34901b99367694174c3b0d32c99585fdf37c7c26892136ddd0836d990606001611103565b60008347101561146b5760405162461bcd60e51b815260206004820152601d60248201527f437265617465323a20696e73756666696369656e742062616c616e63650000006044820152606401610177565b81516114b95760405162461bcd60e51b815260206004820181905260248201527f437265617465323a2062797465636f6465206c656e677468206973207a65726f6044820152606401610177565b8282516020840186f590506001600160a01b03811661151a5760405162461bcd60e51b815260206004820152601960248201527f437265617465323a204661696c6564206f6e206465706c6f79000000000000006044820152606401610177565b9392505050565b604051631932052960e11b81526001600160a01b038316600482015260009073__$ddfb0e6c1c4d05795fcce73a90830b0995$__906332640a5290602401602060405180830381865af415801561157c573d6000803e3d6000fd5b505050506040513d601f19601f820116820180604052508101906115a09190611ae3565b604080516001808252818301909252919250600091906020808301908036833750506040805160018082528183019092529293506000929150602080830190803683370190505090506000826000815181106115fe576115fe611fa6565b60200260200101906001600160a01b031690816001600160a01b031681525050838160008151811061163257611632611fa6565b602090810291909101015260405163400c0e8d60e01b81526150049063400c0e8d9061166f908590859088906000906107ee908290600401611fbc565b6020604051808303816000875af115801561168e573d6000803e3d6000fd5b505050506040513d601f19601f820116820180604052508101906116b29190611afc565b6116ce5760405162461bcd60e51b815260040161017790611f3d565b5050505050565b6001600160a01b0383166117225760405162461bcd60e51b8152602060048201526014602482015273496e76616c69642061737365744164647265737360601b6044820152606401610177565b604051631932052960e11b81526001600160a01b038316600482015260009073__$ddfb0e6c1c4d05795fcce73a90830b0995$__906332640a5290602401602060405180830381865af415801561177d573d6000803e3d6000fd5b505050506040513d601f19601f820116820180604052508101906117a19190611ae3565b6040805160018082528183019092529192506000919060208083019080368337505060408051600180825281830190925292935060009291506020808301908036833701905050905085826000815181106117fe576117fe611fa6565b60200260200101906001600160a01b031690816001600160a01b031681525050838160008151811061183257611832611fa6565b60209081029190910101526040516219054d60e41b81526150049063019054d09061186e908590859088906000906107ee908290600401611fbc565b6020604051808303816000875af115801561188d573d6000803e3d6000fd5b505050506040513d601f19601f820116820180604052508101906118b19190611afc565b6118cd5760405162461bcd60e51b815260040161017790611f3d565b505050505050565b6104fc8061206383390190565b6001600160a01b0381168114610d6b57600080fd5b60006020828403121561190957600080fd5b813561151a816118e2565b60008083601f84011261192657600080fd5b50813567ffffffffffffffff81111561193e57600080fd5b60208301915083602082850101111561195657600080fd5b9250929050565b60008060006040848603121561197257600080fd5b833561197d816118e2565b9250602084013567ffffffffffffffff81111561199957600080fd5b6119a586828701611914565b9497909650939450505050565b67ffffffffffffffff81168114610d6b57600080fd5b60008060008060008060008060c0898b0312156119e457600080fd5b883561ffff811681146119f657600080fd5b9750602089013567ffffffffffffffff80821115611a1357600080fd5b611a1f8c838d01611914565b909950975060408b01359150611a34826119b2565b90955060608a0135945060808a0135935060a08a01359080821115611a5857600080fd5b50611a658b828c01611914565b999c989b5096995094979396929594505050565b600080600080600060808688031215611a9157600080fd5b8535611a9c816118e2565b94506020860135935060408601359250606086013567ffffffffffffffff811115611ac657600080fd5b611ad288828901611914565b969995985093965092949392505050565b600060208284031215611af557600080fd5b5051919050565b600060208284031215611b0e57600080fd5b8151801515811461151a57600080fd5b61ffff87168152856020820152846040820152831515606082015260a060808201528160a0820152818360c0830137600081830160c090810191909152601f909201601f1916010195945050505050565b60008060408385031215611b8257600080fd5b505080516020909101519092909150565b634e487b7160e01b600052601160045260246000fd5b600082821015611bbb57611bbb611b93565b500390565b60005b83811015611bdb578181015183820152602001611bc3565b83811115611bea576000848401525b50505050565b60008151808452611c08816020860160208601611bc0565b601f01601f19169290920160200192915050565b600060018060a01b0380835116845280602084015116602085015250604082015160606040850152611c516060850182611bf0565b949350505050565b60018060a01b038616815261ffff8516602082015283604082015282606082015260a060808201526000611c9060a0830184611c1c565b979650505050505050565b60008060408385031215611cae57600080fd5b8235611cb9816118e2565b9150602083013560028110611ccd57600080fd5b809150509250929050565b634e487b7160e01b600052602160045260246000fd5b60008219821115611d0157611d01611b93565b500190565b60018060a01b038716815261ffff8616602082015284604082015283606082015282608082015260c060a08201526000611d4360c0830184611c1c565b98975050505050505050565b6001600160f81b031992909216825260601b6bffffffffffffffffffffffff1916600182015260150190565b6001600160a01b03841681526001600160f01b031983166020820152608060408201819052600090611daf90830184611bf0565b8281036060840152600a81526941737461725a6b45766d60b01b602082015260408101915050949350505050565b634e487b7160e01b600052604160045260246000fd5b600060208284031215611e0557600080fd5b815167ffffffffffffffff80821115611e1d57600080fd5b818401915084601f830112611e3157600080fd5b815181811115611e4357611e43611ddd565b604051601f8201601f19908116603f01168101908382118183101715611e6b57611e6b611ddd565b81604052828152876020848701011115611e8457600080fd5b611c90836020830160208801611bc0565b6020810160048310611eb757634e487b7160e01b600052602160045260246000fd5b91905290565b60008060408385031215611ed057600080fd5b8251611edb816119b2565b6020939093015192949293505050565b868152851515602082015260018060a01b038516604082015283606082015260c060808201526000611f2060c0830185611bf0565b905067ffffffffffffffff831660a0830152979650505050505050565b6020808252601290820152714661696c656420746f2073656e642078636d60701b604082015260600190565b6001600160a01b03841681526001600160f01b031983166020820152606060408201819052600090611f9d90830184611bf0565b95945050505050565b634e487b7160e01b600052603260045260246000fd5b60c0808252875190820181905260009060209060e0840190828b01845b82811015611ffe5781516001600160a01b031684529284019290840190600101611fd9565b5050508381038285015288518082528983019183019060005b8181101561203357835183529284019291840191600101612017565b5050604085018990528715156060860152925061204e915050565b608082019390935260a0015294935050505056fe608060405234801561001057600080fd5b506001600081905580546001600160a01b031916331790556104c5806100376000396000f3fe608060405234801561001057600080fd5b50600436106100415760003560e01c80630ed205141461004657806351cff8d91461005b5780638458d2e714610081575b600080fd5b61005961005436600461040b565b6100ac565b005b61006e610069366004610424565b6101e7565b6040519081526020015b60405180910390f35b600154610094906001600160a01b031681565b6040516001600160a01b039091168152602001610078565b6100b46103b1565b6001546001600160a01b031633146100ff5760405162461bcd60e51b81526020600482015260096024820152683337b93134b23232b760b91b60448201526064015b60405180910390fd5b8061013d5760405162461bcd60e51b815260206004820152600e60248201526d62616c616e636520746f206c6f7760901b60448201526064016100f6565b6001546040516000916001600160a01b03169083908381818185875af1925050503d806000811461018a576040519150601f19603f3d011682016040523d82523d6000602084013e61018f565b606091505b50509050806101d95760405162461bcd60e51b81526020600482015260166024820152753330b4b632b2103a37903bb4ba34323930bba0b9ba3960511b60448201526064016100f6565b506101e46001600055565b50565b60006101f16103b1565b6001546001600160a01b031633146102375760405162461bcd60e51b81526020600482015260096024820152683337b93134b23232b760b91b60448201526064016100f6565b6001600160a01b03821661027d5760405162461bcd60e51b815260206004820152600d60248201526c0696e76616c696420657263323609c1b60448201526064016100f6565b6040516370a0823160e01b81523060048201526000906001600160a01b038416906370a0823190602401602060405180830381865afa1580156102c4573d6000803e3d6000fd5b505050506040513d601f19601f820116820180604052508101906102e89190610454565b9050806103285760405162461bcd60e51b815260206004820152600e60248201526d62616c616e636520746f206c6f7760901b60448201526064016100f6565b60015460405163a9059cbb60e01b81526001600160a01b039182166004820152602481018390529084169063a9059cbb906044016020604051808303816000875af115801561037b573d6000803e3d6000fd5b505050506040513d601f19601f8201168201806040525081019061039f919061046d565b5090506103ac6001600055565b919050565b600260005414156104045760405162461bcd60e51b815260206004820152601f60248201527f5265656e7472616e637947756172643a207265656e7472616e742063616c6c0060448201526064016100f6565b6002600055565b60006020828403121561041d57600080fd5b5035919050565b60006020828403121561043657600080fd5b81356001600160a01b038116811461044d57600080fd5b9392505050565b60006020828403121561046657600080fd5b5051919050565b60006020828403121561047f57600080fd5b8151801515811461044d57600080fdfea26469706673582212207be04a4fd6269f54efda3d0284f6318c801f258d51fcbbb8f3f3c56dad76b98b64736f6c634300080a0033a2646970667358221220e900961c2f5bc4ae5f8deaf0eb83e1bbebfcedc9f42177889d38360fd54c3de964736f6c634300080a0033",
  "libraries": {
    "AddressToAccount": "0x4238Ea4AdFa2bD6a5fC9B5E245dc1900cF0258aa",
    "BuildCallData": "0x051713fD66845a13BF23BACa008C5C22C27Ccb58"
  },
  "devdoc": {
    "kind": "dev",
    "methods": {
      "owner()": {
        "details": "Returns the address of the current owner."
      },
      "renounceOwnership()": {
        "details": "Leaves the contract without owner. It will not be possible to call `onlyOwner` functions. Can only be called by the current owner. NOTE: Renouncing ownership will leave the contract without an owner, thereby disabling any functionality that is only available to the owner."
      },
      "transferOwnership(address)": {
        "details": "Transfers ownership of the contract to a new account (`newOwner`). Can only be called by the current owner."
      }
    },
    "version": 1
  },
  "userdoc": {
    "kind": "user",
    "methods": {},
    "version": 1
  },
  "storageLayout": {
    "storage": [
      {
        "astId": 818,
        "contract": "contracts/AstarReceiver.sol:AstarReceiver",
        "label": "_owner",
        "offset": 0,
        "slot": "0",
        "type": "t_address"
      },
      {
        "astId": 1247,
        "contract": "contracts/AstarReceiver.sol:AstarReceiver",
        "label": "astarZkSlpx",
        "offset": 0,
        "slot": "1",
        "type": "t_address"
      },
      {
        "astId": 1249,
        "contract": "contracts/AstarReceiver.sol:AstarReceiver",
        "label": "testAddress",
        "offset": 0,
        "slot": "2",
        "type": "t_address"
      },
      {
        "astId": 1253,
        "contract": "contracts/AstarReceiver.sol:AstarReceiver",
        "label": "callerToDerivativeAddress",
        "offset": 0,
        "slot": "3",
        "type": "t_mapping(t_address,t_address)"
      },
      {
        "astId": 1257,
        "contract": "contracts/AstarReceiver.sol:AstarReceiver",
        "label": "isDerivativeAddress",
        "offset": 0,
        "slot": "4",
        "type": "t_mapping(t_address,t_bool)"
      }
    ],
    "types": {
      "t_address": {
        "encoding": "inplace",
        "label": "address",
        "numberOfBytes": "20"
      },
      "t_bool": {
        "encoding": "inplace",
        "label": "bool",
        "numberOfBytes": "1"
      },
      "t_mapping(t_address,t_address)": {
        "encoding": "mapping",
        "key": "t_address",
        "label": "mapping(address => address)",
        "numberOfBytes": "32",
        "value": "t_address"
      },
      "t_mapping(t_address,t_bool)": {
        "encoding": "mapping",
        "key": "t_address",
        "label": "mapping(address => bool)",
        "numberOfBytes": "32",
        "value": "t_bool"
      }
    }
  }
}