{
  "address": "0x872C4f20e5cbDd200bD86CdeE46955e7e579575E",
  "abi": [
    {
      "inputs": [
        {
          "internalType": "address",
          "name": "_astarZkSlpx",
          "type": "address"
        },
        {
          "internalType": "address",
          "name": "vastr",
          "type": "address"
        },
        {
          "internalType": "uint16",
          "name": "_destChainId",
          "type": "uint16"
        }
      ],
      "stateMutability": "nonpayable",
      "type": "constructor"
    },
    {
      "anonymous": false,
      "inputs": [
        {
          "indexed": true,
          "internalType": "address",
          "name": "caller",
          "type": "address"
        },
        {
          "indexed": true,
          "internalType": "address",
          "name": "derivativeAddress",
          "type": "address"
        },
        {
          "indexed": true,
          "internalType": "uint256",
          "name": "amount",
          "type": "uint256"
        }
      ],
      "name": "Mint",
      "type": "event"
    },
    {
      "anonymous": false,
      "inputs": [
        {
          "indexed": true,
          "internalType": "address",
          "name": "previousOwner",
          "type": "address"
        },
        {
          "indexed": true,
          "internalType": "address",
          "name": "newOwner",
          "type": "address"
        }
      ],
      "name": "OwnershipTransferred",
      "type": "event"
    },
    {
      "anonymous": false,
      "inputs": [
        {
          "indexed": true,
          "internalType": "address",
          "name": "sender",
          "type": "address"
        },
        {
          "indexed": true,
          "internalType": "uint256",
          "name": "amount",
          "type": "uint256"
        }
      ],
      "name": "Receive",
      "type": "event"
    },
    {
      "anonymous": false,
      "inputs": [
        {
          "indexed": true,
          "internalType": "address",
          "name": "caller",
          "type": "address"
        },
        {
          "indexed": true,
          "internalType": "address",
          "name": "derivativeAddress",
          "type": "address"
        },
        {
          "indexed": true,
          "internalType": "uint256",
          "name": "amount",
          "type": "uint256"
        }
      ],
      "name": "Redeem",
      "type": "event"
    },
    {
      "anonymous": false,
      "inputs": [
        {
          "indexed": true,
          "internalType": "address",
          "name": "caller",
          "type": "address"
        },
        {
          "indexed": true,
          "internalType": "address",
          "name": "derivativeAddress",
          "type": "address"
        }
      ],
      "name": "SetDerivativeAddress",
      "type": "event"
    },
    {
      "inputs": [],
      "name": "BNC",
      "outputs": [
        {
          "internalType": "address",
          "name": "",
          "type": "address"
        }
      ],
      "stateMutability": "view",
      "type": "function"
    },
    {
      "inputs": [],
      "name": "VASTR",
      "outputs": [
        {
          "internalType": "address",
          "name": "",
          "type": "address"
        }
      ],
      "stateMutability": "view",
      "type": "function"
    },
    {
      "inputs": [],
      "name": "astarSlpx",
      "outputs": [
        {
          "internalType": "address",
          "name": "",
          "type": "address"
        }
      ],
      "stateMutability": "view",
      "type": "function"
    },
    {
      "inputs": [],
      "name": "astarZkSlpx",
      "outputs": [
        {
          "internalType": "address",
          "name": "",
          "type": "address"
        }
      ],
      "stateMutability": "view",
      "type": "function"
    },
    {
      "inputs": [],
      "name": "astrNativeOFT",
      "outputs": [
        {
          "internalType": "address",
          "name": "",
          "type": "address"
        }
      ],
      "stateMutability": "view",
      "type": "function"
    },
    {
      "inputs": [
        {
          "internalType": "address",
          "name": "",
          "type": "address"
        }
      ],
      "name": "callerToDerivativeAddress",
      "outputs": [
        {
          "internalType": "address",
          "name": "",
          "type": "address"
        }
      ],
      "stateMutability": "view",
      "type": "function"
    },
    {
      "inputs": [
        {
          "internalType": "address",
          "name": "addr",
          "type": "address"
        },
        {
          "internalType": "uint256",
          "name": "_amount",
          "type": "uint256"
        },
        {
          "internalType": "uint256",
          "name": "_minAmount",
          "type": "uint256"
        },
        {
          "internalType": "bytes",
          "name": "_adapterParams",
          "type": "bytes"
        }
      ],
      "name": "claimAstr",
      "outputs": [],
      "stateMutability": "payable",
      "type": "function"
    },
    {
      "inputs": [
        {
          "internalType": "address",
          "name": "addr",
          "type": "address"
        },
        {
          "internalType": "bytes",
          "name": "_adapterParams",
          "type": "bytes"
        }
      ],
      "name": "claimVAstr",
      "outputs": [],
      "stateMutability": "payable",
      "type": "function"
    },
    {
      "inputs": [],
      "name": "destChainId",
      "outputs": [
        {
          "internalType": "uint16",
          "name": "",
          "type": "uint16"
        }
      ],
      "stateMutability": "view",
      "type": "function"
    },
    {
      "inputs": [
        {
          "internalType": "address",
          "name": "",
          "type": "address"
        }
      ],
      "name": "isDerivativeAddress",
      "outputs": [
        {
          "internalType": "bool",
          "name": "",
          "type": "bool"
        }
      ],
      "stateMutability": "view",
      "type": "function"
    },
    {
      "inputs": [
        {
          "internalType": "uint16",
          "name": "",
          "type": "uint16"
        },
        {
          "internalType": "bytes",
          "name": "",
          "type": "bytes"
        },
        {
          "internalType": "uint64",
          "name": "",
          "type": "uint64"
        },
        {
          "internalType": "bytes32",
          "name": "_from",
          "type": "bytes32"
        },
        {
          "internalType": "uint256",
          "name": "_amount",
          "type": "uint256"
        },
        {
          "internalType": "bytes",
          "name": "_payload",
          "type": "bytes"
        }
      ],
      "name": "onOFTReceived",
      "outputs": [],
      "stateMutability": "nonpayable",
      "type": "function"
    },
    {
      "inputs": [],
      "name": "owner",
      "outputs": [
        {
          "internalType": "address",
          "name": "",
          "type": "address"
        }
      ],
      "stateMutability": "view",
      "type": "function"
    },
    {
      "inputs": [],
      "name": "polkadotXcm",
      "outputs": [
        {
          "internalType": "address",
          "name": "",
          "type": "address"
        }
      ],
      "stateMutability": "view",
      "type": "function"
    },
    {
      "inputs": [],
      "name": "renounceOwnership",
      "outputs": [],
      "stateMutability": "nonpayable",
      "type": "function"
    },
    {
      "inputs": [
        {
          "internalType": "address",
          "name": "addr",
          "type": "address"
        }
      ],
      "name": "setDerivativeAddress",
      "outputs": [],
      "stateMutability": "nonpayable",
      "type": "function"
    },
    {
      "inputs": [
        {
          "internalType": "address",
          "name": "newOwner",
          "type": "address"
        }
      ],
      "name": "transferOwnership",
      "outputs": [],
      "stateMutability": "nonpayable",
      "type": "function"
    },
    {
      "inputs": [],
      "name": "vAstrProxyOFT",
      "outputs": [
        {
          "internalType": "address",
          "name": "",
          "type": "address"
        }
      ],
      "stateMutability": "view",
      "type": "function"
    },
    {
      "stateMutability": "payable",
      "type": "receive"
    }
  ],
  "transactionHash": "0x2d48d92497c83264a754868d295f99e5fa67e51051f3b5ecd5779fdf15ae1d74",
  "args": [
    "0x9Fc6A09CE3A0957D55398F44B79ED8C7B96Fd8A6",
    "0xfffFffff00000000000000010000000000000010",
    "10220"
  ],
  "numDeployments": 12,
  "solcInputHash": "9499d5fae4e6f3381a1876b1a5125a18",
  "bytecode": "0x60806040523480156200001157600080fd5b506040516200295c3803806200295c83398101604081905262000034916200019b565b6200003f336200012e565b6001600160a01b0383166200009b5760405162461bcd60e51b815260206004820152601460248201527f496e76616c6964205f61737461725a6b536c707800000000000000000000000060448201526064015b60405180910390fd5b6001600160a01b038216620000e35760405162461bcd60e51b815260206004820152600d60248201526c24b73b30b634b2103b30b9ba3960991b604482015260640162000092565b600180546001600160a01b039485166001600160a01b03199091161790556002805461ffff909216600160a01b026001600160b01b03199092169290931691909117179055620001ef565b600080546001600160a01b038381166001600160a01b0319831681178455604051919092169283917f8be0079c531659141344cd1fd0a4f28419497f9722a3daafe3b4186f6b6457e09190a35050565b80516001600160a01b03811681146200019657600080fd5b919050565b600080600060608486031215620001b157600080fd5b620001bc846200017e565b9250620001cc602085016200017e565b9150604084015161ffff81168114620001e457600080fd5b809150509250925092565b61275d80620001ff6000396000f3fe6080604052600436106101025760003560e01c80638da5cb5b11610095578063c241339711610064578063c24133971461038c578063c4af1c0b146103ac578063c95b6f0e146103e1578063f29588c714610409578063f2fde38b1461043157600080fd5b80638da5cb5b146102fa5780639641e45e14610318578063a7fd9c6b14610340578063aae9ecff1461037657600080fd5b8063552a530e116100d1578063552a530e14610292578063715018a6146102b25780637fcf35da146102c75780638890f1ce146102e757600080fd5b806319cd0839146101d857806328b743a21461021d5780632991e4e61461025d57806352b814b61461027d57600080fd5b366101d3573360009081526004602052604090205460ff168061013857503373eafaf3eda029a62bcbe8a0c9a4549ef0fed5a400145b6101a45760405162461bcd60e51b815260206004820152603260248201527f73656e646572206973206e6f74206120646572697661746976654164647265736044820152711cc81bdc88185cdd1c93985d1a5d9953d19560721b60648201526084015b60405180910390fd5b604051349033907fd6717f327e0cb88b4a97a7f67a453e9258252c34937ccbdd86de7cb840e7def390600090a3005b600080fd5b3480156101e457600080fd5b5061020073eafaf3eda029a62bcbe8a0c9a4549ef0fed5a40081565b6040516001600160a01b0390911681526020015b60405180910390f35b34801561022957600080fd5b5061024d610238366004611a1b565b60046020526000908152604090205460ff1681565b6040519015158152602001610214565b34801561026957600080fd5b50600254610200906001600160a01b031681565b61029061028b366004611a81565b610451565b005b34801561029e57600080fd5b50600154610200906001600160a01b031681565b3480156102be57600080fd5b50610290610823565b3480156102d357600080fd5b506102906102e2366004611aec565b610837565b6102906102f5366004611b9d565b610a54565b34801561030657600080fd5b506000546001600160a01b0316610200565b34801561032457600080fd5b50610200732fd8bbf5dc8b342c09abf34f211b3488e2d9d69181565b34801561034c57600080fd5b5061020061035b366004611a1b565b6003602052600090815260409020546001600160a01b031681565b34801561038257600080fd5b5061020061500481565b34801561039857600080fd5b506102906103a7366004611a1b565b610d0d565b3480156103b857600080fd5b506002546103ce90600160a01b900461ffff1681565b60405161ffff9091168152602001610214565b3480156103ed57600080fd5b5061020073f1d4797e51a4640a76769a50b57abe7479add3d881565b34801561041557600080fd5b5061020073ffffffff0000000000000001000000000000000781565b34801561043d57600080fd5b5061029061044c366004611a1b565b610e2a565b6001600160a01b0380841660009081526003602052604090205416806104ab5760405162461bcd60e51b815260206004820152600f60248201526e696e76616c6964206164647265737360881b604482015260640161019b565b6002546040516351cff8d960e01b81526001600160a01b0391821660048201526000918316906351cff8d9906024016020604051808303816000875af11580156104f9573d6000803e3d6000fd5b505050506040513d601f19601f8201168201806040525081019061051d9190611c07565b60025460405163095ea7b360e01b815273f1d4797e51a4640a76769a50b57abe7479add3d86004820152602481018390529192506001600160a01b03169063095ea7b3906044016020604051808303816000875af1158015610583573d6000803e3d6000fd5b505050506040513d601f19601f820116820180604052508101906105a79190611c20565b50600060405180606001604052806105bc3390565b6001600160a01b0316815260200160006001600160a01b0316815260200186868080601f0160208091040260200160405190810160405280939291908181526020018383808284376000920182905250939094525050600254604051630d94982d60e21b81529394506001600160a01b038a169391925073f1d4797e51a4640a76769a50b57abe7479add3d89163365260b49161067291600160a01b90910461ffff16908690899087908e908e90600401611c42565b6040805180830381865afa15801561068e573d6000803e3d6000fd5b505050506040513d601f19601f820116820180604052508101906106b29190611c93565b509050803410156106f55760405162461bcd60e51b815260206004820152600d60248201526c746f6f20736d616c6c2066656560981b604482015260640161019b565b8034146107995760006107088234611ccd565b604051909150600090339083908381818185875af1925050503d806000811461074d576040519150601f19603f3d011682016040523d82523d6000602084013e610752565b606091505b50509050806107965760405162461bcd60e51b815260206004820152601060248201526f19985a5b1959081d1bc81c99599d5b9960821b604482015260640161019b565b50505b60025460405163695ef6bf60e01b815273f1d4797e51a4640a76769a50b57abe7479add3d89163695ef6bf9184916107e7913091600160a01b900461ffff169088908b908b90600401611d7d565b6000604051808303818588803b15801561080057600080fd5b505af1158015610814573d6000803e3d6000fd5b50505050505050505050505050565b61082b610ea3565b6108356000610efd565b565b3373eafaf3eda029a62bcbe8a0c9a4549ef0fed5a400148061086c57503373f1d4797e51a4640a76769a50b57abe7479add3d8145b6108b85760405162461bcd60e51b815260206004820152601860248201527f6f6e6c79206e6174697665206f66742063616e2063616c6c0000000000000000604482015260640161019b565b6001546001600160a01b0385811691161461091f5760405162461bcd60e51b815260206004820152602160248201527f6f6e6c792072656365697665206d73672066726f6d2061737461725a6b536c706044820152600f60fb1b606482015260840161019b565b60008061092e83850185611dbf565b6001600160a01b038083166000908152600360205260409020549294509092501661095c5761095c82610d0d565b600081600181111561097057610970611dfc565b1415610a0757604051632e1a7d4d60e01b81526004810186905273eafaf3eda029a62bcbe8a0c9a4549ef0fed5a40090632e1a7d4d90602401600060405180830381600087803b1580156109c357600080fd5b505af11580156109d7573d6000803e3d6000fd5b5050506001600160a01b03808416600090815260036020526040902054610a02925084911687610f4d565b610a48565b6001816001811115610a1b57610a1b611dfc565b1415610a48576001600160a01b03808316600090815260036020526040902054610a48918491168761123e565b50505050505050505050565b6001600160a01b03858116600090815260036020526040908190205490516303b4814560e21b815260048101879052911690630ed2051490602401600060405180830381600087803b158015610aa957600080fd5b505af1158015610abd573d6000803e3d6000fd5b5050505060006040518060600160405280610ad53390565b6001600160a01b0316815260200160006001600160a01b0316815260200184848080601f0160208091040260200160405190810160405280939291908181526020018383808284376000920182905250939094525050600254604051630d94982d60e21b81529394506001600160a01b038a169391925073eafaf3eda029a62bcbe8a0c9a4549ef0fed5a4009163365260b491610b8b91600160a01b90910461ffff169086908c9087908c908c90600401611c42565b6040805180830381865afa158015610ba7573d6000803e3d6000fd5b505050506040513d601f19601f82011682018060405250810190610bcb9190611c93565b50905080341015610c0e5760405162461bcd60e51b815260206004820152600d60248201526c746f6f20736d616c6c2066656560981b604482015260640161019b565b803414610cb2576000610c218234611ccd565b604051909150600090339083908381818185875af1925050503d8060008114610c66576040519150601f19603f3d011682016040523d82523d6000602084013e610c6b565b606091505b5050905080610caf5760405162461bcd60e51b815260206004820152601060248201526f19985a5b1959081d1bc81c99599d5b9960821b604482015260640161019b565b50505b73eafaf3eda029a62bcbe8a0c9a4549ef0fed5a400632cdf0b95610cd6838a611e12565b30600260149054906101000a900461ffff16868c8c8a6040518863ffffffff1660e01b81526004016107e796959493929190611e2a565b6001600160a01b038181166000908152600360205260409020541615610d755760405162461bcd60e51b815260206004820152601d60248201527f616c726561647920736574206465726976617469766541646472657373000000604482015260640161019b565b600060405180602001610d87906119f9565b601f1982820381018352601f9091011660405290506001600160a01b0382166000610db381838561153d565b6001600160a01b03858116600081815260036020908152604080832080546001600160a01b03191695871695861790558483526004909152808220805460ff1916600117905551939450919290917f57b0e11e6397ba91fdcf1893a12f81fa7f83af6687a4c7c51bb7ec5cc87b700991a350505050565b610e32610ea3565b6001600160a01b038116610e975760405162461bcd60e51b815260206004820152602660248201527f4f776e61626c653a206e6577206f776e657220697320746865207a65726f206160448201526564647265737360d01b606482015260840161019b565b610ea081610efd565b50565b6000546001600160a01b031633146108355760405162461bcd60e51b815260206004820181905260248201527f4f776e61626c653a2063616c6c6572206973206e6f7420746865206f776e6572604482015260640161019b565b600080546001600160a01b038381166001600160a01b0319831681178455604051919092169283917f8be0079c531659141344cd1fd0a4f28419497f9722a3daafe3b4186f6b6457e09190a35050565b6001600160a01b038316610f925760405162461bcd60e51b815260206004820152600c60248201526b496e76616c69642066726f6d60a01b604482015260640161019b565b6001600160a01b038216610fd55760405162461bcd60e51b815260206004820152600a602482015269496e76616c696420746f60b01b604482015260640161019b565b806110135760405162461bcd60e51b815260206004820152600e60248201526d125b9d985b1a5908185b5bdd5b9d60921b604482015260640161019b565b61101d8382611645565b6040516000906110339082908590602001611e73565b60408051601f198184030181529082905263b921552760e01b8252915060009073051713fD66845a13BF23BACa008C5C22C27Ccb589063b92155279061108690889061080360f01b908790600401611e9f565b600060405180830381865af41580156110a3573d6000803e3d6000fd5b505050506040513d6000823e601f3d908101601f191682016040526110cb9190810190611f17565b604051635eef7b0d60e11b81529091506000908190732fd8bbf5dc8b342c09abf34f211b3488e2d9d6919063bddef61a9061110a908490600401611fb9565b6040805180830381865afa158015611126573d6000803e3d6000fd5b505050506040513d601f19601f8201168201806040525081019061114a9190611fe1565b604051637c87590960e11b815291935091506150049063f90eb21290611195906107ee9060009073ffffffff000000000000000100000000000000079087908a908a9060040161200f565b6020604051808303816000875af11580156111b4573d6000803e3d6000fd5b505050506040513d601f19601f820116820180604052508101906111d89190611c20565b6111f45760405162461bcd60e51b815260040161019b90612061565b84866001600160a01b0316886001600160a01b03167fab8530f87dc9b59234c4623bf917212bb2536d647574c8e7e5da92c2ede0c9f860405160405180910390a450505050505050565b6001600160a01b0383166112835760405162461bcd60e51b815260206004820152600c60248201526b496e76616c69642066726f6d60a01b604482015260640161019b565b6001600160a01b0382166112c65760405162461bcd60e51b815260206004820152600a602482015269496e76616c696420746f60b01b604482015260640161019b565b806113045760405162461bcd60e51b815260206004820152600e60248201526d125b9d985b1a5908185b5bdd5b9d60921b604482015260640161019b565b60025461131b906001600160a01b031684836117f9565b6040516000906113319082908590602001611e73565b60408051601f1981840301815290829052639f00478360e01b8252915060009073051713fD66845a13BF23BACa008C5C22C27Ccb5890639f0047839061138490889061090360f01b90879060040161208d565b600060405180830381865af41580156113a1573d6000803e3d6000fd5b505050506040513d6000823e601f3d908101601f191682016040526113c99190810190611f17565b604051635eef7b0d60e11b81529091506000908190732fd8bbf5dc8b342c09abf34f211b3488e2d9d6919063bddef61a9061140990600190600401611fb9565b6040805180830381865afa158015611425573d6000803e3d6000fd5b505050506040513d601f19601f820116820180604052508101906114499190611fe1565b604051637c87590960e11b815291935091506150049063f90eb21290611494906107ee9060009073ffffffff000000000000000100000000000000079087908a908a9060040161200f565b6020604051808303816000875af11580156114b3573d6000803e3d6000fd5b505050506040513d601f19601f820116820180604052508101906114d79190611c20565b6114f35760405162461bcd60e51b815260040161019b90612061565b84866001600160a01b0316886001600160a01b03167fd12200efa34901b99367694174c3b0d32c99585fdf37c7c26892136ddd0836d960405160405180910390a450505050505050565b60008347101561158f5760405162461bcd60e51b815260206004820152601d60248201527f437265617465323a20696e73756666696369656e742062616c616e6365000000604482015260640161019b565b81516115dd5760405162461bcd60e51b815260206004820181905260248201527f437265617465323a2062797465636f6465206c656e677468206973207a65726f604482015260640161019b565b8282516020840186f590506001600160a01b03811661163e5760405162461bcd60e51b815260206004820152601960248201527f437265617465323a204661696c6564206f6e206465706c6f7900000000000000604482015260640161019b565b9392505050565b604051631932052960e11b81526001600160a01b0383166004820152600090734238Ea4AdFa2bD6a5fC9B5E245dc1900cF0258aa906332640a5290602401602060405180830381865af41580156116a0573d6000803e3d6000fd5b505050506040513d601f19601f820116820180604052508101906116c49190611c07565b60408051600180825281830190925291925060009190602080830190803683375050604080516001808252818301909252929350600092915060208083019080368337019050509050600082600081518110611722576117226120ca565b60200260200101906001600160a01b031690816001600160a01b0316815250508381600081518110611756576117566120ca565b602090810291909101015260405163400c0e8d60e01b81526150049063400c0e8d90611793908590859088906000906107ee9082906004016120e0565b6020604051808303816000875af11580156117b2573d6000803e3d6000fd5b505050506040513d601f19601f820116820180604052508101906117d69190611c20565b6117f25760405162461bcd60e51b815260040161019b90612061565b5050505050565b6001600160a01b0383166118465760405162461bcd60e51b8152602060048201526014602482015273496e76616c69642061737365744164647265737360601b604482015260640161019b565b604051631932052960e11b81526001600160a01b0383166004820152600090734238Ea4AdFa2bD6a5fC9B5E245dc1900cF0258aa906332640a5290602401602060405180830381865af41580156118a1573d6000803e3d6000fd5b505050506040513d601f19601f820116820180604052508101906118c59190611c07565b604080516001808252818301909252919250600091906020808301908036833750506040805160018082528183019092529293506000929150602080830190803683370190505090508582600081518110611922576119226120ca565b60200260200101906001600160a01b031690816001600160a01b0316815250508381600081518110611956576119566120ca565b60209081029190910101526040516219054d60e41b81526150049063019054d090611992908590859088906000906107ee9082906004016120e0565b6020604051808303816000875af11580156119b1573d6000803e3d6000fd5b505050506040513d601f19601f820116820180604052508101906119d59190611c20565b6119f15760405162461bcd60e51b815260040161019b90612061565b505050505050565b6105a18061218783390190565b6001600160a01b0381168114610ea057600080fd5b600060208284031215611a2d57600080fd5b813561163e81611a06565b60008083601f840112611a4a57600080fd5b50813567ffffffffffffffff811115611a6257600080fd5b602083019150836020828501011115611a7a57600080fd5b9250929050565b600080600060408486031215611a9657600080fd5b8335611aa181611a06565b9250602084013567ffffffffffffffff811115611abd57600080fd5b611ac986828701611a38565b9497909650939450505050565b67ffffffffffffffff81168114610ea057600080fd5b60008060008060008060008060c0898b031215611b0857600080fd5b883561ffff81168114611b1a57600080fd5b9750602089013567ffffffffffffffff80821115611b3757600080fd5b611b438c838d01611a38565b909950975060408b01359150611b5882611ad6565b90955060608a0135945060808a0135935060a08a01359080821115611b7c57600080fd5b50611b898b828c01611a38565b999c989b5096995094979396929594505050565b600080600080600060808688031215611bb557600080fd5b8535611bc081611a06565b94506020860135935060408601359250606086013567ffffffffffffffff811115611bea57600080fd5b611bf688828901611a38565b969995985093965092949392505050565b600060208284031215611c1957600080fd5b5051919050565b600060208284031215611c3257600080fd5b8151801515811461163e57600080fd5b61ffff87168152856020820152846040820152831515606082015260a060808201528160a0820152818360c0830137600081830160c090810191909152601f909201601f1916010195945050505050565b60008060408385031215611ca657600080fd5b505080516020909101519092909150565b634e487b7160e01b600052601160045260246000fd5b600082821015611cdf57611cdf611cb7565b500390565b60005b83811015611cff578181015183820152602001611ce7565b83811115611d0e576000848401525b50505050565b60008151808452611d2c816020860160208601611ce4565b601f01601f19169290920160200192915050565b600060018060a01b0380835116845280602084015116602085015250604082015160606040850152611d756060850182611d14565b949350505050565b60018060a01b038616815261ffff8516602082015283604082015282606082015260a060808201526000611db460a0830184611d40565b979650505050505050565b60008060408385031215611dd257600080fd5b8235611ddd81611a06565b9150602083013560028110611df157600080fd5b809150509250929050565b634e487b7160e01b600052602160045260246000fd5b60008219821115611e2557611e25611cb7565b500190565b60018060a01b038716815261ffff8616602082015284604082015283606082015282608082015260c060a08201526000611e6760c0830184611d40565b98975050505050505050565b6001600160f81b031992909216825260601b6bffffffffffffffffffffffff1916600182015260150190565b6001600160a01b03841681526001600160f01b031983166020820152608060408201819052600090611ed390830184611d14565b8281036060840152600a81526941737461725a6b45766d60b01b602082015260408101915050949350505050565b634e487b7160e01b600052604160045260246000fd5b600060208284031215611f2957600080fd5b815167ffffffffffffffff80821115611f4157600080fd5b818401915084601f830112611f5557600080fd5b815181811115611f6757611f67611f01565b604051601f8201601f19908116603f01168101908382118183101715611f8f57611f8f611f01565b81604052828152876020848701011115611fa857600080fd5b611db4836020830160208801611ce4565b6020810160048310611fdb57634e487b7160e01b600052602160045260246000fd5b91905290565b60008060408385031215611ff457600080fd5b8251611fff81611ad6565b6020939093015192949293505050565b868152851515602082015260018060a01b038516604082015283606082015260c06080820152600061204460c0830185611d14565b905067ffffffffffffffff831660a0830152979650505050505050565b6020808252601290820152714661696c656420746f2073656e642078636d60701b604082015260600190565b6001600160a01b03841681526001600160f01b0319831660208201526060604082018190526000906120c190830184611d14565b95945050505050565b634e487b7160e01b600052603260045260246000fd5b60c0808252875190820181905260009060209060e0840190828b01845b828110156121225781516001600160a01b0316845292840192908401906001016120fd565b5050508381038285015288518082528983019183019060005b818110156121575783518352928401929184019160010161213b565b50506040850189905287151560608601529250612172915050565b608082019390935260a0015294935050505056fe608060405234801561001057600080fd5b506001600081905580546001600160a01b0319163317905561056a806100376000396000f3fe608060405234801561001057600080fd5b50600436106100415760003560e01c80630ed205141461004657806351cff8d91461005b5780638458d2e714610081575b600080fd5b6100596100543660046104b0565b6100ac565b005b61006e6100693660046104c9565b610239565b6040519081526020015b60405180910390f35b600154610094906001600160a01b031681565b6040516001600160a01b039091168152602001610078565b6100b4610456565b6001546001600160a01b031633146100ff5760405162461bcd60e51b81526020600482015260096024820152683337b93134b23232b760b91b60448201526064015b60405180910390fd5b8061013d5760405162461bcd60e51b815260206004820152600e60248201526d62616c616e636520746f206c6f7760901b60448201526064016100f6565b6001546040516000916001600160a01b03169083908381818185875af1925050503d806000811461018a576040519150601f19603f3d011682016040523d82523d6000602084013e61018f565b606091505b50509050806101d95760405162461bcd60e51b81526020600482015260166024820152753330b4b632b2103a37903bb4ba34323930bba0b9ba3960511b60448201526064016100f6565b600154604080513381526001600160a01b03909216602083015260008282015260608201849052517f3115d1449a7b732c986cba18244e897a450f61e1bb8d589cd2e69e6c8924f9f79181900360800190a1506102366001600055565b50565b6000610243610456565b6001546001600160a01b031633146102895760405162461bcd60e51b81526020600482015260096024820152683337b93134b23232b760b91b60448201526064016100f6565b6001600160a01b0382166102cf5760405162461bcd60e51b815260206004820152600d60248201526c0696e76616c696420657263323609c1b60448201526064016100f6565b6040516370a0823160e01b81523060048201526000906001600160a01b038416906370a0823190602401602060405180830381865afa158015610316573d6000803e3d6000fd5b505050506040513d601f19601f8201168201806040525081019061033a91906104f9565b90508061037a5760405162461bcd60e51b815260206004820152600e60248201526d62616c616e636520746f206c6f7760901b60448201526064016100f6565b60015460405163a9059cbb60e01b81526001600160a01b039182166004820152602481018390529084169063a9059cbb906044016020604051808303816000875af11580156103cd573d6000803e3d6000fd5b505050506040513d601f19601f820116820180604052508101906103f19190610512565b50600154604080513381526001600160a01b0392831660208201529185168282015260608201839052517f3115d1449a7b732c986cba18244e897a450f61e1bb8d589cd2e69e6c8924f9f79181900360800190a190506104516001600055565b919050565b600260005414156104a95760405162461bcd60e51b815260206004820152601f60248201527f5265656e7472616e637947756172643a207265656e7472616e742063616c6c0060448201526064016100f6565b6002600055565b6000602082840312156104c257600080fd5b5035919050565b6000602082840312156104db57600080fd5b81356001600160a01b03811681146104f257600080fd5b9392505050565b60006020828403121561050b57600080fd5b5051919050565b60006020828403121561052457600080fd5b815180151581146104f257600080fdfea2646970667358221220c63bb7acf4aca54feb50d5b6fdefbde5193513d958a4dd2cf06100f8cb0cfaaa64736f6c634300080a0033a2646970667358221220c19bec989e46bec2056fd281b916d0b7baf29feacf0d4ed330c4e3099b13045364736f6c634300080a0033",
  "deployedBytecode": "0x6080604052600436106101025760003560e01c80638da5cb5b11610095578063c241339711610064578063c24133971461038c578063c4af1c0b146103ac578063c95b6f0e146103e1578063f29588c714610409578063f2fde38b1461043157600080fd5b80638da5cb5b146102fa5780639641e45e14610318578063a7fd9c6b14610340578063aae9ecff1461037657600080fd5b8063552a530e116100d1578063552a530e14610292578063715018a6146102b25780637fcf35da146102c75780638890f1ce146102e757600080fd5b806319cd0839146101d857806328b743a21461021d5780632991e4e61461025d57806352b814b61461027d57600080fd5b366101d3573360009081526004602052604090205460ff168061013857503373eafaf3eda029a62bcbe8a0c9a4549ef0fed5a400145b6101a45760405162461bcd60e51b815260206004820152603260248201527f73656e646572206973206e6f74206120646572697661746976654164647265736044820152711cc81bdc88185cdd1c93985d1a5d9953d19560721b60648201526084015b60405180910390fd5b604051349033907fd6717f327e0cb88b4a97a7f67a453e9258252c34937ccbdd86de7cb840e7def390600090a3005b600080fd5b3480156101e457600080fd5b5061020073eafaf3eda029a62bcbe8a0c9a4549ef0fed5a40081565b6040516001600160a01b0390911681526020015b60405180910390f35b34801561022957600080fd5b5061024d610238366004611a1b565b60046020526000908152604090205460ff1681565b6040519015158152602001610214565b34801561026957600080fd5b50600254610200906001600160a01b031681565b61029061028b366004611a81565b610451565b005b34801561029e57600080fd5b50600154610200906001600160a01b031681565b3480156102be57600080fd5b50610290610823565b3480156102d357600080fd5b506102906102e2366004611aec565b610837565b6102906102f5366004611b9d565b610a54565b34801561030657600080fd5b506000546001600160a01b0316610200565b34801561032457600080fd5b50610200732fd8bbf5dc8b342c09abf34f211b3488e2d9d69181565b34801561034c57600080fd5b5061020061035b366004611a1b565b6003602052600090815260409020546001600160a01b031681565b34801561038257600080fd5b5061020061500481565b34801561039857600080fd5b506102906103a7366004611a1b565b610d0d565b3480156103b857600080fd5b506002546103ce90600160a01b900461ffff1681565b60405161ffff9091168152602001610214565b3480156103ed57600080fd5b5061020073f1d4797e51a4640a76769a50b57abe7479add3d881565b34801561041557600080fd5b5061020073ffffffff0000000000000001000000000000000781565b34801561043d57600080fd5b5061029061044c366004611a1b565b610e2a565b6001600160a01b0380841660009081526003602052604090205416806104ab5760405162461bcd60e51b815260206004820152600f60248201526e696e76616c6964206164647265737360881b604482015260640161019b565b6002546040516351cff8d960e01b81526001600160a01b0391821660048201526000918316906351cff8d9906024016020604051808303816000875af11580156104f9573d6000803e3d6000fd5b505050506040513d601f19601f8201168201806040525081019061051d9190611c07565b60025460405163095ea7b360e01b815273f1d4797e51a4640a76769a50b57abe7479add3d86004820152602481018390529192506001600160a01b03169063095ea7b3906044016020604051808303816000875af1158015610583573d6000803e3d6000fd5b505050506040513d601f19601f820116820180604052508101906105a79190611c20565b50600060405180606001604052806105bc3390565b6001600160a01b0316815260200160006001600160a01b0316815260200186868080601f0160208091040260200160405190810160405280939291908181526020018383808284376000920182905250939094525050600254604051630d94982d60e21b81529394506001600160a01b038a169391925073f1d4797e51a4640a76769a50b57abe7479add3d89163365260b49161067291600160a01b90910461ffff16908690899087908e908e90600401611c42565b6040805180830381865afa15801561068e573d6000803e3d6000fd5b505050506040513d601f19601f820116820180604052508101906106b29190611c93565b509050803410156106f55760405162461bcd60e51b815260206004820152600d60248201526c746f6f20736d616c6c2066656560981b604482015260640161019b565b8034146107995760006107088234611ccd565b604051909150600090339083908381818185875af1925050503d806000811461074d576040519150601f19603f3d011682016040523d82523d6000602084013e610752565b606091505b50509050806107965760405162461bcd60e51b815260206004820152601060248201526f19985a5b1959081d1bc81c99599d5b9960821b604482015260640161019b565b50505b60025460405163695ef6bf60e01b815273f1d4797e51a4640a76769a50b57abe7479add3d89163695ef6bf9184916107e7913091600160a01b900461ffff169088908b908b90600401611d7d565b6000604051808303818588803b15801561080057600080fd5b505af1158015610814573d6000803e3d6000fd5b50505050505050505050505050565b61082b610ea3565b6108356000610efd565b565b3373eafaf3eda029a62bcbe8a0c9a4549ef0fed5a400148061086c57503373f1d4797e51a4640a76769a50b57abe7479add3d8145b6108b85760405162461bcd60e51b815260206004820152601860248201527f6f6e6c79206e6174697665206f66742063616e2063616c6c0000000000000000604482015260640161019b565b6001546001600160a01b0385811691161461091f5760405162461bcd60e51b815260206004820152602160248201527f6f6e6c792072656365697665206d73672066726f6d2061737461725a6b536c706044820152600f60fb1b606482015260840161019b565b60008061092e83850185611dbf565b6001600160a01b038083166000908152600360205260409020549294509092501661095c5761095c82610d0d565b600081600181111561097057610970611dfc565b1415610a0757604051632e1a7d4d60e01b81526004810186905273eafaf3eda029a62bcbe8a0c9a4549ef0fed5a40090632e1a7d4d90602401600060405180830381600087803b1580156109c357600080fd5b505af11580156109d7573d6000803e3d6000fd5b5050506001600160a01b03808416600090815260036020526040902054610a02925084911687610f4d565b610a48565b6001816001811115610a1b57610a1b611dfc565b1415610a48576001600160a01b03808316600090815260036020526040902054610a48918491168761123e565b50505050505050505050565b6001600160a01b03858116600090815260036020526040908190205490516303b4814560e21b815260048101879052911690630ed2051490602401600060405180830381600087803b158015610aa957600080fd5b505af1158015610abd573d6000803e3d6000fd5b5050505060006040518060600160405280610ad53390565b6001600160a01b0316815260200160006001600160a01b0316815260200184848080601f0160208091040260200160405190810160405280939291908181526020018383808284376000920182905250939094525050600254604051630d94982d60e21b81529394506001600160a01b038a169391925073eafaf3eda029a62bcbe8a0c9a4549ef0fed5a4009163365260b491610b8b91600160a01b90910461ffff169086908c9087908c908c90600401611c42565b6040805180830381865afa158015610ba7573d6000803e3d6000fd5b505050506040513d601f19601f82011682018060405250810190610bcb9190611c93565b50905080341015610c0e5760405162461bcd60e51b815260206004820152600d60248201526c746f6f20736d616c6c2066656560981b604482015260640161019b565b803414610cb2576000610c218234611ccd565b604051909150600090339083908381818185875af1925050503d8060008114610c66576040519150601f19603f3d011682016040523d82523d6000602084013e610c6b565b606091505b5050905080610caf5760405162461bcd60e51b815260206004820152601060248201526f19985a5b1959081d1bc81c99599d5b9960821b604482015260640161019b565b50505b73eafaf3eda029a62bcbe8a0c9a4549ef0fed5a400632cdf0b95610cd6838a611e12565b30600260149054906101000a900461ffff16868c8c8a6040518863ffffffff1660e01b81526004016107e796959493929190611e2a565b6001600160a01b038181166000908152600360205260409020541615610d755760405162461bcd60e51b815260206004820152601d60248201527f616c726561647920736574206465726976617469766541646472657373000000604482015260640161019b565b600060405180602001610d87906119f9565b601f1982820381018352601f9091011660405290506001600160a01b0382166000610db381838561153d565b6001600160a01b03858116600081815260036020908152604080832080546001600160a01b03191695871695861790558483526004909152808220805460ff1916600117905551939450919290917f57b0e11e6397ba91fdcf1893a12f81fa7f83af6687a4c7c51bb7ec5cc87b700991a350505050565b610e32610ea3565b6001600160a01b038116610e975760405162461bcd60e51b815260206004820152602660248201527f4f776e61626c653a206e6577206f776e657220697320746865207a65726f206160448201526564647265737360d01b606482015260840161019b565b610ea081610efd565b50565b6000546001600160a01b031633146108355760405162461bcd60e51b815260206004820181905260248201527f4f776e61626c653a2063616c6c6572206973206e6f7420746865206f776e6572604482015260640161019b565b600080546001600160a01b038381166001600160a01b0319831681178455604051919092169283917f8be0079c531659141344cd1fd0a4f28419497f9722a3daafe3b4186f6b6457e09190a35050565b6001600160a01b038316610f925760405162461bcd60e51b815260206004820152600c60248201526b496e76616c69642066726f6d60a01b604482015260640161019b565b6001600160a01b038216610fd55760405162461bcd60e51b815260206004820152600a602482015269496e76616c696420746f60b01b604482015260640161019b565b806110135760405162461bcd60e51b815260206004820152600e60248201526d125b9d985b1a5908185b5bdd5b9d60921b604482015260640161019b565b61101d8382611645565b6040516000906110339082908590602001611e73565b60408051601f198184030181529082905263b921552760e01b8252915060009073__$e184f4046250cd750dfdb139628ab13bdc$__9063b92155279061108690889061080360f01b908790600401611e9f565b600060405180830381865af41580156110a3573d6000803e3d6000fd5b505050506040513d6000823e601f3d908101601f191682016040526110cb9190810190611f17565b604051635eef7b0d60e11b81529091506000908190732fd8bbf5dc8b342c09abf34f211b3488e2d9d6919063bddef61a9061110a908490600401611fb9565b6040805180830381865afa158015611126573d6000803e3d6000fd5b505050506040513d601f19601f8201168201806040525081019061114a9190611fe1565b604051637c87590960e11b815291935091506150049063f90eb21290611195906107ee9060009073ffffffff000000000000000100000000000000079087908a908a9060040161200f565b6020604051808303816000875af11580156111b4573d6000803e3d6000fd5b505050506040513d601f19601f820116820180604052508101906111d89190611c20565b6111f45760405162461bcd60e51b815260040161019b90612061565b84866001600160a01b0316886001600160a01b03167fab8530f87dc9b59234c4623bf917212bb2536d647574c8e7e5da92c2ede0c9f860405160405180910390a450505050505050565b6001600160a01b0383166112835760405162461bcd60e51b815260206004820152600c60248201526b496e76616c69642066726f6d60a01b604482015260640161019b565b6001600160a01b0382166112c65760405162461bcd60e51b815260206004820152600a602482015269496e76616c696420746f60b01b604482015260640161019b565b806113045760405162461bcd60e51b815260206004820152600e60248201526d125b9d985b1a5908185b5bdd5b9d60921b604482015260640161019b565b60025461131b906001600160a01b031684836117f9565b6040516000906113319082908590602001611e73565b60408051601f1981840301815290829052639f00478360e01b8252915060009073__$e184f4046250cd750dfdb139628ab13bdc$__90639f0047839061138490889061090360f01b90879060040161208d565b600060405180830381865af41580156113a1573d6000803e3d6000fd5b505050506040513d6000823e601f3d908101601f191682016040526113c99190810190611f17565b604051635eef7b0d60e11b81529091506000908190732fd8bbf5dc8b342c09abf34f211b3488e2d9d6919063bddef61a9061140990600190600401611fb9565b6040805180830381865afa158015611425573d6000803e3d6000fd5b505050506040513d601f19601f820116820180604052508101906114499190611fe1565b604051637c87590960e11b815291935091506150049063f90eb21290611494906107ee9060009073ffffffff000000000000000100000000000000079087908a908a9060040161200f565b6020604051808303816000875af11580156114b3573d6000803e3d6000fd5b505050506040513d601f19601f820116820180604052508101906114d79190611c20565b6114f35760405162461bcd60e51b815260040161019b90612061565b84866001600160a01b0316886001600160a01b03167fd12200efa34901b99367694174c3b0d32c99585fdf37c7c26892136ddd0836d960405160405180910390a450505050505050565b60008347101561158f5760405162461bcd60e51b815260206004820152601d60248201527f437265617465323a20696e73756666696369656e742062616c616e6365000000604482015260640161019b565b81516115dd5760405162461bcd60e51b815260206004820181905260248201527f437265617465323a2062797465636f6465206c656e677468206973207a65726f604482015260640161019b565b8282516020840186f590506001600160a01b03811661163e5760405162461bcd60e51b815260206004820152601960248201527f437265617465323a204661696c6564206f6e206465706c6f7900000000000000604482015260640161019b565b9392505050565b604051631932052960e11b81526001600160a01b038316600482015260009073__$ddfb0e6c1c4d05795fcce73a90830b0995$__906332640a5290602401602060405180830381865af41580156116a0573d6000803e3d6000fd5b505050506040513d601f19601f820116820180604052508101906116c49190611c07565b60408051600180825281830190925291925060009190602080830190803683375050604080516001808252818301909252929350600092915060208083019080368337019050509050600082600081518110611722576117226120ca565b60200260200101906001600160a01b031690816001600160a01b0316815250508381600081518110611756576117566120ca565b602090810291909101015260405163400c0e8d60e01b81526150049063400c0e8d90611793908590859088906000906107ee9082906004016120e0565b6020604051808303816000875af11580156117b2573d6000803e3d6000fd5b505050506040513d601f19601f820116820180604052508101906117d69190611c20565b6117f25760405162461bcd60e51b815260040161019b90612061565b5050505050565b6001600160a01b0383166118465760405162461bcd60e51b8152602060048201526014602482015273496e76616c69642061737365744164647265737360601b604482015260640161019b565b604051631932052960e11b81526001600160a01b038316600482015260009073__$ddfb0e6c1c4d05795fcce73a90830b0995$__906332640a5290602401602060405180830381865af41580156118a1573d6000803e3d6000fd5b505050506040513d601f19601f820116820180604052508101906118c59190611c07565b604080516001808252818301909252919250600091906020808301908036833750506040805160018082528183019092529293506000929150602080830190803683370190505090508582600081518110611922576119226120ca565b60200260200101906001600160a01b031690816001600160a01b0316815250508381600081518110611956576119566120ca565b60209081029190910101526040516219054d60e41b81526150049063019054d090611992908590859088906000906107ee9082906004016120e0565b6020604051808303816000875af11580156119b1573d6000803e3d6000fd5b505050506040513d601f19601f820116820180604052508101906119d59190611c20565b6119f15760405162461bcd60e51b815260040161019b90612061565b505050505050565b6105a18061218783390190565b6001600160a01b0381168114610ea057600080fd5b600060208284031215611a2d57600080fd5b813561163e81611a06565b60008083601f840112611a4a57600080fd5b50813567ffffffffffffffff811115611a6257600080fd5b602083019150836020828501011115611a7a57600080fd5b9250929050565b600080600060408486031215611a9657600080fd5b8335611aa181611a06565b9250602084013567ffffffffffffffff811115611abd57600080fd5b611ac986828701611a38565b9497909650939450505050565b67ffffffffffffffff81168114610ea057600080fd5b60008060008060008060008060c0898b031215611b0857600080fd5b883561ffff81168114611b1a57600080fd5b9750602089013567ffffffffffffffff80821115611b3757600080fd5b611b438c838d01611a38565b909950975060408b01359150611b5882611ad6565b90955060608a0135945060808a0135935060a08a01359080821115611b7c57600080fd5b50611b898b828c01611a38565b999c989b5096995094979396929594505050565b600080600080600060808688031215611bb557600080fd5b8535611bc081611a06565b94506020860135935060408601359250606086013567ffffffffffffffff811115611bea57600080fd5b611bf688828901611a38565b969995985093965092949392505050565b600060208284031215611c1957600080fd5b5051919050565b600060208284031215611c3257600080fd5b8151801515811461163e57600080fd5b61ffff87168152856020820152846040820152831515606082015260a060808201528160a0820152818360c0830137600081830160c090810191909152601f909201601f1916010195945050505050565b60008060408385031215611ca657600080fd5b505080516020909101519092909150565b634e487b7160e01b600052601160045260246000fd5b600082821015611cdf57611cdf611cb7565b500390565b60005b83811015611cff578181015183820152602001611ce7565b83811115611d0e576000848401525b50505050565b60008151808452611d2c816020860160208601611ce4565b601f01601f19169290920160200192915050565b600060018060a01b0380835116845280602084015116602085015250604082015160606040850152611d756060850182611d14565b949350505050565b60018060a01b038616815261ffff8516602082015283604082015282606082015260a060808201526000611db460a0830184611d40565b979650505050505050565b60008060408385031215611dd257600080fd5b8235611ddd81611a06565b9150602083013560028110611df157600080fd5b809150509250929050565b634e487b7160e01b600052602160045260246000fd5b60008219821115611e2557611e25611cb7565b500190565b60018060a01b038716815261ffff8616602082015284604082015283606082015282608082015260c060a08201526000611e6760c0830184611d40565b98975050505050505050565b6001600160f81b031992909216825260601b6bffffffffffffffffffffffff1916600182015260150190565b6001600160a01b03841681526001600160f01b031983166020820152608060408201819052600090611ed390830184611d14565b8281036060840152600a81526941737461725a6b45766d60b01b602082015260408101915050949350505050565b634e487b7160e01b600052604160045260246000fd5b600060208284031215611f2957600080fd5b815167ffffffffffffffff80821115611f4157600080fd5b818401915084601f830112611f5557600080fd5b815181811115611f6757611f67611f01565b604051601f8201601f19908116603f01168101908382118183101715611f8f57611f8f611f01565b81604052828152876020848701011115611fa857600080fd5b611db4836020830160208801611ce4565b6020810160048310611fdb57634e487b7160e01b600052602160045260246000fd5b91905290565b60008060408385031215611ff457600080fd5b8251611fff81611ad6565b6020939093015192949293505050565b868152851515602082015260018060a01b038516604082015283606082015260c06080820152600061204460c0830185611d14565b905067ffffffffffffffff831660a0830152979650505050505050565b6020808252601290820152714661696c656420746f2073656e642078636d60701b604082015260600190565b6001600160a01b03841681526001600160f01b0319831660208201526060604082018190526000906120c190830184611d14565b95945050505050565b634e487b7160e01b600052603260045260246000fd5b60c0808252875190820181905260009060209060e0840190828b01845b828110156121225781516001600160a01b0316845292840192908401906001016120fd565b5050508381038285015288518082528983019183019060005b818110156121575783518352928401929184019160010161213b565b50506040850189905287151560608601529250612172915050565b608082019390935260a0015294935050505056fe608060405234801561001057600080fd5b506001600081905580546001600160a01b0319163317905561056a806100376000396000f3fe608060405234801561001057600080fd5b50600436106100415760003560e01c80630ed205141461004657806351cff8d91461005b5780638458d2e714610081575b600080fd5b6100596100543660046104b0565b6100ac565b005b61006e6100693660046104c9565b610239565b6040519081526020015b60405180910390f35b600154610094906001600160a01b031681565b6040516001600160a01b039091168152602001610078565b6100b4610456565b6001546001600160a01b031633146100ff5760405162461bcd60e51b81526020600482015260096024820152683337b93134b23232b760b91b60448201526064015b60405180910390fd5b8061013d5760405162461bcd60e51b815260206004820152600e60248201526d62616c616e636520746f206c6f7760901b60448201526064016100f6565b6001546040516000916001600160a01b03169083908381818185875af1925050503d806000811461018a576040519150601f19603f3d011682016040523d82523d6000602084013e61018f565b606091505b50509050806101d95760405162461bcd60e51b81526020600482015260166024820152753330b4b632b2103a37903bb4ba34323930bba0b9ba3960511b60448201526064016100f6565b600154604080513381526001600160a01b03909216602083015260008282015260608201849052517f3115d1449a7b732c986cba18244e897a450f61e1bb8d589cd2e69e6c8924f9f79181900360800190a1506102366001600055565b50565b6000610243610456565b6001546001600160a01b031633146102895760405162461bcd60e51b81526020600482015260096024820152683337b93134b23232b760b91b60448201526064016100f6565b6001600160a01b0382166102cf5760405162461bcd60e51b815260206004820152600d60248201526c0696e76616c696420657263323609c1b60448201526064016100f6565b6040516370a0823160e01b81523060048201526000906001600160a01b038416906370a0823190602401602060405180830381865afa158015610316573d6000803e3d6000fd5b505050506040513d601f19601f8201168201806040525081019061033a91906104f9565b90508061037a5760405162461bcd60e51b815260206004820152600e60248201526d62616c616e636520746f206c6f7760901b60448201526064016100f6565b60015460405163a9059cbb60e01b81526001600160a01b039182166004820152602481018390529084169063a9059cbb906044016020604051808303816000875af11580156103cd573d6000803e3d6000fd5b505050506040513d601f19601f820116820180604052508101906103f19190610512565b50600154604080513381526001600160a01b0392831660208201529185168282015260608201839052517f3115d1449a7b732c986cba18244e897a450f61e1bb8d589cd2e69e6c8924f9f79181900360800190a190506104516001600055565b919050565b600260005414156104a95760405162461bcd60e51b815260206004820152601f60248201527f5265656e7472616e637947756172643a207265656e7472616e742063616c6c0060448201526064016100f6565b6002600055565b6000602082840312156104c257600080fd5b5035919050565b6000602082840312156104db57600080fd5b81356001600160a01b03811681146104f257600080fd5b9392505050565b60006020828403121561050b57600080fd5b5051919050565b60006020828403121561052457600080fd5b815180151581146104f257600080fdfea2646970667358221220c63bb7acf4aca54feb50d5b6fdefbde5193513d958a4dd2cf06100f8cb0cfaaa64736f6c634300080a0033a2646970667358221220c19bec989e46bec2056fd281b916d0b7baf29feacf0d4ed330c4e3099b13045364736f6c634300080a0033",
  "libraries": {
    "AddressToAccount": "0x4238Ea4AdFa2bD6a5fC9B5E245dc1900cF0258aa",
    "BuildCallData": "0x051713fD66845a13BF23BACa008C5C22C27Ccb58"
  },
  "devdoc": {
    "kind": "dev",
    "methods": {
      "owner()": {
        "details": "Returns the address of the current owner."
      },
      "renounceOwnership()": {
        "details": "Leaves the contract without owner. It will not be possible to call `onlyOwner` functions. Can only be called by the current owner. NOTE: Renouncing ownership will leave the contract without an owner, thereby disabling any functionality that is only available to the owner."
      },
      "transferOwnership(address)": {
        "details": "Transfers ownership of the contract to a new account (`newOwner`). Can only be called by the current owner."
      }
    },
    "version": 1
  },
  "userdoc": {
    "kind": "user",
    "methods": {},
    "version": 1
  },
  "storageLayout": {
    "storage": [
      {
        "astId": 818,
        "contract": "contracts/AstarReceiver.sol:AstarReceiver",
        "label": "_owner",
        "offset": 0,
        "slot": "0",
        "type": "t_address"
      },
      {
        "astId": 1241,
        "contract": "contracts/AstarReceiver.sol:AstarReceiver",
        "label": "astarZkSlpx",
        "offset": 0,
        "slot": "1",
        "type": "t_address"
      },
      {
        "astId": 1243,
        "contract": "contracts/AstarReceiver.sol:AstarReceiver",
        "label": "VASTR",
        "offset": 0,
        "slot": "2",
        "type": "t_address"
      },
      {
        "astId": 1245,
        "contract": "contracts/AstarReceiver.sol:AstarReceiver",
        "label": "destChainId",
        "offset": 20,
        "slot": "2",
        "type": "t_uint16"
      },
      {
        "astId": 1249,
        "contract": "contracts/AstarReceiver.sol:AstarReceiver",
        "label": "callerToDerivativeAddress",
        "offset": 0,
        "slot": "3",
        "type": "t_mapping(t_address,t_address)"
      },
      {
        "astId": 1253,
        "contract": "contracts/AstarReceiver.sol:AstarReceiver",
        "label": "isDerivativeAddress",
        "offset": 0,
        "slot": "4",
        "type": "t_mapping(t_address,t_bool)"
      }
    ],
    "types": {
      "t_address": {
        "encoding": "inplace",
        "label": "address",
        "numberOfBytes": "20"
      },
      "t_bool": {
        "encoding": "inplace",
        "label": "bool",
        "numberOfBytes": "1"
      },
      "t_mapping(t_address,t_address)": {
        "encoding": "mapping",
        "key": "t_address",
        "label": "mapping(address => address)",
        "numberOfBytes": "32",
        "value": "t_address"
      },
      "t_mapping(t_address,t_bool)": {
        "encoding": "mapping",
        "key": "t_address",
        "label": "mapping(address => bool)",
        "numberOfBytes": "32",
        "value": "t_bool"
      },
      "t_uint16": {
        "encoding": "inplace",
        "label": "uint16",
        "numberOfBytes": "2"
      }
    }
  }
}