{
  "address": "0x294c664f6D63bd1521231a2EeFC26d805ce00a08",
  "abi": [
    {
      "anonymous": false,
      "inputs": [
        {
          "indexed": false,
          "internalType": "uint8",
          "name": "version",
          "type": "uint8"
        }
      ],
      "name": "Initialized",
      "type": "event"
    },
    {
      "anonymous": false,
      "inputs": [
        {
          "indexed": false,
          "internalType": "address",
          "name": "minter",
          "type": "address"
        },
        {
          "indexed": false,
          "internalType": "address",
          "name": "assetAddress",
          "type": "address"
        },
        {
          "indexed": false,
          "internalType": "uint256",
          "name": "amount",
          "type": "uint256"
        },
        {
          "indexed": false,
          "internalType": "bytes",
          "name": "callcode",
          "type": "bytes"
        }
      ],
      "name": "Mint",
      "type": "event"
    },
    {
      "anonymous": false,
      "inputs": [
        {
          "indexed": true,
          "internalType": "address",
          "name": "previousOwner",
          "type": "address"
        },
        {
          "indexed": true,
          "internalType": "address",
          "name": "newOwner",
          "type": "address"
        }
      ],
      "name": "OwnershipTransferred",
      "type": "event"
    },
    {
      "anonymous": false,
      "inputs": [
        {
          "indexed": false,
          "internalType": "address",
          "name": "account",
          "type": "address"
        }
      ],
      "name": "Paused",
      "type": "event"
    },
    {
      "anonymous": false,
      "inputs": [
        {
          "indexed": false,
          "internalType": "address",
          "name": "redeemer",
          "type": "address"
        },
        {
          "indexed": false,
          "internalType": "address",
          "name": "assetAddress",
          "type": "address"
        },
        {
          "indexed": false,
          "internalType": "uint256",
          "name": "amount",
          "type": "uint256"
        },
        {
          "indexed": false,
          "internalType": "bytes",
          "name": "callcode",
          "type": "bytes"
        }
      ],
      "name": "Redeem",
      "type": "event"
    },
    {
      "anonymous": false,
      "inputs": [
        {
          "indexed": false,
          "internalType": "address",
          "name": "swapper",
          "type": "address"
        },
        {
          "indexed": false,
          "internalType": "address",
          "name": "assetInAddress",
          "type": "address"
        },
        {
          "indexed": false,
          "internalType": "address",
          "name": "assetOutAddress",
          "type": "address"
        },
        {
          "indexed": false,
          "internalType": "uint256",
          "name": "assetInAmount",
          "type": "uint256"
        },
        {
          "indexed": false,
          "internalType": "uint128",
          "name": "assetOutMin",
          "type": "uint128"
        },
        {
          "indexed": false,
          "internalType": "bytes",
          "name": "callcode",
          "type": "bytes"
        }
      ],
      "name": "Swap",
      "type": "event"
    },
    {
      "anonymous": false,
      "inputs": [
        {
          "indexed": false,
          "internalType": "address",
          "name": "account",
          "type": "address"
        }
      ],
      "name": "Unpaused",
      "type": "event"
    },
    {
      "inputs": [],
      "name": "ASTAR_CHAIN",
      "outputs": [
        {
          "internalType": "bytes1",
          "name": "",
          "type": "bytes1"
        }
      ],
      "stateMutability": "view",
      "type": "function"
    },
    {
      "inputs": [],
      "name": "ASTR_BYTES",
      "outputs": [
        {
          "internalType": "bytes2",
          "name": "",
          "type": "bytes2"
        }
      ],
      "stateMutability": "view",
      "type": "function"
    },
    {
      "inputs": [],
      "name": "BIFROST_PARA_ID",
      "outputs": [
        {
          "internalType": "uint32",
          "name": "",
          "type": "uint32"
        }
      ],
      "stateMutability": "view",
      "type": "function"
    },
    {
      "inputs": [],
      "name": "BNC_ADDRESS",
      "outputs": [
        {
          "internalType": "address",
          "name": "",
          "type": "address"
        }
      ],
      "stateMutability": "view",
      "type": "function"
    },
    {
      "inputs": [],
      "name": "NATIVE_ASSET_ADDRESS",
      "outputs": [
        {
          "internalType": "address",
          "name": "",
          "type": "address"
        }
      ],
      "stateMutability": "view",
      "type": "function"
    },
    {
      "inputs": [],
      "name": "VASTR_BYTES",
      "outputs": [
        {
          "internalType": "bytes2",
          "name": "",
          "type": "bytes2"
        }
      ],
      "stateMutability": "view",
      "type": "function"
    },
    {
      "inputs": [],
      "name": "XCM_ADDRESS",
      "outputs": [
        {
          "internalType": "address",
          "name": "",
          "type": "address"
        }
      ],
      "stateMutability": "view",
      "type": "function"
    },
    {
      "inputs": [
        {
          "internalType": "address",
          "name": "",
          "type": "address"
        }
      ],
      "name": "assetAddressToCurrencyId",
      "outputs": [
        {
          "internalType": "bytes2",
          "name": "",
          "type": "bytes2"
        }
      ],
      "stateMutability": "view",
      "type": "function"
    },
    {
      "inputs": [
        {
          "internalType": "address",
          "name": "",
          "type": "address"
        }
      ],
      "name": "assetAddressToMinimumValue",
      "outputs": [
        {
          "internalType": "uint256",
          "name": "",
          "type": "uint256"
        }
      ],
      "stateMutability": "view",
      "type": "function"
    },
    {
      "inputs": [],
      "name": "bifrostTransactionFee",
      "outputs": [
        {
          "internalType": "uint256",
          "name": "",
          "type": "uint256"
        }
      ],
      "stateMutability": "view",
      "type": "function"
    },
    {
      "inputs": [
        {
          "internalType": "uint256",
          "name": "_bifrostTransactionFee",
          "type": "uint256"
        },
        {
          "internalType": "uint64",
          "name": "_transactWeight",
          "type": "uint64"
        }
      ],
      "name": "initialize",
      "outputs": [],
      "stateMutability": "nonpayable",
      "type": "function"
    },
    {
      "inputs": [
        {
          "internalType": "address",
          "name": "",
          "type": "address"
        },
        {
          "internalType": "uint256",
          "name": "",
          "type": "uint256"
        }
      ],
      "name": "mintVAsset",
      "outputs": [],
      "stateMutability": "pure",
      "type": "function"
    },
    {
      "inputs": [],
      "name": "mintVNativeAsset",
      "outputs": [],
      "stateMutability": "payable",
      "type": "function"
    },
    {
      "inputs": [],
      "name": "owner",
      "outputs": [
        {
          "internalType": "address",
          "name": "",
          "type": "address"
        }
      ],
      "stateMutability": "view",
      "type": "function"
    },
    {
      "inputs": [],
      "name": "pause",
      "outputs": [],
      "stateMutability": "nonpayable",
      "type": "function"
    },
    {
      "inputs": [],
      "name": "paused",
      "outputs": [
        {
          "internalType": "bool",
          "name": "",
          "type": "bool"
        }
      ],
      "stateMutability": "view",
      "type": "function"
    },
    {
      "inputs": [
        {
          "internalType": "address",
          "name": "vAssetAddress",
          "type": "address"
        },
        {
          "internalType": "uint256",
          "name": "amount",
          "type": "uint256"
        }
      ],
      "name": "redeemAsset",
      "outputs": [],
      "stateMutability": "nonpayable",
      "type": "function"
    },
    {
      "inputs": [],
      "name": "renounceOwnership",
      "outputs": [],
      "stateMutability": "nonpayable",
      "type": "function"
    },
    {
      "inputs": [
        {
          "internalType": "address",
          "name": "assetAddress",
          "type": "address"
        },
        {
          "internalType": "bytes2",
          "name": "currencyId",
          "type": "bytes2"
        }
      ],
      "name": "setAssetAddressToCurrencyId",
      "outputs": [],
      "stateMutability": "nonpayable",
      "type": "function"
    },
    {
      "inputs": [
        {
          "internalType": "address",
          "name": "assetAddress",
          "type": "address"
        },
        {
          "internalType": "uint256",
          "name": "minimumValue",
          "type": "uint256"
        }
      ],
      "name": "setAssetAddressToMinimumValue",
      "outputs": [],
      "stateMutability": "nonpayable",
      "type": "function"
    },
    {
      "inputs": [
        {
          "internalType": "uint256",
          "name": "_bifrostTransactionFee",
          "type": "uint256"
        },
        {
          "internalType": "uint64",
          "name": "_transactWeight",
          "type": "uint64"
        }
      ],
      "name": "setBifrostTransactionFee",
      "outputs": [],
      "stateMutability": "nonpayable",
      "type": "function"
    },
    {
      "inputs": [
        {
          "internalType": "address",
          "name": "assetInAddress",
          "type": "address"
        },
        {
          "internalType": "address",
          "name": "assetOutAddress",
          "type": "address"
        },
        {
          "internalType": "uint256",
          "name": "assetInAmount",
          "type": "uint256"
        },
        {
          "internalType": "uint128",
          "name": "assetOutMin",
          "type": "uint128"
        }
      ],
      "name": "swapAssetsForExactAssets",
      "outputs": [],
      "stateMutability": "nonpayable",
      "type": "function"
    },
    {
      "inputs": [
        {
          "internalType": "address",
          "name": "assetInAddress",
          "type": "address"
        },
        {
          "internalType": "uint256",
          "name": "assetInAmount",
          "type": "uint256"
        },
        {
          "internalType": "uint128",
          "name": "assetOutMin",
          "type": "uint128"
        }
      ],
      "name": "swapAssetsForExactNativeAssets",
      "outputs": [],
      "stateMutability": "nonpayable",
      "type": "function"
    },
    {
      "inputs": [
        {
          "internalType": "address",
          "name": "assetOutAddress",
          "type": "address"
        },
        {
          "internalType": "uint128",
          "name": "assetOutMin",
          "type": "uint128"
        }
      ],
      "name": "swapNativeAssetsForExactAssets",
      "outputs": [],
      "stateMutability": "payable",
      "type": "function"
    },
    {
      "inputs": [],
      "name": "transactWeight",
      "outputs": [
        {
          "internalType": "uint64",
          "name": "",
          "type": "uint64"
        }
      ],
      "stateMutability": "view",
      "type": "function"
    },
    {
      "inputs": [
        {
          "internalType": "address",
          "name": "newOwner",
          "type": "address"
        }
      ],
      "name": "transferOwnership",
      "outputs": [],
      "stateMutability": "nonpayable",
      "type": "function"
    },
    {
      "inputs": [],
      "name": "unpause",
      "outputs": [],
      "stateMutability": "nonpayable",
      "type": "function"
    }
  ],
  "transactionHash": "0x37c1700802423092561e120c40a302e5fad80f2de296395940e4c80c157f7135",
  "args": [],
  "numDeployments": 1,
  "solcInputHash": "8476cc78c39988e827a15a8cc5a29359",
  "bytecode": "0x608060405234801561001057600080fd5b50611f11806100206000396000f3fe60806040526004361061019c5760003560e01c80638a6fa437116100ec578063de4f4f1e1161008a578063ef70a06711610064578063ef70a0671461049f578063f163112a146104bf578063f2fde38b146104df578063f342f518146104ff57600080fd5b8063de4f4f1e1461044e578063dfccfc3114610464578063e284db661461048c57600080fd5b8063a1814914116100c6578063a1814914146103b4578063a75d80ff146103d4578063b2a115051461040e578063d45aa53b1461042e57600080fd5b80638a6fa437146103615780638da5cb5b146103765780639097c25d1461039457600080fd5b806366ab963311610159578063715018a611610133578063715018a6146102f357806380f784a8146103085780638456cb59146103215780638831d6181461033657600080fd5b806366ab9633146102ab5780636deea29c146102cb5780636ef67f7f146102eb57600080fd5b80630664916a146101a15780631aa51037146101d8578063261fb596146102135780633c75045e146102415780633f4ba83a146102715780635c975abb14610288575b600080fd5b3480156101ad57600080fd5b506101ba61080360f01b81565b6040516001600160f01b031990911681526020015b60405180910390f35b3480156101e457600080fd5b506102056101f3366004611972565b609a6020526000908152604090205481565b6040519081526020016101cf565b34801561021f57600080fd5b5061022961500481565b6040516001600160a01b0390911681526020016101cf565b34801561024d57600080fd5b506101ba61025c366004611972565b60996020526000908152604090205460f01b81565b34801561027d57600080fd5b5061028661052d565b005b34801561029457600080fd5b5060655460ff1660405190151581526020016101cf565b3480156102b757600080fd5b506102866102c6366004611994565b61053f565b3480156102d757600080fd5b506102866102e63660046119d1565b610629565b610286610805565b3480156102ff57600080fd5b5061028661097b565b34801561031457600080fd5b506101ba61090360f01b81565b34801561032d57600080fd5b5061028661098d565b34801561034257600080fd5b5061034c6107ee81565b60405163ffffffff90911681526020016101cf565b34801561036d57600080fd5b50610229600081565b34801561038257600080fd5b506033546001600160a01b0316610229565b3480156103a057600080fd5b506102866103af366004611a12565b61099d565b3480156103c057600080fd5b506102866103cf3660046119d1565b610ba9565b3480156103e057600080fd5b506098546103f59067ffffffffffffffff1681565b60405167ffffffffffffffff90911681526020016101cf565b34801561041a57600080fd5b50610286610429366004611a5f565b610bcd565b34801561043a57600080fd5b50610286610449366004611994565b610db5565b34801561045a57600080fd5b5061020560975481565b34801561047057600080fd5b5061022973ffffffff0000000000000001000000000000000281565b61028661049a366004611a9b565b610eda565b3480156104ab57600080fd5b506102866104ba3660046119d1565b6110b3565b3480156104cb57600080fd5b506102866104da366004611ace565b6110e9565b3480156104eb57600080fd5b506102866104fa366004611972565b61116c565b34801561050b57600080fd5b50610514600081565b6040516001600160f81b031990911681526020016101cf565b6105356111e5565b61053d61123f565b565b6105476111e5565b64e8d4a510008211156105a15760405162461bcd60e51b815260206004820152601960248201527f5472616e73616374696f6e2046656520746f6f206c617267650000000000000060448201526064015b60405180910390fd5b6402540be4008167ffffffffffffffff1611156106005760405162461bcd60e51b815260206004820152601860248201527f5472616e7361637457656967687420746f6f206c6172676500000000000000006044820152606401610598565b6097919091556098805467ffffffffffffffff191667ffffffffffffffff909216919091179055565b610631611291565b6001600160a01b03821660009081526099602052604090205460f01b6001600160f01b0319811661090360f01b146106995760405162461bcd60e51b815260206004820152600b60248201526a139bdd081cdd5c1c1bdc9d60aa1b6044820152606401610598565b6106a383836112d7565b60405163139bc42560e31b815260009073598efcBD0B5b4Fd0142bEAae1a38f6Bd4d8a218d90639cde2128906106e190339086908690600401611b07565b600060405180830381865af41580156106fe573d6000803e3d6000fd5b505050506040513d6000823e601f3d908101601f191682016040526107269190810190611b82565b609754609854604051637c87590960e11b81529293506150049263f90eb2129261077e926107ee9260009273ffffffff00000000000000010000000000000002929091899167ffffffffffffffff1690600401611c5b565b6020604051808303816000875af115801561079d573d6000803e3d6000fd5b505050506040513d601f19601f820116820180604052508101906107c19190611cb3565b507f08289580fadd4da935641e6814bb9b5e9fc4cccdedcff6d35124fcb578695745338585846040516107f79493929190611cd5565b60405180910390a150505050565b61080d611291565b610816346115ac565b60405163d9bee3b360e01b815260009073598efcBD0B5b4Fd0142bEAae1a38f6Bd4d8a218d9063d9bee3b39061085990339061080360f01b908690600401611b07565b600060405180830381865af4158015610876573d6000803e3d6000fd5b505050506040513d6000823e601f3d908101601f1916820160405261089e9190810190611b82565b609754609854604051637c87590960e11b81529293506150049263f90eb212926108f6926107ee9260009273ffffffff00000000000000010000000000000002929091899167ffffffffffffffff1690600401611c5b565b6020604051808303816000875af1158015610915573d6000803e3d6000fd5b505050506040513d601f19601f820116820180604052508101906109399190611cb3565b507f30c99b8e9449992bd7616d2645b02ee0a2b6f229a45d6b56b686963ff0c5349733600034846040516109709493929190611cd5565b60405180910390a150565b6109836111e5565b61053d60006117bd565b6109956111e5565b61053d61180f565b6109a5611291565b6001600160a01b0380851660009081526099602052604080822054928616825290205460f091821b911b6001600160f01b03198216158015906109f157506001600160f01b0319811615155b610a325760405162461bcd60e51b8152602060048201526012602482015271125b9d985b1a590818dd5c9c995b98de525960721b6044820152606401610598565b610a3c86856112d7565b604051630daf27e360e01b815260009073598efcBD0B5b4Fd0142bEAae1a38f6Bd4d8a218d90630daf27e390610a7e903390879087908a908890600401611d12565b600060405180830381865af4158015610a9b573d6000803e3d6000fd5b505050506040513d6000823e601f3d908101601f19168201604052610ac39190810190611b82565b609754609854604051637c87590960e11b81529293506150049263f90eb21292610b1b926107ee9260009273ffffffff00000000000000010000000000000002929091899167ffffffffffffffff1690600401611c5b565b6020604051808303816000875af1158015610b3a573d6000803e3d6000fd5b505050506040513d601f19601f82011682018060405250810190610b5e9190611cb3565b507f9138260f61fa33975c7836d8bc3bd6a90f1af883710740bbf6341e5664607015338888888886604051610b9896959493929190611d5f565b60405180910390a150505050505050565b610bb16111e5565b6001600160a01b039091166000908152609a6020526040902055565b610bd5611291565b6001600160a01b03831660009081526099602052604090205460f01b6001600160f01b03198116610c3a5760405162461bcd60e51b815260206004820152600f60248201526e24b73b30b634b21030b9b9b2ba24b760891b6044820152606401610598565b610c4484846112d7565b604051630daf27e360e01b815260009073598efcBD0B5b4Fd0142bEAae1a38f6Bd4d8a218d90630daf27e390610c8b903390869061080360f01b9089908890600401611d12565b600060405180830381865af4158015610ca8573d6000803e3d6000fd5b505050506040513d6000823e601f3d908101601f19168201604052610cd09190810190611b82565b609754609854604051637c87590960e11b81529293506150049263f90eb21292610d28926107ee9260009273ffffffff00000000000000010000000000000002929091899167ffffffffffffffff1690600401611c5b565b6020604051808303816000875af1158015610d47573d6000803e3d6000fd5b505050506040513d601f19601f82011682018060405250810190610d6b9190611cb3565b507f9138260f61fa33975c7836d8bc3bd6a90f1af883710740bbf6341e566460701533866000878786604051610da696959493929190611d5f565b60405180910390a15050505050565b600054610100900460ff1615808015610dd55750600054600160ff909116105b80610def5750303b158015610def575060005460ff166001145b610e525760405162461bcd60e51b815260206004820152602e60248201527f496e697469616c697a61626c653a20636f6e747261637420697320616c72656160448201526d191e481a5b9a5d1a585b1a5e995960921b6064820152608401610598565b6000805460ff191660011790558015610e75576000805461ff0019166101001790555b610e7d61184c565b610e8561187b565b610e8f838361053f565b8015610ed5576000805461ff0019169055604051600181527f7f26b83ff96e1f2b6a682f133852f6798a09c465da95921460cefb38474024989060200160405180910390a15b505050565b610ee2611291565b6001600160a01b03821660009081526099602052604090205460f01b6001600160f01b03198116610f485760405162461bcd60e51b815260206004820152601060248201526f125b9d985b1a5908185cdcd95d13dd5d60821b6044820152606401610598565b610f51346115ac565b604051630daf27e360e01b815260009073598efcBD0B5b4Fd0142bEAae1a38f6Bd4d8a218d90630daf27e390610f9890339061080360f01b90879089908890600401611d12565b600060405180830381865af4158015610fb5573d6000803e3d6000fd5b505050506040513d6000823e601f3d908101601f19168201604052610fdd9190810190611b82565b609754609854604051637c87590960e11b81529293506150049263f90eb21292611035926107ee9260009273ffffffff00000000000000010000000000000002929091899167ffffffffffffffff1690600401611c5b565b6020604051808303816000875af1158015611054573d6000803e3d6000fd5b505050506040513d601f19601f820116820180604052508101906110789190611cb3565b507f9138260f61fa33975c7836d8bc3bd6a90f1af883710740bbf6341e5664607015336000863487866040516107f796959493929190611d5f565b60405162461bcd60e51b815260206004820152600b60248201526a139bdd081cdd5c1c1bdc9d60aa1b6044820152606401610598565b6110f16111e5565b6001600160f01b0319811661113d5760405162461bcd60e51b8152602060048201526012602482015271125b9d985b1a590818dd5c9c995b98de525960721b6044820152606401610598565b6001600160a01b03919091166000908152609960205260409020805461ffff191660f09290921c919091179055565b6111746111e5565b6001600160a01b0381166111d95760405162461bcd60e51b815260206004820152602660248201527f4f776e61626c653a206e6577206f776e657220697320746865207a65726f206160448201526564647265737360d01b6064820152608401610598565b6111e2816117bd565b50565b6033546001600160a01b0316331461053d5760405162461bcd60e51b815260206004820181905260248201527f4f776e61626c653a2063616c6c6572206973206e6f7420746865206f776e65726044820152606401610598565b6112476118aa565b6065805460ff191690557f5db9ee0a495bf2e6ff9c91a7834c1ba4fdd244a5e8aa4e537bd38aeae4b073aa335b6040516001600160a01b03909116815260200160405180910390a1565b60655460ff161561053d5760405162461bcd60e51b815260206004820152601060248201526f14185d5cd8589b194e881c185d5cd95960821b6044820152606401610598565b6001600160a01b0382166113245760405162461bcd60e51b8152602060048201526014602482015273496e76616c69642061737365744164647265737360601b6044820152606401610598565b6001600160a01b0382166000908152609a60205260409020548110156113855760405162461bcd60e51b81526020600482015260166024820152754c657373207468616e204d696e696d756d56616c756560501b6044820152606401610598565b600073b6F2B9415fc599130084b7F20B84738aCBB159306332640a52336040516001600160e01b031960e084901b1681526001600160a01b039091166004820152602401602060405180830381865af41580156113e6573d6000803e3d6000fd5b505050506040513d601f19601f8201168201806040525081019061140a9190611db5565b60408051600180825281830190925291925060009190602080830190803683375050604080516001808252818301909252929350600092915060208083019080368337019050509050846001600160a01b0381166323b872dd336040516001600160e01b031960e084901b1681526001600160a01b039091166004820152306024820152604481018890526064016020604051808303816000875af11580156114b7573d6000803e3d6000fd5b505050506040513d601f19601f820116820180604052508101906114db9190611cb3565b5085836000815181106114f0576114f0611dce565b60200260200101906001600160a01b031690816001600160a01b031681525050848260008151811061152457611524611dce565b60209081029190910101526040516219054d60e41b81526150049063019054d090611560908690869089906000906107ee908290600401611de4565b6020604051808303816000875af115801561157f573d6000803e3d6000fd5b505050506040513d601f19601f820116820180604052508101906115a39190611cb3565b50505050505050565b60008052609a6020527fbe6620bd3346e5d7f8387fbec0981aa0d6289d22efa7c935f9ef6841bf2a98c75481101561161f5760405162461bcd60e51b81526020600482015260166024820152754c657373207468616e204d696e696d756d56616c756560501b6044820152606401610598565b600073b6F2B9415fc599130084b7F20B84738aCBB159306332640a52336040516001600160e01b031960e084901b1681526001600160a01b039091166004820152602401602060405180830381865af4158015611680573d6000803e3d6000fd5b505050506040513d601f19601f820116820180604052508101906116a49190611db5565b6040805160018082528183019092529192506000919060208083019080368337505060408051600180825281830190925292935060009291506020808301908036833701905050905060008260008151811061170257611702611dce565b60200260200101906001600160a01b031690816001600160a01b031681525050838160008151811061173657611736611dce565b602090810291909101015260405163400c0e8d60e01b81526150049063400c0e8d90611773908590859088906000906107ee908290600401611de4565b6020604051808303816000875af1158015611792573d6000803e3d6000fd5b505050506040513d601f19601f820116820180604052508101906117b69190611cb3565b5050505050565b603380546001600160a01b038381166001600160a01b0319831681179093556040519116919082907f8be0079c531659141344cd1fd0a4f28419497f9722a3daafe3b4186f6b6457e090600090a35050565b611817611291565b6065805460ff191660011790557f62e78cea01bee320cd4e420270b5ea74000d11b0c9f74754ebdbfc544b05a2586112743390565b600054610100900460ff166118735760405162461bcd60e51b815260040161059890611e90565b61053d6118f3565b600054610100900460ff166118a25760405162461bcd60e51b815260040161059890611e90565b61053d611923565b60655460ff1661053d5760405162461bcd60e51b815260206004820152601460248201527314185d5cd8589b194e881b9bdd081c185d5cd95960621b6044820152606401610598565b600054610100900460ff1661191a5760405162461bcd60e51b815260040161059890611e90565b61053d336117bd565b600054610100900460ff1661194a5760405162461bcd60e51b815260040161059890611e90565b6065805460ff19169055565b80356001600160a01b038116811461196d57600080fd5b919050565b60006020828403121561198457600080fd5b61198d82611956565b9392505050565b600080604083850312156119a757600080fd5b82359150602083013567ffffffffffffffff811681146119c657600080fd5b809150509250929050565b600080604083850312156119e457600080fd5b6119ed83611956565b946020939093013593505050565b80356001600160801b038116811461196d57600080fd5b60008060008060808587031215611a2857600080fd5b611a3185611956565b9350611a3f60208601611956565b925060408501359150611a54606086016119fb565b905092959194509250565b600080600060608486031215611a7457600080fd5b611a7d84611956565b925060208401359150611a92604085016119fb565b90509250925092565b60008060408385031215611aae57600080fd5b611ab783611956565b9150611ac5602084016119fb565b90509250929050565b60008060408385031215611ae157600080fd5b611aea83611956565b915060208301356001600160f01b0319811681146119c657600080fd5b6001600160a01b039390931683526001600160f01b03199190911660208301526001600160f81b031916604082015260600190565b634e487b7160e01b600052604160045260246000fd5b60005b83811015611b6d578181015183820152602001611b55565b83811115611b7c576000848401525b50505050565b600060208284031215611b9457600080fd5b815167ffffffffffffffff80821115611bac57600080fd5b818401915084601f830112611bc057600080fd5b815181811115611bd257611bd2611b3c565b604051601f8201601f19908116603f01168101908382118183101715611bfa57611bfa611b3c565b81604052828152876020848701011115611c1357600080fd5b611c24836020830160208801611b52565b979650505050505050565b60008151808452611c47816020860160208601611b52565b601f01601f19169290920160200192915050565b63ffffffff87168152851515602082015260018060a01b038516604082015283606082015260c060808201526000611c9660c0830185611c2f565b905067ffffffffffffffff831660a0830152979650505050505050565b600060208284031215611cc557600080fd5b8151801515811461198d57600080fd5b6001600160a01b0385811682528416602082015260408101839052608060608201819052600090611d0890830184611c2f565b9695505050505050565b6001600160a01b039590951685526001600160f01b031993841660208601529190921660408401526001600160801b0390911660608301526001600160f81b031916608082015260a00190565b6001600160a01b038781168252868116602083015285166040820152606081018490526001600160801b038316608082015260c060a08201819052600090611da990830184611c2f565b98975050505050505050565b600060208284031215611dc757600080fd5b5051919050565b634e487b7160e01b600052603260045260246000fd5b60c0808252875190820181905260009060209060e0840190828b01845b82811015611e265781516001600160a01b031684529284019290840190600101611e01565b5050508381038285015288518082528983019183019060005b81811015611e5b57835183529284019291840191600101611e3f565b50506040850189905287151560608601529250611e76915050565b63ffffffff93909316608082015260a00152949350505050565b6020808252602b908201527f496e697469616c697a61626c653a20636f6e7472616374206973206e6f74206960408201526a6e697469616c697a696e6760a81b60608201526080019056fea26469706673582212208f2bf97ba63737ee46d92cab598a921e5d21ceafeddfa2336d677e76798bdfee64736f6c634300080a0033",
  "deployedBytecode": "0x60806040526004361061019c5760003560e01c80638a6fa437116100ec578063de4f4f1e1161008a578063ef70a06711610064578063ef70a0671461049f578063f163112a146104bf578063f2fde38b146104df578063f342f518146104ff57600080fd5b8063de4f4f1e1461044e578063dfccfc3114610464578063e284db661461048c57600080fd5b8063a1814914116100c6578063a1814914146103b4578063a75d80ff146103d4578063b2a115051461040e578063d45aa53b1461042e57600080fd5b80638a6fa437146103615780638da5cb5b146103765780639097c25d1461039457600080fd5b806366ab963311610159578063715018a611610133578063715018a6146102f357806380f784a8146103085780638456cb59146103215780638831d6181461033657600080fd5b806366ab9633146102ab5780636deea29c146102cb5780636ef67f7f146102eb57600080fd5b80630664916a146101a15780631aa51037146101d8578063261fb596146102135780633c75045e146102415780633f4ba83a146102715780635c975abb14610288575b600080fd5b3480156101ad57600080fd5b506101ba61080360f01b81565b6040516001600160f01b031990911681526020015b60405180910390f35b3480156101e457600080fd5b506102056101f3366004611972565b609a6020526000908152604090205481565b6040519081526020016101cf565b34801561021f57600080fd5b5061022961500481565b6040516001600160a01b0390911681526020016101cf565b34801561024d57600080fd5b506101ba61025c366004611972565b60996020526000908152604090205460f01b81565b34801561027d57600080fd5b5061028661052d565b005b34801561029457600080fd5b5060655460ff1660405190151581526020016101cf565b3480156102b757600080fd5b506102866102c6366004611994565b61053f565b3480156102d757600080fd5b506102866102e63660046119d1565b610629565b610286610805565b3480156102ff57600080fd5b5061028661097b565b34801561031457600080fd5b506101ba61090360f01b81565b34801561032d57600080fd5b5061028661098d565b34801561034257600080fd5b5061034c6107ee81565b60405163ffffffff90911681526020016101cf565b34801561036d57600080fd5b50610229600081565b34801561038257600080fd5b506033546001600160a01b0316610229565b3480156103a057600080fd5b506102866103af366004611a12565b61099d565b3480156103c057600080fd5b506102866103cf3660046119d1565b610ba9565b3480156103e057600080fd5b506098546103f59067ffffffffffffffff1681565b60405167ffffffffffffffff90911681526020016101cf565b34801561041a57600080fd5b50610286610429366004611a5f565b610bcd565b34801561043a57600080fd5b50610286610449366004611994565b610db5565b34801561045a57600080fd5b5061020560975481565b34801561047057600080fd5b5061022973ffffffff0000000000000001000000000000000281565b61028661049a366004611a9b565b610eda565b3480156104ab57600080fd5b506102866104ba3660046119d1565b6110b3565b3480156104cb57600080fd5b506102866104da366004611ace565b6110e9565b3480156104eb57600080fd5b506102866104fa366004611972565b61116c565b34801561050b57600080fd5b50610514600081565b6040516001600160f81b031990911681526020016101cf565b6105356111e5565b61053d61123f565b565b6105476111e5565b64e8d4a510008211156105a15760405162461bcd60e51b815260206004820152601960248201527f5472616e73616374696f6e2046656520746f6f206c617267650000000000000060448201526064015b60405180910390fd5b6402540be4008167ffffffffffffffff1611156106005760405162461bcd60e51b815260206004820152601860248201527f5472616e7361637457656967687420746f6f206c6172676500000000000000006044820152606401610598565b6097919091556098805467ffffffffffffffff191667ffffffffffffffff909216919091179055565b610631611291565b6001600160a01b03821660009081526099602052604090205460f01b6001600160f01b0319811661090360f01b146106995760405162461bcd60e51b815260206004820152600b60248201526a139bdd081cdd5c1c1bdc9d60aa1b6044820152606401610598565b6106a383836112d7565b60405163139bc42560e31b815260009073__$e184f4046250cd750dfdb139628ab13bdc$__90639cde2128906106e190339086908690600401611b07565b600060405180830381865af41580156106fe573d6000803e3d6000fd5b505050506040513d6000823e601f3d908101601f191682016040526107269190810190611b82565b609754609854604051637c87590960e11b81529293506150049263f90eb2129261077e926107ee9260009273ffffffff00000000000000010000000000000002929091899167ffffffffffffffff1690600401611c5b565b6020604051808303816000875af115801561079d573d6000803e3d6000fd5b505050506040513d601f19601f820116820180604052508101906107c19190611cb3565b507f08289580fadd4da935641e6814bb9b5e9fc4cccdedcff6d35124fcb578695745338585846040516107f79493929190611cd5565b60405180910390a150505050565b61080d611291565b610816346115ac565b60405163d9bee3b360e01b815260009073__$e184f4046250cd750dfdb139628ab13bdc$__9063d9bee3b39061085990339061080360f01b908690600401611b07565b600060405180830381865af4158015610876573d6000803e3d6000fd5b505050506040513d6000823e601f3d908101601f1916820160405261089e9190810190611b82565b609754609854604051637c87590960e11b81529293506150049263f90eb212926108f6926107ee9260009273ffffffff00000000000000010000000000000002929091899167ffffffffffffffff1690600401611c5b565b6020604051808303816000875af1158015610915573d6000803e3d6000fd5b505050506040513d601f19601f820116820180604052508101906109399190611cb3565b507f30c99b8e9449992bd7616d2645b02ee0a2b6f229a45d6b56b686963ff0c5349733600034846040516109709493929190611cd5565b60405180910390a150565b6109836111e5565b61053d60006117bd565b6109956111e5565b61053d61180f565b6109a5611291565b6001600160a01b0380851660009081526099602052604080822054928616825290205460f091821b911b6001600160f01b03198216158015906109f157506001600160f01b0319811615155b610a325760405162461bcd60e51b8152602060048201526012602482015271125b9d985b1a590818dd5c9c995b98de525960721b6044820152606401610598565b610a3c86856112d7565b604051630daf27e360e01b815260009073__$e184f4046250cd750dfdb139628ab13bdc$__90630daf27e390610a7e903390879087908a908890600401611d12565b600060405180830381865af4158015610a9b573d6000803e3d6000fd5b505050506040513d6000823e601f3d908101601f19168201604052610ac39190810190611b82565b609754609854604051637c87590960e11b81529293506150049263f90eb21292610b1b926107ee9260009273ffffffff00000000000000010000000000000002929091899167ffffffffffffffff1690600401611c5b565b6020604051808303816000875af1158015610b3a573d6000803e3d6000fd5b505050506040513d601f19601f82011682018060405250810190610b5e9190611cb3565b507f9138260f61fa33975c7836d8bc3bd6a90f1af883710740bbf6341e5664607015338888888886604051610b9896959493929190611d5f565b60405180910390a150505050505050565b610bb16111e5565b6001600160a01b039091166000908152609a6020526040902055565b610bd5611291565b6001600160a01b03831660009081526099602052604090205460f01b6001600160f01b03198116610c3a5760405162461bcd60e51b815260206004820152600f60248201526e24b73b30b634b21030b9b9b2ba24b760891b6044820152606401610598565b610c4484846112d7565b604051630daf27e360e01b815260009073__$e184f4046250cd750dfdb139628ab13bdc$__90630daf27e390610c8b903390869061080360f01b9089908890600401611d12565b600060405180830381865af4158015610ca8573d6000803e3d6000fd5b505050506040513d6000823e601f3d908101601f19168201604052610cd09190810190611b82565b609754609854604051637c87590960e11b81529293506150049263f90eb21292610d28926107ee9260009273ffffffff00000000000000010000000000000002929091899167ffffffffffffffff1690600401611c5b565b6020604051808303816000875af1158015610d47573d6000803e3d6000fd5b505050506040513d601f19601f82011682018060405250810190610d6b9190611cb3565b507f9138260f61fa33975c7836d8bc3bd6a90f1af883710740bbf6341e566460701533866000878786604051610da696959493929190611d5f565b60405180910390a15050505050565b600054610100900460ff1615808015610dd55750600054600160ff909116105b80610def5750303b158015610def575060005460ff166001145b610e525760405162461bcd60e51b815260206004820152602e60248201527f496e697469616c697a61626c653a20636f6e747261637420697320616c72656160448201526d191e481a5b9a5d1a585b1a5e995960921b6064820152608401610598565b6000805460ff191660011790558015610e75576000805461ff0019166101001790555b610e7d61184c565b610e8561187b565b610e8f838361053f565b8015610ed5576000805461ff0019169055604051600181527f7f26b83ff96e1f2b6a682f133852f6798a09c465da95921460cefb38474024989060200160405180910390a15b505050565b610ee2611291565b6001600160a01b03821660009081526099602052604090205460f01b6001600160f01b03198116610f485760405162461bcd60e51b815260206004820152601060248201526f125b9d985b1a5908185cdcd95d13dd5d60821b6044820152606401610598565b610f51346115ac565b604051630daf27e360e01b815260009073__$e184f4046250cd750dfdb139628ab13bdc$__90630daf27e390610f9890339061080360f01b90879089908890600401611d12565b600060405180830381865af4158015610fb5573d6000803e3d6000fd5b505050506040513d6000823e601f3d908101601f19168201604052610fdd9190810190611b82565b609754609854604051637c87590960e11b81529293506150049263f90eb21292611035926107ee9260009273ffffffff00000000000000010000000000000002929091899167ffffffffffffffff1690600401611c5b565b6020604051808303816000875af1158015611054573d6000803e3d6000fd5b505050506040513d601f19601f820116820180604052508101906110789190611cb3565b507f9138260f61fa33975c7836d8bc3bd6a90f1af883710740bbf6341e5664607015336000863487866040516107f796959493929190611d5f565b60405162461bcd60e51b815260206004820152600b60248201526a139bdd081cdd5c1c1bdc9d60aa1b6044820152606401610598565b6110f16111e5565b6001600160f01b0319811661113d5760405162461bcd60e51b8152602060048201526012602482015271125b9d985b1a590818dd5c9c995b98de525960721b6044820152606401610598565b6001600160a01b03919091166000908152609960205260409020805461ffff191660f09290921c919091179055565b6111746111e5565b6001600160a01b0381166111d95760405162461bcd60e51b815260206004820152602660248201527f4f776e61626c653a206e6577206f776e657220697320746865207a65726f206160448201526564647265737360d01b6064820152608401610598565b6111e2816117bd565b50565b6033546001600160a01b0316331461053d5760405162461bcd60e51b815260206004820181905260248201527f4f776e61626c653a2063616c6c6572206973206e6f7420746865206f776e65726044820152606401610598565b6112476118aa565b6065805460ff191690557f5db9ee0a495bf2e6ff9c91a7834c1ba4fdd244a5e8aa4e537bd38aeae4b073aa335b6040516001600160a01b03909116815260200160405180910390a1565b60655460ff161561053d5760405162461bcd60e51b815260206004820152601060248201526f14185d5cd8589b194e881c185d5cd95960821b6044820152606401610598565b6001600160a01b0382166113245760405162461bcd60e51b8152602060048201526014602482015273496e76616c69642061737365744164647265737360601b6044820152606401610598565b6001600160a01b0382166000908152609a60205260409020548110156113855760405162461bcd60e51b81526020600482015260166024820152754c657373207468616e204d696e696d756d56616c756560501b6044820152606401610598565b600073__$ddfb0e6c1c4d05795fcce73a90830b0995$__6332640a52336040516001600160e01b031960e084901b1681526001600160a01b039091166004820152602401602060405180830381865af41580156113e6573d6000803e3d6000fd5b505050506040513d601f19601f8201168201806040525081019061140a9190611db5565b60408051600180825281830190925291925060009190602080830190803683375050604080516001808252818301909252929350600092915060208083019080368337019050509050846001600160a01b0381166323b872dd336040516001600160e01b031960e084901b1681526001600160a01b039091166004820152306024820152604481018890526064016020604051808303816000875af11580156114b7573d6000803e3d6000fd5b505050506040513d601f19601f820116820180604052508101906114db9190611cb3565b5085836000815181106114f0576114f0611dce565b60200260200101906001600160a01b031690816001600160a01b031681525050848260008151811061152457611524611dce565b60209081029190910101526040516219054d60e41b81526150049063019054d090611560908690869089906000906107ee908290600401611de4565b6020604051808303816000875af115801561157f573d6000803e3d6000fd5b505050506040513d601f19601f820116820180604052508101906115a39190611cb3565b50505050505050565b60008052609a6020527fbe6620bd3346e5d7f8387fbec0981aa0d6289d22efa7c935f9ef6841bf2a98c75481101561161f5760405162461bcd60e51b81526020600482015260166024820152754c657373207468616e204d696e696d756d56616c756560501b6044820152606401610598565b600073__$ddfb0e6c1c4d05795fcce73a90830b0995$__6332640a52336040516001600160e01b031960e084901b1681526001600160a01b039091166004820152602401602060405180830381865af4158015611680573d6000803e3d6000fd5b505050506040513d601f19601f820116820180604052508101906116a49190611db5565b6040805160018082528183019092529192506000919060208083019080368337505060408051600180825281830190925292935060009291506020808301908036833701905050905060008260008151811061170257611702611dce565b60200260200101906001600160a01b031690816001600160a01b031681525050838160008151811061173657611736611dce565b602090810291909101015260405163400c0e8d60e01b81526150049063400c0e8d90611773908590859088906000906107ee908290600401611de4565b6020604051808303816000875af1158015611792573d6000803e3d6000fd5b505050506040513d601f19601f820116820180604052508101906117b69190611cb3565b5050505050565b603380546001600160a01b038381166001600160a01b0319831681179093556040519116919082907f8be0079c531659141344cd1fd0a4f28419497f9722a3daafe3b4186f6b6457e090600090a35050565b611817611291565b6065805460ff191660011790557f62e78cea01bee320cd4e420270b5ea74000d11b0c9f74754ebdbfc544b05a2586112743390565b600054610100900460ff166118735760405162461bcd60e51b815260040161059890611e90565b61053d6118f3565b600054610100900460ff166118a25760405162461bcd60e51b815260040161059890611e90565b61053d611923565b60655460ff1661053d5760405162461bcd60e51b815260206004820152601460248201527314185d5cd8589b194e881b9bdd081c185d5cd95960621b6044820152606401610598565b600054610100900460ff1661191a5760405162461bcd60e51b815260040161059890611e90565b61053d336117bd565b600054610100900460ff1661194a5760405162461bcd60e51b815260040161059890611e90565b6065805460ff19169055565b80356001600160a01b038116811461196d57600080fd5b919050565b60006020828403121561198457600080fd5b61198d82611956565b9392505050565b600080604083850312156119a757600080fd5b82359150602083013567ffffffffffffffff811681146119c657600080fd5b809150509250929050565b600080604083850312156119e457600080fd5b6119ed83611956565b946020939093013593505050565b80356001600160801b038116811461196d57600080fd5b60008060008060808587031215611a2857600080fd5b611a3185611956565b9350611a3f60208601611956565b925060408501359150611a54606086016119fb565b905092959194509250565b600080600060608486031215611a7457600080fd5b611a7d84611956565b925060208401359150611a92604085016119fb565b90509250925092565b60008060408385031215611aae57600080fd5b611ab783611956565b9150611ac5602084016119fb565b90509250929050565b60008060408385031215611ae157600080fd5b611aea83611956565b915060208301356001600160f01b0319811681146119c657600080fd5b6001600160a01b039390931683526001600160f01b03199190911660208301526001600160f81b031916604082015260600190565b634e487b7160e01b600052604160045260246000fd5b60005b83811015611b6d578181015183820152602001611b55565b83811115611b7c576000848401525b50505050565b600060208284031215611b9457600080fd5b815167ffffffffffffffff80821115611bac57600080fd5b818401915084601f830112611bc057600080fd5b815181811115611bd257611bd2611b3c565b604051601f8201601f19908116603f01168101908382118183101715611bfa57611bfa611b3c565b81604052828152876020848701011115611c1357600080fd5b611c24836020830160208801611b52565b979650505050505050565b60008151808452611c47816020860160208601611b52565b601f01601f19169290920160200192915050565b63ffffffff87168152851515602082015260018060a01b038516604082015283606082015260c060808201526000611c9660c0830185611c2f565b905067ffffffffffffffff831660a0830152979650505050505050565b600060208284031215611cc557600080fd5b8151801515811461198d57600080fd5b6001600160a01b0385811682528416602082015260408101839052608060608201819052600090611d0890830184611c2f565b9695505050505050565b6001600160a01b039590951685526001600160f01b031993841660208601529190921660408401526001600160801b0390911660608301526001600160f81b031916608082015260a00190565b6001600160a01b038781168252868116602083015285166040820152606081018490526001600160801b038316608082015260c060a08201819052600090611da990830184611c2f565b98975050505050505050565b600060208284031215611dc757600080fd5b5051919050565b634e487b7160e01b600052603260045260246000fd5b60c0808252875190820181905260009060209060e0840190828b01845b82811015611e265781516001600160a01b031684529284019290840190600101611e01565b5050508381038285015288518082528983019183019060005b81811015611e5b57835183529284019291840191600101611e3f565b50506040850189905287151560608601529250611e76915050565b63ffffffff93909316608082015260a00152949350505050565b6020808252602b908201527f496e697469616c697a61626c653a20636f6e7472616374206973206e6f74206960408201526a6e697469616c697a696e6760a81b60608201526080019056fea26469706673582212208f2bf97ba63737ee46d92cab598a921e5d21ceafeddfa2336d677e76798bdfee64736f6c634300080a0033",
  "libraries": {
    "AddressToAccount": "0xb6F2B9415fc599130084b7F20B84738aCBB15930",
    "BuildCallData": "0x598efcBD0B5b4Fd0142bEAae1a38f6Bd4d8a218d"
  },
  "devdoc": {
    "kind": "dev",
    "methods": {
      "owner()": {
        "details": "Returns the address of the current owner."
      },
      "paused()": {
        "details": "Returns true if the contract is paused, and false otherwise."
      },
      "renounceOwnership()": {
        "details": "Leaves the contract without owner. It will not be possible to call `onlyOwner` functions. Can only be called by the current owner. NOTE: Renouncing ownership will leave the contract without an owner, thereby disabling any functionality that is only available to the owner."
      },
      "transferOwnership(address)": {
        "details": "Transfers ownership of the contract to a new account (`newOwner`). Can only be called by the current owner."
      }
    },
    "version": 1
  },
  "userdoc": {
    "kind": "user",
    "methods": {
      "mintVNativeAsset()": {
        "notice": "Minted vNative assets such as vASTR, vGLMR, vMOVR"
      },
      "redeemAsset(address,uint256)": {
        "notice": "Redeem assets"
      },
      "swapAssetsForExactAssets(address,address,uint256,uint128)": {
        "notice": "Swap one asset for another"
      },
      "swapAssetsForExactNativeAssets(address,uint256,uint128)": {
        "notice": "Swap one asset for native asset"
      },
      "swapNativeAssetsForExactAssets(address,uint128)": {
        "notice": "Swap native asset for another"
      }
    },
    "version": 1
  },
  "storageLayout": {
    "storage": [
      {
        "astId": 138,
        "contract": "contracts/AstarSlpx.sol:AstarSlpx",
        "label": "_initialized",
        "offset": 0,
        "slot": "0",
        "type": "t_uint8"
      },
      {
        "astId": 141,
        "contract": "contracts/AstarSlpx.sol:AstarSlpx",
        "label": "_initializing",
        "offset": 1,
        "slot": "0",
        "type": "t_bool"
      },
      {
        "astId": 798,
        "contract": "contracts/AstarSlpx.sol:AstarSlpx",
        "label": "__gap",
        "offset": 0,
        "slot": "1",
        "type": "t_array(t_uint256)50_storage"
      },
      {
        "astId": 10,
        "contract": "contracts/AstarSlpx.sol:AstarSlpx",
        "label": "_owner",
        "offset": 0,
        "slot": "51",
        "type": "t_address"
      },
      {
        "astId": 130,
        "contract": "contracts/AstarSlpx.sol:AstarSlpx",
        "label": "__gap",
        "offset": 0,
        "slot": "52",
        "type": "t_array(t_uint256)49_storage"
      },
      {
        "astId": 321,
        "contract": "contracts/AstarSlpx.sol:AstarSlpx",
        "label": "_paused",
        "offset": 0,
        "slot": "101",
        "type": "t_bool"
      },
      {
        "astId": 426,
        "contract": "contracts/AstarSlpx.sol:AstarSlpx",
        "label": "__gap",
        "offset": 0,
        "slot": "102",
        "type": "t_array(t_uint256)49_storage"
      },
      {
        "astId": 915,
        "contract": "contracts/AstarSlpx.sol:AstarSlpx",
        "label": "bifrostTransactionFee",
        "offset": 0,
        "slot": "151",
        "type": "t_uint256"
      },
      {
        "astId": 917,
        "contract": "contracts/AstarSlpx.sol:AstarSlpx",
        "label": "transactWeight",
        "offset": 0,
        "slot": "152",
        "type": "t_uint64"
      },
      {
        "astId": 921,
        "contract": "contracts/AstarSlpx.sol:AstarSlpx",
        "label": "assetAddressToCurrencyId",
        "offset": 0,
        "slot": "153",
        "type": "t_mapping(t_address,t_bytes2)"
      },
      {
        "astId": 925,
        "contract": "contracts/AstarSlpx.sol:AstarSlpx",
        "label": "assetAddressToMinimumValue",
        "offset": 0,
        "slot": "154",
        "type": "t_mapping(t_address,t_uint256)"
      }
    ],
    "types": {
      "t_address": {
        "encoding": "inplace",
        "label": "address",
        "numberOfBytes": "20"
      },
      "t_array(t_uint256)49_storage": {
        "base": "t_uint256",
        "encoding": "inplace",
        "label": "uint256[49]",
        "numberOfBytes": "1568"
      },
      "t_array(t_uint256)50_storage": {
        "base": "t_uint256",
        "encoding": "inplace",
        "label": "uint256[50]",
        "numberOfBytes": "1600"
      },
      "t_bool": {
        "encoding": "inplace",
        "label": "bool",
        "numberOfBytes": "1"
      },
      "t_bytes2": {
        "encoding": "inplace",
        "label": "bytes2",
        "numberOfBytes": "2"
      },
      "t_mapping(t_address,t_bytes2)": {
        "encoding": "mapping",
        "key": "t_address",
        "label": "mapping(address => bytes2)",
        "numberOfBytes": "32",
        "value": "t_bytes2"
      },
      "t_mapping(t_address,t_uint256)": {
        "encoding": "mapping",
        "key": "t_address",
        "label": "mapping(address => uint256)",
        "numberOfBytes": "32",
        "value": "t_uint256"
      },
      "t_uint256": {
        "encoding": "inplace",
        "label": "uint256",
        "numberOfBytes": "32"
      },
      "t_uint64": {
        "encoding": "inplace",
        "label": "uint64",
        "numberOfBytes": "8"
      },
      "t_uint8": {
        "encoding": "inplace",
        "label": "uint8",
        "numberOfBytes": "1"
      }
    }
  }
}