{
  "address": "0x1668cb6581C7fE936596be4eA4c28eA59A690c31",
  "abi": [
    {
      "anonymous": false,
      "inputs": [
        {
          "indexed": false,
          "internalType": "uint8",
          "name": "version",
          "type": "uint8"
        }
      ],
      "name": "Initialized",
      "type": "event"
    },
    {
      "anonymous": false,
      "inputs": [
        {
          "indexed": false,
          "internalType": "address",
          "name": "minter",
          "type": "address"
        },
        {
          "indexed": false,
          "internalType": "address",
          "name": "assetAddress",
          "type": "address"
        },
        {
          "indexed": false,
          "internalType": "uint256",
          "name": "amount",
          "type": "uint256"
        },
        {
          "indexed": false,
          "internalType": "address",
          "name": "receiver",
          "type": "address"
        },
        {
          "indexed": false,
          "internalType": "bytes",
          "name": "callcode",
          "type": "bytes"
        }
      ],
      "name": "Mint",
      "type": "event"
    },
    {
      "anonymous": false,
      "inputs": [
        {
          "indexed": true,
          "internalType": "address",
          "name": "previousOwner",
          "type": "address"
        },
        {
          "indexed": true,
          "internalType": "address",
          "name": "newOwner",
          "type": "address"
        }
      ],
      "name": "OwnershipTransferred",
      "type": "event"
    },
    {
      "anonymous": false,
      "inputs": [
        {
          "indexed": false,
          "internalType": "address",
          "name": "account",
          "type": "address"
        }
      ],
      "name": "Paused",
      "type": "event"
    },
    {
      "anonymous": false,
      "inputs": [
        {
          "indexed": false,
          "internalType": "address",
          "name": "redeemer",
          "type": "address"
        },
        {
          "indexed": false,
          "internalType": "address",
          "name": "assetAddress",
          "type": "address"
        },
        {
          "indexed": false,
          "internalType": "uint256",
          "name": "amount",
          "type": "uint256"
        },
        {
          "indexed": false,
          "internalType": "address",
          "name": "receiver",
          "type": "address"
        },
        {
          "indexed": false,
          "internalType": "bytes",
          "name": "callcode",
          "type": "bytes"
        }
      ],
      "name": "Redeem",
      "type": "event"
    },
    {
      "anonymous": false,
      "inputs": [
        {
          "indexed": false,
          "internalType": "address",
          "name": "swapper",
          "type": "address"
        },
        {
          "indexed": false,
          "internalType": "address",
          "name": "assetInAddress",
          "type": "address"
        },
        {
          "indexed": false,
          "internalType": "address",
          "name": "assetOutAddress",
          "type": "address"
        },
        {
          "indexed": false,
          "internalType": "uint256",
          "name": "assetInAmount",
          "type": "uint256"
        },
        {
          "indexed": false,
          "internalType": "uint128",
          "name": "assetOutMin",
          "type": "uint128"
        },
        {
          "indexed": false,
          "internalType": "address",
          "name": "receiver",
          "type": "address"
        },
        {
          "indexed": false,
          "internalType": "bytes",
          "name": "callcode",
          "type": "bytes"
        }
      ],
      "name": "Swap",
      "type": "event"
    },
    {
      "anonymous": false,
      "inputs": [
        {
          "indexed": false,
          "internalType": "address",
          "name": "account",
          "type": "address"
        }
      ],
      "name": "Unpaused",
      "type": "event"
    },
    {
      "inputs": [],
      "name": "BNCAddress",
      "outputs": [
        {
          "internalType": "address",
          "name": "",
          "type": "address"
        }
      ],
      "stateMutability": "view",
      "type": "function"
    },
    {
      "inputs": [],
      "name": "MOONBEAM_CHAIN",
      "outputs": [
        {
          "internalType": "bytes1",
          "name": "",
          "type": "bytes1"
        }
      ],
      "stateMutability": "view",
      "type": "function"
    },
    {
      "inputs": [],
      "name": "NATIVE_ASSET_ADDRESS",
      "outputs": [
        {
          "internalType": "address",
          "name": "",
          "type": "address"
        }
      ],
      "stateMutability": "view",
      "type": "function"
    },
    {
      "inputs": [],
      "name": "XCM_TRANSACTORV2_ADDRESS",
      "outputs": [
        {
          "internalType": "address",
          "name": "",
          "type": "address"
        }
      ],
      "stateMutability": "view",
      "type": "function"
    },
    {
      "inputs": [],
      "name": "XTOKENS",
      "outputs": [
        {
          "internalType": "address",
          "name": "",
          "type": "address"
        }
      ],
      "stateMutability": "view",
      "type": "function"
    },
    {
      "inputs": [
        {
          "internalType": "address",
          "name": "",
          "type": "address"
        }
      ],
      "name": "assetAddressToCurrencyId",
      "outputs": [
        {
          "internalType": "bytes2",
          "name": "",
          "type": "bytes2"
        }
      ],
      "stateMutability": "view",
      "type": "function"
    },
    {
      "inputs": [
        {
          "internalType": "address",
          "name": "",
          "type": "address"
        }
      ],
      "name": "assetAddressToMinimumValue",
      "outputs": [
        {
          "internalType": "uint256",
          "name": "",
          "type": "uint256"
        }
      ],
      "stateMutability": "view",
      "type": "function"
    },
    {
      "inputs": [],
      "name": "bifrostParaId",
      "outputs": [
        {
          "internalType": "uint32",
          "name": "",
          "type": "uint32"
        }
      ],
      "stateMutability": "view",
      "type": "function"
    },
    {
      "inputs": [],
      "name": "feeAmount",
      "outputs": [
        {
          "internalType": "uint256",
          "name": "",
          "type": "uint256"
        }
      ],
      "stateMutability": "view",
      "type": "function"
    },
    {
      "inputs": [
        {
          "internalType": "address",
          "name": "_BNCAddress",
          "type": "address"
        },
        {
          "internalType": "uint32",
          "name": "_bifrostParaId",
          "type": "uint32"
        },
        {
          "internalType": "bytes2",
          "name": "_nativeCurrencyId",
          "type": "bytes2"
        }
      ],
      "name": "initialize",
      "outputs": [],
      "stateMutability": "nonpayable",
      "type": "function"
    },
    {
      "inputs": [
        {
          "internalType": "address",
          "name": "assetAddress",
          "type": "address"
        },
        {
          "internalType": "uint256",
          "name": "amount",
          "type": "uint256"
        },
        {
          "internalType": "address",
          "name": "receiver",
          "type": "address"
        }
      ],
      "name": "mintVAsset",
      "outputs": [],
      "stateMutability": "nonpayable",
      "type": "function"
    },
    {
      "inputs": [
        {
          "internalType": "address",
          "name": "receiver",
          "type": "address"
        }
      ],
      "name": "mintVNativeAsset",
      "outputs": [],
      "stateMutability": "payable",
      "type": "function"
    },
    {
      "inputs": [],
      "name": "nativeCurrencyId",
      "outputs": [
        {
          "internalType": "bytes2",
          "name": "",
          "type": "bytes2"
        }
      ],
      "stateMutability": "view",
      "type": "function"
    },
    {
      "inputs": [],
      "name": "overallWeight",
      "outputs": [
        {
          "internalType": "uint64",
          "name": "",
          "type": "uint64"
        }
      ],
      "stateMutability": "view",
      "type": "function"
    },
    {
      "inputs": [],
      "name": "owner",
      "outputs": [
        {
          "internalType": "address",
          "name": "",
          "type": "address"
        }
      ],
      "stateMutability": "view",
      "type": "function"
    },
    {
      "inputs": [],
      "name": "pause",
      "outputs": [],
      "stateMutability": "nonpayable",
      "type": "function"
    },
    {
      "inputs": [],
      "name": "paused",
      "outputs": [
        {
          "internalType": "bool",
          "name": "",
          "type": "bool"
        }
      ],
      "stateMutability": "view",
      "type": "function"
    },
    {
      "inputs": [
        {
          "internalType": "address",
          "name": "vAssetAddress",
          "type": "address"
        },
        {
          "internalType": "uint256",
          "name": "amount",
          "type": "uint256"
        },
        {
          "internalType": "address",
          "name": "receiver",
          "type": "address"
        }
      ],
      "name": "redeemAsset",
      "outputs": [],
      "stateMutability": "nonpayable",
      "type": "function"
    },
    {
      "inputs": [],
      "name": "renounceOwnership",
      "outputs": [],
      "stateMutability": "nonpayable",
      "type": "function"
    },
    {
      "inputs": [
        {
          "internalType": "address",
          "name": "assetAddress",
          "type": "address"
        },
        {
          "internalType": "uint256",
          "name": "minimumValue",
          "type": "uint256"
        },
        {
          "internalType": "bytes2",
          "name": "currencyId",
          "type": "bytes2"
        }
      ],
      "name": "setAssetAddressInfo",
      "outputs": [],
      "stateMutability": "nonpayable",
      "type": "function"
    },
    {
      "inputs": [
        {
          "internalType": "uint64",
          "name": "_xtokenWeight",
          "type": "uint64"
        },
        {
          "internalType": "uint64",
          "name": "_transactRequiredWeightAtMost",
          "type": "uint64"
        },
        {
          "internalType": "uint64",
          "name": "_overallWeight",
          "type": "uint64"
        },
        {
          "internalType": "uint256",
          "name": "_feeAmount",
          "type": "uint256"
        }
      ],
      "name": "setFee",
      "outputs": [],
      "stateMutability": "nonpayable",
      "type": "function"
    },
    {
      "inputs": [
        {
          "internalType": "address",
          "name": "assetInAddress",
          "type": "address"
        },
        {
          "internalType": "address",
          "name": "assetOutAddress",
          "type": "address"
        },
        {
          "internalType": "uint256",
          "name": "assetInAmount",
          "type": "uint256"
        },
        {
          "internalType": "uint128",
          "name": "assetOutMin",
          "type": "uint128"
        },
        {
          "internalType": "address",
          "name": "receiver",
          "type": "address"
        }
      ],
      "name": "swapAssetsForExactAssets",
      "outputs": [],
      "stateMutability": "nonpayable",
      "type": "function"
    },
    {
      "inputs": [
        {
          "internalType": "address",
          "name": "assetInAddress",
          "type": "address"
        },
        {
          "internalType": "uint256",
          "name": "assetInAmount",
          "type": "uint256"
        },
        {
          "internalType": "uint128",
          "name": "assetOutMin",
          "type": "uint128"
        },
        {
          "internalType": "address",
          "name": "receiver",
          "type": "address"
        }
      ],
      "name": "swapAssetsForExactNativeAssets",
      "outputs": [],
      "stateMutability": "nonpayable",
      "type": "function"
    },
    {
      "inputs": [
        {
          "internalType": "address",
          "name": "assetOutAddress",
          "type": "address"
        },
        {
          "internalType": "uint128",
          "name": "assetOutMin",
          "type": "uint128"
        },
        {
          "internalType": "address",
          "name": "receiver",
          "type": "address"
        }
      ],
      "name": "swapNativeAssetsForExactAssets",
      "outputs": [],
      "stateMutability": "payable",
      "type": "function"
    },
    {
      "inputs": [
        {
          "internalType": "bytes",
          "name": "callData",
          "type": "bytes"
        }
      ],
      "name": "tranact",
      "outputs": [],
      "stateMutability": "nonpayable",
      "type": "function"
    },
    {
      "inputs": [],
      "name": "transactRequiredWeightAtMost",
      "outputs": [
        {
          "internalType": "uint64",
          "name": "",
          "type": "uint64"
        }
      ],
      "stateMutability": "view",
      "type": "function"
    },
    {
      "inputs": [
        {
          "internalType": "address",
          "name": "newOwner",
          "type": "address"
        }
      ],
      "name": "transferOwnership",
      "outputs": [],
      "stateMutability": "nonpayable",
      "type": "function"
    },
    {
      "inputs": [],
      "name": "unpause",
      "outputs": [],
      "stateMutability": "nonpayable",
      "type": "function"
    },
    {
      "inputs": [],
      "name": "xcmTransactorDestination",
      "outputs": [
        {
          "internalType": "uint8",
          "name": "parents",
          "type": "uint8"
        }
      ],
      "stateMutability": "view",
      "type": "function"
    },
    {
      "inputs": [
        {
          "internalType": "uint256",
          "name": "amount",
          "type": "uint256"
        }
      ],
      "name": "xcmTransferNativeAsset",
      "outputs": [],
      "stateMutability": "payable",
      "type": "function"
    },
    {
      "inputs": [],
      "name": "xtokenWeight",
      "outputs": [
        {
          "internalType": "uint64",
          "name": "",
          "type": "uint64"
        }
      ],
      "stateMutability": "view",
      "type": "function"
    }
  ],
  "transactionHash": "0x7efd9b7cf2dfeba96e01ebdf3db93663d49a9a5e12ea1eb1ca1813bf1cb2593f",
  "args": [],
  "numDeployments": 3,
  "solcInputHash": "5f497bf5a0c85fd36138a7db9d1c5ecf",
  "bytecode": "0x608060405234801561001057600080fd5b50612b6b806100206000396000f3fe6080604052600436106101d85760003560e01c8063715018a611610102578063c1b8cba011610095578063d75205cf11610064578063d75205cf146105af578063d7c274c0146105c2578063eddc8b91146105d8578063f2fde38b146105ee57600080fd5b8063c1b8cba014610505578063c86093a814610525578063c87e5a9e1461055e578063d6aa374d1461058f57600080fd5b806394cb2e49116100d157806394cb2e491461047e578063a11b0037146104a5578063a23206bf146104c5578063adfc7c16146104e557600080fd5b8063715018a6146104205780638456cb59146104355780638a6fa4371461044a5780638da5cb5b1461046057600080fd5b80634899b9a81161017a5780635c975abb116101495780635c975abb146103b45780635ede2882146103d757806367559997146103f757806369e154041461040a57600080fd5b80634899b9a8146103285780634acedccb146103485780634eb82d9f146103685780635bbfef451461039457600080fd5b8063374f00ff116101b6578063374f00ff1461026c5780633c75045e146102a45780633d587204146102d45780633f4ba83a1461031357600080fd5b80631aa51037146101dd57806323e498791461021d5780632ac7343d14610232575b600080fd5b3480156101e957600080fd5b5061020a6101f83660046122ce565b609d6020526000908152604090205481565b6040519081526020015b60405180910390f35b61023061022b366004612307565b61060e565b005b34801561023e57600080fd5b5060995461025390600160c01b900460f01b81565b6040516001600160f01b03199091168152602001610214565b34801561027857600080fd5b5060995461028c906001600160a01b031681565b6040516001600160a01b039091168152602001610214565b3480156102b057600080fd5b506102536102bf3660046122ce565b609c6020526000908152604090205460f01b81565b3480156102e057600080fd5b506097546102fb90600160801b90046001600160401b031681565b6040516001600160401b039091168152602001610214565b34801561031f57600080fd5b50610230610838565b34801561033457600080fd5b5061023061034336600461234a565b61084a565b34801561035457600080fd5b50610230610363366004612394565b610a4a565b34801561037457600080fd5b50609a546103829060ff1681565b60405160ff9091168152602001610214565b3480156103a057600080fd5b506102306103af3660046123f7565b610c18565b3480156103c057600080fd5b5060655460ff166040519015158152602001610214565b3480156103e357600080fd5b506102306103f236600461243c565b610f78565b6102306104053660046122ce565b6111b0565b34801561041657600080fd5b5061020a60985481565b34801561042c57600080fd5b50610230611364565b34801561044157600080fd5b50610230611376565b34801561045657600080fd5b5061028c61080281565b34801561046c57600080fd5b506033546001600160a01b031661028c565b34801561048a57600080fd5b506097546102fb90600160401b90046001600160401b031681565b3480156104b157600080fd5b506097546102fb906001600160401b031681565b3480156104d157600080fd5b506102306104e036600461234a565b611386565b3480156104f157600080fd5b5061023061050036600461249a565b611549565b34801561051157600080fd5b5061023061052036600461253a565b611642565b34801561053157600080fd5b5060995461054990600160a01b900463ffffffff1681565b60405163ffffffff9091168152602001610214565b34801561056a57600080fd5b50610576600160f81b81565b6040516001600160f81b03199091168152602001610214565b34801561059b57600080fd5b506102306105aa3660046125b9565b6116d4565b6102306105bd366004612606565b6118fb565b3480156105ce57600080fd5b5061028c61080481565b3480156105e457600080fd5b5061028c61080d81565b3480156105fa57600080fd5b506102306106093660046122ce565b611ae4565b610616611b5d565b6001600160a01b0383166000908152609c602052604090205460f01b6001600160f01b031981166106815760405162461bcd60e51b815260206004820152601060248201526f125b9d985b1a5908185cdcd95d13dd5d60821b60448201526064015b60405180910390fd5b61068a346118fb565b6040516000906106a490600160f81b90859060200161261f565b60405160208183030381529060405290506000733bE8d3D1A52737A976Fa5033304462BF98A7736463cb070de56106d83390565b6099546040516001600160e01b031960e085901b16815261070d9291600160c01b900460f01b9088908b9089906004016126a3565b600060405180830381865af415801561072a573d6000803e3d6000fd5b505050506040513d6000823e601f3d908101601f1916820160405261075291908101906126f9565b609954609754609854604051635b2479ff60e11b815293945061080d9363b648f3fe936107b393609a936001600160a01b0392909216926001600160401b03600160401b83048116938a939092600160801b909104909116906004016127aa565b600060405180830381600087803b1580156107cd57600080fd5b505af11580156107e1573d6000803e3d6000fd5b505050507fe869557c53c6b4ca27e56668068f17eca71394d04718a9214a7667f1474950ff61080d3390565b61080288348989876040516108289796959493929190612900565b60405180910390a1505050505050565b610840611ba3565b610848611bfd565b565b610852611b5d565b6001600160a01b0383166000908152609c602052604090205460f01b6001600160f01b031981166108bd5760405162461bcd60e51b8152602060048201526015602482015274496e76616c6964207641737365744164647265737360581b6044820152606401610678565b6108c78484611c4f565b6040516000906108e190600160f81b90859060200161261f565b60405160208183030381529060405290506000733bE8d3D1A52737A976Fa5033304462BF98A77364639f0047836109153390565b85856040518463ffffffff1660e01b81526004016109359392919061295f565b600060405180830381865af4158015610952573d6000803e3d6000fd5b505050506040513d6000823e601f3d908101601f1916820160405261097a91908101906126f9565b609954609754609854604051635b2479ff60e11b815293945061080d9363b648f3fe936109db93609a936001600160a01b0392909216926001600160401b03600160401b83048116938a939092600160801b909104909116906004016127aa565b600060405180830381600087803b1580156109f557600080fd5b505af1158015610a09573d6000803e3d6000fd5b505050507f89996e9f85ecc9022265638d75df5de89dd421fab215e1b013ece5fcc188adce610a353390565b87878785604051610828959493929190612993565b610a52611ba3565b6402540be400846001600160401b03161115610aa95760405162461bcd60e51b815260206004820152601660248201527578746f6b656e57656967687420746f6f206c6172676560501b6044820152606401610678565b6402540be400836001600160401b03161115610b165760405162461bcd60e51b815260206004820152602660248201527f7472616e73616374526571756972656457656967687441744d6f737420746f6f604482015265206c6172676560d01b6064820152608401610678565b6402540be400826001600160401b03161115610b745760405162461bcd60e51b815260206004820152601760248201527f4f766572616c6c57656967687420746f6f206c617267650000000000000000006044820152606401610678565b64e8d4a51000811115610bbf5760405162461bcd60e51b8152602060048201526013602482015272666565416d6f756e7420746f6f206c6172676560681b6044820152606401610678565b609780546001600160401b03938416600160801b0267ffffffffffffffff60801b19958516600160401b026fffffffffffffffffffffffffffffffff199092169690941695909517949094179290921617909155609855565b600054610100900460ff1615808015610c385750600054600160ff909116105b80610c525750303b158015610c52575060005460ff166001145b610cb55760405162461bcd60e51b815260206004820152602e60248201527f496e697469616c697a61626c653a20636f6e747261637420697320616c72656160448201526d191e481a5b9a5d1a585b1a5e995960921b6064820152608401610678565b6000805460ff191660011790558015610cd8576000805461ff0019166101001790555b610ce0611ec0565b610ce8611eef565b6001600160a01b038416610d305760405162461bcd60e51b815260206004820152600f60248201526e496e76616c6964206164647265737360881b6044820152606401610678565b8263ffffffff166107d11480610d4d57508263ffffffff166107ee145b610d915760405162461bcd60e51b8152602060048201526015602482015274125b9d985b1a5908189a599c9bdcdd14185c985259605a1b6044820152606401610678565b61010560f11b6001600160f01b031983161480610dbc575061080160f01b6001600160f01b03198316145b610e085760405162461bcd60e51b815260206004820152601860248201527f496e76616c6964206e617469766543757272656e6379496400000000000000006044820152606401610678565b610e236402540be400806402540be40064e8d4a51000610a4a565b609980546001600160a01b0386166001600160c01b031990911617600160a01b63ffffffff8616021761ffff60c01b1916600160c01b60f085901c0217905560006001604051908082528060200260200182016040528015610e9957816020015b6060815260200190600190039081610e845790505b50604051600060208201526001600160e01b031960e087901b16602182015290915060250160405160208183030381529060405281600081518110610ee057610ee06129ce565b602090810291909101810191909152604080518082019091526001808252818301849052609a805460ff19169091178155835191929091610f2791609b9190860190612169565b50905050508015610f72576000805461ff0019169055604051600181527f7f26b83ff96e1f2b6a682f133852f6798a09c465da95921460cefb38474024989060200160405180910390a15b50505050565b610f80611b5d565b6001600160a01b038086166000908152609c602052604080822054928716825290205460f091821b911b6001600160f01b0319821615801590610fcc57506001600160f01b0319811615155b6110085760405162461bcd60e51b815260206004820152600d60248201526c125b9d985b1a5908185cdcd95d609a1b6044820152606401610678565b6110128786611c4f565b60405160009061102c90600160f81b90869060200161261f565b60405160208183030381529060405290506000733bE8d3D1A52737A976Fa5033304462BF98A7736463cb070de56110603390565b86868a876040518663ffffffff1660e01b81526004016110849594939291906126a3565b600060405180830381865af41580156110a1573d6000803e3d6000fd5b505050506040513d6000823e601f3d908101601f191682016040526110c991908101906126f9565b609954609754609854604051635b2479ff60e11b815293945061080d9363b648f3fe9361112a93609a936001600160a01b0392909216926001600160401b03600160401b83048116938a939092600160801b909104909116906004016127aa565b600060405180830381600087803b15801561114457600080fd5b505af1158015611158573d6000803e3d6000fd5b505050507fe869557c53c6b4ca27e56668068f17eca71394d04718a9214a7667f1474950ff6111843390565b8a8a8a8a8a8760405161119d9796959493929190612900565b60405180910390a1505050505050505050565b6111b8611b5d565b6111c1346118fb565b6040516000906111db90600160f81b90849060200161261f565b60405160208183030381529060405290506000733bE8d3D1A52737A976Fa5033304462BF98A77364633ce8092661120f3390565b6099546040516001600160e01b031960e085901b1681526112409291600160c01b900460f01b90879060040161295f565b600060405180830381865af415801561125d573d6000803e3d6000fd5b505050506040513d6000823e601f3d908101601f1916820160405261128591908101906126f9565b609954609754609854604051635b2479ff60e11b815293945061080d9363b648f3fe936112e693609a936001600160a01b0392909216926001600160401b03600160401b83048116938a939092600160801b909104909116906004016127aa565b600060405180830381600087803b15801561130057600080fd5b505af1158015611314573d6000803e3d6000fd5b505050507ff4960c96e70de5b975340153e33db4d611f9b3e009ab14a373a593bf268346b66113403390565b610802348685604051611357959493929190612993565b60405180910390a1505050565b61136c611ba3565b6108486000611f1e565b61137e611ba3565b610848611f70565b61138e611b5d565b6001600160a01b0383166000908152609c602052604090205460f01b6001600160f01b031981166113d15760405162461bcd60e51b8152600401610678906129e4565b6113db8484611c4f565b6040516000906113f590600160f81b90859060200161261f565b60405160208183030381529060405290506000733bE8d3D1A52737A976Fa5033304462BF98A77364633ce809266114293390565b85856040518463ffffffff1660e01b81526004016114499392919061295f565b600060405180830381865af4158015611466573d6000803e3d6000fd5b505050506040513d6000823e601f3d908101601f1916820160405261148e91908101906126f9565b609954609754609854604051635b2479ff60e11b815293945061080d9363b648f3fe936114ef93609a936001600160a01b0392909216926001600160401b03600160401b83048116938a939092600160801b909104909116906004016127aa565b600060405180830381600087803b15801561150957600080fd5b505af115801561151d573d6000803e3d6000fd5b505050507ff4960c96e70de5b975340153e33db4d611f9b3e009ab14a373a593bf268346b6610a353390565b611551611ba3565b6001600160a01b0383166115775760405162461bcd60e51b8152600401610678906129e4565b816115bb5760405162461bcd60e51b8152602060048201526014602482015273496e76616c6964206d696e696d756d56616c756560601b6044820152606401610678565b6001600160f01b031981166116075760405162461bcd60e51b8152602060048201526012602482015271125b9d985b1a590818dd5c9c995b98de525960721b6044820152606401610678565b6001600160a01b03929092166000908152609d6020908152604080832093909355609c905220805461ffff191660f09290921c919091179055565b609954609754609854604051635b2479ff60e11b815261080d9363b648f3fe9361169f93609a936001600160a01b0393909316926001600160401b03600160401b84048116938a9392600160801b909104909116906004016127aa565b600060405180830381600087803b1580156116b957600080fd5b505af11580156116cd573d6000803e3d6000fd5b5050505050565b6116dc611b5d565b6001600160a01b0384166000908152609c602052604090205460f01b6001600160f01b031981166117415760405162461bcd60e51b815260206004820152600f60248201526e24b73b30b634b21030b9b9b2ba24b760891b6044820152606401610678565b61174b8585611c4f565b60405160009061176590600160f81b90859060200161261f565b60405160208183030381529060405290506000733bE8d3D1A52737A976Fa5033304462BF98A7736463cb070de56117993390565b6099546040516001600160e01b031960e085901b1681526117cf92918891600160c01b90910460f01b908b9089906004016126a3565b600060405180830381865af41580156117ec573d6000803e3d6000fd5b505050506040513d6000823e601f3d908101601f1916820160405261181491908101906126f9565b609954609754609854604051635b2479ff60e11b815293945061080d9363b648f3fe9361187593609a936001600160a01b0392909216926001600160401b03600160401b83048116938a939092600160801b909104909116906004016127aa565b600060405180830381600087803b15801561188f57600080fd5b505af11580156118a3573d6000803e3d6000fd5b505050507fe869557c53c6b4ca27e56668068f17eca71394d04718a9214a7667f1474950ff6118cf3390565b88610802898989876040516118ea9796959493929190612900565b60405180910390a150505050505050565b610802600052609d6020527f382c168b1823bf50cea41570e6d90d63d48929787d842e8f79781a20861398f65461196b5760405162461bcd60e51b81526020600482015260146024820152734e6f7420736574204d696e696d756d56616c756560601b6044820152606401610678565b610802600052609d6020527f382c168b1823bf50cea41570e6d90d63d48929787d842e8f79781a20861398f6548110156119e05760405162461bcd60e51b81526020600482015260166024820152754c657373207468616e204d696e696d756d56616c756560501b6044820152606401610678565b6000735eB2f555Ac5a0282073E1F0DB6A176333f28b0Be6332640a52336040516001600160e01b031960e084901b1681526001600160a01b039091166004820152602401602060405180830381865af4158015611a41573d6000803e3d6000fd5b505050506040513d601f19601f82011682018060405250810190611a659190612a12565b90506000611a7282611fad565b60975460405163b9f813ff60e01b81529192506108049163b9f813ff91611aad9161080291889187916001600160401b031690600401612a2b565b600060405180830381600087803b158015611ac757600080fd5b505af1158015611adb573d6000803e3d6000fd5b50505050505050565b611aec611ba3565b6001600160a01b038116611b515760405162461bcd60e51b815260206004820152602660248201527f4f776e61626c653a206e6577206f776e657220697320746865207a65726f206160448201526564647265737360d01b6064820152608401610678565b611b5a81611f1e565b50565b60655460ff16156108485760405162461bcd60e51b815260206004820152601060248201526f14185d5cd8589b194e881c185d5cd95960821b6044820152606401610678565b6033546001600160a01b031633146108485760405162461bcd60e51b815260206004820181905260248201527f4f776e61626c653a2063616c6c6572206973206e6f7420746865206f776e65726044820152606401610678565b611c056120bd565b6065805460ff191690557f5db9ee0a495bf2e6ff9c91a7834c1ba4fdd244a5e8aa4e537bd38aeae4b073aa335b6040516001600160a01b03909116815260200160405180910390a1565b6001600160a01b038216611c755760405162461bcd60e51b8152600401610678906129e4565b6001600160a01b0382166000908152609d6020526040902054611cd15760405162461bcd60e51b81526020600482015260146024820152734e6f7420736574204d696e696d756d56616c756560601b6044820152606401610678565b6001600160a01b0382166000908152609d6020526040902054811015611d325760405162461bcd60e51b81526020600482015260166024820152754c657373207468616e204d696e696d756d56616c756560501b6044820152606401610678565b6000735eB2f555Ac5a0282073E1F0DB6A176333f28b0Be6332640a52336040516001600160e01b031960e084901b1681526001600160a01b039091166004820152602401602060405180830381865af4158015611d93573d6000803e3d6000fd5b505050506040513d601f19601f82011682018060405250810190611db79190612a12565b90506000611dc482611fad565b9050836001600160a01b0381166323b872dd336040516001600160e01b031960e084901b1681526001600160a01b039091166004820152306024820152604481018790526064016020604051808303816000875af1158015611e2a573d6000803e3d6000fd5b505050506040513d601f19601f82011682018060405250810190611e4e9190612ac8565b5060975460405163b9f813ff60e01b81526108049163b9f813ff91611e87918991899188916001600160401b0390911690600401612a2b565b600060405180830381600087803b158015611ea157600080fd5b505af1158015611eb5573d6000803e3d6000fd5b505050505050505050565b600054610100900460ff16611ee75760405162461bcd60e51b815260040161067890612aea565b610848612106565b600054610100900460ff16611f165760405162461bcd60e51b815260040161067890612aea565b610848612136565b603380546001600160a01b038381166001600160a01b0319831681179093556040519116919082907f8be0079c531659141344cd1fd0a4f28419497f9722a3daafe3b4186f6b6457e090600090a35050565b611f78611b5d565b6065805460ff191660011790557f62e78cea01bee320cd4e420270b5ea74000d11b0c9f74754ebdbfc544b05a258611c323390565b60408051808201825260008082526060602083018190528351600280825291810190945291929091816020015b6060815260200190600190039081611fda5790505060995460405160006020820152600160a01b90910460e01b6001600160e01b03191660218201529091506025016040516020818303038152906040528160008151811061203e5761203e6129ce565b6020026020010181905250826040516020016120719190600160f81b815260018101919091526000602182015260220190565b60405160208183030381529060405281600181518110612093576120936129ce565b60209081029190910181019190915260408051808201909152600181529081019190915292915050565b60655460ff166108485760405162461bcd60e51b815260206004820152601460248201527314185d5cd8589b194e881b9bdd081c185d5cd95960621b6044820152606401610678565b600054610100900460ff1661212d5760405162461bcd60e51b815260040161067890612aea565b61084833611f1e565b600054610100900460ff1661215d5760405162461bcd60e51b815260040161067890612aea565b6065805460ff19169055565b8280548282559060005260206000209081019282156121b6579160200282015b828111156121b657825180516121a69184916020909101906121c6565b5091602001919060010190612189565b506121c2929150612246565b5090565b8280546121d29061276f565b90600052602060002090601f0160209004810192826121f4576000855561223a565b82601f1061220d57805160ff191683800117855561223a565b8280016001018555821561223a579182015b8281111561223a57825182559160200191906001019061221f565b506121c2929150612263565b808211156121c257600061225a8282612278565b50600101612246565b5b808211156121c25760008155600101612264565b5080546122849061276f565b6000825580601f10612294575050565b601f016020900490600052602060002090810190611b5a9190612263565b80356001600160a01b03811681146122c957600080fd5b919050565b6000602082840312156122e057600080fd5b6122e9826122b2565b9392505050565b80356001600160801b03811681146122c957600080fd5b60008060006060848603121561231c57600080fd5b612325846122b2565b9250612333602085016122f0565b9150612341604085016122b2565b90509250925092565b60008060006060848603121561235f57600080fd5b612368846122b2565b925060208401359150612341604085016122b2565b80356001600160401b03811681146122c957600080fd5b600080600080608085870312156123aa57600080fd5b6123b38561237d565b93506123c16020860161237d565b92506123cf6040860161237d565b9396929550929360600135925050565b80356001600160f01b0319811681146122c957600080fd5b60008060006060848603121561240c57600080fd5b612415846122b2565b9250602084013563ffffffff8116811461242e57600080fd5b9150612341604085016123df565b600080600080600060a0868803121561245457600080fd5b61245d866122b2565b945061246b602087016122b2565b935060408601359250612480606087016122f0565b915061248e608087016122b2565b90509295509295909350565b6000806000606084860312156124af57600080fd5b6124b8846122b2565b925060208401359150612341604085016123df565b634e487b7160e01b600052604160045260246000fd5b604051601f8201601f191681016001600160401b038111828210171561250b5761250b6124cd565b604052919050565b60006001600160401b0382111561252c5761252c6124cd565b50601f01601f191660200190565b60006020828403121561254c57600080fd5b81356001600160401b0381111561256257600080fd5b8201601f8101841361257357600080fd5b803561258661258182612513565b6124e3565b81815285602083850101111561259b57600080fd5b81602084016020830137600091810160200191909152949350505050565b600080600080608085870312156125cf57600080fd5b6125d8856122b2565b9350602085013592506125ed604086016122f0565b91506125fb606086016122b2565b905092959194509250565b60006020828403121561261857600080fd5b5035919050565b6001600160f81b031992909216825260601b6bffffffffffffffffffffffff1916600182015260150190565b60005b8381101561266657818101518382015260200161264e565b83811115610f725750506000910152565b6000815180845261268f81602086016020860161264b565b601f01601f19169290920160200192915050565b6001600160a01b03861681526001600160f01b03198581166020830152841660408201526001600160801b038316606082015260a0608082018190526000906126ee90830184612677565b979650505050505050565b60006020828403121561270b57600080fd5b81516001600160401b0381111561272157600080fd5b8201601f8101841361273257600080fd5b805161274061258182612513565b81815285602083850101111561275557600080fd5b61276682602083016020860161264b565b95945050505050565b600181811c9082168061278357607f821691505b602082108114156127a457634e487b7160e01b600052602260045260246000fd5b50919050565b60c081526000610100820160ff89541660c08401526001808a01604060e086015282815480855261012094508487019150848160051b8801019450600083815260209350838120815b838110156128a65789880361011f190185528154839080891c8982168061281b57607f821691505b89821081141561283957634e487b7160e01b87526022600452602487fd5b818c5260208c0181801561285457600181146128655761288f565b60ff19851682528b8201955061288f565b600088815260209020895b8581101561288957815484820152908e01908d01612870565b83019650505b50939b5050509587019550509086019086016127f3565b50505050506128bf8186018b6001600160a01b03169052565b50506001600160401b038716604084015282810360608401526128e28187612677565b9150508360808301526126ee60a08301846001600160401b03169052565b6001600160a01b03888116825287811660208301528681166040830152606082018690526001600160801b0385166080830152831660a082015260e060c0820181905260009061295290830184612677565b9998505050505050505050565b6001600160a01b03841681526001600160f01b03198316602082015260606040820181905260009061276690830184612677565b6001600160a01b0386811682528581166020830152604082018590528316606082015260a0608082018190526000906126ee90830184612677565b634e487b7160e01b600052603260045260246000fd5b602080825260149082015273496e76616c69642061737365744164647265737360601b604082015260600190565b600060208284031215612a2457600080fd5b5051919050565b60018060a01b03851681526000602085818401526080604084015260c0830160ff865116608085015281860151604060a086015281815180845260e08701915060e08160051b8801019350848301925060005b81811015612aac5760df19888603018352612a9a858551612677565b94509285019291850191600101612a7e565b5050506001600160401b03861660608601525091506127669050565b600060208284031215612ada57600080fd5b815180151581146122e957600080fd5b6020808252602b908201527f496e697469616c697a61626c653a20636f6e7472616374206973206e6f74206960408201526a6e697469616c697a696e6760a81b60608201526080019056fea264697066735822122062d0abc267e0faa2dec5b7a379de279e4a4d4a6a0e7464fc004d842027d1ee7564736f6c634300080a0033",
  "deployedBytecode": "0x6080604052600436106101d85760003560e01c8063715018a611610102578063c1b8cba011610095578063d75205cf11610064578063d75205cf146105af578063d7c274c0146105c2578063eddc8b91146105d8578063f2fde38b146105ee57600080fd5b8063c1b8cba014610505578063c86093a814610525578063c87e5a9e1461055e578063d6aa374d1461058f57600080fd5b806394cb2e49116100d157806394cb2e491461047e578063a11b0037146104a5578063a23206bf146104c5578063adfc7c16146104e557600080fd5b8063715018a6146104205780638456cb59146104355780638a6fa4371461044a5780638da5cb5b1461046057600080fd5b80634899b9a81161017a5780635c975abb116101495780635c975abb146103b45780635ede2882146103d757806367559997146103f757806369e154041461040a57600080fd5b80634899b9a8146103285780634acedccb146103485780634eb82d9f146103685780635bbfef451461039457600080fd5b8063374f00ff116101b6578063374f00ff1461026c5780633c75045e146102a45780633d587204146102d45780633f4ba83a1461031357600080fd5b80631aa51037146101dd57806323e498791461021d5780632ac7343d14610232575b600080fd5b3480156101e957600080fd5b5061020a6101f83660046122ce565b609d6020526000908152604090205481565b6040519081526020015b60405180910390f35b61023061022b366004612307565b61060e565b005b34801561023e57600080fd5b5060995461025390600160c01b900460f01b81565b6040516001600160f01b03199091168152602001610214565b34801561027857600080fd5b5060995461028c906001600160a01b031681565b6040516001600160a01b039091168152602001610214565b3480156102b057600080fd5b506102536102bf3660046122ce565b609c6020526000908152604090205460f01b81565b3480156102e057600080fd5b506097546102fb90600160801b90046001600160401b031681565b6040516001600160401b039091168152602001610214565b34801561031f57600080fd5b50610230610838565b34801561033457600080fd5b5061023061034336600461234a565b61084a565b34801561035457600080fd5b50610230610363366004612394565b610a4a565b34801561037457600080fd5b50609a546103829060ff1681565b60405160ff9091168152602001610214565b3480156103a057600080fd5b506102306103af3660046123f7565b610c18565b3480156103c057600080fd5b5060655460ff166040519015158152602001610214565b3480156103e357600080fd5b506102306103f236600461243c565b610f78565b6102306104053660046122ce565b6111b0565b34801561041657600080fd5b5061020a60985481565b34801561042c57600080fd5b50610230611364565b34801561044157600080fd5b50610230611376565b34801561045657600080fd5b5061028c61080281565b34801561046c57600080fd5b506033546001600160a01b031661028c565b34801561048a57600080fd5b506097546102fb90600160401b90046001600160401b031681565b3480156104b157600080fd5b506097546102fb906001600160401b031681565b3480156104d157600080fd5b506102306104e036600461234a565b611386565b3480156104f157600080fd5b5061023061050036600461249a565b611549565b34801561051157600080fd5b5061023061052036600461253a565b611642565b34801561053157600080fd5b5060995461054990600160a01b900463ffffffff1681565b60405163ffffffff9091168152602001610214565b34801561056a57600080fd5b50610576600160f81b81565b6040516001600160f81b03199091168152602001610214565b34801561059b57600080fd5b506102306105aa3660046125b9565b6116d4565b6102306105bd366004612606565b6118fb565b3480156105ce57600080fd5b5061028c61080481565b3480156105e457600080fd5b5061028c61080d81565b3480156105fa57600080fd5b506102306106093660046122ce565b611ae4565b610616611b5d565b6001600160a01b0383166000908152609c602052604090205460f01b6001600160f01b031981166106815760405162461bcd60e51b815260206004820152601060248201526f125b9d985b1a5908185cdcd95d13dd5d60821b60448201526064015b60405180910390fd5b61068a346118fb565b6040516000906106a490600160f81b90859060200161261f565b6040516020818303038152906040529050600073__$e184f4046250cd750dfdb139628ab13bdc$__63cb070de56106d83390565b6099546040516001600160e01b031960e085901b16815261070d9291600160c01b900460f01b9088908b9089906004016126a3565b600060405180830381865af415801561072a573d6000803e3d6000fd5b505050506040513d6000823e601f3d908101601f1916820160405261075291908101906126f9565b609954609754609854604051635b2479ff60e11b815293945061080d9363b648f3fe936107b393609a936001600160a01b0392909216926001600160401b03600160401b83048116938a939092600160801b909104909116906004016127aa565b600060405180830381600087803b1580156107cd57600080fd5b505af11580156107e1573d6000803e3d6000fd5b505050507fe869557c53c6b4ca27e56668068f17eca71394d04718a9214a7667f1474950ff61080d3390565b61080288348989876040516108289796959493929190612900565b60405180910390a1505050505050565b610840611ba3565b610848611bfd565b565b610852611b5d565b6001600160a01b0383166000908152609c602052604090205460f01b6001600160f01b031981166108bd5760405162461bcd60e51b8152602060048201526015602482015274496e76616c6964207641737365744164647265737360581b6044820152606401610678565b6108c78484611c4f565b6040516000906108e190600160f81b90859060200161261f565b6040516020818303038152906040529050600073__$e184f4046250cd750dfdb139628ab13bdc$__639f0047836109153390565b85856040518463ffffffff1660e01b81526004016109359392919061295f565b600060405180830381865af4158015610952573d6000803e3d6000fd5b505050506040513d6000823e601f3d908101601f1916820160405261097a91908101906126f9565b609954609754609854604051635b2479ff60e11b815293945061080d9363b648f3fe936109db93609a936001600160a01b0392909216926001600160401b03600160401b83048116938a939092600160801b909104909116906004016127aa565b600060405180830381600087803b1580156109f557600080fd5b505af1158015610a09573d6000803e3d6000fd5b505050507f89996e9f85ecc9022265638d75df5de89dd421fab215e1b013ece5fcc188adce610a353390565b87878785604051610828959493929190612993565b610a52611ba3565b6402540be400846001600160401b03161115610aa95760405162461bcd60e51b815260206004820152601660248201527578746f6b656e57656967687420746f6f206c6172676560501b6044820152606401610678565b6402540be400836001600160401b03161115610b165760405162461bcd60e51b815260206004820152602660248201527f7472616e73616374526571756972656457656967687441744d6f737420746f6f604482015265206c6172676560d01b6064820152608401610678565b6402540be400826001600160401b03161115610b745760405162461bcd60e51b815260206004820152601760248201527f4f766572616c6c57656967687420746f6f206c617267650000000000000000006044820152606401610678565b64e8d4a51000811115610bbf5760405162461bcd60e51b8152602060048201526013602482015272666565416d6f756e7420746f6f206c6172676560681b6044820152606401610678565b609780546001600160401b03938416600160801b0267ffffffffffffffff60801b19958516600160401b026fffffffffffffffffffffffffffffffff199092169690941695909517949094179290921617909155609855565b600054610100900460ff1615808015610c385750600054600160ff909116105b80610c525750303b158015610c52575060005460ff166001145b610cb55760405162461bcd60e51b815260206004820152602e60248201527f496e697469616c697a61626c653a20636f6e747261637420697320616c72656160448201526d191e481a5b9a5d1a585b1a5e995960921b6064820152608401610678565b6000805460ff191660011790558015610cd8576000805461ff0019166101001790555b610ce0611ec0565b610ce8611eef565b6001600160a01b038416610d305760405162461bcd60e51b815260206004820152600f60248201526e496e76616c6964206164647265737360881b6044820152606401610678565b8263ffffffff166107d11480610d4d57508263ffffffff166107ee145b610d915760405162461bcd60e51b8152602060048201526015602482015274125b9d985b1a5908189a599c9bdcdd14185c985259605a1b6044820152606401610678565b61010560f11b6001600160f01b031983161480610dbc575061080160f01b6001600160f01b03198316145b610e085760405162461bcd60e51b815260206004820152601860248201527f496e76616c6964206e617469766543757272656e6379496400000000000000006044820152606401610678565b610e236402540be400806402540be40064e8d4a51000610a4a565b609980546001600160a01b0386166001600160c01b031990911617600160a01b63ffffffff8616021761ffff60c01b1916600160c01b60f085901c0217905560006001604051908082528060200260200182016040528015610e9957816020015b6060815260200190600190039081610e845790505b50604051600060208201526001600160e01b031960e087901b16602182015290915060250160405160208183030381529060405281600081518110610ee057610ee06129ce565b602090810291909101810191909152604080518082019091526001808252818301849052609a805460ff19169091178155835191929091610f2791609b9190860190612169565b50905050508015610f72576000805461ff0019169055604051600181527f7f26b83ff96e1f2b6a682f133852f6798a09c465da95921460cefb38474024989060200160405180910390a15b50505050565b610f80611b5d565b6001600160a01b038086166000908152609c602052604080822054928716825290205460f091821b911b6001600160f01b0319821615801590610fcc57506001600160f01b0319811615155b6110085760405162461bcd60e51b815260206004820152600d60248201526c125b9d985b1a5908185cdcd95d609a1b6044820152606401610678565b6110128786611c4f565b60405160009061102c90600160f81b90869060200161261f565b6040516020818303038152906040529050600073__$e184f4046250cd750dfdb139628ab13bdc$__63cb070de56110603390565b86868a876040518663ffffffff1660e01b81526004016110849594939291906126a3565b600060405180830381865af41580156110a1573d6000803e3d6000fd5b505050506040513d6000823e601f3d908101601f191682016040526110c991908101906126f9565b609954609754609854604051635b2479ff60e11b815293945061080d9363b648f3fe9361112a93609a936001600160a01b0392909216926001600160401b03600160401b83048116938a939092600160801b909104909116906004016127aa565b600060405180830381600087803b15801561114457600080fd5b505af1158015611158573d6000803e3d6000fd5b505050507fe869557c53c6b4ca27e56668068f17eca71394d04718a9214a7667f1474950ff6111843390565b8a8a8a8a8a8760405161119d9796959493929190612900565b60405180910390a1505050505050505050565b6111b8611b5d565b6111c1346118fb565b6040516000906111db90600160f81b90849060200161261f565b6040516020818303038152906040529050600073__$e184f4046250cd750dfdb139628ab13bdc$__633ce8092661120f3390565b6099546040516001600160e01b031960e085901b1681526112409291600160c01b900460f01b90879060040161295f565b600060405180830381865af415801561125d573d6000803e3d6000fd5b505050506040513d6000823e601f3d908101601f1916820160405261128591908101906126f9565b609954609754609854604051635b2479ff60e11b815293945061080d9363b648f3fe936112e693609a936001600160a01b0392909216926001600160401b03600160401b83048116938a939092600160801b909104909116906004016127aa565b600060405180830381600087803b15801561130057600080fd5b505af1158015611314573d6000803e3d6000fd5b505050507ff4960c96e70de5b975340153e33db4d611f9b3e009ab14a373a593bf268346b66113403390565b610802348685604051611357959493929190612993565b60405180910390a1505050565b61136c611ba3565b6108486000611f1e565b61137e611ba3565b610848611f70565b61138e611b5d565b6001600160a01b0383166000908152609c602052604090205460f01b6001600160f01b031981166113d15760405162461bcd60e51b8152600401610678906129e4565b6113db8484611c4f565b6040516000906113f590600160f81b90859060200161261f565b6040516020818303038152906040529050600073__$e184f4046250cd750dfdb139628ab13bdc$__633ce809266114293390565b85856040518463ffffffff1660e01b81526004016114499392919061295f565b600060405180830381865af4158015611466573d6000803e3d6000fd5b505050506040513d6000823e601f3d908101601f1916820160405261148e91908101906126f9565b609954609754609854604051635b2479ff60e11b815293945061080d9363b648f3fe936114ef93609a936001600160a01b0392909216926001600160401b03600160401b83048116938a939092600160801b909104909116906004016127aa565b600060405180830381600087803b15801561150957600080fd5b505af115801561151d573d6000803e3d6000fd5b505050507ff4960c96e70de5b975340153e33db4d611f9b3e009ab14a373a593bf268346b6610a353390565b611551611ba3565b6001600160a01b0383166115775760405162461bcd60e51b8152600401610678906129e4565b816115bb5760405162461bcd60e51b8152602060048201526014602482015273496e76616c6964206d696e696d756d56616c756560601b6044820152606401610678565b6001600160f01b031981166116075760405162461bcd60e51b8152602060048201526012602482015271125b9d985b1a590818dd5c9c995b98de525960721b6044820152606401610678565b6001600160a01b03929092166000908152609d6020908152604080832093909355609c905220805461ffff191660f09290921c919091179055565b609954609754609854604051635b2479ff60e11b815261080d9363b648f3fe9361169f93609a936001600160a01b0393909316926001600160401b03600160401b84048116938a9392600160801b909104909116906004016127aa565b600060405180830381600087803b1580156116b957600080fd5b505af11580156116cd573d6000803e3d6000fd5b5050505050565b6116dc611b5d565b6001600160a01b0384166000908152609c602052604090205460f01b6001600160f01b031981166117415760405162461bcd60e51b815260206004820152600f60248201526e24b73b30b634b21030b9b9b2ba24b760891b6044820152606401610678565b61174b8585611c4f565b60405160009061176590600160f81b90859060200161261f565b6040516020818303038152906040529050600073__$e184f4046250cd750dfdb139628ab13bdc$__63cb070de56117993390565b6099546040516001600160e01b031960e085901b1681526117cf92918891600160c01b90910460f01b908b9089906004016126a3565b600060405180830381865af41580156117ec573d6000803e3d6000fd5b505050506040513d6000823e601f3d908101601f1916820160405261181491908101906126f9565b609954609754609854604051635b2479ff60e11b815293945061080d9363b648f3fe9361187593609a936001600160a01b0392909216926001600160401b03600160401b83048116938a939092600160801b909104909116906004016127aa565b600060405180830381600087803b15801561188f57600080fd5b505af11580156118a3573d6000803e3d6000fd5b505050507fe869557c53c6b4ca27e56668068f17eca71394d04718a9214a7667f1474950ff6118cf3390565b88610802898989876040516118ea9796959493929190612900565b60405180910390a150505050505050565b610802600052609d6020527f382c168b1823bf50cea41570e6d90d63d48929787d842e8f79781a20861398f65461196b5760405162461bcd60e51b81526020600482015260146024820152734e6f7420736574204d696e696d756d56616c756560601b6044820152606401610678565b610802600052609d6020527f382c168b1823bf50cea41570e6d90d63d48929787d842e8f79781a20861398f6548110156119e05760405162461bcd60e51b81526020600482015260166024820152754c657373207468616e204d696e696d756d56616c756560501b6044820152606401610678565b600073__$ddfb0e6c1c4d05795fcce73a90830b0995$__6332640a52336040516001600160e01b031960e084901b1681526001600160a01b039091166004820152602401602060405180830381865af4158015611a41573d6000803e3d6000fd5b505050506040513d601f19601f82011682018060405250810190611a659190612a12565b90506000611a7282611fad565b60975460405163b9f813ff60e01b81529192506108049163b9f813ff91611aad9161080291889187916001600160401b031690600401612a2b565b600060405180830381600087803b158015611ac757600080fd5b505af1158015611adb573d6000803e3d6000fd5b50505050505050565b611aec611ba3565b6001600160a01b038116611b515760405162461bcd60e51b815260206004820152602660248201527f4f776e61626c653a206e6577206f776e657220697320746865207a65726f206160448201526564647265737360d01b6064820152608401610678565b611b5a81611f1e565b50565b60655460ff16156108485760405162461bcd60e51b815260206004820152601060248201526f14185d5cd8589b194e881c185d5cd95960821b6044820152606401610678565b6033546001600160a01b031633146108485760405162461bcd60e51b815260206004820181905260248201527f4f776e61626c653a2063616c6c6572206973206e6f7420746865206f776e65726044820152606401610678565b611c056120bd565b6065805460ff191690557f5db9ee0a495bf2e6ff9c91a7834c1ba4fdd244a5e8aa4e537bd38aeae4b073aa335b6040516001600160a01b03909116815260200160405180910390a1565b6001600160a01b038216611c755760405162461bcd60e51b8152600401610678906129e4565b6001600160a01b0382166000908152609d6020526040902054611cd15760405162461bcd60e51b81526020600482015260146024820152734e6f7420736574204d696e696d756d56616c756560601b6044820152606401610678565b6001600160a01b0382166000908152609d6020526040902054811015611d325760405162461bcd60e51b81526020600482015260166024820152754c657373207468616e204d696e696d756d56616c756560501b6044820152606401610678565b600073__$ddfb0e6c1c4d05795fcce73a90830b0995$__6332640a52336040516001600160e01b031960e084901b1681526001600160a01b039091166004820152602401602060405180830381865af4158015611d93573d6000803e3d6000fd5b505050506040513d601f19601f82011682018060405250810190611db79190612a12565b90506000611dc482611fad565b9050836001600160a01b0381166323b872dd336040516001600160e01b031960e084901b1681526001600160a01b039091166004820152306024820152604481018790526064016020604051808303816000875af1158015611e2a573d6000803e3d6000fd5b505050506040513d601f19601f82011682018060405250810190611e4e9190612ac8565b5060975460405163b9f813ff60e01b81526108049163b9f813ff91611e87918991899188916001600160401b0390911690600401612a2b565b600060405180830381600087803b158015611ea157600080fd5b505af1158015611eb5573d6000803e3d6000fd5b505050505050505050565b600054610100900460ff16611ee75760405162461bcd60e51b815260040161067890612aea565b610848612106565b600054610100900460ff16611f165760405162461bcd60e51b815260040161067890612aea565b610848612136565b603380546001600160a01b038381166001600160a01b0319831681179093556040519116919082907f8be0079c531659141344cd1fd0a4f28419497f9722a3daafe3b4186f6b6457e090600090a35050565b611f78611b5d565b6065805460ff191660011790557f62e78cea01bee320cd4e420270b5ea74000d11b0c9f74754ebdbfc544b05a258611c323390565b60408051808201825260008082526060602083018190528351600280825291810190945291929091816020015b6060815260200190600190039081611fda5790505060995460405160006020820152600160a01b90910460e01b6001600160e01b03191660218201529091506025016040516020818303038152906040528160008151811061203e5761203e6129ce565b6020026020010181905250826040516020016120719190600160f81b815260018101919091526000602182015260220190565b60405160208183030381529060405281600181518110612093576120936129ce565b60209081029190910181019190915260408051808201909152600181529081019190915292915050565b60655460ff166108485760405162461bcd60e51b815260206004820152601460248201527314185d5cd8589b194e881b9bdd081c185d5cd95960621b6044820152606401610678565b600054610100900460ff1661212d5760405162461bcd60e51b815260040161067890612aea565b61084833611f1e565b600054610100900460ff1661215d5760405162461bcd60e51b815260040161067890612aea565b6065805460ff19169055565b8280548282559060005260206000209081019282156121b6579160200282015b828111156121b657825180516121a69184916020909101906121c6565b5091602001919060010190612189565b506121c2929150612246565b5090565b8280546121d29061276f565b90600052602060002090601f0160209004810192826121f4576000855561223a565b82601f1061220d57805160ff191683800117855561223a565b8280016001018555821561223a579182015b8281111561223a57825182559160200191906001019061221f565b506121c2929150612263565b808211156121c257600061225a8282612278565b50600101612246565b5b808211156121c25760008155600101612264565b5080546122849061276f565b6000825580601f10612294575050565b601f016020900490600052602060002090810190611b5a9190612263565b80356001600160a01b03811681146122c957600080fd5b919050565b6000602082840312156122e057600080fd5b6122e9826122b2565b9392505050565b80356001600160801b03811681146122c957600080fd5b60008060006060848603121561231c57600080fd5b612325846122b2565b9250612333602085016122f0565b9150612341604085016122b2565b90509250925092565b60008060006060848603121561235f57600080fd5b612368846122b2565b925060208401359150612341604085016122b2565b80356001600160401b03811681146122c957600080fd5b600080600080608085870312156123aa57600080fd5b6123b38561237d565b93506123c16020860161237d565b92506123cf6040860161237d565b9396929550929360600135925050565b80356001600160f01b0319811681146122c957600080fd5b60008060006060848603121561240c57600080fd5b612415846122b2565b9250602084013563ffffffff8116811461242e57600080fd5b9150612341604085016123df565b600080600080600060a0868803121561245457600080fd5b61245d866122b2565b945061246b602087016122b2565b935060408601359250612480606087016122f0565b915061248e608087016122b2565b90509295509295909350565b6000806000606084860312156124af57600080fd5b6124b8846122b2565b925060208401359150612341604085016123df565b634e487b7160e01b600052604160045260246000fd5b604051601f8201601f191681016001600160401b038111828210171561250b5761250b6124cd565b604052919050565b60006001600160401b0382111561252c5761252c6124cd565b50601f01601f191660200190565b60006020828403121561254c57600080fd5b81356001600160401b0381111561256257600080fd5b8201601f8101841361257357600080fd5b803561258661258182612513565b6124e3565b81815285602083850101111561259b57600080fd5b81602084016020830137600091810160200191909152949350505050565b600080600080608085870312156125cf57600080fd5b6125d8856122b2565b9350602085013592506125ed604086016122f0565b91506125fb606086016122b2565b905092959194509250565b60006020828403121561261857600080fd5b5035919050565b6001600160f81b031992909216825260601b6bffffffffffffffffffffffff1916600182015260150190565b60005b8381101561266657818101518382015260200161264e565b83811115610f725750506000910152565b6000815180845261268f81602086016020860161264b565b601f01601f19169290920160200192915050565b6001600160a01b03861681526001600160f01b03198581166020830152841660408201526001600160801b038316606082015260a0608082018190526000906126ee90830184612677565b979650505050505050565b60006020828403121561270b57600080fd5b81516001600160401b0381111561272157600080fd5b8201601f8101841361273257600080fd5b805161274061258182612513565b81815285602083850101111561275557600080fd5b61276682602083016020860161264b565b95945050505050565b600181811c9082168061278357607f821691505b602082108114156127a457634e487b7160e01b600052602260045260246000fd5b50919050565b60c081526000610100820160ff89541660c08401526001808a01604060e086015282815480855261012094508487019150848160051b8801019450600083815260209350838120815b838110156128a65789880361011f190185528154839080891c8982168061281b57607f821691505b89821081141561283957634e487b7160e01b87526022600452602487fd5b818c5260208c0181801561285457600181146128655761288f565b60ff19851682528b8201955061288f565b600088815260209020895b8581101561288957815484820152908e01908d01612870565b83019650505b50939b5050509587019550509086019086016127f3565b50505050506128bf8186018b6001600160a01b03169052565b50506001600160401b038716604084015282810360608401526128e28187612677565b9150508360808301526126ee60a08301846001600160401b03169052565b6001600160a01b03888116825287811660208301528681166040830152606082018690526001600160801b0385166080830152831660a082015260e060c0820181905260009061295290830184612677565b9998505050505050505050565b6001600160a01b03841681526001600160f01b03198316602082015260606040820181905260009061276690830184612677565b6001600160a01b0386811682528581166020830152604082018590528316606082015260a0608082018190526000906126ee90830184612677565b634e487b7160e01b600052603260045260246000fd5b602080825260149082015273496e76616c69642061737365744164647265737360601b604082015260600190565b600060208284031215612a2457600080fd5b5051919050565b60018060a01b03851681526000602085818401526080604084015260c0830160ff865116608085015281860151604060a086015281815180845260e08701915060e08160051b8801019350848301925060005b81811015612aac5760df19888603018352612a9a858551612677565b94509285019291850191600101612a7e565b5050506001600160401b03861660608601525091506127669050565b600060208284031215612ada57600080fd5b815180151581146122e957600080fd5b6020808252602b908201527f496e697469616c697a61626c653a20636f6e7472616374206973206e6f74206960408201526a6e697469616c697a696e6760a81b60608201526080019056fea264697066735822122062d0abc267e0faa2dec5b7a379de279e4a4d4a6a0e7464fc004d842027d1ee7564736f6c634300080a0033",
  "libraries": {
    "AddressToAccount": "0x5eB2f555Ac5a0282073E1F0DB6A176333f28b0Be",
    "BuildCallData": "0x3bE8d3D1A52737A976Fa5033304462BF98A77364"
  },
  "devdoc": {
    "kind": "dev",
    "methods": {
      "owner()": {
        "details": "Returns the address of the current owner."
      },
      "paused()": {
        "details": "Returns true if the contract is paused, and false otherwise."
      },
      "renounceOwnership()": {
        "details": "Leaves the contract without owner. It will not be possible to call `onlyOwner` functions. Can only be called by the current owner. NOTE: Renouncing ownership will leave the contract without an owner, thereby disabling any functionality that is only available to the owner."
      },
      "transferOwnership(address)": {
        "details": "Transfers ownership of the contract to a new account (`newOwner`). Can only be called by the current owner."
      }
    },
    "version": 1
  },
  "userdoc": {
    "kind": "user",
    "methods": {
      "mintVAsset(address,uint256,address)": {
        "notice": "Minted vAssets"
      },
      "mintVNativeAsset(address)": {
        "notice": "Minted vNative assets such as vASTR, vGLMR, vMOVR"
      },
      "redeemAsset(address,uint256,address)": {
        "notice": "Redeem assets"
      },
      "swapAssetsForExactAssets(address,address,uint256,uint128,address)": {
        "notice": "Swap one asset for another"
      },
      "swapAssetsForExactNativeAssets(address,uint256,uint128,address)": {
        "notice": "Swap one asset for native asset"
      },
      "swapNativeAssetsForExactAssets(address,uint128,address)": {
        "notice": "Swap native asset for another"
      }
    },
    "version": 1
  },
  "storageLayout": {
    "storage": [
      {
        "astId": 138,
        "contract": "contracts/MoonbeamSlpx.sol:MoonbeamSlpx",
        "label": "_initialized",
        "offset": 0,
        "slot": "0",
        "type": "t_uint8"
      },
      {
        "astId": 141,
        "contract": "contracts/MoonbeamSlpx.sol:MoonbeamSlpx",
        "label": "_initializing",
        "offset": 1,
        "slot": "0",
        "type": "t_bool"
      },
      {
        "astId": 798,
        "contract": "contracts/MoonbeamSlpx.sol:MoonbeamSlpx",
        "label": "__gap",
        "offset": 0,
        "slot": "1",
        "type": "t_array(t_uint256)50_storage"
      },
      {
        "astId": 10,
        "contract": "contracts/MoonbeamSlpx.sol:MoonbeamSlpx",
        "label": "_owner",
        "offset": 0,
        "slot": "51",
        "type": "t_address"
      },
      {
        "astId": 130,
        "contract": "contracts/MoonbeamSlpx.sol:MoonbeamSlpx",
        "label": "__gap",
        "offset": 0,
        "slot": "52",
        "type": "t_array(t_uint256)49_storage"
      },
      {
        "astId": 321,
        "contract": "contracts/MoonbeamSlpx.sol:MoonbeamSlpx",
        "label": "_paused",
        "offset": 0,
        "slot": "101",
        "type": "t_bool"
      },
      {
        "astId": 426,
        "contract": "contracts/MoonbeamSlpx.sol:MoonbeamSlpx",
        "label": "__gap",
        "offset": 0,
        "slot": "102",
        "type": "t_array(t_uint256)49_storage"
      },
      {
        "astId": 907,
        "contract": "contracts/MoonbeamSlpx.sol:MoonbeamSlpx",
        "label": "xtokenWeight",
        "offset": 0,
        "slot": "151",
        "type": "t_uint64"
      },
      {
        "astId": 909,
        "contract": "contracts/MoonbeamSlpx.sol:MoonbeamSlpx",
        "label": "transactRequiredWeightAtMost",
        "offset": 8,
        "slot": "151",
        "type": "t_uint64"
      },
      {
        "astId": 911,
        "contract": "contracts/MoonbeamSlpx.sol:MoonbeamSlpx",
        "label": "overallWeight",
        "offset": 16,
        "slot": "151",
        "type": "t_uint64"
      },
      {
        "astId": 913,
        "contract": "contracts/MoonbeamSlpx.sol:MoonbeamSlpx",
        "label": "feeAmount",
        "offset": 0,
        "slot": "152",
        "type": "t_uint256"
      },
      {
        "astId": 915,
        "contract": "contracts/MoonbeamSlpx.sol:MoonbeamSlpx",
        "label": "BNCAddress",
        "offset": 0,
        "slot": "153",
        "type": "t_address"
      },
      {
        "astId": 917,
        "contract": "contracts/MoonbeamSlpx.sol:MoonbeamSlpx",
        "label": "bifrostParaId",
        "offset": 20,
        "slot": "153",
        "type": "t_uint32"
      },
      {
        "astId": 919,
        "contract": "contracts/MoonbeamSlpx.sol:MoonbeamSlpx",
        "label": "nativeCurrencyId",
        "offset": 24,
        "slot": "153",
        "type": "t_bytes2"
      },
      {
        "astId": 922,
        "contract": "contracts/MoonbeamSlpx.sol:MoonbeamSlpx",
        "label": "xcmTransactorDestination",
        "offset": 0,
        "slot": "154",
        "type": "t_struct(Multilocation)1946_storage"
      },
      {
        "astId": 926,
        "contract": "contracts/MoonbeamSlpx.sol:MoonbeamSlpx",
        "label": "assetAddressToCurrencyId",
        "offset": 0,
        "slot": "156",
        "type": "t_mapping(t_address,t_bytes2)"
      },
      {
        "astId": 930,
        "contract": "contracts/MoonbeamSlpx.sol:MoonbeamSlpx",
        "label": "assetAddressToMinimumValue",
        "offset": 0,
        "slot": "157",
        "type": "t_mapping(t_address,t_uint256)"
      }
    ],
    "types": {
      "t_address": {
        "encoding": "inplace",
        "label": "address",
        "numberOfBytes": "20"
      },
      "t_array(t_bytes_storage)dyn_storage": {
        "base": "t_bytes_storage",
        "encoding": "dynamic_array",
        "label": "bytes[]",
        "numberOfBytes": "32"
      },
      "t_array(t_uint256)49_storage": {
        "base": "t_uint256",
        "encoding": "inplace",
        "label": "uint256[49]",
        "numberOfBytes": "1568"
      },
      "t_array(t_uint256)50_storage": {
        "base": "t_uint256",
        "encoding": "inplace",
        "label": "uint256[50]",
        "numberOfBytes": "1600"
      },
      "t_bool": {
        "encoding": "inplace",
        "label": "bool",
        "numberOfBytes": "1"
      },
      "t_bytes2": {
        "encoding": "inplace",
        "label": "bytes2",
        "numberOfBytes": "2"
      },
      "t_bytes_storage": {
        "encoding": "bytes",
        "label": "bytes",
        "numberOfBytes": "32"
      },
      "t_mapping(t_address,t_bytes2)": {
        "encoding": "mapping",
        "key": "t_address",
        "label": "mapping(address => bytes2)",
        "numberOfBytes": "32",
        "value": "t_bytes2"
      },
      "t_mapping(t_address,t_uint256)": {
        "encoding": "mapping",
        "key": "t_address",
        "label": "mapping(address => uint256)",
        "numberOfBytes": "32",
        "value": "t_uint256"
      },
      "t_struct(Multilocation)1946_storage": {
        "encoding": "inplace",
        "label": "struct XcmTransactorV2.Multilocation",
        "members": [
          {
            "astId": 1942,
            "contract": "contracts/MoonbeamSlpx.sol:MoonbeamSlpx",
            "label": "parents",
            "offset": 0,
            "slot": "0",
            "type": "t_uint8"
          },
          {
            "astId": 1945,
            "contract": "contracts/MoonbeamSlpx.sol:MoonbeamSlpx",
            "label": "interior",
            "offset": 0,
            "slot": "1",
            "type": "t_array(t_bytes_storage)dyn_storage"
          }
        ],
        "numberOfBytes": "64"
      },
      "t_uint256": {
        "encoding": "inplace",
        "label": "uint256",
        "numberOfBytes": "32"
      },
      "t_uint32": {
        "encoding": "inplace",
        "label": "uint32",
        "numberOfBytes": "4"
      },
      "t_uint64": {
        "encoding": "inplace",
        "label": "uint64",
        "numberOfBytes": "8"
      },
      "t_uint8": {
        "encoding": "inplace",
        "label": "uint8",
        "numberOfBytes": "1"
      }
    }
  }
}