{
  "address": "0xCf7Ed3AccA5a467e9e704C703E8D87F634fB0Fc9",
  "abi": [
    {
      "inputs": [
        {
          "internalType": "address",
          "name": "addr",
          "type": "address"
        }
      ],
      "name": "AddressToSubstrateAccount",
      "outputs": [
        {
          "internalType": "bytes32",
          "name": "account",
          "type": "bytes32"
        }
      ],
      "stateMutability": "view",
      "type": "function"
    },
    {
      "inputs": [
        {
          "internalType": "bytes",
          "name": "src",
          "type": "bytes"
        }
      ],
      "name": "blake2bHash",
      "outputs": [
        {
          "internalType": "bytes32",
          "name": "des",
          "type": "bytes32"
        }
      ],
      "stateMutability": "view",
      "type": "function"
    }
  ],
  "transactionHash": "0x5eb9566e46511e8f4275dfe3fb1b11af27d2fa9418e8686ff567b8222db513b7",
  "args": [],
  "numDeployments": 1,
  "solcInputHash": "6c896790ddad93907504aded3a7e1058",
  "bytecode": "0x61077961003a600b82828239805160001a60731461002d57634e487b7160e01b600052600060045260246000fd5b30600052607381538281f3fe73000000000000000000000000000000000000000030146080604052600436106100405760003560e01c806332640a521461004557806336e7c7621461006a575b600080fd5b610058610053366004610490565b61007d565b60405190815260200160405180910390f35b6100586100783660046104cf565b610113565b6000806040518060400160405280600481526020016332bb369d60e11b81525090506000836040516020016100ca919060609190911b6bffffffffffffffffffffffff1916815260140190565b6040516020818303038152906040529050600082826040516020016100f09291906105bb565b604051602081830303815290604052905061010a81610113565b95945050505050565b600080610130604051806020016040528060008152506020610156565b905061013c818461018b565b80602001905181019061014f91906105d8565b9392505050565b61017a60405180606001604052806060815260200160008152602001600081525090565b6101858184846102f5565b92915050565b80516060908015806101a657506101a36080826105f1565b15155b1561022857826101b76080836105f1565b6101c2906080610629565b67ffffffffffffffff8111156101da576101da6104b9565b6040519080825280601f01601f191660200182016040528015610204576020820181803683370190505b506040516020016102169291906105bb565b60405160208183030381529060405292505b6080835161023691906105f1565b1561024357610243610640565b6102508484836001610373565b8351602085015167ffffffffffffffff81111561026f5761026f6104b9565b6040519080825280601f01601f191660200182016040528015610299576020820181803683370190505b5092508460200151601014156102bc5760148101516010840152601083526102ed565b8460200151602014156102d857602481015160208401526102ed565b60248101516020840152604481015160408401525b505092915050565b80836020018181525050600083604001818152505060405180610100016040528060d5815260200161066f60d59139808452825160248201805160f083901b60f886901b17189052801561036c578060401461035057600080fd5b835160801461036157610361610640565b61036c858583610448565b5050505050565b835160408501518451606483019060208701905b8015610436576080811061004057815183526020808301519084015260408083015190840152606080830151908401526080918201916103c79082610629565b905060808710156103e3576103dc8785610656565b93506103fb565b6103ee608088610629565b96506103dc608085610656565b60ff841660e486015360ff8460081c1660e586015360ff8460101c1660e686015380610428578560f48601535b61043189610472565b610387565b50505060409095019490945250505050565b6080825161045691906105f1565b1561046057600080fd5b61046d8383836000610373565b505050565b80516020810160406024830160d5836009600019fa61046d57600080fd5b6000602082840312156104a257600080fd5b81356001600160a01b038116811461014f57600080fd5b634e487b7160e01b600052604160045260246000fd5b6000602082840312156104e157600080fd5b813567ffffffffffffffff808211156104f957600080fd5b818401915084601f83011261050d57600080fd5b81358181111561051f5761051f6104b9565b604051601f8201601f19908116603f01168101908382118183101715610547576105476104b9565b8160405282815287602084870101111561056057600080fd5b826020860160208301376000928101602001929092525095945050505050565b6000815160005b818110156105a15760208185018101518683015201610587565b818111156105b0576000828601525b509290920192915050565b60006105d06105ca8386610580565b84610580565b949350505050565b6000602082840312156105ea57600080fd5b5051919050565b60008261060e57634e487b7160e01b600052601260045260246000fd5b500690565b634e487b7160e01b600052601160045260246000fd5b60008282101561063b5761063b610613565b500390565b634e487b7160e01b600052600160045260246000fd5b6000821982111561066957610669610613565b50019056fe0000000c08c9bdf267e6096a3ba7ca8485ae67bb2bf894fe72f36e3cf1361d5f3af54fa5d182e6ad7f520e511f6c3e2b8c68059b6bbd41fbabd9831f79217e1319cde05b00000000000000000000000000000000000000000000000000000000000000000000000000000000000000000000000000000000000000000000000000000000000000000000000000000000000000000000000000000000000000000000000000000000000000000000000000000000000000000000000000000000000000000000000000000000000000000000000000a2646970667358221220b0e6b3b152a4f603a1342fbba90b9ee1cf134ae813a8b6e40858de84b72bade764736f6c634300080a0033",
  "devdoc": {
    "kind": "dev",
    "methods": {},
    "version": 1
  },
  "userdoc": {
    "kind": "user",
    "methods": {},
    "version": 1
  },
  "storageLayout": {
    "storage": [],
    "types": null
  }
}