{
  "address": "0x3311A4609cdD0C7Ce8D2Dfa592BA4aDD23FeC578",
  "abi": [
    {
      "inputs": [],
      "name": "MINT_CALL_INDEX",
      "outputs": [
        {
          "internalType": "uint8",
          "name": "",
          "type": "uint8"
        }
      ],
      "stateMutability": "view",
      "type": "function"
    },
    {
      "inputs": [],
      "name": "PALLET_INDEX",
      "outputs": [
        {
          "internalType": "uint8",
          "name": "",
          "type": "uint8"
        }
      ],
      "stateMutability": "view",
      "type": "function"
    },
    {
      "inputs": [],
      "name": "REDEEM_CALL_INDEX",
      "outputs": [
        {
          "internalType": "uint8",
          "name": "",
          "type": "uint8"
        }
      ],
      "stateMutability": "view",
      "type": "function"
    },
    {
      "inputs": [],
      "name": "SWAP_CALL_INDEX",
      "outputs": [
        {
          "internalType": "uint8",
          "name": "",
          "type": "uint8"
        }
      ],
      "stateMutability": "view",
      "type": "function"
    },
    {
      "inputs": [
        {
          "internalType": "address",
          "name": "caller",
          "type": "address"
        },
        {
          "internalType": "bytes2",
          "name": "token",
          "type": "bytes2"
        },
        {
          "internalType": "bytes",
          "name": "targetChain",
          "type": "bytes"
        }
      ],
      "name": "buildMintCallBytes",
      "outputs": [
        {
          "internalType": "bytes",
          "name": "",
          "type": "bytes"
        }
      ],
      "stateMutability": "pure",
      "type": "function"
    },
    {
      "inputs": [
        {
          "internalType": "address",
          "name": "caller",
          "type": "address"
        },
        {
          "internalType": "bytes2",
          "name": "vtoken",
          "type": "bytes2"
        },
        {
          "internalType": "bytes",
          "name": "targetChain",
          "type": "bytes"
        }
      ],
      "name": "buildRedeemCallBytes",
      "outputs": [
        {
          "internalType": "bytes",
          "name": "",
          "type": "bytes"
        }
      ],
      "stateMutability": "pure",
      "type": "function"
    },
    {
      "inputs": [
        {
          "internalType": "address",
          "name": "caller",
          "type": "address"
        },
        {
          "internalType": "bytes2",
          "name": "currency_in",
          "type": "bytes2"
        },
        {
          "internalType": "bytes2",
          "name": "currency_out",
          "type": "bytes2"
        },
        {
          "internalType": "uint128",
          "name": "currency_out_min",
          "type": "uint128"
        },
        {
          "internalType": "bytes",
          "name": "targetChain",
          "type": "bytes"
        }
      ],
      "name": "buildSwapCallBytes",
      "outputs": [
        {
          "internalType": "bytes",
          "name": "",
          "type": "bytes"
        }
      ],
      "stateMutability": "pure",
      "type": "function"
    }
  ],
  "transactionHash": "0x9683a8b4ca387a0673b80e827131f569c7ef55d7880f0715053fc6ec9732edec",
  "args": [],
  "numDeployments": 1,
  "solcInputHash": "31708f48714e7a3514bfb8b84434d232",
  "bytecode": "0x61088c61003a600b82828239805160001a60731461002d57634e487b7160e01b600052600060045260246000fd5b30600052607381538281f3fe73000000000000000000000000000000000000000030146080604052600436106100875760003560e01c806354ffa3e81161006557806354ffa3e8146100d35780639f004783146100db578063cb070de5146100ee578063d53d7cad1461010157600080fd5b806314dadaaa1461008c5780633ce80926146100ab57806343fef1af146100cb575b600080fd5b610094600181565b60405160ff90911681526020015b60405180910390f35b6100be6100b93660046104b6565b610109565b6040516100a29190610544565b610094607d81565b610094600281565b6100be6100e93660046104b6565b6101e5565b6100be6100fc366004610577565b610251565b610094600081565b60408051600280825281830190925260609160009190602082018180368337019050509050607d60f81b8160008151811061014657610146610605565b60200101906001600160f81b031916908160001a905350600060f81b8160018151811061017557610175610605565b60200101906001600160f81b031916908160001a90535060408051606087901b6bffffffffffffffffffffffff1916602082015281516014818303018152603482019092526101cc9183918790879060540161061b565b6040516020818303038152906040529150509392505050565b60408051600280825281830190925260609160009190602082018180368337019050509050607d60f81b8160008151811061022257610222610605565b60200101906001600160f81b031916908160001a905350600260f81b8160018151811061017557610175610605565b60408051600280825281830190925260609160009190602082018180368337019050509050607d60f81b8160008151811061028e5761028e610605565b60200101906001600160f81b031916908160001a905350600160f81b816001815181106102bd576102bd610605565b60200101906001600160f81b031916908160001a9053506040516bffffffffffffffffffffffff19606089901b1660208201528190603401604051602081830303815290604052878761030f88610340565b8760405160200161032596959493929190610672565b60405160208183030381529060405291505095945050505050565b6040805160108082528183019092526060916000919060208201818036833701905050905060005b60108110156103d85761037c816008610701565b610387906002610806565b61039a906001600160801b038616610819565b60f81b8282815181106103af576103af610605565b60200101906001600160f81b031916908160001a905350806103d08161083b565b915050610368565b5092915050565b80356001600160a01b03811681146103f657600080fd5b919050565b80356001600160f01b0319811681146103f657600080fd5b634e487b7160e01b600052604160045260246000fd5b600082601f83011261043a57600080fd5b813567ffffffffffffffff8082111561045557610455610413565b604051601f8301601f19908116603f0116810190828211818310171561047d5761047d610413565b8160405283815286602085880101111561049657600080fd5b836020870160208301376000602085830101528094505050505092915050565b6000806000606084860312156104cb57600080fd5b6104d4846103df565b92506104e2602085016103fb565b9150604084013567ffffffffffffffff8111156104fe57600080fd5b61050a86828701610429565b9150509250925092565b60005b8381101561052f578181015183820152602001610517565b8381111561053e576000848401525b50505050565b6020815260008251806020840152610563816040850160208701610514565b601f01601f19169190910160400192915050565b600080600080600060a0868803121561058f57600080fd5b610598866103df565b94506105a6602087016103fb565b93506105b4604087016103fb565b925060608601356001600160801b03811681146105d057600080fd5b9150608086013567ffffffffffffffff8111156105ec57600080fd5b6105f888828901610429565b9150509295509295909350565b634e487b7160e01b600052603260045260246000fd5b6000855161062d818460208a01610514565b855190830190610641818360208a01610514565b6001600160f01b0319861691019081528351610664816002840160208801610514565b016002019695505050505050565b60008751610684818460208c01610514565b875190830190610698818360208c01610514565b6001600160f01b0319888116929091019182528616600282015284516106c5816004840160208901610514565b84519101906106db816004840160208801610514565b0160040198975050505050505050565b634e487b7160e01b600052601160045260246000fd5b600081600019048311821515161561071b5761071b6106eb565b500290565b600181815b8085111561075b578160001904821115610741576107416106eb565b8085161561074e57918102915b93841c9390800290610725565b509250929050565b60008261077257506001610800565b8161077f57506000610800565b8160018114610795576002811461079f576107bb565b6001915050610800565b60ff8411156107b0576107b06106eb565b50506001821b610800565b5060208310610133831016604e8410600b84101617156107de575081810a610800565b6107e88383610720565b80600019048211156107fc576107fc6106eb565b0290505b92915050565b60006108128383610763565b9392505050565b60008261083657634e487b7160e01b600052601260045260246000fd5b500490565b600060001982141561084f5761084f6106eb565b506001019056fea2646970667358221220a7722cf254f0cd06643d3dee7a915347b2a057b57de587cd075630395847234b64736f6c634300080a0033",
  "devdoc": {
    "kind": "dev",
    "methods": {},
    "version": 1
  },
  "userdoc": {
    "kind": "user",
    "methods": {},
    "version": 1
  },
  "storageLayout": {
    "storage": [],
    "types": null
  }
}