{
  "address": "0x3311A4609cdD0C7Ce8D2Dfa592BA4aDD23FeC578",
  "abi": [
    {
      "inputs": [],
      "name": "MINT_CALL_INDEX",
      "outputs": [
        {
          "internalType": "uint8",
          "name": "",
          "type": "uint8"
        }
      ],
      "stateMutability": "view",
      "type": "function"
    },
    {
      "inputs": [],
      "name": "PALLET_INDEX",
      "outputs": [
        {
          "internalType": "uint8",
          "name": "",
          "type": "uint8"
        }
      ],
      "stateMutability": "view",
      "type": "function"
    },
    {
      "inputs": [],
      "name": "REDEEM_CALL_INDEX",
      "outputs": [
        {
          "internalType": "uint8",
          "name": "",
          "type": "uint8"
        }
      ],
      "stateMutability": "view",
      "type": "function"
    },
    {
      "inputs": [],
      "name": "SWAP_CALL_INDEX",
      "outputs": [
        {
          "internalType": "uint8",
          "name": "",
          "type": "uint8"
        }
      ],
      "stateMutability": "view",
      "type": "function"
    },
    {
      "inputs": [
        {
          "internalType": "address",
          "name": "caller",
          "type": "address"
        },
        {
          "internalType": "bytes2",
          "name": "token",
          "type": "bytes2"
        },
        {
          "internalType": "bytes1",
          "name": "targetChain",
          "type": "bytes1"
        }
      ],
      "name": "buildMintCallBytes",
      "outputs": [
        {
          "internalType": "bytes",
          "name": "",
          "type": "bytes"
        }
      ],
      "stateMutability": "pure",
      "type": "function"
    },
    {
      "inputs": [
        {
          "internalType": "address",
          "name": "caller",
          "type": "address"
        },
        {
          "internalType": "bytes2",
          "name": "vtoken",
          "type": "bytes2"
        },
        {
          "internalType": "bytes1",
          "name": "targetChain",
          "type": "bytes1"
        }
      ],
      "name": "buildRedeemCallBytes",
      "outputs": [
        {
          "internalType": "bytes",
          "name": "",
          "type": "bytes"
        }
      ],
      "stateMutability": "pure",
      "type": "function"
    },
    {
      "inputs": [
        {
          "internalType": "address",
          "name": "caller",
          "type": "address"
        },
        {
          "internalType": "bytes2",
          "name": "currency_in",
          "type": "bytes2"
        },
        {
          "internalType": "bytes2",
          "name": "currency_out",
          "type": "bytes2"
        },
        {
          "internalType": "uint128",
          "name": "currency_out_min",
          "type": "uint128"
        },
        {
          "internalType": "bytes1",
          "name": "targetChain",
          "type": "bytes1"
        }
      ],
      "name": "buildSwapCallBytes",
      "outputs": [
        {
          "internalType": "bytes",
          "name": "",
          "type": "bytes"
        }
      ],
      "stateMutability": "pure",
      "type": "function"
    }
  ],
  "transactionHash": "0x1a683896f8e5cbbf9c38576d22424923d842adf18e7afbe809cd3892cde32490",
  "args": [],
  "numDeployments": 1,
  "solcInputHash": "7d3d40590162c17cf0cbd73fca48ee0c",
  "bytecode": "0x6107c961003a600b82828239805160001a60731461002d57634e487b7160e01b600052600060045260246000fd5b30600052607381538281f3fe73000000000000000000000000000000000000000030146080604052600436106100875760003560e01c806354ffa3e81161006557806354ffa3e8146100d75780639cde2128146100df578063d53d7cad146100f2578063d9bee3b3146100fa57600080fd5b80630daf27e31461008c57806314dadaaa146100b557806343fef1af146100cf575b600080fd5b61009f61009a36600461042f565b61010d565b6040516100ac91906104d2565b60405180910390f35b6100bd600181565b60405160ff90911681526020016100ac565b6100bd607d81565b6100bd600281565b61009f6100ed366004610505565b6101fc565b6100bd600081565b61009f610108366004610505565b6102d8565b60408051600280825281830190925260609160009190602082018180368337019050509050607d60f81b8160008151811061014a5761014a610548565b60200101906001600160f81b031916908160001a905350600160f81b8160018151811061017957610179610548565b60200101906001600160f81b031916908160001a9053506040516bffffffffffffffffffffffff19606089901b166020820152819060340160405160208183030381529060405287876101cb88610344565b876040516020016101e19695949392919061055e565b60405160208183030381529060405291505095945050505050565b60408051600280825281830190925260609160009190602082018180368337019050509050607d60f81b8160008151811061023957610239610548565b60200101906001600160f81b031916908160001a905350600260f81b8160018151811061026857610268610548565b60200101906001600160f81b031916908160001a90535060408051606087901b6bffffffffffffffffffffffff1916602082015281516014818303018152603482019092526102bf918391879087906054016105d6565b6040516020818303038152906040529150509392505050565b60408051600280825281830190925260609160009190602082018180368337019050509050607d60f81b8160008151811061031557610315610548565b60200101906001600160f81b031916908160001a905350600060f81b8160018151811061026857610268610548565b6040805160108082528183019092526060916000919060208201818036833701905050905060005b60108110156103dc5761038081600861063e565b61038b906002610743565b61039e906001600160801b038616610756565b60f81b8282815181106103b3576103b3610548565b60200101906001600160f81b031916908160001a905350806103d481610778565b91505061036c565b5092915050565b80356001600160a01b03811681146103fa57600080fd5b919050565b80356001600160f01b0319811681146103fa57600080fd5b80356001600160f81b0319811681146103fa57600080fd5b600080600080600060a0868803121561044757600080fd5b610450866103e3565b945061045e602087016103ff565b935061046c604087016103ff565b925060608601356001600160801b038116811461048857600080fd5b915061049660808701610417565b90509295509295909350565b60005b838110156104bd5781810151838201526020016104a5565b838111156104cc576000848401525b50505050565b60208152600082518060208401526104f18160408501602087016104a2565b601f01601f19169190910160400192915050565b60008060006060848603121561051a57600080fd5b610523846103e3565b9250610531602085016103ff565b915061053f60408501610417565b90509250925092565b634e487b7160e01b600052603260045260246000fd5b60008751610570818460208c016104a2565b875190830190610584818360208c016104a2565b6001600160f01b0319888116929091019182528616600282015284516105b18160048401602089016104a2565b6001600160f81b03199490941693016004810193909352505060050195945050505050565b600085516105e8818460208a016104a2565b8551908301906105fc818360208a016104a2565b6001600160f01b031995909516940193845250506001600160f81b031916600282015260030192915050565b634e487b7160e01b600052601160045260246000fd5b600081600019048311821515161561065857610658610628565b500290565b600181815b8085111561069857816000190482111561067e5761067e610628565b8085161561068b57918102915b93841c9390800290610662565b509250929050565b6000826106af5750600161073d565b816106bc5750600061073d565b81600181146106d257600281146106dc576106f8565b600191505061073d565b60ff8411156106ed576106ed610628565b50506001821b61073d565b5060208310610133831016604e8410600b841016171561071b575081810a61073d565b610725838361065d565b806000190482111561073957610739610628565b0290505b92915050565b600061074f83836106a0565b9392505050565b60008261077357634e487b7160e01b600052601260045260246000fd5b500490565b600060001982141561078c5761078c610628565b506001019056fea26469706673582212205f256a9b1334aa98f5504f171278061813e771c45574e2ff775944d70473c69a64736f6c634300080a0033",
  "devdoc": {
    "kind": "dev",
    "methods": {},
    "version": 1
  },
  "userdoc": {
    "kind": "user",
    "methods": {},
    "version": 1
  },
  "storageLayout": {
    "storage": [],
    "types": null
  }
}