{
  "address": "0x0165878A594ca255338adfa4d48449f69242Eb8F",
  "abi": [
    {
      "anonymous": false,
      "inputs": [
        {
          "indexed": false,
          "internalType": "uint8",
          "name": "version",
          "type": "uint8"
        }
      ],
      "name": "Initialized",
      "type": "event"
    },
    {
      "anonymous": false,
      "inputs": [
        {
          "indexed": false,
          "internalType": "address",
          "name": "minter",
          "type": "address"
        },
        {
          "indexed": false,
          "internalType": "address",
          "name": "assetAddress",
          "type": "address"
        },
        {
          "indexed": false,
          "internalType": "uint256",
          "name": "amount",
          "type": "uint256"
        },
        {
          "indexed": false,
          "internalType": "bytes",
          "name": "callcode",
          "type": "bytes"
        }
      ],
      "name": "Mint",
      "type": "event"
    },
    {
      "anonymous": false,
      "inputs": [
        {
          "indexed": true,
          "internalType": "address",
          "name": "previousOwner",
          "type": "address"
        },
        {
          "indexed": true,
          "internalType": "address",
          "name": "newOwner",
          "type": "address"
        }
      ],
      "name": "OwnershipTransferred",
      "type": "event"
    },
    {
      "anonymous": false,
      "inputs": [
        {
          "indexed": false,
          "internalType": "address",
          "name": "account",
          "type": "address"
        }
      ],
      "name": "Paused",
      "type": "event"
    },
    {
      "anonymous": false,
      "inputs": [
        {
          "indexed": false,
          "internalType": "address",
          "name": "redeemer",
          "type": "address"
        },
        {
          "indexed": false,
          "internalType": "address",
          "name": "assetAddress",
          "type": "address"
        },
        {
          "indexed": false,
          "internalType": "uint256",
          "name": "amount",
          "type": "uint256"
        },
        {
          "indexed": false,
          "internalType": "bytes",
          "name": "callcode",
          "type": "bytes"
        }
      ],
      "name": "Redeem",
      "type": "event"
    },
    {
      "anonymous": false,
      "inputs": [
        {
          "indexed": false,
          "internalType": "address",
          "name": "swapper",
          "type": "address"
        },
        {
          "indexed": false,
          "internalType": "address",
          "name": "assetInAddress",
          "type": "address"
        },
        {
          "indexed": false,
          "internalType": "address",
          "name": "assetOutAddress",
          "type": "address"
        },
        {
          "indexed": false,
          "internalType": "uint256",
          "name": "assetInAmount",
          "type": "uint256"
        },
        {
          "indexed": false,
          "internalType": "uint128",
          "name": "assetOutMin",
          "type": "uint128"
        },
        {
          "indexed": false,
          "internalType": "bytes",
          "name": "callcode",
          "type": "bytes"
        }
      ],
      "name": "Swap",
      "type": "event"
    },
    {
      "anonymous": false,
      "inputs": [
        {
          "indexed": false,
          "internalType": "address",
          "name": "account",
          "type": "address"
        }
      ],
      "name": "Unpaused",
      "type": "event"
    },
    {
      "inputs": [],
      "name": "BNCAddress",
      "outputs": [
        {
          "internalType": "address",
          "name": "",
          "type": "address"
        }
      ],
      "stateMutability": "view",
      "type": "function"
    },
    {
      "inputs": [],
      "name": "NATIVE_ASSET_ADDRESS",
      "outputs": [
        {
          "internalType": "address",
          "name": "",
          "type": "address"
        }
      ],
      "stateMutability": "view",
      "type": "function"
    },
    {
      "inputs": [],
      "name": "TARGETCHAIN",
      "outputs": [
        {
          "internalType": "bytes1",
          "name": "",
          "type": "bytes1"
        }
      ],
      "stateMutability": "view",
      "type": "function"
    },
    {
      "inputs": [],
      "name": "XCM_TRANSACTORV2_ADDRESS",
      "outputs": [
        {
          "internalType": "address",
          "name": "",
          "type": "address"
        }
      ],
      "stateMutability": "view",
      "type": "function"
    },
    {
      "inputs": [],
      "name": "XTOKENS",
      "outputs": [
        {
          "internalType": "address",
          "name": "",
          "type": "address"
        }
      ],
      "stateMutability": "view",
      "type": "function"
    },
    {
      "inputs": [
        {
          "internalType": "address",
          "name": "",
          "type": "address"
        }
      ],
      "name": "assetAddressToCurrencyId",
      "outputs": [
        {
          "internalType": "bytes2",
          "name": "",
          "type": "bytes2"
        }
      ],
      "stateMutability": "view",
      "type": "function"
    },
    {
      "inputs": [
        {
          "internalType": "address",
          "name": "",
          "type": "address"
        }
      ],
      "name": "assetAddressToMinimumValue",
      "outputs": [
        {
          "internalType": "uint256",
          "name": "",
          "type": "uint256"
        }
      ],
      "stateMutability": "view",
      "type": "function"
    },
    {
      "inputs": [],
      "name": "bifrostParaId",
      "outputs": [
        {
          "internalType": "uint32",
          "name": "",
          "type": "uint32"
        }
      ],
      "stateMutability": "view",
      "type": "function"
    },
    {
      "inputs": [],
      "name": "feeAmount",
      "outputs": [
        {
          "internalType": "uint256",
          "name": "",
          "type": "uint256"
        }
      ],
      "stateMutability": "view",
      "type": "function"
    },
    {
      "inputs": [
        {
          "internalType": "address",
          "name": "_BNCAddress",
          "type": "address"
        },
        {
          "internalType": "uint32",
          "name": "_bifrostParaId",
          "type": "uint32"
        },
        {
          "internalType": "bytes2",
          "name": "_nativeCurrencyId",
          "type": "bytes2"
        }
      ],
      "name": "initialize",
      "outputs": [],
      "stateMutability": "nonpayable",
      "type": "function"
    },
    {
      "inputs": [
        {
          "internalType": "address",
          "name": "assetAddress",
          "type": "address"
        },
        {
          "internalType": "uint256",
          "name": "amount",
          "type": "uint256"
        }
      ],
      "name": "mintVAsset",
      "outputs": [],
      "stateMutability": "nonpayable",
      "type": "function"
    },
    {
      "inputs": [],
      "name": "mintVNativeAsset",
      "outputs": [],
      "stateMutability": "payable",
      "type": "function"
    },
    {
      "inputs": [],
      "name": "nativeCurrencyId",
      "outputs": [
        {
          "internalType": "bytes2",
          "name": "",
          "type": "bytes2"
        }
      ],
      "stateMutability": "view",
      "type": "function"
    },
    {
      "inputs": [],
      "name": "overallWeight",
      "outputs": [
        {
          "internalType": "uint64",
          "name": "",
          "type": "uint64"
        }
      ],
      "stateMutability": "view",
      "type": "function"
    },
    {
      "inputs": [],
      "name": "owner",
      "outputs": [
        {
          "internalType": "address",
          "name": "",
          "type": "address"
        }
      ],
      "stateMutability": "view",
      "type": "function"
    },
    {
      "inputs": [],
      "name": "pause",
      "outputs": [],
      "stateMutability": "nonpayable",
      "type": "function"
    },
    {
      "inputs": [],
      "name": "paused",
      "outputs": [
        {
          "internalType": "bool",
          "name": "",
          "type": "bool"
        }
      ],
      "stateMutability": "view",
      "type": "function"
    },
    {
      "inputs": [
        {
          "internalType": "address",
          "name": "vAssetAddress",
          "type": "address"
        },
        {
          "internalType": "uint256",
          "name": "amount",
          "type": "uint256"
        }
      ],
      "name": "redeemAsset",
      "outputs": [],
      "stateMutability": "nonpayable",
      "type": "function"
    },
    {
      "inputs": [],
      "name": "renounceOwnership",
      "outputs": [],
      "stateMutability": "nonpayable",
      "type": "function"
    },
    {
      "inputs": [
        {
          "internalType": "address",
          "name": "assetAddress",
          "type": "address"
        },
        {
          "internalType": "bytes2",
          "name": "currencyId",
          "type": "bytes2"
        }
      ],
      "name": "setAssetAddressToCurrencyId",
      "outputs": [],
      "stateMutability": "nonpayable",
      "type": "function"
    },
    {
      "inputs": [
        {
          "internalType": "address",
          "name": "assetAddress",
          "type": "address"
        },
        {
          "internalType": "uint256",
          "name": "minimumValue",
          "type": "uint256"
        }
      ],
      "name": "setAssetAddressToMinimumValue",
      "outputs": [],
      "stateMutability": "nonpayable",
      "type": "function"
    },
    {
      "inputs": [
        {
          "internalType": "uint64",
          "name": "_xtokenWeight",
          "type": "uint64"
        },
        {
          "internalType": "uint64",
          "name": "_transactRequiredWeightAtMost",
          "type": "uint64"
        },
        {
          "internalType": "uint64",
          "name": "_overallWeight",
          "type": "uint64"
        },
        {
          "internalType": "uint256",
          "name": "_feeAmount",
          "type": "uint256"
        }
      ],
      "name": "setFee",
      "outputs": [],
      "stateMutability": "nonpayable",
      "type": "function"
    },
    {
      "inputs": [
        {
          "internalType": "address",
          "name": "assetInAddress",
          "type": "address"
        },
        {
          "internalType": "address",
          "name": "assetOutAddress",
          "type": "address"
        },
        {
          "internalType": "uint256",
          "name": "assetInAmount",
          "type": "uint256"
        },
        {
          "internalType": "uint128",
          "name": "assetOutMin",
          "type": "uint128"
        }
      ],
      "name": "swapAssetsForExactAssets",
      "outputs": [],
      "stateMutability": "nonpayable",
      "type": "function"
    },
    {
      "inputs": [
        {
          "internalType": "address",
          "name": "assetInAddress",
          "type": "address"
        },
        {
          "internalType": "uint256",
          "name": "assetInAmount",
          "type": "uint256"
        },
        {
          "internalType": "uint128",
          "name": "assetOutMin",
          "type": "uint128"
        }
      ],
      "name": "swapAssetsForExactNativeAssets",
      "outputs": [],
      "stateMutability": "nonpayable",
      "type": "function"
    },
    {
      "inputs": [
        {
          "internalType": "address",
          "name": "assetOutAddress",
          "type": "address"
        },
        {
          "internalType": "uint128",
          "name": "assetOutMin",
          "type": "uint128"
        }
      ],
      "name": "swapNativeAssetsForExactAssets",
      "outputs": [],
      "stateMutability": "payable",
      "type": "function"
    },
    {
      "inputs": [],
      "name": "transactRequiredWeightAtMost",
      "outputs": [
        {
          "internalType": "uint64",
          "name": "",
          "type": "uint64"
        }
      ],
      "stateMutability": "view",
      "type": "function"
    },
    {
      "inputs": [
        {
          "internalType": "address",
          "name": "newOwner",
          "type": "address"
        }
      ],
      "name": "transferOwnership",
      "outputs": [],
      "stateMutability": "nonpayable",
      "type": "function"
    },
    {
      "inputs": [],
      "name": "unpause",
      "outputs": [],
      "stateMutability": "nonpayable",
      "type": "function"
    },
    {
      "inputs": [],
      "name": "xtokenWeight",
      "outputs": [
        {
          "internalType": "uint64",
          "name": "",
          "type": "uint64"
        }
      ],
      "stateMutability": "view",
      "type": "function"
    }
  ],
  "transactionHash": "0x95ce70c8697d06ceaf28afc39bab4e849add5e26bcdb3428479a7c8a02a3528c",
  "args": [],
  "numDeployments": 1,
  "solcInputHash": "6c896790ddad93907504aded3a7e1058",
  "bytecode": "0x608060405234801561001057600080fd5b506124b8806100206000396000f3fe6080604052600436106101c25760003560e01c80638a6fa437116100f7578063c86093a811610095578063eddc8b9111610064578063eddc8b9114610538578063ef70a0671461054e578063f163112a1461056e578063f2fde38b1461058e57600080fd5b8063c86093a8146104a5578063d7c274c0146104de578063de62305f146104f4578063e284db661461052557600080fd5b806394cb2e49116100d157806394cb2e491461041e578063a11b003714610445578063a181491414610465578063b2a115051461048557600080fd5b80638a6fa437146103ca5780638da5cb5b146103e05780639097c25d146103fe57600080fd5b80635bbfef45116101645780636deea29c1161013e5780636deea29c146103785780636ef67f7f14610398578063715018a6146103a05780638456cb59146103b557600080fd5b80635bbfef451461031f5780635c975abb1461033f57806369e154041461036257600080fd5b80633c75045e116101a05780633c75045e146102795780633d587204146102a95780633f4ba83a146102e85780634acedccb146102ff57600080fd5b80631aa51037146101c75780632ac7343d14610207578063374f00ff14610241575b600080fd5b3480156101d357600080fd5b506101f46101e2366004611e26565b609d6020526000908152604090205481565b6040519081526020015b60405180910390f35b34801561021357600080fd5b5060995461022890600160c01b900460f01b81565b6040516001600160f01b031990911681526020016101fe565b34801561024d57600080fd5b50609954610261906001600160a01b031681565b6040516001600160a01b0390911681526020016101fe565b34801561028557600080fd5b50610228610294366004611e26565b609c6020526000908152604090205460f01b81565b3480156102b557600080fd5b506097546102d090600160801b90046001600160401b031681565b6040516001600160401b0390911681526020016101fe565b3480156102f457600080fd5b506102fd6105ae565b005b34801561030b57600080fd5b506102fd61031a366004611e5f565b6105c0565b34801561032b57600080fd5b506102fd61033a366004611ec2565b610724565b34801561034b57600080fd5b5060655460ff1660405190151581526020016101fe565b34801561036e57600080fd5b506101f460985481565b34801561038457600080fd5b506102fd610393366004611f10565b6109d1565b6102fd610bbc565b3480156103ac57600080fd5b506102fd610d49565b3480156103c157600080fd5b506102fd610d5b565b3480156103d657600080fd5b5061026161080281565b3480156103ec57600080fd5b506033546001600160a01b0316610261565b34801561040a57600080fd5b506102fd610419366004611f51565b610d6b565b34801561042a57600080fd5b506097546102d090600160401b90046001600160401b031681565b34801561045157600080fd5b506097546102d0906001600160401b031681565b34801561047157600080fd5b506102fd610480366004611f10565b610f7e565b34801561049157600080fd5b506102fd6104a0366004611f9e565b610fc8565b3480156104b157600080fd5b506099546104c990600160a01b900463ffffffff1681565b60405163ffffffff90911681526020016101fe565b3480156104ea57600080fd5b5061026161080481565b34801561050057600080fd5b5061050c600160f81b81565b6040516001600160f81b031990911681526020016101fe565b6102fd610533366004611fd1565b6111c4565b34801561054457600080fd5b5061026161080d81565b34801561055a57600080fd5b506102fd610569366004611f10565b6113b3565b34801561057a57600080fd5b506102fd610589366004612004565b611554565b34801561059a57600080fd5b506102fd6105a9366004611e26565b6115fd565b6105b6611676565b6105be6116d0565b565b6105c8611676565b6402540be400846001600160401b031611156106245760405162461bcd60e51b815260206004820152601660248201527578746f6b656e57656967687420746f6f206c6172676560501b60448201526064015b60405180910390fd5b6402540be400836001600160401b031611156106525760405162461bcd60e51b815260040161061b9061202e565b6402540be400826001600160401b031611156106805760405162461bcd60e51b815260040161061b9061202e565b64e8d4a510008111156106cb5760405162461bcd60e51b8152602060048201526013602482015272666565416d6f756e7420746f6f206c6172676560681b604482015260640161061b565b609780546001600160401b03938416600160801b0267ffffffffffffffff60801b19958516600160401b026fffffffffffffffffffffffffffffffff199092169690941695909517949094179290921617909155609855565b600054610100900460ff16158080156107445750600054600160ff909116105b8061075e5750303b15801561075e575060005460ff166001145b6107c15760405162461bcd60e51b815260206004820152602e60248201527f496e697469616c697a61626c653a20636f6e747261637420697320616c72656160448201526d191e481a5b9a5d1a585b1a5e995960921b606482015260840161061b565b6000805460ff1916600117905580156107e4576000805461ff0019166101001790555b6107ec611722565b6001600160a01b0384166108345760405162461bcd60e51b815260206004820152600f60248201526e496e76616c6964206164647265737360881b604482015260640161061b565b8263ffffffff166107d1148061085157508263ffffffff166107ee145b6108955760405162461bcd60e51b8152602060048201526015602482015274125b9d985b1a5908189a599c9bdcdd14185c985259605a1b604482015260640161061b565b61010560f11b6001600160f01b0319831614806108c0575061080160f01b6001600160f01b03198316145b61090c5760405162461bcd60e51b815260206004820152601860248201527f496e76616c6964206e617469766543757272656e637949640000000000000000604482015260640161061b565b609a80546001600160a01b031990811661080d17909155609b80549091166108041790556109466402540be400808064e8d4a510006105c0565b609980546001600160a01b0386166001600160c01b031990911617600160a01b63ffffffff8616021761ffff60c01b1916600160c01b60f085901c0217905580156109cb576000805461ff0019169055604051600181527f7f26b83ff96e1f2b6a682f133852f6798a09c465da95921460cefb38474024989060200160405180910390a15b50505050565b6109d9611751565b6001600160a01b0382166000908152609c602052604090205460f01b6001600160f01b03198116610a445760405162461bcd60e51b8152602060048201526015602482015274496e76616c6964207641737365744164647265737360581b604482015260640161061b565b610a4e8383611797565b6000610a586119b5565b60405163139bc42560e31b815290915060009073Dc64a140Aa3E981100a9becA4E685f962f0cF6C990639cde212890610a9d9033908790600160f81b90600401612074565b600060405180830381865af4158015610aba573d6000803e3d6000fd5b505050506040513d6000823e601f3d908101601f19168201604052610ae291908101906120eb565b609a54609954609754609854604051635b2479ff60e11b81529495506001600160a01b039384169463b648f3fe94610b409489949116926001600160401b03600160401b83048116938a93600160801b900490911690600401612236565b600060405180830381600087803b158015610b5a57600080fd5b505af1158015610b6e573d6000803e3d6000fd5b505050507f08289580fadd4da935641e6814bb9b5e9fc4cccdedcff6d35124fcb578695745610b9a3390565b868684604051610bad9493929190612297565b60405180910390a15050505050565b610bc4611751565b610bcd34611a6e565b6000610bd76119b5565b9050600073Dc64a140Aa3E981100a9becA4E685f962f0cF6C963d9bee3b3336099546040516001600160e01b031960e085901b168152610c2b9291600160c01b900460f01b90600160f81b90600401612074565b600060405180830381865af4158015610c48573d6000803e3d6000fd5b505050506040513d6000823e601f3d908101601f19168201604052610c7091908101906120eb565b609a54609954609754609854604051635b2479ff60e11b81529495506001600160a01b039384169463b648f3fe94610cce9489949116926001600160401b03600160401b83048116938a93600160801b900490911690600401612236565b600060405180830381600087803b158015610ce857600080fd5b505af1158015610cfc573d6000803e3d6000fd5b505050507f30c99b8e9449992bd7616d2645b02ee0a2b6f229a45d6b56b686963ff0c53497610d283390565b6108023484604051610d3d9493929190612297565b60405180910390a15050565b610d51611676565b6105be6000611bf2565b610d63611676565b6105be611c44565b610d73611751565b6001600160a01b038085166000908152609c602052604080822054928616825290205460f091821b911b6001600160f01b0319821615801590610dbf57506001600160f01b0319811615155b610dfb5760405162461bcd60e51b815260206004820152600d60248201526c125b9d985b1a5908185cdcd95d609a1b604482015260640161061b565b610e058685611797565b6000610e0f6119b5565b604051630daf27e360e01b815290915060009073Dc64a140Aa3E981100a9becA4E685f962f0cF6C990630daf27e390610e58903390889088908b90600160f81b906004016122d4565b600060405180830381865af4158015610e75573d6000803e3d6000fd5b505050506040513d6000823e601f3d908101601f19168201604052610e9d91908101906120eb565b609a54609954609754609854604051635b2479ff60e11b81529495506001600160a01b039384169463b648f3fe94610efb9489949116926001600160401b03600160401b83048116938a93600160801b900490911690600401612236565b600060405180830381600087803b158015610f1557600080fd5b505af1158015610f29573d6000803e3d6000fd5b505050507f9138260f61fa33975c7836d8bc3bd6a90f1af883710740bbf6341e5664607015610f553390565b8989898986604051610f6c96959493929190612321565b60405180910390a15050505050505050565b610f86611676565b6001600160a01b038216610fac5760405162461bcd60e51b815260040161061b90612377565b6001600160a01b039091166000908152609d6020526040902055565b610fd0611751565b6001600160a01b0383166000908152609c602052604090205460f01b6001600160f01b031981166110355760405162461bcd60e51b815260206004820152600f60248201526e24b73b30b634b21030b9b9b2ba24b760891b604482015260640161061b565b61103f8484611797565b60006110496119b5565b609954604051630daf27e360e01b815291925060009173Dc64a140Aa3E981100a9becA4E685f962f0cF6C991630daf27e39161109e9133918891600160c01b900460f01b908a90600160f81b906004016122d4565b600060405180830381865af41580156110bb573d6000803e3d6000fd5b505050506040513d6000823e601f3d908101601f191682016040526110e391908101906120eb565b609a54609954609754609854604051635b2479ff60e11b81529495506001600160a01b039384169463b648f3fe946111419489949116926001600160401b03600160401b83048116938a93600160801b900490911690600401612236565b600060405180830381600087803b15801561115b57600080fd5b505af115801561116f573d6000803e3d6000fd5b505050507f9138260f61fa33975c7836d8bc3bd6a90f1af883710740bbf6341e566460701561119b3390565b876108028888866040516111b496959493929190612321565b60405180910390a1505050505050565b6111cc611751565b6001600160a01b0382166000908152609c602052604090205460f01b6001600160f01b031981166112325760405162461bcd60e51b815260206004820152601060248201526f125b9d985b1a5908185cdcd95d13dd5d60821b604482015260640161061b565b61123b34611a6e565b60006112456119b5565b9050600073Dc64a140Aa3E981100a9becA4E685f962f0cF6C9630daf27e3336099546040516001600160e01b031960e085901b16815261129d9291600160c01b900460f01b9088908a90600160f81b906004016122d4565b600060405180830381865af41580156112ba573d6000803e3d6000fd5b505050506040513d6000823e601f3d908101601f191682016040526112e291908101906120eb565b609a54609954609754609854604051635b2479ff60e11b81529495506001600160a01b039384169463b648f3fe946113409489949116926001600160401b03600160401b83048116938a93600160801b900490911690600401612236565b600060405180830381600087803b15801561135a57600080fd5b505af115801561136e573d6000803e3d6000fd5b505050507f9138260f61fa33975c7836d8bc3bd6a90f1af883710740bbf6341e566460701561139a3390565b61080287348886604051610bad96959493929190612321565b6113bb611751565b6001600160a01b0382166000908152609c602052604090205460f01b6001600160f01b031981166113fe5760405162461bcd60e51b815260040161061b90612377565b6114088383611797565b60006114126119b5565b60405163d9bee3b360e01b815290915060009073Dc64a140Aa3E981100a9becA4E685f962f0cF6C99063d9bee3b3906114579033908790600160f81b90600401612074565b600060405180830381865af4158015611474573d6000803e3d6000fd5b505050506040513d6000823e601f3d908101601f1916820160405261149c91908101906120eb565b609a54609954609754609854604051635b2479ff60e11b81529495506001600160a01b039384169463b648f3fe946114fa9489949116926001600160401b03600160401b83048116938a93600160801b900490911690600401612236565b600060405180830381600087803b15801561151457600080fd5b505af1158015611528573d6000803e3d6000fd5b505050507f30c99b8e9449992bd7616d2645b02ee0a2b6f229a45d6b56b686963ff0c53497610b9a3390565b61155c611676565b6001600160a01b0382166115825760405162461bcd60e51b815260040161061b90612377565b6001600160f01b031981166115ce5760405162461bcd60e51b8152602060048201526012602482015271125b9d985b1a590818dd5c9c995b98de525960721b604482015260640161061b565b6001600160a01b03919091166000908152609c60205260409020805461ffff191660f09290921c919091179055565b611605611676565b6001600160a01b03811661166a5760405162461bcd60e51b815260206004820152602660248201527f4f776e61626c653a206e6577206f776e657220697320746865207a65726f206160448201526564647265737360d01b606482015260840161061b565b61167381611bf2565b50565b6033546001600160a01b031633146105be5760405162461bcd60e51b815260206004820181905260248201527f4f776e61626c653a2063616c6c6572206973206e6f7420746865206f776e6572604482015260640161061b565b6116d8611c81565b6065805460ff191690557f5db9ee0a495bf2e6ff9c91a7834c1ba4fdd244a5e8aa4e537bd38aeae4b073aa335b6040516001600160a01b03909116815260200160405180910390a1565b600054610100900460ff166117495760405162461bcd60e51b815260040161061b906123a5565b6105be611cca565b60655460ff16156105be5760405162461bcd60e51b815260206004820152601060248201526f14185d5cd8589b194e881c185d5cd95960821b604482015260640161061b565b6001600160a01b0382166117bd5760405162461bcd60e51b815260040161061b90612377565b6001600160a01b0382166000908152609d602052604090205481101561181e5760405162461bcd60e51b81526020600482015260166024820152754c657373207468616e204d696e696d756d56616c756560501b604482015260640161061b565b600073Cf7Ed3AccA5a467e9e704C703E8D87F634fB0Fc96332640a52336040516001600160e01b031960e084901b1681526001600160a01b039091166004820152602401602060405180830381865af415801561187f573d6000803e3d6000fd5b505050506040513d601f19601f820116820180604052508101906118a391906123f0565b905060006118b082611cfa565b9050836001600160a01b0381166323b872dd336040516001600160e01b031960e084901b1681526001600160a01b039091166004820152306024820152604481018790526064016020604051808303816000875af1158015611916573d6000803e3d6000fd5b505050506040513d601f19601f8201168201806040525081019061193a9190612409565b50609b5460975460405163b9f813ff60e01b81526001600160a01b039092169163b9f813ff9161197c918991899188916001600160401b03169060040161242b565b600060405180830381600087803b15801561199657600080fd5b505af11580156119aa573d6000803e3d6000fd5b505050505050505050565b604080518082018252600080825260606020830152825160018082528185019094529192909190816020015b60608152602001906001900390816119e15790505060995460405160006020820152600160a01b90910460e01b6001600160e01b031916602182015290915060250160405160208183030381529060405281600081518110611a4557611a4561246c565b602090810291909101810191909152604080518082019091526001815290810191909152919050565b610802600052609d6020527f382c168b1823bf50cea41570e6d90d63d48929787d842e8f79781a20861398f654811015611ae35760405162461bcd60e51b81526020600482015260166024820152754c657373207468616e204d696e696d756d56616c756560501b604482015260640161061b565b600073Cf7Ed3AccA5a467e9e704C703E8D87F634fB0Fc96332640a52336040516001600160e01b031960e084901b1681526001600160a01b039091166004820152602401602060405180830381865af4158015611b44573d6000803e3d6000fd5b505050506040513d601f19601f82011682018060405250810190611b6891906123f0565b90506000611b7582611cfa565b609b5460975460405163b9f813ff60e01b81529293506001600160a01b039091169163b9f813ff91611bbb9161080291889187916001600160401b03169060040161242b565b600060405180830381600087803b158015611bd557600080fd5b505af1158015611be9573d6000803e3d6000fd5b50505050505050565b603380546001600160a01b038381166001600160a01b0319831681179093556040519116919082907f8be0079c531659141344cd1fd0a4f28419497f9722a3daafe3b4186f6b6457e090600090a35050565b611c4c611751565b6065805460ff191660011790557f62e78cea01bee320cd4e420270b5ea74000d11b0c9f74754ebdbfc544b05a2586117053390565b60655460ff166105be5760405162461bcd60e51b815260206004820152601460248201527314185d5cd8589b194e881b9bdd081c185d5cd95960621b604482015260640161061b565b600054610100900460ff16611cf15760405162461bcd60e51b815260040161061b906123a5565b6105be33611bf2565b60408051808201825260008082526060602083018190528351600280825291810190945291929091816020015b6060815260200190600190039081611d275790505060995460405160006020820152600160a01b90910460e01b6001600160e01b031916602182015290915060250160405160208183030381529060405281600081518110611d8b57611d8b61246c565b602002602001018190525082604051602001611dbe9190600160f81b815260018101919091526000602182015260220190565b60405160208183030381529060405281600181518110611de057611de061246c565b60209081029190910181019190915260408051808201909152600181529081019190915292915050565b80356001600160a01b0381168114611e2157600080fd5b919050565b600060208284031215611e3857600080fd5b611e4182611e0a565b9392505050565b80356001600160401b0381168114611e2157600080fd5b60008060008060808587031215611e7557600080fd5b611e7e85611e48565b9350611e8c60208601611e48565b9250611e9a60408601611e48565b9396929550929360600135925050565b80356001600160f01b031981168114611e2157600080fd5b600080600060608486031215611ed757600080fd5b611ee084611e0a565b9250602084013563ffffffff81168114611ef957600080fd5b9150611f0760408501611eaa565b90509250925092565b60008060408385031215611f2357600080fd5b611f2c83611e0a565b946020939093013593505050565b80356001600160801b0381168114611e2157600080fd5b60008060008060808587031215611f6757600080fd5b611f7085611e0a565b9350611f7e60208601611e0a565b925060408501359150611f9360608601611f3a565b905092959194509250565b600080600060608486031215611fb357600080fd5b611fbc84611e0a565b925060208401359150611f0760408501611f3a565b60008060408385031215611fe457600080fd5b611fed83611e0a565b9150611ffb60208401611f3a565b90509250929050565b6000806040838503121561201757600080fd5b61202083611e0a565b9150611ffb60208401611eaa565b60208082526026908201527f7472616e73616374526571756972656457656967687441744d6f737420746f6f604082015265206c6172676560d01b606082015260800190565b6001600160a01b039390931683526001600160f01b03199190911660208301526001600160f81b031916604082015260600190565b634e487b7160e01b600052604160045260246000fd5b60005b838110156120da5781810151838201526020016120c2565b838111156109cb5750506000910152565b6000602082840312156120fd57600080fd5b81516001600160401b038082111561211457600080fd5b818401915084601f83011261212857600080fd5b81518181111561213a5761213a6120a9565b604051601f8201601f19908116603f01168101908382118183101715612162576121626120a9565b8160405282815287602084870101111561217b57600080fd5b61218c8360208301602088016120bf565b979650505050505050565b600081518084526121af8160208601602086016120bf565b601f01601f19169290920160200192915050565b60006040830160ff835116845260208084015160408287015282815180855260608801915060608160051b8901019450838301925060005b8181101561222957605f19898703018352612217868551612197565b955092840192918401916001016121fb565b5093979650505050505050565b60c08152600061224960c08301896121c3565b6001600160a01b03881660208401526001600160401b038781166040850152838203606085015261227a8288612197565b925085608085015280851660a08501525050979650505050505050565b6001600160a01b03858116825284166020820152604081018390526080606082018190526000906122ca90830184612197565b9695505050505050565b6001600160a01b039590951685526001600160f01b031993841660208601529190921660408401526001600160801b0390911660608301526001600160f81b031916608082015260a00190565b6001600160a01b038781168252868116602083015285166040820152606081018490526001600160801b038316608082015260c060a0820181905260009061236b90830184612197565b98975050505050505050565b602080825260149082015273496e76616c69642061737365744164647265737360601b604082015260600190565b6020808252602b908201527f496e697469616c697a61626c653a20636f6e7472616374206973206e6f74206960408201526a6e697469616c697a696e6760a81b606082015260800190565b60006020828403121561240257600080fd5b5051919050565b60006020828403121561241b57600080fd5b81518015158114611e4157600080fd5b60018060a01b038516815283602082015260806040820152600061245260808301856121c3565b90506001600160401b038316606083015295945050505050565b634e487b7160e01b600052603260045260246000fdfea2646970667358221220af1886270c00feeade9af53d71b6b6953d45f72293e50bd79330375484ff0c8464736f6c634300080a0033",
  "deployedBytecode": "0x6080604052600436106101c25760003560e01c80638a6fa437116100f7578063c86093a811610095578063eddc8b9111610064578063eddc8b9114610538578063ef70a0671461054e578063f163112a1461056e578063f2fde38b1461058e57600080fd5b8063c86093a8146104a5578063d7c274c0146104de578063de62305f146104f4578063e284db661461052557600080fd5b806394cb2e49116100d157806394cb2e491461041e578063a11b003714610445578063a181491414610465578063b2a115051461048557600080fd5b80638a6fa437146103ca5780638da5cb5b146103e05780639097c25d146103fe57600080fd5b80635bbfef45116101645780636deea29c1161013e5780636deea29c146103785780636ef67f7f14610398578063715018a6146103a05780638456cb59146103b557600080fd5b80635bbfef451461031f5780635c975abb1461033f57806369e154041461036257600080fd5b80633c75045e116101a05780633c75045e146102795780633d587204146102a95780633f4ba83a146102e85780634acedccb146102ff57600080fd5b80631aa51037146101c75780632ac7343d14610207578063374f00ff14610241575b600080fd5b3480156101d357600080fd5b506101f46101e2366004611e26565b609d6020526000908152604090205481565b6040519081526020015b60405180910390f35b34801561021357600080fd5b5060995461022890600160c01b900460f01b81565b6040516001600160f01b031990911681526020016101fe565b34801561024d57600080fd5b50609954610261906001600160a01b031681565b6040516001600160a01b0390911681526020016101fe565b34801561028557600080fd5b50610228610294366004611e26565b609c6020526000908152604090205460f01b81565b3480156102b557600080fd5b506097546102d090600160801b90046001600160401b031681565b6040516001600160401b0390911681526020016101fe565b3480156102f457600080fd5b506102fd6105ae565b005b34801561030b57600080fd5b506102fd61031a366004611e5f565b6105c0565b34801561032b57600080fd5b506102fd61033a366004611ec2565b610724565b34801561034b57600080fd5b5060655460ff1660405190151581526020016101fe565b34801561036e57600080fd5b506101f460985481565b34801561038457600080fd5b506102fd610393366004611f10565b6109d1565b6102fd610bbc565b3480156103ac57600080fd5b506102fd610d49565b3480156103c157600080fd5b506102fd610d5b565b3480156103d657600080fd5b5061026161080281565b3480156103ec57600080fd5b506033546001600160a01b0316610261565b34801561040a57600080fd5b506102fd610419366004611f51565b610d6b565b34801561042a57600080fd5b506097546102d090600160401b90046001600160401b031681565b34801561045157600080fd5b506097546102d0906001600160401b031681565b34801561047157600080fd5b506102fd610480366004611f10565b610f7e565b34801561049157600080fd5b506102fd6104a0366004611f9e565b610fc8565b3480156104b157600080fd5b506099546104c990600160a01b900463ffffffff1681565b60405163ffffffff90911681526020016101fe565b3480156104ea57600080fd5b5061026161080481565b34801561050057600080fd5b5061050c600160f81b81565b6040516001600160f81b031990911681526020016101fe565b6102fd610533366004611fd1565b6111c4565b34801561054457600080fd5b5061026161080d81565b34801561055a57600080fd5b506102fd610569366004611f10565b6113b3565b34801561057a57600080fd5b506102fd610589366004612004565b611554565b34801561059a57600080fd5b506102fd6105a9366004611e26565b6115fd565b6105b6611676565b6105be6116d0565b565b6105c8611676565b6402540be400846001600160401b031611156106245760405162461bcd60e51b815260206004820152601660248201527578746f6b656e57656967687420746f6f206c6172676560501b60448201526064015b60405180910390fd5b6402540be400836001600160401b031611156106525760405162461bcd60e51b815260040161061b9061202e565b6402540be400826001600160401b031611156106805760405162461bcd60e51b815260040161061b9061202e565b64e8d4a510008111156106cb5760405162461bcd60e51b8152602060048201526013602482015272666565416d6f756e7420746f6f206c6172676560681b604482015260640161061b565b609780546001600160401b03938416600160801b0267ffffffffffffffff60801b19958516600160401b026fffffffffffffffffffffffffffffffff199092169690941695909517949094179290921617909155609855565b600054610100900460ff16158080156107445750600054600160ff909116105b8061075e5750303b15801561075e575060005460ff166001145b6107c15760405162461bcd60e51b815260206004820152602e60248201527f496e697469616c697a61626c653a20636f6e747261637420697320616c72656160448201526d191e481a5b9a5d1a585b1a5e995960921b606482015260840161061b565b6000805460ff1916600117905580156107e4576000805461ff0019166101001790555b6107ec611722565b6001600160a01b0384166108345760405162461bcd60e51b815260206004820152600f60248201526e496e76616c6964206164647265737360881b604482015260640161061b565b8263ffffffff166107d1148061085157508263ffffffff166107ee145b6108955760405162461bcd60e51b8152602060048201526015602482015274125b9d985b1a5908189a599c9bdcdd14185c985259605a1b604482015260640161061b565b61010560f11b6001600160f01b0319831614806108c0575061080160f01b6001600160f01b03198316145b61090c5760405162461bcd60e51b815260206004820152601860248201527f496e76616c6964206e617469766543757272656e637949640000000000000000604482015260640161061b565b609a80546001600160a01b031990811661080d17909155609b80549091166108041790556109466402540be400808064e8d4a510006105c0565b609980546001600160a01b0386166001600160c01b031990911617600160a01b63ffffffff8616021761ffff60c01b1916600160c01b60f085901c0217905580156109cb576000805461ff0019169055604051600181527f7f26b83ff96e1f2b6a682f133852f6798a09c465da95921460cefb38474024989060200160405180910390a15b50505050565b6109d9611751565b6001600160a01b0382166000908152609c602052604090205460f01b6001600160f01b03198116610a445760405162461bcd60e51b8152602060048201526015602482015274496e76616c6964207641737365744164647265737360581b604482015260640161061b565b610a4e8383611797565b6000610a586119b5565b60405163139bc42560e31b815290915060009073__$e184f4046250cd750dfdb139628ab13bdc$__90639cde212890610a9d9033908790600160f81b90600401612074565b600060405180830381865af4158015610aba573d6000803e3d6000fd5b505050506040513d6000823e601f3d908101601f19168201604052610ae291908101906120eb565b609a54609954609754609854604051635b2479ff60e11b81529495506001600160a01b039384169463b648f3fe94610b409489949116926001600160401b03600160401b83048116938a93600160801b900490911690600401612236565b600060405180830381600087803b158015610b5a57600080fd5b505af1158015610b6e573d6000803e3d6000fd5b505050507f08289580fadd4da935641e6814bb9b5e9fc4cccdedcff6d35124fcb578695745610b9a3390565b868684604051610bad9493929190612297565b60405180910390a15050505050565b610bc4611751565b610bcd34611a6e565b6000610bd76119b5565b9050600073__$e184f4046250cd750dfdb139628ab13bdc$__63d9bee3b3336099546040516001600160e01b031960e085901b168152610c2b9291600160c01b900460f01b90600160f81b90600401612074565b600060405180830381865af4158015610c48573d6000803e3d6000fd5b505050506040513d6000823e601f3d908101601f19168201604052610c7091908101906120eb565b609a54609954609754609854604051635b2479ff60e11b81529495506001600160a01b039384169463b648f3fe94610cce9489949116926001600160401b03600160401b83048116938a93600160801b900490911690600401612236565b600060405180830381600087803b158015610ce857600080fd5b505af1158015610cfc573d6000803e3d6000fd5b505050507f30c99b8e9449992bd7616d2645b02ee0a2b6f229a45d6b56b686963ff0c53497610d283390565b6108023484604051610d3d9493929190612297565b60405180910390a15050565b610d51611676565b6105be6000611bf2565b610d63611676565b6105be611c44565b610d73611751565b6001600160a01b038085166000908152609c602052604080822054928616825290205460f091821b911b6001600160f01b0319821615801590610dbf57506001600160f01b0319811615155b610dfb5760405162461bcd60e51b815260206004820152600d60248201526c125b9d985b1a5908185cdcd95d609a1b604482015260640161061b565b610e058685611797565b6000610e0f6119b5565b604051630daf27e360e01b815290915060009073__$e184f4046250cd750dfdb139628ab13bdc$__90630daf27e390610e58903390889088908b90600160f81b906004016122d4565b600060405180830381865af4158015610e75573d6000803e3d6000fd5b505050506040513d6000823e601f3d908101601f19168201604052610e9d91908101906120eb565b609a54609954609754609854604051635b2479ff60e11b81529495506001600160a01b039384169463b648f3fe94610efb9489949116926001600160401b03600160401b83048116938a93600160801b900490911690600401612236565b600060405180830381600087803b158015610f1557600080fd5b505af1158015610f29573d6000803e3d6000fd5b505050507f9138260f61fa33975c7836d8bc3bd6a90f1af883710740bbf6341e5664607015610f553390565b8989898986604051610f6c96959493929190612321565b60405180910390a15050505050505050565b610f86611676565b6001600160a01b038216610fac5760405162461bcd60e51b815260040161061b90612377565b6001600160a01b039091166000908152609d6020526040902055565b610fd0611751565b6001600160a01b0383166000908152609c602052604090205460f01b6001600160f01b031981166110355760405162461bcd60e51b815260206004820152600f60248201526e24b73b30b634b21030b9b9b2ba24b760891b604482015260640161061b565b61103f8484611797565b60006110496119b5565b609954604051630daf27e360e01b815291925060009173__$e184f4046250cd750dfdb139628ab13bdc$__91630daf27e39161109e9133918891600160c01b900460f01b908a90600160f81b906004016122d4565b600060405180830381865af41580156110bb573d6000803e3d6000fd5b505050506040513d6000823e601f3d908101601f191682016040526110e391908101906120eb565b609a54609954609754609854604051635b2479ff60e11b81529495506001600160a01b039384169463b648f3fe946111419489949116926001600160401b03600160401b83048116938a93600160801b900490911690600401612236565b600060405180830381600087803b15801561115b57600080fd5b505af115801561116f573d6000803e3d6000fd5b505050507f9138260f61fa33975c7836d8bc3bd6a90f1af883710740bbf6341e566460701561119b3390565b876108028888866040516111b496959493929190612321565b60405180910390a1505050505050565b6111cc611751565b6001600160a01b0382166000908152609c602052604090205460f01b6001600160f01b031981166112325760405162461bcd60e51b815260206004820152601060248201526f125b9d985b1a5908185cdcd95d13dd5d60821b604482015260640161061b565b61123b34611a6e565b60006112456119b5565b9050600073__$e184f4046250cd750dfdb139628ab13bdc$__630daf27e3336099546040516001600160e01b031960e085901b16815261129d9291600160c01b900460f01b9088908a90600160f81b906004016122d4565b600060405180830381865af41580156112ba573d6000803e3d6000fd5b505050506040513d6000823e601f3d908101601f191682016040526112e291908101906120eb565b609a54609954609754609854604051635b2479ff60e11b81529495506001600160a01b039384169463b648f3fe946113409489949116926001600160401b03600160401b83048116938a93600160801b900490911690600401612236565b600060405180830381600087803b15801561135a57600080fd5b505af115801561136e573d6000803e3d6000fd5b505050507f9138260f61fa33975c7836d8bc3bd6a90f1af883710740bbf6341e566460701561139a3390565b61080287348886604051610bad96959493929190612321565b6113bb611751565b6001600160a01b0382166000908152609c602052604090205460f01b6001600160f01b031981166113fe5760405162461bcd60e51b815260040161061b90612377565b6114088383611797565b60006114126119b5565b60405163d9bee3b360e01b815290915060009073__$e184f4046250cd750dfdb139628ab13bdc$__9063d9bee3b3906114579033908790600160f81b90600401612074565b600060405180830381865af4158015611474573d6000803e3d6000fd5b505050506040513d6000823e601f3d908101601f1916820160405261149c91908101906120eb565b609a54609954609754609854604051635b2479ff60e11b81529495506001600160a01b039384169463b648f3fe946114fa9489949116926001600160401b03600160401b83048116938a93600160801b900490911690600401612236565b600060405180830381600087803b15801561151457600080fd5b505af1158015611528573d6000803e3d6000fd5b505050507f30c99b8e9449992bd7616d2645b02ee0a2b6f229a45d6b56b686963ff0c53497610b9a3390565b61155c611676565b6001600160a01b0382166115825760405162461bcd60e51b815260040161061b90612377565b6001600160f01b031981166115ce5760405162461bcd60e51b8152602060048201526012602482015271125b9d985b1a590818dd5c9c995b98de525960721b604482015260640161061b565b6001600160a01b03919091166000908152609c60205260409020805461ffff191660f09290921c919091179055565b611605611676565b6001600160a01b03811661166a5760405162461bcd60e51b815260206004820152602660248201527f4f776e61626c653a206e6577206f776e657220697320746865207a65726f206160448201526564647265737360d01b606482015260840161061b565b61167381611bf2565b50565b6033546001600160a01b031633146105be5760405162461bcd60e51b815260206004820181905260248201527f4f776e61626c653a2063616c6c6572206973206e6f7420746865206f776e6572604482015260640161061b565b6116d8611c81565b6065805460ff191690557f5db9ee0a495bf2e6ff9c91a7834c1ba4fdd244a5e8aa4e537bd38aeae4b073aa335b6040516001600160a01b03909116815260200160405180910390a1565b600054610100900460ff166117495760405162461bcd60e51b815260040161061b906123a5565b6105be611cca565b60655460ff16156105be5760405162461bcd60e51b815260206004820152601060248201526f14185d5cd8589b194e881c185d5cd95960821b604482015260640161061b565b6001600160a01b0382166117bd5760405162461bcd60e51b815260040161061b90612377565b6001600160a01b0382166000908152609d602052604090205481101561181e5760405162461bcd60e51b81526020600482015260166024820152754c657373207468616e204d696e696d756d56616c756560501b604482015260640161061b565b600073__$ddfb0e6c1c4d05795fcce73a90830b0995$__6332640a52336040516001600160e01b031960e084901b1681526001600160a01b039091166004820152602401602060405180830381865af415801561187f573d6000803e3d6000fd5b505050506040513d601f19601f820116820180604052508101906118a391906123f0565b905060006118b082611cfa565b9050836001600160a01b0381166323b872dd336040516001600160e01b031960e084901b1681526001600160a01b039091166004820152306024820152604481018790526064016020604051808303816000875af1158015611916573d6000803e3d6000fd5b505050506040513d601f19601f8201168201806040525081019061193a9190612409565b50609b5460975460405163b9f813ff60e01b81526001600160a01b039092169163b9f813ff9161197c918991899188916001600160401b03169060040161242b565b600060405180830381600087803b15801561199657600080fd5b505af11580156119aa573d6000803e3d6000fd5b505050505050505050565b604080518082018252600080825260606020830152825160018082528185019094529192909190816020015b60608152602001906001900390816119e15790505060995460405160006020820152600160a01b90910460e01b6001600160e01b031916602182015290915060250160405160208183030381529060405281600081518110611a4557611a4561246c565b602090810291909101810191909152604080518082019091526001815290810191909152919050565b610802600052609d6020527f382c168b1823bf50cea41570e6d90d63d48929787d842e8f79781a20861398f654811015611ae35760405162461bcd60e51b81526020600482015260166024820152754c657373207468616e204d696e696d756d56616c756560501b604482015260640161061b565b600073__$ddfb0e6c1c4d05795fcce73a90830b0995$__6332640a52336040516001600160e01b031960e084901b1681526001600160a01b039091166004820152602401602060405180830381865af4158015611b44573d6000803e3d6000fd5b505050506040513d601f19601f82011682018060405250810190611b6891906123f0565b90506000611b7582611cfa565b609b5460975460405163b9f813ff60e01b81529293506001600160a01b039091169163b9f813ff91611bbb9161080291889187916001600160401b03169060040161242b565b600060405180830381600087803b158015611bd557600080fd5b505af1158015611be9573d6000803e3d6000fd5b50505050505050565b603380546001600160a01b038381166001600160a01b0319831681179093556040519116919082907f8be0079c531659141344cd1fd0a4f28419497f9722a3daafe3b4186f6b6457e090600090a35050565b611c4c611751565b6065805460ff191660011790557f62e78cea01bee320cd4e420270b5ea74000d11b0c9f74754ebdbfc544b05a2586117053390565b60655460ff166105be5760405162461bcd60e51b815260206004820152601460248201527314185d5cd8589b194e881b9bdd081c185d5cd95960621b604482015260640161061b565b600054610100900460ff16611cf15760405162461bcd60e51b815260040161061b906123a5565b6105be33611bf2565b60408051808201825260008082526060602083018190528351600280825291810190945291929091816020015b6060815260200190600190039081611d275790505060995460405160006020820152600160a01b90910460e01b6001600160e01b031916602182015290915060250160405160208183030381529060405281600081518110611d8b57611d8b61246c565b602002602001018190525082604051602001611dbe9190600160f81b815260018101919091526000602182015260220190565b60405160208183030381529060405281600181518110611de057611de061246c565b60209081029190910181019190915260408051808201909152600181529081019190915292915050565b80356001600160a01b0381168114611e2157600080fd5b919050565b600060208284031215611e3857600080fd5b611e4182611e0a565b9392505050565b80356001600160401b0381168114611e2157600080fd5b60008060008060808587031215611e7557600080fd5b611e7e85611e48565b9350611e8c60208601611e48565b9250611e9a60408601611e48565b9396929550929360600135925050565b80356001600160f01b031981168114611e2157600080fd5b600080600060608486031215611ed757600080fd5b611ee084611e0a565b9250602084013563ffffffff81168114611ef957600080fd5b9150611f0760408501611eaa565b90509250925092565b60008060408385031215611f2357600080fd5b611f2c83611e0a565b946020939093013593505050565b80356001600160801b0381168114611e2157600080fd5b60008060008060808587031215611f6757600080fd5b611f7085611e0a565b9350611f7e60208601611e0a565b925060408501359150611f9360608601611f3a565b905092959194509250565b600080600060608486031215611fb357600080fd5b611fbc84611e0a565b925060208401359150611f0760408501611f3a565b60008060408385031215611fe457600080fd5b611fed83611e0a565b9150611ffb60208401611f3a565b90509250929050565b6000806040838503121561201757600080fd5b61202083611e0a565b9150611ffb60208401611eaa565b60208082526026908201527f7472616e73616374526571756972656457656967687441744d6f737420746f6f604082015265206c6172676560d01b606082015260800190565b6001600160a01b039390931683526001600160f01b03199190911660208301526001600160f81b031916604082015260600190565b634e487b7160e01b600052604160045260246000fd5b60005b838110156120da5781810151838201526020016120c2565b838111156109cb5750506000910152565b6000602082840312156120fd57600080fd5b81516001600160401b038082111561211457600080fd5b818401915084601f83011261212857600080fd5b81518181111561213a5761213a6120a9565b604051601f8201601f19908116603f01168101908382118183101715612162576121626120a9565b8160405282815287602084870101111561217b57600080fd5b61218c8360208301602088016120bf565b979650505050505050565b600081518084526121af8160208601602086016120bf565b601f01601f19169290920160200192915050565b60006040830160ff835116845260208084015160408287015282815180855260608801915060608160051b8901019450838301925060005b8181101561222957605f19898703018352612217868551612197565b955092840192918401916001016121fb565b5093979650505050505050565b60c08152600061224960c08301896121c3565b6001600160a01b03881660208401526001600160401b038781166040850152838203606085015261227a8288612197565b925085608085015280851660a08501525050979650505050505050565b6001600160a01b03858116825284166020820152604081018390526080606082018190526000906122ca90830184612197565b9695505050505050565b6001600160a01b039590951685526001600160f01b031993841660208601529190921660408401526001600160801b0390911660608301526001600160f81b031916608082015260a00190565b6001600160a01b038781168252868116602083015285166040820152606081018490526001600160801b038316608082015260c060a0820181905260009061236b90830184612197565b98975050505050505050565b602080825260149082015273496e76616c69642061737365744164647265737360601b604082015260600190565b6020808252602b908201527f496e697469616c697a61626c653a20636f6e7472616374206973206e6f74206960408201526a6e697469616c697a696e6760a81b606082015260800190565b60006020828403121561240257600080fd5b5051919050565b60006020828403121561241b57600080fd5b81518015158114611e4157600080fd5b60018060a01b038516815283602082015260806040820152600061245260808301856121c3565b90506001600160401b038316606083015295945050505050565b634e487b7160e01b600052603260045260246000fdfea2646970667358221220af1886270c00feeade9af53d71b6b6953d45f72293e50bd79330375484ff0c8464736f6c634300080a0033",
  "libraries": {
    "AddressToAccount": "0xCf7Ed3AccA5a467e9e704C703E8D87F634fB0Fc9",
    "BuildCallData": "0xDc64a140Aa3E981100a9becA4E685f962f0cF6C9"
  },
  "devdoc": {
    "kind": "dev",
    "methods": {
      "owner()": {
        "details": "Returns the address of the current owner."
      },
      "paused()": {
        "details": "Returns true if the contract is paused, and false otherwise."
      },
      "renounceOwnership()": {
        "details": "Leaves the contract without owner. It will not be possible to call `onlyOwner` functions. Can only be called by the current owner. NOTE: Renouncing ownership will leave the contract without an owner, thereby disabling any functionality that is only available to the owner."
      },
      "transferOwnership(address)": {
        "details": "Transfers ownership of the contract to a new account (`newOwner`). Can only be called by the current owner."
      }
    },
    "version": 1
  },
  "userdoc": {
    "kind": "user",
    "methods": {
      "mintVAsset(address,uint256)": {
        "notice": "Minted vAssets"
      },
      "mintVNativeAsset()": {
        "notice": "Minted vNative assets such as vASTR, vGLMR, vMOVR"
      },
      "redeemAsset(address,uint256)": {
        "notice": "Redeem assets"
      },
      "swapAssetsForExactAssets(address,address,uint256,uint128)": {
        "notice": "Swap one asset for another"
      },
      "swapAssetsForExactNativeAssets(address,uint256,uint128)": {
        "notice": "Swap one asset for native asset"
      },
      "swapNativeAssetsForExactAssets(address,uint128)": {
        "notice": "Swap native asset for another"
      }
    },
    "version": 1
  },
  "storageLayout": {
    "storage": [
      {
        "astId": 138,
        "contract": "contracts/MoonbeamXcmAction.sol:MoonbeamXcmAction",
        "label": "_initialized",
        "offset": 0,
        "slot": "0",
        "type": "t_uint8"
      },
      {
        "astId": 141,
        "contract": "contracts/MoonbeamXcmAction.sol:MoonbeamXcmAction",
        "label": "_initializing",
        "offset": 1,
        "slot": "0",
        "type": "t_bool"
      },
      {
        "astId": 798,
        "contract": "contracts/MoonbeamXcmAction.sol:MoonbeamXcmAction",
        "label": "__gap",
        "offset": 0,
        "slot": "1",
        "type": "t_array(t_uint256)50_storage"
      },
      {
        "astId": 10,
        "contract": "contracts/MoonbeamXcmAction.sol:MoonbeamXcmAction",
        "label": "_owner",
        "offset": 0,
        "slot": "51",
        "type": "t_address"
      },
      {
        "astId": 130,
        "contract": "contracts/MoonbeamXcmAction.sol:MoonbeamXcmAction",
        "label": "__gap",
        "offset": 0,
        "slot": "52",
        "type": "t_array(t_uint256)49_storage"
      },
      {
        "astId": 321,
        "contract": "contracts/MoonbeamXcmAction.sol:MoonbeamXcmAction",
        "label": "_paused",
        "offset": 0,
        "slot": "101",
        "type": "t_bool"
      },
      {
        "astId": 426,
        "contract": "contracts/MoonbeamXcmAction.sol:MoonbeamXcmAction",
        "label": "__gap",
        "offset": 0,
        "slot": "102",
        "type": "t_array(t_uint256)49_storage"
      },
      {
        "astId": 1573,
        "contract": "contracts/MoonbeamXcmAction.sol:MoonbeamXcmAction",
        "label": "xtokenWeight",
        "offset": 0,
        "slot": "151",
        "type": "t_uint64"
      },
      {
        "astId": 1575,
        "contract": "contracts/MoonbeamXcmAction.sol:MoonbeamXcmAction",
        "label": "transactRequiredWeightAtMost",
        "offset": 8,
        "slot": "151",
        "type": "t_uint64"
      },
      {
        "astId": 1577,
        "contract": "contracts/MoonbeamXcmAction.sol:MoonbeamXcmAction",
        "label": "overallWeight",
        "offset": 16,
        "slot": "151",
        "type": "t_uint64"
      },
      {
        "astId": 1579,
        "contract": "contracts/MoonbeamXcmAction.sol:MoonbeamXcmAction",
        "label": "feeAmount",
        "offset": 0,
        "slot": "152",
        "type": "t_uint256"
      },
      {
        "astId": 1581,
        "contract": "contracts/MoonbeamXcmAction.sol:MoonbeamXcmAction",
        "label": "BNCAddress",
        "offset": 0,
        "slot": "153",
        "type": "t_address"
      },
      {
        "astId": 1583,
        "contract": "contracts/MoonbeamXcmAction.sol:MoonbeamXcmAction",
        "label": "bifrostParaId",
        "offset": 20,
        "slot": "153",
        "type": "t_uint32"
      },
      {
        "astId": 1585,
        "contract": "contracts/MoonbeamXcmAction.sol:MoonbeamXcmAction",
        "label": "nativeCurrencyId",
        "offset": 24,
        "slot": "153",
        "type": "t_bytes2"
      },
      {
        "astId": 1588,
        "contract": "contracts/MoonbeamXcmAction.sol:MoonbeamXcmAction",
        "label": "xcmtransactor",
        "offset": 0,
        "slot": "154",
        "type": "t_contract(XcmTransactorV2)2774"
      },
      {
        "astId": 1591,
        "contract": "contracts/MoonbeamXcmAction.sol:MoonbeamXcmAction",
        "label": "xtokens",
        "offset": 0,
        "slot": "155",
        "type": "t_contract(Xtokens)2894"
      },
      {
        "astId": 1595,
        "contract": "contracts/MoonbeamXcmAction.sol:MoonbeamXcmAction",
        "label": "assetAddressToCurrencyId",
        "offset": 0,
        "slot": "156",
        "type": "t_mapping(t_address,t_bytes2)"
      },
      {
        "astId": 1599,
        "contract": "contracts/MoonbeamXcmAction.sol:MoonbeamXcmAction",
        "label": "assetAddressToMinimumValue",
        "offset": 0,
        "slot": "157",
        "type": "t_mapping(t_address,t_uint256)"
      }
    ],
    "types": {
      "t_address": {
        "encoding": "inplace",
        "label": "address",
        "numberOfBytes": "20"
      },
      "t_array(t_uint256)49_storage": {
        "base": "t_uint256",
        "encoding": "inplace",
        "label": "uint256[49]",
        "numberOfBytes": "1568"
      },
      "t_array(t_uint256)50_storage": {
        "base": "t_uint256",
        "encoding": "inplace",
        "label": "uint256[50]",
        "numberOfBytes": "1600"
      },
      "t_bool": {
        "encoding": "inplace",
        "label": "bool",
        "numberOfBytes": "1"
      },
      "t_bytes2": {
        "encoding": "inplace",
        "label": "bytes2",
        "numberOfBytes": "2"
      },
      "t_contract(XcmTransactorV2)2774": {
        "encoding": "inplace",
        "label": "contract XcmTransactorV2",
        "numberOfBytes": "20"
      },
      "t_contract(Xtokens)2894": {
        "encoding": "inplace",
        "label": "contract Xtokens",
        "numberOfBytes": "20"
      },
      "t_mapping(t_address,t_bytes2)": {
        "encoding": "mapping",
        "key": "t_address",
        "label": "mapping(address => bytes2)",
        "numberOfBytes": "32",
        "value": "t_bytes2"
      },
      "t_mapping(t_address,t_uint256)": {
        "encoding": "mapping",
        "key": "t_address",
        "label": "mapping(address => uint256)",
        "numberOfBytes": "32",
        "value": "t_uint256"
      },
      "t_uint256": {
        "encoding": "inplace",
        "label": "uint256",
        "numberOfBytes": "32"
      },
      "t_uint32": {
        "encoding": "inplace",
        "label": "uint32",
        "numberOfBytes": "4"
      },
      "t_uint64": {
        "encoding": "inplace",
        "label": "uint64",
        "numberOfBytes": "8"
      },
      "t_uint8": {
        "encoding": "inplace",
        "label": "uint8",
        "numberOfBytes": "1"
      }
    }
  }
}