{
  "address": "0x50DaF90fc4570dF816e6A85a066fd0D375f209C0",
  "abi": [
    {
      "anonymous": false,
      "inputs": [
        {
          "indexed": false,
          "internalType": "uint8",
          "name": "version",
          "type": "uint8"
        }
      ],
      "name": "Initialized",
      "type": "event"
    },
    {
      "anonymous": false,
      "inputs": [
        {
          "indexed": false,
          "internalType": "address",
          "name": "minter",
          "type": "address"
        },
        {
          "indexed": false,
          "internalType": "address",
          "name": "assetAddress",
          "type": "address"
        },
        {
          "indexed": false,
          "internalType": "uint256",
          "name": "amount",
          "type": "uint256"
        },
        {
          "indexed": false,
          "internalType": "address",
          "name": "receiver",
          "type": "address"
        },
        {
          "indexed": false,
          "internalType": "bytes",
          "name": "callcode",
          "type": "bytes"
        }
      ],
      "name": "Mint",
      "type": "event"
    },
    {
      "anonymous": false,
      "inputs": [
        {
          "indexed": true,
          "internalType": "address",
          "name": "previousOwner",
          "type": "address"
        },
        {
          "indexed": true,
          "internalType": "address",
          "name": "newOwner",
          "type": "address"
        }
      ],
      "name": "OwnershipTransferred",
      "type": "event"
    },
    {
      "anonymous": false,
      "inputs": [
        {
          "indexed": false,
          "internalType": "address",
          "name": "account",
          "type": "address"
        }
      ],
      "name": "Paused",
      "type": "event"
    },
    {
      "anonymous": false,
      "inputs": [
        {
          "indexed": false,
          "internalType": "address",
          "name": "redeemer",
          "type": "address"
        },
        {
          "indexed": false,
          "internalType": "address",
          "name": "assetAddress",
          "type": "address"
        },
        {
          "indexed": false,
          "internalType": "uint256",
          "name": "amount",
          "type": "uint256"
        },
        {
          "indexed": false,
          "internalType": "address",
          "name": "receiver",
          "type": "address"
        },
        {
          "indexed": false,
          "internalType": "bytes",
          "name": "callcode",
          "type": "bytes"
        }
      ],
      "name": "Redeem",
      "type": "event"
    },
    {
      "anonymous": false,
      "inputs": [
        {
          "indexed": false,
          "internalType": "address",
          "name": "swapper",
          "type": "address"
        },
        {
          "indexed": false,
          "internalType": "address",
          "name": "assetInAddress",
          "type": "address"
        },
        {
          "indexed": false,
          "internalType": "address",
          "name": "assetOutAddress",
          "type": "address"
        },
        {
          "indexed": false,
          "internalType": "uint256",
          "name": "assetInAmount",
          "type": "uint256"
        },
        {
          "indexed": false,
          "internalType": "uint128",
          "name": "assetOutMin",
          "type": "uint128"
        },
        {
          "indexed": false,
          "internalType": "address",
          "name": "receiver",
          "type": "address"
        },
        {
          "indexed": false,
          "internalType": "bytes",
          "name": "callcode",
          "type": "bytes"
        }
      ],
      "name": "Swap",
      "type": "event"
    },
    {
      "anonymous": false,
      "inputs": [
        {
          "indexed": false,
          "internalType": "address",
          "name": "account",
          "type": "address"
        }
      ],
      "name": "Unpaused",
      "type": "event"
    },
    {
      "inputs": [],
      "name": "BNCAddress",
      "outputs": [
        {
          "internalType": "address",
          "name": "",
          "type": "address"
        }
      ],
      "stateMutability": "view",
      "type": "function"
    },
    {
      "inputs": [],
      "name": "MOONBEAM_CHAIN",
      "outputs": [
        {
          "internalType": "bytes1",
          "name": "",
          "type": "bytes1"
        }
      ],
      "stateMutability": "view",
      "type": "function"
    },
    {
      "inputs": [],
      "name": "NATIVE_ASSET_ADDRESS",
      "outputs": [
        {
          "internalType": "address",
          "name": "",
          "type": "address"
        }
      ],
      "stateMutability": "view",
      "type": "function"
    },
    {
      "inputs": [],
      "name": "XCM_TRANSACTORV2_ADDRESS",
      "outputs": [
        {
          "internalType": "address",
          "name": "",
          "type": "address"
        }
      ],
      "stateMutability": "view",
      "type": "function"
    },
    {
      "inputs": [],
      "name": "XTOKENS",
      "outputs": [
        {
          "internalType": "address",
          "name": "",
          "type": "address"
        }
      ],
      "stateMutability": "view",
      "type": "function"
    },
    {
      "inputs": [
        {
          "internalType": "address",
          "name": "",
          "type": "address"
        }
      ],
      "name": "assetAddressToCurrencyId",
      "outputs": [
        {
          "internalType": "bytes2",
          "name": "",
          "type": "bytes2"
        }
      ],
      "stateMutability": "view",
      "type": "function"
    },
    {
      "inputs": [
        {
          "internalType": "address",
          "name": "",
          "type": "address"
        }
      ],
      "name": "assetAddressToMinimumValue",
      "outputs": [
        {
          "internalType": "uint256",
          "name": "",
          "type": "uint256"
        }
      ],
      "stateMutability": "view",
      "type": "function"
    },
    {
      "inputs": [],
      "name": "bifrostParaId",
      "outputs": [
        {
          "internalType": "uint32",
          "name": "",
          "type": "uint32"
        }
      ],
      "stateMutability": "view",
      "type": "function"
    },
    {
      "inputs": [],
      "name": "feeAmount",
      "outputs": [
        {
          "internalType": "uint256",
          "name": "",
          "type": "uint256"
        }
      ],
      "stateMutability": "view",
      "type": "function"
    },
    {
      "inputs": [
        {
          "internalType": "address",
          "name": "_BNCAddress",
          "type": "address"
        },
        {
          "internalType": "uint32",
          "name": "_bifrostParaId",
          "type": "uint32"
        },
        {
          "internalType": "bytes2",
          "name": "_nativeCurrencyId",
          "type": "bytes2"
        }
      ],
      "name": "initialize",
      "outputs": [],
      "stateMutability": "nonpayable",
      "type": "function"
    },
    {
      "inputs": [
        {
          "internalType": "address",
          "name": "assetAddress",
          "type": "address"
        },
        {
          "internalType": "uint256",
          "name": "amount",
          "type": "uint256"
        },
        {
          "internalType": "address",
          "name": "receiver",
          "type": "address"
        }
      ],
      "name": "mintVAsset",
      "outputs": [],
      "stateMutability": "nonpayable",
      "type": "function"
    },
    {
      "inputs": [
        {
          "internalType": "address",
          "name": "receiver",
          "type": "address"
        }
      ],
      "name": "mintVNativeAsset",
      "outputs": [],
      "stateMutability": "payable",
      "type": "function"
    },
    {
      "inputs": [],
      "name": "nativeCurrencyId",
      "outputs": [
        {
          "internalType": "bytes2",
          "name": "",
          "type": "bytes2"
        }
      ],
      "stateMutability": "view",
      "type": "function"
    },
    {
      "inputs": [],
      "name": "overallWeight",
      "outputs": [
        {
          "internalType": "uint64",
          "name": "",
          "type": "uint64"
        }
      ],
      "stateMutability": "view",
      "type": "function"
    },
    {
      "inputs": [],
      "name": "owner",
      "outputs": [
        {
          "internalType": "address",
          "name": "",
          "type": "address"
        }
      ],
      "stateMutability": "view",
      "type": "function"
    },
    {
      "inputs": [],
      "name": "pause",
      "outputs": [],
      "stateMutability": "nonpayable",
      "type": "function"
    },
    {
      "inputs": [],
      "name": "paused",
      "outputs": [
        {
          "internalType": "bool",
          "name": "",
          "type": "bool"
        }
      ],
      "stateMutability": "view",
      "type": "function"
    },
    {
      "inputs": [
        {
          "internalType": "address",
          "name": "vAssetAddress",
          "type": "address"
        },
        {
          "internalType": "uint256",
          "name": "amount",
          "type": "uint256"
        },
        {
          "internalType": "address",
          "name": "receiver",
          "type": "address"
        }
      ],
      "name": "redeemAsset",
      "outputs": [],
      "stateMutability": "nonpayable",
      "type": "function"
    },
    {
      "inputs": [],
      "name": "renounceOwnership",
      "outputs": [],
      "stateMutability": "nonpayable",
      "type": "function"
    },
    {
      "inputs": [
        {
          "internalType": "address",
          "name": "assetAddress",
          "type": "address"
        },
        {
          "internalType": "uint256",
          "name": "minimumValue",
          "type": "uint256"
        },
        {
          "internalType": "bytes2",
          "name": "currencyId",
          "type": "bytes2"
        }
      ],
      "name": "setAssetAddressInfo",
      "outputs": [],
      "stateMutability": "nonpayable",
      "type": "function"
    },
    {
      "inputs": [
        {
          "internalType": "uint64",
          "name": "_xtokenWeight",
          "type": "uint64"
        },
        {
          "internalType": "uint64",
          "name": "_transactRequiredWeightAtMost",
          "type": "uint64"
        },
        {
          "internalType": "uint64",
          "name": "_overallWeight",
          "type": "uint64"
        },
        {
          "internalType": "uint256",
          "name": "_feeAmount",
          "type": "uint256"
        }
      ],
      "name": "setFee",
      "outputs": [],
      "stateMutability": "nonpayable",
      "type": "function"
    },
    {
      "inputs": [
        {
          "internalType": "address",
          "name": "assetInAddress",
          "type": "address"
        },
        {
          "internalType": "address",
          "name": "assetOutAddress",
          "type": "address"
        },
        {
          "internalType": "uint256",
          "name": "assetInAmount",
          "type": "uint256"
        },
        {
          "internalType": "uint128",
          "name": "assetOutMin",
          "type": "uint128"
        },
        {
          "internalType": "address",
          "name": "receiver",
          "type": "address"
        }
      ],
      "name": "swapAssetsForExactAssets",
      "outputs": [],
      "stateMutability": "nonpayable",
      "type": "function"
    },
    {
      "inputs": [
        {
          "internalType": "address",
          "name": "assetInAddress",
          "type": "address"
        },
        {
          "internalType": "uint256",
          "name": "assetInAmount",
          "type": "uint256"
        },
        {
          "internalType": "uint128",
          "name": "assetOutMin",
          "type": "uint128"
        },
        {
          "internalType": "address",
          "name": "receiver",
          "type": "address"
        }
      ],
      "name": "swapAssetsForExactNativeAssets",
      "outputs": [],
      "stateMutability": "nonpayable",
      "type": "function"
    },
    {
      "inputs": [
        {
          "internalType": "address",
          "name": "assetOutAddress",
          "type": "address"
        },
        {
          "internalType": "uint128",
          "name": "assetOutMin",
          "type": "uint128"
        },
        {
          "internalType": "address",
          "name": "receiver",
          "type": "address"
        }
      ],
      "name": "swapNativeAssetsForExactAssets",
      "outputs": [],
      "stateMutability": "payable",
      "type": "function"
    },
    {
      "inputs": [],
      "name": "transactRequiredWeightAtMost",
      "outputs": [
        {
          "internalType": "uint64",
          "name": "",
          "type": "uint64"
        }
      ],
      "stateMutability": "view",
      "type": "function"
    },
    {
      "inputs": [
        {
          "internalType": "address",
          "name": "newOwner",
          "type": "address"
        }
      ],
      "name": "transferOwnership",
      "outputs": [],
      "stateMutability": "nonpayable",
      "type": "function"
    },
    {
      "inputs": [],
      "name": "unpause",
      "outputs": [],
      "stateMutability": "nonpayable",
      "type": "function"
    },
    {
      "inputs": [],
      "name": "xcmTransactorDestination",
      "outputs": [
        {
          "internalType": "uint8",
          "name": "parents",
          "type": "uint8"
        }
      ],
      "stateMutability": "view",
      "type": "function"
    },
    {
      "inputs": [],
      "name": "xtokenWeight",
      "outputs": [
        {
          "internalType": "uint64",
          "name": "",
          "type": "uint64"
        }
      ],
      "stateMutability": "view",
      "type": "function"
    }
  ],
  "transactionHash": "0x281836d399b17c3f7d1f53ff292644540df47f124a4ca82a729ad13f27ab7de4",
  "args": [],
  "numDeployments": 1,
  "solcInputHash": "31708f48714e7a3514bfb8b84434d232",
  "bytecode": "0x608060405234801561001057600080fd5b506129d5806100206000396000f3fe6080604052600436106101c25760003560e01c806369e15404116100f7578063a23206bf11610095578063d6aa374d11610064578063d6aa374d14610559578063d7c274c014610579578063eddc8b911461058f578063f2fde38b146105a557600080fd5b8063a23206bf146104af578063adfc7c16146104cf578063c86093a8146104ef578063c87e5a9e1461052857600080fd5b80638a6fa437116100d15780638a6fa437146104345780638da5cb5b1461044a57806394cb2e4914610468578063a11b00371461048f57600080fd5b806369e15404146103f4578063715018a61461040a5780638456cb591461041f57600080fd5b80634899b9a8116101645780635bbfef451161013e5780635bbfef451461037e5780635c975abb1461039e5780635ede2882146103c157806367559997146103e157600080fd5b80634899b9a8146103125780634acedccb146103325780634eb82d9f1461035257600080fd5b8063374f00ff116101a0578063374f00ff146102565780633c75045e1461028e5780633d587204146102be5780633f4ba83a146102fd57600080fd5b80631aa51037146101c757806323e49879146102075780632ac7343d1461021c575b600080fd5b3480156101d357600080fd5b506101f46101e23660046121f3565b609d6020526000908152604090205481565b6040519081526020015b60405180910390f35b61021a61021536600461222c565b6105c5565b005b34801561022857600080fd5b5060995461023d90600160c01b900460f01b81565b6040516001600160f01b031990911681526020016101fe565b34801561026257600080fd5b50609954610276906001600160a01b031681565b6040516001600160a01b0390911681526020016101fe565b34801561029a57600080fd5b5061023d6102a93660046121f3565b609c6020526000908152604090205460f01b81565b3480156102ca57600080fd5b506097546102e590600160801b90046001600160401b031681565b6040516001600160401b0390911681526020016101fe565b34801561030957600080fd5b5061021a6107ef565b34801561031e57600080fd5b5061021a61032d36600461226f565b610801565b34801561033e57600080fd5b5061021a61034d3660046122b9565b610a01565b34801561035e57600080fd5b50609a5461036c9060ff1681565b60405160ff90911681526020016101fe565b34801561038a57600080fd5b5061021a61039936600461231c565b610bcf565b3480156103aa57600080fd5b5060655460ff1660405190151581526020016101fe565b3480156103cd57600080fd5b5061021a6103dc366004612361565b610f2f565b61021a6103ef3660046121f3565b611167565b34801561040057600080fd5b506101f460985481565b34801561041657600080fd5b5061021a61131b565b34801561042b57600080fd5b5061021a61132d565b34801561044057600080fd5b5061027661080281565b34801561045657600080fd5b506033546001600160a01b0316610276565b34801561047457600080fd5b506097546102e590600160401b90046001600160401b031681565b34801561049b57600080fd5b506097546102e5906001600160401b031681565b3480156104bb57600080fd5b5061021a6104ca36600461226f565b61133d565b3480156104db57600080fd5b5061021a6104ea3660046123bf565b611500565b3480156104fb57600080fd5b5060995461051390600160a01b900463ffffffff1681565b60405163ffffffff90911681526020016101fe565b34801561053457600080fd5b50610540600160f81b81565b6040516001600160f81b031990911681526020016101fe565b34801561056557600080fd5b5061021a6105743660046123f2565b6115f9565b34801561058557600080fd5b5061027661080481565b34801561059b57600080fd5b5061027661080d81565b3480156105b157600080fd5b5061021a6105c03660046121f3565b611820565b6105cd611899565b6001600160a01b0383166000908152609c602052604090205460f01b6001600160f01b031981166106385760405162461bcd60e51b815260206004820152601060248201526f125b9d985b1a5908185cdcd95d13dd5d60821b60448201526064015b60405180910390fd5b610641346118df565b60405160009061065b90600160f81b90859060200161243f565b60405160208183030381529060405290506000733311A4609cdD0C7Ce8D2Dfa592BA4aDD23FeC57863cb070de561068f3390565b6099546040516001600160e01b031960e085901b1681526106c49291600160c01b900460f01b9088908b9089906004016124c3565b600060405180830381865af41580156106e1573d6000803e3d6000fd5b505050506040513d6000823e601f3d908101601f19168201604052610709919081019061252f565b609954609754609854604051635b2479ff60e11b815293945061080d9363b648f3fe9361076a93609a936001600160a01b0392909216926001600160401b03600160401b83048116938a939092600160801b9091049091169060040161260b565b600060405180830381600087803b15801561078457600080fd5b505af1158015610798573d6000803e3d6000fd5b505050507fe869557c53c6b4ca27e56668068f17eca71394d04718a9214a7667f1474950ff6107c43390565b61080288348989876040516107df9796959493929190612761565b60405180910390a1505050505050565b6107f7611ac8565b6107ff611b22565b565b610809611899565b6001600160a01b0383166000908152609c602052604090205460f01b6001600160f01b031981166108745760405162461bcd60e51b8152602060048201526015602482015274496e76616c6964207641737365744164647265737360581b604482015260640161062f565b61087e8484611b74565b60405160009061089890600160f81b90859060200161243f565b60405160208183030381529060405290506000733311A4609cdD0C7Ce8D2Dfa592BA4aDD23FeC578639f0047836108cc3390565b85856040518463ffffffff1660e01b81526004016108ec939291906127c0565b600060405180830381865af4158015610909573d6000803e3d6000fd5b505050506040513d6000823e601f3d908101601f19168201604052610931919081019061252f565b609954609754609854604051635b2479ff60e11b815293945061080d9363b648f3fe9361099293609a936001600160a01b0392909216926001600160401b03600160401b83048116938a939092600160801b9091049091169060040161260b565b600060405180830381600087803b1580156109ac57600080fd5b505af11580156109c0573d6000803e3d6000fd5b505050507f89996e9f85ecc9022265638d75df5de89dd421fab215e1b013ece5fcc188adce6109ec3390565b878787856040516107df9594939291906127fd565b610a09611ac8565b6402540be400846001600160401b03161115610a605760405162461bcd60e51b815260206004820152601660248201527578746f6b656e57656967687420746f6f206c6172676560501b604482015260640161062f565b6402540be400836001600160401b03161115610acd5760405162461bcd60e51b815260206004820152602660248201527f7472616e73616374526571756972656457656967687441744d6f737420746f6f604482015265206c6172676560d01b606482015260840161062f565b6402540be400826001600160401b03161115610b2b5760405162461bcd60e51b815260206004820152601760248201527f4f766572616c6c57656967687420746f6f206c61726765000000000000000000604482015260640161062f565b64e8d4a51000811115610b765760405162461bcd60e51b8152602060048201526013602482015272666565416d6f756e7420746f6f206c6172676560681b604482015260640161062f565b609780546001600160401b03938416600160801b0267ffffffffffffffff60801b19958516600160401b026fffffffffffffffffffffffffffffffff199092169690941695909517949094179290921617909155609855565b600054610100900460ff1615808015610bef5750600054600160ff909116105b80610c095750303b158015610c09575060005460ff166001145b610c6c5760405162461bcd60e51b815260206004820152602e60248201527f496e697469616c697a61626c653a20636f6e747261637420697320616c72656160448201526d191e481a5b9a5d1a585b1a5e995960921b606482015260840161062f565b6000805460ff191660011790558015610c8f576000805461ff0019166101001790555b610c97611de5565b610c9f611e14565b6001600160a01b038416610ce75760405162461bcd60e51b815260206004820152600f60248201526e496e76616c6964206164647265737360881b604482015260640161062f565b8263ffffffff166107d11480610d0457508263ffffffff166107ee145b610d485760405162461bcd60e51b8152602060048201526015602482015274125b9d985b1a5908189a599c9bdcdd14185c985259605a1b604482015260640161062f565b61010560f11b6001600160f01b031983161480610d73575061080160f01b6001600160f01b03198316145b610dbf5760405162461bcd60e51b815260206004820152601860248201527f496e76616c6964206e617469766543757272656e637949640000000000000000604482015260640161062f565b610dda6402540be400806402540be40064e8d4a51000610a01565b609980546001600160a01b0386166001600160c01b031990911617600160a01b63ffffffff8616021761ffff60c01b1916600160c01b60f085901c0217905560006001604051908082528060200260200182016040528015610e5057816020015b6060815260200190600190039081610e3b5790505b50604051600060208201526001600160e01b031960e087901b16602182015290915060250160405160208183030381529060405281600081518110610e9757610e97612838565b602090810291909101810191909152604080518082019091526001808252818301849052609a805460ff19169091178155835191929091610ede91609b919086019061208e565b50905050508015610f29576000805461ff0019169055604051600181527f7f26b83ff96e1f2b6a682f133852f6798a09c465da95921460cefb38474024989060200160405180910390a15b50505050565b610f37611899565b6001600160a01b038086166000908152609c602052604080822054928716825290205460f091821b911b6001600160f01b0319821615801590610f8357506001600160f01b0319811615155b610fbf5760405162461bcd60e51b815260206004820152600d60248201526c125b9d985b1a5908185cdcd95d609a1b604482015260640161062f565b610fc98786611b74565b604051600090610fe390600160f81b90869060200161243f565b60405160208183030381529060405290506000733311A4609cdD0C7Ce8D2Dfa592BA4aDD23FeC57863cb070de56110173390565b86868a876040518663ffffffff1660e01b815260040161103b9594939291906124c3565b600060405180830381865af4158015611058573d6000803e3d6000fd5b505050506040513d6000823e601f3d908101601f19168201604052611080919081019061252f565b609954609754609854604051635b2479ff60e11b815293945061080d9363b648f3fe936110e193609a936001600160a01b0392909216926001600160401b03600160401b83048116938a939092600160801b9091049091169060040161260b565b600060405180830381600087803b1580156110fb57600080fd5b505af115801561110f573d6000803e3d6000fd5b505050507fe869557c53c6b4ca27e56668068f17eca71394d04718a9214a7667f1474950ff61113b3390565b8a8a8a8a8a876040516111549796959493929190612761565b60405180910390a1505050505050505050565b61116f611899565b611178346118df565b60405160009061119290600160f81b90849060200161243f565b60405160208183030381529060405290506000733311A4609cdD0C7Ce8D2Dfa592BA4aDD23FeC578633ce809266111c63390565b6099546040516001600160e01b031960e085901b1681526111f79291600160c01b900460f01b9087906004016127c0565b600060405180830381865af4158015611214573d6000803e3d6000fd5b505050506040513d6000823e601f3d908101601f1916820160405261123c919081019061252f565b609954609754609854604051635b2479ff60e11b815293945061080d9363b648f3fe9361129d93609a936001600160a01b0392909216926001600160401b03600160401b83048116938a939092600160801b9091049091169060040161260b565b600060405180830381600087803b1580156112b757600080fd5b505af11580156112cb573d6000803e3d6000fd5b505050507ff4960c96e70de5b975340153e33db4d611f9b3e009ab14a373a593bf268346b66112f73390565b61080234868560405161130e9594939291906127fd565b60405180910390a1505050565b611323611ac8565b6107ff6000611e43565b611335611ac8565b6107ff611e95565b611345611899565b6001600160a01b0383166000908152609c602052604090205460f01b6001600160f01b031981166113885760405162461bcd60e51b815260040161062f9061284e565b6113928484611b74565b6040516000906113ac90600160f81b90859060200161243f565b60405160208183030381529060405290506000733311A4609cdD0C7Ce8D2Dfa592BA4aDD23FeC578633ce809266113e03390565b85856040518463ffffffff1660e01b8152600401611400939291906127c0565b600060405180830381865af415801561141d573d6000803e3d6000fd5b505050506040513d6000823e601f3d908101601f19168201604052611445919081019061252f565b609954609754609854604051635b2479ff60e11b815293945061080d9363b648f3fe936114a693609a936001600160a01b0392909216926001600160401b03600160401b83048116938a939092600160801b9091049091169060040161260b565b600060405180830381600087803b1580156114c057600080fd5b505af11580156114d4573d6000803e3d6000fd5b505050507ff4960c96e70de5b975340153e33db4d611f9b3e009ab14a373a593bf268346b66109ec3390565b611508611ac8565b6001600160a01b03831661152e5760405162461bcd60e51b815260040161062f9061284e565b816115725760405162461bcd60e51b8152602060048201526014602482015273496e76616c6964206d696e696d756d56616c756560601b604482015260640161062f565b6001600160f01b031981166115be5760405162461bcd60e51b8152602060048201526012602482015271125b9d985b1a590818dd5c9c995b98de525960721b604482015260640161062f565b6001600160a01b03929092166000908152609d6020908152604080832093909355609c905220805461ffff191660f09290921c919091179055565b611601611899565b6001600160a01b0384166000908152609c602052604090205460f01b6001600160f01b031981166116665760405162461bcd60e51b815260206004820152600f60248201526e24b73b30b634b21030b9b9b2ba24b760891b604482015260640161062f565b6116708585611b74565b60405160009061168a90600160f81b90859060200161243f565b60405160208183030381529060405290506000733311A4609cdD0C7Ce8D2Dfa592BA4aDD23FeC57863cb070de56116be3390565b6099546040516001600160e01b031960e085901b1681526116f492918891600160c01b90910460f01b908b9089906004016124c3565b600060405180830381865af4158015611711573d6000803e3d6000fd5b505050506040513d6000823e601f3d908101601f19168201604052611739919081019061252f565b609954609754609854604051635b2479ff60e11b815293945061080d9363b648f3fe9361179a93609a936001600160a01b0392909216926001600160401b03600160401b83048116938a939092600160801b9091049091169060040161260b565b600060405180830381600087803b1580156117b457600080fd5b505af11580156117c8573d6000803e3d6000fd5b505050507fe869557c53c6b4ca27e56668068f17eca71394d04718a9214a7667f1474950ff6117f43390565b886108028989898760405161180f9796959493929190612761565b60405180910390a150505050505050565b611828611ac8565b6001600160a01b03811661188d5760405162461bcd60e51b815260206004820152602660248201527f4f776e61626c653a206e6577206f776e657220697320746865207a65726f206160448201526564647265737360d01b606482015260840161062f565b61189681611e43565b50565b60655460ff16156107ff5760405162461bcd60e51b815260206004820152601060248201526f14185d5cd8589b194e881c185d5cd95960821b604482015260640161062f565b610802600052609d6020527f382c168b1823bf50cea41570e6d90d63d48929787d842e8f79781a20861398f65461194f5760405162461bcd60e51b81526020600482015260146024820152734e6f7420736574204d696e696d756d56616c756560601b604482015260640161062f565b610802600052609d6020527f382c168b1823bf50cea41570e6d90d63d48929787d842e8f79781a20861398f6548110156119c45760405162461bcd60e51b81526020600482015260166024820152754c657373207468616e204d696e696d756d56616c756560501b604482015260640161062f565b6000738F8F6B104190a4A24CcFf7B4006Ea7A59baeAf816332640a52336040516001600160e01b031960e084901b1681526001600160a01b039091166004820152602401602060405180830381865af4158015611a25573d6000803e3d6000fd5b505050506040513d601f19601f82011682018060405250810190611a49919061287c565b90506000611a5682611ed2565b60975460405163b9f813ff60e01b81529192506108049163b9f813ff91611a919161080291889187916001600160401b031690600401612895565b600060405180830381600087803b158015611aab57600080fd5b505af1158015611abf573d6000803e3d6000fd5b50505050505050565b6033546001600160a01b031633146107ff5760405162461bcd60e51b815260206004820181905260248201527f4f776e61626c653a2063616c6c6572206973206e6f7420746865206f776e6572604482015260640161062f565b611b2a611fe2565b6065805460ff191690557f5db9ee0a495bf2e6ff9c91a7834c1ba4fdd244a5e8aa4e537bd38aeae4b073aa335b6040516001600160a01b03909116815260200160405180910390a1565b6001600160a01b038216611b9a5760405162461bcd60e51b815260040161062f9061284e565b6001600160a01b0382166000908152609d6020526040902054611bf65760405162461bcd60e51b81526020600482015260146024820152734e6f7420736574204d696e696d756d56616c756560601b604482015260640161062f565b6001600160a01b0382166000908152609d6020526040902054811015611c575760405162461bcd60e51b81526020600482015260166024820152754c657373207468616e204d696e696d756d56616c756560501b604482015260640161062f565b6000738F8F6B104190a4A24CcFf7B4006Ea7A59baeAf816332640a52336040516001600160e01b031960e084901b1681526001600160a01b039091166004820152602401602060405180830381865af4158015611cb8573d6000803e3d6000fd5b505050506040513d601f19601f82011682018060405250810190611cdc919061287c565b90506000611ce982611ed2565b9050836001600160a01b0381166323b872dd336040516001600160e01b031960e084901b1681526001600160a01b039091166004820152306024820152604481018790526064016020604051808303816000875af1158015611d4f573d6000803e3d6000fd5b505050506040513d601f19601f82011682018060405250810190611d739190612932565b5060975460405163b9f813ff60e01b81526108049163b9f813ff91611dac918991899188916001600160401b0390911690600401612895565b600060405180830381600087803b158015611dc657600080fd5b505af1158015611dda573d6000803e3d6000fd5b505050505050505050565b600054610100900460ff16611e0c5760405162461bcd60e51b815260040161062f90612954565b6107ff61202b565b600054610100900460ff16611e3b5760405162461bcd60e51b815260040161062f90612954565b6107ff61205b565b603380546001600160a01b038381166001600160a01b0319831681179093556040519116919082907f8be0079c531659141344cd1fd0a4f28419497f9722a3daafe3b4186f6b6457e090600090a35050565b611e9d611899565b6065805460ff191660011790557f62e78cea01bee320cd4e420270b5ea74000d11b0c9f74754ebdbfc544b05a258611b573390565b60408051808201825260008082526060602083018190528351600280825291810190945291929091816020015b6060815260200190600190039081611eff5790505060995460405160006020820152600160a01b90910460e01b6001600160e01b031916602182015290915060250160405160208183030381529060405281600081518110611f6357611f63612838565b602002602001018190525082604051602001611f969190600160f81b815260018101919091526000602182015260220190565b60405160208183030381529060405281600181518110611fb857611fb8612838565b60209081029190910181019190915260408051808201909152600181529081019190915292915050565b60655460ff166107ff5760405162461bcd60e51b815260206004820152601460248201527314185d5cd8589b194e881b9bdd081c185d5cd95960621b604482015260640161062f565b600054610100900460ff166120525760405162461bcd60e51b815260040161062f90612954565b6107ff33611e43565b600054610100900460ff166120825760405162461bcd60e51b815260040161062f90612954565b6065805460ff19169055565b8280548282559060005260206000209081019282156120db579160200282015b828111156120db57825180516120cb9184916020909101906120eb565b50916020019190600101906120ae565b506120e792915061216b565b5090565b8280546120f7906125d0565b90600052602060002090601f016020900481019282612119576000855561215f565b82601f1061213257805160ff191683800117855561215f565b8280016001018555821561215f579182015b8281111561215f578251825591602001919060010190612144565b506120e7929150612188565b808211156120e757600061217f828261219d565b5060010161216b565b5b808211156120e75760008155600101612189565b5080546121a9906125d0565b6000825580601f106121b9575050565b601f0160209004906000526020600020908101906118969190612188565b80356001600160a01b03811681146121ee57600080fd5b919050565b60006020828403121561220557600080fd5b61220e826121d7565b9392505050565b80356001600160801b03811681146121ee57600080fd5b60008060006060848603121561224157600080fd5b61224a846121d7565b925061225860208501612215565b9150612266604085016121d7565b90509250925092565b60008060006060848603121561228457600080fd5b61228d846121d7565b925060208401359150612266604085016121d7565b80356001600160401b03811681146121ee57600080fd5b600080600080608085870312156122cf57600080fd5b6122d8856122a2565b93506122e6602086016122a2565b92506122f4604086016122a2565b9396929550929360600135925050565b80356001600160f01b0319811681146121ee57600080fd5b60008060006060848603121561233157600080fd5b61233a846121d7565b9250602084013563ffffffff8116811461235357600080fd5b915061226660408501612304565b600080600080600060a0868803121561237957600080fd5b612382866121d7565b9450612390602087016121d7565b9350604086013592506123a560608701612215565b91506123b3608087016121d7565b90509295509295909350565b6000806000606084860312156123d457600080fd5b6123dd846121d7565b92506020840135915061226660408501612304565b6000806000806080858703121561240857600080fd5b612411856121d7565b93506020850135925061242660408601612215565b9150612434606086016121d7565b905092959194509250565b6001600160f81b031992909216825260601b6bffffffffffffffffffffffff1916600182015260150190565b60005b8381101561248657818101518382015260200161246e565b83811115610f295750506000910152565b600081518084526124af81602086016020860161246b565b601f01601f19169290920160200192915050565b6001600160a01b03861681526001600160f01b03198581166020830152841660408201526001600160801b038316606082015260a06080820181905260009061250e90830184612497565b979650505050505050565b634e487b7160e01b600052604160045260246000fd5b60006020828403121561254157600080fd5b81516001600160401b038082111561255857600080fd5b818401915084601f83011261256c57600080fd5b81518181111561257e5761257e612519565b604051601f8201601f19908116603f011681019083821181831017156125a6576125a6612519565b816040528281528760208487010111156125bf57600080fd5b61250e83602083016020880161246b565b600181811c908216806125e457607f821691505b6020821081141561260557634e487b7160e01b600052602260045260246000fd5b50919050565b60c081526000610100820160ff89541660c08401526001808a01604060e086015282815480855261012094508487019150848160051b8801019450600083815260209350838120815b838110156127075789880361011f190185528154839080891c8982168061267c57607f821691505b89821081141561269a57634e487b7160e01b87526022600452602487fd5b818c5260208c018180156126b557600181146126c6576126f0565b60ff19851682528b820195506126f0565b600088815260209020895b858110156126ea57815484820152908e01908d016126d1565b83019650505b50939b505050958701955050908601908601612654565b50505050506127208186018b6001600160a01b03169052565b50506001600160401b038716604084015282810360608401526127438187612497565b91505083608083015261250e60a08301846001600160401b03169052565b6001600160a01b03888116825287811660208301528681166040830152606082018690526001600160801b0385166080830152831660a082015260e060c082018190526000906127b390830184612497565b9998505050505050505050565b6001600160a01b03841681526001600160f01b0319831660208201526060604082018190526000906127f490830184612497565b95945050505050565b6001600160a01b0386811682528581166020830152604082018590528316606082015260a06080820181905260009061250e90830184612497565b634e487b7160e01b600052603260045260246000fd5b602080825260149082015273496e76616c69642061737365744164647265737360601b604082015260600190565b60006020828403121561288e57600080fd5b5051919050565b60018060a01b03851681526000602085818401526080604084015260c0830160ff865116608085015281860151604060a086015281815180845260e08701915060e08160051b8801019350848301925060005b818110156129165760df19888603018352612904858551612497565b945092850192918501916001016128e8565b5050506001600160401b03861660608601525091506127f49050565b60006020828403121561294457600080fd5b8151801515811461220e57600080fd5b6020808252602b908201527f496e697469616c697a61626c653a20636f6e7472616374206973206e6f74206960408201526a6e697469616c697a696e6760a81b60608201526080019056fea26469706673582212205f9be6403557bc010ecb20bab42c8b5c76ce4ec96fda8cef452f5ba4611393ec64736f6c634300080a0033",
  "deployedBytecode": "0x6080604052600436106101c25760003560e01c806369e15404116100f7578063a23206bf11610095578063d6aa374d11610064578063d6aa374d14610559578063d7c274c014610579578063eddc8b911461058f578063f2fde38b146105a557600080fd5b8063a23206bf146104af578063adfc7c16146104cf578063c86093a8146104ef578063c87e5a9e1461052857600080fd5b80638a6fa437116100d15780638a6fa437146104345780638da5cb5b1461044a57806394cb2e4914610468578063a11b00371461048f57600080fd5b806369e15404146103f4578063715018a61461040a5780638456cb591461041f57600080fd5b80634899b9a8116101645780635bbfef451161013e5780635bbfef451461037e5780635c975abb1461039e5780635ede2882146103c157806367559997146103e157600080fd5b80634899b9a8146103125780634acedccb146103325780634eb82d9f1461035257600080fd5b8063374f00ff116101a0578063374f00ff146102565780633c75045e1461028e5780633d587204146102be5780633f4ba83a146102fd57600080fd5b80631aa51037146101c757806323e49879146102075780632ac7343d1461021c575b600080fd5b3480156101d357600080fd5b506101f46101e23660046121f3565b609d6020526000908152604090205481565b6040519081526020015b60405180910390f35b61021a61021536600461222c565b6105c5565b005b34801561022857600080fd5b5060995461023d90600160c01b900460f01b81565b6040516001600160f01b031990911681526020016101fe565b34801561026257600080fd5b50609954610276906001600160a01b031681565b6040516001600160a01b0390911681526020016101fe565b34801561029a57600080fd5b5061023d6102a93660046121f3565b609c6020526000908152604090205460f01b81565b3480156102ca57600080fd5b506097546102e590600160801b90046001600160401b031681565b6040516001600160401b0390911681526020016101fe565b34801561030957600080fd5b5061021a6107ef565b34801561031e57600080fd5b5061021a61032d36600461226f565b610801565b34801561033e57600080fd5b5061021a61034d3660046122b9565b610a01565b34801561035e57600080fd5b50609a5461036c9060ff1681565b60405160ff90911681526020016101fe565b34801561038a57600080fd5b5061021a61039936600461231c565b610bcf565b3480156103aa57600080fd5b5060655460ff1660405190151581526020016101fe565b3480156103cd57600080fd5b5061021a6103dc366004612361565b610f2f565b61021a6103ef3660046121f3565b611167565b34801561040057600080fd5b506101f460985481565b34801561041657600080fd5b5061021a61131b565b34801561042b57600080fd5b5061021a61132d565b34801561044057600080fd5b5061027661080281565b34801561045657600080fd5b506033546001600160a01b0316610276565b34801561047457600080fd5b506097546102e590600160401b90046001600160401b031681565b34801561049b57600080fd5b506097546102e5906001600160401b031681565b3480156104bb57600080fd5b5061021a6104ca36600461226f565b61133d565b3480156104db57600080fd5b5061021a6104ea3660046123bf565b611500565b3480156104fb57600080fd5b5060995461051390600160a01b900463ffffffff1681565b60405163ffffffff90911681526020016101fe565b34801561053457600080fd5b50610540600160f81b81565b6040516001600160f81b031990911681526020016101fe565b34801561056557600080fd5b5061021a6105743660046123f2565b6115f9565b34801561058557600080fd5b5061027661080481565b34801561059b57600080fd5b5061027661080d81565b3480156105b157600080fd5b5061021a6105c03660046121f3565b611820565b6105cd611899565b6001600160a01b0383166000908152609c602052604090205460f01b6001600160f01b031981166106385760405162461bcd60e51b815260206004820152601060248201526f125b9d985b1a5908185cdcd95d13dd5d60821b60448201526064015b60405180910390fd5b610641346118df565b60405160009061065b90600160f81b90859060200161243f565b6040516020818303038152906040529050600073__$e184f4046250cd750dfdb139628ab13bdc$__63cb070de561068f3390565b6099546040516001600160e01b031960e085901b1681526106c49291600160c01b900460f01b9088908b9089906004016124c3565b600060405180830381865af41580156106e1573d6000803e3d6000fd5b505050506040513d6000823e601f3d908101601f19168201604052610709919081019061252f565b609954609754609854604051635b2479ff60e11b815293945061080d9363b648f3fe9361076a93609a936001600160a01b0392909216926001600160401b03600160401b83048116938a939092600160801b9091049091169060040161260b565b600060405180830381600087803b15801561078457600080fd5b505af1158015610798573d6000803e3d6000fd5b505050507fe869557c53c6b4ca27e56668068f17eca71394d04718a9214a7667f1474950ff6107c43390565b61080288348989876040516107df9796959493929190612761565b60405180910390a1505050505050565b6107f7611ac8565b6107ff611b22565b565b610809611899565b6001600160a01b0383166000908152609c602052604090205460f01b6001600160f01b031981166108745760405162461bcd60e51b8152602060048201526015602482015274496e76616c6964207641737365744164647265737360581b604482015260640161062f565b61087e8484611b74565b60405160009061089890600160f81b90859060200161243f565b6040516020818303038152906040529050600073__$e184f4046250cd750dfdb139628ab13bdc$__639f0047836108cc3390565b85856040518463ffffffff1660e01b81526004016108ec939291906127c0565b600060405180830381865af4158015610909573d6000803e3d6000fd5b505050506040513d6000823e601f3d908101601f19168201604052610931919081019061252f565b609954609754609854604051635b2479ff60e11b815293945061080d9363b648f3fe9361099293609a936001600160a01b0392909216926001600160401b03600160401b83048116938a939092600160801b9091049091169060040161260b565b600060405180830381600087803b1580156109ac57600080fd5b505af11580156109c0573d6000803e3d6000fd5b505050507f89996e9f85ecc9022265638d75df5de89dd421fab215e1b013ece5fcc188adce6109ec3390565b878787856040516107df9594939291906127fd565b610a09611ac8565b6402540be400846001600160401b03161115610a605760405162461bcd60e51b815260206004820152601660248201527578746f6b656e57656967687420746f6f206c6172676560501b604482015260640161062f565b6402540be400836001600160401b03161115610acd5760405162461bcd60e51b815260206004820152602660248201527f7472616e73616374526571756972656457656967687441744d6f737420746f6f604482015265206c6172676560d01b606482015260840161062f565b6402540be400826001600160401b03161115610b2b5760405162461bcd60e51b815260206004820152601760248201527f4f766572616c6c57656967687420746f6f206c61726765000000000000000000604482015260640161062f565b64e8d4a51000811115610b765760405162461bcd60e51b8152602060048201526013602482015272666565416d6f756e7420746f6f206c6172676560681b604482015260640161062f565b609780546001600160401b03938416600160801b0267ffffffffffffffff60801b19958516600160401b026fffffffffffffffffffffffffffffffff199092169690941695909517949094179290921617909155609855565b600054610100900460ff1615808015610bef5750600054600160ff909116105b80610c095750303b158015610c09575060005460ff166001145b610c6c5760405162461bcd60e51b815260206004820152602e60248201527f496e697469616c697a61626c653a20636f6e747261637420697320616c72656160448201526d191e481a5b9a5d1a585b1a5e995960921b606482015260840161062f565b6000805460ff191660011790558015610c8f576000805461ff0019166101001790555b610c97611de5565b610c9f611e14565b6001600160a01b038416610ce75760405162461bcd60e51b815260206004820152600f60248201526e496e76616c6964206164647265737360881b604482015260640161062f565b8263ffffffff166107d11480610d0457508263ffffffff166107ee145b610d485760405162461bcd60e51b8152602060048201526015602482015274125b9d985b1a5908189a599c9bdcdd14185c985259605a1b604482015260640161062f565b61010560f11b6001600160f01b031983161480610d73575061080160f01b6001600160f01b03198316145b610dbf5760405162461bcd60e51b815260206004820152601860248201527f496e76616c6964206e617469766543757272656e637949640000000000000000604482015260640161062f565b610dda6402540be400806402540be40064e8d4a51000610a01565b609980546001600160a01b0386166001600160c01b031990911617600160a01b63ffffffff8616021761ffff60c01b1916600160c01b60f085901c0217905560006001604051908082528060200260200182016040528015610e5057816020015b6060815260200190600190039081610e3b5790505b50604051600060208201526001600160e01b031960e087901b16602182015290915060250160405160208183030381529060405281600081518110610e9757610e97612838565b602090810291909101810191909152604080518082019091526001808252818301849052609a805460ff19169091178155835191929091610ede91609b919086019061208e565b50905050508015610f29576000805461ff0019169055604051600181527f7f26b83ff96e1f2b6a682f133852f6798a09c465da95921460cefb38474024989060200160405180910390a15b50505050565b610f37611899565b6001600160a01b038086166000908152609c602052604080822054928716825290205460f091821b911b6001600160f01b0319821615801590610f8357506001600160f01b0319811615155b610fbf5760405162461bcd60e51b815260206004820152600d60248201526c125b9d985b1a5908185cdcd95d609a1b604482015260640161062f565b610fc98786611b74565b604051600090610fe390600160f81b90869060200161243f565b6040516020818303038152906040529050600073__$e184f4046250cd750dfdb139628ab13bdc$__63cb070de56110173390565b86868a876040518663ffffffff1660e01b815260040161103b9594939291906124c3565b600060405180830381865af4158015611058573d6000803e3d6000fd5b505050506040513d6000823e601f3d908101601f19168201604052611080919081019061252f565b609954609754609854604051635b2479ff60e11b815293945061080d9363b648f3fe936110e193609a936001600160a01b0392909216926001600160401b03600160401b83048116938a939092600160801b9091049091169060040161260b565b600060405180830381600087803b1580156110fb57600080fd5b505af115801561110f573d6000803e3d6000fd5b505050507fe869557c53c6b4ca27e56668068f17eca71394d04718a9214a7667f1474950ff61113b3390565b8a8a8a8a8a876040516111549796959493929190612761565b60405180910390a1505050505050505050565b61116f611899565b611178346118df565b60405160009061119290600160f81b90849060200161243f565b6040516020818303038152906040529050600073__$e184f4046250cd750dfdb139628ab13bdc$__633ce809266111c63390565b6099546040516001600160e01b031960e085901b1681526111f79291600160c01b900460f01b9087906004016127c0565b600060405180830381865af4158015611214573d6000803e3d6000fd5b505050506040513d6000823e601f3d908101601f1916820160405261123c919081019061252f565b609954609754609854604051635b2479ff60e11b815293945061080d9363b648f3fe9361129d93609a936001600160a01b0392909216926001600160401b03600160401b83048116938a939092600160801b9091049091169060040161260b565b600060405180830381600087803b1580156112b757600080fd5b505af11580156112cb573d6000803e3d6000fd5b505050507ff4960c96e70de5b975340153e33db4d611f9b3e009ab14a373a593bf268346b66112f73390565b61080234868560405161130e9594939291906127fd565b60405180910390a1505050565b611323611ac8565b6107ff6000611e43565b611335611ac8565b6107ff611e95565b611345611899565b6001600160a01b0383166000908152609c602052604090205460f01b6001600160f01b031981166113885760405162461bcd60e51b815260040161062f9061284e565b6113928484611b74565b6040516000906113ac90600160f81b90859060200161243f565b6040516020818303038152906040529050600073__$e184f4046250cd750dfdb139628ab13bdc$__633ce809266113e03390565b85856040518463ffffffff1660e01b8152600401611400939291906127c0565b600060405180830381865af415801561141d573d6000803e3d6000fd5b505050506040513d6000823e601f3d908101601f19168201604052611445919081019061252f565b609954609754609854604051635b2479ff60e11b815293945061080d9363b648f3fe936114a693609a936001600160a01b0392909216926001600160401b03600160401b83048116938a939092600160801b9091049091169060040161260b565b600060405180830381600087803b1580156114c057600080fd5b505af11580156114d4573d6000803e3d6000fd5b505050507ff4960c96e70de5b975340153e33db4d611f9b3e009ab14a373a593bf268346b66109ec3390565b611508611ac8565b6001600160a01b03831661152e5760405162461bcd60e51b815260040161062f9061284e565b816115725760405162461bcd60e51b8152602060048201526014602482015273496e76616c6964206d696e696d756d56616c756560601b604482015260640161062f565b6001600160f01b031981166115be5760405162461bcd60e51b8152602060048201526012602482015271125b9d985b1a590818dd5c9c995b98de525960721b604482015260640161062f565b6001600160a01b03929092166000908152609d6020908152604080832093909355609c905220805461ffff191660f09290921c919091179055565b611601611899565b6001600160a01b0384166000908152609c602052604090205460f01b6001600160f01b031981166116665760405162461bcd60e51b815260206004820152600f60248201526e24b73b30b634b21030b9b9b2ba24b760891b604482015260640161062f565b6116708585611b74565b60405160009061168a90600160f81b90859060200161243f565b6040516020818303038152906040529050600073__$e184f4046250cd750dfdb139628ab13bdc$__63cb070de56116be3390565b6099546040516001600160e01b031960e085901b1681526116f492918891600160c01b90910460f01b908b9089906004016124c3565b600060405180830381865af4158015611711573d6000803e3d6000fd5b505050506040513d6000823e601f3d908101601f19168201604052611739919081019061252f565b609954609754609854604051635b2479ff60e11b815293945061080d9363b648f3fe9361179a93609a936001600160a01b0392909216926001600160401b03600160401b83048116938a939092600160801b9091049091169060040161260b565b600060405180830381600087803b1580156117b457600080fd5b505af11580156117c8573d6000803e3d6000fd5b505050507fe869557c53c6b4ca27e56668068f17eca71394d04718a9214a7667f1474950ff6117f43390565b886108028989898760405161180f9796959493929190612761565b60405180910390a150505050505050565b611828611ac8565b6001600160a01b03811661188d5760405162461bcd60e51b815260206004820152602660248201527f4f776e61626c653a206e6577206f776e657220697320746865207a65726f206160448201526564647265737360d01b606482015260840161062f565b61189681611e43565b50565b60655460ff16156107ff5760405162461bcd60e51b815260206004820152601060248201526f14185d5cd8589b194e881c185d5cd95960821b604482015260640161062f565b610802600052609d6020527f382c168b1823bf50cea41570e6d90d63d48929787d842e8f79781a20861398f65461194f5760405162461bcd60e51b81526020600482015260146024820152734e6f7420736574204d696e696d756d56616c756560601b604482015260640161062f565b610802600052609d6020527f382c168b1823bf50cea41570e6d90d63d48929787d842e8f79781a20861398f6548110156119c45760405162461bcd60e51b81526020600482015260166024820152754c657373207468616e204d696e696d756d56616c756560501b604482015260640161062f565b600073__$ddfb0e6c1c4d05795fcce73a90830b0995$__6332640a52336040516001600160e01b031960e084901b1681526001600160a01b039091166004820152602401602060405180830381865af4158015611a25573d6000803e3d6000fd5b505050506040513d601f19601f82011682018060405250810190611a49919061287c565b90506000611a5682611ed2565b60975460405163b9f813ff60e01b81529192506108049163b9f813ff91611a919161080291889187916001600160401b031690600401612895565b600060405180830381600087803b158015611aab57600080fd5b505af1158015611abf573d6000803e3d6000fd5b50505050505050565b6033546001600160a01b031633146107ff5760405162461bcd60e51b815260206004820181905260248201527f4f776e61626c653a2063616c6c6572206973206e6f7420746865206f776e6572604482015260640161062f565b611b2a611fe2565b6065805460ff191690557f5db9ee0a495bf2e6ff9c91a7834c1ba4fdd244a5e8aa4e537bd38aeae4b073aa335b6040516001600160a01b03909116815260200160405180910390a1565b6001600160a01b038216611b9a5760405162461bcd60e51b815260040161062f9061284e565b6001600160a01b0382166000908152609d6020526040902054611bf65760405162461bcd60e51b81526020600482015260146024820152734e6f7420736574204d696e696d756d56616c756560601b604482015260640161062f565b6001600160a01b0382166000908152609d6020526040902054811015611c575760405162461bcd60e51b81526020600482015260166024820152754c657373207468616e204d696e696d756d56616c756560501b604482015260640161062f565b600073__$ddfb0e6c1c4d05795fcce73a90830b0995$__6332640a52336040516001600160e01b031960e084901b1681526001600160a01b039091166004820152602401602060405180830381865af4158015611cb8573d6000803e3d6000fd5b505050506040513d601f19601f82011682018060405250810190611cdc919061287c565b90506000611ce982611ed2565b9050836001600160a01b0381166323b872dd336040516001600160e01b031960e084901b1681526001600160a01b039091166004820152306024820152604481018790526064016020604051808303816000875af1158015611d4f573d6000803e3d6000fd5b505050506040513d601f19601f82011682018060405250810190611d739190612932565b5060975460405163b9f813ff60e01b81526108049163b9f813ff91611dac918991899188916001600160401b0390911690600401612895565b600060405180830381600087803b158015611dc657600080fd5b505af1158015611dda573d6000803e3d6000fd5b505050505050505050565b600054610100900460ff16611e0c5760405162461bcd60e51b815260040161062f90612954565b6107ff61202b565b600054610100900460ff16611e3b5760405162461bcd60e51b815260040161062f90612954565b6107ff61205b565b603380546001600160a01b038381166001600160a01b0319831681179093556040519116919082907f8be0079c531659141344cd1fd0a4f28419497f9722a3daafe3b4186f6b6457e090600090a35050565b611e9d611899565b6065805460ff191660011790557f62e78cea01bee320cd4e420270b5ea74000d11b0c9f74754ebdbfc544b05a258611b573390565b60408051808201825260008082526060602083018190528351600280825291810190945291929091816020015b6060815260200190600190039081611eff5790505060995460405160006020820152600160a01b90910460e01b6001600160e01b031916602182015290915060250160405160208183030381529060405281600081518110611f6357611f63612838565b602002602001018190525082604051602001611f969190600160f81b815260018101919091526000602182015260220190565b60405160208183030381529060405281600181518110611fb857611fb8612838565b60209081029190910181019190915260408051808201909152600181529081019190915292915050565b60655460ff166107ff5760405162461bcd60e51b815260206004820152601460248201527314185d5cd8589b194e881b9bdd081c185d5cd95960621b604482015260640161062f565b600054610100900460ff166120525760405162461bcd60e51b815260040161062f90612954565b6107ff33611e43565b600054610100900460ff166120825760405162461bcd60e51b815260040161062f90612954565b6065805460ff19169055565b8280548282559060005260206000209081019282156120db579160200282015b828111156120db57825180516120cb9184916020909101906120eb565b50916020019190600101906120ae565b506120e792915061216b565b5090565b8280546120f7906125d0565b90600052602060002090601f016020900481019282612119576000855561215f565b82601f1061213257805160ff191683800117855561215f565b8280016001018555821561215f579182015b8281111561215f578251825591602001919060010190612144565b506120e7929150612188565b808211156120e757600061217f828261219d565b5060010161216b565b5b808211156120e75760008155600101612189565b5080546121a9906125d0565b6000825580601f106121b9575050565b601f0160209004906000526020600020908101906118969190612188565b80356001600160a01b03811681146121ee57600080fd5b919050565b60006020828403121561220557600080fd5b61220e826121d7565b9392505050565b80356001600160801b03811681146121ee57600080fd5b60008060006060848603121561224157600080fd5b61224a846121d7565b925061225860208501612215565b9150612266604085016121d7565b90509250925092565b60008060006060848603121561228457600080fd5b61228d846121d7565b925060208401359150612266604085016121d7565b80356001600160401b03811681146121ee57600080fd5b600080600080608085870312156122cf57600080fd5b6122d8856122a2565b93506122e6602086016122a2565b92506122f4604086016122a2565b9396929550929360600135925050565b80356001600160f01b0319811681146121ee57600080fd5b60008060006060848603121561233157600080fd5b61233a846121d7565b9250602084013563ffffffff8116811461235357600080fd5b915061226660408501612304565b600080600080600060a0868803121561237957600080fd5b612382866121d7565b9450612390602087016121d7565b9350604086013592506123a560608701612215565b91506123b3608087016121d7565b90509295509295909350565b6000806000606084860312156123d457600080fd5b6123dd846121d7565b92506020840135915061226660408501612304565b6000806000806080858703121561240857600080fd5b612411856121d7565b93506020850135925061242660408601612215565b9150612434606086016121d7565b905092959194509250565b6001600160f81b031992909216825260601b6bffffffffffffffffffffffff1916600182015260150190565b60005b8381101561248657818101518382015260200161246e565b83811115610f295750506000910152565b600081518084526124af81602086016020860161246b565b601f01601f19169290920160200192915050565b6001600160a01b03861681526001600160f01b03198581166020830152841660408201526001600160801b038316606082015260a06080820181905260009061250e90830184612497565b979650505050505050565b634e487b7160e01b600052604160045260246000fd5b60006020828403121561254157600080fd5b81516001600160401b038082111561255857600080fd5b818401915084601f83011261256c57600080fd5b81518181111561257e5761257e612519565b604051601f8201601f19908116603f011681019083821181831017156125a6576125a6612519565b816040528281528760208487010111156125bf57600080fd5b61250e83602083016020880161246b565b600181811c908216806125e457607f821691505b6020821081141561260557634e487b7160e01b600052602260045260246000fd5b50919050565b60c081526000610100820160ff89541660c08401526001808a01604060e086015282815480855261012094508487019150848160051b8801019450600083815260209350838120815b838110156127075789880361011f190185528154839080891c8982168061267c57607f821691505b89821081141561269a57634e487b7160e01b87526022600452602487fd5b818c5260208c018180156126b557600181146126c6576126f0565b60ff19851682528b820195506126f0565b600088815260209020895b858110156126ea57815484820152908e01908d016126d1565b83019650505b50939b505050958701955050908601908601612654565b50505050506127208186018b6001600160a01b03169052565b50506001600160401b038716604084015282810360608401526127438187612497565b91505083608083015261250e60a08301846001600160401b03169052565b6001600160a01b03888116825287811660208301528681166040830152606082018690526001600160801b0385166080830152831660a082015260e060c082018190526000906127b390830184612497565b9998505050505050505050565b6001600160a01b03841681526001600160f01b0319831660208201526060604082018190526000906127f490830184612497565b95945050505050565b6001600160a01b0386811682528581166020830152604082018590528316606082015260a06080820181905260009061250e90830184612497565b634e487b7160e01b600052603260045260246000fd5b602080825260149082015273496e76616c69642061737365744164647265737360601b604082015260600190565b60006020828403121561288e57600080fd5b5051919050565b60018060a01b03851681526000602085818401526080604084015260c0830160ff865116608085015281860151604060a086015281815180845260e08701915060e08160051b8801019350848301925060005b818110156129165760df19888603018352612904858551612497565b945092850192918501916001016128e8565b5050506001600160401b03861660608601525091506127f49050565b60006020828403121561294457600080fd5b8151801515811461220e57600080fd5b6020808252602b908201527f496e697469616c697a61626c653a20636f6e7472616374206973206e6f74206960408201526a6e697469616c697a696e6760a81b60608201526080019056fea26469706673582212205f9be6403557bc010ecb20bab42c8b5c76ce4ec96fda8cef452f5ba4611393ec64736f6c634300080a0033",
  "libraries": {
    "AddressToAccount": "0x8F8F6B104190a4A24CcFf7B4006Ea7A59baeAf81",
    "BuildCallData": "0x3311A4609cdD0C7Ce8D2Dfa592BA4aDD23FeC578"
  },
  "devdoc": {
    "kind": "dev",
    "methods": {
      "owner()": {
        "details": "Returns the address of the current owner."
      },
      "paused()": {
        "details": "Returns true if the contract is paused, and false otherwise."
      },
      "renounceOwnership()": {
        "details": "Leaves the contract without owner. It will not be possible to call `onlyOwner` functions. Can only be called by the current owner. NOTE: Renouncing ownership will leave the contract without an owner, thereby disabling any functionality that is only available to the owner."
      },
      "transferOwnership(address)": {
        "details": "Transfers ownership of the contract to a new account (`newOwner`). Can only be called by the current owner."
      }
    },
    "version": 1
  },
  "userdoc": {
    "kind": "user",
    "methods": {
      "mintVAsset(address,uint256,address)": {
        "notice": "Minted vAssets"
      },
      "mintVNativeAsset(address)": {
        "notice": "Minted vNative assets such as vASTR, vGLMR, vMOVR"
      },
      "redeemAsset(address,uint256,address)": {
        "notice": "Redeem assets"
      },
      "swapAssetsForExactAssets(address,address,uint256,uint128,address)": {
        "notice": "Swap one asset for another"
      },
      "swapAssetsForExactNativeAssets(address,uint256,uint128,address)": {
        "notice": "Swap one asset for native asset"
      },
      "swapNativeAssetsForExactAssets(address,uint128,address)": {
        "notice": "Swap native asset for another"
      }
    },
    "version": 1
  },
  "storageLayout": {
    "storage": [
      {
        "astId": 138,
        "contract": "contracts/MoonbeamSlpx.sol:MoonbeamSlpx",
        "label": "_initialized",
        "offset": 0,
        "slot": "0",
        "type": "t_uint8"
      },
      {
        "astId": 141,
        "contract": "contracts/MoonbeamSlpx.sol:MoonbeamSlpx",
        "label": "_initializing",
        "offset": 1,
        "slot": "0",
        "type": "t_bool"
      },
      {
        "astId": 798,
        "contract": "contracts/MoonbeamSlpx.sol:MoonbeamSlpx",
        "label": "__gap",
        "offset": 0,
        "slot": "1",
        "type": "t_array(t_uint256)50_storage"
      },
      {
        "astId": 10,
        "contract": "contracts/MoonbeamSlpx.sol:MoonbeamSlpx",
        "label": "_owner",
        "offset": 0,
        "slot": "51",
        "type": "t_address"
      },
      {
        "astId": 130,
        "contract": "contracts/MoonbeamSlpx.sol:MoonbeamSlpx",
        "label": "__gap",
        "offset": 0,
        "slot": "52",
        "type": "t_array(t_uint256)49_storage"
      },
      {
        "astId": 321,
        "contract": "contracts/MoonbeamSlpx.sol:MoonbeamSlpx",
        "label": "_paused",
        "offset": 0,
        "slot": "101",
        "type": "t_bool"
      },
      {
        "astId": 426,
        "contract": "contracts/MoonbeamSlpx.sol:MoonbeamSlpx",
        "label": "__gap",
        "offset": 0,
        "slot": "102",
        "type": "t_array(t_uint256)49_storage"
      },
      {
        "astId": 1682,
        "contract": "contracts/MoonbeamSlpx.sol:MoonbeamSlpx",
        "label": "xtokenWeight",
        "offset": 0,
        "slot": "151",
        "type": "t_uint64"
      },
      {
        "astId": 1684,
        "contract": "contracts/MoonbeamSlpx.sol:MoonbeamSlpx",
        "label": "transactRequiredWeightAtMost",
        "offset": 8,
        "slot": "151",
        "type": "t_uint64"
      },
      {
        "astId": 1686,
        "contract": "contracts/MoonbeamSlpx.sol:MoonbeamSlpx",
        "label": "overallWeight",
        "offset": 16,
        "slot": "151",
        "type": "t_uint64"
      },
      {
        "astId": 1688,
        "contract": "contracts/MoonbeamSlpx.sol:MoonbeamSlpx",
        "label": "feeAmount",
        "offset": 0,
        "slot": "152",
        "type": "t_uint256"
      },
      {
        "astId": 1690,
        "contract": "contracts/MoonbeamSlpx.sol:MoonbeamSlpx",
        "label": "BNCAddress",
        "offset": 0,
        "slot": "153",
        "type": "t_address"
      },
      {
        "astId": 1692,
        "contract": "contracts/MoonbeamSlpx.sol:MoonbeamSlpx",
        "label": "bifrostParaId",
        "offset": 20,
        "slot": "153",
        "type": "t_uint32"
      },
      {
        "astId": 1694,
        "contract": "contracts/MoonbeamSlpx.sol:MoonbeamSlpx",
        "label": "nativeCurrencyId",
        "offset": 24,
        "slot": "153",
        "type": "t_bytes2"
      },
      {
        "astId": 1697,
        "contract": "contracts/MoonbeamSlpx.sol:MoonbeamSlpx",
        "label": "xcmTransactorDestination",
        "offset": 0,
        "slot": "154",
        "type": "t_struct(Multilocation)2805_storage"
      },
      {
        "astId": 1701,
        "contract": "contracts/MoonbeamSlpx.sol:MoonbeamSlpx",
        "label": "assetAddressToCurrencyId",
        "offset": 0,
        "slot": "156",
        "type": "t_mapping(t_address,t_bytes2)"
      },
      {
        "astId": 1705,
        "contract": "contracts/MoonbeamSlpx.sol:MoonbeamSlpx",
        "label": "assetAddressToMinimumValue",
        "offset": 0,
        "slot": "157",
        "type": "t_mapping(t_address,t_uint256)"
      }
    ],
    "types": {
      "t_address": {
        "encoding": "inplace",
        "label": "address",
        "numberOfBytes": "20"
      },
      "t_array(t_bytes_storage)dyn_storage": {
        "base": "t_bytes_storage",
        "encoding": "dynamic_array",
        "label": "bytes[]",
        "numberOfBytes": "32"
      },
      "t_array(t_uint256)49_storage": {
        "base": "t_uint256",
        "encoding": "inplace",
        "label": "uint256[49]",
        "numberOfBytes": "1568"
      },
      "t_array(t_uint256)50_storage": {
        "base": "t_uint256",
        "encoding": "inplace",
        "label": "uint256[50]",
        "numberOfBytes": "1600"
      },
      "t_bool": {
        "encoding": "inplace",
        "label": "bool",
        "numberOfBytes": "1"
      },
      "t_bytes2": {
        "encoding": "inplace",
        "label": "bytes2",
        "numberOfBytes": "2"
      },
      "t_bytes_storage": {
        "encoding": "bytes",
        "label": "bytes",
        "numberOfBytes": "32"
      },
      "t_mapping(t_address,t_bytes2)": {
        "encoding": "mapping",
        "key": "t_address",
        "label": "mapping(address => bytes2)",
        "numberOfBytes": "32",
        "value": "t_bytes2"
      },
      "t_mapping(t_address,t_uint256)": {
        "encoding": "mapping",
        "key": "t_address",
        "label": "mapping(address => uint256)",
        "numberOfBytes": "32",
        "value": "t_uint256"
      },
      "t_struct(Multilocation)2805_storage": {
        "encoding": "inplace",
        "label": "struct XcmTransactorV2.Multilocation",
        "members": [
          {
            "astId": 2801,
            "contract": "contracts/MoonbeamSlpx.sol:MoonbeamSlpx",
            "label": "parents",
            "offset": 0,
            "slot": "0",
            "type": "t_uint8"
          },
          {
            "astId": 2804,
            "contract": "contracts/MoonbeamSlpx.sol:MoonbeamSlpx",
            "label": "interior",
            "offset": 0,
            "slot": "1",
            "type": "t_array(t_bytes_storage)dyn_storage"
          }
        ],
        "numberOfBytes": "64"
      },
      "t_uint256": {
        "encoding": "inplace",
        "label": "uint256",
        "numberOfBytes": "32"
      },
      "t_uint32": {
        "encoding": "inplace",
        "label": "uint32",
        "numberOfBytes": "4"
      },
      "t_uint64": {
        "encoding": "inplace",
        "label": "uint64",
        "numberOfBytes": "8"
      },
      "t_uint8": {
        "encoding": "inplace",
        "label": "uint8",
        "numberOfBytes": "1"
      }
    }
  }
}