{
  "address": "0x50DaF90fc4570dF816e6A85a066fd0D375f209C0",
  "abi": [
    {
      "anonymous": false,
      "inputs": [
        {
          "indexed": false,
          "internalType": "uint8",
          "name": "version",
          "type": "uint8"
        }
      ],
      "name": "Initialized",
      "type": "event"
    },
    {
      "anonymous": false,
      "inputs": [
        {
          "indexed": false,
          "internalType": "address",
          "name": "minter",
          "type": "address"
        },
        {
          "indexed": false,
          "internalType": "address",
          "name": "assetAddress",
          "type": "address"
        },
        {
          "indexed": false,
          "internalType": "uint256",
          "name": "amount",
          "type": "uint256"
        },
        {
          "indexed": false,
          "internalType": "bytes",
          "name": "callcode",
          "type": "bytes"
        }
      ],
      "name": "Mint",
      "type": "event"
    },
    {
      "anonymous": false,
      "inputs": [
        {
          "indexed": true,
          "internalType": "address",
          "name": "previousOwner",
          "type": "address"
        },
        {
          "indexed": true,
          "internalType": "address",
          "name": "newOwner",
          "type": "address"
        }
      ],
      "name": "OwnershipTransferred",
      "type": "event"
    },
    {
      "anonymous": false,
      "inputs": [
        {
          "indexed": false,
          "internalType": "address",
          "name": "account",
          "type": "address"
        }
      ],
      "name": "Paused",
      "type": "event"
    },
    {
      "anonymous": false,
      "inputs": [
        {
          "indexed": false,
          "internalType": "address",
          "name": "redeemer",
          "type": "address"
        },
        {
          "indexed": false,
          "internalType": "address",
          "name": "assetAddress",
          "type": "address"
        },
        {
          "indexed": false,
          "internalType": "uint256",
          "name": "amount",
          "type": "uint256"
        },
        {
          "indexed": false,
          "internalType": "bytes",
          "name": "callcode",
          "type": "bytes"
        }
      ],
      "name": "Redeem",
      "type": "event"
    },
    {
      "anonymous": false,
      "inputs": [
        {
          "indexed": false,
          "internalType": "address",
          "name": "swapper",
          "type": "address"
        },
        {
          "indexed": false,
          "internalType": "address",
          "name": "assetInAddress",
          "type": "address"
        },
        {
          "indexed": false,
          "internalType": "address",
          "name": "assetOutAddress",
          "type": "address"
        },
        {
          "indexed": false,
          "internalType": "uint256",
          "name": "assetInAmount",
          "type": "uint256"
        },
        {
          "indexed": false,
          "internalType": "uint128",
          "name": "assetOutMin",
          "type": "uint128"
        },
        {
          "indexed": false,
          "internalType": "bytes",
          "name": "callcode",
          "type": "bytes"
        }
      ],
      "name": "Swap",
      "type": "event"
    },
    {
      "anonymous": false,
      "inputs": [
        {
          "indexed": false,
          "internalType": "address",
          "name": "account",
          "type": "address"
        }
      ],
      "name": "Unpaused",
      "type": "event"
    },
    {
      "inputs": [],
      "name": "BNCAddress",
      "outputs": [
        {
          "internalType": "address",
          "name": "",
          "type": "address"
        }
      ],
      "stateMutability": "view",
      "type": "function"
    },
    {
      "inputs": [],
      "name": "NATIVE_ASSET_ADDRESS",
      "outputs": [
        {
          "internalType": "address",
          "name": "",
          "type": "address"
        }
      ],
      "stateMutability": "view",
      "type": "function"
    },
    {
      "inputs": [],
      "name": "TARGETCHAIN",
      "outputs": [
        {
          "internalType": "bytes1",
          "name": "",
          "type": "bytes1"
        }
      ],
      "stateMutability": "view",
      "type": "function"
    },
    {
      "inputs": [],
      "name": "XCM_TRANSACTORV2_ADDRESS",
      "outputs": [
        {
          "internalType": "address",
          "name": "",
          "type": "address"
        }
      ],
      "stateMutability": "view",
      "type": "function"
    },
    {
      "inputs": [],
      "name": "XTOKENS",
      "outputs": [
        {
          "internalType": "address",
          "name": "",
          "type": "address"
        }
      ],
      "stateMutability": "view",
      "type": "function"
    },
    {
      "inputs": [
        {
          "internalType": "address",
          "name": "",
          "type": "address"
        }
      ],
      "name": "assetAddressToCurrencyId",
      "outputs": [
        {
          "internalType": "bytes2",
          "name": "",
          "type": "bytes2"
        }
      ],
      "stateMutability": "view",
      "type": "function"
    },
    {
      "inputs": [
        {
          "internalType": "address",
          "name": "",
          "type": "address"
        }
      ],
      "name": "assetAddressToMinimumValue",
      "outputs": [
        {
          "internalType": "uint256",
          "name": "",
          "type": "uint256"
        }
      ],
      "stateMutability": "view",
      "type": "function"
    },
    {
      "inputs": [],
      "name": "bifrostParaId",
      "outputs": [
        {
          "internalType": "uint32",
          "name": "",
          "type": "uint32"
        }
      ],
      "stateMutability": "view",
      "type": "function"
    },
    {
      "inputs": [],
      "name": "feeAmount",
      "outputs": [
        {
          "internalType": "uint256",
          "name": "",
          "type": "uint256"
        }
      ],
      "stateMutability": "view",
      "type": "function"
    },
    {
      "inputs": [
        {
          "internalType": "address",
          "name": "_BNCAddress",
          "type": "address"
        },
        {
          "internalType": "uint32",
          "name": "_bifrostParaId",
          "type": "uint32"
        },
        {
          "internalType": "bytes2",
          "name": "_nativeCurrencyId",
          "type": "bytes2"
        }
      ],
      "name": "initialize",
      "outputs": [],
      "stateMutability": "nonpayable",
      "type": "function"
    },
    {
      "inputs": [
        {
          "internalType": "address",
          "name": "assetAddress",
          "type": "address"
        },
        {
          "internalType": "uint256",
          "name": "amount",
          "type": "uint256"
        }
      ],
      "name": "mintVAsset",
      "outputs": [],
      "stateMutability": "nonpayable",
      "type": "function"
    },
    {
      "inputs": [],
      "name": "mintVNativeAsset",
      "outputs": [],
      "stateMutability": "payable",
      "type": "function"
    },
    {
      "inputs": [],
      "name": "nativeCurrencyId",
      "outputs": [
        {
          "internalType": "bytes2",
          "name": "",
          "type": "bytes2"
        }
      ],
      "stateMutability": "view",
      "type": "function"
    },
    {
      "inputs": [],
      "name": "overallWeight",
      "outputs": [
        {
          "internalType": "uint64",
          "name": "",
          "type": "uint64"
        }
      ],
      "stateMutability": "view",
      "type": "function"
    },
    {
      "inputs": [],
      "name": "owner",
      "outputs": [
        {
          "internalType": "address",
          "name": "",
          "type": "address"
        }
      ],
      "stateMutability": "view",
      "type": "function"
    },
    {
      "inputs": [],
      "name": "pause",
      "outputs": [],
      "stateMutability": "nonpayable",
      "type": "function"
    },
    {
      "inputs": [],
      "name": "paused",
      "outputs": [
        {
          "internalType": "bool",
          "name": "",
          "type": "bool"
        }
      ],
      "stateMutability": "view",
      "type": "function"
    },
    {
      "inputs": [
        {
          "internalType": "address",
          "name": "vAssetAddress",
          "type": "address"
        },
        {
          "internalType": "uint256",
          "name": "amount",
          "type": "uint256"
        }
      ],
      "name": "redeemAsset",
      "outputs": [],
      "stateMutability": "nonpayable",
      "type": "function"
    },
    {
      "inputs": [],
      "name": "renounceOwnership",
      "outputs": [],
      "stateMutability": "nonpayable",
      "type": "function"
    },
    {
      "inputs": [
        {
          "internalType": "address",
          "name": "assetAddress",
          "type": "address"
        },
        {
          "internalType": "uint256",
          "name": "minimumValue",
          "type": "uint256"
        },
        {
          "internalType": "bytes2",
          "name": "currencyId",
          "type": "bytes2"
        }
      ],
      "name": "setAssetAddressInfo",
      "outputs": [],
      "stateMutability": "nonpayable",
      "type": "function"
    },
    {
      "inputs": [
        {
          "internalType": "uint64",
          "name": "_xtokenWeight",
          "type": "uint64"
        },
        {
          "internalType": "uint64",
          "name": "_transactRequiredWeightAtMost",
          "type": "uint64"
        },
        {
          "internalType": "uint64",
          "name": "_overallWeight",
          "type": "uint64"
        },
        {
          "internalType": "uint256",
          "name": "_feeAmount",
          "type": "uint256"
        }
      ],
      "name": "setFee",
      "outputs": [],
      "stateMutability": "nonpayable",
      "type": "function"
    },
    {
      "inputs": [
        {
          "internalType": "address",
          "name": "assetInAddress",
          "type": "address"
        },
        {
          "internalType": "address",
          "name": "assetOutAddress",
          "type": "address"
        },
        {
          "internalType": "uint256",
          "name": "assetInAmount",
          "type": "uint256"
        },
        {
          "internalType": "uint128",
          "name": "assetOutMin",
          "type": "uint128"
        }
      ],
      "name": "swapAssetsForExactAssets",
      "outputs": [],
      "stateMutability": "nonpayable",
      "type": "function"
    },
    {
      "inputs": [
        {
          "internalType": "address",
          "name": "assetInAddress",
          "type": "address"
        },
        {
          "internalType": "uint256",
          "name": "assetInAmount",
          "type": "uint256"
        },
        {
          "internalType": "uint128",
          "name": "assetOutMin",
          "type": "uint128"
        }
      ],
      "name": "swapAssetsForExactNativeAssets",
      "outputs": [],
      "stateMutability": "nonpayable",
      "type": "function"
    },
    {
      "inputs": [
        {
          "internalType": "address",
          "name": "assetOutAddress",
          "type": "address"
        },
        {
          "internalType": "uint128",
          "name": "assetOutMin",
          "type": "uint128"
        }
      ],
      "name": "swapNativeAssetsForExactAssets",
      "outputs": [],
      "stateMutability": "payable",
      "type": "function"
    },
    {
      "inputs": [],
      "name": "transactRequiredWeightAtMost",
      "outputs": [
        {
          "internalType": "uint64",
          "name": "",
          "type": "uint64"
        }
      ],
      "stateMutability": "view",
      "type": "function"
    },
    {
      "inputs": [
        {
          "internalType": "address",
          "name": "newOwner",
          "type": "address"
        }
      ],
      "name": "transferOwnership",
      "outputs": [],
      "stateMutability": "nonpayable",
      "type": "function"
    },
    {
      "inputs": [],
      "name": "unpause",
      "outputs": [],
      "stateMutability": "nonpayable",
      "type": "function"
    },
    {
      "inputs": [],
      "name": "xcmTransactorDestination",
      "outputs": [
        {
          "internalType": "uint8",
          "name": "parents",
          "type": "uint8"
        }
      ],
      "stateMutability": "view",
      "type": "function"
    },
    {
      "inputs": [],
      "name": "xtokenWeight",
      "outputs": [
        {
          "internalType": "uint64",
          "name": "",
          "type": "uint64"
        }
      ],
      "stateMutability": "view",
      "type": "function"
    }
  ],
  "transactionHash": "0x6c6885d85aca82fac825aab66c952fd79cb9c4de36cf67e1f2f96dd073450070",
  "args": [],
  "numDeployments": 1,
  "solcInputHash": "7d3d40590162c17cf0cbd73fca48ee0c",
  "bytecode": "0x608060405234801561001057600080fd5b50612829806100206000396000f3fe6080604052600436106101c25760003560e01c80638456cb59116100f7578063b2a1150511610095578063e284db6611610064578063e284db6614610551578063eddc8b9114610564578063ef70a0671461057a578063f2fde38b1461059a57600080fd5b8063b2a11505146104b1578063c86093a8146104d1578063d7c274c01461050a578063de62305f1461052057600080fd5b80639097c25d116100d15780639097c25d1461042a57806394cb2e491461044a578063a11b003714610471578063adfc7c161461049157600080fd5b80638456cb59146103e15780638a6fa437146103f65780638da5cb5b1461040c57600080fd5b80634eb82d9f1161016457806369e154041161013e57806369e154041461038e5780636deea29c146103a45780636ef67f7f146103c4578063715018a6146103cc57600080fd5b80634eb82d9f1461031f5780635bbfef451461034b5780635c975abb1461036b57600080fd5b80633c75045e116101a05780633c75045e146102795780633d587204146102a95780633f4ba83a146102e85780634acedccb146102ff57600080fd5b80631aa51037146101c75780632ac7343d14610207578063374f00ff14610241575b600080fd5b3480156101d357600080fd5b506101f46101e23660046120b2565b609d6020526000908152604090205481565b6040519081526020015b60405180910390f35b34801561021357600080fd5b5060995461022890600160c01b900460f01b81565b6040516001600160f01b031990911681526020016101fe565b34801561024d57600080fd5b50609954610261906001600160a01b031681565b6040516001600160a01b0390911681526020016101fe565b34801561028557600080fd5b506102286102943660046120b2565b609c6020526000908152604090205460f01b81565b3480156102b557600080fd5b506097546102d090600160801b90046001600160401b031681565b6040516001600160401b0390911681526020016101fe565b3480156102f457600080fd5b506102fd6105ba565b005b34801561030b57600080fd5b506102fd61031a3660046120eb565b6105cc565b34801561032b57600080fd5b50609a546103399060ff1681565b60405160ff90911681526020016101fe565b34801561035757600080fd5b506102fd61036636600461214e565b61079f565b34801561037757600080fd5b5060655460ff1660405190151581526020016101fe565b34801561039a57600080fd5b506101f460985481565b3480156103b057600080fd5b506102fd6103bf36600461219c565b610b00565b6102fd610cd2565b3480156103d857600080fd5b506102fd610e51565b3480156103ed57600080fd5b506102fd610e63565b34801561040257600080fd5b5061026161080281565b34801561041857600080fd5b506033546001600160a01b0316610261565b34801561043657600080fd5b506102fd6104453660046121dd565b610e73565b34801561045657600080fd5b506097546102d090600160401b90046001600160401b031681565b34801561047d57600080fd5b506097546102d0906001600160401b031681565b34801561049d57600080fd5b506102fd6104ac36600461222a565b61107b565b3480156104bd57600080fd5b506102fd6104cc36600461225d565b611174565b3480156104dd57600080fd5b506099546104f590600160a01b900463ffffffff1681565b60405163ffffffff90911681526020016101fe565b34801561051657600080fd5b5061026161080481565b34801561052c57600080fd5b50610538600160f81b81565b6040516001600160f81b031990911681526020016101fe565b6102fd61055f366004612290565b611366565b34801561057057600080fd5b5061026161080d81565b34801561058657600080fd5b506102fd61059536600461219c565b611548565b3480156105a657600080fd5b506102fd6105b53660046120b2565b6116df565b6105c2611758565b6105ca6117b2565b565b6105d4611758565b6402540be400846001600160401b031611156106305760405162461bcd60e51b815260206004820152601660248201527578746f6b656e57656967687420746f6f206c6172676560501b60448201526064015b60405180910390fd5b6402540be400836001600160401b0316111561069d5760405162461bcd60e51b815260206004820152602660248201527f7472616e73616374526571756972656457656967687441744d6f737420746f6f604482015265206c6172676560d01b6064820152608401610627565b6402540be400826001600160401b031611156106fb5760405162461bcd60e51b815260206004820152601760248201527f4f766572616c6c57656967687420746f6f206c617267650000000000000000006044820152606401610627565b64e8d4a510008111156107465760405162461bcd60e51b8152602060048201526013602482015272666565416d6f756e7420746f6f206c6172676560681b6044820152606401610627565b609780546001600160401b03938416600160801b0267ffffffffffffffff60801b19958516600160401b026fffffffffffffffffffffffffffffffff199092169690941695909517949094179290921617909155609855565b600054610100900460ff16158080156107bf5750600054600160ff909116105b806107d95750303b1580156107d9575060005460ff166001145b61083c5760405162461bcd60e51b815260206004820152602e60248201527f496e697469616c697a61626c653a20636f6e747261637420697320616c72656160448201526d191e481a5b9a5d1a585b1a5e995960921b6064820152608401610627565b6000805460ff19166001179055801561085f576000805461ff0019166101001790555b610867611804565b61086f611833565b6001600160a01b0384166108b75760405162461bcd60e51b815260206004820152600f60248201526e496e76616c6964206164647265737360881b6044820152606401610627565b8263ffffffff166107d114806108d457508263ffffffff166107ee145b6109185760405162461bcd60e51b8152602060048201526015602482015274125b9d985b1a5908189a599c9bdcdd14185c985259605a1b6044820152606401610627565b61010560f11b6001600160f01b031983161480610943575061080160f01b6001600160f01b03198316145b61098f5760405162461bcd60e51b815260206004820152601860248201527f496e76616c6964206e617469766543757272656e6379496400000000000000006044820152606401610627565b6109aa6402540be400806402540be40064e8d4a510006105cc565b609980546001600160a01b0386166001600160c01b031990911617600160a01b63ffffffff8616021761ffff60c01b1916600160c01b60f085901c0217905560006001604051908082528060200260200182016040528015610a2057816020015b6060815260200190600190039081610a0b5790505b50604051600060208201526001600160e01b031960e087901b16602182015290915060250160405160208183030381529060405281600081518110610a6757610a676122d9565b602090810291909101810191909152604080518082019091526001808252818301849052609a805460ff19169091178155835191929091610aae91609b9190860190611f4d565b50905050508015610afa576000805461ff0019169055604051600181527f7f26b83ff96e1f2b6a682f133852f6798a09c465da95921460cefb3847402498906020015b60405180910390a15b50505050565b610b08611862565b6001600160a01b0382166000908152609c602052604090205460f01b6001600160f01b03198116610b735760405162461bcd60e51b8152602060048201526015602482015274496e76616c6964207641737365744164647265737360581b6044820152606401610627565b610b7d83836118a8565b60405163139bc42560e31b8152600090733311A4609cdD0C7Ce8D2Dfa592BA4aDD23FeC57890639cde212890610bbf9033908690600160f81b906004016122ef565b600060405180830381865af4158015610bdc573d6000803e3d6000fd5b505050506040513d6000823e601f3d908101601f19168201604052610c049190810190612350565b609954609754609854604051635b2479ff60e11b815293945061080d9363b648f3fe93610c6593609a936001600160a01b0392909216926001600160401b03600160401b83048116938a939092600160801b90910490911690600401612463565b600060405180830381600087803b158015610c7f57600080fd5b505af1158015610c93573d6000803e3d6000fd5b505050507f08289580fadd4da935641e6814bb9b5e9fc4cccdedcff6d35124fcb578695745610cbf3390565b858584604051610af194939291906125b9565b610cda611862565b610ce334611b19565b60995460405163d9bee3b360e01b8152600091733311A4609cdD0C7Ce8D2Dfa592BA4aDD23FeC5789163d9bee3b391610d31913391600160c01b900460f01b90600160f81b906004016122ef565b600060405180830381865af4158015610d4e573d6000803e3d6000fd5b505050506040513d6000823e601f3d908101601f19168201604052610d769190810190612350565b609954609754609854604051635b2479ff60e11b815293945061080d9363b648f3fe93610dd793609a936001600160a01b0392909216926001600160401b03600160401b83048116938a939092600160801b90910490911690600401612463565b600060405180830381600087803b158015610df157600080fd5b505af1158015610e05573d6000803e3d6000fd5b505050507f30c99b8e9449992bd7616d2645b02ee0a2b6f229a45d6b56b686963ff0c53497610e313390565b6108023484604051610e4694939291906125b9565b60405180910390a150565b610e59611758565b6105ca6000611d02565b610e6b611758565b6105ca611d54565b610e7b611862565b6001600160a01b038085166000908152609c602052604080822054928616825290205460f091821b911b6001600160f01b0319821615801590610ec757506001600160f01b0319811615155b610f035760405162461bcd60e51b815260206004820152600d60248201526c125b9d985b1a5908185cdcd95d609a1b6044820152606401610627565b610f0d86856118a8565b604051630daf27e360e01b8152600090733311A4609cdD0C7Ce8D2Dfa592BA4aDD23FeC57890630daf27e390610f53903390879087908a90600160f81b906004016125f6565b600060405180830381865af4158015610f70573d6000803e3d6000fd5b505050506040513d6000823e601f3d908101601f19168201604052610f989190810190612350565b609954609754609854604051635b2479ff60e11b815293945061080d9363b648f3fe93610ff993609a936001600160a01b0392909216926001600160401b03600160401b83048116938a939092600160801b90910490911690600401612463565b600060405180830381600087803b15801561101357600080fd5b505af1158015611027573d6000803e3d6000fd5b505050507f9138260f61fa33975c7836d8bc3bd6a90f1af883710740bbf6341e56646070156110533390565b888888888660405161106a96959493929190612643565b60405180910390a150505050505050565b611083611758565b6001600160a01b0383166110a95760405162461bcd60e51b815260040161062790612699565b816110ed5760405162461bcd60e51b8152602060048201526014602482015273496e76616c6964206d696e696d756d56616c756560601b6044820152606401610627565b6001600160f01b031981166111395760405162461bcd60e51b8152602060048201526012602482015271125b9d985b1a590818dd5c9c995b98de525960721b6044820152606401610627565b6001600160a01b03929092166000908152609d6020908152604080832093909355609c905220805461ffff191660f09290921c919091179055565b61117c611862565b6001600160a01b0383166000908152609c602052604090205460f01b6001600160f01b031981166111e15760405162461bcd60e51b815260206004820152600f60248201526e24b73b30b634b21030b9b9b2ba24b760891b6044820152606401610627565b6111eb84846118a8565b609954604051630daf27e360e01b8152600091733311A4609cdD0C7Ce8D2Dfa592BA4aDD23FeC57891630daf27e39161123e9133918791600160c01b90910460f01b908990600160f81b906004016125f6565b600060405180830381865af415801561125b573d6000803e3d6000fd5b505050506040513d6000823e601f3d908101601f191682016040526112839190810190612350565b609954609754609854604051635b2479ff60e11b815293945061080d9363b648f3fe936112e493609a936001600160a01b0392909216926001600160401b03600160401b83048116938a939092600160801b90910490911690600401612463565b600060405180830381600087803b1580156112fe57600080fd5b505af1158015611312573d6000803e3d6000fd5b505050507f9138260f61fa33975c7836d8bc3bd6a90f1af883710740bbf6341e566460701561133e3390565b8661080287878660405161135796959493929190612643565b60405180910390a15050505050565b61136e611862565b6001600160a01b0382166000908152609c602052604090205460f01b6001600160f01b031981166113d45760405162461bcd60e51b815260206004820152601060248201526f125b9d985b1a5908185cdcd95d13dd5d60821b6044820152606401610627565b6113dd34611b19565b609954604051630daf27e360e01b8152600091733311A4609cdD0C7Ce8D2Dfa592BA4aDD23FeC57891630daf27e39161142f913391600160c01b900460f01b9087908990600160f81b906004016125f6565b600060405180830381865af415801561144c573d6000803e3d6000fd5b505050506040513d6000823e601f3d908101601f191682016040526114749190810190612350565b609954609754609854604051635b2479ff60e11b815293945061080d9363b648f3fe936114d593609a936001600160a01b0392909216926001600160401b03600160401b83048116938a939092600160801b90910490911690600401612463565b600060405180830381600087803b1580156114ef57600080fd5b505af1158015611503573d6000803e3d6000fd5b505050507f9138260f61fa33975c7836d8bc3bd6a90f1af883710740bbf6341e566460701561152f3390565b61080286348786604051610af196959493929190612643565b611550611862565b6001600160a01b0382166000908152609c602052604090205460f01b6001600160f01b031981166115935760405162461bcd60e51b815260040161062790612699565b61159d83836118a8565b60405163d9bee3b360e01b8152600090733311A4609cdD0C7Ce8D2Dfa592BA4aDD23FeC5789063d9bee3b3906115df9033908690600160f81b906004016122ef565b600060405180830381865af41580156115fc573d6000803e3d6000fd5b505050506040513d6000823e601f3d908101601f191682016040526116249190810190612350565b609954609754609854604051635b2479ff60e11b815293945061080d9363b648f3fe9361168593609a936001600160a01b0392909216926001600160401b03600160401b83048116938a939092600160801b90910490911690600401612463565b600060405180830381600087803b15801561169f57600080fd5b505af11580156116b3573d6000803e3d6000fd5b505050507f30c99b8e9449992bd7616d2645b02ee0a2b6f229a45d6b56b686963ff0c53497610cbf3390565b6116e7611758565b6001600160a01b03811661174c5760405162461bcd60e51b815260206004820152602660248201527f4f776e61626c653a206e6577206f776e657220697320746865207a65726f206160448201526564647265737360d01b6064820152608401610627565b61175581611d02565b50565b6033546001600160a01b031633146105ca5760405162461bcd60e51b815260206004820181905260248201527f4f776e61626c653a2063616c6c6572206973206e6f7420746865206f776e65726044820152606401610627565b6117ba611d91565b6065805460ff191690557f5db9ee0a495bf2e6ff9c91a7834c1ba4fdd244a5e8aa4e537bd38aeae4b073aa335b6040516001600160a01b03909116815260200160405180910390a1565b600054610100900460ff1661182b5760405162461bcd60e51b8152600401610627906126c7565b6105ca611dda565b600054610100900460ff1661185a5760405162461bcd60e51b8152600401610627906126c7565b6105ca611e0a565b60655460ff16156105ca5760405162461bcd60e51b815260206004820152601060248201526f14185d5cd8589b194e881c185d5cd95960821b6044820152606401610627565b6001600160a01b0382166118ce5760405162461bcd60e51b815260040161062790612699565b6001600160a01b0382166000908152609d602052604090205461192a5760405162461bcd60e51b81526020600482015260146024820152734e6f7420736574204d696e696d756d56616c756560601b6044820152606401610627565b6001600160a01b0382166000908152609d602052604090205481101561198b5760405162461bcd60e51b81526020600482015260166024820152754c657373207468616e204d696e696d756d56616c756560501b6044820152606401610627565b6000738F8F6B104190a4A24CcFf7B4006Ea7A59baeAf816332640a52336040516001600160e01b031960e084901b1681526001600160a01b039091166004820152602401602060405180830381865af41580156119ec573d6000803e3d6000fd5b505050506040513d601f19601f82011682018060405250810190611a109190612712565b90506000611a1d82611e3d565b9050836001600160a01b0381166323b872dd336040516001600160e01b031960e084901b1681526001600160a01b039091166004820152306024820152604481018790526064016020604051808303816000875af1158015611a83573d6000803e3d6000fd5b505050506040513d601f19601f82011682018060405250810190611aa7919061272b565b5060975460405163b9f813ff60e01b81526108049163b9f813ff91611ae0918991899188916001600160401b039091169060040161274d565b600060405180830381600087803b158015611afa57600080fd5b505af1158015611b0e573d6000803e3d6000fd5b505050505050505050565b610802600052609d6020527f382c168b1823bf50cea41570e6d90d63d48929787d842e8f79781a20861398f654611b895760405162461bcd60e51b81526020600482015260146024820152734e6f7420736574204d696e696d756d56616c756560601b6044820152606401610627565b610802600052609d6020527f382c168b1823bf50cea41570e6d90d63d48929787d842e8f79781a20861398f654811015611bfe5760405162461bcd60e51b81526020600482015260166024820152754c657373207468616e204d696e696d756d56616c756560501b6044820152606401610627565b6000738F8F6B104190a4A24CcFf7B4006Ea7A59baeAf816332640a52336040516001600160e01b031960e084901b1681526001600160a01b039091166004820152602401602060405180830381865af4158015611c5f573d6000803e3d6000fd5b505050506040513d601f19601f82011682018060405250810190611c839190612712565b90506000611c9082611e3d565b60975460405163b9f813ff60e01b81529192506108049163b9f813ff91611ccb9161080291889187916001600160401b03169060040161274d565b600060405180830381600087803b158015611ce557600080fd5b505af1158015611cf9573d6000803e3d6000fd5b50505050505050565b603380546001600160a01b038381166001600160a01b0319831681179093556040519116919082907f8be0079c531659141344cd1fd0a4f28419497f9722a3daafe3b4186f6b6457e090600090a35050565b611d5c611862565b6065805460ff191660011790557f62e78cea01bee320cd4e420270b5ea74000d11b0c9f74754ebdbfc544b05a2586117e73390565b60655460ff166105ca5760405162461bcd60e51b815260206004820152601460248201527314185d5cd8589b194e881b9bdd081c185d5cd95960621b6044820152606401610627565b600054610100900460ff16611e015760405162461bcd60e51b8152600401610627906126c7565b6105ca33611d02565b600054610100900460ff16611e315760405162461bcd60e51b8152600401610627906126c7565b6065805460ff19169055565b60408051808201825260008082526060602083018190528351600280825291810190945291929091816020015b6060815260200190600190039081611e6a5790505060995460405160006020820152600160a01b90910460e01b6001600160e01b031916602182015290915060250160405160208183030381529060405281600081518110611ece57611ece6122d9565b602002602001018190525082604051602001611f019190600160f81b815260018101919091526000602182015260220190565b60405160208183030381529060405281600181518110611f2357611f236122d9565b60209081029190910181019190915260408051808201909152600181529081019190915292915050565b828054828255906000526020600020908101928215611f9a579160200282015b82811115611f9a5782518051611f8a918491602090910190611faa565b5091602001919060010190611f6d565b50611fa692915061202a565b5090565b828054611fb6906123fc565b90600052602060002090601f016020900481019282611fd8576000855561201e565b82601f10611ff157805160ff191683800117855561201e565b8280016001018555821561201e579182015b8281111561201e578251825591602001919060010190612003565b50611fa6929150612047565b80821115611fa657600061203e828261205c565b5060010161202a565b5b80821115611fa65760008155600101612048565b508054612068906123fc565b6000825580601f10612078575050565b601f0160209004906000526020600020908101906117559190612047565b80356001600160a01b03811681146120ad57600080fd5b919050565b6000602082840312156120c457600080fd5b6120cd82612096565b9392505050565b80356001600160401b03811681146120ad57600080fd5b6000806000806080858703121561210157600080fd5b61210a856120d4565b9350612118602086016120d4565b9250612126604086016120d4565b9396929550929360600135925050565b80356001600160f01b0319811681146120ad57600080fd5b60008060006060848603121561216357600080fd5b61216c84612096565b9250602084013563ffffffff8116811461218557600080fd5b915061219360408501612136565b90509250925092565b600080604083850312156121af57600080fd5b6121b883612096565b946020939093013593505050565b80356001600160801b03811681146120ad57600080fd5b600080600080608085870312156121f357600080fd5b6121fc85612096565b935061220a60208601612096565b92506040850135915061221f606086016121c6565b905092959194509250565b60008060006060848603121561223f57600080fd5b61224884612096565b92506020840135915061219360408501612136565b60008060006060848603121561227257600080fd5b61227b84612096565b925060208401359150612193604085016121c6565b600080604083850312156122a357600080fd5b6122ac83612096565b91506122ba602084016121c6565b90509250929050565b634e487b7160e01b600052604160045260246000fd5b634e487b7160e01b600052603260045260246000fd5b6001600160a01b039390931683526001600160f01b03199190911660208301526001600160f81b031916604082015260600190565b60005b8381101561233f578181015183820152602001612327565b83811115610afa5750506000910152565b60006020828403121561236257600080fd5b81516001600160401b038082111561237957600080fd5b818401915084601f83011261238d57600080fd5b81518181111561239f5761239f6122c3565b604051601f8201601f19908116603f011681019083821181831017156123c7576123c76122c3565b816040528281528760208487010111156123e057600080fd5b6123f1836020830160208801612324565b979650505050505050565b600181811c9082168061241057607f821691505b6020821081141561243157634e487b7160e01b600052602260045260246000fd5b50919050565b6000815180845261244f816020860160208601612324565b601f01601f19169290920160200192915050565b60c081526000610100820160ff89541660c08401526001808a01604060e086015282815480855261012094508487019150848160051b8801019450600083815260209350838120815b8381101561255f5789880361011f190185528154839080891c898216806124d457607f821691505b8982108114156124f257634e487b7160e01b87526022600452602487fd5b818c5260208c0181801561250d576001811461251e57612548565b60ff19851682528b82019550612548565b600088815260209020895b8581101561254257815484820152908e01908d01612529565b83019650505b50939b5050509587019550509086019086016124ac565b50505050506125788186018b6001600160a01b03169052565b50506001600160401b0387166040840152828103606084015261259b8187612437565b9150508360808301526123f160a08301846001600160401b03169052565b6001600160a01b03858116825284166020820152604081018390526080606082018190526000906125ec90830184612437565b9695505050505050565b6001600160a01b039590951685526001600160f01b031993841660208601529190921660408401526001600160801b0390911660608301526001600160f81b031916608082015260a00190565b6001600160a01b038781168252868116602083015285166040820152606081018490526001600160801b038316608082015260c060a0820181905260009061268d90830184612437565b98975050505050505050565b602080825260149082015273496e76616c69642061737365744164647265737360601b604082015260600190565b6020808252602b908201527f496e697469616c697a61626c653a20636f6e7472616374206973206e6f74206960408201526a6e697469616c697a696e6760a81b606082015260800190565b60006020828403121561272457600080fd5b5051919050565b60006020828403121561273d57600080fd5b815180151581146120cd57600080fd5b60018060a01b03851681526000602085818401526080604084015260c0830160ff865116608085015281860151604060a086015281815180845260e08701915060e08160051b8801019350848301925060005b818110156127ce5760df198886030183526127bc858551612437565b945092850192918501916001016127a0565b5050506001600160401b03861660608601525091506127ea9050565b9594505050505056fea26469706673582212202d6daef2f3ca6bde92b1236564806f17e401171e6fa01d481ffb348b954a646d64736f6c634300080a0033",
  "deployedBytecode": "0x6080604052600436106101c25760003560e01c80638456cb59116100f7578063b2a1150511610095578063e284db6611610064578063e284db6614610551578063eddc8b9114610564578063ef70a0671461057a578063f2fde38b1461059a57600080fd5b8063b2a11505146104b1578063c86093a8146104d1578063d7c274c01461050a578063de62305f1461052057600080fd5b80639097c25d116100d15780639097c25d1461042a57806394cb2e491461044a578063a11b003714610471578063adfc7c161461049157600080fd5b80638456cb59146103e15780638a6fa437146103f65780638da5cb5b1461040c57600080fd5b80634eb82d9f1161016457806369e154041161013e57806369e154041461038e5780636deea29c146103a45780636ef67f7f146103c4578063715018a6146103cc57600080fd5b80634eb82d9f1461031f5780635bbfef451461034b5780635c975abb1461036b57600080fd5b80633c75045e116101a05780633c75045e146102795780633d587204146102a95780633f4ba83a146102e85780634acedccb146102ff57600080fd5b80631aa51037146101c75780632ac7343d14610207578063374f00ff14610241575b600080fd5b3480156101d357600080fd5b506101f46101e23660046120b2565b609d6020526000908152604090205481565b6040519081526020015b60405180910390f35b34801561021357600080fd5b5060995461022890600160c01b900460f01b81565b6040516001600160f01b031990911681526020016101fe565b34801561024d57600080fd5b50609954610261906001600160a01b031681565b6040516001600160a01b0390911681526020016101fe565b34801561028557600080fd5b506102286102943660046120b2565b609c6020526000908152604090205460f01b81565b3480156102b557600080fd5b506097546102d090600160801b90046001600160401b031681565b6040516001600160401b0390911681526020016101fe565b3480156102f457600080fd5b506102fd6105ba565b005b34801561030b57600080fd5b506102fd61031a3660046120eb565b6105cc565b34801561032b57600080fd5b50609a546103399060ff1681565b60405160ff90911681526020016101fe565b34801561035757600080fd5b506102fd61036636600461214e565b61079f565b34801561037757600080fd5b5060655460ff1660405190151581526020016101fe565b34801561039a57600080fd5b506101f460985481565b3480156103b057600080fd5b506102fd6103bf36600461219c565b610b00565b6102fd610cd2565b3480156103d857600080fd5b506102fd610e51565b3480156103ed57600080fd5b506102fd610e63565b34801561040257600080fd5b5061026161080281565b34801561041857600080fd5b506033546001600160a01b0316610261565b34801561043657600080fd5b506102fd6104453660046121dd565b610e73565b34801561045657600080fd5b506097546102d090600160401b90046001600160401b031681565b34801561047d57600080fd5b506097546102d0906001600160401b031681565b34801561049d57600080fd5b506102fd6104ac36600461222a565b61107b565b3480156104bd57600080fd5b506102fd6104cc36600461225d565b611174565b3480156104dd57600080fd5b506099546104f590600160a01b900463ffffffff1681565b60405163ffffffff90911681526020016101fe565b34801561051657600080fd5b5061026161080481565b34801561052c57600080fd5b50610538600160f81b81565b6040516001600160f81b031990911681526020016101fe565b6102fd61055f366004612290565b611366565b34801561057057600080fd5b5061026161080d81565b34801561058657600080fd5b506102fd61059536600461219c565b611548565b3480156105a657600080fd5b506102fd6105b53660046120b2565b6116df565b6105c2611758565b6105ca6117b2565b565b6105d4611758565b6402540be400846001600160401b031611156106305760405162461bcd60e51b815260206004820152601660248201527578746f6b656e57656967687420746f6f206c6172676560501b60448201526064015b60405180910390fd5b6402540be400836001600160401b0316111561069d5760405162461bcd60e51b815260206004820152602660248201527f7472616e73616374526571756972656457656967687441744d6f737420746f6f604482015265206c6172676560d01b6064820152608401610627565b6402540be400826001600160401b031611156106fb5760405162461bcd60e51b815260206004820152601760248201527f4f766572616c6c57656967687420746f6f206c617267650000000000000000006044820152606401610627565b64e8d4a510008111156107465760405162461bcd60e51b8152602060048201526013602482015272666565416d6f756e7420746f6f206c6172676560681b6044820152606401610627565b609780546001600160401b03938416600160801b0267ffffffffffffffff60801b19958516600160401b026fffffffffffffffffffffffffffffffff199092169690941695909517949094179290921617909155609855565b600054610100900460ff16158080156107bf5750600054600160ff909116105b806107d95750303b1580156107d9575060005460ff166001145b61083c5760405162461bcd60e51b815260206004820152602e60248201527f496e697469616c697a61626c653a20636f6e747261637420697320616c72656160448201526d191e481a5b9a5d1a585b1a5e995960921b6064820152608401610627565b6000805460ff19166001179055801561085f576000805461ff0019166101001790555b610867611804565b61086f611833565b6001600160a01b0384166108b75760405162461bcd60e51b815260206004820152600f60248201526e496e76616c6964206164647265737360881b6044820152606401610627565b8263ffffffff166107d114806108d457508263ffffffff166107ee145b6109185760405162461bcd60e51b8152602060048201526015602482015274125b9d985b1a5908189a599c9bdcdd14185c985259605a1b6044820152606401610627565b61010560f11b6001600160f01b031983161480610943575061080160f01b6001600160f01b03198316145b61098f5760405162461bcd60e51b815260206004820152601860248201527f496e76616c6964206e617469766543757272656e6379496400000000000000006044820152606401610627565b6109aa6402540be400806402540be40064e8d4a510006105cc565b609980546001600160a01b0386166001600160c01b031990911617600160a01b63ffffffff8616021761ffff60c01b1916600160c01b60f085901c0217905560006001604051908082528060200260200182016040528015610a2057816020015b6060815260200190600190039081610a0b5790505b50604051600060208201526001600160e01b031960e087901b16602182015290915060250160405160208183030381529060405281600081518110610a6757610a676122d9565b602090810291909101810191909152604080518082019091526001808252818301849052609a805460ff19169091178155835191929091610aae91609b9190860190611f4d565b50905050508015610afa576000805461ff0019169055604051600181527f7f26b83ff96e1f2b6a682f133852f6798a09c465da95921460cefb3847402498906020015b60405180910390a15b50505050565b610b08611862565b6001600160a01b0382166000908152609c602052604090205460f01b6001600160f01b03198116610b735760405162461bcd60e51b8152602060048201526015602482015274496e76616c6964207641737365744164647265737360581b6044820152606401610627565b610b7d83836118a8565b60405163139bc42560e31b815260009073__$e184f4046250cd750dfdb139628ab13bdc$__90639cde212890610bbf9033908690600160f81b906004016122ef565b600060405180830381865af4158015610bdc573d6000803e3d6000fd5b505050506040513d6000823e601f3d908101601f19168201604052610c049190810190612350565b609954609754609854604051635b2479ff60e11b815293945061080d9363b648f3fe93610c6593609a936001600160a01b0392909216926001600160401b03600160401b83048116938a939092600160801b90910490911690600401612463565b600060405180830381600087803b158015610c7f57600080fd5b505af1158015610c93573d6000803e3d6000fd5b505050507f08289580fadd4da935641e6814bb9b5e9fc4cccdedcff6d35124fcb578695745610cbf3390565b858584604051610af194939291906125b9565b610cda611862565b610ce334611b19565b60995460405163d9bee3b360e01b815260009173__$e184f4046250cd750dfdb139628ab13bdc$__9163d9bee3b391610d31913391600160c01b900460f01b90600160f81b906004016122ef565b600060405180830381865af4158015610d4e573d6000803e3d6000fd5b505050506040513d6000823e601f3d908101601f19168201604052610d769190810190612350565b609954609754609854604051635b2479ff60e11b815293945061080d9363b648f3fe93610dd793609a936001600160a01b0392909216926001600160401b03600160401b83048116938a939092600160801b90910490911690600401612463565b600060405180830381600087803b158015610df157600080fd5b505af1158015610e05573d6000803e3d6000fd5b505050507f30c99b8e9449992bd7616d2645b02ee0a2b6f229a45d6b56b686963ff0c53497610e313390565b6108023484604051610e4694939291906125b9565b60405180910390a150565b610e59611758565b6105ca6000611d02565b610e6b611758565b6105ca611d54565b610e7b611862565b6001600160a01b038085166000908152609c602052604080822054928616825290205460f091821b911b6001600160f01b0319821615801590610ec757506001600160f01b0319811615155b610f035760405162461bcd60e51b815260206004820152600d60248201526c125b9d985b1a5908185cdcd95d609a1b6044820152606401610627565b610f0d86856118a8565b604051630daf27e360e01b815260009073__$e184f4046250cd750dfdb139628ab13bdc$__90630daf27e390610f53903390879087908a90600160f81b906004016125f6565b600060405180830381865af4158015610f70573d6000803e3d6000fd5b505050506040513d6000823e601f3d908101601f19168201604052610f989190810190612350565b609954609754609854604051635b2479ff60e11b815293945061080d9363b648f3fe93610ff993609a936001600160a01b0392909216926001600160401b03600160401b83048116938a939092600160801b90910490911690600401612463565b600060405180830381600087803b15801561101357600080fd5b505af1158015611027573d6000803e3d6000fd5b505050507f9138260f61fa33975c7836d8bc3bd6a90f1af883710740bbf6341e56646070156110533390565b888888888660405161106a96959493929190612643565b60405180910390a150505050505050565b611083611758565b6001600160a01b0383166110a95760405162461bcd60e51b815260040161062790612699565b816110ed5760405162461bcd60e51b8152602060048201526014602482015273496e76616c6964206d696e696d756d56616c756560601b6044820152606401610627565b6001600160f01b031981166111395760405162461bcd60e51b8152602060048201526012602482015271125b9d985b1a590818dd5c9c995b98de525960721b6044820152606401610627565b6001600160a01b03929092166000908152609d6020908152604080832093909355609c905220805461ffff191660f09290921c919091179055565b61117c611862565b6001600160a01b0383166000908152609c602052604090205460f01b6001600160f01b031981166111e15760405162461bcd60e51b815260206004820152600f60248201526e24b73b30b634b21030b9b9b2ba24b760891b6044820152606401610627565b6111eb84846118a8565b609954604051630daf27e360e01b815260009173__$e184f4046250cd750dfdb139628ab13bdc$__91630daf27e39161123e9133918791600160c01b90910460f01b908990600160f81b906004016125f6565b600060405180830381865af415801561125b573d6000803e3d6000fd5b505050506040513d6000823e601f3d908101601f191682016040526112839190810190612350565b609954609754609854604051635b2479ff60e11b815293945061080d9363b648f3fe936112e493609a936001600160a01b0392909216926001600160401b03600160401b83048116938a939092600160801b90910490911690600401612463565b600060405180830381600087803b1580156112fe57600080fd5b505af1158015611312573d6000803e3d6000fd5b505050507f9138260f61fa33975c7836d8bc3bd6a90f1af883710740bbf6341e566460701561133e3390565b8661080287878660405161135796959493929190612643565b60405180910390a15050505050565b61136e611862565b6001600160a01b0382166000908152609c602052604090205460f01b6001600160f01b031981166113d45760405162461bcd60e51b815260206004820152601060248201526f125b9d985b1a5908185cdcd95d13dd5d60821b6044820152606401610627565b6113dd34611b19565b609954604051630daf27e360e01b815260009173__$e184f4046250cd750dfdb139628ab13bdc$__91630daf27e39161142f913391600160c01b900460f01b9087908990600160f81b906004016125f6565b600060405180830381865af415801561144c573d6000803e3d6000fd5b505050506040513d6000823e601f3d908101601f191682016040526114749190810190612350565b609954609754609854604051635b2479ff60e11b815293945061080d9363b648f3fe936114d593609a936001600160a01b0392909216926001600160401b03600160401b83048116938a939092600160801b90910490911690600401612463565b600060405180830381600087803b1580156114ef57600080fd5b505af1158015611503573d6000803e3d6000fd5b505050507f9138260f61fa33975c7836d8bc3bd6a90f1af883710740bbf6341e566460701561152f3390565b61080286348786604051610af196959493929190612643565b611550611862565b6001600160a01b0382166000908152609c602052604090205460f01b6001600160f01b031981166115935760405162461bcd60e51b815260040161062790612699565b61159d83836118a8565b60405163d9bee3b360e01b815260009073__$e184f4046250cd750dfdb139628ab13bdc$__9063d9bee3b3906115df9033908690600160f81b906004016122ef565b600060405180830381865af41580156115fc573d6000803e3d6000fd5b505050506040513d6000823e601f3d908101601f191682016040526116249190810190612350565b609954609754609854604051635b2479ff60e11b815293945061080d9363b648f3fe9361168593609a936001600160a01b0392909216926001600160401b03600160401b83048116938a939092600160801b90910490911690600401612463565b600060405180830381600087803b15801561169f57600080fd5b505af11580156116b3573d6000803e3d6000fd5b505050507f30c99b8e9449992bd7616d2645b02ee0a2b6f229a45d6b56b686963ff0c53497610cbf3390565b6116e7611758565b6001600160a01b03811661174c5760405162461bcd60e51b815260206004820152602660248201527f4f776e61626c653a206e6577206f776e657220697320746865207a65726f206160448201526564647265737360d01b6064820152608401610627565b61175581611d02565b50565b6033546001600160a01b031633146105ca5760405162461bcd60e51b815260206004820181905260248201527f4f776e61626c653a2063616c6c6572206973206e6f7420746865206f776e65726044820152606401610627565b6117ba611d91565b6065805460ff191690557f5db9ee0a495bf2e6ff9c91a7834c1ba4fdd244a5e8aa4e537bd38aeae4b073aa335b6040516001600160a01b03909116815260200160405180910390a1565b600054610100900460ff1661182b5760405162461bcd60e51b8152600401610627906126c7565b6105ca611dda565b600054610100900460ff1661185a5760405162461bcd60e51b8152600401610627906126c7565b6105ca611e0a565b60655460ff16156105ca5760405162461bcd60e51b815260206004820152601060248201526f14185d5cd8589b194e881c185d5cd95960821b6044820152606401610627565b6001600160a01b0382166118ce5760405162461bcd60e51b815260040161062790612699565b6001600160a01b0382166000908152609d602052604090205461192a5760405162461bcd60e51b81526020600482015260146024820152734e6f7420736574204d696e696d756d56616c756560601b6044820152606401610627565b6001600160a01b0382166000908152609d602052604090205481101561198b5760405162461bcd60e51b81526020600482015260166024820152754c657373207468616e204d696e696d756d56616c756560501b6044820152606401610627565b600073__$ddfb0e6c1c4d05795fcce73a90830b0995$__6332640a52336040516001600160e01b031960e084901b1681526001600160a01b039091166004820152602401602060405180830381865af41580156119ec573d6000803e3d6000fd5b505050506040513d601f19601f82011682018060405250810190611a109190612712565b90506000611a1d82611e3d565b9050836001600160a01b0381166323b872dd336040516001600160e01b031960e084901b1681526001600160a01b039091166004820152306024820152604481018790526064016020604051808303816000875af1158015611a83573d6000803e3d6000fd5b505050506040513d601f19601f82011682018060405250810190611aa7919061272b565b5060975460405163b9f813ff60e01b81526108049163b9f813ff91611ae0918991899188916001600160401b039091169060040161274d565b600060405180830381600087803b158015611afa57600080fd5b505af1158015611b0e573d6000803e3d6000fd5b505050505050505050565b610802600052609d6020527f382c168b1823bf50cea41570e6d90d63d48929787d842e8f79781a20861398f654611b895760405162461bcd60e51b81526020600482015260146024820152734e6f7420736574204d696e696d756d56616c756560601b6044820152606401610627565b610802600052609d6020527f382c168b1823bf50cea41570e6d90d63d48929787d842e8f79781a20861398f654811015611bfe5760405162461bcd60e51b81526020600482015260166024820152754c657373207468616e204d696e696d756d56616c756560501b6044820152606401610627565b600073__$ddfb0e6c1c4d05795fcce73a90830b0995$__6332640a52336040516001600160e01b031960e084901b1681526001600160a01b039091166004820152602401602060405180830381865af4158015611c5f573d6000803e3d6000fd5b505050506040513d601f19601f82011682018060405250810190611c839190612712565b90506000611c9082611e3d565b60975460405163b9f813ff60e01b81529192506108049163b9f813ff91611ccb9161080291889187916001600160401b03169060040161274d565b600060405180830381600087803b158015611ce557600080fd5b505af1158015611cf9573d6000803e3d6000fd5b50505050505050565b603380546001600160a01b038381166001600160a01b0319831681179093556040519116919082907f8be0079c531659141344cd1fd0a4f28419497f9722a3daafe3b4186f6b6457e090600090a35050565b611d5c611862565b6065805460ff191660011790557f62e78cea01bee320cd4e420270b5ea74000d11b0c9f74754ebdbfc544b05a2586117e73390565b60655460ff166105ca5760405162461bcd60e51b815260206004820152601460248201527314185d5cd8589b194e881b9bdd081c185d5cd95960621b6044820152606401610627565b600054610100900460ff16611e015760405162461bcd60e51b8152600401610627906126c7565b6105ca33611d02565b600054610100900460ff16611e315760405162461bcd60e51b8152600401610627906126c7565b6065805460ff19169055565b60408051808201825260008082526060602083018190528351600280825291810190945291929091816020015b6060815260200190600190039081611e6a5790505060995460405160006020820152600160a01b90910460e01b6001600160e01b031916602182015290915060250160405160208183030381529060405281600081518110611ece57611ece6122d9565b602002602001018190525082604051602001611f019190600160f81b815260018101919091526000602182015260220190565b60405160208183030381529060405281600181518110611f2357611f236122d9565b60209081029190910181019190915260408051808201909152600181529081019190915292915050565b828054828255906000526020600020908101928215611f9a579160200282015b82811115611f9a5782518051611f8a918491602090910190611faa565b5091602001919060010190611f6d565b50611fa692915061202a565b5090565b828054611fb6906123fc565b90600052602060002090601f016020900481019282611fd8576000855561201e565b82601f10611ff157805160ff191683800117855561201e565b8280016001018555821561201e579182015b8281111561201e578251825591602001919060010190612003565b50611fa6929150612047565b80821115611fa657600061203e828261205c565b5060010161202a565b5b80821115611fa65760008155600101612048565b508054612068906123fc565b6000825580601f10612078575050565b601f0160209004906000526020600020908101906117559190612047565b80356001600160a01b03811681146120ad57600080fd5b919050565b6000602082840312156120c457600080fd5b6120cd82612096565b9392505050565b80356001600160401b03811681146120ad57600080fd5b6000806000806080858703121561210157600080fd5b61210a856120d4565b9350612118602086016120d4565b9250612126604086016120d4565b9396929550929360600135925050565b80356001600160f01b0319811681146120ad57600080fd5b60008060006060848603121561216357600080fd5b61216c84612096565b9250602084013563ffffffff8116811461218557600080fd5b915061219360408501612136565b90509250925092565b600080604083850312156121af57600080fd5b6121b883612096565b946020939093013593505050565b80356001600160801b03811681146120ad57600080fd5b600080600080608085870312156121f357600080fd5b6121fc85612096565b935061220a60208601612096565b92506040850135915061221f606086016121c6565b905092959194509250565b60008060006060848603121561223f57600080fd5b61224884612096565b92506020840135915061219360408501612136565b60008060006060848603121561227257600080fd5b61227b84612096565b925060208401359150612193604085016121c6565b600080604083850312156122a357600080fd5b6122ac83612096565b91506122ba602084016121c6565b90509250929050565b634e487b7160e01b600052604160045260246000fd5b634e487b7160e01b600052603260045260246000fd5b6001600160a01b039390931683526001600160f01b03199190911660208301526001600160f81b031916604082015260600190565b60005b8381101561233f578181015183820152602001612327565b83811115610afa5750506000910152565b60006020828403121561236257600080fd5b81516001600160401b038082111561237957600080fd5b818401915084601f83011261238d57600080fd5b81518181111561239f5761239f6122c3565b604051601f8201601f19908116603f011681019083821181831017156123c7576123c76122c3565b816040528281528760208487010111156123e057600080fd5b6123f1836020830160208801612324565b979650505050505050565b600181811c9082168061241057607f821691505b6020821081141561243157634e487b7160e01b600052602260045260246000fd5b50919050565b6000815180845261244f816020860160208601612324565b601f01601f19169290920160200192915050565b60c081526000610100820160ff89541660c08401526001808a01604060e086015282815480855261012094508487019150848160051b8801019450600083815260209350838120815b8381101561255f5789880361011f190185528154839080891c898216806124d457607f821691505b8982108114156124f257634e487b7160e01b87526022600452602487fd5b818c5260208c0181801561250d576001811461251e57612548565b60ff19851682528b82019550612548565b600088815260209020895b8581101561254257815484820152908e01908d01612529565b83019650505b50939b5050509587019550509086019086016124ac565b50505050506125788186018b6001600160a01b03169052565b50506001600160401b0387166040840152828103606084015261259b8187612437565b9150508360808301526123f160a08301846001600160401b03169052565b6001600160a01b03858116825284166020820152604081018390526080606082018190526000906125ec90830184612437565b9695505050505050565b6001600160a01b039590951685526001600160f01b031993841660208601529190921660408401526001600160801b0390911660608301526001600160f81b031916608082015260a00190565b6001600160a01b038781168252868116602083015285166040820152606081018490526001600160801b038316608082015260c060a0820181905260009061268d90830184612437565b98975050505050505050565b602080825260149082015273496e76616c69642061737365744164647265737360601b604082015260600190565b6020808252602b908201527f496e697469616c697a61626c653a20636f6e7472616374206973206e6f74206960408201526a6e697469616c697a696e6760a81b606082015260800190565b60006020828403121561272457600080fd5b5051919050565b60006020828403121561273d57600080fd5b815180151581146120cd57600080fd5b60018060a01b03851681526000602085818401526080604084015260c0830160ff865116608085015281860151604060a086015281815180845260e08701915060e08160051b8801019350848301925060005b818110156127ce5760df198886030183526127bc858551612437565b945092850192918501916001016127a0565b5050506001600160401b03861660608601525091506127ea9050565b9594505050505056fea26469706673582212202d6daef2f3ca6bde92b1236564806f17e401171e6fa01d481ffb348b954a646d64736f6c634300080a0033",
  "libraries": {
    "AddressToAccount": "0x8F8F6B104190a4A24CcFf7B4006Ea7A59baeAf81",
    "BuildCallData": "0x3311A4609cdD0C7Ce8D2Dfa592BA4aDD23FeC578"
  },
  "devdoc": {
    "kind": "dev",
    "methods": {
      "owner()": {
        "details": "Returns the address of the current owner."
      },
      "paused()": {
        "details": "Returns true if the contract is paused, and false otherwise."
      },
      "renounceOwnership()": {
        "details": "Leaves the contract without owner. It will not be possible to call `onlyOwner` functions. Can only be called by the current owner. NOTE: Renouncing ownership will leave the contract without an owner, thereby disabling any functionality that is only available to the owner."
      },
      "transferOwnership(address)": {
        "details": "Transfers ownership of the contract to a new account (`newOwner`). Can only be called by the current owner."
      }
    },
    "version": 1
  },
  "userdoc": {
    "kind": "user",
    "methods": {
      "mintVAsset(address,uint256)": {
        "notice": "Minted vAssets"
      },
      "mintVNativeAsset()": {
        "notice": "Minted vNative assets such as vASTR, vGLMR, vMOVR"
      },
      "redeemAsset(address,uint256)": {
        "notice": "Redeem assets"
      },
      "swapAssetsForExactAssets(address,address,uint256,uint128)": {
        "notice": "Swap one asset for another"
      },
      "swapAssetsForExactNativeAssets(address,uint256,uint128)": {
        "notice": "Swap one asset for native asset"
      },
      "swapNativeAssetsForExactAssets(address,uint128)": {
        "notice": "Swap native asset for another"
      }
    },
    "version": 1
  },
  "storageLayout": {
    "storage": [
      {
        "astId": 138,
        "contract": "contracts/MoonbeamSlpx.sol:MoonbeamSlpx",
        "label": "_initialized",
        "offset": 0,
        "slot": "0",
        "type": "t_uint8"
      },
      {
        "astId": 141,
        "contract": "contracts/MoonbeamSlpx.sol:MoonbeamSlpx",
        "label": "_initializing",
        "offset": 1,
        "slot": "0",
        "type": "t_bool"
      },
      {
        "astId": 798,
        "contract": "contracts/MoonbeamSlpx.sol:MoonbeamSlpx",
        "label": "__gap",
        "offset": 0,
        "slot": "1",
        "type": "t_array(t_uint256)50_storage"
      },
      {
        "astId": 10,
        "contract": "contracts/MoonbeamSlpx.sol:MoonbeamSlpx",
        "label": "_owner",
        "offset": 0,
        "slot": "51",
        "type": "t_address"
      },
      {
        "astId": 130,
        "contract": "contracts/MoonbeamSlpx.sol:MoonbeamSlpx",
        "label": "__gap",
        "offset": 0,
        "slot": "52",
        "type": "t_array(t_uint256)49_storage"
      },
      {
        "astId": 321,
        "contract": "contracts/MoonbeamSlpx.sol:MoonbeamSlpx",
        "label": "_paused",
        "offset": 0,
        "slot": "101",
        "type": "t_bool"
      },
      {
        "astId": 426,
        "contract": "contracts/MoonbeamSlpx.sol:MoonbeamSlpx",
        "label": "__gap",
        "offset": 0,
        "slot": "102",
        "type": "t_array(t_uint256)49_storage"
      },
      {
        "astId": 1610,
        "contract": "contracts/MoonbeamSlpx.sol:MoonbeamSlpx",
        "label": "xtokenWeight",
        "offset": 0,
        "slot": "151",
        "type": "t_uint64"
      },
      {
        "astId": 1612,
        "contract": "contracts/MoonbeamSlpx.sol:MoonbeamSlpx",
        "label": "transactRequiredWeightAtMost",
        "offset": 8,
        "slot": "151",
        "type": "t_uint64"
      },
      {
        "astId": 1614,
        "contract": "contracts/MoonbeamSlpx.sol:MoonbeamSlpx",
        "label": "overallWeight",
        "offset": 16,
        "slot": "151",
        "type": "t_uint64"
      },
      {
        "astId": 1616,
        "contract": "contracts/MoonbeamSlpx.sol:MoonbeamSlpx",
        "label": "feeAmount",
        "offset": 0,
        "slot": "152",
        "type": "t_uint256"
      },
      {
        "astId": 1618,
        "contract": "contracts/MoonbeamSlpx.sol:MoonbeamSlpx",
        "label": "BNCAddress",
        "offset": 0,
        "slot": "153",
        "type": "t_address"
      },
      {
        "astId": 1620,
        "contract": "contracts/MoonbeamSlpx.sol:MoonbeamSlpx",
        "label": "bifrostParaId",
        "offset": 20,
        "slot": "153",
        "type": "t_uint32"
      },
      {
        "astId": 1622,
        "contract": "contracts/MoonbeamSlpx.sol:MoonbeamSlpx",
        "label": "nativeCurrencyId",
        "offset": 24,
        "slot": "153",
        "type": "t_bytes2"
      },
      {
        "astId": 1625,
        "contract": "contracts/MoonbeamSlpx.sol:MoonbeamSlpx",
        "label": "xcmTransactorDestination",
        "offset": 0,
        "slot": "154",
        "type": "t_struct(Multilocation)2649_storage"
      },
      {
        "astId": 1629,
        "contract": "contracts/MoonbeamSlpx.sol:MoonbeamSlpx",
        "label": "assetAddressToCurrencyId",
        "offset": 0,
        "slot": "156",
        "type": "t_mapping(t_address,t_bytes2)"
      },
      {
        "astId": 1633,
        "contract": "contracts/MoonbeamSlpx.sol:MoonbeamSlpx",
        "label": "assetAddressToMinimumValue",
        "offset": 0,
        "slot": "157",
        "type": "t_mapping(t_address,t_uint256)"
      }
    ],
    "types": {
      "t_address": {
        "encoding": "inplace",
        "label": "address",
        "numberOfBytes": "20"
      },
      "t_array(t_bytes_storage)dyn_storage": {
        "base": "t_bytes_storage",
        "encoding": "dynamic_array",
        "label": "bytes[]",
        "numberOfBytes": "32"
      },
      "t_array(t_uint256)49_storage": {
        "base": "t_uint256",
        "encoding": "inplace",
        "label": "uint256[49]",
        "numberOfBytes": "1568"
      },
      "t_array(t_uint256)50_storage": {
        "base": "t_uint256",
        "encoding": "inplace",
        "label": "uint256[50]",
        "numberOfBytes": "1600"
      },
      "t_bool": {
        "encoding": "inplace",
        "label": "bool",
        "numberOfBytes": "1"
      },
      "t_bytes2": {
        "encoding": "inplace",
        "label": "bytes2",
        "numberOfBytes": "2"
      },
      "t_bytes_storage": {
        "encoding": "bytes",
        "label": "bytes",
        "numberOfBytes": "32"
      },
      "t_mapping(t_address,t_bytes2)": {
        "encoding": "mapping",
        "key": "t_address",
        "label": "mapping(address => bytes2)",
        "numberOfBytes": "32",
        "value": "t_bytes2"
      },
      "t_mapping(t_address,t_uint256)": {
        "encoding": "mapping",
        "key": "t_address",
        "label": "mapping(address => uint256)",
        "numberOfBytes": "32",
        "value": "t_uint256"
      },
      "t_struct(Multilocation)2649_storage": {
        "encoding": "inplace",
        "label": "struct XcmTransactorV2.Multilocation",
        "members": [
          {
            "astId": 2645,
            "contract": "contracts/MoonbeamSlpx.sol:MoonbeamSlpx",
            "label": "parents",
            "offset": 0,
            "slot": "0",
            "type": "t_uint8"
          },
          {
            "astId": 2648,
            "contract": "contracts/MoonbeamSlpx.sol:MoonbeamSlpx",
            "label": "interior",
            "offset": 0,
            "slot": "1",
            "type": "t_array(t_bytes_storage)dyn_storage"
          }
        ],
        "numberOfBytes": "64"
      },
      "t_uint256": {
        "encoding": "inplace",
        "label": "uint256",
        "numberOfBytes": "32"
      },
      "t_uint32": {
        "encoding": "inplace",
        "label": "uint32",
        "numberOfBytes": "4"
      },
      "t_uint64": {
        "encoding": "inplace",
        "label": "uint64",
        "numberOfBytes": "8"
      },
      "t_uint8": {
        "encoding": "inplace",
        "label": "uint8",
        "numberOfBytes": "1"
      }
    }
  }
}