{
  "address": "0xF43cD76c1312d3ec45C37271bce9b691B454c064",
  "abi": [
    {
      "anonymous": false,
      "inputs": [
        {
          "indexed": false,
          "internalType": "uint8",
          "name": "version",
          "type": "uint8"
        }
      ],
      "name": "Initialized",
      "type": "event"
    },
    {
      "anonymous": false,
      "inputs": [
        {
          "indexed": false,
          "internalType": "address",
          "name": "minter",
          "type": "address"
        },
        {
          "indexed": false,
          "internalType": "address",
          "name": "assetAddress",
          "type": "address"
        },
        {
          "indexed": false,
          "internalType": "uint256",
          "name": "amount",
          "type": "uint256"
        },
        {
          "indexed": false,
          "internalType": "address",
          "name": "receiver",
          "type": "address"
        },
        {
          "indexed": false,
          "internalType": "bytes",
          "name": "callcode",
          "type": "bytes"
        },
        {
          "indexed": false,
          "internalType": "string",
          "name": "remark",
          "type": "string"
        }
      ],
      "name": "Mint",
      "type": "event"
    },
    {
      "anonymous": false,
      "inputs": [
        {
          "indexed": true,
          "internalType": "address",
          "name": "previousOwner",
          "type": "address"
        },
        {
          "indexed": true,
          "internalType": "address",
          "name": "newOwner",
          "type": "address"
        }
      ],
      "name": "OwnershipTransferred",
      "type": "event"
    },
    {
      "anonymous": false,
      "inputs": [
        {
          "indexed": false,
          "internalType": "address",
          "name": "account",
          "type": "address"
        }
      ],
      "name": "Paused",
      "type": "event"
    },
    {
      "anonymous": false,
      "inputs": [
        {
          "indexed": false,
          "internalType": "address",
          "name": "redeemer",
          "type": "address"
        },
        {
          "indexed": false,
          "internalType": "address",
          "name": "assetAddress",
          "type": "address"
        },
        {
          "indexed": false,
          "internalType": "uint256",
          "name": "amount",
          "type": "uint256"
        },
        {
          "indexed": false,
          "internalType": "address",
          "name": "receiver",
          "type": "address"
        },
        {
          "indexed": false,
          "internalType": "bytes",
          "name": "callcode",
          "type": "bytes"
        }
      ],
      "name": "Redeem",
      "type": "event"
    },
    {
      "anonymous": false,
      "inputs": [
        {
          "indexed": false,
          "internalType": "address",
          "name": "swapper",
          "type": "address"
        },
        {
          "indexed": false,
          "internalType": "uint32",
          "name": "poolId",
          "type": "uint32"
        },
        {
          "indexed": false,
          "internalType": "address",
          "name": "assetInAddress",
          "type": "address"
        },
        {
          "indexed": false,
          "internalType": "address",
          "name": "assetOutAddress",
          "type": "address"
        },
        {
          "indexed": false,
          "internalType": "uint256",
          "name": "assetInAmount",
          "type": "uint256"
        },
        {
          "indexed": false,
          "internalType": "uint128",
          "name": "minDy",
          "type": "uint128"
        },
        {
          "indexed": false,
          "internalType": "address",
          "name": "receiver",
          "type": "address"
        },
        {
          "indexed": false,
          "internalType": "bytes",
          "name": "callcode",
          "type": "bytes"
        }
      ],
      "name": "StablePoolSwap",
      "type": "event"
    },
    {
      "anonymous": false,
      "inputs": [
        {
          "indexed": false,
          "internalType": "address",
          "name": "swapper",
          "type": "address"
        },
        {
          "indexed": false,
          "internalType": "address",
          "name": "assetInAddress",
          "type": "address"
        },
        {
          "indexed": false,
          "internalType": "address",
          "name": "assetOutAddress",
          "type": "address"
        },
        {
          "indexed": false,
          "internalType": "uint256",
          "name": "assetInAmount",
          "type": "uint256"
        },
        {
          "indexed": false,
          "internalType": "uint128",
          "name": "assetOutMin",
          "type": "uint128"
        },
        {
          "indexed": false,
          "internalType": "address",
          "name": "receiver",
          "type": "address"
        },
        {
          "indexed": false,
          "internalType": "bytes",
          "name": "callcode",
          "type": "bytes"
        }
      ],
      "name": "Swap",
      "type": "event"
    },
    {
      "anonymous": false,
      "inputs": [
        {
          "indexed": false,
          "internalType": "address",
          "name": "account",
          "type": "address"
        }
      ],
      "name": "Unpaused",
      "type": "event"
    },
    {
      "inputs": [],
      "name": "BNC_ADDRESS",
      "outputs": [
        {
          "internalType": "address",
          "name": "",
          "type": "address"
        }
      ],
      "stateMutability": "view",
      "type": "function"
    },
    {
      "inputs": [
        {
          "internalType": "address",
          "name": "",
          "type": "address"
        }
      ],
      "name": "addressToAssetInfo",
      "outputs": [
        {
          "internalType": "bytes2",
          "name": "currencyId",
          "type": "bytes2"
        },
        {
          "internalType": "uint256",
          "name": "operationalMin",
          "type": "uint256"
        }
      ],
      "stateMutability": "view",
      "type": "function"
    },
    {
      "inputs": [],
      "name": "initialize",
      "outputs": [],
      "stateMutability": "nonpayable",
      "type": "function"
    },
    {
      "inputs": [
        {
          "internalType": "address",
          "name": "",
          "type": "address"
        },
        {
          "internalType": "uint256",
          "name": "",
          "type": "uint256"
        },
        {
          "internalType": "address",
          "name": "",
          "type": "address"
        },
        {
          "internalType": "string",
          "name": "",
          "type": "string"
        }
      ],
      "name": "mintVAsset",
      "outputs": [],
      "stateMutability": "pure",
      "type": "function"
    },
    {
      "inputs": [
        {
          "internalType": "address",
          "name": "receiver",
          "type": "address"
        },
        {
          "internalType": "string",
          "name": "remark",
          "type": "string"
        }
      ],
      "name": "mintVNativeAsset",
      "outputs": [],
      "stateMutability": "payable",
      "type": "function"
    },
    {
      "inputs": [
        {
          "internalType": "enum AstarSlpx.Operation",
          "name": "",
          "type": "uint8"
        }
      ],
      "name": "operationToFeeInfo",
      "outputs": [
        {
          "internalType": "uint64",
          "name": "transactRequiredWeightAtMost",
          "type": "uint64"
        },
        {
          "internalType": "uint256",
          "name": "feeAmount",
          "type": "uint256"
        }
      ],
      "stateMutability": "view",
      "type": "function"
    },
    {
      "inputs": [],
      "name": "owner",
      "outputs": [
        {
          "internalType": "address",
          "name": "",
          "type": "address"
        }
      ],
      "stateMutability": "view",
      "type": "function"
    },
    {
      "inputs": [],
      "name": "pause",
      "outputs": [],
      "stateMutability": "nonpayable",
      "type": "function"
    },
    {
      "inputs": [],
      "name": "paused",
      "outputs": [
        {
          "internalType": "bool",
          "name": "",
          "type": "bool"
        }
      ],
      "stateMutability": "view",
      "type": "function"
    },
    {
      "inputs": [
        {
          "internalType": "address",
          "name": "vAssetAddress",
          "type": "address"
        },
        {
          "internalType": "uint256",
          "name": "amount",
          "type": "uint256"
        },
        {
          "internalType": "address",
          "name": "receiver",
          "type": "address"
        }
      ],
      "name": "redeemAsset",
      "outputs": [],
      "stateMutability": "nonpayable",
      "type": "function"
    },
    {
      "inputs": [],
      "name": "renounceOwnership",
      "outputs": [],
      "stateMutability": "nonpayable",
      "type": "function"
    },
    {
      "inputs": [
        {
          "internalType": "address",
          "name": "assetAddress",
          "type": "address"
        },
        {
          "internalType": "bytes2",
          "name": "currencyId",
          "type": "bytes2"
        },
        {
          "internalType": "uint256",
          "name": "minimumValue",
          "type": "uint256"
        }
      ],
      "name": "setAssetAddressInfo",
      "outputs": [],
      "stateMutability": "nonpayable",
      "type": "function"
    },
    {
      "inputs": [
        {
          "internalType": "enum AstarSlpx.Operation",
          "name": "_operation",
          "type": "uint8"
        },
        {
          "internalType": "uint64",
          "name": "_transactRequiredWeightAtMost",
          "type": "uint64"
        },
        {
          "internalType": "uint256",
          "name": "_feeAmount",
          "type": "uint256"
        }
      ],
      "name": "setOperationToFeeInfo",
      "outputs": [],
      "stateMutability": "nonpayable",
      "type": "function"
    },
    {
      "inputs": [
        {
          "internalType": "uint32",
          "name": "",
          "type": "uint32"
        },
        {
          "internalType": "address",
          "name": "",
          "type": "address"
        },
        {
          "internalType": "address",
          "name": "",
          "type": "address"
        },
        {
          "internalType": "uint256",
          "name": "",
          "type": "uint256"
        },
        {
          "internalType": "uint128",
          "name": "",
          "type": "uint128"
        },
        {
          "internalType": "address",
          "name": "",
          "type": "address"
        }
      ],
      "name": "stablePoolSwap",
      "outputs": [],
      "stateMutability": "pure",
      "type": "function"
    },
    {
      "inputs": [
        {
          "internalType": "address",
          "name": "assetInAddress",
          "type": "address"
        },
        {
          "internalType": "address",
          "name": "assetOutAddress",
          "type": "address"
        },
        {
          "internalType": "uint256",
          "name": "assetInAmount",
          "type": "uint256"
        },
        {
          "internalType": "uint128",
          "name": "assetOutMin",
          "type": "uint128"
        },
        {
          "internalType": "address",
          "name": "receiver",
          "type": "address"
        }
      ],
      "name": "swapAssetsForExactAssets",
      "outputs": [],
      "stateMutability": "nonpayable",
      "type": "function"
    },
    {
      "inputs": [
        {
          "internalType": "address",
          "name": "assetInAddress",
          "type": "address"
        },
        {
          "internalType": "uint256",
          "name": "assetInAmount",
          "type": "uint256"
        },
        {
          "internalType": "uint128",
          "name": "assetOutMin",
          "type": "uint128"
        },
        {
          "internalType": "address",
          "name": "receiver",
          "type": "address"
        }
      ],
      "name": "swapAssetsForExactNativeAssets",
      "outputs": [],
      "stateMutability": "nonpayable",
      "type": "function"
    },
    {
      "inputs": [
        {
          "internalType": "address",
          "name": "assetOutAddress",
          "type": "address"
        },
        {
          "internalType": "uint128",
          "name": "assetOutMin",
          "type": "uint128"
        },
        {
          "internalType": "address",
          "name": "receiver",
          "type": "address"
        }
      ],
      "name": "swapNativeAssetsForExactAssets",
      "outputs": [],
      "stateMutability": "payable",
      "type": "function"
    },
    {
      "inputs": [
        {
          "internalType": "address",
          "name": "newOwner",
          "type": "address"
        }
      ],
      "name": "transferOwnership",
      "outputs": [],
      "stateMutability": "nonpayable",
      "type": "function"
    },
    {
      "inputs": [],
      "name": "unpause",
      "outputs": [],
      "stateMutability": "nonpayable",
      "type": "function"
    },
    {
      "inputs": [
        {
          "internalType": "address",
          "name": "assetAddress",
          "type": "address"
        },
        {
          "internalType": "uint256",
          "name": "amount",
          "type": "uint256"
        }
      ],
      "name": "xcmTransferAsset",
      "outputs": [],
      "stateMutability": "nonpayable",
      "type": "function"
    }
  ],
  "transactionHash": "0xe349755638fd168c9724cf8901aa4110ea85cca476480c55542ca175c4e37c92",
  "args": [],
  "numDeployments": 3,
  "solcInputHash": "0f1722d312342ccf47c951d11defa96a",
  "bytecode": "0x608060405234801561001057600080fd5b506124e8806100206000396000f3fe60806040526004361061011f5760003560e01c8063670abfc6116100a0578063bddef61a11610064578063bddef61a146102d5578063c864545614610334578063d6aa374d1461038f578063dfccfc31146103af578063f2fde38b146103d757600080fd5b8063670abfc614610244578063715018a6146102645780638129fc1c146102795780638456cb591461028e5780638da5cb5b146102a357600080fd5b80634972a921116100e75780634972a921146101ae57806352b11006146101c95780635c975abb146101e95780635ede28821461021157806362c64fe11461023157600080fd5b806323e498791461012457806324af0447146101395780633f4ba83a14610159578063458f49131461016e5780634899b9a81461018e575b600080fd5b610137610132366004611c14565b6103f7565b005b34801561014557600080fd5b50610137610154366004611d1a565b6105e9565b34801561016557600080fd5b50610137610625565b34801561017a57600080fd5b50610137610189366004611d81565b610637565b34801561019a57600080fd5b506101376101a9366004611dab565b61092a565b3480156101ba57600080fd5b50610137610154366004611dde565b3480156101d557600080fd5b506101376101e4366004611e56565b610afc565b3480156101f557600080fd5b5060655460ff1660405190151581526020015b60405180910390f35b34801561021d57600080fd5b5061013761022c366004611ea2565b610be9565b61013761023f366004611f00565b610e36565b34801561025057600080fd5b5061013761025f366004611f5c565b611050565b34801561027057600080fd5b50610137611191565b34801561028557600080fd5b506101376111a3565b34801561029a57600080fd5b506101376112d5565b3480156102af57600080fd5b506033546001600160a01b03165b6040516001600160a01b039091168152602001610208565b3480156102e157600080fd5b506103156102f0366004611f96565b609860205260009081526040902080546001909101546001600160401b039091169082565b604080516001600160401b039093168352602083019190915201610208565b34801561034057600080fd5b5061036f61034f366004611fb8565b6097602052600090815260409020805460019091015460f09190911b9082565b604080516001600160f01b03199093168352602083019190915201610208565b34801561039b57600080fd5b506101376103aa366004611fd3565b6112e5565b3480156103bb57600080fd5b506102bd73ffffffff0000000000000001000000000000000781565b3480156103e357600080fd5b506101376103f2366004611fb8565b6114d0565b6103ff611546565b600061040a8461158c565b90506000610418600061158c565b90506104233461165b565b6040516000906104399082908690602001612020565b60405160208183030381529060405290506000733311A4609cdD0C7Ce8D2Dfa592BA4aDD23FeC57863cb070de561046d3390565b85878a876040518663ffffffff1660e01b81526004016104919594939291906120a4565b600060405180830381865af41580156104ae573d6000803e3d6000fd5b505050506040513d6000823e601f3d908101601f191682016040526104d691908101906120fa565b905060006104e46002611881565b60208101518151604051637c87590960e11b81529293506150049263f90eb21292610533926107ee9260009273ffffffff000000000000000100000000000000079290918a9190600401612170565b6020604051808303816000875af1158015610552573d6000803e3d6000fd5b505050506040513d601f19601f8201168201806040525081019061057691906121c7565b61059b5760405162461bcd60e51b8152600401610592906121e9565b60405180910390fd5b7fe869557c53c6b4ca27e56668068f17eca71394d04718a9214a7667f1474950ff3360008a348b8b886040516105d79796959493929190612215565b60405180910390a15050505050505050565b60405162461bcd60e51b815260206004820152600b60248201526a139bdd081cdd5c1c1bdc9d60aa1b6044820152606401610592565b50505050565b61062d61199c565b6106356119f6565b565b6001600160a01b0382166106845760405162461bcd60e51b8152602060048201526014602482015273496e76616c69642061737365744164647265737360601b6044820152606401610592565b6001600160a01b0382166000908152609760205260409020600101548110156106e85760405162461bcd60e51b81526020600482015260166024820152754c657373207468616e204d696e696d756d56616c756560501b6044820152606401610592565b6000738F8F6B104190a4A24CcFf7B4006Ea7A59baeAf816332640a52336040516001600160e01b031960e084901b1681526001600160a01b039091166004820152602401602060405180830381865af4158015610749573d6000803e3d6000fd5b505050506040513d601f19601f8201168201806040525081019061076d9190612274565b60408051600180825281830190925291925060009190602080830190803683375050604080516001808252818301909252929350600092915060208083019080368337019050509050846001600160a01b0381166323b872dd336040516001600160e01b031960e084901b1681526001600160a01b039091166004820152306024820152604481018890526064016020604051808303816000875af115801561081a573d6000803e3d6000fd5b505050506040513d601f19601f8201168201806040525081019061083e91906121c7565b5085836000815181106108535761085361228d565b60200260200101906001600160a01b031690816001600160a01b03168152505084826000815181106108875761088761228d565b60209081029190910101526040516219054d60e41b81526150049063019054d0906108c3908690869089906000906107ee9082906004016122a3565b6020604051808303816000875af11580156108e2573d6000803e3d6000fd5b505050506040513d601f19601f8201168201806040525081019061090691906121c7565b6109225760405162461bcd60e51b8152600401610592906121e9565b505050505050565b610932611546565b600061093d8461158c565b90506109498484610637565b60405160009061095f9082908590602001612020565b60405160208183030381529060405290506000733311A4609cdD0C7Ce8D2Dfa592BA4aDD23FeC578639f0047836109933390565b85856040518463ffffffff1660e01b81526004016109b39392919061234f565b600060405180830381865af41580156109d0573d6000803e3d6000fd5b505050506040513d6000823e601f3d908101601f191682016040526109f891908101906120fa565b90506000610a066001611881565b60208101518151604051637c87590960e11b81529293506150049263f90eb21292610a55926107ee9260009273ffffffff000000000000000100000000000000079290918a9190600401612170565b6020604051808303816000875af1158015610a74573d6000803e3d6000fd5b505050506040513d601f19601f82011682018060405250810190610a9891906121c7565b610ab45760405162461bcd60e51b8152600401610592906121e9565b7f89996e9f85ecc9022265638d75df5de89dd421fab215e1b013ece5fcc188adce3388888886604051610aeb959493929190612383565b60405180910390a150505050505050565b610b0461199c565b80610b485760405162461bcd60e51b8152602060048201526014602482015273496e76616c6964206d696e696d756d56616c756560601b6044820152606401610592565b6001600160f01b03198216610b945760405162461bcd60e51b8152602060048201526012602482015271125b9d985b1a590818dd5c9c995b98de525960721b6044820152606401610592565b6040805180820182526001600160f01b0319909316835260208084019283526001600160a01b03909416600090815260979094529092209051815460f09190911c61ffff199091161781559051600190910155565b610bf1611546565b6000610bfc8661158c565b90506000610c098661158c565b90506001600160f01b0319821615801590610c2d57506001600160f01b0319811615155b610c6e5760405162461bcd60e51b8152602060048201526012602482015271125b9d985b1a590818dd5c9c995b98de525960721b6044820152606401610592565b610c788786610637565b604051600090610c8e9082908690602001612020565b60405160208183030381529060405290506000733311A4609cdD0C7Ce8D2Dfa592BA4aDD23FeC57863cb070de5610cc23390565b86868a876040518663ffffffff1660e01b8152600401610ce69594939291906120a4565b600060405180830381865af4158015610d03573d6000803e3d6000fd5b505050506040513d6000823e601f3d908101601f19168201604052610d2b91908101906120fa565b90506000610d396002611881565b60208101518151604051637c87590960e11b81529293506150049263f90eb21292610d88926107ee9260009273ffffffff000000000000000100000000000000079290918a9190600401612170565b6020604051808303816000875af1158015610da7573d6000803e3d6000fd5b505050506040513d601f19601f82011682018060405250810190610dcb91906121c7565b610de75760405162461bcd60e51b8152600401610592906121e9565b7fe869557c53c6b4ca27e56668068f17eca71394d04718a9214a7667f1474950ff338b8b8b8b8b88604051610e229796959493929190612215565b60405180910390a150505050505050505050565b610e3e611546565b602081511115610e825760405162461bcd60e51b815260206004820152600f60248201526e72656d61726b20746f6f206c6f6e6760881b6044820152606401610592565b6000610e8e600061158c565b9050610e993461165b565b604051600090610eaf9082908690602001612020565b60405160208183030381529060405290506000733311A4609cdD0C7Ce8D2Dfa592BA4aDD23FeC57863b9215527610ee33390565b8585886040518563ffffffff1660e01b8152600401610f0594939291906123be565b600060405180830381865af4158015610f22573d6000803e3d6000fd5b505050506040513d6000823e601f3d908101601f19168201604052610f4a91908101906120fa565b90506000610f586000611881565b60208101518151604051637c87590960e11b81529293506150049263f90eb21292610fa7926107ee9260009273ffffffff000000000000000100000000000000079290918a9190600401612170565b6020604051808303816000875af1158015610fc6573d6000803e3d6000fd5b505050506040513d601f19601f82011682018060405250810190610fea91906121c7565b6110065760405162461bcd60e51b8152600401610592906121e9565b7fca31869d7c65b3930a575eef33c6f69db06b0f1168af96408c4fceca8de0fadc3360003489868a60405161104096959493929190612404565b60405180910390a1505050505050565b61105861199c565b6402540be400826001600160401b031611156110c55760405162461bcd60e51b815260206004820152602660248201527f7472616e73616374526571756972656457656967687441744d6f737420746f6f604482015265206c6172676560d01b6064820152608401610592565b64e8d4a510008111156111105760405162461bcd60e51b8152602060048201526013602482015272666565416d6f756e7420746f6f206c6172676560681b6044820152606401610592565b6040518060400160405280836001600160401b03168152602001828152506098600085600381111561114457611144612451565b600381111561115557611155612451565b81526020808201929092526040016000208251815467ffffffffffffffff19166001600160401b03909116178155910151600190910155505050565b61119961199c565b6106356000611a48565b600054610100900460ff16158080156111c35750600054600160ff909116105b806111dd5750303b1580156111dd575060005460ff166001145b6112405760405162461bcd60e51b815260206004820152602e60248201527f496e697469616c697a61626c653a20636f6e747261637420697320616c72656160448201526d191e481a5b9a5d1a585b1a5e995960921b6064820152608401610592565b6000805460ff191660011790558015611263576000805461ff0019166101001790555b61126b611a9a565b611273611ac9565b61128c600061080360f01b670de0b6b3a7640000610afc565b80156112d2576000805461ff0019169055604051600181527f7f26b83ff96e1f2b6a682f133852f6798a09c465da95921460cefb38474024989060200160405180910390a15b50565b6112dd61199c565b610635611af8565b6112ed611546565b60006112f88561158c565b90506000611306600061158c565b90506113128686610637565b6040516000906113289082908690602001612020565b60405160208183030381529060405290506000733311A4609cdD0C7Ce8D2Dfa592BA4aDD23FeC57863cb070de561135c3390565b86868a876040518663ffffffff1660e01b81526004016113809594939291906120a4565b600060405180830381865af415801561139d573d6000803e3d6000fd5b505050506040513d6000823e601f3d908101601f191682016040526113c591908101906120fa565b905060006113d36002611881565b60208101518151604051637c87590960e11b81529293506150049263f90eb21292611422926107ee9260009273ffffffff000000000000000100000000000000079290918a9190600401612170565b6020604051808303816000875af1158015611441573d6000803e3d6000fd5b505050506040513d601f19601f8201168201806040525081019061146591906121c7565b6114815760405162461bcd60e51b8152600401610592906121e9565b7fe869557c53c6b4ca27e56668068f17eca71394d04718a9214a7667f1474950ff338a60008b8b8b886040516114bd9796959493929190612215565b60405180910390a1505050505050505050565b6114d861199c565b6001600160a01b03811661153d5760405162461bcd60e51b815260206004820152602660248201527f4f776e61626c653a206e6577206f776e657220697320746865207a65726f206160448201526564647265737360d01b6064820152608401610592565b6112d281611a48565b60655460ff16156106355760405162461bcd60e51b815260206004820152601060248201526f14185d5cd8589b194e881c185d5cd95960821b6044820152606401610592565b6001600160a01b03811660009081526097602090815260408083208151808301909252805460f01b6001600160f01b0319168252600101549181018290529061160c5760405162461bcd60e51b8152602060048201526012602482015271105cdcd95d081a5cc81b9bdd08195e1a5cdd60721b6044820152606401610592565b80516001600160f01b0319166116545760405162461bcd60e51b815260206004820152600d60248201526c125b9d985b1a5908185cdcd95d609a1b6044820152606401610592565b5192915050565b6000805260976020527f683723e34a772b6e4f2c919bba7fa32ed8ea11a8325f54da7db716e9d9dd98c8548110156116ce5760405162461bcd60e51b81526020600482015260166024820152754c657373207468616e204d696e696d756d56616c756560501b6044820152606401610592565b6000738F8F6B104190a4A24CcFf7B4006Ea7A59baeAf816332640a52336040516001600160e01b031960e084901b1681526001600160a01b039091166004820152602401602060405180830381865af415801561172f573d6000803e3d6000fd5b505050506040513d601f19601f820116820180604052508101906117539190612274565b604080516001808252818301909252919250600091906020808301908036833750506040805160018082528183019092529293506000929150602080830190803683370190505090506000826000815181106117b1576117b161228d565b60200260200101906001600160a01b031690816001600160a01b03168152505083816000815181106117e5576117e561228d565b602090810291909101015260405163400c0e8d60e01b81526150049063400c0e8d90611822908590859088906000906107ee9082906004016122a3565b6020604051808303816000875af1158015611841573d6000803e3d6000fd5b505050506040513d601f19601f8201168201806040525081019061186591906121c7565b61061f5760405162461bcd60e51b8152600401610592906121e9565b60408051808201909152600080825260208201526000609860008460038111156118ad576118ad612451565b60038111156118be576118be612451565b81526020808201929092526040908101600020815180830190925280546001600160401b031680835260019091015492820192909252915061194e5760405162461bcd60e51b8152602060048201526024808201527f496e76616c6964207472616e7361637452657175697265645765696768744174604482015263135bdcdd60e21b6064820152608401610592565b60008160200151116119965760405162461bcd60e51b8152602060048201526011602482015270125b9d985b1a5908199959505b5bdd5b9d607a1b6044820152606401610592565b92915050565b6033546001600160a01b031633146106355760405162461bcd60e51b815260206004820181905260248201527f4f776e61626c653a2063616c6c6572206973206e6f7420746865206f776e65726044820152606401610592565b6119fe611b35565b6065805460ff191690557f5db9ee0a495bf2e6ff9c91a7834c1ba4fdd244a5e8aa4e537bd38aeae4b073aa335b6040516001600160a01b03909116815260200160405180910390a1565b603380546001600160a01b038381166001600160a01b0319831681179093556040519116919082907f8be0079c531659141344cd1fd0a4f28419497f9722a3daafe3b4186f6b6457e090600090a35050565b600054610100900460ff16611ac15760405162461bcd60e51b815260040161059290612467565b610635611b7e565b600054610100900460ff16611af05760405162461bcd60e51b815260040161059290612467565b610635611bae565b611b00611546565b6065805460ff191660011790557f62e78cea01bee320cd4e420270b5ea74000d11b0c9f74754ebdbfc544b05a258611a2b3390565b60655460ff166106355760405162461bcd60e51b815260206004820152601460248201527314185d5cd8589b194e881b9bdd081c185d5cd95960621b6044820152606401610592565b600054610100900460ff16611ba55760405162461bcd60e51b815260040161059290612467565b61063533611a48565b600054610100900460ff16611bd55760405162461bcd60e51b815260040161059290612467565b6065805460ff19169055565b80356001600160a01b0381168114611bf857600080fd5b919050565b80356001600160801b0381168114611bf857600080fd5b600080600060608486031215611c2957600080fd5b611c3284611be1565b9250611c4060208501611bfd565b9150611c4e60408501611be1565b90509250925092565b634e487b7160e01b600052604160045260246000fd5b604051601f8201601f191681016001600160401b0381118282101715611c9557611c95611c57565b604052919050565b60006001600160401b03821115611cb657611cb6611c57565b50601f01601f191660200190565b600082601f830112611cd557600080fd5b8135611ce8611ce382611c9d565b611c6d565b818152846020838601011115611cfd57600080fd5b816020850160208301376000918101602001919091529392505050565b60008060008060808587031215611d3057600080fd5b611d3985611be1565b935060208501359250611d4e60408601611be1565b915060608501356001600160401b03811115611d6957600080fd5b611d7587828801611cc4565b91505092959194509250565b60008060408385031215611d9457600080fd5b611d9d83611be1565b946020939093013593505050565b600080600060608486031215611dc057600080fd5b611dc984611be1565b925060208401359150611c4e60408501611be1565b60008060008060008060c08789031215611df757600080fd5b863563ffffffff81168114611e0b57600080fd5b9550611e1960208801611be1565b9450611e2760408801611be1565b935060608701359250611e3c60808801611bfd565b9150611e4a60a08801611be1565b90509295509295509295565b600080600060608486031215611e6b57600080fd5b611e7484611be1565b925060208401356001600160f01b031981168114611e9157600080fd5b929592945050506040919091013590565b600080600080600060a08688031215611eba57600080fd5b611ec386611be1565b9450611ed160208701611be1565b935060408601359250611ee660608701611bfd565b9150611ef460808701611be1565b90509295509295909350565b60008060408385031215611f1357600080fd5b611f1c83611be1565b915060208301356001600160401b03811115611f3757600080fd5b611f4385828601611cc4565b9150509250929050565b803560048110611bf857600080fd5b600080600060608486031215611f7157600080fd5b611f7a84611f4d565b925060208401356001600160401b0381168114611e9157600080fd5b600060208284031215611fa857600080fd5b611fb182611f4d565b9392505050565b600060208284031215611fca57600080fd5b611fb182611be1565b60008060008060808587031215611fe957600080fd5b611ff285611be1565b93506020850135925061200760408601611bfd565b915061201560608601611be1565b905092959194509250565b6001600160f81b031992909216825260601b6bffffffffffffffffffffffff1916600182015260150190565b60005b8381101561206757818101518382015260200161204f565b8381111561061f5750506000910152565b6000815180845261209081602086016020860161204c565b601f01601f19169290920160200192915050565b6001600160a01b03861681526001600160f01b03198581166020830152841660408201526001600160801b038316606082015260a0608082018190526000906120ef90830184612078565b979650505050505050565b60006020828403121561210c57600080fd5b81516001600160401b0381111561212257600080fd5b8201601f8101841361213357600080fd5b8051612141611ce382611c9d565b81815285602083850101111561215657600080fd5b61216782602083016020860161204c565b95945050505050565b63ffffffff87168152851515602082015260018060a01b038516604082015283606082015260c0608082015260006121ab60c0830185612078565b90506001600160401b03831660a0830152979650505050505050565b6000602082840312156121d957600080fd5b81518015158114611fb157600080fd5b6020808252601290820152714661696c656420746f2073656e642078636d60701b604082015260600190565b6001600160a01b03888116825287811660208301528681166040830152606082018690526001600160801b0385166080830152831660a082015260e060c0820181905260009061226790830184612078565b9998505050505050505050565b60006020828403121561228657600080fd5b5051919050565b634e487b7160e01b600052603260045260246000fd5b60c0808252875190820181905260009060209060e0840190828b01845b828110156122e55781516001600160a01b0316845292840192908401906001016122c0565b5050508381038285015288518082528983019183019060005b8181101561231a578351835292840192918401916001016122fe565b50506040850189905287151560608601529250612335915050565b63ffffffff93909316608082015260a00152949350505050565b6001600160a01b03841681526001600160f01b03198316602082015260606040820181905260009061216790830184612078565b6001600160a01b0386811682528581166020830152604082018590528316606082015260a0608082018190526000906120ef90830184612078565b6001600160a01b03851681526001600160f01b0319841660208201526080604082018190526000906123f290830185612078565b82810360608401526120ef8185612078565b6001600160a01b0387811682528681166020830152604082018690528416606082015260c06080820181905260009061243f90830185612078565b82810360a08401526122678185612078565b634e487b7160e01b600052602160045260246000fd5b6020808252602b908201527f496e697469616c697a61626c653a20636f6e7472616374206973206e6f74206960408201526a6e697469616c697a696e6760a81b60608201526080019056fea26469706673582212205a566fd164063e01f4e3536e91dfb5439e705e3b11038aafa95f07c96e44b8fc64736f6c634300080a0033",
  "deployedBytecode": "0x60806040526004361061011f5760003560e01c8063670abfc6116100a0578063bddef61a11610064578063bddef61a146102d5578063c864545614610334578063d6aa374d1461038f578063dfccfc31146103af578063f2fde38b146103d757600080fd5b8063670abfc614610244578063715018a6146102645780638129fc1c146102795780638456cb591461028e5780638da5cb5b146102a357600080fd5b80634972a921116100e75780634972a921146101ae57806352b11006146101c95780635c975abb146101e95780635ede28821461021157806362c64fe11461023157600080fd5b806323e498791461012457806324af0447146101395780633f4ba83a14610159578063458f49131461016e5780634899b9a81461018e575b600080fd5b610137610132366004611c14565b6103f7565b005b34801561014557600080fd5b50610137610154366004611d1a565b6105e9565b34801561016557600080fd5b50610137610625565b34801561017a57600080fd5b50610137610189366004611d81565b610637565b34801561019a57600080fd5b506101376101a9366004611dab565b61092a565b3480156101ba57600080fd5b50610137610154366004611dde565b3480156101d557600080fd5b506101376101e4366004611e56565b610afc565b3480156101f557600080fd5b5060655460ff1660405190151581526020015b60405180910390f35b34801561021d57600080fd5b5061013761022c366004611ea2565b610be9565b61013761023f366004611f00565b610e36565b34801561025057600080fd5b5061013761025f366004611f5c565b611050565b34801561027057600080fd5b50610137611191565b34801561028557600080fd5b506101376111a3565b34801561029a57600080fd5b506101376112d5565b3480156102af57600080fd5b506033546001600160a01b03165b6040516001600160a01b039091168152602001610208565b3480156102e157600080fd5b506103156102f0366004611f96565b609860205260009081526040902080546001909101546001600160401b039091169082565b604080516001600160401b039093168352602083019190915201610208565b34801561034057600080fd5b5061036f61034f366004611fb8565b6097602052600090815260409020805460019091015460f09190911b9082565b604080516001600160f01b03199093168352602083019190915201610208565b34801561039b57600080fd5b506101376103aa366004611fd3565b6112e5565b3480156103bb57600080fd5b506102bd73ffffffff0000000000000001000000000000000781565b3480156103e357600080fd5b506101376103f2366004611fb8565b6114d0565b6103ff611546565b600061040a8461158c565b90506000610418600061158c565b90506104233461165b565b6040516000906104399082908690602001612020565b6040516020818303038152906040529050600073__$e184f4046250cd750dfdb139628ab13bdc$__63cb070de561046d3390565b85878a876040518663ffffffff1660e01b81526004016104919594939291906120a4565b600060405180830381865af41580156104ae573d6000803e3d6000fd5b505050506040513d6000823e601f3d908101601f191682016040526104d691908101906120fa565b905060006104e46002611881565b60208101518151604051637c87590960e11b81529293506150049263f90eb21292610533926107ee9260009273ffffffff000000000000000100000000000000079290918a9190600401612170565b6020604051808303816000875af1158015610552573d6000803e3d6000fd5b505050506040513d601f19601f8201168201806040525081019061057691906121c7565b61059b5760405162461bcd60e51b8152600401610592906121e9565b60405180910390fd5b7fe869557c53c6b4ca27e56668068f17eca71394d04718a9214a7667f1474950ff3360008a348b8b886040516105d79796959493929190612215565b60405180910390a15050505050505050565b60405162461bcd60e51b815260206004820152600b60248201526a139bdd081cdd5c1c1bdc9d60aa1b6044820152606401610592565b50505050565b61062d61199c565b6106356119f6565b565b6001600160a01b0382166106845760405162461bcd60e51b8152602060048201526014602482015273496e76616c69642061737365744164647265737360601b6044820152606401610592565b6001600160a01b0382166000908152609760205260409020600101548110156106e85760405162461bcd60e51b81526020600482015260166024820152754c657373207468616e204d696e696d756d56616c756560501b6044820152606401610592565b600073__$ddfb0e6c1c4d05795fcce73a90830b0995$__6332640a52336040516001600160e01b031960e084901b1681526001600160a01b039091166004820152602401602060405180830381865af4158015610749573d6000803e3d6000fd5b505050506040513d601f19601f8201168201806040525081019061076d9190612274565b60408051600180825281830190925291925060009190602080830190803683375050604080516001808252818301909252929350600092915060208083019080368337019050509050846001600160a01b0381166323b872dd336040516001600160e01b031960e084901b1681526001600160a01b039091166004820152306024820152604481018890526064016020604051808303816000875af115801561081a573d6000803e3d6000fd5b505050506040513d601f19601f8201168201806040525081019061083e91906121c7565b5085836000815181106108535761085361228d565b60200260200101906001600160a01b031690816001600160a01b03168152505084826000815181106108875761088761228d565b60209081029190910101526040516219054d60e41b81526150049063019054d0906108c3908690869089906000906107ee9082906004016122a3565b6020604051808303816000875af11580156108e2573d6000803e3d6000fd5b505050506040513d601f19601f8201168201806040525081019061090691906121c7565b6109225760405162461bcd60e51b8152600401610592906121e9565b505050505050565b610932611546565b600061093d8461158c565b90506109498484610637565b60405160009061095f9082908590602001612020565b6040516020818303038152906040529050600073__$e184f4046250cd750dfdb139628ab13bdc$__639f0047836109933390565b85856040518463ffffffff1660e01b81526004016109b39392919061234f565b600060405180830381865af41580156109d0573d6000803e3d6000fd5b505050506040513d6000823e601f3d908101601f191682016040526109f891908101906120fa565b90506000610a066001611881565b60208101518151604051637c87590960e11b81529293506150049263f90eb21292610a55926107ee9260009273ffffffff000000000000000100000000000000079290918a9190600401612170565b6020604051808303816000875af1158015610a74573d6000803e3d6000fd5b505050506040513d601f19601f82011682018060405250810190610a9891906121c7565b610ab45760405162461bcd60e51b8152600401610592906121e9565b7f89996e9f85ecc9022265638d75df5de89dd421fab215e1b013ece5fcc188adce3388888886604051610aeb959493929190612383565b60405180910390a150505050505050565b610b0461199c565b80610b485760405162461bcd60e51b8152602060048201526014602482015273496e76616c6964206d696e696d756d56616c756560601b6044820152606401610592565b6001600160f01b03198216610b945760405162461bcd60e51b8152602060048201526012602482015271125b9d985b1a590818dd5c9c995b98de525960721b6044820152606401610592565b6040805180820182526001600160f01b0319909316835260208084019283526001600160a01b03909416600090815260979094529092209051815460f09190911c61ffff199091161781559051600190910155565b610bf1611546565b6000610bfc8661158c565b90506000610c098661158c565b90506001600160f01b0319821615801590610c2d57506001600160f01b0319811615155b610c6e5760405162461bcd60e51b8152602060048201526012602482015271125b9d985b1a590818dd5c9c995b98de525960721b6044820152606401610592565b610c788786610637565b604051600090610c8e9082908690602001612020565b6040516020818303038152906040529050600073__$e184f4046250cd750dfdb139628ab13bdc$__63cb070de5610cc23390565b86868a876040518663ffffffff1660e01b8152600401610ce69594939291906120a4565b600060405180830381865af4158015610d03573d6000803e3d6000fd5b505050506040513d6000823e601f3d908101601f19168201604052610d2b91908101906120fa565b90506000610d396002611881565b60208101518151604051637c87590960e11b81529293506150049263f90eb21292610d88926107ee9260009273ffffffff000000000000000100000000000000079290918a9190600401612170565b6020604051808303816000875af1158015610da7573d6000803e3d6000fd5b505050506040513d601f19601f82011682018060405250810190610dcb91906121c7565b610de75760405162461bcd60e51b8152600401610592906121e9565b7fe869557c53c6b4ca27e56668068f17eca71394d04718a9214a7667f1474950ff338b8b8b8b8b88604051610e229796959493929190612215565b60405180910390a150505050505050505050565b610e3e611546565b602081511115610e825760405162461bcd60e51b815260206004820152600f60248201526e72656d61726b20746f6f206c6f6e6760881b6044820152606401610592565b6000610e8e600061158c565b9050610e993461165b565b604051600090610eaf9082908690602001612020565b6040516020818303038152906040529050600073__$e184f4046250cd750dfdb139628ab13bdc$__63b9215527610ee33390565b8585886040518563ffffffff1660e01b8152600401610f0594939291906123be565b600060405180830381865af4158015610f22573d6000803e3d6000fd5b505050506040513d6000823e601f3d908101601f19168201604052610f4a91908101906120fa565b90506000610f586000611881565b60208101518151604051637c87590960e11b81529293506150049263f90eb21292610fa7926107ee9260009273ffffffff000000000000000100000000000000079290918a9190600401612170565b6020604051808303816000875af1158015610fc6573d6000803e3d6000fd5b505050506040513d601f19601f82011682018060405250810190610fea91906121c7565b6110065760405162461bcd60e51b8152600401610592906121e9565b7fca31869d7c65b3930a575eef33c6f69db06b0f1168af96408c4fceca8de0fadc3360003489868a60405161104096959493929190612404565b60405180910390a1505050505050565b61105861199c565b6402540be400826001600160401b031611156110c55760405162461bcd60e51b815260206004820152602660248201527f7472616e73616374526571756972656457656967687441744d6f737420746f6f604482015265206c6172676560d01b6064820152608401610592565b64e8d4a510008111156111105760405162461bcd60e51b8152602060048201526013602482015272666565416d6f756e7420746f6f206c6172676560681b6044820152606401610592565b6040518060400160405280836001600160401b03168152602001828152506098600085600381111561114457611144612451565b600381111561115557611155612451565b81526020808201929092526040016000208251815467ffffffffffffffff19166001600160401b03909116178155910151600190910155505050565b61119961199c565b6106356000611a48565b600054610100900460ff16158080156111c35750600054600160ff909116105b806111dd5750303b1580156111dd575060005460ff166001145b6112405760405162461bcd60e51b815260206004820152602e60248201527f496e697469616c697a61626c653a20636f6e747261637420697320616c72656160448201526d191e481a5b9a5d1a585b1a5e995960921b6064820152608401610592565b6000805460ff191660011790558015611263576000805461ff0019166101001790555b61126b611a9a565b611273611ac9565b61128c600061080360f01b670de0b6b3a7640000610afc565b80156112d2576000805461ff0019169055604051600181527f7f26b83ff96e1f2b6a682f133852f6798a09c465da95921460cefb38474024989060200160405180910390a15b50565b6112dd61199c565b610635611af8565b6112ed611546565b60006112f88561158c565b90506000611306600061158c565b90506113128686610637565b6040516000906113289082908690602001612020565b6040516020818303038152906040529050600073__$e184f4046250cd750dfdb139628ab13bdc$__63cb070de561135c3390565b86868a876040518663ffffffff1660e01b81526004016113809594939291906120a4565b600060405180830381865af415801561139d573d6000803e3d6000fd5b505050506040513d6000823e601f3d908101601f191682016040526113c591908101906120fa565b905060006113d36002611881565b60208101518151604051637c87590960e11b81529293506150049263f90eb21292611422926107ee9260009273ffffffff000000000000000100000000000000079290918a9190600401612170565b6020604051808303816000875af1158015611441573d6000803e3d6000fd5b505050506040513d601f19601f8201168201806040525081019061146591906121c7565b6114815760405162461bcd60e51b8152600401610592906121e9565b7fe869557c53c6b4ca27e56668068f17eca71394d04718a9214a7667f1474950ff338a60008b8b8b886040516114bd9796959493929190612215565b60405180910390a1505050505050505050565b6114d861199c565b6001600160a01b03811661153d5760405162461bcd60e51b815260206004820152602660248201527f4f776e61626c653a206e6577206f776e657220697320746865207a65726f206160448201526564647265737360d01b6064820152608401610592565b6112d281611a48565b60655460ff16156106355760405162461bcd60e51b815260206004820152601060248201526f14185d5cd8589b194e881c185d5cd95960821b6044820152606401610592565b6001600160a01b03811660009081526097602090815260408083208151808301909252805460f01b6001600160f01b0319168252600101549181018290529061160c5760405162461bcd60e51b8152602060048201526012602482015271105cdcd95d081a5cc81b9bdd08195e1a5cdd60721b6044820152606401610592565b80516001600160f01b0319166116545760405162461bcd60e51b815260206004820152600d60248201526c125b9d985b1a5908185cdcd95d609a1b6044820152606401610592565b5192915050565b6000805260976020527f683723e34a772b6e4f2c919bba7fa32ed8ea11a8325f54da7db716e9d9dd98c8548110156116ce5760405162461bcd60e51b81526020600482015260166024820152754c657373207468616e204d696e696d756d56616c756560501b6044820152606401610592565b600073__$ddfb0e6c1c4d05795fcce73a90830b0995$__6332640a52336040516001600160e01b031960e084901b1681526001600160a01b039091166004820152602401602060405180830381865af415801561172f573d6000803e3d6000fd5b505050506040513d601f19601f820116820180604052508101906117539190612274565b604080516001808252818301909252919250600091906020808301908036833750506040805160018082528183019092529293506000929150602080830190803683370190505090506000826000815181106117b1576117b161228d565b60200260200101906001600160a01b031690816001600160a01b03168152505083816000815181106117e5576117e561228d565b602090810291909101015260405163400c0e8d60e01b81526150049063400c0e8d90611822908590859088906000906107ee9082906004016122a3565b6020604051808303816000875af1158015611841573d6000803e3d6000fd5b505050506040513d601f19601f8201168201806040525081019061186591906121c7565b61061f5760405162461bcd60e51b8152600401610592906121e9565b60408051808201909152600080825260208201526000609860008460038111156118ad576118ad612451565b60038111156118be576118be612451565b81526020808201929092526040908101600020815180830190925280546001600160401b031680835260019091015492820192909252915061194e5760405162461bcd60e51b8152602060048201526024808201527f496e76616c6964207472616e7361637452657175697265645765696768744174604482015263135bdcdd60e21b6064820152608401610592565b60008160200151116119965760405162461bcd60e51b8152602060048201526011602482015270125b9d985b1a5908199959505b5bdd5b9d607a1b6044820152606401610592565b92915050565b6033546001600160a01b031633146106355760405162461bcd60e51b815260206004820181905260248201527f4f776e61626c653a2063616c6c6572206973206e6f7420746865206f776e65726044820152606401610592565b6119fe611b35565b6065805460ff191690557f5db9ee0a495bf2e6ff9c91a7834c1ba4fdd244a5e8aa4e537bd38aeae4b073aa335b6040516001600160a01b03909116815260200160405180910390a1565b603380546001600160a01b038381166001600160a01b0319831681179093556040519116919082907f8be0079c531659141344cd1fd0a4f28419497f9722a3daafe3b4186f6b6457e090600090a35050565b600054610100900460ff16611ac15760405162461bcd60e51b815260040161059290612467565b610635611b7e565b600054610100900460ff16611af05760405162461bcd60e51b815260040161059290612467565b610635611bae565b611b00611546565b6065805460ff191660011790557f62e78cea01bee320cd4e420270b5ea74000d11b0c9f74754ebdbfc544b05a258611a2b3390565b60655460ff166106355760405162461bcd60e51b815260206004820152601460248201527314185d5cd8589b194e881b9bdd081c185d5cd95960621b6044820152606401610592565b600054610100900460ff16611ba55760405162461bcd60e51b815260040161059290612467565b61063533611a48565b600054610100900460ff16611bd55760405162461bcd60e51b815260040161059290612467565b6065805460ff19169055565b80356001600160a01b0381168114611bf857600080fd5b919050565b80356001600160801b0381168114611bf857600080fd5b600080600060608486031215611c2957600080fd5b611c3284611be1565b9250611c4060208501611bfd565b9150611c4e60408501611be1565b90509250925092565b634e487b7160e01b600052604160045260246000fd5b604051601f8201601f191681016001600160401b0381118282101715611c9557611c95611c57565b604052919050565b60006001600160401b03821115611cb657611cb6611c57565b50601f01601f191660200190565b600082601f830112611cd557600080fd5b8135611ce8611ce382611c9d565b611c6d565b818152846020838601011115611cfd57600080fd5b816020850160208301376000918101602001919091529392505050565b60008060008060808587031215611d3057600080fd5b611d3985611be1565b935060208501359250611d4e60408601611be1565b915060608501356001600160401b03811115611d6957600080fd5b611d7587828801611cc4565b91505092959194509250565b60008060408385031215611d9457600080fd5b611d9d83611be1565b946020939093013593505050565b600080600060608486031215611dc057600080fd5b611dc984611be1565b925060208401359150611c4e60408501611be1565b60008060008060008060c08789031215611df757600080fd5b863563ffffffff81168114611e0b57600080fd5b9550611e1960208801611be1565b9450611e2760408801611be1565b935060608701359250611e3c60808801611bfd565b9150611e4a60a08801611be1565b90509295509295509295565b600080600060608486031215611e6b57600080fd5b611e7484611be1565b925060208401356001600160f01b031981168114611e9157600080fd5b929592945050506040919091013590565b600080600080600060a08688031215611eba57600080fd5b611ec386611be1565b9450611ed160208701611be1565b935060408601359250611ee660608701611bfd565b9150611ef460808701611be1565b90509295509295909350565b60008060408385031215611f1357600080fd5b611f1c83611be1565b915060208301356001600160401b03811115611f3757600080fd5b611f4385828601611cc4565b9150509250929050565b803560048110611bf857600080fd5b600080600060608486031215611f7157600080fd5b611f7a84611f4d565b925060208401356001600160401b0381168114611e9157600080fd5b600060208284031215611fa857600080fd5b611fb182611f4d565b9392505050565b600060208284031215611fca57600080fd5b611fb182611be1565b60008060008060808587031215611fe957600080fd5b611ff285611be1565b93506020850135925061200760408601611bfd565b915061201560608601611be1565b905092959194509250565b6001600160f81b031992909216825260601b6bffffffffffffffffffffffff1916600182015260150190565b60005b8381101561206757818101518382015260200161204f565b8381111561061f5750506000910152565b6000815180845261209081602086016020860161204c565b601f01601f19169290920160200192915050565b6001600160a01b03861681526001600160f01b03198581166020830152841660408201526001600160801b038316606082015260a0608082018190526000906120ef90830184612078565b979650505050505050565b60006020828403121561210c57600080fd5b81516001600160401b0381111561212257600080fd5b8201601f8101841361213357600080fd5b8051612141611ce382611c9d565b81815285602083850101111561215657600080fd5b61216782602083016020860161204c565b95945050505050565b63ffffffff87168152851515602082015260018060a01b038516604082015283606082015260c0608082015260006121ab60c0830185612078565b90506001600160401b03831660a0830152979650505050505050565b6000602082840312156121d957600080fd5b81518015158114611fb157600080fd5b6020808252601290820152714661696c656420746f2073656e642078636d60701b604082015260600190565b6001600160a01b03888116825287811660208301528681166040830152606082018690526001600160801b0385166080830152831660a082015260e060c0820181905260009061226790830184612078565b9998505050505050505050565b60006020828403121561228657600080fd5b5051919050565b634e487b7160e01b600052603260045260246000fd5b60c0808252875190820181905260009060209060e0840190828b01845b828110156122e55781516001600160a01b0316845292840192908401906001016122c0565b5050508381038285015288518082528983019183019060005b8181101561231a578351835292840192918401916001016122fe565b50506040850189905287151560608601529250612335915050565b63ffffffff93909316608082015260a00152949350505050565b6001600160a01b03841681526001600160f01b03198316602082015260606040820181905260009061216790830184612078565b6001600160a01b0386811682528581166020830152604082018590528316606082015260a0608082018190526000906120ef90830184612078565b6001600160a01b03851681526001600160f01b0319841660208201526080604082018190526000906123f290830185612078565b82810360608401526120ef8185612078565b6001600160a01b0387811682528681166020830152604082018690528416606082015260c06080820181905260009061243f90830185612078565b82810360a08401526122678185612078565b634e487b7160e01b600052602160045260246000fd5b6020808252602b908201527f496e697469616c697a61626c653a20636f6e7472616374206973206e6f74206960408201526a6e697469616c697a696e6760a81b60608201526080019056fea26469706673582212205a566fd164063e01f4e3536e91dfb5439e705e3b11038aafa95f07c96e44b8fc64736f6c634300080a0033",
  "libraries": {
    "AddressToAccount": "0x8F8F6B104190a4A24CcFf7B4006Ea7A59baeAf81",
    "BuildCallData": "0x3311A4609cdD0C7Ce8D2Dfa592BA4aDD23FeC578"
  },
  "devdoc": {
    "kind": "dev",
    "methods": {
      "owner()": {
        "details": "Returns the address of the current owner."
      },
      "paused()": {
        "details": "Returns true if the contract is paused, and false otherwise."
      },
      "renounceOwnership()": {
        "details": "Leaves the contract without owner. It will not be possible to call `onlyOwner` functions. Can only be called by the current owner. NOTE: Renouncing ownership will leave the contract without an owner, thereby disabling any functionality that is only available to the owner."
      },
      "transferOwnership(address)": {
        "details": "Transfers ownership of the contract to a new account (`newOwner`). Can only be called by the current owner."
      }
    },
    "version": 1
  },
  "userdoc": {
    "kind": "user",
    "methods": {
      "mintVNativeAsset(address,string)": {
        "notice": "Minted vNative assets such as vASTR, vGLMR, vMOVR"
      },
      "redeemAsset(address,uint256,address)": {
        "notice": "Redeem assets"
      },
      "swapAssetsForExactAssets(address,address,uint256,uint128,address)": {
        "notice": "Swap one asset for another"
      },
      "swapAssetsForExactNativeAssets(address,uint256,uint128,address)": {
        "notice": "Swap one asset for native asset"
      },
      "swapNativeAssetsForExactAssets(address,uint128,address)": {
        "notice": "Swap native asset for another"
      }
    },
    "version": 1
  },
  "storageLayout": {
    "storage": [
      {
        "astId": 138,
        "contract": "contracts/AstarSlpx.sol:AstarSlpx",
        "label": "_initialized",
        "offset": 0,
        "slot": "0",
        "type": "t_uint8"
      },
      {
        "astId": 141,
        "contract": "contracts/AstarSlpx.sol:AstarSlpx",
        "label": "_initializing",
        "offset": 1,
        "slot": "0",
        "type": "t_bool"
      },
      {
        "astId": 798,
        "contract": "contracts/AstarSlpx.sol:AstarSlpx",
        "label": "__gap",
        "offset": 0,
        "slot": "1",
        "type": "t_array(t_uint256)50_storage"
      },
      {
        "astId": 10,
        "contract": "contracts/AstarSlpx.sol:AstarSlpx",
        "label": "_owner",
        "offset": 0,
        "slot": "51",
        "type": "t_address"
      },
      {
        "astId": 130,
        "contract": "contracts/AstarSlpx.sol:AstarSlpx",
        "label": "__gap",
        "offset": 0,
        "slot": "52",
        "type": "t_array(t_uint256)49_storage"
      },
      {
        "astId": 321,
        "contract": "contracts/AstarSlpx.sol:AstarSlpx",
        "label": "_paused",
        "offset": 0,
        "slot": "101",
        "type": "t_bool"
      },
      {
        "astId": 426,
        "contract": "contracts/AstarSlpx.sol:AstarSlpx",
        "label": "__gap",
        "offset": 0,
        "slot": "102",
        "type": "t_array(t_uint256)49_storage"
      },
      {
        "astId": 927,
        "contract": "contracts/AstarSlpx.sol:AstarSlpx",
        "label": "addressToAssetInfo",
        "offset": 0,
        "slot": "151",
        "type": "t_mapping(t_address,t_struct(AssetInfo)917_storage)"
      },
      {
        "astId": 933,
        "contract": "contracts/AstarSlpx.sol:AstarSlpx",
        "label": "operationToFeeInfo",
        "offset": 0,
        "slot": "152",
        "type": "t_mapping(t_enum(Operation)912,t_struct(FeeInfo)922_storage)"
      }
    ],
    "types": {
      "t_address": {
        "encoding": "inplace",
        "label": "address",
        "numberOfBytes": "20"
      },
      "t_array(t_uint256)49_storage": {
        "base": "t_uint256",
        "encoding": "inplace",
        "label": "uint256[49]",
        "numberOfBytes": "1568"
      },
      "t_array(t_uint256)50_storage": {
        "base": "t_uint256",
        "encoding": "inplace",
        "label": "uint256[50]",
        "numberOfBytes": "1600"
      },
      "t_bool": {
        "encoding": "inplace",
        "label": "bool",
        "numberOfBytes": "1"
      },
      "t_bytes2": {
        "encoding": "inplace",
        "label": "bytes2",
        "numberOfBytes": "2"
      },
      "t_enum(Operation)912": {
        "encoding": "inplace",
        "label": "enum AstarSlpx.Operation",
        "numberOfBytes": "1"
      },
      "t_mapping(t_address,t_struct(AssetInfo)917_storage)": {
        "encoding": "mapping",
        "key": "t_address",
        "label": "mapping(address => struct AstarSlpx.AssetInfo)",
        "numberOfBytes": "32",
        "value": "t_struct(AssetInfo)917_storage"
      },
      "t_mapping(t_enum(Operation)912,t_struct(FeeInfo)922_storage)": {
        "encoding": "mapping",
        "key": "t_enum(Operation)912",
        "label": "mapping(enum AstarSlpx.Operation => struct AstarSlpx.FeeInfo)",
        "numberOfBytes": "32",
        "value": "t_struct(FeeInfo)922_storage"
      },
      "t_struct(AssetInfo)917_storage": {
        "encoding": "inplace",
        "label": "struct AstarSlpx.AssetInfo",
        "members": [
          {
            "astId": 914,
            "contract": "contracts/AstarSlpx.sol:AstarSlpx",
            "label": "currencyId",
            "offset": 0,
            "slot": "0",
            "type": "t_bytes2"
          },
          {
            "astId": 916,
            "contract": "contracts/AstarSlpx.sol:AstarSlpx",
            "label": "operationalMin",
            "offset": 0,
            "slot": "1",
            "type": "t_uint256"
          }
        ],
        "numberOfBytes": "64"
      },
      "t_struct(FeeInfo)922_storage": {
        "encoding": "inplace",
        "label": "struct AstarSlpx.FeeInfo",
        "members": [
          {
            "astId": 919,
            "contract": "contracts/AstarSlpx.sol:AstarSlpx",
            "label": "transactRequiredWeightAtMost",
            "offset": 0,
            "slot": "0",
            "type": "t_uint64"
          },
          {
            "astId": 921,
            "contract": "contracts/AstarSlpx.sol:AstarSlpx",
            "label": "feeAmount",
            "offset": 0,
            "slot": "1",
            "type": "t_uint256"
          }
        ],
        "numberOfBytes": "64"
      },
      "t_uint256": {
        "encoding": "inplace",
        "label": "uint256",
        "numberOfBytes": "32"
      },
      "t_uint64": {
        "encoding": "inplace",
        "label": "uint64",
        "numberOfBytes": "8"
      },
      "t_uint8": {
        "encoding": "inplace",
        "label": "uint8",
        "numberOfBytes": "1"
      }
    }
  }
}