{
  "address": "0x9D40Ca58eF5392a8fB161AB27c7f61de5dfBF0E2",
  "abi": [
    {
      "anonymous": false,
      "inputs": [
        {
          "indexed": true,
          "internalType": "address",
          "name": "caller",
          "type": "address"
        },
        {
          "indexed": true,
          "internalType": "uint256",
          "name": "amount",
          "type": "uint256"
        },
        {
          "indexed": true,
          "internalType": "address",
          "name": "receiver",
          "type": "address"
        },
        {
          "indexed": false,
          "internalType": "uint32",
          "name": "channelId",
          "type": "uint32"
        }
      ],
      "name": "Mint",
      "type": "event"
    },
    {
      "anonymous": false,
      "inputs": [
        {
          "indexed": true,
          "internalType": "address",
          "name": "from",
          "type": "address"
        },
        {
          "indexed": true,
          "internalType": "address",
          "name": "to",
          "type": "address"
        }
      ],
      "name": "OwnershipTransferRequested",
      "type": "event"
    },
    {
      "anonymous": false,
      "inputs": [
        {
          "indexed": true,
          "internalType": "address",
          "name": "from",
          "type": "address"
        },
        {
          "indexed": true,
          "internalType": "address",
          "name": "to",
          "type": "address"
        }
      ],
      "name": "OwnershipTransferred",
      "type": "event"
    },
    {
      "anonymous": false,
      "inputs": [
        {
          "indexed": true,
          "internalType": "address",
          "name": "caller",
          "type": "address"
        },
        {
          "indexed": true,
          "internalType": "uint256",
          "name": "amount",
          "type": "uint256"
        }
      ],
      "name": "Redeem",
      "type": "event"
    },
    {
      "inputs": [],
      "name": "AstarReceiver",
      "outputs": [
        {
          "internalType": "address",
          "name": "",
          "type": "address"
        }
      ],
      "stateMutability": "view",
      "type": "function"
    },
    {
      "inputs": [],
      "name": "acceptOwnership",
      "outputs": [],
      "stateMutability": "nonpayable",
      "type": "function"
    },
    {
      "inputs": [
        {
          "internalType": "address",
          "name": "caller",
          "type": "address"
        },
        {
          "internalType": "enum Types.Operation",
          "name": "operation",
          "type": "uint8"
        },
        {
          "internalType": "uint256",
          "name": "_amount",
          "type": "uint256"
        },
        {
          "internalType": "uint256",
          "name": "gasLimit",
          "type": "uint256"
        },
        {
          "internalType": "uint64",
          "name": "_dstGasForCall",
          "type": "uint64"
        },
        {
          "internalType": "bytes",
          "name": "_adapterParams",
          "type": "bytes"
        }
      ],
      "name": "estimateSendAndCallFee",
      "outputs": [
        {
          "internalType": "uint256",
          "name": "",
          "type": "uint256"
        },
        {
          "internalType": "bytes",
          "name": "",
          "type": "bytes"
        }
      ],
      "stateMutability": "view",
      "type": "function"
    },
    {
      "inputs": [
        {
          "internalType": "enum Types.Operation",
          "name": "",
          "type": "uint8"
        }
      ],
      "name": "minAmount",
      "outputs": [
        {
          "internalType": "uint256",
          "name": "",
          "type": "uint256"
        }
      ],
      "stateMutability": "view",
      "type": "function"
    },
    {
      "inputs": [
        {
          "internalType": "uint256",
          "name": "_amount",
          "type": "uint256"
        },
        {
          "internalType": "address",
          "name": "receiver",
          "type": "address"
        },
        {
          "internalType": "uint32",
          "name": "channelId",
          "type": "uint32"
        },
        {
          "internalType": "uint256",
          "name": "gasLimit",
          "type": "uint256"
        }
      ],
      "name": "mint",
      "outputs": [],
      "stateMutability": "payable",
      "type": "function"
    },
    {
      "inputs": [],
      "name": "owner",
      "outputs": [
        {
          "internalType": "address",
          "name": "",
          "type": "address"
        }
      ],
      "stateMutability": "view",
      "type": "function"
    },
    {
      "inputs": [
        {
          "internalType": "uint256",
          "name": "_amount",
          "type": "uint256"
        },
        {
          "internalType": "uint64",
          "name": "_dstGasForCall",
          "type": "uint64"
        },
        {
          "internalType": "bytes",
          "name": "_adapterParams",
          "type": "bytes"
        }
      ],
      "name": "redeem",
      "outputs": [],
      "stateMutability": "payable",
      "type": "function"
    },
    {
      "inputs": [],
      "name": "remoteContract",
      "outputs": [
        {
          "internalType": "bytes32",
          "name": "",
          "type": "bytes32"
        }
      ],
      "stateMutability": "view",
      "type": "function"
    },
    {
      "inputs": [
        {
          "internalType": "enum Types.Operation",
          "name": "_operation",
          "type": "uint8"
        },
        {
          "internalType": "uint256",
          "name": "_minAmount",
          "type": "uint256"
        }
      ],
      "name": "setMinAmount",
      "outputs": [],
      "stateMutability": "nonpayable",
      "type": "function"
    },
    {
      "inputs": [
        {
          "internalType": "address",
          "name": "_remoteContract",
          "type": "address"
        }
      ],
      "name": "setRemoteContract",
      "outputs": [],
      "stateMutability": "nonpayable",
      "type": "function"
    },
    {
      "inputs": [
        {
          "internalType": "address",
          "name": "to",
          "type": "address"
        }
      ],
      "name": "transferOwnership",
      "outputs": [],
      "stateMutability": "nonpayable",
      "type": "function"
    }
  ],
  "transactionHash": "0x24173604bea80487e66b48868c2491990721a4009ece6a5ec4f5357551357984",
  "args": [],
  "numDeployments": 1,
  "solcInputHash": "b2f897236b5a0029269bb8032ce1c31f",
  "bytecode": "0x608060405234801561001057600080fd5b5033806000816100675760405162461bcd60e51b815260206004820152601860248201527f43616e6e6f7420736574206f776e657220746f207a65726f000000000000000060448201526064015b60405180910390fd5b600080546001600160a01b0319166001600160a01b0384811691909117909155811615610097576100978161009f565b505050610149565b6001600160a01b0381163314156100f85760405162461bcd60e51b815260206004820152601760248201527f43616e6e6f74207472616e7366657220746f2073656c66000000000000000000604482015260640161005e565b600180546001600160a01b0319166001600160a01b0383811691821790925560008054604051929316917fed8889f560326eb138920d842192f0eb3dd22b4f139c87a2c57538e05bae12789190a350565b611537806101586000396000f3fe60806040526004361061009c5760003560e01c80638da5cb5b116100645780638da5cb5b1461015a578063aabdc08214610178578063aed7bbbb146101a5578063c0afb3f4146101b8578063c8b75259146101d8578063f2fde38b146101f857600080fd5b80630663b2d1146100a157806315725162146100ca57806334a336cb146100f857806347235ad71461013057806379ba509714610145575b600080fd5b3480156100ad57600080fd5b506100b760025481565b6040519081526020015b60405180910390f35b3480156100d657600080fd5b506100ea6100e5366004610f8b565b610218565b6040516100c1929190611061565b34801561010457600080fd5b50600354610118906001600160a01b031681565b6040516001600160a01b0390911681526020016100c1565b61014361013e366004611082565b6104de565b005b34801561015157600080fd5b506101436109be565b34801561016657600080fd5b506000546001600160a01b0316610118565b34801561018457600080fd5b506100b76101933660046110d1565b60046020526000908152604090205481565b6101436101b33660046110f3565b610a68565b3480156101c457600080fd5b506101436101d336600461114d565b610cae565b3480156101e457600080fd5b506101436101f3366004611168565b610d29565b34801561020457600080fd5b5061014361021336600461114d565b610daf565b60006060600188600181111561023057610230611192565b14156102f457600089600160405160200161024c9291906111ca565b60408051601f198184030181529082905260025463a4c51df560e01b83529092506000917360336f9296c79da4294a19153ec87f8e52158e5f9163a4c51df5916102a79160d2918e9088908e9089908f908f906004016111e7565b6040805180830381865afa1580156102c3573d6000803e3d6000fd5b505050506040513d601f19601f820116820180604052508101906102e79190611260565b5093509091506104d29050565b604080516001808252818301909252600091816020015b604080518082019091526000808252602082015281526020019060019003908161030b57905050905060006040518060400160405280732cae934a1e84f693fbb78ca5ed3b0a68932594416001600160a01b031681526020018a8152509050808260008151811061037e5761037e611284565b602002602001018190525060003360008060006040516020016103a4949392919061129a565b60408051808303601f1901815260a083019091526001600160a01b038e1660c083015291506000908060e08101604051602081830303815290604052815260200183815260200185815260200160006001600160a01b0316815260200161041860405180602001604052808e815250610dc3565b90526040516320487ded60e01b8152909150738c8b88d827fe14df2bc6392947d513c86afd6977906320487ded9061045e9067591fe6e0e1a0a5a99085906004016112d4565b602060405180830381865afa15801561047b573d6000803e3d6000fd5b505050506040513d601f19601f8201168201806040525081019061049f91906113ae565b6040516020016104ba90602080825260009082015260400190565b60405160208183030381529060405295509550505050505b97509795505050505050565b6000805260046020527f17ef568e3e12ab5b9c7254a8d58478811de00f9e6eb34345acd53bf8fd09d3ec548410156105315760405162461bcd60e51b8152600401610528906113c7565b60405180910390fd5b8061054e5760405162461bcd60e51b8152600401610528906113c7565b6040516323b872dd60e01b815233600482015230602482015260448101859052732cae934a1e84f693fbb78ca5ed3b0a6893259441906323b872dd906064016020604051808303816000875af11580156105ac573d6000803e3d6000fd5b505050506040513d601f19601f820116820180604052508101906105d091906113f1565b50604080516001808252818301909252600091816020015b60408051808201909152600080825260208201528152602001906001900390816105e857905050905060006040518060400160405280732cae934a1e84f693fbb78ca5ed3b0a68932594416001600160a01b03168152602001878152509050808260008151811061065b5761065b611284565b6020026020010181905250600033600087876040516020016106809493929190611413565b60408051808303601f1901815260a083019091526003546001600160a01b031660c083015291506000908060e08101604051602081830303815290604052815260200183815260200185815260200160006001600160a01b031681526020016106f6604051806020016040528089815250610dc3565b905260405163095ea7b360e01b8152738c8b88d827fe14df2bc6392947d513c86afd697760048201819052602482018b9052919250732cae934a1e84f693fbb78ca5ed3b0a68932594419063095ea7b3906044016020604051808303816000875af1158015610769573d6000803e3d6000fd5b505050506040513d601f19601f8201168201806040525081019061078d91906113f1565b506040516320487ded60e01b81526000906001600160a01b038316906320487ded906107c79067591fe6e0e1a0a5a99087906004016112d4565b602060405180830381865afa1580156107e4573d6000803e3d6000fd5b505050506040513d601f19601f8201168201806040525081019061080891906113ae565b90508034101561084a5760405162461bcd60e51b815260206004820152600d60248201526c746f6f20736d616c6c2066656560981b6044820152606401610528565b8034146108ee57600061085d8234611450565b604051909150600090339083908381818185875af1925050503d80600081146108a2576040519150601f19603f3d011682016040523d82523d6000602084013e6108a7565b606091505b50509050806108eb5760405162461bcd60e51b815260206004820152601060248201526f19985a5b1959081d1bc81c99599d5b9960821b6044820152606401610528565b50505b6040516396f4e9f960e01b81526001600160a01b038316906396f4e9f99083906109269067591fe6e0e1a0a5a99088906004016112d4565b60206040518083038185885af1158015610944573d6000803e3d6000fd5b50505050506040513d601f19601f8201168201806040525081019061096991906113ae565b5060405163ffffffff891681526001600160a01b038a16908b9033907fd4f11ed615cfae7c9b9debc0b8bfc9f3253164b0106cffaa6ea801a29f3b13579060200160405180910390a450505050505050505050565b6001546001600160a01b03163314610a115760405162461bcd60e51b815260206004820152601660248201527526bab9ba10313290383937b837b9b2b21037bbb732b960511b6044820152606401610528565b60008054336001600160a01b0319808316821784556001805490911690556040516001600160a01b0390921692909183917f8be0079c531659141344cd1fd0a4f28419497f9722a3daafe3b4186f6b6457e091a350565b600160005260046020527fabd6e7cb50984ff9c2f3e18a2660c3353dadf4e3291deeb275dae2cd1e44fe0554841015610ab35760405162461bcd60e51b8152600401610528906113c7565b60408051606081018252338152600060208083018290528351601f860182900482028101820185528581529193830191908690869081908401838280828437600092018290525093909452509293509150819050610b1733600189848a8a8a610218565b9150915081341015610b5b5760405162461bcd60e51b815260206004820152600d60248201526c746f6f20736d616c6c2066656560981b6044820152606401610528565b813414610bff576000610b6e8334611450565b604051909150600090339083908381818185875af1925050503d8060008114610bb3576040519150601f19603f3d011682016040523d82523d6000602084013e610bb8565b606091505b5050905080610bfc5760405162461bcd60e51b815260206004820152601060248201526f19985a5b1959081d1bc81c99599d5b9960821b6044820152606401610528565b50505b600254604051630ec4076960e31b81527360336f9296c79da4294a19153ec87f8e52158e5f916376203b48918591610c4691339160d2918e9089908f908d90600401611475565b6000604051808303818588803b158015610c5f57600080fd5b505af1158015610c73573d6000803e3d6000fd5b50506040518a93503392507f222838db2794d11532d940e8dec38ae307ed0b63cd97c233322e221f998767a69150600090a350505050505050565b610cb6610e00565b6001600160a01b038116610d055760405162461bcd60e51b8152602060048201526016602482015275125b9d985b1a59081c995b5bdd1950dbdb9d1c9858dd60521b6044820152606401610528565b600380546001600160a01b039092166001600160a01b031990921682179055600255565b610d31610e00565b80610d725760405162461bcd60e51b8152602060048201526011602482015270125b9d985b1a59081b5a5b905b5bdd5b9d607a1b6044820152606401610528565b8060046000846001811115610d8957610d89611192565b6001811115610d9a57610d9a611192565b81526020810191909152604001600020555050565b610db7610e00565b610dc081610e55565b50565b60408051915160248084019190915281518084039091018152604490920190526020810180516001600160e01b03166397a657c960e01b17905290565b6000546001600160a01b03163314610e535760405162461bcd60e51b815260206004820152601660248201527527b7363c9031b0b63630b1363290313c9037bbb732b960511b6044820152606401610528565b565b6001600160a01b038116331415610eae5760405162461bcd60e51b815260206004820152601760248201527f43616e6e6f74207472616e7366657220746f2073656c660000000000000000006044820152606401610528565b600180546001600160a01b0319166001600160a01b0383811691821790925560008054604051929316917fed8889f560326eb138920d842192f0eb3dd22b4f139c87a2c57538e05bae12789190a350565b80356001600160a01b0381168114610f1657600080fd5b919050565b803560028110610f1657600080fd5b803567ffffffffffffffff81168114610f1657600080fd5b60008083601f840112610f5457600080fd5b50813567ffffffffffffffff811115610f6c57600080fd5b602083019150836020828501011115610f8457600080fd5b9250929050565b600080600080600080600060c0888a031215610fa657600080fd5b610faf88610eff565b9650610fbd60208901610f1b565b95506040880135945060608801359350610fd960808901610f2a565b925060a088013567ffffffffffffffff811115610ff557600080fd5b6110018a828b01610f42565b989b979a50959850939692959293505050565b6000815180845260005b8181101561103a5760208185018101518683018201520161101e565b8181111561104c576000602083870101525b50601f01601f19169290920160200192915050565b82815260406020820152600061107a6040830184611014565b949350505050565b6000806000806080858703121561109857600080fd5b843593506110a860208601610eff565b9250604085013563ffffffff811681146110c157600080fd5b9396929550929360600135925050565b6000602082840312156110e357600080fd5b6110ec82610f1b565b9392505050565b6000806000806060858703121561110957600080fd5b8435935061111960208601610f2a565b9250604085013567ffffffffffffffff81111561113557600080fd5b61114187828801610f42565b95989497509550505050565b60006020828403121561115f57600080fd5b6110ec82610eff565b6000806040838503121561117b57600080fd5b61118483610f1b565b946020939093013593505050565b634e487b7160e01b600052602160045260246000fd5b600281106111c657634e487b7160e01b600052602160045260246000fd5b9052565b6001600160a01b0383168152604081016110ec60208301846111a8565b61ffff8916815287602082015286604082015260e06060820152600061121060e0830188611014565b67ffffffffffffffff8716608084015285151560a084015282810360c0840152838152838560208301376000602085830101526020601f19601f8601168201019150509998505050505050505050565b6000806040838503121561127357600080fd5b505080516020909101519092909150565b634e487b7160e01b600052603260045260246000fd5b6001600160a01b03858116825260808201906112b960208401876111a8565b80851660408401525060ff8316606083015295945050505050565b6000604067ffffffffffffffff8516835260208181850152845160a08386015261130160e0860182611014565b905081860151603f198087840301606088015261131e8383611014565b88860151888203830160808a01528051808352908601945060009350908501905b8084101561137157845180516001600160a01b031683528601518683015293850193600193909301929086019061133f565b5060608901516001600160a01b031660a08901526080890151888203830160c08a015295506113a08187611014565b9a9950505050505050505050565b6000602082840312156113c057600080fd5b5051919050565b60208082526010908201526f185b5bdd5b9d081d1bdbc81cdb585b1b60821b604082015260600190565b60006020828403121561140357600080fd5b815180151581146110ec57600080fd5b6001600160a01b038581168252608082019061143260208401876111a8565b80851660408401525063ffffffff8316606083015295945050505050565b60008282101561147057634e487b7160e01b600052601160045260246000fd5b500390565b600060018060a01b03808a16835261ffff8916602084015287604084015286606084015260e060808401526114ad60e0840187611014565b67ffffffffffffffff861660a085015283810360c085015281855116815281602086015116602082015260408501519150606060408201526114f26060820183611014565b9b9a505050505050505050505056fea2646970667358221220645cb17c79a380db1f9375500238a4bf5daada33d19f973fb712a9f5ff19769464736f6c634300080a0033",
  "devdoc": {
    "kind": "dev",
    "methods": {},
    "version": 1
  },
  "userdoc": {
    "kind": "user",
    "methods": {
      "acceptOwnership()": {
        "notice": "Allows an ownership transfer to be completed by the recipient."
      },
      "owner()": {
        "notice": "Get the current owner"
      },
      "transferOwnership(address)": {
        "notice": "Allows an owner to begin transferring ownership to a new address."
      }
    },
    "version": 1
  },
  "storageLayout": {
    "storage": [
      {
        "astId": 269,
        "contract": "contracts/SoneiumSlpx.sol:SoneiumSlpx",
        "label": "s_owner",
        "offset": 0,
        "slot": "0",
        "type": "t_address"
      },
      {
        "astId": 271,
        "contract": "contracts/SoneiumSlpx.sol:SoneiumSlpx",
        "label": "s_pendingOwner",
        "offset": 0,
        "slot": "1",
        "type": "t_address"
      },
      {
        "astId": 4345,
        "contract": "contracts/SoneiumSlpx.sol:SoneiumSlpx",
        "label": "remoteContract",
        "offset": 0,
        "slot": "2",
        "type": "t_bytes32"
      },
      {
        "astId": 4356,
        "contract": "contracts/SoneiumSlpx.sol:SoneiumSlpx",
        "label": "AstarReceiver",
        "offset": 0,
        "slot": "3",
        "type": "t_address"
      },
      {
        "astId": 4361,
        "contract": "contracts/SoneiumSlpx.sol:SoneiumSlpx",
        "label": "minAmount",
        "offset": 0,
        "slot": "4",
        "type": "t_mapping(t_enum(Operation)5284,t_uint256)"
      }
    ],
    "types": {
      "t_address": {
        "encoding": "inplace",
        "label": "address",
        "numberOfBytes": "20"
      },
      "t_bytes32": {
        "encoding": "inplace",
        "label": "bytes32",
        "numberOfBytes": "32"
      },
      "t_enum(Operation)5284": {
        "encoding": "inplace",
        "label": "enum Types.Operation",
        "numberOfBytes": "1"
      },
      "t_mapping(t_enum(Operation)5284,t_uint256)": {
        "encoding": "mapping",
        "key": "t_enum(Operation)5284",
        "label": "mapping(enum Types.Operation => uint256)",
        "numberOfBytes": "32",
        "value": "t_uint256"
      },
      "t_uint256": {
        "encoding": "inplace",
        "label": "uint256",
        "numberOfBytes": "32"
      }
    }
  }
}