{
  "address": "0x0CbB3409ee9FC6d74A559b7FD2c7AE860d4dBe08",
  "abi": [
    {
      "anonymous": false,
      "inputs": [
        {
          "indexed": false,
          "internalType": "address",
          "name": "assetAddress",
          "type": "address"
        },
        {
          "indexed": false,
          "internalType": "uint128",
          "name": "amount",
          "type": "uint128"
        },
        {
          "indexed": false,
          "internalType": "uint64",
          "name": "dest_chain_id",
          "type": "uint64"
        },
        {
          "indexed": false,
          "internalType": "bytes",
          "name": "receiver",
          "type": "bytes"
        },
        {
          "indexed": false,
          "internalType": "string",
          "name": "remark",
          "type": "string"
        },
        {
          "indexed": false,
          "internalType": "uint32",
          "name": "channel_id",
          "type": "uint32"
        }
      ],
      "name": "CreateOrder",
      "type": "event"
    },
    {
      "anonymous": false,
      "inputs": [
        {
          "indexed": false,
          "internalType": "uint8",
          "name": "version",
          "type": "uint8"
        }
      ],
      "name": "Initialized",
      "type": "event"
    },
    {
      "anonymous": false,
      "inputs": [
        {
          "indexed": false,
          "internalType": "address",
          "name": "minter",
          "type": "address"
        },
        {
          "indexed": false,
          "internalType": "address",
          "name": "assetAddress",
          "type": "address"
        },
        {
          "indexed": false,
          "internalType": "uint256",
          "name": "amount",
          "type": "uint256"
        },
        {
          "indexed": false,
          "internalType": "address",
          "name": "receiver",
          "type": "address"
        },
        {
          "indexed": false,
          "internalType": "bytes",
          "name": "callcode",
          "type": "bytes"
        },
        {
          "indexed": false,
          "internalType": "string",
          "name": "remark",
          "type": "string"
        }
      ],
      "name": "Mint",
      "type": "event"
    },
    {
      "anonymous": false,
      "inputs": [
        {
          "indexed": true,
          "internalType": "address",
          "name": "previousOwner",
          "type": "address"
        },
        {
          "indexed": true,
          "internalType": "address",
          "name": "newOwner",
          "type": "address"
        }
      ],
      "name": "OwnershipTransferred",
      "type": "event"
    },
    {
      "anonymous": false,
      "inputs": [
        {
          "indexed": false,
          "internalType": "address",
          "name": "account",
          "type": "address"
        }
      ],
      "name": "Paused",
      "type": "event"
    },
    {
      "anonymous": false,
      "inputs": [
        {
          "indexed": false,
          "internalType": "address",
          "name": "redeemer",
          "type": "address"
        },
        {
          "indexed": false,
          "internalType": "address",
          "name": "assetAddress",
          "type": "address"
        },
        {
          "indexed": false,
          "internalType": "uint256",
          "name": "amount",
          "type": "uint256"
        },
        {
          "indexed": false,
          "internalType": "address",
          "name": "receiver",
          "type": "address"
        },
        {
          "indexed": false,
          "internalType": "bytes",
          "name": "callcode",
          "type": "bytes"
        }
      ],
      "name": "Redeem",
      "type": "event"
    },
    {
      "anonymous": false,
      "inputs": [
        {
          "indexed": false,
          "internalType": "address",
          "name": "account",
          "type": "address"
        }
      ],
      "name": "Unpaused",
      "type": "event"
    },
    {
      "inputs": [
        {
          "internalType": "address",
          "name": "",
          "type": "address"
        }
      ],
      "name": "addressToAssetInfo",
      "outputs": [
        {
          "internalType": "bytes2",
          "name": "currencyId",
          "type": "bytes2"
        },
        {
          "internalType": "uint256",
          "name": "operationalMin",
          "type": "uint256"
        }
      ],
      "stateMutability": "view",
      "type": "function"
    },
    {
      "inputs": [
        {
          "internalType": "address",
          "name": "assetAddress",
          "type": "address"
        },
        {
          "internalType": "uint128",
          "name": "amount",
          "type": "uint128"
        },
        {
          "internalType": "uint64",
          "name": "dest_chain_id",
          "type": "uint64"
        },
        {
          "internalType": "bytes",
          "name": "receiver",
          "type": "bytes"
        },
        {
          "internalType": "string",
          "name": "remark",
          "type": "string"
        },
        {
          "internalType": "uint32",
          "name": "channel_id",
          "type": "uint32"
        }
      ],
      "name": "create_order",
      "outputs": [],
      "stateMutability": "payable",
      "type": "function"
    },
    {
      "inputs": [
        {
          "internalType": "uint64",
          "name": "",
          "type": "uint64"
        }
      ],
      "name": "destChainInfo",
      "outputs": [
        {
          "internalType": "bool",
          "name": "is_evm",
          "type": "bool"
        },
        {
          "internalType": "bool",
          "name": "is_substrate",
          "type": "bool"
        },
        {
          "internalType": "bytes1",
          "name": "raw_chain_index",
          "type": "bytes1"
        }
      ],
      "stateMutability": "view",
      "type": "function"
    },
    {
      "inputs": [],
      "name": "initialize",
      "outputs": [],
      "stateMutability": "nonpayable",
      "type": "function"
    },
    {
      "inputs": [
        {
          "internalType": "address",
          "name": "assetAddress",
          "type": "address"
        },
        {
          "internalType": "uint256",
          "name": "amount",
          "type": "uint256"
        },
        {
          "internalType": "address",
          "name": "receiver",
          "type": "address"
        },
        {
          "internalType": "string",
          "name": "remark",
          "type": "string"
        }
      ],
      "name": "mintVAsset",
      "outputs": [],
      "stateMutability": "nonpayable",
      "type": "function"
    },
    {
      "inputs": [
        {
          "internalType": "address",
          "name": "assetAddress",
          "type": "address"
        },
        {
          "internalType": "uint256",
          "name": "amount",
          "type": "uint256"
        },
        {
          "internalType": "address",
          "name": "receiver",
          "type": "address"
        },
        {
          "internalType": "string",
          "name": "remark",
          "type": "string"
        },
        {
          "internalType": "uint32",
          "name": "channel_id",
          "type": "uint32"
        }
      ],
      "name": "mintVAssetWithChannelId",
      "outputs": [],
      "stateMutability": "nonpayable",
      "type": "function"
    },
    {
      "inputs": [
        {
          "internalType": "address",
          "name": "receiver",
          "type": "address"
        },
        {
          "internalType": "string",
          "name": "remark",
          "type": "string"
        }
      ],
      "name": "mintVNativeAsset",
      "outputs": [],
      "stateMutability": "payable",
      "type": "function"
    },
    {
      "inputs": [
        {
          "internalType": "address",
          "name": "receiver",
          "type": "address"
        },
        {
          "internalType": "string",
          "name": "remark",
          "type": "string"
        },
        {
          "internalType": "uint32",
          "name": "channel_id",
          "type": "uint32"
        }
      ],
      "name": "mintVNativeAssetWithChannelId",
      "outputs": [],
      "stateMutability": "payable",
      "type": "function"
    },
    {
      "inputs": [
        {
          "internalType": "enum AstarSlpx.Operation",
          "name": "",
          "type": "uint8"
        }
      ],
      "name": "operationToFeeInfo",
      "outputs": [
        {
          "internalType": "uint64",
          "name": "transactRequiredWeightAtMost",
          "type": "uint64"
        },
        {
          "internalType": "uint256",
          "name": "feeAmount",
          "type": "uint256"
        }
      ],
      "stateMutability": "view",
      "type": "function"
    },
    {
      "inputs": [],
      "name": "owner",
      "outputs": [
        {
          "internalType": "address",
          "name": "",
          "type": "address"
        }
      ],
      "stateMutability": "view",
      "type": "function"
    },
    {
      "inputs": [],
      "name": "pause",
      "outputs": [],
      "stateMutability": "nonpayable",
      "type": "function"
    },
    {
      "inputs": [],
      "name": "paused",
      "outputs": [
        {
          "internalType": "bool",
          "name": "",
          "type": "bool"
        }
      ],
      "stateMutability": "view",
      "type": "function"
    },
    {
      "inputs": [
        {
          "internalType": "address",
          "name": "vAssetAddress",
          "type": "address"
        },
        {
          "internalType": "uint256",
          "name": "amount",
          "type": "uint256"
        },
        {
          "internalType": "address",
          "name": "receiver",
          "type": "address"
        }
      ],
      "name": "redeemAsset",
      "outputs": [],
      "stateMutability": "nonpayable",
      "type": "function"
    },
    {
      "inputs": [],
      "name": "renounceOwnership",
      "outputs": [],
      "stateMutability": "nonpayable",
      "type": "function"
    },
    {
      "inputs": [
        {
          "internalType": "address",
          "name": "assetAddress",
          "type": "address"
        },
        {
          "internalType": "bytes2",
          "name": "currencyId",
          "type": "bytes2"
        },
        {
          "internalType": "uint256",
          "name": "minimumValue",
          "type": "uint256"
        }
      ],
      "name": "setAssetAddressInfo",
      "outputs": [],
      "stateMutability": "nonpayable",
      "type": "function"
    },
    {
      "inputs": [
        {
          "internalType": "uint64",
          "name": "dest_chain_id",
          "type": "uint64"
        },
        {
          "internalType": "bool",
          "name": "is_evm",
          "type": "bool"
        },
        {
          "internalType": "bool",
          "name": "is_substrate",
          "type": "bool"
        },
        {
          "internalType": "bytes1",
          "name": "raw_chain_index",
          "type": "bytes1"
        }
      ],
      "name": "setDestChainInfo",
      "outputs": [],
      "stateMutability": "nonpayable",
      "type": "function"
    },
    {
      "inputs": [
        {
          "internalType": "enum AstarSlpx.Operation",
          "name": "_operation",
          "type": "uint8"
        },
        {
          "internalType": "uint64",
          "name": "_transactRequiredWeightAtMost",
          "type": "uint64"
        },
        {
          "internalType": "uint256",
          "name": "_feeAmount",
          "type": "uint256"
        }
      ],
      "name": "setOperationToFeeInfo",
      "outputs": [],
      "stateMutability": "nonpayable",
      "type": "function"
    },
    {
      "inputs": [
        {
          "internalType": "address",
          "name": "newOwner",
          "type": "address"
        }
      ],
      "name": "transferOwnership",
      "outputs": [],
      "stateMutability": "nonpayable",
      "type": "function"
    },
    {
      "inputs": [],
      "name": "unpause",
      "outputs": [],
      "stateMutability": "nonpayable",
      "type": "function"
    }
  ],
  "transactionHash": "0x050ed3e1cf336e99613b4c65cf3f0edf83a0e73982757287f6db43f1bb3dd447",
  "args": [],
  "numDeployments": 4,
  "solcInputHash": "cec6903cb88275ea4b9ead33ff210b7d",
  "bytecode": "0x608060405234801561001057600080fd5b50612bf1806100206000396000f3fe6080604052600436106101145760003560e01c8063670abfc6116100a05780638da5cb5b116100645780638da5cb5b146102dc578063bddef61a14610304578063c864545614610363578063cd800726146103be578063f2fde38b146103de57600080fd5b8063670abfc61461026a5780636b9491ec1461028a578063715018a61461029d5780638129fc1c146102b25780638456cb59146102c757600080fd5b806352b11006116100e757806352b110061461019057806357b0ca04146101b05780635c975abb1461022157806362aba6eb1461024457806362c64fe11461025757600080fd5b806324af0447146101195780632916705c1461013b5780633f4ba83a1461015b5780634899b9a814610170575b600080fd5b34801561012557600080fd5b50610139610134366004612146565b6103fe565b005b34801561014757600080fd5b506101396101563660046121c1565b6105e6565b34801561016757600080fd5b506101396107c8565b34801561017c57600080fd5b5061013961018b366004612239565b6107da565b34801561019c57600080fd5b506101396101ab366004612275565b6109ac565b3480156101bc57600080fd5b506101f56101cb3660046122d8565b60996020526000908152604090205460ff8082169161010081049091169062010000900460f81b83565b60408051931515845291151560208401526001600160f81b031916908201526060015b60405180910390f35b34801561022d57600080fd5b5060655460ff166040519015158152602001610218565b6101396102523660046122f3565b610a77565b6101396102653660046123bc565b610eba565b34801561027657600080fd5b50610139610285366004612418565b6110a0565b610139610298366004612454565b6111e1565b3480156102a957600080fd5b506101396113b9565b3480156102be57600080fd5b506101396113cb565b3480156102d357600080fd5b506101396114fd565b3480156102e857600080fd5b506033546040516001600160a01b039091168152602001610218565b34801561031057600080fd5b5061034461031f3660046124a8565b609860205260009081526040902080546001909101546001600160401b039091169082565b604080516001600160401b039093168352602083019190915201610218565b34801561036f57600080fd5b5061039e61037e3660046124c3565b6097602052600090815260409020805460019091015460f09190911b9082565b604080516001600160f01b03199093168352602083019190915201610218565b3480156103ca57600080fd5b506101396103d93660046124ec565b61150d565b3480156103ea57600080fd5b506101396103f93660046124c3565b6115d4565b6020815111156104295760405162461bcd60e51b815260040161042090612553565b60405180910390fd5b60006104348561164a565b90506104408585611719565b604051600090610456908290869060200161257c565b6040516020818303038152906040529050600073C94B9fEEAc60c3dE5CCf4039B0C45AD67611042363b921552761048a3390565b8585886040518563ffffffff1660e01b81526004016104ac9493929190612600565b600060405180830381865af41580156104c9573d6000803e3d6000fd5b505050506040513d6000823e601f3d908101601f191682016040526104f19190810190612651565b905060006104ff6000611988565b60208101518151604051637c87590960e11b81529293506150049263f90eb2129261054e926107ee9260009273ffffffff000000000000000100000000000000079290918a91906004016126c7565b6020604051808303816000875af115801561056d573d6000803e3d6000fd5b505050506040513d601f19601f82011682018060405250810190610591919061271e565b6105ad5760405162461bcd60e51b81526004016104209061273b565b600080516020612b9c83398151915233898989868a6040516105d496959493929190612767565b60405180910390a15050505050505050565b6020825111156106085760405162461bcd60e51b815260040161042090612553565b60006106138661164a565b905061061f8686611719565b604051600090610635908290879060200161257c565b6040516020818303038152906040529050600073C94B9fEEAc60c3dE5CCf4039B0C45AD6761104236370c8aa2d6106693390565b858589896040518663ffffffff1660e01b815260040161068d9594939291906127c1565b600060405180830381865af41580156106aa573d6000803e3d6000fd5b505050506040513d6000823e601f3d908101601f191682016040526106d29190810190612651565b905060006106e06000611988565b60208101518151604051637c87590960e11b81529293506150049263f90eb2129261072f926107ee9260009273ffffffff000000000000000100000000000000079290918a91906004016126c7565b6020604051808303816000875af115801561074e573d6000803e3d6000fd5b505050506040513d601f19601f82011682018060405250810190610772919061271e565b61078e5760405162461bcd60e51b81526004016104209061273b565b600080516020612b9c833981519152338a8a8a868b6040516107b596959493929190612767565b60405180910390a1505050505050505050565b6107d0611aa3565b6107d8611afd565b565b6107e2611b4f565b60006107ed8461164a565b90506107f98484611719565b60405160009061080f908290859060200161257c565b6040516020818303038152906040529050600073C94B9fEEAc60c3dE5CCf4039B0C45AD676110423639f0047836108433390565b85856040518463ffffffff1660e01b815260040161086393929190612820565b600060405180830381865af4158015610880573d6000803e3d6000fd5b505050506040513d6000823e601f3d908101601f191682016040526108a89190810190612651565b905060006108b66001611988565b60208101518151604051637c87590960e11b81529293506150049263f90eb21292610905926107ee9260009273ffffffff000000000000000100000000000000079290918a91906004016126c7565b6020604051808303816000875af1158015610924573d6000803e3d6000fd5b505050506040513d601f19601f82011682018060405250810190610948919061271e565b6109645760405162461bcd60e51b81526004016104209061273b565b7f89996e9f85ecc9022265638d75df5de89dd421fab215e1b013ece5fcc188adce338888888660405161099b959493929190612854565b60405180910390a150505050505050565b6109b4611aa3565b806109f85760405162461bcd60e51b8152602060048201526014602482015273496e76616c6964206d696e696d756d56616c756560601b6044820152606401610420565b6001600160f01b03198216610a445760405162461bcd60e51b8152602060048201526012602482015271125b9d985b1a590818dd5c9c995b98de525960721b6044820152606401610420565b6001600160a01b03929092166000908152609760205260409020805461ffff191660f09290921c91909117815560010155565b60008251118015610a8a57506020825111155b610aee5760405162461bcd60e51b815260206004820152602f60248201527f72656d61726b206d757374206265206c657373207468616e203332206279746560448201526e7320616e64206e6f7420656d70747960881b6064820152608401610420565b6000856001600160801b031611610b475760405162461bcd60e51b815260206004820152601d60248201527f616d6f756e74206d7573742062652067726561746572207468616e20300000006044820152606401610420565b6001600160401b0384166000908152609960209081526040918290208251606081018452905460ff8082161580158452610100830490911615159383019390935262010000900460f81b6001600160f81b03191692810192909252610bfc578351601414610bf75760405162461bcd60e51b815260206004820152601c60248201527f65766d2061646472657373206d757374206265203230206279746573000000006044820152606401610420565b610cb8565b806020015115610c65578351602014610bf75760405162461bcd60e51b815260206004820152602560248201527f737562737472617465207075626c6963206b6579206d75737420626520333220604482015264627974657360d81b6064820152608401610420565b60405162461bcd60e51b815260206004820152602260248201527f44657374696e6174696f6e20636861696e206973206e6f7420737570706f7274604482015261195960f21b6064820152608401610420565b6000610cc38861164a565b90506001600160a01b038816610ced57349650610ce8876001600160801b0316611b95565b610d00565b610d0088886001600160801b0316611719565b600073C94B9fEEAc60c3dE5CCf4039B0C45AD6761104236309e4f001334643868d89604001518d604051602001610d3892919061288f565b6040516020818303038152906040528c8c6040518963ffffffff1660e01b8152600401610d6c9897969594939291906128c0565b600060405180830381865af4158015610d89573d6000803e3d6000fd5b505050506040513d6000823e601f3d908101601f19168201604052610db19190810190612651565b90506000610dbf6000611988565b60208101518151604051637c87590960e11b81529293506150049263f90eb21292610e0e926107ee9260009273ffffffff000000000000000100000000000000079290918a91906004016126c7565b6020604051808303816000875af1158015610e2d573d6000803e3d6000fd5b505050506040513d601f19601f82011682018060405250810190610e51919061271e565b610e6d5760405162461bcd60e51b81526004016104209061273b565b7f4833a533f452aba531d47f820ee79a351edade0ef9a2e288a3ac9671b6941a0c8a8a8a8a8a8a604051610ea696959493929190612942565b60405180910390a150505050505050505050565b610ec2611b4f565b602081511115610ee45760405162461bcd60e51b815260040161042090612553565b6000610ef0600061164a565b9050610efb34611b95565b604051600090610f11908290869060200161257c565b6040516020818303038152906040529050600073C94B9fEEAc60c3dE5CCf4039B0C45AD67611042363b9215527610f453390565b8585886040518563ffffffff1660e01b8152600401610f679493929190612600565b600060405180830381865af4158015610f84573d6000803e3d6000fd5b505050506040513d6000823e601f3d908101601f19168201604052610fac9190810190612651565b90506000610fba6000611988565b60208101518151604051637c87590960e11b81529293506150049263f90eb21292611009926107ee9260009273ffffffff000000000000000100000000000000079290918a91906004016126c7565b6020604051808303816000875af1158015611028573d6000803e3d6000fd5b505050506040513d601f19601f8201168201806040525081019061104c919061271e565b6110685760405162461bcd60e51b81526004016104209061273b565b600080516020612b9c8339815191523360003489868a60405161109096959493929190612767565b60405180910390a1505050505050565b6110a8611aa3565b6402540be400826001600160401b031611156111155760405162461bcd60e51b815260206004820152602660248201527f7472616e73616374526571756972656457656967687441744d6f737420746f6f604482015265206c6172676560d01b6064820152608401610420565b64e8d4a510008111156111605760405162461bcd60e51b8152602060048201526013602482015272666565416d6f756e7420746f6f206c6172676560681b6044820152606401610420565b6040518060400160405280836001600160401b031681526020018281525060986000856003811115611194576111946129b0565b60038111156111a5576111a56129b0565b81526020808201929092526040016000208251815467ffffffffffffffff19166001600160401b03909116178155910151600190910155505050565b6111e9611b4f565b60208251111561120b5760405162461bcd60e51b815260040161042090612553565b6000611217600061164a565b905061122234611b95565b604051600090611238908290879060200161257c565b6040516020818303038152906040529050600073C94B9fEEAc60c3dE5CCf4039B0C45AD6761104236370c8aa2d61126c3390565b858589896040518663ffffffff1660e01b81526004016112909594939291906127c1565b600060405180830381865af41580156112ad573d6000803e3d6000fd5b505050506040513d6000823e601f3d908101601f191682016040526112d59190810190612651565b905060006112e36000611988565b60208101518151604051637c87590960e11b81529293506150049263f90eb21292611332926107ee9260009273ffffffff000000000000000100000000000000079290918a91906004016126c7565b6020604051808303816000875af1158015611351573d6000803e3d6000fd5b505050506040513d601f19601f82011682018060405250810190611375919061271e565b6113915760405162461bcd60e51b81526004016104209061273b565b600080516020612b9c833981519152336000348a868b60405161099b96959493929190612767565b6113c1611aa3565b6107d86000611dc1565b600054610100900460ff16158080156113eb5750600054600160ff909116105b806114055750303b158015611405575060005460ff166001145b6114685760405162461bcd60e51b815260206004820152602e60248201527f496e697469616c697a61626c653a20636f6e747261637420697320616c72656160448201526d191e481a5b9a5d1a585b1a5e995960921b6064820152608401610420565b6000805460ff19166001179055801561148b576000805461ff0019166101001790555b611493611e13565b61149b611e42565b6114b4600061080360f01b670de0b6b3a76400006109ac565b80156114fa576000805461ff0019169055604051600181527f7f26b83ff96e1f2b6a682f133852f6798a09c465da95921460cefb38474024989060200160405180910390a15b50565b611505611aa3565b6107d8611e71565b611515611aa3565b82801561151f5750815b156115805760405162461bcd60e51b815260206004820152602b60248201527f426f74682069735f65766d20616e642069735f7375627374726174652063616e60448201526a6e6f74206265207472756560a81b6064820152608401610420565b6001600160401b03939093166000908152609960205260409020805461ffff191692151561ff00191692909217610100911515919091021762ff000019166201000060f89390931c92909202919091179055565b6115dc611aa3565b6001600160a01b0381166116415760405162461bcd60e51b815260206004820152602660248201527f4f776e61626c653a206e6577206f776e657220697320746865207a65726f206160448201526564647265737360d01b6064820152608401610420565b6114fa81611dc1565b6001600160a01b03811660009081526097602090815260408083208151808301909252805460f01b6001600160f01b031916825260010154918101829052906116ca5760405162461bcd60e51b8152602060048201526012602482015271105cdcd95d081a5cc81b9bdd08195e1a5cdd60721b6044820152606401610420565b80516001600160f01b0319166117125760405162461bcd60e51b815260206004820152600d60248201526c125b9d985b1a5908185cdcd95d609a1b6044820152606401610420565b5192915050565b6001600160a01b0382166117665760405162461bcd60e51b8152602060048201526014602482015273496e76616c69642061737365744164647265737360601b6044820152606401610420565b6001600160a01b0382166000908152609760205260409020600101548110156117ca5760405162461bcd60e51b81526020600482015260166024820152754c657373207468616e204d696e696d756d56616c756560501b6044820152606401610420565b6000738F8F6B104190a4A24CcFf7B4006Ea7A59baeAf816332640a52336040516001600160e01b031960e084901b1681526001600160a01b039091166004820152602401602060405180830381865af415801561182b573d6000803e3d6000fd5b505050506040513d601f19601f8201168201806040525081019061184f91906129c6565b9050600061185c82611eae565b9050836001600160a01b0381166323b872dd336040516001600160e01b031960e084901b1681526001600160a01b039091166004820152306024820152604481018790526064016020604051808303816000875af11580156118c2573d6000803e3d6000fd5b505050506040513d601f19601f820116820180604052508101906118e6919061271e565b50604080518082018252600080825260208201529051630d8eb59560e31b815261500491636c75aca891611922918991899188916004016129df565b6020604051808303816000875af1158015611941573d6000803e3d6000fd5b505050506040513d601f19601f82011682018060405250810190611965919061271e565b6119815760405162461bcd60e51b81526004016104209061273b565b5050505050565b60408051808201909152600080825260208201526000609860008460038111156119b4576119b46129b0565b60038111156119c5576119c56129b0565b81526020808201929092526040908101600020815180830190925280546001600160401b0316808352600190910154928201929092529150611a555760405162461bcd60e51b8152602060048201526024808201527f496e76616c6964207472616e7361637452657175697265645765696768744174604482015263135bdcdd60e21b6064820152608401610420565b6000816020015111611a9d5760405162461bcd60e51b8152602060048201526011602482015270125b9d985b1a5908199959505b5bdd5b9d607a1b6044820152606401610420565b92915050565b6033546001600160a01b031633146107d85760405162461bcd60e51b815260206004820181905260248201527f4f776e61626c653a2063616c6c6572206973206e6f7420746865206f776e65726044820152606401610420565b611b05611fac565b6065805460ff191690557f5db9ee0a495bf2e6ff9c91a7834c1ba4fdd244a5e8aa4e537bd38aeae4b073aa335b6040516001600160a01b03909116815260200160405180910390a1565b60655460ff16156107d85760405162461bcd60e51b815260206004820152601060248201526f14185d5cd8589b194e881c185d5cd95960821b6044820152606401610420565b6000805260976020527f683723e34a772b6e4f2c919bba7fa32ed8ea11a8325f54da7db716e9d9dd98c854811015611c085760405162461bcd60e51b81526020600482015260166024820152754c657373207468616e204d696e696d756d56616c756560501b6044820152606401610420565b6000738F8F6B104190a4A24CcFf7B4006Ea7A59baeAf816332640a52336040516001600160e01b031960e084901b1681526001600160a01b039091166004820152602401602060405180830381865af4158015611c69573d6000803e3d6000fd5b505050506040513d601f19601f82011682018060405250810190611c8d91906129c6565b60408051600180825281830190925291925060009190602080830190803683375050604080516001808252818301909252929350600092915060208083019080368337019050509050600082600081518110611ceb57611ceb612a8e565b60200260200101906001600160a01b031690816001600160a01b0316815250508381600081518110611d1f57611d1f612a8e565b602090810291909101015260405163400c0e8d60e01b81526150049063400c0e8d90611d5c908590859088906000906107ee908290600401612aa4565b6020604051808303816000875af1158015611d7b573d6000803e3d6000fd5b505050506040513d601f19601f82011682018060405250810190611d9f919061271e565b611dbb5760405162461bcd60e51b81526004016104209061273b565b50505050565b603380546001600160a01b038381166001600160a01b0319831681179093556040519116919082907f8be0079c531659141344cd1fd0a4f28419497f9722a3daafe3b4186f6b6457e090600090a35050565b600054610100900460ff16611e3a5760405162461bcd60e51b815260040161042090612b50565b6107d8611ff5565b600054610100900460ff16611e695760405162461bcd60e51b815260040161042090612b50565b6107d8612025565b611e79611b4f565b6065805460ff191660011790557f62e78cea01bee320cd4e420270b5ea74000d11b0c9f74754ebdbfc544b05a258611b323390565b60408051808201825260008082526060602083018190528351600280825291810190945291929091816020015b6060815260200190600190039081611edb57905050604051600060208201526103f760e11b602182015290915060250160405160208183030381529060405281600081518110611f2d57611f2d612a8e565b602002602001018190525082604051602001611f609190600160f81b815260018101919091526000602182015260220190565b60405160208183030381529060405281600181518110611f8257611f82612a8e565b60209081029190910181019190915260408051808201909152600181529081019190915292915050565b60655460ff166107d85760405162461bcd60e51b815260206004820152601460248201527314185d5cd8589b194e881b9bdd081c185d5cd95960621b6044820152606401610420565b600054610100900460ff1661201c5760405162461bcd60e51b815260040161042090612b50565b6107d833611dc1565b600054610100900460ff1661204c5760405162461bcd60e51b815260040161042090612b50565b6065805460ff19169055565b80356001600160a01b038116811461206f57600080fd5b919050565b634e487b7160e01b600052604160045260246000fd5b604051601f8201601f191681016001600160401b03811182821017156120b2576120b2612074565b604052919050565b60006001600160401b038211156120d3576120d3612074565b50601f01601f191660200190565b60006120f46120ef846120ba565b61208a565b905082815283838301111561210857600080fd5b828260208301376000602084830101529392505050565b600082601f83011261213057600080fd5b61213f838335602085016120e1565b9392505050565b6000806000806080858703121561215c57600080fd5b61216585612058565b93506020850135925061217a60408601612058565b915060608501356001600160401b0381111561219557600080fd5b6121a18782880161211f565b91505092959194509250565b803563ffffffff8116811461206f57600080fd5b600080600080600060a086880312156121d957600080fd5b6121e286612058565b9450602086013593506121f760408701612058565b925060608601356001600160401b0381111561221257600080fd5b61221e8882890161211f565b92505061222d608087016121ad565b90509295509295909350565b60008060006060848603121561224e57600080fd5b61225784612058565b92506020840135915061226c60408501612058565b90509250925092565b60008060006060848603121561228a57600080fd5b61229384612058565b925060208401356001600160f01b0319811681146122b057600080fd5b929592945050506040919091013590565b80356001600160401b038116811461206f57600080fd5b6000602082840312156122ea57600080fd5b61213f826122c1565b60008060008060008060c0878903121561230c57600080fd5b61231587612058565b955060208701356001600160801b038116811461233157600080fd5b945061233f604088016122c1565b935060608701356001600160401b038082111561235b57600080fd5b818901915089601f83011261236f57600080fd5b61237e8a8335602085016120e1565b9450608089013591508082111561239457600080fd5b506123a189828a0161211f565b9250506123b060a088016121ad565b90509295509295509295565b600080604083850312156123cf57600080fd5b6123d883612058565b915060208301356001600160401b038111156123f357600080fd5b6123ff8582860161211f565b9150509250929050565b80356004811061206f57600080fd5b60008060006060848603121561242d57600080fd5b61243684612409565b9250612444602085016122c1565b9150604084013590509250925092565b60008060006060848603121561246957600080fd5b61247284612058565b925060208401356001600160401b0381111561248d57600080fd5b6124998682870161211f565b92505061226c604085016121ad565b6000602082840312156124ba57600080fd5b61213f82612409565b6000602082840312156124d557600080fd5b61213f82612058565b80151581146114fa57600080fd5b6000806000806080858703121561250257600080fd5b61250b856122c1565b9350602085013561251b816124de565b9250604085013561252b816124de565b915060608501356001600160f81b03198116811461254857600080fd5b939692955090935050565b6020808252600f908201526e72656d61726b20746f6f206c6f6e6760881b604082015260600190565b6001600160f81b031992909216825260601b6bffffffffffffffffffffffff1916600182015260150190565b60005b838110156125c35781810151838201526020016125ab565b83811115611dbb5750506000910152565b600081518084526125ec8160208601602086016125a8565b601f01601f19169290920160200192915050565b6001600160a01b03851681526001600160f01b031984166020820152608060408201819052600090612634908301856125d4565b828103606084015261264681856125d4565b979650505050505050565b60006020828403121561266357600080fd5b81516001600160401b0381111561267957600080fd5b8201601f8101841361268a57600080fd5b80516126986120ef826120ba565b8181528560208385010111156126ad57600080fd5b6126be8260208301602086016125a8565b95945050505050565b63ffffffff87168152851515602082015260018060a01b038516604082015283606082015260c06080820152600061270260c08301856125d4565b90506001600160401b03831660a0830152979650505050505050565b60006020828403121561273057600080fd5b815161213f816124de565b6020808252601290820152714661696c656420746f2073656e642078636d60701b604082015260600190565b6001600160a01b0387811682528681166020830152604082018690528416606082015260c0608082018190526000906127a2908301856125d4565b82810360a08401526127b481856125d4565b9998505050505050505050565b6001600160a01b03861681526001600160f01b03198516602082015260a0604082018190526000906127f5908301866125d4565b828103606084015261280781866125d4565b91505063ffffffff831660808301529695505050505050565b6001600160a01b03841681526001600160f01b0319831660208201526060604082018190526000906126be908301846125d4565b6001600160a01b0386811682528581166020830152604082018590528316606082015260a060808201819052600090612646908301846125d4565b6001600160f81b03198316815281516000906128b28160018501602087016125a8565b919091016001019392505050565b6001600160a01b038916815260208101889052604081018790526001600160f01b0319861660608201526001600160801b038516608082015261010060a08201819052600090612912838201876125d4565b905082810360c084015261292681866125d4565b91505063ffffffff831660e08301529998505050505050505050565b6001600160a01b03871681526001600160801b03861660208201526001600160401b038516604082015260c060608201819052600090612984908301866125d4565b828103608084015261299681866125d4565b91505063ffffffff831660a0830152979650505050505050565b634e487b7160e01b600052602160045260246000fd5b6000602082840312156129d857600080fd5b5051919050565b60018060a01b038516815260006020858184015260a0604084015260e0830160ff86511660a085015281860151604060c086015281815180845261010093508387019150838160051b8801019350848301925060005b81811015612a635760ff19888603018352612a518585516125d4565b94509285019291850191600101612a35565b505086516001600160401b0390811660608801526020880151166080870152509092506126be915050565b634e487b7160e01b600052603260045260246000fd5b60c0808252875190820181905260009060209060e0840190828b01845b82811015612ae65781516001600160a01b031684529284019290840190600101612ac1565b5050508381038285015288518082528983019183019060005b81811015612b1b57835183529284019291840191600101612aff565b50506040850189905287151560608601529250612b36915050565b63ffffffff93909316608082015260a00152949350505050565b6020808252602b908201527f496e697469616c697a61626c653a20636f6e7472616374206973206e6f74206960408201526a6e697469616c697a696e6760a81b60608201526080019056feca31869d7c65b3930a575eef33c6f69db06b0f1168af96408c4fceca8de0fadca26469706673582212205048f2eed1ab0316f6dbe74b77bc46cd5307ad532eb1ab81422d8963fec64d5364736f6c634300080a0033",
  "deployedBytecode": "0x6080604052600436106101145760003560e01c8063670abfc6116100a05780638da5cb5b116100645780638da5cb5b146102dc578063bddef61a14610304578063c864545614610363578063cd800726146103be578063f2fde38b146103de57600080fd5b8063670abfc61461026a5780636b9491ec1461028a578063715018a61461029d5780638129fc1c146102b25780638456cb59146102c757600080fd5b806352b11006116100e757806352b110061461019057806357b0ca04146101b05780635c975abb1461022157806362aba6eb1461024457806362c64fe11461025757600080fd5b806324af0447146101195780632916705c1461013b5780633f4ba83a1461015b5780634899b9a814610170575b600080fd5b34801561012557600080fd5b50610139610134366004612146565b6103fe565b005b34801561014757600080fd5b506101396101563660046121c1565b6105e6565b34801561016757600080fd5b506101396107c8565b34801561017c57600080fd5b5061013961018b366004612239565b6107da565b34801561019c57600080fd5b506101396101ab366004612275565b6109ac565b3480156101bc57600080fd5b506101f56101cb3660046122d8565b60996020526000908152604090205460ff8082169161010081049091169062010000900460f81b83565b60408051931515845291151560208401526001600160f81b031916908201526060015b60405180910390f35b34801561022d57600080fd5b5060655460ff166040519015158152602001610218565b6101396102523660046122f3565b610a77565b6101396102653660046123bc565b610eba565b34801561027657600080fd5b50610139610285366004612418565b6110a0565b610139610298366004612454565b6111e1565b3480156102a957600080fd5b506101396113b9565b3480156102be57600080fd5b506101396113cb565b3480156102d357600080fd5b506101396114fd565b3480156102e857600080fd5b506033546040516001600160a01b039091168152602001610218565b34801561031057600080fd5b5061034461031f3660046124a8565b609860205260009081526040902080546001909101546001600160401b039091169082565b604080516001600160401b039093168352602083019190915201610218565b34801561036f57600080fd5b5061039e61037e3660046124c3565b6097602052600090815260409020805460019091015460f09190911b9082565b604080516001600160f01b03199093168352602083019190915201610218565b3480156103ca57600080fd5b506101396103d93660046124ec565b61150d565b3480156103ea57600080fd5b506101396103f93660046124c3565b6115d4565b6020815111156104295760405162461bcd60e51b815260040161042090612553565b60405180910390fd5b60006104348561164a565b90506104408585611719565b604051600090610456908290869060200161257c565b6040516020818303038152906040529050600073__$e184f4046250cd750dfdb139628ab13bdc$__63b921552761048a3390565b8585886040518563ffffffff1660e01b81526004016104ac9493929190612600565b600060405180830381865af41580156104c9573d6000803e3d6000fd5b505050506040513d6000823e601f3d908101601f191682016040526104f19190810190612651565b905060006104ff6000611988565b60208101518151604051637c87590960e11b81529293506150049263f90eb2129261054e926107ee9260009273ffffffff000000000000000100000000000000079290918a91906004016126c7565b6020604051808303816000875af115801561056d573d6000803e3d6000fd5b505050506040513d601f19601f82011682018060405250810190610591919061271e565b6105ad5760405162461bcd60e51b81526004016104209061273b565b600080516020612b9c83398151915233898989868a6040516105d496959493929190612767565b60405180910390a15050505050505050565b6020825111156106085760405162461bcd60e51b815260040161042090612553565b60006106138661164a565b905061061f8686611719565b604051600090610635908290879060200161257c565b6040516020818303038152906040529050600073__$e184f4046250cd750dfdb139628ab13bdc$__6370c8aa2d6106693390565b858589896040518663ffffffff1660e01b815260040161068d9594939291906127c1565b600060405180830381865af41580156106aa573d6000803e3d6000fd5b505050506040513d6000823e601f3d908101601f191682016040526106d29190810190612651565b905060006106e06000611988565b60208101518151604051637c87590960e11b81529293506150049263f90eb2129261072f926107ee9260009273ffffffff000000000000000100000000000000079290918a91906004016126c7565b6020604051808303816000875af115801561074e573d6000803e3d6000fd5b505050506040513d601f19601f82011682018060405250810190610772919061271e565b61078e5760405162461bcd60e51b81526004016104209061273b565b600080516020612b9c833981519152338a8a8a868b6040516107b596959493929190612767565b60405180910390a1505050505050505050565b6107d0611aa3565b6107d8611afd565b565b6107e2611b4f565b60006107ed8461164a565b90506107f98484611719565b60405160009061080f908290859060200161257c565b6040516020818303038152906040529050600073__$e184f4046250cd750dfdb139628ab13bdc$__639f0047836108433390565b85856040518463ffffffff1660e01b815260040161086393929190612820565b600060405180830381865af4158015610880573d6000803e3d6000fd5b505050506040513d6000823e601f3d908101601f191682016040526108a89190810190612651565b905060006108b66001611988565b60208101518151604051637c87590960e11b81529293506150049263f90eb21292610905926107ee9260009273ffffffff000000000000000100000000000000079290918a91906004016126c7565b6020604051808303816000875af1158015610924573d6000803e3d6000fd5b505050506040513d601f19601f82011682018060405250810190610948919061271e565b6109645760405162461bcd60e51b81526004016104209061273b565b7f89996e9f85ecc9022265638d75df5de89dd421fab215e1b013ece5fcc188adce338888888660405161099b959493929190612854565b60405180910390a150505050505050565b6109b4611aa3565b806109f85760405162461bcd60e51b8152602060048201526014602482015273496e76616c6964206d696e696d756d56616c756560601b6044820152606401610420565b6001600160f01b03198216610a445760405162461bcd60e51b8152602060048201526012602482015271125b9d985b1a590818dd5c9c995b98de525960721b6044820152606401610420565b6001600160a01b03929092166000908152609760205260409020805461ffff191660f09290921c91909117815560010155565b60008251118015610a8a57506020825111155b610aee5760405162461bcd60e51b815260206004820152602f60248201527f72656d61726b206d757374206265206c657373207468616e203332206279746560448201526e7320616e64206e6f7420656d70747960881b6064820152608401610420565b6000856001600160801b031611610b475760405162461bcd60e51b815260206004820152601d60248201527f616d6f756e74206d7573742062652067726561746572207468616e20300000006044820152606401610420565b6001600160401b0384166000908152609960209081526040918290208251606081018452905460ff8082161580158452610100830490911615159383019390935262010000900460f81b6001600160f81b03191692810192909252610bfc578351601414610bf75760405162461bcd60e51b815260206004820152601c60248201527f65766d2061646472657373206d757374206265203230206279746573000000006044820152606401610420565b610cb8565b806020015115610c65578351602014610bf75760405162461bcd60e51b815260206004820152602560248201527f737562737472617465207075626c6963206b6579206d75737420626520333220604482015264627974657360d81b6064820152608401610420565b60405162461bcd60e51b815260206004820152602260248201527f44657374696e6174696f6e20636861696e206973206e6f7420737570706f7274604482015261195960f21b6064820152608401610420565b6000610cc38861164a565b90506001600160a01b038816610ced57349650610ce8876001600160801b0316611b95565b610d00565b610d0088886001600160801b0316611719565b600073__$e184f4046250cd750dfdb139628ab13bdc$__6309e4f001334643868d89604001518d604051602001610d3892919061288f565b6040516020818303038152906040528c8c6040518963ffffffff1660e01b8152600401610d6c9897969594939291906128c0565b600060405180830381865af4158015610d89573d6000803e3d6000fd5b505050506040513d6000823e601f3d908101601f19168201604052610db19190810190612651565b90506000610dbf6000611988565b60208101518151604051637c87590960e11b81529293506150049263f90eb21292610e0e926107ee9260009273ffffffff000000000000000100000000000000079290918a91906004016126c7565b6020604051808303816000875af1158015610e2d573d6000803e3d6000fd5b505050506040513d601f19601f82011682018060405250810190610e51919061271e565b610e6d5760405162461bcd60e51b81526004016104209061273b565b7f4833a533f452aba531d47f820ee79a351edade0ef9a2e288a3ac9671b6941a0c8a8a8a8a8a8a604051610ea696959493929190612942565b60405180910390a150505050505050505050565b610ec2611b4f565b602081511115610ee45760405162461bcd60e51b815260040161042090612553565b6000610ef0600061164a565b9050610efb34611b95565b604051600090610f11908290869060200161257c565b6040516020818303038152906040529050600073__$e184f4046250cd750dfdb139628ab13bdc$__63b9215527610f453390565b8585886040518563ffffffff1660e01b8152600401610f679493929190612600565b600060405180830381865af4158015610f84573d6000803e3d6000fd5b505050506040513d6000823e601f3d908101601f19168201604052610fac9190810190612651565b90506000610fba6000611988565b60208101518151604051637c87590960e11b81529293506150049263f90eb21292611009926107ee9260009273ffffffff000000000000000100000000000000079290918a91906004016126c7565b6020604051808303816000875af1158015611028573d6000803e3d6000fd5b505050506040513d601f19601f8201168201806040525081019061104c919061271e565b6110685760405162461bcd60e51b81526004016104209061273b565b600080516020612b9c8339815191523360003489868a60405161109096959493929190612767565b60405180910390a1505050505050565b6110a8611aa3565b6402540be400826001600160401b031611156111155760405162461bcd60e51b815260206004820152602660248201527f7472616e73616374526571756972656457656967687441744d6f737420746f6f604482015265206c6172676560d01b6064820152608401610420565b64e8d4a510008111156111605760405162461bcd60e51b8152602060048201526013602482015272666565416d6f756e7420746f6f206c6172676560681b6044820152606401610420565b6040518060400160405280836001600160401b031681526020018281525060986000856003811115611194576111946129b0565b60038111156111a5576111a56129b0565b81526020808201929092526040016000208251815467ffffffffffffffff19166001600160401b03909116178155910151600190910155505050565b6111e9611b4f565b60208251111561120b5760405162461bcd60e51b815260040161042090612553565b6000611217600061164a565b905061122234611b95565b604051600090611238908290879060200161257c565b6040516020818303038152906040529050600073__$e184f4046250cd750dfdb139628ab13bdc$__6370c8aa2d61126c3390565b858589896040518663ffffffff1660e01b81526004016112909594939291906127c1565b600060405180830381865af41580156112ad573d6000803e3d6000fd5b505050506040513d6000823e601f3d908101601f191682016040526112d59190810190612651565b905060006112e36000611988565b60208101518151604051637c87590960e11b81529293506150049263f90eb21292611332926107ee9260009273ffffffff000000000000000100000000000000079290918a91906004016126c7565b6020604051808303816000875af1158015611351573d6000803e3d6000fd5b505050506040513d601f19601f82011682018060405250810190611375919061271e565b6113915760405162461bcd60e51b81526004016104209061273b565b600080516020612b9c833981519152336000348a868b60405161099b96959493929190612767565b6113c1611aa3565b6107d86000611dc1565b600054610100900460ff16158080156113eb5750600054600160ff909116105b806114055750303b158015611405575060005460ff166001145b6114685760405162461bcd60e51b815260206004820152602e60248201527f496e697469616c697a61626c653a20636f6e747261637420697320616c72656160448201526d191e481a5b9a5d1a585b1a5e995960921b6064820152608401610420565b6000805460ff19166001179055801561148b576000805461ff0019166101001790555b611493611e13565b61149b611e42565b6114b4600061080360f01b670de0b6b3a76400006109ac565b80156114fa576000805461ff0019169055604051600181527f7f26b83ff96e1f2b6a682f133852f6798a09c465da95921460cefb38474024989060200160405180910390a15b50565b611505611aa3565b6107d8611e71565b611515611aa3565b82801561151f5750815b156115805760405162461bcd60e51b815260206004820152602b60248201527f426f74682069735f65766d20616e642069735f7375627374726174652063616e60448201526a6e6f74206265207472756560a81b6064820152608401610420565b6001600160401b03939093166000908152609960205260409020805461ffff191692151561ff00191692909217610100911515919091021762ff000019166201000060f89390931c92909202919091179055565b6115dc611aa3565b6001600160a01b0381166116415760405162461bcd60e51b815260206004820152602660248201527f4f776e61626c653a206e6577206f776e657220697320746865207a65726f206160448201526564647265737360d01b6064820152608401610420565b6114fa81611dc1565b6001600160a01b03811660009081526097602090815260408083208151808301909252805460f01b6001600160f01b031916825260010154918101829052906116ca5760405162461bcd60e51b8152602060048201526012602482015271105cdcd95d081a5cc81b9bdd08195e1a5cdd60721b6044820152606401610420565b80516001600160f01b0319166117125760405162461bcd60e51b815260206004820152600d60248201526c125b9d985b1a5908185cdcd95d609a1b6044820152606401610420565b5192915050565b6001600160a01b0382166117665760405162461bcd60e51b8152602060048201526014602482015273496e76616c69642061737365744164647265737360601b6044820152606401610420565b6001600160a01b0382166000908152609760205260409020600101548110156117ca5760405162461bcd60e51b81526020600482015260166024820152754c657373207468616e204d696e696d756d56616c756560501b6044820152606401610420565b600073__$ddfb0e6c1c4d05795fcce73a90830b0995$__6332640a52336040516001600160e01b031960e084901b1681526001600160a01b039091166004820152602401602060405180830381865af415801561182b573d6000803e3d6000fd5b505050506040513d601f19601f8201168201806040525081019061184f91906129c6565b9050600061185c82611eae565b9050836001600160a01b0381166323b872dd336040516001600160e01b031960e084901b1681526001600160a01b039091166004820152306024820152604481018790526064016020604051808303816000875af11580156118c2573d6000803e3d6000fd5b505050506040513d601f19601f820116820180604052508101906118e6919061271e565b50604080518082018252600080825260208201529051630d8eb59560e31b815261500491636c75aca891611922918991899188916004016129df565b6020604051808303816000875af1158015611941573d6000803e3d6000fd5b505050506040513d601f19601f82011682018060405250810190611965919061271e565b6119815760405162461bcd60e51b81526004016104209061273b565b5050505050565b60408051808201909152600080825260208201526000609860008460038111156119b4576119b46129b0565b60038111156119c5576119c56129b0565b81526020808201929092526040908101600020815180830190925280546001600160401b0316808352600190910154928201929092529150611a555760405162461bcd60e51b8152602060048201526024808201527f496e76616c6964207472616e7361637452657175697265645765696768744174604482015263135bdcdd60e21b6064820152608401610420565b6000816020015111611a9d5760405162461bcd60e51b8152602060048201526011602482015270125b9d985b1a5908199959505b5bdd5b9d607a1b6044820152606401610420565b92915050565b6033546001600160a01b031633146107d85760405162461bcd60e51b815260206004820181905260248201527f4f776e61626c653a2063616c6c6572206973206e6f7420746865206f776e65726044820152606401610420565b611b05611fac565b6065805460ff191690557f5db9ee0a495bf2e6ff9c91a7834c1ba4fdd244a5e8aa4e537bd38aeae4b073aa335b6040516001600160a01b03909116815260200160405180910390a1565b60655460ff16156107d85760405162461bcd60e51b815260206004820152601060248201526f14185d5cd8589b194e881c185d5cd95960821b6044820152606401610420565b6000805260976020527f683723e34a772b6e4f2c919bba7fa32ed8ea11a8325f54da7db716e9d9dd98c854811015611c085760405162461bcd60e51b81526020600482015260166024820152754c657373207468616e204d696e696d756d56616c756560501b6044820152606401610420565b600073__$ddfb0e6c1c4d05795fcce73a90830b0995$__6332640a52336040516001600160e01b031960e084901b1681526001600160a01b039091166004820152602401602060405180830381865af4158015611c69573d6000803e3d6000fd5b505050506040513d601f19601f82011682018060405250810190611c8d91906129c6565b60408051600180825281830190925291925060009190602080830190803683375050604080516001808252818301909252929350600092915060208083019080368337019050509050600082600081518110611ceb57611ceb612a8e565b60200260200101906001600160a01b031690816001600160a01b0316815250508381600081518110611d1f57611d1f612a8e565b602090810291909101015260405163400c0e8d60e01b81526150049063400c0e8d90611d5c908590859088906000906107ee908290600401612aa4565b6020604051808303816000875af1158015611d7b573d6000803e3d6000fd5b505050506040513d601f19601f82011682018060405250810190611d9f919061271e565b611dbb5760405162461bcd60e51b81526004016104209061273b565b50505050565b603380546001600160a01b038381166001600160a01b0319831681179093556040519116919082907f8be0079c531659141344cd1fd0a4f28419497f9722a3daafe3b4186f6b6457e090600090a35050565b600054610100900460ff16611e3a5760405162461bcd60e51b815260040161042090612b50565b6107d8611ff5565b600054610100900460ff16611e695760405162461bcd60e51b815260040161042090612b50565b6107d8612025565b611e79611b4f565b6065805460ff191660011790557f62e78cea01bee320cd4e420270b5ea74000d11b0c9f74754ebdbfc544b05a258611b323390565b60408051808201825260008082526060602083018190528351600280825291810190945291929091816020015b6060815260200190600190039081611edb57905050604051600060208201526103f760e11b602182015290915060250160405160208183030381529060405281600081518110611f2d57611f2d612a8e565b602002602001018190525082604051602001611f609190600160f81b815260018101919091526000602182015260220190565b60405160208183030381529060405281600181518110611f8257611f82612a8e565b60209081029190910181019190915260408051808201909152600181529081019190915292915050565b60655460ff166107d85760405162461bcd60e51b815260206004820152601460248201527314185d5cd8589b194e881b9bdd081c185d5cd95960621b6044820152606401610420565b600054610100900460ff1661201c5760405162461bcd60e51b815260040161042090612b50565b6107d833611dc1565b600054610100900460ff1661204c5760405162461bcd60e51b815260040161042090612b50565b6065805460ff19169055565b80356001600160a01b038116811461206f57600080fd5b919050565b634e487b7160e01b600052604160045260246000fd5b604051601f8201601f191681016001600160401b03811182821017156120b2576120b2612074565b604052919050565b60006001600160401b038211156120d3576120d3612074565b50601f01601f191660200190565b60006120f46120ef846120ba565b61208a565b905082815283838301111561210857600080fd5b828260208301376000602084830101529392505050565b600082601f83011261213057600080fd5b61213f838335602085016120e1565b9392505050565b6000806000806080858703121561215c57600080fd5b61216585612058565b93506020850135925061217a60408601612058565b915060608501356001600160401b0381111561219557600080fd5b6121a18782880161211f565b91505092959194509250565b803563ffffffff8116811461206f57600080fd5b600080600080600060a086880312156121d957600080fd5b6121e286612058565b9450602086013593506121f760408701612058565b925060608601356001600160401b0381111561221257600080fd5b61221e8882890161211f565b92505061222d608087016121ad565b90509295509295909350565b60008060006060848603121561224e57600080fd5b61225784612058565b92506020840135915061226c60408501612058565b90509250925092565b60008060006060848603121561228a57600080fd5b61229384612058565b925060208401356001600160f01b0319811681146122b057600080fd5b929592945050506040919091013590565b80356001600160401b038116811461206f57600080fd5b6000602082840312156122ea57600080fd5b61213f826122c1565b60008060008060008060c0878903121561230c57600080fd5b61231587612058565b955060208701356001600160801b038116811461233157600080fd5b945061233f604088016122c1565b935060608701356001600160401b038082111561235b57600080fd5b818901915089601f83011261236f57600080fd5b61237e8a8335602085016120e1565b9450608089013591508082111561239457600080fd5b506123a189828a0161211f565b9250506123b060a088016121ad565b90509295509295509295565b600080604083850312156123cf57600080fd5b6123d883612058565b915060208301356001600160401b038111156123f357600080fd5b6123ff8582860161211f565b9150509250929050565b80356004811061206f57600080fd5b60008060006060848603121561242d57600080fd5b61243684612409565b9250612444602085016122c1565b9150604084013590509250925092565b60008060006060848603121561246957600080fd5b61247284612058565b925060208401356001600160401b0381111561248d57600080fd5b6124998682870161211f565b92505061226c604085016121ad565b6000602082840312156124ba57600080fd5b61213f82612409565b6000602082840312156124d557600080fd5b61213f82612058565b80151581146114fa57600080fd5b6000806000806080858703121561250257600080fd5b61250b856122c1565b9350602085013561251b816124de565b9250604085013561252b816124de565b915060608501356001600160f81b03198116811461254857600080fd5b939692955090935050565b6020808252600f908201526e72656d61726b20746f6f206c6f6e6760881b604082015260600190565b6001600160f81b031992909216825260601b6bffffffffffffffffffffffff1916600182015260150190565b60005b838110156125c35781810151838201526020016125ab565b83811115611dbb5750506000910152565b600081518084526125ec8160208601602086016125a8565b601f01601f19169290920160200192915050565b6001600160a01b03851681526001600160f01b031984166020820152608060408201819052600090612634908301856125d4565b828103606084015261264681856125d4565b979650505050505050565b60006020828403121561266357600080fd5b81516001600160401b0381111561267957600080fd5b8201601f8101841361268a57600080fd5b80516126986120ef826120ba565b8181528560208385010111156126ad57600080fd5b6126be8260208301602086016125a8565b95945050505050565b63ffffffff87168152851515602082015260018060a01b038516604082015283606082015260c06080820152600061270260c08301856125d4565b90506001600160401b03831660a0830152979650505050505050565b60006020828403121561273057600080fd5b815161213f816124de565b6020808252601290820152714661696c656420746f2073656e642078636d60701b604082015260600190565b6001600160a01b0387811682528681166020830152604082018690528416606082015260c0608082018190526000906127a2908301856125d4565b82810360a08401526127b481856125d4565b9998505050505050505050565b6001600160a01b03861681526001600160f01b03198516602082015260a0604082018190526000906127f5908301866125d4565b828103606084015261280781866125d4565b91505063ffffffff831660808301529695505050505050565b6001600160a01b03841681526001600160f01b0319831660208201526060604082018190526000906126be908301846125d4565b6001600160a01b0386811682528581166020830152604082018590528316606082015260a060808201819052600090612646908301846125d4565b6001600160f81b03198316815281516000906128b28160018501602087016125a8565b919091016001019392505050565b6001600160a01b038916815260208101889052604081018790526001600160f01b0319861660608201526001600160801b038516608082015261010060a08201819052600090612912838201876125d4565b905082810360c084015261292681866125d4565b91505063ffffffff831660e08301529998505050505050505050565b6001600160a01b03871681526001600160801b03861660208201526001600160401b038516604082015260c060608201819052600090612984908301866125d4565b828103608084015261299681866125d4565b91505063ffffffff831660a0830152979650505050505050565b634e487b7160e01b600052602160045260246000fd5b6000602082840312156129d857600080fd5b5051919050565b60018060a01b038516815260006020858184015260a0604084015260e0830160ff86511660a085015281860151604060c086015281815180845261010093508387019150838160051b8801019350848301925060005b81811015612a635760ff19888603018352612a518585516125d4565b94509285019291850191600101612a35565b505086516001600160401b0390811660608801526020880151166080870152509092506126be915050565b634e487b7160e01b600052603260045260246000fd5b60c0808252875190820181905260009060209060e0840190828b01845b82811015612ae65781516001600160a01b031684529284019290840190600101612ac1565b5050508381038285015288518082528983019183019060005b81811015612b1b57835183529284019291840191600101612aff565b50506040850189905287151560608601529250612b36915050565b63ffffffff93909316608082015260a00152949350505050565b6020808252602b908201527f496e697469616c697a61626c653a20636f6e7472616374206973206e6f74206960408201526a6e697469616c697a696e6760a81b60608201526080019056feca31869d7c65b3930a575eef33c6f69db06b0f1168af96408c4fceca8de0fadca26469706673582212205048f2eed1ab0316f6dbe74b77bc46cd5307ad532eb1ab81422d8963fec64d5364736f6c634300080a0033",
  "libraries": {
    "AddressToAccount": "0x8F8F6B104190a4A24CcFf7B4006Ea7A59baeAf81",
    "BuildCallData": "0xC94B9fEEAc60c3dE5CCf4039B0C45AD676110423"
  },
  "devdoc": {
    "kind": "dev",
    "methods": {
      "create_order(address,uint128,uint64,bytes,string,uint32)": {
        "details": "Create order to mint vAsset or redeem vAsset on bifrost chain",
        "params": {
          "amount": "The amount of the asset to mint or redeem",
          "assetAddress": "The address of the asset to mint or redeem",
          "channel_id": "The channel id of the order, you can set it. Bifrost chain will use it to share reward.*",
          "dest_chain_id": "When order is executed on Bifrost, Asset/vAsset will be transferred to this chain",
          "receiver": "The receiver address on the destination chain, 20 bytes for EVM, 32 bytes for Substrate",
          "remark": "The remark of the order, less than 32 bytes. For example, \"OmniLS\""
        }
      },
      "owner()": {
        "details": "Returns the address of the current owner."
      },
      "paused()": {
        "details": "Returns true if the contract is paused, and false otherwise."
      },
      "renounceOwnership()": {
        "details": "Leaves the contract without owner. It will not be possible to call `onlyOwner` functions. Can only be called by the current owner. NOTE: Renouncing ownership will leave the contract without an owner, thereby disabling any functionality that is only available to the owner."
      },
      "transferOwnership(address)": {
        "details": "Transfers ownership of the contract to a new account (`newOwner`). Can only be called by the current owner."
      }
    },
    "version": 1
  },
  "userdoc": {
    "kind": "user",
    "methods": {
      "mintVAsset(address,uint256,address,string)": {
        "notice": "Minted vAssets"
      },
      "mintVAssetWithChannelId(address,uint256,address,string,uint32)": {
        "notice": "Minted vAssets"
      },
      "mintVNativeAsset(address,string)": {
        "notice": "Minted vNative assets such as vASTR, vGLMR, vMOVR"
      },
      "mintVNativeAssetWithChannelId(address,string,uint32)": {
        "notice": "Minted vNative assets such as vASTR, vGLMR, vMOVR"
      },
      "redeemAsset(address,uint256,address)": {
        "notice": "Redeem assets"
      }
    },
    "version": 1
  },
  "storageLayout": {
    "storage": [
      {
        "astId": 139,
        "contract": "contracts/AstarSlpx.sol:AstarSlpx",
        "label": "_initialized",
        "offset": 0,
        "slot": "0",
        "type": "t_uint8"
      },
      {
        "astId": 142,
        "contract": "contracts/AstarSlpx.sol:AstarSlpx",
        "label": "_initializing",
        "offset": 1,
        "slot": "0",
        "type": "t_bool"
      },
      {
        "astId": 809,
        "contract": "contracts/AstarSlpx.sol:AstarSlpx",
        "label": "__gap",
        "offset": 0,
        "slot": "1",
        "type": "t_array(t_uint256)50_storage"
      },
      {
        "astId": 11,
        "contract": "contracts/AstarSlpx.sol:AstarSlpx",
        "label": "_owner",
        "offset": 0,
        "slot": "51",
        "type": "t_address"
      },
      {
        "astId": 131,
        "contract": "contracts/AstarSlpx.sol:AstarSlpx",
        "label": "__gap",
        "offset": 0,
        "slot": "52",
        "type": "t_array(t_uint256)49_storage"
      },
      {
        "astId": 323,
        "contract": "contracts/AstarSlpx.sol:AstarSlpx",
        "label": "_paused",
        "offset": 0,
        "slot": "101",
        "type": "t_bool"
      },
      {
        "astId": 428,
        "contract": "contracts/AstarSlpx.sol:AstarSlpx",
        "label": "__gap",
        "offset": 0,
        "slot": "102",
        "type": "t_array(t_uint256)49_storage"
      },
      {
        "astId": 2328,
        "contract": "contracts/AstarSlpx.sol:AstarSlpx",
        "label": "addressToAssetInfo",
        "offset": 0,
        "slot": "151",
        "type": "t_mapping(t_address,t_struct(AssetInfo)2318_storage)"
      },
      {
        "astId": 2334,
        "contract": "contracts/AstarSlpx.sol:AstarSlpx",
        "label": "operationToFeeInfo",
        "offset": 0,
        "slot": "152",
        "type": "t_mapping(t_enum(Operation)2313,t_struct(FeeInfo)2323_storage)"
      },
      {
        "astId": 2346,
        "contract": "contracts/AstarSlpx.sol:AstarSlpx",
        "label": "destChainInfo",
        "offset": 0,
        "slot": "153",
        "type": "t_mapping(t_uint64,t_struct(DestChainInfo)2341_storage)"
      }
    ],
    "types": {
      "t_address": {
        "encoding": "inplace",
        "label": "address",
        "numberOfBytes": "20"
      },
      "t_array(t_uint256)49_storage": {
        "base": "t_uint256",
        "encoding": "inplace",
        "label": "uint256[49]",
        "numberOfBytes": "1568"
      },
      "t_array(t_uint256)50_storage": {
        "base": "t_uint256",
        "encoding": "inplace",
        "label": "uint256[50]",
        "numberOfBytes": "1600"
      },
      "t_bool": {
        "encoding": "inplace",
        "label": "bool",
        "numberOfBytes": "1"
      },
      "t_bytes1": {
        "encoding": "inplace",
        "label": "bytes1",
        "numberOfBytes": "1"
      },
      "t_bytes2": {
        "encoding": "inplace",
        "label": "bytes2",
        "numberOfBytes": "2"
      },
      "t_enum(Operation)2313": {
        "encoding": "inplace",
        "label": "enum AstarSlpx.Operation",
        "numberOfBytes": "1"
      },
      "t_mapping(t_address,t_struct(AssetInfo)2318_storage)": {
        "encoding": "mapping",
        "key": "t_address",
        "label": "mapping(address => struct AstarSlpx.AssetInfo)",
        "numberOfBytes": "32",
        "value": "t_struct(AssetInfo)2318_storage"
      },
      "t_mapping(t_enum(Operation)2313,t_struct(FeeInfo)2323_storage)": {
        "encoding": "mapping",
        "key": "t_enum(Operation)2313",
        "label": "mapping(enum AstarSlpx.Operation => struct AstarSlpx.FeeInfo)",
        "numberOfBytes": "32",
        "value": "t_struct(FeeInfo)2323_storage"
      },
      "t_mapping(t_uint64,t_struct(DestChainInfo)2341_storage)": {
        "encoding": "mapping",
        "key": "t_uint64",
        "label": "mapping(uint64 => struct AstarSlpx.DestChainInfo)",
        "numberOfBytes": "32",
        "value": "t_struct(DestChainInfo)2341_storage"
      },
      "t_struct(AssetInfo)2318_storage": {
        "encoding": "inplace",
        "label": "struct AstarSlpx.AssetInfo",
        "members": [
          {
            "astId": 2315,
            "contract": "contracts/AstarSlpx.sol:AstarSlpx",
            "label": "currencyId",
            "offset": 0,
            "slot": "0",
            "type": "t_bytes2"
          },
          {
            "astId": 2317,
            "contract": "contracts/AstarSlpx.sol:AstarSlpx",
            "label": "operationalMin",
            "offset": 0,
            "slot": "1",
            "type": "t_uint256"
          }
        ],
        "numberOfBytes": "64"
      },
      "t_struct(DestChainInfo)2341_storage": {
        "encoding": "inplace",
        "label": "struct AstarSlpx.DestChainInfo",
        "members": [
          {
            "astId": 2336,
            "contract": "contracts/AstarSlpx.sol:AstarSlpx",
            "label": "is_evm",
            "offset": 0,
            "slot": "0",
            "type": "t_bool"
          },
          {
            "astId": 2338,
            "contract": "contracts/AstarSlpx.sol:AstarSlpx",
            "label": "is_substrate",
            "offset": 1,
            "slot": "0",
            "type": "t_bool"
          },
          {
            "astId": 2340,
            "contract": "contracts/AstarSlpx.sol:AstarSlpx",
            "label": "raw_chain_index",
            "offset": 2,
            "slot": "0",
            "type": "t_bytes1"
          }
        ],
        "numberOfBytes": "32"
      },
      "t_struct(FeeInfo)2323_storage": {
        "encoding": "inplace",
        "label": "struct AstarSlpx.FeeInfo",
        "members": [
          {
            "astId": 2320,
            "contract": "contracts/AstarSlpx.sol:AstarSlpx",
            "label": "transactRequiredWeightAtMost",
            "offset": 0,
            "slot": "0",
            "type": "t_uint64"
          },
          {
            "astId": 2322,
            "contract": "contracts/AstarSlpx.sol:AstarSlpx",
            "label": "feeAmount",
            "offset": 0,
            "slot": "1",
            "type": "t_uint256"
          }
        ],
        "numberOfBytes": "64"
      },
      "t_uint256": {
        "encoding": "inplace",
        "label": "uint256",
        "numberOfBytes": "32"
      },
      "t_uint64": {
        "encoding": "inplace",
        "label": "uint64",
        "numberOfBytes": "8"
      },
      "t_uint8": {
        "encoding": "inplace",
        "label": "uint8",
        "numberOfBytes": "1"
      }
    }
  }
}