{
  "address": "0x50DaF90fc4570dF816e6A85a066fd0D375f209C0",
  "abi": [
    {
      "anonymous": false,
      "inputs": [
        {
          "indexed": false,
          "internalType": "uint8",
          "name": "version",
          "type": "uint8"
        }
      ],
      "name": "Initialized",
      "type": "event"
    },
    {
      "anonymous": false,
      "inputs": [
        {
          "indexed": false,
          "internalType": "address",
          "name": "minter",
          "type": "address"
        },
        {
          "indexed": false,
          "internalType": "address",
          "name": "assetAddress",
          "type": "address"
        },
        {
          "indexed": false,
          "internalType": "uint256",
          "name": "amount",
          "type": "uint256"
        },
        {
          "indexed": false,
          "internalType": "address",
          "name": "receiver",
          "type": "address"
        },
        {
          "indexed": false,
          "internalType": "bytes",
          "name": "callcode",
          "type": "bytes"
        },
        {
          "indexed": false,
          "internalType": "string",
          "name": "remark",
          "type": "string"
        }
      ],
      "name": "Mint",
      "type": "event"
    },
    {
      "anonymous": false,
      "inputs": [
        {
          "indexed": true,
          "internalType": "address",
          "name": "previousOwner",
          "type": "address"
        },
        {
          "indexed": true,
          "internalType": "address",
          "name": "newOwner",
          "type": "address"
        }
      ],
      "name": "OwnershipTransferred",
      "type": "event"
    },
    {
      "anonymous": false,
      "inputs": [
        {
          "indexed": false,
          "internalType": "address",
          "name": "account",
          "type": "address"
        }
      ],
      "name": "Paused",
      "type": "event"
    },
    {
      "anonymous": false,
      "inputs": [
        {
          "indexed": false,
          "internalType": "address",
          "name": "redeemer",
          "type": "address"
        },
        {
          "indexed": false,
          "internalType": "address",
          "name": "assetAddress",
          "type": "address"
        },
        {
          "indexed": false,
          "internalType": "uint256",
          "name": "amount",
          "type": "uint256"
        },
        {
          "indexed": false,
          "internalType": "address",
          "name": "receiver",
          "type": "address"
        },
        {
          "indexed": false,
          "internalType": "bytes",
          "name": "callcode",
          "type": "bytes"
        }
      ],
      "name": "Redeem",
      "type": "event"
    },
    {
      "anonymous": false,
      "inputs": [
        {
          "indexed": false,
          "internalType": "address",
          "name": "swapper",
          "type": "address"
        },
        {
          "indexed": false,
          "internalType": "uint32",
          "name": "poolId",
          "type": "uint32"
        },
        {
          "indexed": false,
          "internalType": "address",
          "name": "assetInAddress",
          "type": "address"
        },
        {
          "indexed": false,
          "internalType": "address",
          "name": "assetOutAddress",
          "type": "address"
        },
        {
          "indexed": false,
          "internalType": "uint256",
          "name": "assetInAmount",
          "type": "uint256"
        },
        {
          "indexed": false,
          "internalType": "uint128",
          "name": "minDy",
          "type": "uint128"
        },
        {
          "indexed": false,
          "internalType": "address",
          "name": "receiver",
          "type": "address"
        },
        {
          "indexed": false,
          "internalType": "bytes",
          "name": "callcode",
          "type": "bytes"
        }
      ],
      "name": "StablePoolSwap",
      "type": "event"
    },
    {
      "anonymous": false,
      "inputs": [
        {
          "indexed": false,
          "internalType": "address",
          "name": "swapper",
          "type": "address"
        },
        {
          "indexed": false,
          "internalType": "address",
          "name": "assetInAddress",
          "type": "address"
        },
        {
          "indexed": false,
          "internalType": "address",
          "name": "assetOutAddress",
          "type": "address"
        },
        {
          "indexed": false,
          "internalType": "uint256",
          "name": "assetInAmount",
          "type": "uint256"
        },
        {
          "indexed": false,
          "internalType": "uint128",
          "name": "assetOutMin",
          "type": "uint128"
        },
        {
          "indexed": false,
          "internalType": "address",
          "name": "receiver",
          "type": "address"
        },
        {
          "indexed": false,
          "internalType": "bytes",
          "name": "callcode",
          "type": "bytes"
        }
      ],
      "name": "Swap",
      "type": "event"
    },
    {
      "anonymous": false,
      "inputs": [
        {
          "indexed": false,
          "internalType": "address",
          "name": "account",
          "type": "address"
        }
      ],
      "name": "Unpaused",
      "type": "event"
    },
    {
      "inputs": [
        {
          "internalType": "address",
          "name": "",
          "type": "address"
        }
      ],
      "name": "addressToAssetInfo",
      "outputs": [
        {
          "internalType": "bytes2",
          "name": "currencyId",
          "type": "bytes2"
        },
        {
          "internalType": "uint256",
          "name": "operationalMin",
          "type": "uint256"
        }
      ],
      "stateMutability": "view",
      "type": "function"
    },
    {
      "inputs": [],
      "name": "initialize",
      "outputs": [],
      "stateMutability": "nonpayable",
      "type": "function"
    },
    {
      "inputs": [
        {
          "internalType": "address",
          "name": "",
          "type": "address"
        },
        {
          "internalType": "uint256",
          "name": "",
          "type": "uint256"
        },
        {
          "internalType": "address",
          "name": "",
          "type": "address"
        },
        {
          "internalType": "string",
          "name": "",
          "type": "string"
        }
      ],
      "name": "mintVAsset",
      "outputs": [],
      "stateMutability": "pure",
      "type": "function"
    },
    {
      "inputs": [
        {
          "internalType": "address",
          "name": "receiver",
          "type": "address"
        },
        {
          "internalType": "string",
          "name": "remark",
          "type": "string"
        }
      ],
      "name": "mintVNativeAsset",
      "outputs": [],
      "stateMutability": "payable",
      "type": "function"
    },
    {
      "inputs": [
        {
          "internalType": "enum AstarSlpx.Operation",
          "name": "",
          "type": "uint8"
        }
      ],
      "name": "operationToFeeInfo",
      "outputs": [
        {
          "internalType": "uint64",
          "name": "transactRequiredWeightAtMost",
          "type": "uint64"
        },
        {
          "internalType": "uint256",
          "name": "feeAmount",
          "type": "uint256"
        }
      ],
      "stateMutability": "view",
      "type": "function"
    },
    {
      "inputs": [],
      "name": "owner",
      "outputs": [
        {
          "internalType": "address",
          "name": "",
          "type": "address"
        }
      ],
      "stateMutability": "view",
      "type": "function"
    },
    {
      "inputs": [],
      "name": "pause",
      "outputs": [],
      "stateMutability": "nonpayable",
      "type": "function"
    },
    {
      "inputs": [],
      "name": "paused",
      "outputs": [
        {
          "internalType": "bool",
          "name": "",
          "type": "bool"
        }
      ],
      "stateMutability": "view",
      "type": "function"
    },
    {
      "inputs": [
        {
          "internalType": "address",
          "name": "vAssetAddress",
          "type": "address"
        },
        {
          "internalType": "uint256",
          "name": "amount",
          "type": "uint256"
        },
        {
          "internalType": "address",
          "name": "receiver",
          "type": "address"
        }
      ],
      "name": "redeemAsset",
      "outputs": [],
      "stateMutability": "nonpayable",
      "type": "function"
    },
    {
      "inputs": [],
      "name": "renounceOwnership",
      "outputs": [],
      "stateMutability": "nonpayable",
      "type": "function"
    },
    {
      "inputs": [
        {
          "internalType": "address",
          "name": "assetAddress",
          "type": "address"
        },
        {
          "internalType": "bytes2",
          "name": "currencyId",
          "type": "bytes2"
        },
        {
          "internalType": "uint256",
          "name": "minimumValue",
          "type": "uint256"
        }
      ],
      "name": "setAssetAddressInfo",
      "outputs": [],
      "stateMutability": "nonpayable",
      "type": "function"
    },
    {
      "inputs": [
        {
          "internalType": "enum AstarSlpx.Operation",
          "name": "_operation",
          "type": "uint8"
        },
        {
          "internalType": "uint64",
          "name": "_transactRequiredWeightAtMost",
          "type": "uint64"
        },
        {
          "internalType": "uint256",
          "name": "_feeAmount",
          "type": "uint256"
        }
      ],
      "name": "setOperationToFeeInfo",
      "outputs": [],
      "stateMutability": "nonpayable",
      "type": "function"
    },
    {
      "inputs": [
        {
          "internalType": "uint32",
          "name": "",
          "type": "uint32"
        },
        {
          "internalType": "address",
          "name": "",
          "type": "address"
        },
        {
          "internalType": "address",
          "name": "",
          "type": "address"
        },
        {
          "internalType": "uint256",
          "name": "",
          "type": "uint256"
        },
        {
          "internalType": "uint128",
          "name": "",
          "type": "uint128"
        },
        {
          "internalType": "address",
          "name": "",
          "type": "address"
        }
      ],
      "name": "stablePoolSwap",
      "outputs": [],
      "stateMutability": "pure",
      "type": "function"
    },
    {
      "inputs": [
        {
          "internalType": "address",
          "name": "assetInAddress",
          "type": "address"
        },
        {
          "internalType": "address",
          "name": "assetOutAddress",
          "type": "address"
        },
        {
          "internalType": "uint256",
          "name": "assetInAmount",
          "type": "uint256"
        },
        {
          "internalType": "uint128",
          "name": "assetOutMin",
          "type": "uint128"
        },
        {
          "internalType": "address",
          "name": "receiver",
          "type": "address"
        }
      ],
      "name": "swapAssetsForExactAssets",
      "outputs": [],
      "stateMutability": "nonpayable",
      "type": "function"
    },
    {
      "inputs": [
        {
          "internalType": "address",
          "name": "assetInAddress",
          "type": "address"
        },
        {
          "internalType": "uint256",
          "name": "assetInAmount",
          "type": "uint256"
        },
        {
          "internalType": "uint128",
          "name": "assetOutMin",
          "type": "uint128"
        },
        {
          "internalType": "address",
          "name": "receiver",
          "type": "address"
        }
      ],
      "name": "swapAssetsForExactNativeAssets",
      "outputs": [],
      "stateMutability": "nonpayable",
      "type": "function"
    },
    {
      "inputs": [
        {
          "internalType": "address",
          "name": "assetOutAddress",
          "type": "address"
        },
        {
          "internalType": "uint128",
          "name": "assetOutMin",
          "type": "uint128"
        },
        {
          "internalType": "address",
          "name": "receiver",
          "type": "address"
        }
      ],
      "name": "swapNativeAssetsForExactAssets",
      "outputs": [],
      "stateMutability": "payable",
      "type": "function"
    },
    {
      "inputs": [
        {
          "internalType": "address",
          "name": "newOwner",
          "type": "address"
        }
      ],
      "name": "transferOwnership",
      "outputs": [],
      "stateMutability": "nonpayable",
      "type": "function"
    },
    {
      "inputs": [],
      "name": "unpause",
      "outputs": [],
      "stateMutability": "nonpayable",
      "type": "function"
    }
  ],
  "transactionHash": "0x0be46e7718353d4882f75f74d2b191ca738e4e9189306cb7645fbf9c0e5b92ca",
  "args": [],
  "numDeployments": 1,
  "solcInputHash": "cb74cf8d10db50199a23526ef8669e25",
  "bytecode": "0x608060405234801561001057600080fd5b50612456806100206000396000f3fe6080604052600436106101095760003560e01c8063670abfc6116100955780638da5cb5b116100645780638da5cb5b1461026d578063bddef61a14610295578063c8645456146102f4578063d6aa374d1461034f578063f2fde38b1461036f57600080fd5b8063670abfc61461020e578063715018a61461022e5780638129fc1c146102435780638456cb591461025857600080fd5b80634972a921116100dc5780634972a9211461017857806352b11006146101935780635c975abb146101b35780635ede2882146101db57806362c64fe1146101fb57600080fd5b806323e498791461010e57806324af0447146101235780633f4ba83a146101435780634899b9a814610158575b600080fd5b61012161011c366004611bac565b61038f565b005b34801561012f57600080fd5b5061012161013e366004611cb2565b610581565b34801561014f57600080fd5b506101216105bd565b34801561016457600080fd5b50610121610173366004611d19565b6105cf565b34801561018457600080fd5b5061012161013e366004611d4c565b34801561019f57600080fd5b506101216101ae366004611dc4565b6107a9565b3480156101bf57600080fd5b5060655460ff1660405190151581526020015b60405180910390f35b3480156101e757600080fd5b506101216101f6366004611e10565b610896565b610121610209366004611e6e565b610ae3565b34801561021a57600080fd5b50610121610229366004611eca565b610cfd565b34801561023a57600080fd5b50610121610e3e565b34801561024f57600080fd5b50610121610e50565b34801561026457600080fd5b50610121610f82565b34801561027957600080fd5b506033546040516001600160a01b0390911681526020016101d2565b3480156102a157600080fd5b506102d56102b0366004611f04565b609860205260009081526040902080546001909101546001600160401b039091169082565b604080516001600160401b0390931683526020830191909152016101d2565b34801561030057600080fd5b5061032f61030f366004611f26565b6097602052600090815260409020805460019091015460f09190911b9082565b604080516001600160f01b031990931683526020830191909152016101d2565b34801561035b57600080fd5b5061012161036a366004611f41565b610f92565b34801561037b57600080fd5b5061012161038a366004611f26565b61117d565b6103976111f3565b60006103a284611239565b905060006103b06000611239565b90506103bb34611308565b6040516000906103d19082908690602001611f8e565b60405160208183030381529060405290506000733311A4609cdD0C7Ce8D2Dfa592BA4aDD23FeC57863cb070de56104053390565b85878a876040518663ffffffff1660e01b8152600401610429959493929190612012565b600060405180830381865af4158015610446573d6000803e3d6000fd5b505050506040513d6000823e601f3d908101601f1916820160405261046e9190810190612068565b9050600061047c600261152e565b60208101518151604051637c87590960e11b81529293506150049263f90eb212926104cb926107ee9260009273ffffffff000000000000000100000000000000079290918a91906004016120de565b6020604051808303816000875af11580156104ea573d6000803e3d6000fd5b505050506040513d601f19601f8201168201806040525081019061050e9190612135565b6105335760405162461bcd60e51b815260040161052a90612157565b60405180910390fd5b7fe869557c53c6b4ca27e56668068f17eca71394d04718a9214a7667f1474950ff3360008a348b8b8860405161056f9796959493929190612183565b60405180910390a15050505050505050565b60405162461bcd60e51b815260206004820152600b60248201526a139bdd081cdd5c1c1bdc9d60aa1b604482015260640161052a565b50505050565b6105c5611649565b6105cd6116a3565b565b6105d76111f3565b60006105e284611239565b90506105ee84846116f5565b6040516000906106049082908590602001611f8e565b60405160208183030381529060405290506000733311A4609cdD0C7Ce8D2Dfa592BA4aDD23FeC578639f0047836106383390565b85856040518463ffffffff1660e01b8152600401610658939291906121e2565b600060405180830381865af4158015610675573d6000803e3d6000fd5b505050506040513d6000823e601f3d908101601f1916820160405261069d9190810190612068565b905060006106ab600161152e565b60208101518151604051637c87590960e11b81529293506150049263f90eb212926106fa926107ee9260009273ffffffff000000000000000100000000000000079290918a91906004016120de565b6020604051808303816000875af1158015610719573d6000803e3d6000fd5b505050506040513d601f19601f8201168201806040525081019061073d9190612135565b6107595760405162461bcd60e51b815260040161052a90612157565b7f89996e9f85ecc9022265638d75df5de89dd421fab215e1b013ece5fcc188adce3388888886604051610790959493929190612216565b60405180910390a150505050505050565b505050505050565b6107b1611649565b806107f55760405162461bcd60e51b8152602060048201526014602482015273496e76616c6964206d696e696d756d56616c756560601b604482015260640161052a565b6001600160f01b031982166108415760405162461bcd60e51b8152602060048201526012602482015271125b9d985b1a590818dd5c9c995b98de525960721b604482015260640161052a565b6040805180820182526001600160f01b0319909316835260208084019283526001600160a01b03909416600090815260979094529092209051815460f09190911c61ffff199091161781559051600190910155565b61089e6111f3565b60006108a986611239565b905060006108b686611239565b90506001600160f01b03198216158015906108da57506001600160f01b0319811615155b61091b5760405162461bcd60e51b8152602060048201526012602482015271125b9d985b1a590818dd5c9c995b98de525960721b604482015260640161052a565b61092587866116f5565b60405160009061093b9082908690602001611f8e565b60405160208183030381529060405290506000733311A4609cdD0C7Ce8D2Dfa592BA4aDD23FeC57863cb070de561096f3390565b86868a876040518663ffffffff1660e01b8152600401610993959493929190612012565b600060405180830381865af41580156109b0573d6000803e3d6000fd5b505050506040513d6000823e601f3d908101601f191682016040526109d89190810190612068565b905060006109e6600261152e565b60208101518151604051637c87590960e11b81529293506150049263f90eb21292610a35926107ee9260009273ffffffff000000000000000100000000000000079290918a91906004016120de565b6020604051808303816000875af1158015610a54573d6000803e3d6000fd5b505050506040513d601f19601f82011682018060405250810190610a789190612135565b610a945760405162461bcd60e51b815260040161052a90612157565b7fe869557c53c6b4ca27e56668068f17eca71394d04718a9214a7667f1474950ff338b8b8b8b8b88604051610acf9796959493929190612183565b60405180910390a150505050505050505050565b610aeb6111f3565b602081511115610b2f5760405162461bcd60e51b815260206004820152600f60248201526e72656d61726b20746f6f206c6f6e6760881b604482015260640161052a565b6000610b3b6000611239565b9050610b4634611308565b604051600090610b5c9082908690602001611f8e565b60405160208183030381529060405290506000733311A4609cdD0C7Ce8D2Dfa592BA4aDD23FeC57863b9215527610b903390565b8585886040518563ffffffff1660e01b8152600401610bb29493929190612251565b600060405180830381865af4158015610bcf573d6000803e3d6000fd5b505050506040513d6000823e601f3d908101601f19168201604052610bf79190810190612068565b90506000610c05600061152e565b60208101518151604051637c87590960e11b81529293506150049263f90eb21292610c54926107ee9260009273ffffffff000000000000000100000000000000079290918a91906004016120de565b6020604051808303816000875af1158015610c73573d6000803e3d6000fd5b505050506040513d601f19601f82011682018060405250810190610c979190612135565b610cb35760405162461bcd60e51b815260040161052a90612157565b7fca31869d7c65b3930a575eef33c6f69db06b0f1168af96408c4fceca8de0fadc3360003489868a604051610ced96959493929190612297565b60405180910390a1505050505050565b610d05611649565b6402540be400826001600160401b03161115610d725760405162461bcd60e51b815260206004820152602660248201527f7472616e73616374526571756972656457656967687441744d6f737420746f6f604482015265206c6172676560d01b606482015260840161052a565b64e8d4a51000811115610dbd5760405162461bcd60e51b8152602060048201526013602482015272666565416d6f756e7420746f6f206c6172676560681b604482015260640161052a565b6040518060400160405280836001600160401b031681526020018281525060986000856003811115610df157610df16122e4565b6003811115610e0257610e026122e4565b81526020808201929092526040016000208251815467ffffffffffffffff19166001600160401b03909116178155910151600190910155505050565b610e46611649565b6105cd60006119e0565b600054610100900460ff1615808015610e705750600054600160ff909116105b80610e8a5750303b158015610e8a575060005460ff166001145b610eed5760405162461bcd60e51b815260206004820152602e60248201527f496e697469616c697a61626c653a20636f6e747261637420697320616c72656160448201526d191e481a5b9a5d1a585b1a5e995960921b606482015260840161052a565b6000805460ff191660011790558015610f10576000805461ff0019166101001790555b610f18611a32565b610f20611a61565b610f39600061080360f01b670de0b6b3a76400006107a9565b8015610f7f576000805461ff0019169055604051600181527f7f26b83ff96e1f2b6a682f133852f6798a09c465da95921460cefb38474024989060200160405180910390a15b50565b610f8a611649565b6105cd611a90565b610f9a6111f3565b6000610fa585611239565b90506000610fb36000611239565b9050610fbf86866116f5565b604051600090610fd59082908690602001611f8e565b60405160208183030381529060405290506000733311A4609cdD0C7Ce8D2Dfa592BA4aDD23FeC57863cb070de56110093390565b86868a876040518663ffffffff1660e01b815260040161102d959493929190612012565b600060405180830381865af415801561104a573d6000803e3d6000fd5b505050506040513d6000823e601f3d908101601f191682016040526110729190810190612068565b90506000611080600261152e565b60208101518151604051637c87590960e11b81529293506150049263f90eb212926110cf926107ee9260009273ffffffff000000000000000100000000000000079290918a91906004016120de565b6020604051808303816000875af11580156110ee573d6000803e3d6000fd5b505050506040513d601f19601f820116820180604052508101906111129190612135565b61112e5760405162461bcd60e51b815260040161052a90612157565b7fe869557c53c6b4ca27e56668068f17eca71394d04718a9214a7667f1474950ff338a60008b8b8b8860405161116a9796959493929190612183565b60405180910390a1505050505050505050565b611185611649565b6001600160a01b0381166111ea5760405162461bcd60e51b815260206004820152602660248201527f4f776e61626c653a206e6577206f776e657220697320746865207a65726f206160448201526564647265737360d01b606482015260840161052a565b610f7f816119e0565b60655460ff16156105cd5760405162461bcd60e51b815260206004820152601060248201526f14185d5cd8589b194e881c185d5cd95960821b604482015260640161052a565b6001600160a01b03811660009081526097602090815260408083208151808301909252805460f01b6001600160f01b031916825260010154918101829052906112b95760405162461bcd60e51b8152602060048201526012602482015271105cdcd95d081a5cc81b9bdd08195e1a5cdd60721b604482015260640161052a565b80516001600160f01b0319166113015760405162461bcd60e51b815260206004820152600d60248201526c125b9d985b1a5908185cdcd95d609a1b604482015260640161052a565b5192915050565b6000805260976020527f683723e34a772b6e4f2c919bba7fa32ed8ea11a8325f54da7db716e9d9dd98c85481101561137b5760405162461bcd60e51b81526020600482015260166024820152754c657373207468616e204d696e696d756d56616c756560501b604482015260640161052a565b6000738F8F6B104190a4A24CcFf7B4006Ea7A59baeAf816332640a52336040516001600160e01b031960e084901b1681526001600160a01b039091166004820152602401602060405180830381865af41580156113dc573d6000803e3d6000fd5b505050506040513d601f19601f8201168201806040525081019061140091906122fa565b6040805160018082528183019092529192506000919060208083019080368337505060408051600180825281830190925292935060009291506020808301908036833701905050905060008260008151811061145e5761145e612313565b60200260200101906001600160a01b031690816001600160a01b031681525050838160008151811061149257611492612313565b602090810291909101015260405163400c0e8d60e01b81526150049063400c0e8d906114cf908590859088906000906107ee908290600401612329565b6020604051808303816000875af11580156114ee573d6000803e3d6000fd5b505050506040513d601f19601f820116820180604052508101906115129190612135565b6105b75760405162461bcd60e51b815260040161052a90612157565b604080518082019091526000808252602082015260006098600084600381111561155a5761155a6122e4565b600381111561156b5761156b6122e4565b81526020808201929092526040908101600020815180830190925280546001600160401b03168083526001909101549282019290925291506115fb5760405162461bcd60e51b8152602060048201526024808201527f496e76616c6964207472616e7361637452657175697265645765696768744174604482015263135bdcdd60e21b606482015260840161052a565b60008160200151116116435760405162461bcd60e51b8152602060048201526011602482015270125b9d985b1a5908199959505b5bdd5b9d607a1b604482015260640161052a565b92915050565b6033546001600160a01b031633146105cd5760405162461bcd60e51b815260206004820181905260248201527f4f776e61626c653a2063616c6c6572206973206e6f7420746865206f776e6572604482015260640161052a565b6116ab611acd565b6065805460ff191690557f5db9ee0a495bf2e6ff9c91a7834c1ba4fdd244a5e8aa4e537bd38aeae4b073aa335b6040516001600160a01b03909116815260200160405180910390a1565b6001600160a01b0382166117425760405162461bcd60e51b8152602060048201526014602482015273496e76616c69642061737365744164647265737360601b604482015260640161052a565b6001600160a01b0382166000908152609760205260409020600101548110156117a65760405162461bcd60e51b81526020600482015260166024820152754c657373207468616e204d696e696d756d56616c756560501b604482015260640161052a565b6000738F8F6B104190a4A24CcFf7B4006Ea7A59baeAf816332640a52336040516001600160e01b031960e084901b1681526001600160a01b039091166004820152602401602060405180830381865af4158015611807573d6000803e3d6000fd5b505050506040513d601f19601f8201168201806040525081019061182b91906122fa565b60408051600180825281830190925291925060009190602080830190803683375050604080516001808252818301909252929350600092915060208083019080368337019050509050846001600160a01b0381166323b872dd336040516001600160e01b031960e084901b1681526001600160a01b039091166004820152306024820152604481018890526064016020604051808303816000875af11580156118d8573d6000803e3d6000fd5b505050506040513d601f19601f820116820180604052508101906118fc9190612135565b50858360008151811061191157611911612313565b60200260200101906001600160a01b031690816001600160a01b031681525050848260008151811061194557611945612313565b60209081029190910101526040516219054d60e41b81526150049063019054d090611981908690869089906000906107ee908290600401612329565b6020604051808303816000875af11580156119a0573d6000803e3d6000fd5b505050506040513d601f19601f820116820180604052508101906119c49190612135565b6107a15760405162461bcd60e51b815260040161052a90612157565b603380546001600160a01b038381166001600160a01b0319831681179093556040519116919082907f8be0079c531659141344cd1fd0a4f28419497f9722a3daafe3b4186f6b6457e090600090a35050565b600054610100900460ff16611a595760405162461bcd60e51b815260040161052a906123d5565b6105cd611b16565b600054610100900460ff16611a885760405162461bcd60e51b815260040161052a906123d5565b6105cd611b46565b611a986111f3565b6065805460ff191660011790557f62e78cea01bee320cd4e420270b5ea74000d11b0c9f74754ebdbfc544b05a2586116d83390565b60655460ff166105cd5760405162461bcd60e51b815260206004820152601460248201527314185d5cd8589b194e881b9bdd081c185d5cd95960621b604482015260640161052a565b600054610100900460ff16611b3d5760405162461bcd60e51b815260040161052a906123d5565b6105cd336119e0565b600054610100900460ff16611b6d5760405162461bcd60e51b815260040161052a906123d5565b6065805460ff19169055565b80356001600160a01b0381168114611b9057600080fd5b919050565b80356001600160801b0381168114611b9057600080fd5b600080600060608486031215611bc157600080fd5b611bca84611b79565b9250611bd860208501611b95565b9150611be660408501611b79565b90509250925092565b634e487b7160e01b600052604160045260246000fd5b604051601f8201601f191681016001600160401b0381118282101715611c2d57611c2d611bef565b604052919050565b60006001600160401b03821115611c4e57611c4e611bef565b50601f01601f191660200190565b600082601f830112611c6d57600080fd5b8135611c80611c7b82611c35565b611c05565b818152846020838601011115611c9557600080fd5b816020850160208301376000918101602001919091529392505050565b60008060008060808587031215611cc857600080fd5b611cd185611b79565b935060208501359250611ce660408601611b79565b915060608501356001600160401b03811115611d0157600080fd5b611d0d87828801611c5c565b91505092959194509250565b600080600060608486031215611d2e57600080fd5b611d3784611b79565b925060208401359150611be660408501611b79565b60008060008060008060c08789031215611d6557600080fd5b863563ffffffff81168114611d7957600080fd5b9550611d8760208801611b79565b9450611d9560408801611b79565b935060608701359250611daa60808801611b95565b9150611db860a08801611b79565b90509295509295509295565b600080600060608486031215611dd957600080fd5b611de284611b79565b925060208401356001600160f01b031981168114611dff57600080fd5b929592945050506040919091013590565b600080600080600060a08688031215611e2857600080fd5b611e3186611b79565b9450611e3f60208701611b79565b935060408601359250611e5460608701611b95565b9150611e6260808701611b79565b90509295509295909350565b60008060408385031215611e8157600080fd5b611e8a83611b79565b915060208301356001600160401b03811115611ea557600080fd5b611eb185828601611c5c565b9150509250929050565b803560048110611b9057600080fd5b600080600060608486031215611edf57600080fd5b611ee884611ebb565b925060208401356001600160401b0381168114611dff57600080fd5b600060208284031215611f1657600080fd5b611f1f82611ebb565b9392505050565b600060208284031215611f3857600080fd5b611f1f82611b79565b60008060008060808587031215611f5757600080fd5b611f6085611b79565b935060208501359250611f7560408601611b95565b9150611f8360608601611b79565b905092959194509250565b6001600160f81b031992909216825260601b6bffffffffffffffffffffffff1916600182015260150190565b60005b83811015611fd5578181015183820152602001611fbd565b838111156105b75750506000910152565b60008151808452611ffe816020860160208601611fba565b601f01601f19169290920160200192915050565b6001600160a01b03861681526001600160f01b03198581166020830152841660408201526001600160801b038316606082015260a06080820181905260009061205d90830184611fe6565b979650505050505050565b60006020828403121561207a57600080fd5b81516001600160401b0381111561209057600080fd5b8201601f810184136120a157600080fd5b80516120af611c7b82611c35565b8181528560208385010111156120c457600080fd5b6120d5826020830160208601611fba565b95945050505050565b63ffffffff87168152851515602082015260018060a01b038516604082015283606082015260c06080820152600061211960c0830185611fe6565b90506001600160401b03831660a0830152979650505050505050565b60006020828403121561214757600080fd5b81518015158114611f1f57600080fd5b6020808252601290820152714661696c656420746f2073656e642078636d60701b604082015260600190565b6001600160a01b03888116825287811660208301528681166040830152606082018690526001600160801b0385166080830152831660a082015260e060c082018190526000906121d590830184611fe6565b9998505050505050505050565b6001600160a01b03841681526001600160f01b0319831660208201526060604082018190526000906120d590830184611fe6565b6001600160a01b0386811682528581166020830152604082018590528316606082015260a06080820181905260009061205d90830184611fe6565b6001600160a01b03851681526001600160f01b03198416602082015260806040820181905260009061228590830185611fe6565b828103606084015261205d8185611fe6565b6001600160a01b0387811682528681166020830152604082018690528416606082015260c0608082018190526000906122d290830185611fe6565b82810360a08401526121d58185611fe6565b634e487b7160e01b600052602160045260246000fd5b60006020828403121561230c57600080fd5b5051919050565b634e487b7160e01b600052603260045260246000fd5b60c0808252875190820181905260009060209060e0840190828b01845b8281101561236b5781516001600160a01b031684529284019290840190600101612346565b5050508381038285015288518082528983019183019060005b818110156123a057835183529284019291840191600101612384565b505060408501899052871515606086015292506123bb915050565b63ffffffff93909316608082015260a00152949350505050565b6020808252602b908201527f496e697469616c697a61626c653a20636f6e7472616374206973206e6f74206960408201526a6e697469616c697a696e6760a81b60608201526080019056fea2646970667358221220687122d218b184e1355a4e4b9c0a9459fac03178d7e0758fe0fcdaa13d1e960764736f6c634300080a0033",
  "deployedBytecode": "0x6080604052600436106101095760003560e01c8063670abfc6116100955780638da5cb5b116100645780638da5cb5b1461026d578063bddef61a14610295578063c8645456146102f4578063d6aa374d1461034f578063f2fde38b1461036f57600080fd5b8063670abfc61461020e578063715018a61461022e5780638129fc1c146102435780638456cb591461025857600080fd5b80634972a921116100dc5780634972a9211461017857806352b11006146101935780635c975abb146101b35780635ede2882146101db57806362c64fe1146101fb57600080fd5b806323e498791461010e57806324af0447146101235780633f4ba83a146101435780634899b9a814610158575b600080fd5b61012161011c366004611bac565b61038f565b005b34801561012f57600080fd5b5061012161013e366004611cb2565b610581565b34801561014f57600080fd5b506101216105bd565b34801561016457600080fd5b50610121610173366004611d19565b6105cf565b34801561018457600080fd5b5061012161013e366004611d4c565b34801561019f57600080fd5b506101216101ae366004611dc4565b6107a9565b3480156101bf57600080fd5b5060655460ff1660405190151581526020015b60405180910390f35b3480156101e757600080fd5b506101216101f6366004611e10565b610896565b610121610209366004611e6e565b610ae3565b34801561021a57600080fd5b50610121610229366004611eca565b610cfd565b34801561023a57600080fd5b50610121610e3e565b34801561024f57600080fd5b50610121610e50565b34801561026457600080fd5b50610121610f82565b34801561027957600080fd5b506033546040516001600160a01b0390911681526020016101d2565b3480156102a157600080fd5b506102d56102b0366004611f04565b609860205260009081526040902080546001909101546001600160401b039091169082565b604080516001600160401b0390931683526020830191909152016101d2565b34801561030057600080fd5b5061032f61030f366004611f26565b6097602052600090815260409020805460019091015460f09190911b9082565b604080516001600160f01b031990931683526020830191909152016101d2565b34801561035b57600080fd5b5061012161036a366004611f41565b610f92565b34801561037b57600080fd5b5061012161038a366004611f26565b61117d565b6103976111f3565b60006103a284611239565b905060006103b06000611239565b90506103bb34611308565b6040516000906103d19082908690602001611f8e565b6040516020818303038152906040529050600073__$e184f4046250cd750dfdb139628ab13bdc$__63cb070de56104053390565b85878a876040518663ffffffff1660e01b8152600401610429959493929190612012565b600060405180830381865af4158015610446573d6000803e3d6000fd5b505050506040513d6000823e601f3d908101601f1916820160405261046e9190810190612068565b9050600061047c600261152e565b60208101518151604051637c87590960e11b81529293506150049263f90eb212926104cb926107ee9260009273ffffffff000000000000000100000000000000079290918a91906004016120de565b6020604051808303816000875af11580156104ea573d6000803e3d6000fd5b505050506040513d601f19601f8201168201806040525081019061050e9190612135565b6105335760405162461bcd60e51b815260040161052a90612157565b60405180910390fd5b7fe869557c53c6b4ca27e56668068f17eca71394d04718a9214a7667f1474950ff3360008a348b8b8860405161056f9796959493929190612183565b60405180910390a15050505050505050565b60405162461bcd60e51b815260206004820152600b60248201526a139bdd081cdd5c1c1bdc9d60aa1b604482015260640161052a565b50505050565b6105c5611649565b6105cd6116a3565b565b6105d76111f3565b60006105e284611239565b90506105ee84846116f5565b6040516000906106049082908590602001611f8e565b6040516020818303038152906040529050600073__$e184f4046250cd750dfdb139628ab13bdc$__639f0047836106383390565b85856040518463ffffffff1660e01b8152600401610658939291906121e2565b600060405180830381865af4158015610675573d6000803e3d6000fd5b505050506040513d6000823e601f3d908101601f1916820160405261069d9190810190612068565b905060006106ab600161152e565b60208101518151604051637c87590960e11b81529293506150049263f90eb212926106fa926107ee9260009273ffffffff000000000000000100000000000000079290918a91906004016120de565b6020604051808303816000875af1158015610719573d6000803e3d6000fd5b505050506040513d601f19601f8201168201806040525081019061073d9190612135565b6107595760405162461bcd60e51b815260040161052a90612157565b7f89996e9f85ecc9022265638d75df5de89dd421fab215e1b013ece5fcc188adce3388888886604051610790959493929190612216565b60405180910390a150505050505050565b505050505050565b6107b1611649565b806107f55760405162461bcd60e51b8152602060048201526014602482015273496e76616c6964206d696e696d756d56616c756560601b604482015260640161052a565b6001600160f01b031982166108415760405162461bcd60e51b8152602060048201526012602482015271125b9d985b1a590818dd5c9c995b98de525960721b604482015260640161052a565b6040805180820182526001600160f01b0319909316835260208084019283526001600160a01b03909416600090815260979094529092209051815460f09190911c61ffff199091161781559051600190910155565b61089e6111f3565b60006108a986611239565b905060006108b686611239565b90506001600160f01b03198216158015906108da57506001600160f01b0319811615155b61091b5760405162461bcd60e51b8152602060048201526012602482015271125b9d985b1a590818dd5c9c995b98de525960721b604482015260640161052a565b61092587866116f5565b60405160009061093b9082908690602001611f8e565b6040516020818303038152906040529050600073__$e184f4046250cd750dfdb139628ab13bdc$__63cb070de561096f3390565b86868a876040518663ffffffff1660e01b8152600401610993959493929190612012565b600060405180830381865af41580156109b0573d6000803e3d6000fd5b505050506040513d6000823e601f3d908101601f191682016040526109d89190810190612068565b905060006109e6600261152e565b60208101518151604051637c87590960e11b81529293506150049263f90eb21292610a35926107ee9260009273ffffffff000000000000000100000000000000079290918a91906004016120de565b6020604051808303816000875af1158015610a54573d6000803e3d6000fd5b505050506040513d601f19601f82011682018060405250810190610a789190612135565b610a945760405162461bcd60e51b815260040161052a90612157565b7fe869557c53c6b4ca27e56668068f17eca71394d04718a9214a7667f1474950ff338b8b8b8b8b88604051610acf9796959493929190612183565b60405180910390a150505050505050505050565b610aeb6111f3565b602081511115610b2f5760405162461bcd60e51b815260206004820152600f60248201526e72656d61726b20746f6f206c6f6e6760881b604482015260640161052a565b6000610b3b6000611239565b9050610b4634611308565b604051600090610b5c9082908690602001611f8e565b6040516020818303038152906040529050600073__$e184f4046250cd750dfdb139628ab13bdc$__63b9215527610b903390565b8585886040518563ffffffff1660e01b8152600401610bb29493929190612251565b600060405180830381865af4158015610bcf573d6000803e3d6000fd5b505050506040513d6000823e601f3d908101601f19168201604052610bf79190810190612068565b90506000610c05600061152e565b60208101518151604051637c87590960e11b81529293506150049263f90eb21292610c54926107ee9260009273ffffffff000000000000000100000000000000079290918a91906004016120de565b6020604051808303816000875af1158015610c73573d6000803e3d6000fd5b505050506040513d601f19601f82011682018060405250810190610c979190612135565b610cb35760405162461bcd60e51b815260040161052a90612157565b7fca31869d7c65b3930a575eef33c6f69db06b0f1168af96408c4fceca8de0fadc3360003489868a604051610ced96959493929190612297565b60405180910390a1505050505050565b610d05611649565b6402540be400826001600160401b03161115610d725760405162461bcd60e51b815260206004820152602660248201527f7472616e73616374526571756972656457656967687441744d6f737420746f6f604482015265206c6172676560d01b606482015260840161052a565b64e8d4a51000811115610dbd5760405162461bcd60e51b8152602060048201526013602482015272666565416d6f756e7420746f6f206c6172676560681b604482015260640161052a565b6040518060400160405280836001600160401b031681526020018281525060986000856003811115610df157610df16122e4565b6003811115610e0257610e026122e4565b81526020808201929092526040016000208251815467ffffffffffffffff19166001600160401b03909116178155910151600190910155505050565b610e46611649565b6105cd60006119e0565b600054610100900460ff1615808015610e705750600054600160ff909116105b80610e8a5750303b158015610e8a575060005460ff166001145b610eed5760405162461bcd60e51b815260206004820152602e60248201527f496e697469616c697a61626c653a20636f6e747261637420697320616c72656160448201526d191e481a5b9a5d1a585b1a5e995960921b606482015260840161052a565b6000805460ff191660011790558015610f10576000805461ff0019166101001790555b610f18611a32565b610f20611a61565b610f39600061080360f01b670de0b6b3a76400006107a9565b8015610f7f576000805461ff0019169055604051600181527f7f26b83ff96e1f2b6a682f133852f6798a09c465da95921460cefb38474024989060200160405180910390a15b50565b610f8a611649565b6105cd611a90565b610f9a6111f3565b6000610fa585611239565b90506000610fb36000611239565b9050610fbf86866116f5565b604051600090610fd59082908690602001611f8e565b6040516020818303038152906040529050600073__$e184f4046250cd750dfdb139628ab13bdc$__63cb070de56110093390565b86868a876040518663ffffffff1660e01b815260040161102d959493929190612012565b600060405180830381865af415801561104a573d6000803e3d6000fd5b505050506040513d6000823e601f3d908101601f191682016040526110729190810190612068565b90506000611080600261152e565b60208101518151604051637c87590960e11b81529293506150049263f90eb212926110cf926107ee9260009273ffffffff000000000000000100000000000000079290918a91906004016120de565b6020604051808303816000875af11580156110ee573d6000803e3d6000fd5b505050506040513d601f19601f820116820180604052508101906111129190612135565b61112e5760405162461bcd60e51b815260040161052a90612157565b7fe869557c53c6b4ca27e56668068f17eca71394d04718a9214a7667f1474950ff338a60008b8b8b8860405161116a9796959493929190612183565b60405180910390a1505050505050505050565b611185611649565b6001600160a01b0381166111ea5760405162461bcd60e51b815260206004820152602660248201527f4f776e61626c653a206e6577206f776e657220697320746865207a65726f206160448201526564647265737360d01b606482015260840161052a565b610f7f816119e0565b60655460ff16156105cd5760405162461bcd60e51b815260206004820152601060248201526f14185d5cd8589b194e881c185d5cd95960821b604482015260640161052a565b6001600160a01b03811660009081526097602090815260408083208151808301909252805460f01b6001600160f01b031916825260010154918101829052906112b95760405162461bcd60e51b8152602060048201526012602482015271105cdcd95d081a5cc81b9bdd08195e1a5cdd60721b604482015260640161052a565b80516001600160f01b0319166113015760405162461bcd60e51b815260206004820152600d60248201526c125b9d985b1a5908185cdcd95d609a1b604482015260640161052a565b5192915050565b6000805260976020527f683723e34a772b6e4f2c919bba7fa32ed8ea11a8325f54da7db716e9d9dd98c85481101561137b5760405162461bcd60e51b81526020600482015260166024820152754c657373207468616e204d696e696d756d56616c756560501b604482015260640161052a565b600073__$ddfb0e6c1c4d05795fcce73a90830b0995$__6332640a52336040516001600160e01b031960e084901b1681526001600160a01b039091166004820152602401602060405180830381865af41580156113dc573d6000803e3d6000fd5b505050506040513d601f19601f8201168201806040525081019061140091906122fa565b6040805160018082528183019092529192506000919060208083019080368337505060408051600180825281830190925292935060009291506020808301908036833701905050905060008260008151811061145e5761145e612313565b60200260200101906001600160a01b031690816001600160a01b031681525050838160008151811061149257611492612313565b602090810291909101015260405163400c0e8d60e01b81526150049063400c0e8d906114cf908590859088906000906107ee908290600401612329565b6020604051808303816000875af11580156114ee573d6000803e3d6000fd5b505050506040513d601f19601f820116820180604052508101906115129190612135565b6105b75760405162461bcd60e51b815260040161052a90612157565b604080518082019091526000808252602082015260006098600084600381111561155a5761155a6122e4565b600381111561156b5761156b6122e4565b81526020808201929092526040908101600020815180830190925280546001600160401b03168083526001909101549282019290925291506115fb5760405162461bcd60e51b8152602060048201526024808201527f496e76616c6964207472616e7361637452657175697265645765696768744174604482015263135bdcdd60e21b606482015260840161052a565b60008160200151116116435760405162461bcd60e51b8152602060048201526011602482015270125b9d985b1a5908199959505b5bdd5b9d607a1b604482015260640161052a565b92915050565b6033546001600160a01b031633146105cd5760405162461bcd60e51b815260206004820181905260248201527f4f776e61626c653a2063616c6c6572206973206e6f7420746865206f776e6572604482015260640161052a565b6116ab611acd565b6065805460ff191690557f5db9ee0a495bf2e6ff9c91a7834c1ba4fdd244a5e8aa4e537bd38aeae4b073aa335b6040516001600160a01b03909116815260200160405180910390a1565b6001600160a01b0382166117425760405162461bcd60e51b8152602060048201526014602482015273496e76616c69642061737365744164647265737360601b604482015260640161052a565b6001600160a01b0382166000908152609760205260409020600101548110156117a65760405162461bcd60e51b81526020600482015260166024820152754c657373207468616e204d696e696d756d56616c756560501b604482015260640161052a565b600073__$ddfb0e6c1c4d05795fcce73a90830b0995$__6332640a52336040516001600160e01b031960e084901b1681526001600160a01b039091166004820152602401602060405180830381865af4158015611807573d6000803e3d6000fd5b505050506040513d601f19601f8201168201806040525081019061182b91906122fa565b60408051600180825281830190925291925060009190602080830190803683375050604080516001808252818301909252929350600092915060208083019080368337019050509050846001600160a01b0381166323b872dd336040516001600160e01b031960e084901b1681526001600160a01b039091166004820152306024820152604481018890526064016020604051808303816000875af11580156118d8573d6000803e3d6000fd5b505050506040513d601f19601f820116820180604052508101906118fc9190612135565b50858360008151811061191157611911612313565b60200260200101906001600160a01b031690816001600160a01b031681525050848260008151811061194557611945612313565b60209081029190910101526040516219054d60e41b81526150049063019054d090611981908690869089906000906107ee908290600401612329565b6020604051808303816000875af11580156119a0573d6000803e3d6000fd5b505050506040513d601f19601f820116820180604052508101906119c49190612135565b6107a15760405162461bcd60e51b815260040161052a90612157565b603380546001600160a01b038381166001600160a01b0319831681179093556040519116919082907f8be0079c531659141344cd1fd0a4f28419497f9722a3daafe3b4186f6b6457e090600090a35050565b600054610100900460ff16611a595760405162461bcd60e51b815260040161052a906123d5565b6105cd611b16565b600054610100900460ff16611a885760405162461bcd60e51b815260040161052a906123d5565b6105cd611b46565b611a986111f3565b6065805460ff191660011790557f62e78cea01bee320cd4e420270b5ea74000d11b0c9f74754ebdbfc544b05a2586116d83390565b60655460ff166105cd5760405162461bcd60e51b815260206004820152601460248201527314185d5cd8589b194e881b9bdd081c185d5cd95960621b604482015260640161052a565b600054610100900460ff16611b3d5760405162461bcd60e51b815260040161052a906123d5565b6105cd336119e0565b600054610100900460ff16611b6d5760405162461bcd60e51b815260040161052a906123d5565b6065805460ff19169055565b80356001600160a01b0381168114611b9057600080fd5b919050565b80356001600160801b0381168114611b9057600080fd5b600080600060608486031215611bc157600080fd5b611bca84611b79565b9250611bd860208501611b95565b9150611be660408501611b79565b90509250925092565b634e487b7160e01b600052604160045260246000fd5b604051601f8201601f191681016001600160401b0381118282101715611c2d57611c2d611bef565b604052919050565b60006001600160401b03821115611c4e57611c4e611bef565b50601f01601f191660200190565b600082601f830112611c6d57600080fd5b8135611c80611c7b82611c35565b611c05565b818152846020838601011115611c9557600080fd5b816020850160208301376000918101602001919091529392505050565b60008060008060808587031215611cc857600080fd5b611cd185611b79565b935060208501359250611ce660408601611b79565b915060608501356001600160401b03811115611d0157600080fd5b611d0d87828801611c5c565b91505092959194509250565b600080600060608486031215611d2e57600080fd5b611d3784611b79565b925060208401359150611be660408501611b79565b60008060008060008060c08789031215611d6557600080fd5b863563ffffffff81168114611d7957600080fd5b9550611d8760208801611b79565b9450611d9560408801611b79565b935060608701359250611daa60808801611b95565b9150611db860a08801611b79565b90509295509295509295565b600080600060608486031215611dd957600080fd5b611de284611b79565b925060208401356001600160f01b031981168114611dff57600080fd5b929592945050506040919091013590565b600080600080600060a08688031215611e2857600080fd5b611e3186611b79565b9450611e3f60208701611b79565b935060408601359250611e5460608701611b95565b9150611e6260808701611b79565b90509295509295909350565b60008060408385031215611e8157600080fd5b611e8a83611b79565b915060208301356001600160401b03811115611ea557600080fd5b611eb185828601611c5c565b9150509250929050565b803560048110611b9057600080fd5b600080600060608486031215611edf57600080fd5b611ee884611ebb565b925060208401356001600160401b0381168114611dff57600080fd5b600060208284031215611f1657600080fd5b611f1f82611ebb565b9392505050565b600060208284031215611f3857600080fd5b611f1f82611b79565b60008060008060808587031215611f5757600080fd5b611f6085611b79565b935060208501359250611f7560408601611b95565b9150611f8360608601611b79565b905092959194509250565b6001600160f81b031992909216825260601b6bffffffffffffffffffffffff1916600182015260150190565b60005b83811015611fd5578181015183820152602001611fbd565b838111156105b75750506000910152565b60008151808452611ffe816020860160208601611fba565b601f01601f19169290920160200192915050565b6001600160a01b03861681526001600160f01b03198581166020830152841660408201526001600160801b038316606082015260a06080820181905260009061205d90830184611fe6565b979650505050505050565b60006020828403121561207a57600080fd5b81516001600160401b0381111561209057600080fd5b8201601f810184136120a157600080fd5b80516120af611c7b82611c35565b8181528560208385010111156120c457600080fd5b6120d5826020830160208601611fba565b95945050505050565b63ffffffff87168152851515602082015260018060a01b038516604082015283606082015260c06080820152600061211960c0830185611fe6565b90506001600160401b03831660a0830152979650505050505050565b60006020828403121561214757600080fd5b81518015158114611f1f57600080fd5b6020808252601290820152714661696c656420746f2073656e642078636d60701b604082015260600190565b6001600160a01b03888116825287811660208301528681166040830152606082018690526001600160801b0385166080830152831660a082015260e060c082018190526000906121d590830184611fe6565b9998505050505050505050565b6001600160a01b03841681526001600160f01b0319831660208201526060604082018190526000906120d590830184611fe6565b6001600160a01b0386811682528581166020830152604082018590528316606082015260a06080820181905260009061205d90830184611fe6565b6001600160a01b03851681526001600160f01b03198416602082015260806040820181905260009061228590830185611fe6565b828103606084015261205d8185611fe6565b6001600160a01b0387811682528681166020830152604082018690528416606082015260c0608082018190526000906122d290830185611fe6565b82810360a08401526121d58185611fe6565b634e487b7160e01b600052602160045260246000fd5b60006020828403121561230c57600080fd5b5051919050565b634e487b7160e01b600052603260045260246000fd5b60c0808252875190820181905260009060209060e0840190828b01845b8281101561236b5781516001600160a01b031684529284019290840190600101612346565b5050508381038285015288518082528983019183019060005b818110156123a057835183529284019291840191600101612384565b505060408501899052871515606086015292506123bb915050565b63ffffffff93909316608082015260a00152949350505050565b6020808252602b908201527f496e697469616c697a61626c653a20636f6e7472616374206973206e6f74206960408201526a6e697469616c697a696e6760a81b60608201526080019056fea2646970667358221220687122d218b184e1355a4e4b9c0a9459fac03178d7e0758fe0fcdaa13d1e960764736f6c634300080a0033",
  "libraries": {
    "AddressToAccount": "0x8F8F6B104190a4A24CcFf7B4006Ea7A59baeAf81",
    "BuildCallData": "0x3311A4609cdD0C7Ce8D2Dfa592BA4aDD23FeC578"
  },
  "devdoc": {
    "kind": "dev",
    "methods": {
      "owner()": {
        "details": "Returns the address of the current owner."
      },
      "paused()": {
        "details": "Returns true if the contract is paused, and false otherwise."
      },
      "renounceOwnership()": {
        "details": "Leaves the contract without owner. It will not be possible to call `onlyOwner` functions. Can only be called by the current owner. NOTE: Renouncing ownership will leave the contract without an owner, thereby disabling any functionality that is only available to the owner."
      },
      "transferOwnership(address)": {
        "details": "Transfers ownership of the contract to a new account (`newOwner`). Can only be called by the current owner."
      }
    },
    "version": 1
  },
  "userdoc": {
    "kind": "user",
    "methods": {
      "mintVNativeAsset(address,string)": {
        "notice": "Minted vNative assets such as vASTR, vGLMR, vMOVR"
      },
      "redeemAsset(address,uint256,address)": {
        "notice": "Redeem assets"
      },
      "swapAssetsForExactAssets(address,address,uint256,uint128,address)": {
        "notice": "Swap one asset for another"
      },
      "swapAssetsForExactNativeAssets(address,uint256,uint128,address)": {
        "notice": "Swap one asset for native asset"
      },
      "swapNativeAssetsForExactAssets(address,uint128,address)": {
        "notice": "Swap native asset for another"
      }
    },
    "version": 1
  },
  "storageLayout": {
    "storage": [
      {
        "astId": 138,
        "contract": "contracts/AstarSlpx.sol:AstarSlpx",
        "label": "_initialized",
        "offset": 0,
        "slot": "0",
        "type": "t_uint8"
      },
      {
        "astId": 141,
        "contract": "contracts/AstarSlpx.sol:AstarSlpx",
        "label": "_initializing",
        "offset": 1,
        "slot": "0",
        "type": "t_bool"
      },
      {
        "astId": 798,
        "contract": "contracts/AstarSlpx.sol:AstarSlpx",
        "label": "__gap",
        "offset": 0,
        "slot": "1",
        "type": "t_array(t_uint256)50_storage"
      },
      {
        "astId": 10,
        "contract": "contracts/AstarSlpx.sol:AstarSlpx",
        "label": "_owner",
        "offset": 0,
        "slot": "51",
        "type": "t_address"
      },
      {
        "astId": 130,
        "contract": "contracts/AstarSlpx.sol:AstarSlpx",
        "label": "__gap",
        "offset": 0,
        "slot": "52",
        "type": "t_array(t_uint256)49_storage"
      },
      {
        "astId": 321,
        "contract": "contracts/AstarSlpx.sol:AstarSlpx",
        "label": "_paused",
        "offset": 0,
        "slot": "101",
        "type": "t_bool"
      },
      {
        "astId": 426,
        "contract": "contracts/AstarSlpx.sol:AstarSlpx",
        "label": "__gap",
        "offset": 0,
        "slot": "102",
        "type": "t_array(t_uint256)49_storage"
      },
      {
        "astId": 927,
        "contract": "contracts/AstarSlpx.sol:AstarSlpx",
        "label": "addressToAssetInfo",
        "offset": 0,
        "slot": "151",
        "type": "t_mapping(t_address,t_struct(AssetInfo)917_storage)"
      },
      {
        "astId": 933,
        "contract": "contracts/AstarSlpx.sol:AstarSlpx",
        "label": "operationToFeeInfo",
        "offset": 0,
        "slot": "152",
        "type": "t_mapping(t_enum(Operation)912,t_struct(FeeInfo)922_storage)"
      }
    ],
    "types": {
      "t_address": {
        "encoding": "inplace",
        "label": "address",
        "numberOfBytes": "20"
      },
      "t_array(t_uint256)49_storage": {
        "base": "t_uint256",
        "encoding": "inplace",
        "label": "uint256[49]",
        "numberOfBytes": "1568"
      },
      "t_array(t_uint256)50_storage": {
        "base": "t_uint256",
        "encoding": "inplace",
        "label": "uint256[50]",
        "numberOfBytes": "1600"
      },
      "t_bool": {
        "encoding": "inplace",
        "label": "bool",
        "numberOfBytes": "1"
      },
      "t_bytes2": {
        "encoding": "inplace",
        "label": "bytes2",
        "numberOfBytes": "2"
      },
      "t_enum(Operation)912": {
        "encoding": "inplace",
        "label": "enum AstarSlpx.Operation",
        "numberOfBytes": "1"
      },
      "t_mapping(t_address,t_struct(AssetInfo)917_storage)": {
        "encoding": "mapping",
        "key": "t_address",
        "label": "mapping(address => struct AstarSlpx.AssetInfo)",
        "numberOfBytes": "32",
        "value": "t_struct(AssetInfo)917_storage"
      },
      "t_mapping(t_enum(Operation)912,t_struct(FeeInfo)922_storage)": {
        "encoding": "mapping",
        "key": "t_enum(Operation)912",
        "label": "mapping(enum AstarSlpx.Operation => struct AstarSlpx.FeeInfo)",
        "numberOfBytes": "32",
        "value": "t_struct(FeeInfo)922_storage"
      },
      "t_struct(AssetInfo)917_storage": {
        "encoding": "inplace",
        "label": "struct AstarSlpx.AssetInfo",
        "members": [
          {
            "astId": 914,
            "contract": "contracts/AstarSlpx.sol:AstarSlpx",
            "label": "currencyId",
            "offset": 0,
            "slot": "0",
            "type": "t_bytes2"
          },
          {
            "astId": 916,
            "contract": "contracts/AstarSlpx.sol:AstarSlpx",
            "label": "operationalMin",
            "offset": 0,
            "slot": "1",
            "type": "t_uint256"
          }
        ],
        "numberOfBytes": "64"
      },
      "t_struct(FeeInfo)922_storage": {
        "encoding": "inplace",
        "label": "struct AstarSlpx.FeeInfo",
        "members": [
          {
            "astId": 919,
            "contract": "contracts/AstarSlpx.sol:AstarSlpx",
            "label": "transactRequiredWeightAtMost",
            "offset": 0,
            "slot": "0",
            "type": "t_uint64"
          },
          {
            "astId": 921,
            "contract": "contracts/AstarSlpx.sol:AstarSlpx",
            "label": "feeAmount",
            "offset": 0,
            "slot": "1",
            "type": "t_uint256"
          }
        ],
        "numberOfBytes": "64"
      },
      "t_uint256": {
        "encoding": "inplace",
        "label": "uint256",
        "numberOfBytes": "32"
      },
      "t_uint64": {
        "encoding": "inplace",
        "label": "uint64",
        "numberOfBytes": "8"
      },
      "t_uint8": {
        "encoding": "inplace",
        "label": "uint8",
        "numberOfBytes": "1"
      }
    }
  }
}