{
  "address": "0x1F1Dc276BcE626cc9CAC90E0069f26fcbbc76f55",
  "abi": [
    {
      "anonymous": false,
      "inputs": [
        {
          "indexed": false,
          "internalType": "uint8",
          "name": "version",
          "type": "uint8"
        }
      ],
      "name": "Initialized",
      "type": "event"
    },
    {
      "anonymous": false,
      "inputs": [
        {
          "indexed": false,
          "internalType": "address",
          "name": "minter",
          "type": "address"
        },
        {
          "indexed": false,
          "internalType": "address",
          "name": "assetAddress",
          "type": "address"
        },
        {
          "indexed": false,
          "internalType": "uint256",
          "name": "amount",
          "type": "uint256"
        },
        {
          "indexed": false,
          "internalType": "address",
          "name": "receiver",
          "type": "address"
        },
        {
          "indexed": false,
          "internalType": "bytes",
          "name": "callcode",
          "type": "bytes"
        },
        {
          "indexed": false,
          "internalType": "string",
          "name": "remark",
          "type": "string"
        }
      ],
      "name": "Mint",
      "type": "event"
    },
    {
      "anonymous": false,
      "inputs": [
        {
          "indexed": true,
          "internalType": "address",
          "name": "previousOwner",
          "type": "address"
        },
        {
          "indexed": true,
          "internalType": "address",
          "name": "newOwner",
          "type": "address"
        }
      ],
      "name": "OwnershipTransferred",
      "type": "event"
    },
    {
      "anonymous": false,
      "inputs": [
        {
          "indexed": false,
          "internalType": "address",
          "name": "account",
          "type": "address"
        }
      ],
      "name": "Paused",
      "type": "event"
    },
    {
      "anonymous": false,
      "inputs": [
        {
          "indexed": false,
          "internalType": "address",
          "name": "redeemer",
          "type": "address"
        },
        {
          "indexed": false,
          "internalType": "address",
          "name": "assetAddress",
          "type": "address"
        },
        {
          "indexed": false,
          "internalType": "uint256",
          "name": "amount",
          "type": "uint256"
        },
        {
          "indexed": false,
          "internalType": "address",
          "name": "receiver",
          "type": "address"
        },
        {
          "indexed": false,
          "internalType": "bytes",
          "name": "callcode",
          "type": "bytes"
        }
      ],
      "name": "Redeem",
      "type": "event"
    },
    {
      "anonymous": false,
      "inputs": [
        {
          "indexed": false,
          "internalType": "address",
          "name": "swapper",
          "type": "address"
        },
        {
          "indexed": false,
          "internalType": "uint32",
          "name": "poolId",
          "type": "uint32"
        },
        {
          "indexed": false,
          "internalType": "address",
          "name": "assetInAddress",
          "type": "address"
        },
        {
          "indexed": false,
          "internalType": "address",
          "name": "assetOutAddress",
          "type": "address"
        },
        {
          "indexed": false,
          "internalType": "uint256",
          "name": "assetInAmount",
          "type": "uint256"
        },
        {
          "indexed": false,
          "internalType": "uint128",
          "name": "minDy",
          "type": "uint128"
        },
        {
          "indexed": false,
          "internalType": "address",
          "name": "receiver",
          "type": "address"
        },
        {
          "indexed": false,
          "internalType": "bytes",
          "name": "callcode",
          "type": "bytes"
        }
      ],
      "name": "StablePoolSwap",
      "type": "event"
    },
    {
      "anonymous": false,
      "inputs": [
        {
          "indexed": false,
          "internalType": "address",
          "name": "swapper",
          "type": "address"
        },
        {
          "indexed": false,
          "internalType": "address",
          "name": "assetInAddress",
          "type": "address"
        },
        {
          "indexed": false,
          "internalType": "address",
          "name": "assetOutAddress",
          "type": "address"
        },
        {
          "indexed": false,
          "internalType": "uint256",
          "name": "assetInAmount",
          "type": "uint256"
        },
        {
          "indexed": false,
          "internalType": "uint128",
          "name": "assetOutMin",
          "type": "uint128"
        },
        {
          "indexed": false,
          "internalType": "address",
          "name": "receiver",
          "type": "address"
        },
        {
          "indexed": false,
          "internalType": "bytes",
          "name": "callcode",
          "type": "bytes"
        }
      ],
      "name": "Swap",
      "type": "event"
    },
    {
      "anonymous": false,
      "inputs": [
        {
          "indexed": false,
          "internalType": "address",
          "name": "account",
          "type": "address"
        }
      ],
      "name": "Unpaused",
      "type": "event"
    },
    {
      "inputs": [
        {
          "internalType": "address",
          "name": "",
          "type": "address"
        }
      ],
      "name": "addressToAssetInfo",
      "outputs": [
        {
          "internalType": "bytes2",
          "name": "currencyId",
          "type": "bytes2"
        },
        {
          "internalType": "uint256",
          "name": "operationalMin",
          "type": "uint256"
        }
      ],
      "stateMutability": "view",
      "type": "function"
    },
    {
      "inputs": [],
      "name": "initialize",
      "outputs": [],
      "stateMutability": "nonpayable",
      "type": "function"
    },
    {
      "inputs": [
        {
          "internalType": "address",
          "name": "assetAddress",
          "type": "address"
        },
        {
          "internalType": "uint256",
          "name": "amount",
          "type": "uint256"
        },
        {
          "internalType": "address",
          "name": "receiver",
          "type": "address"
        },
        {
          "internalType": "string",
          "name": "remark",
          "type": "string"
        }
      ],
      "name": "mintVAsset",
      "outputs": [],
      "stateMutability": "nonpayable",
      "type": "function"
    },
    {
      "inputs": [
        {
          "internalType": "address",
          "name": "receiver",
          "type": "address"
        },
        {
          "internalType": "string",
          "name": "remark",
          "type": "string"
        }
      ],
      "name": "mintVNativeAsset",
      "outputs": [],
      "stateMutability": "payable",
      "type": "function"
    },
    {
      "inputs": [
        {
          "internalType": "enum AstarSlpx.Operation",
          "name": "",
          "type": "uint8"
        }
      ],
      "name": "operationToFeeInfo",
      "outputs": [
        {
          "internalType": "uint64",
          "name": "transactRequiredWeightAtMost",
          "type": "uint64"
        },
        {
          "internalType": "uint256",
          "name": "feeAmount",
          "type": "uint256"
        }
      ],
      "stateMutability": "view",
      "type": "function"
    },
    {
      "inputs": [],
      "name": "owner",
      "outputs": [
        {
          "internalType": "address",
          "name": "",
          "type": "address"
        }
      ],
      "stateMutability": "view",
      "type": "function"
    },
    {
      "inputs": [],
      "name": "pause",
      "outputs": [],
      "stateMutability": "nonpayable",
      "type": "function"
    },
    {
      "inputs": [],
      "name": "paused",
      "outputs": [
        {
          "internalType": "bool",
          "name": "",
          "type": "bool"
        }
      ],
      "stateMutability": "view",
      "type": "function"
    },
    {
      "inputs": [
        {
          "internalType": "address",
          "name": "vAssetAddress",
          "type": "address"
        },
        {
          "internalType": "uint256",
          "name": "amount",
          "type": "uint256"
        },
        {
          "internalType": "address",
          "name": "receiver",
          "type": "address"
        }
      ],
      "name": "redeemAsset",
      "outputs": [],
      "stateMutability": "nonpayable",
      "type": "function"
    },
    {
      "inputs": [],
      "name": "renounceOwnership",
      "outputs": [],
      "stateMutability": "nonpayable",
      "type": "function"
    },
    {
      "inputs": [
        {
          "internalType": "address",
          "name": "assetAddress",
          "type": "address"
        },
        {
          "internalType": "bytes2",
          "name": "currencyId",
          "type": "bytes2"
        },
        {
          "internalType": "uint256",
          "name": "minimumValue",
          "type": "uint256"
        }
      ],
      "name": "setAssetAddressInfo",
      "outputs": [],
      "stateMutability": "nonpayable",
      "type": "function"
    },
    {
      "inputs": [
        {
          "internalType": "enum AstarSlpx.Operation",
          "name": "_operation",
          "type": "uint8"
        },
        {
          "internalType": "uint64",
          "name": "_transactRequiredWeightAtMost",
          "type": "uint64"
        },
        {
          "internalType": "uint256",
          "name": "_feeAmount",
          "type": "uint256"
        }
      ],
      "name": "setOperationToFeeInfo",
      "outputs": [],
      "stateMutability": "nonpayable",
      "type": "function"
    },
    {
      "inputs": [
        {
          "internalType": "uint32",
          "name": "",
          "type": "uint32"
        },
        {
          "internalType": "address",
          "name": "",
          "type": "address"
        },
        {
          "internalType": "address",
          "name": "",
          "type": "address"
        },
        {
          "internalType": "uint256",
          "name": "",
          "type": "uint256"
        },
        {
          "internalType": "uint128",
          "name": "",
          "type": "uint128"
        },
        {
          "internalType": "address",
          "name": "",
          "type": "address"
        }
      ],
      "name": "stablePoolSwap",
      "outputs": [],
      "stateMutability": "pure",
      "type": "function"
    },
    {
      "inputs": [
        {
          "internalType": "address",
          "name": "assetInAddress",
          "type": "address"
        },
        {
          "internalType": "address",
          "name": "assetOutAddress",
          "type": "address"
        },
        {
          "internalType": "uint256",
          "name": "assetInAmount",
          "type": "uint256"
        },
        {
          "internalType": "uint128",
          "name": "assetOutMin",
          "type": "uint128"
        },
        {
          "internalType": "address",
          "name": "receiver",
          "type": "address"
        }
      ],
      "name": "swapAssetsForExactAssets",
      "outputs": [],
      "stateMutability": "nonpayable",
      "type": "function"
    },
    {
      "inputs": [
        {
          "internalType": "address",
          "name": "assetInAddress",
          "type": "address"
        },
        {
          "internalType": "uint256",
          "name": "assetInAmount",
          "type": "uint256"
        },
        {
          "internalType": "uint128",
          "name": "assetOutMin",
          "type": "uint128"
        },
        {
          "internalType": "address",
          "name": "receiver",
          "type": "address"
        }
      ],
      "name": "swapAssetsForExactNativeAssets",
      "outputs": [],
      "stateMutability": "nonpayable",
      "type": "function"
    },
    {
      "inputs": [
        {
          "internalType": "address",
          "name": "assetOutAddress",
          "type": "address"
        },
        {
          "internalType": "uint128",
          "name": "assetOutMin",
          "type": "uint128"
        },
        {
          "internalType": "address",
          "name": "receiver",
          "type": "address"
        }
      ],
      "name": "swapNativeAssetsForExactAssets",
      "outputs": [],
      "stateMutability": "payable",
      "type": "function"
    },
    {
      "inputs": [
        {
          "internalType": "address",
          "name": "newOwner",
          "type": "address"
        }
      ],
      "name": "transferOwnership",
      "outputs": [],
      "stateMutability": "nonpayable",
      "type": "function"
    },
    {
      "inputs": [],
      "name": "unpause",
      "outputs": [],
      "stateMutability": "nonpayable",
      "type": "function"
    }
  ],
  "transactionHash": "0x10d0dc1e837df78784f9e7763aa9f85978c078af20aa392c82b95023ea0de77a",
  "args": [],
  "numDeployments": 3,
  "solcInputHash": "f12eb92bf16719810b25912b92c8438d",
  "bytecode": "0x608060405234801561001057600080fd5b50612763806100206000396000f3fe6080604052600436106101095760003560e01c8063670abfc6116100955780638da5cb5b116100645780638da5cb5b14610272578063bddef61a1461029a578063c8645456146102f9578063d6aa374d14610354578063f2fde38b1461037457600080fd5b8063670abfc614610213578063715018a6146102335780638129fc1c146102485780638456cb591461025d57600080fd5b80634972a921116100dc5780634972a9211461017857806352b11006146101985780635c975abb146101b85780635ede2882146101e057806362c64fe11461020057600080fd5b806323e498791461010e57806324af0447146101235780633f4ba83a146101435780634899b9a814610158575b600080fd5b61012161011c366004611e0a565b610394565b005b34801561012f57600080fd5b5061012161013e366004611f10565b610586565b34801561014f57600080fd5b50610121610787565b34801561016457600080fd5b50610121610173366004611f77565b610799565b34801561018457600080fd5b50610121610193366004611faa565b61096b565b3480156101a457600080fd5b506101216101b3366004612022565b6109a1565b3480156101c457600080fd5b5060655460ff1660405190151581526020015b60405180910390f35b3480156101ec57600080fd5b506101216101fb36600461206e565b610a6c565b61012161020e3660046120cc565b610cb9565b34801561021f57600080fd5b5061012161022e366004612128565b610ed3565b34801561023f57600080fd5b50610121611014565b34801561025457600080fd5b50610121611026565b34801561026957600080fd5b50610121611158565b34801561027e57600080fd5b506033546040516001600160a01b0390911681526020016101d7565b3480156102a657600080fd5b506102da6102b5366004612162565b609860205260009081526040902080546001909101546001600160401b039091169082565b604080516001600160401b0390931683526020830191909152016101d7565b34801561030557600080fd5b50610334610314366004612184565b6097602052600090815260409020805460019091015460f09190911b9082565b604080516001600160f01b031990931683526020830191909152016101d7565b34801561036057600080fd5b5061012161036f36600461219f565b611168565b34801561038057600080fd5b5061012161038f366004612184565b611353565b61039c6113c9565b60006103a78461140f565b905060006103b5600061140f565b90506103c0346114de565b6040516000906103d690829086906020016121ec565b60405160208183030381529060405290506000733311A4609cdD0C7Ce8D2Dfa592BA4aDD23FeC57863cb070de561040a3390565b85878a876040518663ffffffff1660e01b815260040161042e959493929190612270565b600060405180830381865af415801561044b573d6000803e3d6000fd5b505050506040513d6000823e601f3d908101601f1916820160405261047391908101906122c6565b90506000610481600261170a565b60208101518151604051637c87590960e11b81529293506150049263f90eb212926104d0926107ee9260009273ffffffff000000000000000100000000000000079290918a919060040161233c565b6020604051808303816000875af11580156104ef573d6000803e3d6000fd5b505050506040513d601f19601f820116820180604052508101906105139190612393565b6105385760405162461bcd60e51b815260040161052f906123b5565b60405180910390fd5b7fe869557c53c6b4ca27e56668068f17eca71394d04718a9214a7667f1474950ff3360008a348b8b8860405161057497969594939291906123e1565b60405180910390a15050505050505050565b6020815111156105ca5760405162461bcd60e51b815260206004820152600f60248201526e72656d61726b20746f6f206c6f6e6760881b604482015260640161052f565b60006105d58561140f565b90506105e18585611825565b6040516000906105f790829086906020016121ec565b60405160208183030381529060405290506000733311A4609cdD0C7Ce8D2Dfa592BA4aDD23FeC57863b921552761062b3390565b8585886040518563ffffffff1660e01b815260040161064d9493929190612440565b600060405180830381865af415801561066a573d6000803e3d6000fd5b505050506040513d6000823e601f3d908101601f1916820160405261069291908101906122c6565b905060006106a0600061170a565b60208101518151604051637c87590960e11b81529293506150049263f90eb212926106ef926107ee9260009273ffffffff000000000000000100000000000000079290918a919060040161233c565b6020604051808303816000875af115801561070e573d6000803e3d6000fd5b505050506040513d601f19601f820116820180604052508101906107329190612393565b61074e5760405162461bcd60e51b815260040161052f906123b5565b7fca31869d7c65b3930a575eef33c6f69db06b0f1168af96408c4fceca8de0fadc33898989868a60405161057496959493929190612486565b61078f611a94565b610797611aee565b565b6107a16113c9565b60006107ac8461140f565b90506107b88484611825565b6040516000906107ce90829085906020016121ec565b60405160208183030381529060405290506000733311A4609cdD0C7Ce8D2Dfa592BA4aDD23FeC578639f0047836108023390565b85856040518463ffffffff1660e01b8152600401610822939291906124d3565b600060405180830381865af415801561083f573d6000803e3d6000fd5b505050506040513d6000823e601f3d908101601f1916820160405261086791908101906122c6565b90506000610875600161170a565b60208101518151604051637c87590960e11b81529293506150049263f90eb212926108c4926107ee9260009273ffffffff000000000000000100000000000000079290918a919060040161233c565b6020604051808303816000875af11580156108e3573d6000803e3d6000fd5b505050506040513d601f19601f820116820180604052508101906109079190612393565b6109235760405162461bcd60e51b815260040161052f906123b5565b7f89996e9f85ecc9022265638d75df5de89dd421fab215e1b013ece5fcc188adce338888888660405161095a959493929190612507565b60405180910390a150505050505050565b60405162461bcd60e51b815260206004820152600b60248201526a139bdd081cdd5c1c1bdc9d60aa1b604482015260640161052f565b6109a9611a94565b806109ed5760405162461bcd60e51b8152602060048201526014602482015273496e76616c6964206d696e696d756d56616c756560601b604482015260640161052f565b6001600160f01b03198216610a395760405162461bcd60e51b8152602060048201526012602482015271125b9d985b1a590818dd5c9c995b98de525960721b604482015260640161052f565b6001600160a01b03929092166000908152609760205260409020805461ffff191660f09290921c91909117815560010155565b610a746113c9565b6000610a7f8661140f565b90506000610a8c8661140f565b90506001600160f01b0319821615801590610ab057506001600160f01b0319811615155b610af15760405162461bcd60e51b8152602060048201526012602482015271125b9d985b1a590818dd5c9c995b98de525960721b604482015260640161052f565b610afb8786611825565b604051600090610b1190829086906020016121ec565b60405160208183030381529060405290506000733311A4609cdD0C7Ce8D2Dfa592BA4aDD23FeC57863cb070de5610b453390565b86868a876040518663ffffffff1660e01b8152600401610b69959493929190612270565b600060405180830381865af4158015610b86573d6000803e3d6000fd5b505050506040513d6000823e601f3d908101601f19168201604052610bae91908101906122c6565b90506000610bbc600261170a565b60208101518151604051637c87590960e11b81529293506150049263f90eb21292610c0b926107ee9260009273ffffffff000000000000000100000000000000079290918a919060040161233c565b6020604051808303816000875af1158015610c2a573d6000803e3d6000fd5b505050506040513d601f19601f82011682018060405250810190610c4e9190612393565b610c6a5760405162461bcd60e51b815260040161052f906123b5565b7fe869557c53c6b4ca27e56668068f17eca71394d04718a9214a7667f1474950ff338b8b8b8b8b88604051610ca597969594939291906123e1565b60405180910390a150505050505050505050565b610cc16113c9565b602081511115610d055760405162461bcd60e51b815260206004820152600f60248201526e72656d61726b20746f6f206c6f6e6760881b604482015260640161052f565b6000610d11600061140f565b9050610d1c346114de565b604051600090610d3290829086906020016121ec565b60405160208183030381529060405290506000733311A4609cdD0C7Ce8D2Dfa592BA4aDD23FeC57863b9215527610d663390565b8585886040518563ffffffff1660e01b8152600401610d889493929190612440565b600060405180830381865af4158015610da5573d6000803e3d6000fd5b505050506040513d6000823e601f3d908101601f19168201604052610dcd91908101906122c6565b90506000610ddb600061170a565b60208101518151604051637c87590960e11b81529293506150049263f90eb21292610e2a926107ee9260009273ffffffff000000000000000100000000000000079290918a919060040161233c565b6020604051808303816000875af1158015610e49573d6000803e3d6000fd5b505050506040513d601f19601f82011682018060405250810190610e6d9190612393565b610e895760405162461bcd60e51b815260040161052f906123b5565b7fca31869d7c65b3930a575eef33c6f69db06b0f1168af96408c4fceca8de0fadc3360003489868a604051610ec396959493929190612486565b60405180910390a1505050505050565b610edb611a94565b6402540be400826001600160401b03161115610f485760405162461bcd60e51b815260206004820152602660248201527f7472616e73616374526571756972656457656967687441744d6f737420746f6f604482015265206c6172676560d01b606482015260840161052f565b64e8d4a51000811115610f935760405162461bcd60e51b8152602060048201526013602482015272666565416d6f756e7420746f6f206c6172676560681b604482015260640161052f565b6040518060400160405280836001600160401b031681526020018281525060986000856003811115610fc757610fc7612542565b6003811115610fd857610fd8612542565b81526020808201929092526040016000208251815467ffffffffffffffff19166001600160401b03909116178155910151600190910155505050565b61101c611a94565b6107976000611b40565b600054610100900460ff16158080156110465750600054600160ff909116105b806110605750303b158015611060575060005460ff166001145b6110c35760405162461bcd60e51b815260206004820152602e60248201527f496e697469616c697a61626c653a20636f6e747261637420697320616c72656160448201526d191e481a5b9a5d1a585b1a5e995960921b606482015260840161052f565b6000805460ff1916600117905580156110e6576000805461ff0019166101001790555b6110ee611b92565b6110f6611bc1565b61110f600061080360f01b670de0b6b3a76400006109a1565b8015611155576000805461ff0019169055604051600181527f7f26b83ff96e1f2b6a682f133852f6798a09c465da95921460cefb38474024989060200160405180910390a15b50565b611160611a94565b610797611bf0565b6111706113c9565b600061117b8561140f565b90506000611189600061140f565b90506111958686611825565b6040516000906111ab90829086906020016121ec565b60405160208183030381529060405290506000733311A4609cdD0C7Ce8D2Dfa592BA4aDD23FeC57863cb070de56111df3390565b86868a876040518663ffffffff1660e01b8152600401611203959493929190612270565b600060405180830381865af4158015611220573d6000803e3d6000fd5b505050506040513d6000823e601f3d908101601f1916820160405261124891908101906122c6565b90506000611256600261170a565b60208101518151604051637c87590960e11b81529293506150049263f90eb212926112a5926107ee9260009273ffffffff000000000000000100000000000000079290918a919060040161233c565b6020604051808303816000875af11580156112c4573d6000803e3d6000fd5b505050506040513d601f19601f820116820180604052508101906112e89190612393565b6113045760405162461bcd60e51b815260040161052f906123b5565b7fe869557c53c6b4ca27e56668068f17eca71394d04718a9214a7667f1474950ff338a60008b8b8b8860405161134097969594939291906123e1565b60405180910390a1505050505050505050565b61135b611a94565b6001600160a01b0381166113c05760405162461bcd60e51b815260206004820152602660248201527f4f776e61626c653a206e6577206f776e657220697320746865207a65726f206160448201526564647265737360d01b606482015260840161052f565b61115581611b40565b60655460ff16156107975760405162461bcd60e51b815260206004820152601060248201526f14185d5cd8589b194e881c185d5cd95960821b604482015260640161052f565b6001600160a01b03811660009081526097602090815260408083208151808301909252805460f01b6001600160f01b0319168252600101549181018290529061148f5760405162461bcd60e51b8152602060048201526012602482015271105cdcd95d081a5cc81b9bdd08195e1a5cdd60721b604482015260640161052f565b80516001600160f01b0319166114d75760405162461bcd60e51b815260206004820152600d60248201526c125b9d985b1a5908185cdcd95d609a1b604482015260640161052f565b5192915050565b6000805260976020527f683723e34a772b6e4f2c919bba7fa32ed8ea11a8325f54da7db716e9d9dd98c8548110156115515760405162461bcd60e51b81526020600482015260166024820152754c657373207468616e204d696e696d756d56616c756560501b604482015260640161052f565b6000738F8F6B104190a4A24CcFf7B4006Ea7A59baeAf816332640a52336040516001600160e01b031960e084901b1681526001600160a01b039091166004820152602401602060405180830381865af41580156115b2573d6000803e3d6000fd5b505050506040513d601f19601f820116820180604052508101906115d69190612558565b6040805160018082528183019092529192506000919060208083019080368337505060408051600180825281830190925292935060009291506020808301908036833701905050905060008260008151811061163457611634612571565b60200260200101906001600160a01b031690816001600160a01b031681525050838160008151811061166857611668612571565b602090810291909101015260405163400c0e8d60e01b81526150049063400c0e8d906116a5908590859088906000906107ee908290600401612587565b6020604051808303816000875af11580156116c4573d6000803e3d6000fd5b505050506040513d601f19601f820116820180604052508101906116e89190612393565b6117045760405162461bcd60e51b815260040161052f906123b5565b50505050565b604080518082019091526000808252602082015260006098600084600381111561173657611736612542565b600381111561174757611747612542565b81526020808201929092526040908101600020815180830190925280546001600160401b03168083526001909101549282019290925291506117d75760405162461bcd60e51b8152602060048201526024808201527f496e76616c6964207472616e7361637452657175697265645765696768744174604482015263135bdcdd60e21b606482015260840161052f565b600081602001511161181f5760405162461bcd60e51b8152602060048201526011602482015270125b9d985b1a5908199959505b5bdd5b9d607a1b604482015260640161052f565b92915050565b6001600160a01b0382166118725760405162461bcd60e51b8152602060048201526014602482015273496e76616c69642061737365744164647265737360601b604482015260640161052f565b6001600160a01b0382166000908152609760205260409020600101548110156118d65760405162461bcd60e51b81526020600482015260166024820152754c657373207468616e204d696e696d756d56616c756560501b604482015260640161052f565b6000738F8F6B104190a4A24CcFf7B4006Ea7A59baeAf816332640a52336040516001600160e01b031960e084901b1681526001600160a01b039091166004820152602401602060405180830381865af4158015611937573d6000803e3d6000fd5b505050506040513d601f19601f8201168201806040525081019061195b9190612558565b9050600061196882611c2d565b9050836001600160a01b0381166323b872dd336040516001600160e01b031960e084901b1681526001600160a01b039091166004820152306024820152604481018790526064016020604051808303816000875af11580156119ce573d6000803e3d6000fd5b505050506040513d601f19601f820116820180604052508101906119f29190612393565b50604080518082018252600080825260208201529051630d8eb59560e31b815261500491636c75aca891611a2e91899189918891600401612633565b6020604051808303816000875af1158015611a4d573d6000803e3d6000fd5b505050506040513d601f19601f82011682018060405250810190611a719190612393565b611a8d5760405162461bcd60e51b815260040161052f906123b5565b5050505050565b6033546001600160a01b031633146107975760405162461bcd60e51b815260206004820181905260248201527f4f776e61626c653a2063616c6c6572206973206e6f7420746865206f776e6572604482015260640161052f565b611af6611d2b565b6065805460ff191690557f5db9ee0a495bf2e6ff9c91a7834c1ba4fdd244a5e8aa4e537bd38aeae4b073aa335b6040516001600160a01b03909116815260200160405180910390a1565b603380546001600160a01b038381166001600160a01b0319831681179093556040519116919082907f8be0079c531659141344cd1fd0a4f28419497f9722a3daafe3b4186f6b6457e090600090a35050565b600054610100900460ff16611bb95760405162461bcd60e51b815260040161052f906126e2565b610797611d74565b600054610100900460ff16611be85760405162461bcd60e51b815260040161052f906126e2565b610797611da4565b611bf86113c9565b6065805460ff191660011790557f62e78cea01bee320cd4e420270b5ea74000d11b0c9f74754ebdbfc544b05a258611b233390565b60408051808201825260008082526060602083018190528351600280825291810190945291929091816020015b6060815260200190600190039081611c5a57905050604051600060208201526103f760e11b602182015290915060250160405160208183030381529060405281600081518110611cac57611cac612571565b602002602001018190525082604051602001611cdf9190600160f81b815260018101919091526000602182015260220190565b60405160208183030381529060405281600181518110611d0157611d01612571565b60209081029190910181019190915260408051808201909152600181529081019190915292915050565b60655460ff166107975760405162461bcd60e51b815260206004820152601460248201527314185d5cd8589b194e881b9bdd081c185d5cd95960621b604482015260640161052f565b600054610100900460ff16611d9b5760405162461bcd60e51b815260040161052f906126e2565b61079733611b40565b600054610100900460ff16611dcb5760405162461bcd60e51b815260040161052f906126e2565b6065805460ff19169055565b80356001600160a01b0381168114611dee57600080fd5b919050565b80356001600160801b0381168114611dee57600080fd5b600080600060608486031215611e1f57600080fd5b611e2884611dd7565b9250611e3660208501611df3565b9150611e4460408501611dd7565b90509250925092565b634e487b7160e01b600052604160045260246000fd5b604051601f8201601f191681016001600160401b0381118282101715611e8b57611e8b611e4d565b604052919050565b60006001600160401b03821115611eac57611eac611e4d565b50601f01601f191660200190565b600082601f830112611ecb57600080fd5b8135611ede611ed982611e93565b611e63565b818152846020838601011115611ef357600080fd5b816020850160208301376000918101602001919091529392505050565b60008060008060808587031215611f2657600080fd5b611f2f85611dd7565b935060208501359250611f4460408601611dd7565b915060608501356001600160401b03811115611f5f57600080fd5b611f6b87828801611eba565b91505092959194509250565b600080600060608486031215611f8c57600080fd5b611f9584611dd7565b925060208401359150611e4460408501611dd7565b60008060008060008060c08789031215611fc357600080fd5b863563ffffffff81168114611fd757600080fd5b9550611fe560208801611dd7565b9450611ff360408801611dd7565b93506060870135925061200860808801611df3565b915061201660a08801611dd7565b90509295509295509295565b60008060006060848603121561203757600080fd5b61204084611dd7565b925060208401356001600160f01b03198116811461205d57600080fd5b929592945050506040919091013590565b600080600080600060a0868803121561208657600080fd5b61208f86611dd7565b945061209d60208701611dd7565b9350604086013592506120b260608701611df3565b91506120c060808701611dd7565b90509295509295909350565b600080604083850312156120df57600080fd5b6120e883611dd7565b915060208301356001600160401b0381111561210357600080fd5b61210f85828601611eba565b9150509250929050565b803560048110611dee57600080fd5b60008060006060848603121561213d57600080fd5b61214684612119565b925060208401356001600160401b038116811461205d57600080fd5b60006020828403121561217457600080fd5b61217d82612119565b9392505050565b60006020828403121561219657600080fd5b61217d82611dd7565b600080600080608085870312156121b557600080fd5b6121be85611dd7565b9350602085013592506121d360408601611df3565b91506121e160608601611dd7565b905092959194509250565b6001600160f81b031992909216825260601b6bffffffffffffffffffffffff1916600182015260150190565b60005b8381101561223357818101518382015260200161221b565b838111156117045750506000910152565b6000815180845261225c816020860160208601612218565b601f01601f19169290920160200192915050565b6001600160a01b03861681526001600160f01b03198581166020830152841660408201526001600160801b038316606082015260a0608082018190526000906122bb90830184612244565b979650505050505050565b6000602082840312156122d857600080fd5b81516001600160401b038111156122ee57600080fd5b8201601f810184136122ff57600080fd5b805161230d611ed982611e93565b81815285602083850101111561232257600080fd5b612333826020830160208601612218565b95945050505050565b63ffffffff87168152851515602082015260018060a01b038516604082015283606082015260c06080820152600061237760c0830185612244565b90506001600160401b03831660a0830152979650505050505050565b6000602082840312156123a557600080fd5b8151801515811461217d57600080fd5b6020808252601290820152714661696c656420746f2073656e642078636d60701b604082015260600190565b6001600160a01b03888116825287811660208301528681166040830152606082018690526001600160801b0385166080830152831660a082015260e060c0820181905260009061243390830184612244565b9998505050505050505050565b6001600160a01b03851681526001600160f01b03198416602082015260806040820181905260009061247490830185612244565b82810360608401526122bb8185612244565b6001600160a01b0387811682528681166020830152604082018690528416606082015260c0608082018190526000906124c190830185612244565b82810360a08401526124338185612244565b6001600160a01b03841681526001600160f01b03198316602082015260606040820181905260009061233390830184612244565b6001600160a01b0386811682528581166020830152604082018590528316606082015260a0608082018190526000906122bb90830184612244565b634e487b7160e01b600052602160045260246000fd5b60006020828403121561256a57600080fd5b5051919050565b634e487b7160e01b600052603260045260246000fd5b60c0808252875190820181905260009060209060e0840190828b01845b828110156125c95781516001600160a01b0316845292840192908401906001016125a4565b5050508381038285015288518082528983019183019060005b818110156125fe578351835292840192918401916001016125e2565b50506040850189905287151560608601529250612619915050565b63ffffffff93909316608082015260a00152949350505050565b60018060a01b038516815260006020858184015260a0604084015260e0830160ff86511660a085015281860151604060c086015281815180845261010093508387019150838160051b8801019350848301925060005b818110156126b75760ff198886030183526126a5858551612244565b94509285019291850191600101612689565b505086516001600160401b039081166060880152602088015116608087015250909250612333915050565b6020808252602b908201527f496e697469616c697a61626c653a20636f6e7472616374206973206e6f74206960408201526a6e697469616c697a696e6760a81b60608201526080019056fea2646970667358221220b18bfabf12b708f4f54cf5a6d3cdc398b23d35b71d9909aa2095b7e58ccde7ac64736f6c634300080a0033",
  "deployedBytecode": "0x6080604052600436106101095760003560e01c8063670abfc6116100955780638da5cb5b116100645780638da5cb5b14610272578063bddef61a1461029a578063c8645456146102f9578063d6aa374d14610354578063f2fde38b1461037457600080fd5b8063670abfc614610213578063715018a6146102335780638129fc1c146102485780638456cb591461025d57600080fd5b80634972a921116100dc5780634972a9211461017857806352b11006146101985780635c975abb146101b85780635ede2882146101e057806362c64fe11461020057600080fd5b806323e498791461010e57806324af0447146101235780633f4ba83a146101435780634899b9a814610158575b600080fd5b61012161011c366004611e0a565b610394565b005b34801561012f57600080fd5b5061012161013e366004611f10565b610586565b34801561014f57600080fd5b50610121610787565b34801561016457600080fd5b50610121610173366004611f77565b610799565b34801561018457600080fd5b50610121610193366004611faa565b61096b565b3480156101a457600080fd5b506101216101b3366004612022565b6109a1565b3480156101c457600080fd5b5060655460ff1660405190151581526020015b60405180910390f35b3480156101ec57600080fd5b506101216101fb36600461206e565b610a6c565b61012161020e3660046120cc565b610cb9565b34801561021f57600080fd5b5061012161022e366004612128565b610ed3565b34801561023f57600080fd5b50610121611014565b34801561025457600080fd5b50610121611026565b34801561026957600080fd5b50610121611158565b34801561027e57600080fd5b506033546040516001600160a01b0390911681526020016101d7565b3480156102a657600080fd5b506102da6102b5366004612162565b609860205260009081526040902080546001909101546001600160401b039091169082565b604080516001600160401b0390931683526020830191909152016101d7565b34801561030557600080fd5b50610334610314366004612184565b6097602052600090815260409020805460019091015460f09190911b9082565b604080516001600160f01b031990931683526020830191909152016101d7565b34801561036057600080fd5b5061012161036f36600461219f565b611168565b34801561038057600080fd5b5061012161038f366004612184565b611353565b61039c6113c9565b60006103a78461140f565b905060006103b5600061140f565b90506103c0346114de565b6040516000906103d690829086906020016121ec565b6040516020818303038152906040529050600073__$e184f4046250cd750dfdb139628ab13bdc$__63cb070de561040a3390565b85878a876040518663ffffffff1660e01b815260040161042e959493929190612270565b600060405180830381865af415801561044b573d6000803e3d6000fd5b505050506040513d6000823e601f3d908101601f1916820160405261047391908101906122c6565b90506000610481600261170a565b60208101518151604051637c87590960e11b81529293506150049263f90eb212926104d0926107ee9260009273ffffffff000000000000000100000000000000079290918a919060040161233c565b6020604051808303816000875af11580156104ef573d6000803e3d6000fd5b505050506040513d601f19601f820116820180604052508101906105139190612393565b6105385760405162461bcd60e51b815260040161052f906123b5565b60405180910390fd5b7fe869557c53c6b4ca27e56668068f17eca71394d04718a9214a7667f1474950ff3360008a348b8b8860405161057497969594939291906123e1565b60405180910390a15050505050505050565b6020815111156105ca5760405162461bcd60e51b815260206004820152600f60248201526e72656d61726b20746f6f206c6f6e6760881b604482015260640161052f565b60006105d58561140f565b90506105e18585611825565b6040516000906105f790829086906020016121ec565b6040516020818303038152906040529050600073__$e184f4046250cd750dfdb139628ab13bdc$__63b921552761062b3390565b8585886040518563ffffffff1660e01b815260040161064d9493929190612440565b600060405180830381865af415801561066a573d6000803e3d6000fd5b505050506040513d6000823e601f3d908101601f1916820160405261069291908101906122c6565b905060006106a0600061170a565b60208101518151604051637c87590960e11b81529293506150049263f90eb212926106ef926107ee9260009273ffffffff000000000000000100000000000000079290918a919060040161233c565b6020604051808303816000875af115801561070e573d6000803e3d6000fd5b505050506040513d601f19601f820116820180604052508101906107329190612393565b61074e5760405162461bcd60e51b815260040161052f906123b5565b7fca31869d7c65b3930a575eef33c6f69db06b0f1168af96408c4fceca8de0fadc33898989868a60405161057496959493929190612486565b61078f611a94565b610797611aee565b565b6107a16113c9565b60006107ac8461140f565b90506107b88484611825565b6040516000906107ce90829085906020016121ec565b6040516020818303038152906040529050600073__$e184f4046250cd750dfdb139628ab13bdc$__639f0047836108023390565b85856040518463ffffffff1660e01b8152600401610822939291906124d3565b600060405180830381865af415801561083f573d6000803e3d6000fd5b505050506040513d6000823e601f3d908101601f1916820160405261086791908101906122c6565b90506000610875600161170a565b60208101518151604051637c87590960e11b81529293506150049263f90eb212926108c4926107ee9260009273ffffffff000000000000000100000000000000079290918a919060040161233c565b6020604051808303816000875af11580156108e3573d6000803e3d6000fd5b505050506040513d601f19601f820116820180604052508101906109079190612393565b6109235760405162461bcd60e51b815260040161052f906123b5565b7f89996e9f85ecc9022265638d75df5de89dd421fab215e1b013ece5fcc188adce338888888660405161095a959493929190612507565b60405180910390a150505050505050565b60405162461bcd60e51b815260206004820152600b60248201526a139bdd081cdd5c1c1bdc9d60aa1b604482015260640161052f565b6109a9611a94565b806109ed5760405162461bcd60e51b8152602060048201526014602482015273496e76616c6964206d696e696d756d56616c756560601b604482015260640161052f565b6001600160f01b03198216610a395760405162461bcd60e51b8152602060048201526012602482015271125b9d985b1a590818dd5c9c995b98de525960721b604482015260640161052f565b6001600160a01b03929092166000908152609760205260409020805461ffff191660f09290921c91909117815560010155565b610a746113c9565b6000610a7f8661140f565b90506000610a8c8661140f565b90506001600160f01b0319821615801590610ab057506001600160f01b0319811615155b610af15760405162461bcd60e51b8152602060048201526012602482015271125b9d985b1a590818dd5c9c995b98de525960721b604482015260640161052f565b610afb8786611825565b604051600090610b1190829086906020016121ec565b6040516020818303038152906040529050600073__$e184f4046250cd750dfdb139628ab13bdc$__63cb070de5610b453390565b86868a876040518663ffffffff1660e01b8152600401610b69959493929190612270565b600060405180830381865af4158015610b86573d6000803e3d6000fd5b505050506040513d6000823e601f3d908101601f19168201604052610bae91908101906122c6565b90506000610bbc600261170a565b60208101518151604051637c87590960e11b81529293506150049263f90eb21292610c0b926107ee9260009273ffffffff000000000000000100000000000000079290918a919060040161233c565b6020604051808303816000875af1158015610c2a573d6000803e3d6000fd5b505050506040513d601f19601f82011682018060405250810190610c4e9190612393565b610c6a5760405162461bcd60e51b815260040161052f906123b5565b7fe869557c53c6b4ca27e56668068f17eca71394d04718a9214a7667f1474950ff338b8b8b8b8b88604051610ca597969594939291906123e1565b60405180910390a150505050505050505050565b610cc16113c9565b602081511115610d055760405162461bcd60e51b815260206004820152600f60248201526e72656d61726b20746f6f206c6f6e6760881b604482015260640161052f565b6000610d11600061140f565b9050610d1c346114de565b604051600090610d3290829086906020016121ec565b6040516020818303038152906040529050600073__$e184f4046250cd750dfdb139628ab13bdc$__63b9215527610d663390565b8585886040518563ffffffff1660e01b8152600401610d889493929190612440565b600060405180830381865af4158015610da5573d6000803e3d6000fd5b505050506040513d6000823e601f3d908101601f19168201604052610dcd91908101906122c6565b90506000610ddb600061170a565b60208101518151604051637c87590960e11b81529293506150049263f90eb21292610e2a926107ee9260009273ffffffff000000000000000100000000000000079290918a919060040161233c565b6020604051808303816000875af1158015610e49573d6000803e3d6000fd5b505050506040513d601f19601f82011682018060405250810190610e6d9190612393565b610e895760405162461bcd60e51b815260040161052f906123b5565b7fca31869d7c65b3930a575eef33c6f69db06b0f1168af96408c4fceca8de0fadc3360003489868a604051610ec396959493929190612486565b60405180910390a1505050505050565b610edb611a94565b6402540be400826001600160401b03161115610f485760405162461bcd60e51b815260206004820152602660248201527f7472616e73616374526571756972656457656967687441744d6f737420746f6f604482015265206c6172676560d01b606482015260840161052f565b64e8d4a51000811115610f935760405162461bcd60e51b8152602060048201526013602482015272666565416d6f756e7420746f6f206c6172676560681b604482015260640161052f565b6040518060400160405280836001600160401b031681526020018281525060986000856003811115610fc757610fc7612542565b6003811115610fd857610fd8612542565b81526020808201929092526040016000208251815467ffffffffffffffff19166001600160401b03909116178155910151600190910155505050565b61101c611a94565b6107976000611b40565b600054610100900460ff16158080156110465750600054600160ff909116105b806110605750303b158015611060575060005460ff166001145b6110c35760405162461bcd60e51b815260206004820152602e60248201527f496e697469616c697a61626c653a20636f6e747261637420697320616c72656160448201526d191e481a5b9a5d1a585b1a5e995960921b606482015260840161052f565b6000805460ff1916600117905580156110e6576000805461ff0019166101001790555b6110ee611b92565b6110f6611bc1565b61110f600061080360f01b670de0b6b3a76400006109a1565b8015611155576000805461ff0019169055604051600181527f7f26b83ff96e1f2b6a682f133852f6798a09c465da95921460cefb38474024989060200160405180910390a15b50565b611160611a94565b610797611bf0565b6111706113c9565b600061117b8561140f565b90506000611189600061140f565b90506111958686611825565b6040516000906111ab90829086906020016121ec565b6040516020818303038152906040529050600073__$e184f4046250cd750dfdb139628ab13bdc$__63cb070de56111df3390565b86868a876040518663ffffffff1660e01b8152600401611203959493929190612270565b600060405180830381865af4158015611220573d6000803e3d6000fd5b505050506040513d6000823e601f3d908101601f1916820160405261124891908101906122c6565b90506000611256600261170a565b60208101518151604051637c87590960e11b81529293506150049263f90eb212926112a5926107ee9260009273ffffffff000000000000000100000000000000079290918a919060040161233c565b6020604051808303816000875af11580156112c4573d6000803e3d6000fd5b505050506040513d601f19601f820116820180604052508101906112e89190612393565b6113045760405162461bcd60e51b815260040161052f906123b5565b7fe869557c53c6b4ca27e56668068f17eca71394d04718a9214a7667f1474950ff338a60008b8b8b8860405161134097969594939291906123e1565b60405180910390a1505050505050505050565b61135b611a94565b6001600160a01b0381166113c05760405162461bcd60e51b815260206004820152602660248201527f4f776e61626c653a206e6577206f776e657220697320746865207a65726f206160448201526564647265737360d01b606482015260840161052f565b61115581611b40565b60655460ff16156107975760405162461bcd60e51b815260206004820152601060248201526f14185d5cd8589b194e881c185d5cd95960821b604482015260640161052f565b6001600160a01b03811660009081526097602090815260408083208151808301909252805460f01b6001600160f01b0319168252600101549181018290529061148f5760405162461bcd60e51b8152602060048201526012602482015271105cdcd95d081a5cc81b9bdd08195e1a5cdd60721b604482015260640161052f565b80516001600160f01b0319166114d75760405162461bcd60e51b815260206004820152600d60248201526c125b9d985b1a5908185cdcd95d609a1b604482015260640161052f565b5192915050565b6000805260976020527f683723e34a772b6e4f2c919bba7fa32ed8ea11a8325f54da7db716e9d9dd98c8548110156115515760405162461bcd60e51b81526020600482015260166024820152754c657373207468616e204d696e696d756d56616c756560501b604482015260640161052f565b600073__$ddfb0e6c1c4d05795fcce73a90830b0995$__6332640a52336040516001600160e01b031960e084901b1681526001600160a01b039091166004820152602401602060405180830381865af41580156115b2573d6000803e3d6000fd5b505050506040513d601f19601f820116820180604052508101906115d69190612558565b6040805160018082528183019092529192506000919060208083019080368337505060408051600180825281830190925292935060009291506020808301908036833701905050905060008260008151811061163457611634612571565b60200260200101906001600160a01b031690816001600160a01b031681525050838160008151811061166857611668612571565b602090810291909101015260405163400c0e8d60e01b81526150049063400c0e8d906116a5908590859088906000906107ee908290600401612587565b6020604051808303816000875af11580156116c4573d6000803e3d6000fd5b505050506040513d601f19601f820116820180604052508101906116e89190612393565b6117045760405162461bcd60e51b815260040161052f906123b5565b50505050565b604080518082019091526000808252602082015260006098600084600381111561173657611736612542565b600381111561174757611747612542565b81526020808201929092526040908101600020815180830190925280546001600160401b03168083526001909101549282019290925291506117d75760405162461bcd60e51b8152602060048201526024808201527f496e76616c6964207472616e7361637452657175697265645765696768744174604482015263135bdcdd60e21b606482015260840161052f565b600081602001511161181f5760405162461bcd60e51b8152602060048201526011602482015270125b9d985b1a5908199959505b5bdd5b9d607a1b604482015260640161052f565b92915050565b6001600160a01b0382166118725760405162461bcd60e51b8152602060048201526014602482015273496e76616c69642061737365744164647265737360601b604482015260640161052f565b6001600160a01b0382166000908152609760205260409020600101548110156118d65760405162461bcd60e51b81526020600482015260166024820152754c657373207468616e204d696e696d756d56616c756560501b604482015260640161052f565b600073__$ddfb0e6c1c4d05795fcce73a90830b0995$__6332640a52336040516001600160e01b031960e084901b1681526001600160a01b039091166004820152602401602060405180830381865af4158015611937573d6000803e3d6000fd5b505050506040513d601f19601f8201168201806040525081019061195b9190612558565b9050600061196882611c2d565b9050836001600160a01b0381166323b872dd336040516001600160e01b031960e084901b1681526001600160a01b039091166004820152306024820152604481018790526064016020604051808303816000875af11580156119ce573d6000803e3d6000fd5b505050506040513d601f19601f820116820180604052508101906119f29190612393565b50604080518082018252600080825260208201529051630d8eb59560e31b815261500491636c75aca891611a2e91899189918891600401612633565b6020604051808303816000875af1158015611a4d573d6000803e3d6000fd5b505050506040513d601f19601f82011682018060405250810190611a719190612393565b611a8d5760405162461bcd60e51b815260040161052f906123b5565b5050505050565b6033546001600160a01b031633146107975760405162461bcd60e51b815260206004820181905260248201527f4f776e61626c653a2063616c6c6572206973206e6f7420746865206f776e6572604482015260640161052f565b611af6611d2b565b6065805460ff191690557f5db9ee0a495bf2e6ff9c91a7834c1ba4fdd244a5e8aa4e537bd38aeae4b073aa335b6040516001600160a01b03909116815260200160405180910390a1565b603380546001600160a01b038381166001600160a01b0319831681179093556040519116919082907f8be0079c531659141344cd1fd0a4f28419497f9722a3daafe3b4186f6b6457e090600090a35050565b600054610100900460ff16611bb95760405162461bcd60e51b815260040161052f906126e2565b610797611d74565b600054610100900460ff16611be85760405162461bcd60e51b815260040161052f906126e2565b610797611da4565b611bf86113c9565b6065805460ff191660011790557f62e78cea01bee320cd4e420270b5ea74000d11b0c9f74754ebdbfc544b05a258611b233390565b60408051808201825260008082526060602083018190528351600280825291810190945291929091816020015b6060815260200190600190039081611c5a57905050604051600060208201526103f760e11b602182015290915060250160405160208183030381529060405281600081518110611cac57611cac612571565b602002602001018190525082604051602001611cdf9190600160f81b815260018101919091526000602182015260220190565b60405160208183030381529060405281600181518110611d0157611d01612571565b60209081029190910181019190915260408051808201909152600181529081019190915292915050565b60655460ff166107975760405162461bcd60e51b815260206004820152601460248201527314185d5cd8589b194e881b9bdd081c185d5cd95960621b604482015260640161052f565b600054610100900460ff16611d9b5760405162461bcd60e51b815260040161052f906126e2565b61079733611b40565b600054610100900460ff16611dcb5760405162461bcd60e51b815260040161052f906126e2565b6065805460ff19169055565b80356001600160a01b0381168114611dee57600080fd5b919050565b80356001600160801b0381168114611dee57600080fd5b600080600060608486031215611e1f57600080fd5b611e2884611dd7565b9250611e3660208501611df3565b9150611e4460408501611dd7565b90509250925092565b634e487b7160e01b600052604160045260246000fd5b604051601f8201601f191681016001600160401b0381118282101715611e8b57611e8b611e4d565b604052919050565b60006001600160401b03821115611eac57611eac611e4d565b50601f01601f191660200190565b600082601f830112611ecb57600080fd5b8135611ede611ed982611e93565b611e63565b818152846020838601011115611ef357600080fd5b816020850160208301376000918101602001919091529392505050565b60008060008060808587031215611f2657600080fd5b611f2f85611dd7565b935060208501359250611f4460408601611dd7565b915060608501356001600160401b03811115611f5f57600080fd5b611f6b87828801611eba565b91505092959194509250565b600080600060608486031215611f8c57600080fd5b611f9584611dd7565b925060208401359150611e4460408501611dd7565b60008060008060008060c08789031215611fc357600080fd5b863563ffffffff81168114611fd757600080fd5b9550611fe560208801611dd7565b9450611ff360408801611dd7565b93506060870135925061200860808801611df3565b915061201660a08801611dd7565b90509295509295509295565b60008060006060848603121561203757600080fd5b61204084611dd7565b925060208401356001600160f01b03198116811461205d57600080fd5b929592945050506040919091013590565b600080600080600060a0868803121561208657600080fd5b61208f86611dd7565b945061209d60208701611dd7565b9350604086013592506120b260608701611df3565b91506120c060808701611dd7565b90509295509295909350565b600080604083850312156120df57600080fd5b6120e883611dd7565b915060208301356001600160401b0381111561210357600080fd5b61210f85828601611eba565b9150509250929050565b803560048110611dee57600080fd5b60008060006060848603121561213d57600080fd5b61214684612119565b925060208401356001600160401b038116811461205d57600080fd5b60006020828403121561217457600080fd5b61217d82612119565b9392505050565b60006020828403121561219657600080fd5b61217d82611dd7565b600080600080608085870312156121b557600080fd5b6121be85611dd7565b9350602085013592506121d360408601611df3565b91506121e160608601611dd7565b905092959194509250565b6001600160f81b031992909216825260601b6bffffffffffffffffffffffff1916600182015260150190565b60005b8381101561223357818101518382015260200161221b565b838111156117045750506000910152565b6000815180845261225c816020860160208601612218565b601f01601f19169290920160200192915050565b6001600160a01b03861681526001600160f01b03198581166020830152841660408201526001600160801b038316606082015260a0608082018190526000906122bb90830184612244565b979650505050505050565b6000602082840312156122d857600080fd5b81516001600160401b038111156122ee57600080fd5b8201601f810184136122ff57600080fd5b805161230d611ed982611e93565b81815285602083850101111561232257600080fd5b612333826020830160208601612218565b95945050505050565b63ffffffff87168152851515602082015260018060a01b038516604082015283606082015260c06080820152600061237760c0830185612244565b90506001600160401b03831660a0830152979650505050505050565b6000602082840312156123a557600080fd5b8151801515811461217d57600080fd5b6020808252601290820152714661696c656420746f2073656e642078636d60701b604082015260600190565b6001600160a01b03888116825287811660208301528681166040830152606082018690526001600160801b0385166080830152831660a082015260e060c0820181905260009061243390830184612244565b9998505050505050505050565b6001600160a01b03851681526001600160f01b03198416602082015260806040820181905260009061247490830185612244565b82810360608401526122bb8185612244565b6001600160a01b0387811682528681166020830152604082018690528416606082015260c0608082018190526000906124c190830185612244565b82810360a08401526124338185612244565b6001600160a01b03841681526001600160f01b03198316602082015260606040820181905260009061233390830184612244565b6001600160a01b0386811682528581166020830152604082018590528316606082015260a0608082018190526000906122bb90830184612244565b634e487b7160e01b600052602160045260246000fd5b60006020828403121561256a57600080fd5b5051919050565b634e487b7160e01b600052603260045260246000fd5b60c0808252875190820181905260009060209060e0840190828b01845b828110156125c95781516001600160a01b0316845292840192908401906001016125a4565b5050508381038285015288518082528983019183019060005b818110156125fe578351835292840192918401916001016125e2565b50506040850189905287151560608601529250612619915050565b63ffffffff93909316608082015260a00152949350505050565b60018060a01b038516815260006020858184015260a0604084015260e0830160ff86511660a085015281860151604060c086015281815180845261010093508387019150838160051b8801019350848301925060005b818110156126b75760ff198886030183526126a5858551612244565b94509285019291850191600101612689565b505086516001600160401b039081166060880152602088015116608087015250909250612333915050565b6020808252602b908201527f496e697469616c697a61626c653a20636f6e7472616374206973206e6f74206960408201526a6e697469616c697a696e6760a81b60608201526080019056fea2646970667358221220b18bfabf12b708f4f54cf5a6d3cdc398b23d35b71d9909aa2095b7e58ccde7ac64736f6c634300080a0033",
  "libraries": {
    "AddressToAccount": "0x8F8F6B104190a4A24CcFf7B4006Ea7A59baeAf81",
    "BuildCallData": "0x3311A4609cdD0C7Ce8D2Dfa592BA4aDD23FeC578"
  },
  "devdoc": {
    "kind": "dev",
    "methods": {
      "owner()": {
        "details": "Returns the address of the current owner."
      },
      "paused()": {
        "details": "Returns true if the contract is paused, and false otherwise."
      },
      "renounceOwnership()": {
        "details": "Leaves the contract without owner. It will not be possible to call `onlyOwner` functions. Can only be called by the current owner. NOTE: Renouncing ownership will leave the contract without an owner, thereby disabling any functionality that is only available to the owner."
      },
      "transferOwnership(address)": {
        "details": "Transfers ownership of the contract to a new account (`newOwner`). Can only be called by the current owner."
      }
    },
    "version": 1
  },
  "userdoc": {
    "kind": "user",
    "methods": {
      "mintVAsset(address,uint256,address,string)": {
        "notice": "Minted vAssets"
      },
      "mintVNativeAsset(address,string)": {
        "notice": "Minted vNative assets such as vASTR, vGLMR, vMOVR"
      },
      "redeemAsset(address,uint256,address)": {
        "notice": "Redeem assets"
      },
      "swapAssetsForExactAssets(address,address,uint256,uint128,address)": {
        "notice": "Swap one asset for another"
      },
      "swapAssetsForExactNativeAssets(address,uint256,uint128,address)": {
        "notice": "Swap one asset for native asset"
      },
      "swapNativeAssetsForExactAssets(address,uint128,address)": {
        "notice": "Swap native asset for another"
      }
    },
    "version": 1
  },
  "storageLayout": {
    "storage": [
      {
        "astId": 138,
        "contract": "contracts/AstarSlpx.sol:AstarSlpx",
        "label": "_initialized",
        "offset": 0,
        "slot": "0",
        "type": "t_uint8"
      },
      {
        "astId": 141,
        "contract": "contracts/AstarSlpx.sol:AstarSlpx",
        "label": "_initializing",
        "offset": 1,
        "slot": "0",
        "type": "t_bool"
      },
      {
        "astId": 798,
        "contract": "contracts/AstarSlpx.sol:AstarSlpx",
        "label": "__gap",
        "offset": 0,
        "slot": "1",
        "type": "t_array(t_uint256)50_storage"
      },
      {
        "astId": 10,
        "contract": "contracts/AstarSlpx.sol:AstarSlpx",
        "label": "_owner",
        "offset": 0,
        "slot": "51",
        "type": "t_address"
      },
      {
        "astId": 130,
        "contract": "contracts/AstarSlpx.sol:AstarSlpx",
        "label": "__gap",
        "offset": 0,
        "slot": "52",
        "type": "t_array(t_uint256)49_storage"
      },
      {
        "astId": 321,
        "contract": "contracts/AstarSlpx.sol:AstarSlpx",
        "label": "_paused",
        "offset": 0,
        "slot": "101",
        "type": "t_bool"
      },
      {
        "astId": 426,
        "contract": "contracts/AstarSlpx.sol:AstarSlpx",
        "label": "__gap",
        "offset": 0,
        "slot": "102",
        "type": "t_array(t_uint256)49_storage"
      },
      {
        "astId": 928,
        "contract": "contracts/AstarSlpx.sol:AstarSlpx",
        "label": "addressToAssetInfo",
        "offset": 0,
        "slot": "151",
        "type": "t_mapping(t_address,t_struct(AssetInfo)918_storage)"
      },
      {
        "astId": 934,
        "contract": "contracts/AstarSlpx.sol:AstarSlpx",
        "label": "operationToFeeInfo",
        "offset": 0,
        "slot": "152",
        "type": "t_mapping(t_enum(Operation)913,t_struct(FeeInfo)923_storage)"
      }
    ],
    "types": {
      "t_address": {
        "encoding": "inplace",
        "label": "address",
        "numberOfBytes": "20"
      },
      "t_array(t_uint256)49_storage": {
        "base": "t_uint256",
        "encoding": "inplace",
        "label": "uint256[49]",
        "numberOfBytes": "1568"
      },
      "t_array(t_uint256)50_storage": {
        "base": "t_uint256",
        "encoding": "inplace",
        "label": "uint256[50]",
        "numberOfBytes": "1600"
      },
      "t_bool": {
        "encoding": "inplace",
        "label": "bool",
        "numberOfBytes": "1"
      },
      "t_bytes2": {
        "encoding": "inplace",
        "label": "bytes2",
        "numberOfBytes": "2"
      },
      "t_enum(Operation)913": {
        "encoding": "inplace",
        "label": "enum AstarSlpx.Operation",
        "numberOfBytes": "1"
      },
      "t_mapping(t_address,t_struct(AssetInfo)918_storage)": {
        "encoding": "mapping",
        "key": "t_address",
        "label": "mapping(address => struct AstarSlpx.AssetInfo)",
        "numberOfBytes": "32",
        "value": "t_struct(AssetInfo)918_storage"
      },
      "t_mapping(t_enum(Operation)913,t_struct(FeeInfo)923_storage)": {
        "encoding": "mapping",
        "key": "t_enum(Operation)913",
        "label": "mapping(enum AstarSlpx.Operation => struct AstarSlpx.FeeInfo)",
        "numberOfBytes": "32",
        "value": "t_struct(FeeInfo)923_storage"
      },
      "t_struct(AssetInfo)918_storage": {
        "encoding": "inplace",
        "label": "struct AstarSlpx.AssetInfo",
        "members": [
          {
            "astId": 915,
            "contract": "contracts/AstarSlpx.sol:AstarSlpx",
            "label": "currencyId",
            "offset": 0,
            "slot": "0",
            "type": "t_bytes2"
          },
          {
            "astId": 917,
            "contract": "contracts/AstarSlpx.sol:AstarSlpx",
            "label": "operationalMin",
            "offset": 0,
            "slot": "1",
            "type": "t_uint256"
          }
        ],
        "numberOfBytes": "64"
      },
      "t_struct(FeeInfo)923_storage": {
        "encoding": "inplace",
        "label": "struct AstarSlpx.FeeInfo",
        "members": [
          {
            "astId": 920,
            "contract": "contracts/AstarSlpx.sol:AstarSlpx",
            "label": "transactRequiredWeightAtMost",
            "offset": 0,
            "slot": "0",
            "type": "t_uint64"
          },
          {
            "astId": 922,
            "contract": "contracts/AstarSlpx.sol:AstarSlpx",
            "label": "feeAmount",
            "offset": 0,
            "slot": "1",
            "type": "t_uint256"
          }
        ],
        "numberOfBytes": "64"
      },
      "t_uint256": {
        "encoding": "inplace",
        "label": "uint256",
        "numberOfBytes": "32"
      },
      "t_uint64": {
        "encoding": "inplace",
        "label": "uint64",
        "numberOfBytes": "8"
      },
      "t_uint8": {
        "encoding": "inplace",
        "label": "uint8",
        "numberOfBytes": "1"
      }
    }
  }
}