{
  "address": "0x825cddFb8F28f1C09577A20f649E2736886380C4",
  "abi": [
    {
      "inputs": [
        {
          "internalType": "address",
          "name": "_soneiumSlpx",
          "type": "address"
        },
        {
          "internalType": "address",
          "name": "router",
          "type": "address"
        }
      ],
      "stateMutability": "nonpayable",
      "type": "constructor"
    },
    {
      "inputs": [
        {
          "internalType": "address",
          "name": "router",
          "type": "address"
        }
      ],
      "name": "InvalidRouter",
      "type": "error"
    },
    {
      "anonymous": false,
      "inputs": [
        {
          "indexed": true,
          "internalType": "address",
          "name": "previousOwner",
          "type": "address"
        },
        {
          "indexed": true,
          "internalType": "address",
          "name": "newOwner",
          "type": "address"
        }
      ],
      "name": "OwnershipTransferred",
      "type": "event"
    },
    {
      "anonymous": false,
      "inputs": [
        {
          "indexed": true,
          "internalType": "address",
          "name": "sender",
          "type": "address"
        },
        {
          "indexed": true,
          "internalType": "uint256",
          "name": "amount",
          "type": "uint256"
        }
      ],
      "name": "Receive",
      "type": "event"
    },
    {
      "anonymous": false,
      "inputs": [
        {
          "indexed": true,
          "internalType": "address",
          "name": "caller",
          "type": "address"
        },
        {
          "indexed": true,
          "internalType": "address",
          "name": "derivativeAddress",
          "type": "address"
        }
      ],
      "name": "SetDerivativeAddress",
      "type": "event"
    },
    {
      "anonymous": false,
      "inputs": [
        {
          "indexed": true,
          "internalType": "address",
          "name": "scriptTrigger",
          "type": "address"
        },
        {
          "indexed": true,
          "internalType": "uint256",
          "name": "vastrFee",
          "type": "uint256"
        }
      ],
      "name": "SetLayerZeroFee",
      "type": "event"
    },
    {
      "anonymous": false,
      "inputs": [
        {
          "indexed": true,
          "internalType": "address",
          "name": "scriptTrigger",
          "type": "address"
        }
      ],
      "name": "SetScriptTrigger",
      "type": "event"
    },
    {
      "inputs": [],
      "name": "BNC",
      "outputs": [
        {
          "internalType": "address",
          "name": "",
          "type": "address"
        }
      ],
      "stateMutability": "view",
      "type": "function"
    },
    {
      "inputs": [],
      "name": "VASTR",
      "outputs": [
        {
          "internalType": "address",
          "name": "",
          "type": "address"
        }
      ],
      "stateMutability": "view",
      "type": "function"
    },
    {
      "inputs": [],
      "name": "astarSlpx",
      "outputs": [
        {
          "internalType": "address",
          "name": "",
          "type": "address"
        }
      ],
      "stateMutability": "view",
      "type": "function"
    },
    {
      "inputs": [
        {
          "internalType": "address",
          "name": "",
          "type": "address"
        }
      ],
      "name": "callerToDerivativeAddress",
      "outputs": [
        {
          "internalType": "address",
          "name": "",
          "type": "address"
        }
      ],
      "stateMutability": "view",
      "type": "function"
    },
    {
      "inputs": [
        {
          "components": [
            {
              "internalType": "bytes32",
              "name": "messageId",
              "type": "bytes32"
            },
            {
              "internalType": "uint64",
              "name": "sourceChainSelector",
              "type": "uint64"
            },
            {
              "internalType": "bytes",
              "name": "sender",
              "type": "bytes"
            },
            {
              "internalType": "bytes",
              "name": "data",
              "type": "bytes"
            },
            {
              "components": [
                {
                  "internalType": "address",
                  "name": "token",
                  "type": "address"
                },
                {
                  "internalType": "uint256",
                  "name": "amount",
                  "type": "uint256"
                }
              ],
              "internalType": "struct Client.EVMTokenAmount[]",
              "name": "destTokenAmounts",
              "type": "tuple[]"
            }
          ],
          "internalType": "struct Client.Any2EVMMessage",
          "name": "message",
          "type": "tuple"
        }
      ],
      "name": "ccipReceive",
      "outputs": [],
      "stateMutability": "nonpayable",
      "type": "function"
    },
    {
      "inputs": [
        {
          "internalType": "address",
          "name": "addr",
          "type": "address"
        },
        {
          "internalType": "uint256",
          "name": "gasLimit",
          "type": "uint256"
        }
      ],
      "name": "claimAstr",
      "outputs": [],
      "stateMutability": "payable",
      "type": "function"
    },
    {
      "inputs": [
        {
          "internalType": "address",
          "name": "addr",
          "type": "address"
        },
        {
          "internalType": "bytes",
          "name": "_adapterParams",
          "type": "bytes"
        }
      ],
      "name": "claimVAstr",
      "outputs": [],
      "stateMutability": "payable",
      "type": "function"
    },
    {
      "inputs": [],
      "name": "destChainId",
      "outputs": [
        {
          "internalType": "uint16",
          "name": "",
          "type": "uint16"
        }
      ],
      "stateMutability": "view",
      "type": "function"
    },
    {
      "inputs": [],
      "name": "getRouter",
      "outputs": [
        {
          "internalType": "address",
          "name": "",
          "type": "address"
        }
      ],
      "stateMutability": "view",
      "type": "function"
    },
    {
      "inputs": [
        {
          "internalType": "address",
          "name": "",
          "type": "address"
        }
      ],
      "name": "isDerivativeAddress",
      "outputs": [
        {
          "internalType": "bool",
          "name": "",
          "type": "bool"
        }
      ],
      "stateMutability": "view",
      "type": "function"
    },
    {
      "inputs": [
        {
          "internalType": "uint16",
          "name": "_srcChainId",
          "type": "uint16"
        },
        {
          "internalType": "bytes",
          "name": "",
          "type": "bytes"
        },
        {
          "internalType": "uint64",
          "name": "",
          "type": "uint64"
        },
        {
          "internalType": "bytes32",
          "name": "_from",
          "type": "bytes32"
        },
        {
          "internalType": "uint256",
          "name": "_amount",
          "type": "uint256"
        },
        {
          "internalType": "bytes",
          "name": "_payload",
          "type": "bytes"
        }
      ],
      "name": "onOFTReceived",
      "outputs": [],
      "stateMutability": "nonpayable",
      "type": "function"
    },
    {
      "inputs": [],
      "name": "owner",
      "outputs": [
        {
          "internalType": "address",
          "name": "",
          "type": "address"
        }
      ],
      "stateMutability": "view",
      "type": "function"
    },
    {
      "inputs": [],
      "name": "polkadotXcm",
      "outputs": [
        {
          "internalType": "address",
          "name": "",
          "type": "address"
        }
      ],
      "stateMutability": "view",
      "type": "function"
    },
    {
      "inputs": [],
      "name": "renounceOwnership",
      "outputs": [],
      "stateMutability": "nonpayable",
      "type": "function"
    },
    {
      "inputs": [],
      "name": "scriptTrigger",
      "outputs": [
        {
          "internalType": "address",
          "name": "",
          "type": "address"
        }
      ],
      "stateMutability": "view",
      "type": "function"
    },
    {
      "inputs": [],
      "name": "setLayerZeroFee",
      "outputs": [],
      "stateMutability": "nonpayable",
      "type": "function"
    },
    {
      "inputs": [
        {
          "internalType": "address",
          "name": "_scriptTrigger",
          "type": "address"
        }
      ],
      "name": "setScriptTrigger",
      "outputs": [],
      "stateMutability": "nonpayable",
      "type": "function"
    },
    {
      "inputs": [],
      "name": "soneiumSlpx",
      "outputs": [
        {
          "internalType": "address",
          "name": "",
          "type": "address"
        }
      ],
      "stateMutability": "view",
      "type": "function"
    },
    {
      "inputs": [
        {
          "internalType": "bytes4",
          "name": "interfaceId",
          "type": "bytes4"
        }
      ],
      "name": "supportsInterface",
      "outputs": [
        {
          "internalType": "bool",
          "name": "",
          "type": "bool"
        }
      ],
      "stateMutability": "pure",
      "type": "function"
    },
    {
      "inputs": [
        {
          "internalType": "address",
          "name": "newOwner",
          "type": "address"
        }
      ],
      "name": "transferOwnership",
      "outputs": [],
      "stateMutability": "nonpayable",
      "type": "function"
    },
    {
      "inputs": [],
      "name": "vAstrProxyOFT",
      "outputs": [
        {
          "internalType": "address",
          "name": "",
          "type": "address"
        }
      ],
      "stateMutability": "view",
      "type": "function"
    },
    {
      "inputs": [],
      "name": "vastrLayerZeroFee",
      "outputs": [
        {
          "internalType": "uint256",
          "name": "",
          "type": "uint256"
        }
      ],
      "stateMutability": "view",
      "type": "function"
    },
    {
      "stateMutability": "payable",
      "type": "receive"
    }
  ],
  "transactionHash": "0x1c86b35fed2fddaa054507d040b8b0d6f86e34d35c96fede0f0156bd09734251",
  "args": [
    "0x9D40Ca58eF5392a8fB161AB27c7f61de5dfBF0E2",
    "0x8D5c5CB8ec58285B424C93436189fB865e437feF"
  ],
  "numDeployments": 1,
  "solcInputHash": "c9dacfc9b64ed266a94c921b9fcde4e0",
  "bytecode": "0x60a06040523480156200001157600080fd5b506040516200316538038062003165833981016040819052620000349162000168565b806001600160a01b03811662000065576040516335fdcccd60e21b8152600060048201526024015b60405180910390fd5b6001600160a01b03166080526200007c33620000fb565b6001600160a01b038216620000d45760405162461bcd60e51b815260206004820152601360248201527f496e76616c696420736f6e6569756d536c70780000000000000000000000000060448201526064016200005c565b50600180546001600160a01b0319166001600160a01b0392909216919091179055620001a0565b600080546001600160a01b038381166001600160a01b0319831681178455604051919092169283917f8be0079c531659141344cd1fd0a4f28419497f9722a3daafe3b4186f6b6457e09190a35050565b80516001600160a01b03811681146200016357600080fd5b919050565b600080604083850312156200017c57600080fd5b62000187836200014b565b915062000197602084016200014b565b90509250929050565b608051612fa2620001c36000396000818161038e0152610c0c0152612fa26000f3fe6080604052600436106101395760003560e01c80639641e45e116100ab578063b0f479a11161006f578063b0f479a11461037f578063c4af1c0b146103b2578063c95b6f0e146103db578063d01cca0f14610403578063f29588c714610416578063f2fde38b1461043e57600080fd5b80639641e45e146102c757806397877cd7146102ef57806397f3fd3814610313578063a7fd9c6b14610333578063aae9ecff1461036957600080fd5b806352b814b6116100fd57806352b814b6146102215780635d741b0914610234578063715018a6146102545780637fcf35da1461026957806385572ffb146102895780638da5cb5b146102a957600080fd5b806301ffc9a7146101455780630253a1d61461017a57806328b743a2146101915780632991e4e6146101c1578063357ba05f1461020157600080fd5b3661014057005b600080fd5b34801561015157600080fd5b50610165610160366004611f06565b61045e565b60405190151581526020015b60405180910390f35b34801561018657600080fd5b5061018f610495565b005b34801561019d57600080fd5b506101656101ac366004611f45565b60056020526000908152604090205460ff1681565b3480156101cd57600080fd5b506101e973ffffffff0000000000000001000000000000001081565b6040516001600160a01b039091168152602001610171565b34801561020d57600080fd5b5061018f61021c366004611f45565b6105e4565b61018f61022f366004611faa565b61067e565b34801561024057600080fd5b506003546101e9906001600160a01b031681565b34801561026057600080fd5b5061018f610a84565b34801561027557600080fd5b5061018f610284366004612023565b610a98565b34801561029557600080fd5b5061018f6102a43660046120d3565b610c01565b3480156102b557600080fd5b506000546001600160a01b03166101e9565b3480156102d357600080fd5b506101e973c6bf0c5c78686f1d0e2e54b97d6de6e2cefae9fd81565b3480156102fb57600080fd5b5061030560025481565b604051908152602001610171565b34801561031f57600080fd5b506001546101e9906001600160a01b031681565b34801561033f57600080fd5b506101e961034e366004611f45565b6004602052600090815260409020546001600160a01b031681565b34801561037557600080fd5b506101e961500481565b34801561038b57600080fd5b507f00000000000000000000000000000000000000000000000000000000000000006101e9565b3480156103be57600080fd5b506103c861015481565b60405161ffff9091168152602001610171565b3480156103e757600080fd5b506101e973ba273b7fa296614019c71dcc54dca6c922a93bcf81565b61018f61041136600461210d565b610c60565b34801561042257600080fd5b506101e973ffffffff0000000000000001000000000000000781565b34801561044a57600080fd5b5061018f610459366004611f45565b6111a4565b60006001600160e01b031982166385572ffb60e01b148061048f57506001600160e01b031982166301ffc9a760e01b145b92915050565b6003546001600160a01b0316336001600160a01b0316146104d15760405162461bcd60e51b81526004016104c890612139565b60405180910390fd5b600354604051600160f01b6020820152620186a060228201526001600160a01b0390911690683635c9adc5dea000009060009060420160408051601f1981840301815290829052630d94982d60e21b8252915060009073ba273b7fa296614019c71dcc54dca6c922a93bcf9063365260b49061055b906101549088908890879089906004016121c0565b6040805180830381865afa158015610577573d6000803e3d6000fd5b505050506040513d601f19601f8201168201806040525081019061059b91906121fc565b50600281905560035460405191925082916001600160a01b03909116907f405485c96e1fef0d0e7aa1b6bc6f839d6e825f49f9e5607dc07fcd69e098970690600090a350505050565b6105ec61121a565b6001600160a01b0381166106345760405162461bcd60e51b815260206004820152600f60248201526e696e76616c6964206164647265737360881b60448201526064016104c8565b600380546001600160a01b0319166001600160a01b0383169081179091556040517fda100d63215e418eb5fdfcdb0b592f13bc6aea387392797c16c70caf4ea8772190600090a250565b6003546001600160a01b0316336001600160a01b0316146106b15760405162461bcd60e51b81526004016104c890612139565b6001600160a01b03808416600090815260046020526040902054168061070b5760405162461bcd60e51b815260206004820152600f60248201526e696e76616c6964206164647265737360881b60448201526064016104c8565b6040516308aea7fd60e41b815273ffffffff0000000000000001000000000000001060048201526000906001600160a01b03831690638aea7fd0906024016020604051808303816000875af1158015610768573d6000803e3d6000fd5b505050506040513d601f19601f8201168201806040525081019061078c9190612220565b60405163095ea7b360e01b815273ba273b7fa296614019c71dcc54dca6c922a93bcf60048201526024810182905290915073ffffffff000000000000000100000000000000109063095ea7b3906044016020604051808303816000875af11580156107fb573d6000803e3d6000fd5b505050506040513d601f19601f8201168201806040525081019061081f9190612239565b50600060405180606001604052806108343390565b6001600160a01b0316815260200160006001600160a01b0316815260200186868080601f0160208091040260200160405190810160405280939291908181526020018383808284376000920182905250939094525050604051630d94982d60e21b81529293506001600160a01b0389169290915073ba273b7fa296614019c71dcc54dca6c922a93bcf9063365260b4906108de90610154908690899087908e908e9060040161225b565b6040805180830381865afa1580156108fa573d6000803e3d6000fd5b505050506040513d601f19601f8201168201806040525081019061091e91906121fc565b509050803410156109615760405162461bcd60e51b815260206004820152600d60248201526c746f6f20736d616c6c2066656560981b60448201526064016104c8565b803414610a0557600061097482346122ac565b604051909150600090339083908381818185875af1925050503d80600081146109b9576040519150601f19603f3d011682016040523d82523d6000602084013e6109be565b606091505b5050905080610a025760405162461bcd60e51b815260206004820152601060248201526f19985a5b1959081d1bc81c99599d5b9960821b60448201526064016104c8565b50505b60405163695ef6bf60e01b815273ba273b7fa296614019c71dcc54dca6c922a93bcf9063695ef6bf908390610a489030906101549088908b908b906004016122d1565b6000604051808303818588803b158015610a6157600080fd5b505af1158015610a75573d6000803e3d6000fd5b50505050505050505050505050565b610a8c61121a565b610a966000611274565b565b61ffff881661015414610aed5760405162461bcd60e51b815260206004820152601e60248201527f6f6e6c792072656365697665206d73672066726f6d2061737461722d7a6b000060448201526064016104c8565b3373ba273b7fa296614019c71dcc54dca6c922a93bcf14610b505760405162461bcd60e51b815260206004820152601860248201527f6f6e6c79206e6174697665206f66742063616e2063616c6c000000000000000060448201526064016104c8565b6001546001600160a01b03858116911614610bb75760405162461bcd60e51b815260206004820152602160248201527f6f6e6c792072656365697665206d73672066726f6d20736f6e6569756d536c706044820152600f60fb1b60648201526084016104c8565b610bf78383838080601f0160208091040260200160405190810160405280939291908181526020018383808284376000920191909152506112c492505050565b5050505050505050565b336001600160a01b037f00000000000000000000000000000000000000000000000000000000000000001614610c4c576040516335fdcccd60e21b81523360048201526024016104c8565b610c5d610c58826124f1565b611490565b50565b6003546001600160a01b0316336001600160a01b031614610c935760405162461bcd60e51b81526004016104c890612139565b6001600160a01b038083166000908152600460208181526040808420548151631686199360e21b8152915194951693635a18664c938281019392829003018187875af1158015610ce7573d6000803e3d6000fd5b505050506040513d601f19601f82011682018060405250810190610d0b9190612220565b90507337795fdd8c165cab4d6c05771d564d80439cd0936001600160a01b031663d0e30db0826040518263ffffffff1660e01b81526004016000604051808303818588803b158015610d5c57600080fd5b505af1158015610d70573d6000803e3d6000fd5b505060405163095ea7b360e01b8152738d5c5cb8ec58285b424c93436189fb865e437fef6004820152602481018590527337795fdd8c165cab4d6c05771d564d80439cd093935063095ea7b3925060440190506020604051808303816000875af1158015610de2573d6000803e3d6000fd5b505050506040513d601f19601f82011682018060405250810190610e069190612239565b50604080516001808252818301909252600091816020015b6040805180820190915260008082526020820152815260200190600190039081610e1e579050509050600060405180604001604052807337795fdd8c165cab4d6c05771d564d80439cd0936001600160a01b031681526020018481525090508082600081518110610e9157610e9161259d565b60209081029190910101526040805160a081019091526001600160a01b03861660c08201526000908060e081016040516020818303038152906040528152602001604051602001610eed90602080825260009082015260400190565b60405160208183030381529060405281526020018481526020017337795fdd8c165cab4d6c05771d564d80439cd0936001600160a01b03168152602001610f7960405180602001604052808981525060408051915160248084019190915281518084039091018152604490920190526020810180516001600160e01b03166397a657c960e01b17905290565b81525090506000306001600160a01b031663b0f479a16040518163ffffffff1660e01b8152600401602060405180830381865afa158015610fbe573d6000803e3d6000fd5b505050506040513d601f19601f82011682018060405250810190610fe291906125b3565b6001600160a01b03166320487ded67ad8bef0a6a427394846040518363ffffffff1660e01b81526004016110179291906125d0565b602060405180830381865afa158015611034573d6000803e3d6000fd5b505050506040513d601f19601f820116820180604052508101906110589190612220565b90508085116110995760405162461bcd60e51b815260206004820152600d60248201526c746f6f20736d616c6c2066656560981b60448201526064016104c8565b6110a381866122ac565b82604001516000815181106110ba576110ba61259d565b60200260200101516020018181525050306001600160a01b031663b0f479a16040518163ffffffff1660e01b8152600401602060405180830381865afa158015611108573d6000803e3d6000fd5b505050506040513d601f19601f8201168201806040525081019061112c91906125b3565b6001600160a01b03166396f4e9f967ad8bef0a6a427394846040518363ffffffff1660e01b81526004016111619291906125d0565b6020604051808303816000875af1158015611180573d6000803e3d6000fd5b505050506040513d601f19601f82011682018060405250810190610bf79190612220565b6111ac61121a565b6001600160a01b0381166112115760405162461bcd60e51b815260206004820152602660248201527f4f776e61626c653a206e6577206f776e657220697320746865207a65726f206160448201526564647265737360d01b60648201526084016104c8565b610c5d81611274565b6000546001600160a01b03163314610a965760405162461bcd60e51b815260206004820181905260248201527f4f776e61626c653a2063616c6c6572206973206e6f7420746865206f776e657260448201526064016104c8565b600080546001600160a01b038381166001600160a01b0319831681178455604051919092169283917f8be0079c531659141344cd1fd0a4f28419497f9722a3daafe3b4186f6b6457e09190a35050565b600080828060200190518101906112db91906126b8565b6001600160a01b038083166000908152600460205260409020549294509092501661130957611309826114f4565b600181600181111561131d5761131d6126ed565b1461136a5760405162461bcd60e51b815260206004820181905260248201527f6f6e6c792072656465656d206f7065726174696f6e20697320616c6c6f77656460448201526064016104c8565b60035460025460405163a9059cbb60e01b81526001600160a01b039092166004830152602482015260009073ffffffff000000000000000100000000000000109063a9059cbb906044016020604051808303816000875af11580156113d3573d6000803e3d6000fd5b505050506040513d601f19601f820116820180604052508101906113f79190612239565b9050806114395760405162461bcd60e51b815260206004820152601060248201526f6661696c656420746f2063686172676560801b60448201526064016104c8565b6114898373ffffffff0000000000000001000000000000001061090360f01b6002548961146691906122ac565b6001600160a01b0380891660009081526004602052604081205490911690611611565b5050505050565b6000816080015190506000816000815181106114ae576114ae61259d565b60200260200101516000015190506000826000815181106114d1576114d161259d565b60200260200101516020015190506114ee82828660600151611896565b50505050565b6001600160a01b03818116600090815260046020526040902054161561155c5760405162461bcd60e51b815260206004820152601d60248201527f616c72656164792073657420646572697661746976654164647265737300000060448201526064016104c8565b60006040518060200161156e90611ef9565b601f1982820381018352601f9091011660405290506001600160a01b038216600061159a818385611a44565b6001600160a01b03858116600081815260046020908152604080832080546001600160a01b03191695871695861790558483526005909152808220805460ff1916600117905551939450919290917f57b0e11e6397ba91fdcf1893a12f81fa7f83af6687a4c7c51bb7ec5cc87b700991a350505050565b6000836001600160801b03161161166a5760405162461bcd60e51b815260206004820152601d60248201527f616d6f756e74206d7573742062652067726561746572207468616e203000000060448201526064016104c8565b6001600160a01b0385166116905761168b86846001600160801b0316611b4c565b6116a4565b6116a48587856001600160801b0316611cf9565b60408051600060208201819052606085901b6bffffffffffffffffffffffff191660218301528251601581840301815260358301938490526309e4f00160e01b9093529173C94B9fEEAc60c3dE5CCf4039B0C45AD676110423916309e4f0019161171d918b91469143918c918c91908b90603901612703565b600060405180830381865af415801561173a573d6000803e3d6000fd5b505050506040513d6000823e601f3d908101601f191682016040526117629190810190612792565b604051635eef7b0d60e11b8152909150600090819073c6bf0c5c78686f1d0e2e54b97d6de6e2cefae9fd9063bddef61a906117a1908490600401612808565b6040805180830381865afa1580156117bd573d6000803e3d6000fd5b505050506040513d601f19601f820116820180604052508101906117e19190612830565b604051637c87590960e11b815291935091506150049063f90eb2129061182c906107ee9060009073ffffffff000000000000000100000000000000079087908a908a9060040161285e565b6020604051808303816000875af115801561184b573d6000803e3d6000fd5b505050506040513d601f19601f8201168201806040525081019061186f9190612239565b61188b5760405162461bcd60e51b81526004016104c8906128af565b505050505050505050565b6001600160a01b0383167337795fdd8c165cab4d6c05771d564d80439cd093146118f75760405162461bcd60e51b815260206004820152601260248201527137b7363c903932b1b2b4bb32902ba0a9aa2960711b60448201526064016104c8565b604051632e1a7d4d60e01b8152600481018390527337795fdd8c165cab4d6c05771d564d80439cd09390632e1a7d4d90602401600060405180830381600087803b15801561194457600080fd5b505af1158015611958573d6000803e3d6000fd5b505050506000806000808480602001905181019061197691906128db565b6001600160a01b038083166000908152600460205260409020549498509296509094509250166119a9576119a9826114f4565b60008360018111156119bd576119bd6126ed565b14611a0a5760405162461bcd60e51b815260206004820152601e60248201527f6f6e6c79206d696e74206f7065726174696f6e20697320616c6c6f776564000060448201526064016104c8565b6001600160a01b03808316600090815260046020526040812054611a3b9287929161080360f01b918b911686611611565b50505050505050565b600083471015611a965760405162461bcd60e51b815260206004820152601d60248201527f437265617465323a20696e73756666696369656e742062616c616e636500000060448201526064016104c8565b8151611ae45760405162461bcd60e51b815260206004820181905260248201527f437265617465323a2062797465636f6465206c656e677468206973207a65726f60448201526064016104c8565b8282516020840186f590506001600160a01b038116611b455760405162461bcd60e51b815260206004820152601960248201527f437265617465323a204661696c6564206f6e206465706c6f790000000000000060448201526064016104c8565b9392505050565b604051631932052960e11b81526001600160a01b0383166004820152600090738F8F6B104190a4A24CcFf7B4006Ea7A59baeAf81906332640a5290602401602060405180830381865af4158015611ba7573d6000803e3d6000fd5b505050506040513d601f19601f82011682018060405250810190611bcb9190612220565b60408051600180825281830190925291925060009190602080830190803683375050604080516001808252818301909252929350600092915060208083019080368337019050509050600082600081518110611c2957611c2961259d565b60200260200101906001600160a01b031690816001600160a01b0316815250508381600081518110611c5d57611c5d61259d565b602090810291909101015260405163400c0e8d60e01b81526150049063400c0e8d90611c9a908590859088906000906107ee90829060040161293f565b6020604051808303816000875af1158015611cb9573d6000803e3d6000fd5b505050506040513d601f19601f82011682018060405250810190611cdd9190612239565b6114895760405162461bcd60e51b81526004016104c8906128af565b6001600160a01b038316611d465760405162461bcd60e51b8152602060048201526014602482015273496e76616c69642061737365744164647265737360601b60448201526064016104c8565b604051631932052960e11b81526001600160a01b0383166004820152600090738F8F6B104190a4A24CcFf7B4006Ea7A59baeAf81906332640a5290602401602060405180830381865af4158015611da1573d6000803e3d6000fd5b505050506040513d601f19601f82011682018060405250810190611dc59190612220565b604080516001808252818301909252919250600091906020808301908036833750506040805160018082528183019092529293506000929150602080830190803683370190505090508582600081518110611e2257611e2261259d565b60200260200101906001600160a01b031690816001600160a01b0316815250508381600081518110611e5657611e5661259d565b60209081029190910101526040516219054d60e41b81526150049063019054d090611e92908590859088906000906107ee90829060040161293f565b6020604051808303816000875af1158015611eb1573d6000803e3d6000fd5b505050506040513d601f19601f82011682018060405250810190611ed59190612239565b611ef15760405162461bcd60e51b81526004016104c8906128af565b505050505050565b610587806129e683390190565b600060208284031215611f1857600080fd5b81356001600160e01b031981168114611b4557600080fd5b6001600160a01b0381168114610c5d57600080fd5b600060208284031215611f5757600080fd5b8135611b4581611f30565b60008083601f840112611f7457600080fd5b5081356001600160401b03811115611f8b57600080fd5b602083019150836020828501011115611fa357600080fd5b9250929050565b600080600060408486031215611fbf57600080fd5b8335611fca81611f30565b925060208401356001600160401b03811115611fe557600080fd5b611ff186828701611f62565b9497909650939450505050565b6001600160401b0381168114610c5d57600080fd5b803561201e81611ffe565b919050565b60008060008060008060008060c0898b03121561203f57600080fd5b883561ffff8116811461205157600080fd5b975060208901356001600160401b038082111561206d57600080fd5b6120798c838d01611f62565b909950975060408b0135915061208e82611ffe565b90955060608a0135945060808a0135935060a08a013590808211156120b257600080fd5b506120bf8b828c01611f62565b999c989b5096995094979396929594505050565b6000602082840312156120e557600080fd5b81356001600160401b038111156120fb57600080fd5b820160a08185031215611b4557600080fd5b6000806040838503121561212057600080fd5b823561212b81611f30565b946020939093013593505050565b60208082526015908201527436bab9ba1031329039b1b934b83a2a3934b3b3b2b960591b604082015260600190565b60005b8381101561218357818101518382015260200161216b565b838111156114ee5750506000910152565b600081518084526121ac816020860160208601612168565b601f01601f19169290920160200192915050565b61ffff86168152846020820152836040820152821515606082015260a0608082015260006121f160a0830184612194565b979650505050505050565b6000806040838503121561220f57600080fd5b505080516020909101519092909150565b60006020828403121561223257600080fd5b5051919050565b60006020828403121561224b57600080fd5b81518015158114611b4557600080fd5b61ffff87168152856020820152846040820152831515606082015260a060808201528160a0820152818360c0830137600081830160c090810191909152601f909201601f1916010195945050505050565b6000828210156122cc57634e487b7160e01b600052601160045260246000fd5b500390565b600060018060a01b03808816835261ffff8716602084015285604084015284606084015260a060808401528084511660a08401528060208501511660c0840152506040830151606060e084015261232c610100840182612194565b98975050505050505050565b634e487b7160e01b600052604160045260246000fd5b604080519081016001600160401b038111828210171561237057612370612338565b60405290565b60405160a081016001600160401b038111828210171561237057612370612338565b604051601f8201601f191681016001600160401b03811182821017156123c0576123c0612338565b604052919050565b60006001600160401b038211156123e1576123e1612338565b50601f01601f191660200190565b600082601f83011261240057600080fd5b813561241361240e826123c8565b612398565b81815284602083860101111561242857600080fd5b816020850160208301376000918101602001919091529392505050565b600082601f83011261245657600080fd5b813560206001600160401b0382111561247157612471612338565b61247f818360051b01612398565b82815260069290921b8401810191818101908684111561249e57600080fd5b8286015b848110156124e657604081890312156124bb5760008081fd5b6124c361234e565b81356124ce81611f30565b815281850135858201528352918301916040016124a2565b509695505050505050565b600060a0823603121561250357600080fd5b61250b612376565b8235815261251b60208401612013565b602082015260408301356001600160401b038082111561253a57600080fd5b612546368387016123ef565b6040840152606085013591508082111561255f57600080fd5b61256b368387016123ef565b6060840152608085013591508082111561258457600080fd5b5061259136828601612445565b60808301525092915050565b634e487b7160e01b600052603260045260246000fd5b6000602082840312156125c557600080fd5b8151611b4581611f30565b600060406001600160401b038516835260208181850152845160a0838601526125fc60e0860182612194565b905081860151603f19808784030160608801526126198383612194565b88860151888203830160808a01528051808352908601945060009350908501905b8084101561266c57845180516001600160a01b031683528601518683015293850193600193909301929086019061263a565b5060608901516001600160a01b031660a08901526080890151888203830160c08a0152955061269b8187612194565b9a9950505050505050505050565b80516002811061201e57600080fd5b600080604083850312156126cb57600080fd5b82516126d681611f30565b91506126e4602084016126a9565b90509250929050565b634e487b7160e01b600052602160045260246000fd5b6001600160a01b038816815260208101879052604081018690526001600160f01b0319851660608201526001600160801b038416608082015261010060a0820181905260009061275583820186612194565b905082810360c08401526007815266536f6e6569756d60c81b60208201526040810191505063ffffffff831660e083015298975050505050505050565b6000602082840312156127a457600080fd5b81516001600160401b038111156127ba57600080fd5b8201601f810184136127cb57600080fd5b80516127d961240e826123c8565b8181528560208385010111156127ee57600080fd5b6127ff826020830160208601612168565b95945050505050565b602081016004831061282a57634e487b7160e01b600052602160045260246000fd5b91905290565b6000806040838503121561284357600080fd5b825161284e81611ffe565b6020939093015192949293505050565b868152851515602082015260018060a01b038516604082015283606082015260c06080820152600061289360c0830185612194565b90506001600160401b03831660a0830152979650505050505050565b6020808252601290820152714661696c656420746f2073656e642078636d60701b604082015260600190565b600080600080608085870312156128f157600080fd5b84516128fc81611f30565b935061290a602086016126a9565b9250604085015161291a81611f30565b606086015190925063ffffffff8116811461293457600080fd5b939692955090935050565b60c0808252875190820181905260009060209060e0840190828b01845b828110156129815781516001600160a01b03168452928401929084019060010161295c565b5050508381038285015288518082528983019183019060005b818110156129b65783518352928401929184019160010161299a565b505060408501899052871515606086015292506129d1915050565b608082019390935260a0015294935050505056fe608060405234801561001057600080fd5b506001600081905580546001600160a01b03191633179055610550806100376000396000f3fe608060405234801561001057600080fd5b50600436106100415760003560e01c80635a18664c146100465780638aea7fd014610061578063f7260d3e14610074575b600080fd5b61004e61009f565b6040519081526020015b60405180910390f35b61004e61006f3660046104af565b610238565b600154610087906001600160a01b031681565b6040516001600160a01b039091168152602001610058565b60006100a9610455565b6001546001600160a01b031633146100f45760405162461bcd60e51b81526020600482015260096024820152683337b93134b23232b760b91b60448201526064015b60405180910390fd5b47806101335760405162461bcd60e51b815260206004820152600e60248201526d62616c616e636520746f206c6f7760901b60448201526064016100eb565b6001546040516000916001600160a01b03169083908381818185875af1925050503d8060008114610180576040519150601f19603f3d011682016040523d82523d6000602084013e610185565b606091505b50509050806101d65760405162461bcd60e51b815260206004820152601d60248201527f6661696c656420746f2077697468647261774e6174697665546f6b656e00000060448201526064016100eb565b600154604080513381526001600160a01b03909216602083015260008282015260608201849052517f3115d1449a7b732c986cba18244e897a450f61e1bb8d589cd2e69e6c8924f9f79181900360800190a15090506102356001600055565b90565b6000610242610455565b6001546001600160a01b031633146102885760405162461bcd60e51b81526020600482015260096024820152683337b93134b23232b760b91b60448201526064016100eb565b6001600160a01b0382166102ce5760405162461bcd60e51b815260206004820152600d60248201526c0696e76616c696420657263323609c1b60448201526064016100eb565b6040516370a0823160e01b81523060048201526000906001600160a01b038416906370a0823190602401602060405180830381865afa158015610315573d6000803e3d6000fd5b505050506040513d601f19601f8201168201806040525081019061033991906104df565b9050806103795760405162461bcd60e51b815260206004820152600e60248201526d62616c616e636520746f206c6f7760901b60448201526064016100eb565b60015460405163a9059cbb60e01b81526001600160a01b039182166004820152602481018390529084169063a9059cbb906044016020604051808303816000875af11580156103cc573d6000803e3d6000fd5b505050506040513d601f19601f820116820180604052508101906103f091906104f8565b50600154604080513381526001600160a01b0392831660208201529185168282015260608201839052517f3115d1449a7b732c986cba18244e897a450f61e1bb8d589cd2e69e6c8924f9f79181900360800190a190506104506001600055565b919050565b600260005414156104a85760405162461bcd60e51b815260206004820152601f60248201527f5265656e7472616e637947756172643a207265656e7472616e742063616c6c0060448201526064016100eb565b6002600055565b6000602082840312156104c157600080fd5b81356001600160a01b03811681146104d857600080fd5b9392505050565b6000602082840312156104f157600080fd5b5051919050565b60006020828403121561050a57600080fd5b815180151581146104d857600080fdfea2646970667358221220ebb6334ea08860d70d137896a11e2eb1d7ed64e64d8b33d059538982c11f1cc864736f6c634300080a0033a26469706673582212208080f928e9d0948c6a2b279d788d8f90454e8f5dc642cc10e177f84d6d81ae2c64736f6c634300080a0033",
  "deployedBytecode": "0x6080604052600436106101395760003560e01c80639641e45e116100ab578063b0f479a11161006f578063b0f479a11461037f578063c4af1c0b146103b2578063c95b6f0e146103db578063d01cca0f14610403578063f29588c714610416578063f2fde38b1461043e57600080fd5b80639641e45e146102c757806397877cd7146102ef57806397f3fd3814610313578063a7fd9c6b14610333578063aae9ecff1461036957600080fd5b806352b814b6116100fd57806352b814b6146102215780635d741b0914610234578063715018a6146102545780637fcf35da1461026957806385572ffb146102895780638da5cb5b146102a957600080fd5b806301ffc9a7146101455780630253a1d61461017a57806328b743a2146101915780632991e4e6146101c1578063357ba05f1461020157600080fd5b3661014057005b600080fd5b34801561015157600080fd5b50610165610160366004611f06565b61045e565b60405190151581526020015b60405180910390f35b34801561018657600080fd5b5061018f610495565b005b34801561019d57600080fd5b506101656101ac366004611f45565b60056020526000908152604090205460ff1681565b3480156101cd57600080fd5b506101e973ffffffff0000000000000001000000000000001081565b6040516001600160a01b039091168152602001610171565b34801561020d57600080fd5b5061018f61021c366004611f45565b6105e4565b61018f61022f366004611faa565b61067e565b34801561024057600080fd5b506003546101e9906001600160a01b031681565b34801561026057600080fd5b5061018f610a84565b34801561027557600080fd5b5061018f610284366004612023565b610a98565b34801561029557600080fd5b5061018f6102a43660046120d3565b610c01565b3480156102b557600080fd5b506000546001600160a01b03166101e9565b3480156102d357600080fd5b506101e973c6bf0c5c78686f1d0e2e54b97d6de6e2cefae9fd81565b3480156102fb57600080fd5b5061030560025481565b604051908152602001610171565b34801561031f57600080fd5b506001546101e9906001600160a01b031681565b34801561033f57600080fd5b506101e961034e366004611f45565b6004602052600090815260409020546001600160a01b031681565b34801561037557600080fd5b506101e961500481565b34801561038b57600080fd5b507f00000000000000000000000000000000000000000000000000000000000000006101e9565b3480156103be57600080fd5b506103c861015481565b60405161ffff9091168152602001610171565b3480156103e757600080fd5b506101e973ba273b7fa296614019c71dcc54dca6c922a93bcf81565b61018f61041136600461210d565b610c60565b34801561042257600080fd5b506101e973ffffffff0000000000000001000000000000000781565b34801561044a57600080fd5b5061018f610459366004611f45565b6111a4565b60006001600160e01b031982166385572ffb60e01b148061048f57506001600160e01b031982166301ffc9a760e01b145b92915050565b6003546001600160a01b0316336001600160a01b0316146104d15760405162461bcd60e51b81526004016104c890612139565b60405180910390fd5b600354604051600160f01b6020820152620186a060228201526001600160a01b0390911690683635c9adc5dea000009060009060420160408051601f1981840301815290829052630d94982d60e21b8252915060009073ba273b7fa296614019c71dcc54dca6c922a93bcf9063365260b49061055b906101549088908890879089906004016121c0565b6040805180830381865afa158015610577573d6000803e3d6000fd5b505050506040513d601f19601f8201168201806040525081019061059b91906121fc565b50600281905560035460405191925082916001600160a01b03909116907f405485c96e1fef0d0e7aa1b6bc6f839d6e825f49f9e5607dc07fcd69e098970690600090a350505050565b6105ec61121a565b6001600160a01b0381166106345760405162461bcd60e51b815260206004820152600f60248201526e696e76616c6964206164647265737360881b60448201526064016104c8565b600380546001600160a01b0319166001600160a01b0383169081179091556040517fda100d63215e418eb5fdfcdb0b592f13bc6aea387392797c16c70caf4ea8772190600090a250565b6003546001600160a01b0316336001600160a01b0316146106b15760405162461bcd60e51b81526004016104c890612139565b6001600160a01b03808416600090815260046020526040902054168061070b5760405162461bcd60e51b815260206004820152600f60248201526e696e76616c6964206164647265737360881b60448201526064016104c8565b6040516308aea7fd60e41b815273ffffffff0000000000000001000000000000001060048201526000906001600160a01b03831690638aea7fd0906024016020604051808303816000875af1158015610768573d6000803e3d6000fd5b505050506040513d601f19601f8201168201806040525081019061078c9190612220565b60405163095ea7b360e01b815273ba273b7fa296614019c71dcc54dca6c922a93bcf60048201526024810182905290915073ffffffff000000000000000100000000000000109063095ea7b3906044016020604051808303816000875af11580156107fb573d6000803e3d6000fd5b505050506040513d601f19601f8201168201806040525081019061081f9190612239565b50600060405180606001604052806108343390565b6001600160a01b0316815260200160006001600160a01b0316815260200186868080601f0160208091040260200160405190810160405280939291908181526020018383808284376000920182905250939094525050604051630d94982d60e21b81529293506001600160a01b0389169290915073ba273b7fa296614019c71dcc54dca6c922a93bcf9063365260b4906108de90610154908690899087908e908e9060040161225b565b6040805180830381865afa1580156108fa573d6000803e3d6000fd5b505050506040513d601f19601f8201168201806040525081019061091e91906121fc565b509050803410156109615760405162461bcd60e51b815260206004820152600d60248201526c746f6f20736d616c6c2066656560981b60448201526064016104c8565b803414610a0557600061097482346122ac565b604051909150600090339083908381818185875af1925050503d80600081146109b9576040519150601f19603f3d011682016040523d82523d6000602084013e6109be565b606091505b5050905080610a025760405162461bcd60e51b815260206004820152601060248201526f19985a5b1959081d1bc81c99599d5b9960821b60448201526064016104c8565b50505b60405163695ef6bf60e01b815273ba273b7fa296614019c71dcc54dca6c922a93bcf9063695ef6bf908390610a489030906101549088908b908b906004016122d1565b6000604051808303818588803b158015610a6157600080fd5b505af1158015610a75573d6000803e3d6000fd5b50505050505050505050505050565b610a8c61121a565b610a966000611274565b565b61ffff881661015414610aed5760405162461bcd60e51b815260206004820152601e60248201527f6f6e6c792072656365697665206d73672066726f6d2061737461722d7a6b000060448201526064016104c8565b3373ba273b7fa296614019c71dcc54dca6c922a93bcf14610b505760405162461bcd60e51b815260206004820152601860248201527f6f6e6c79206e6174697665206f66742063616e2063616c6c000000000000000060448201526064016104c8565b6001546001600160a01b03858116911614610bb75760405162461bcd60e51b815260206004820152602160248201527f6f6e6c792072656365697665206d73672066726f6d20736f6e6569756d536c706044820152600f60fb1b60648201526084016104c8565b610bf78383838080601f0160208091040260200160405190810160405280939291908181526020018383808284376000920191909152506112c492505050565b5050505050505050565b336001600160a01b037f00000000000000000000000000000000000000000000000000000000000000001614610c4c576040516335fdcccd60e21b81523360048201526024016104c8565b610c5d610c58826124f1565b611490565b50565b6003546001600160a01b0316336001600160a01b031614610c935760405162461bcd60e51b81526004016104c890612139565b6001600160a01b038083166000908152600460208181526040808420548151631686199360e21b8152915194951693635a18664c938281019392829003018187875af1158015610ce7573d6000803e3d6000fd5b505050506040513d601f19601f82011682018060405250810190610d0b9190612220565b90507337795fdd8c165cab4d6c05771d564d80439cd0936001600160a01b031663d0e30db0826040518263ffffffff1660e01b81526004016000604051808303818588803b158015610d5c57600080fd5b505af1158015610d70573d6000803e3d6000fd5b505060405163095ea7b360e01b8152738d5c5cb8ec58285b424c93436189fb865e437fef6004820152602481018590527337795fdd8c165cab4d6c05771d564d80439cd093935063095ea7b3925060440190506020604051808303816000875af1158015610de2573d6000803e3d6000fd5b505050506040513d601f19601f82011682018060405250810190610e069190612239565b50604080516001808252818301909252600091816020015b6040805180820190915260008082526020820152815260200190600190039081610e1e579050509050600060405180604001604052807337795fdd8c165cab4d6c05771d564d80439cd0936001600160a01b031681526020018481525090508082600081518110610e9157610e9161259d565b60209081029190910101526040805160a081019091526001600160a01b03861660c08201526000908060e081016040516020818303038152906040528152602001604051602001610eed90602080825260009082015260400190565b60405160208183030381529060405281526020018481526020017337795fdd8c165cab4d6c05771d564d80439cd0936001600160a01b03168152602001610f7960405180602001604052808981525060408051915160248084019190915281518084039091018152604490920190526020810180516001600160e01b03166397a657c960e01b17905290565b81525090506000306001600160a01b031663b0f479a16040518163ffffffff1660e01b8152600401602060405180830381865afa158015610fbe573d6000803e3d6000fd5b505050506040513d601f19601f82011682018060405250810190610fe291906125b3565b6001600160a01b03166320487ded67ad8bef0a6a427394846040518363ffffffff1660e01b81526004016110179291906125d0565b602060405180830381865afa158015611034573d6000803e3d6000fd5b505050506040513d601f19601f820116820180604052508101906110589190612220565b90508085116110995760405162461bcd60e51b815260206004820152600d60248201526c746f6f20736d616c6c2066656560981b60448201526064016104c8565b6110a381866122ac565b82604001516000815181106110ba576110ba61259d565b60200260200101516020018181525050306001600160a01b031663b0f479a16040518163ffffffff1660e01b8152600401602060405180830381865afa158015611108573d6000803e3d6000fd5b505050506040513d601f19601f8201168201806040525081019061112c91906125b3565b6001600160a01b03166396f4e9f967ad8bef0a6a427394846040518363ffffffff1660e01b81526004016111619291906125d0565b6020604051808303816000875af1158015611180573d6000803e3d6000fd5b505050506040513d601f19601f82011682018060405250810190610bf79190612220565b6111ac61121a565b6001600160a01b0381166112115760405162461bcd60e51b815260206004820152602660248201527f4f776e61626c653a206e6577206f776e657220697320746865207a65726f206160448201526564647265737360d01b60648201526084016104c8565b610c5d81611274565b6000546001600160a01b03163314610a965760405162461bcd60e51b815260206004820181905260248201527f4f776e61626c653a2063616c6c6572206973206e6f7420746865206f776e657260448201526064016104c8565b600080546001600160a01b038381166001600160a01b0319831681178455604051919092169283917f8be0079c531659141344cd1fd0a4f28419497f9722a3daafe3b4186f6b6457e09190a35050565b600080828060200190518101906112db91906126b8565b6001600160a01b038083166000908152600460205260409020549294509092501661130957611309826114f4565b600181600181111561131d5761131d6126ed565b1461136a5760405162461bcd60e51b815260206004820181905260248201527f6f6e6c792072656465656d206f7065726174696f6e20697320616c6c6f77656460448201526064016104c8565b60035460025460405163a9059cbb60e01b81526001600160a01b039092166004830152602482015260009073ffffffff000000000000000100000000000000109063a9059cbb906044016020604051808303816000875af11580156113d3573d6000803e3d6000fd5b505050506040513d601f19601f820116820180604052508101906113f79190612239565b9050806114395760405162461bcd60e51b815260206004820152601060248201526f6661696c656420746f2063686172676560801b60448201526064016104c8565b6114898373ffffffff0000000000000001000000000000001061090360f01b6002548961146691906122ac565b6001600160a01b0380891660009081526004602052604081205490911690611611565b5050505050565b6000816080015190506000816000815181106114ae576114ae61259d565b60200260200101516000015190506000826000815181106114d1576114d161259d565b60200260200101516020015190506114ee82828660600151611896565b50505050565b6001600160a01b03818116600090815260046020526040902054161561155c5760405162461bcd60e51b815260206004820152601d60248201527f616c72656164792073657420646572697661746976654164647265737300000060448201526064016104c8565b60006040518060200161156e90611ef9565b601f1982820381018352601f9091011660405290506001600160a01b038216600061159a818385611a44565b6001600160a01b03858116600081815260046020908152604080832080546001600160a01b03191695871695861790558483526005909152808220805460ff1916600117905551939450919290917f57b0e11e6397ba91fdcf1893a12f81fa7f83af6687a4c7c51bb7ec5cc87b700991a350505050565b6000836001600160801b03161161166a5760405162461bcd60e51b815260206004820152601d60248201527f616d6f756e74206d7573742062652067726561746572207468616e203000000060448201526064016104c8565b6001600160a01b0385166116905761168b86846001600160801b0316611b4c565b6116a4565b6116a48587856001600160801b0316611cf9565b60408051600060208201819052606085901b6bffffffffffffffffffffffff191660218301528251601581840301815260358301938490526309e4f00160e01b9093529173__$e184f4046250cd750dfdb139628ab13bdc$__916309e4f0019161171d918b91469143918c918c91908b90603901612703565b600060405180830381865af415801561173a573d6000803e3d6000fd5b505050506040513d6000823e601f3d908101601f191682016040526117629190810190612792565b604051635eef7b0d60e11b8152909150600090819073c6bf0c5c78686f1d0e2e54b97d6de6e2cefae9fd9063bddef61a906117a1908490600401612808565b6040805180830381865afa1580156117bd573d6000803e3d6000fd5b505050506040513d601f19601f820116820180604052508101906117e19190612830565b604051637c87590960e11b815291935091506150049063f90eb2129061182c906107ee9060009073ffffffff000000000000000100000000000000079087908a908a9060040161285e565b6020604051808303816000875af115801561184b573d6000803e3d6000fd5b505050506040513d601f19601f8201168201806040525081019061186f9190612239565b61188b5760405162461bcd60e51b81526004016104c8906128af565b505050505050505050565b6001600160a01b0383167337795fdd8c165cab4d6c05771d564d80439cd093146118f75760405162461bcd60e51b815260206004820152601260248201527137b7363c903932b1b2b4bb32902ba0a9aa2960711b60448201526064016104c8565b604051632e1a7d4d60e01b8152600481018390527337795fdd8c165cab4d6c05771d564d80439cd09390632e1a7d4d90602401600060405180830381600087803b15801561194457600080fd5b505af1158015611958573d6000803e3d6000fd5b505050506000806000808480602001905181019061197691906128db565b6001600160a01b038083166000908152600460205260409020549498509296509094509250166119a9576119a9826114f4565b60008360018111156119bd576119bd6126ed565b14611a0a5760405162461bcd60e51b815260206004820152601e60248201527f6f6e6c79206d696e74206f7065726174696f6e20697320616c6c6f776564000060448201526064016104c8565b6001600160a01b03808316600090815260046020526040812054611a3b9287929161080360f01b918b911686611611565b50505050505050565b600083471015611a965760405162461bcd60e51b815260206004820152601d60248201527f437265617465323a20696e73756666696369656e742062616c616e636500000060448201526064016104c8565b8151611ae45760405162461bcd60e51b815260206004820181905260248201527f437265617465323a2062797465636f6465206c656e677468206973207a65726f60448201526064016104c8565b8282516020840186f590506001600160a01b038116611b455760405162461bcd60e51b815260206004820152601960248201527f437265617465323a204661696c6564206f6e206465706c6f790000000000000060448201526064016104c8565b9392505050565b604051631932052960e11b81526001600160a01b038316600482015260009073__$ddfb0e6c1c4d05795fcce73a90830b0995$__906332640a5290602401602060405180830381865af4158015611ba7573d6000803e3d6000fd5b505050506040513d601f19601f82011682018060405250810190611bcb9190612220565b60408051600180825281830190925291925060009190602080830190803683375050604080516001808252818301909252929350600092915060208083019080368337019050509050600082600081518110611c2957611c2961259d565b60200260200101906001600160a01b031690816001600160a01b0316815250508381600081518110611c5d57611c5d61259d565b602090810291909101015260405163400c0e8d60e01b81526150049063400c0e8d90611c9a908590859088906000906107ee90829060040161293f565b6020604051808303816000875af1158015611cb9573d6000803e3d6000fd5b505050506040513d601f19601f82011682018060405250810190611cdd9190612239565b6114895760405162461bcd60e51b81526004016104c8906128af565b6001600160a01b038316611d465760405162461bcd60e51b8152602060048201526014602482015273496e76616c69642061737365744164647265737360601b60448201526064016104c8565b604051631932052960e11b81526001600160a01b038316600482015260009073__$ddfb0e6c1c4d05795fcce73a90830b0995$__906332640a5290602401602060405180830381865af4158015611da1573d6000803e3d6000fd5b505050506040513d601f19601f82011682018060405250810190611dc59190612220565b604080516001808252818301909252919250600091906020808301908036833750506040805160018082528183019092529293506000929150602080830190803683370190505090508582600081518110611e2257611e2261259d565b60200260200101906001600160a01b031690816001600160a01b0316815250508381600081518110611e5657611e5661259d565b60209081029190910101526040516219054d60e41b81526150049063019054d090611e92908590859088906000906107ee90829060040161293f565b6020604051808303816000875af1158015611eb1573d6000803e3d6000fd5b505050506040513d601f19601f82011682018060405250810190611ed59190612239565b611ef15760405162461bcd60e51b81526004016104c8906128af565b505050505050565b610587806129e683390190565b600060208284031215611f1857600080fd5b81356001600160e01b031981168114611b4557600080fd5b6001600160a01b0381168114610c5d57600080fd5b600060208284031215611f5757600080fd5b8135611b4581611f30565b60008083601f840112611f7457600080fd5b5081356001600160401b03811115611f8b57600080fd5b602083019150836020828501011115611fa357600080fd5b9250929050565b600080600060408486031215611fbf57600080fd5b8335611fca81611f30565b925060208401356001600160401b03811115611fe557600080fd5b611ff186828701611f62565b9497909650939450505050565b6001600160401b0381168114610c5d57600080fd5b803561201e81611ffe565b919050565b60008060008060008060008060c0898b03121561203f57600080fd5b883561ffff8116811461205157600080fd5b975060208901356001600160401b038082111561206d57600080fd5b6120798c838d01611f62565b909950975060408b0135915061208e82611ffe565b90955060608a0135945060808a0135935060a08a013590808211156120b257600080fd5b506120bf8b828c01611f62565b999c989b5096995094979396929594505050565b6000602082840312156120e557600080fd5b81356001600160401b038111156120fb57600080fd5b820160a08185031215611b4557600080fd5b6000806040838503121561212057600080fd5b823561212b81611f30565b946020939093013593505050565b60208082526015908201527436bab9ba1031329039b1b934b83a2a3934b3b3b2b960591b604082015260600190565b60005b8381101561218357818101518382015260200161216b565b838111156114ee5750506000910152565b600081518084526121ac816020860160208601612168565b601f01601f19169290920160200192915050565b61ffff86168152846020820152836040820152821515606082015260a0608082015260006121f160a0830184612194565b979650505050505050565b6000806040838503121561220f57600080fd5b505080516020909101519092909150565b60006020828403121561223257600080fd5b5051919050565b60006020828403121561224b57600080fd5b81518015158114611b4557600080fd5b61ffff87168152856020820152846040820152831515606082015260a060808201528160a0820152818360c0830137600081830160c090810191909152601f909201601f1916010195945050505050565b6000828210156122cc57634e487b7160e01b600052601160045260246000fd5b500390565b600060018060a01b03808816835261ffff8716602084015285604084015284606084015260a060808401528084511660a08401528060208501511660c0840152506040830151606060e084015261232c610100840182612194565b98975050505050505050565b634e487b7160e01b600052604160045260246000fd5b604080519081016001600160401b038111828210171561237057612370612338565b60405290565b60405160a081016001600160401b038111828210171561237057612370612338565b604051601f8201601f191681016001600160401b03811182821017156123c0576123c0612338565b604052919050565b60006001600160401b038211156123e1576123e1612338565b50601f01601f191660200190565b600082601f83011261240057600080fd5b813561241361240e826123c8565b612398565b81815284602083860101111561242857600080fd5b816020850160208301376000918101602001919091529392505050565b600082601f83011261245657600080fd5b813560206001600160401b0382111561247157612471612338565b61247f818360051b01612398565b82815260069290921b8401810191818101908684111561249e57600080fd5b8286015b848110156124e657604081890312156124bb5760008081fd5b6124c361234e565b81356124ce81611f30565b815281850135858201528352918301916040016124a2565b509695505050505050565b600060a0823603121561250357600080fd5b61250b612376565b8235815261251b60208401612013565b602082015260408301356001600160401b038082111561253a57600080fd5b612546368387016123ef565b6040840152606085013591508082111561255f57600080fd5b61256b368387016123ef565b6060840152608085013591508082111561258457600080fd5b5061259136828601612445565b60808301525092915050565b634e487b7160e01b600052603260045260246000fd5b6000602082840312156125c557600080fd5b8151611b4581611f30565b600060406001600160401b038516835260208181850152845160a0838601526125fc60e0860182612194565b905081860151603f19808784030160608801526126198383612194565b88860151888203830160808a01528051808352908601945060009350908501905b8084101561266c57845180516001600160a01b031683528601518683015293850193600193909301929086019061263a565b5060608901516001600160a01b031660a08901526080890151888203830160c08a0152955061269b8187612194565b9a9950505050505050505050565b80516002811061201e57600080fd5b600080604083850312156126cb57600080fd5b82516126d681611f30565b91506126e4602084016126a9565b90509250929050565b634e487b7160e01b600052602160045260246000fd5b6001600160a01b038816815260208101879052604081018690526001600160f01b0319851660608201526001600160801b038416608082015261010060a0820181905260009061275583820186612194565b905082810360c08401526007815266536f6e6569756d60c81b60208201526040810191505063ffffffff831660e083015298975050505050505050565b6000602082840312156127a457600080fd5b81516001600160401b038111156127ba57600080fd5b8201601f810184136127cb57600080fd5b80516127d961240e826123c8565b8181528560208385010111156127ee57600080fd5b6127ff826020830160208601612168565b95945050505050565b602081016004831061282a57634e487b7160e01b600052602160045260246000fd5b91905290565b6000806040838503121561284357600080fd5b825161284e81611ffe565b6020939093015192949293505050565b868152851515602082015260018060a01b038516604082015283606082015260c06080820152600061289360c0830185612194565b90506001600160401b03831660a0830152979650505050505050565b6020808252601290820152714661696c656420746f2073656e642078636d60701b604082015260600190565b600080600080608085870312156128f157600080fd5b84516128fc81611f30565b935061290a602086016126a9565b9250604085015161291a81611f30565b606086015190925063ffffffff8116811461293457600080fd5b939692955090935050565b60c0808252875190820181905260009060209060e0840190828b01845b828110156129815781516001600160a01b03168452928401929084019060010161295c565b5050508381038285015288518082528983019183019060005b818110156129b65783518352928401929184019160010161299a565b505060408501899052871515606086015292506129d1915050565b608082019390935260a0015294935050505056fe608060405234801561001057600080fd5b506001600081905580546001600160a01b03191633179055610550806100376000396000f3fe608060405234801561001057600080fd5b50600436106100415760003560e01c80635a18664c146100465780638aea7fd014610061578063f7260d3e14610074575b600080fd5b61004e61009f565b6040519081526020015b60405180910390f35b61004e61006f3660046104af565b610238565b600154610087906001600160a01b031681565b6040516001600160a01b039091168152602001610058565b60006100a9610455565b6001546001600160a01b031633146100f45760405162461bcd60e51b81526020600482015260096024820152683337b93134b23232b760b91b60448201526064015b60405180910390fd5b47806101335760405162461bcd60e51b815260206004820152600e60248201526d62616c616e636520746f206c6f7760901b60448201526064016100eb565b6001546040516000916001600160a01b03169083908381818185875af1925050503d8060008114610180576040519150601f19603f3d011682016040523d82523d6000602084013e610185565b606091505b50509050806101d65760405162461bcd60e51b815260206004820152601d60248201527f6661696c656420746f2077697468647261774e6174697665546f6b656e00000060448201526064016100eb565b600154604080513381526001600160a01b03909216602083015260008282015260608201849052517f3115d1449a7b732c986cba18244e897a450f61e1bb8d589cd2e69e6c8924f9f79181900360800190a15090506102356001600055565b90565b6000610242610455565b6001546001600160a01b031633146102885760405162461bcd60e51b81526020600482015260096024820152683337b93134b23232b760b91b60448201526064016100eb565b6001600160a01b0382166102ce5760405162461bcd60e51b815260206004820152600d60248201526c0696e76616c696420657263323609c1b60448201526064016100eb565b6040516370a0823160e01b81523060048201526000906001600160a01b038416906370a0823190602401602060405180830381865afa158015610315573d6000803e3d6000fd5b505050506040513d601f19601f8201168201806040525081019061033991906104df565b9050806103795760405162461bcd60e51b815260206004820152600e60248201526d62616c616e636520746f206c6f7760901b60448201526064016100eb565b60015460405163a9059cbb60e01b81526001600160a01b039182166004820152602481018390529084169063a9059cbb906044016020604051808303816000875af11580156103cc573d6000803e3d6000fd5b505050506040513d601f19601f820116820180604052508101906103f091906104f8565b50600154604080513381526001600160a01b0392831660208201529185168282015260608201839052517f3115d1449a7b732c986cba18244e897a450f61e1bb8d589cd2e69e6c8924f9f79181900360800190a190506104506001600055565b919050565b600260005414156104a85760405162461bcd60e51b815260206004820152601f60248201527f5265656e7472616e637947756172643a207265656e7472616e742063616c6c0060448201526064016100eb565b6002600055565b6000602082840312156104c157600080fd5b81356001600160a01b03811681146104d857600080fd5b9392505050565b6000602082840312156104f157600080fd5b5051919050565b60006020828403121561050a57600080fd5b815180151581146104d857600080fdfea2646970667358221220ebb6334ea08860d70d137896a11e2eb1d7ed64e64d8b33d059538982c11f1cc864736f6c634300080a0033a26469706673582212208080f928e9d0948c6a2b279d788d8f90454e8f5dc642cc10e177f84d6d81ae2c64736f6c634300080a0033",
  "libraries": {
    "AddressToAccount": "0x8F8F6B104190a4A24CcFf7B4006Ea7A59baeAf81",
    "BuildCallData": "0xC94B9fEEAc60c3dE5CCf4039B0C45AD676110423"
  },
  "devdoc": {
    "kind": "dev",
    "methods": {
      "ccipReceive((bytes32,uint64,bytes,bytes,(address,uint256)[]))": {
        "details": "Note ensure you check the msg.sender is the OffRampRouter",
        "params": {
          "message": "CCIP Message"
        }
      },
      "getRouter()": {
        "returns": {
          "_0": "CCIP router address"
        }
      },
      "owner()": {
        "details": "Returns the address of the current owner."
      },
      "renounceOwnership()": {
        "details": "Leaves the contract without owner. It will not be possible to call `onlyOwner` functions. Can only be called by the current owner. NOTE: Renouncing ownership will leave the contract without an owner, thereby disabling any functionality that is only available to the owner."
      },
      "supportsInterface(bytes4)": {
        "details": "Should indicate whether the contract implements IAny2EVMMessageReceiver e.g. return interfaceId == type(IAny2EVMMessageReceiver).interfaceId || interfaceId == type(IERC165).interfaceId This allows CCIP to check if ccipReceive is available before calling it. If this returns false or reverts, only tokens are transferred to the receiver. If this returns true, tokens are transferred and ccipReceive is called atomically. Additionally, if the receiver address does not have code associated with it at the time of execution (EXTCODESIZE returns 0), only tokens will be transferred.",
        "params": {
          "interfaceId": "The interfaceId to check"
        },
        "returns": {
          "_0": "true if the interfaceId is supported"
        }
      },
      "transferOwnership(address)": {
        "details": "Transfers ownership of the contract to a new account (`newOwner`). Can only be called by the current owner."
      }
    },
    "version": 1
  },
  "userdoc": {
    "kind": "user",
    "methods": {
      "ccipReceive((bytes32,uint64,bytes,bytes,(address,uint256)[]))": {
        "notice": "Called by the Router to deliver a message. If this reverts, any token transfers also revert. The message will move to a FAILED state and become available for manual execution."
      },
      "getRouter()": {
        "notice": "Return the current router"
      },
      "supportsInterface(bytes4)": {
        "notice": "IERC165 supports an interfaceId"
      }
    },
    "version": 1
  },
  "storageLayout": {
    "storage": [
      {
        "astId": 1070,
        "contract": "contracts/AstarReceiver.sol:AstarReceiver",
        "label": "_owner",
        "offset": 0,
        "slot": "0",
        "type": "t_address"
      },
      {
        "astId": 1514,
        "contract": "contracts/AstarReceiver.sol:AstarReceiver",
        "label": "soneiumSlpx",
        "offset": 0,
        "slot": "1",
        "type": "t_address"
      },
      {
        "astId": 1516,
        "contract": "contracts/AstarReceiver.sol:AstarReceiver",
        "label": "vastrLayerZeroFee",
        "offset": 0,
        "slot": "2",
        "type": "t_uint256"
      },
      {
        "astId": 1518,
        "contract": "contracts/AstarReceiver.sol:AstarReceiver",
        "label": "scriptTrigger",
        "offset": 0,
        "slot": "3",
        "type": "t_address"
      },
      {
        "astId": 1522,
        "contract": "contracts/AstarReceiver.sol:AstarReceiver",
        "label": "callerToDerivativeAddress",
        "offset": 0,
        "slot": "4",
        "type": "t_mapping(t_address,t_address)"
      },
      {
        "astId": 1526,
        "contract": "contracts/AstarReceiver.sol:AstarReceiver",
        "label": "isDerivativeAddress",
        "offset": 0,
        "slot": "5",
        "type": "t_mapping(t_address,t_bool)"
      }
    ],
    "types": {
      "t_address": {
        "encoding": "inplace",
        "label": "address",
        "numberOfBytes": "20"
      },
      "t_bool": {
        "encoding": "inplace",
        "label": "bool",
        "numberOfBytes": "1"
      },
      "t_mapping(t_address,t_address)": {
        "encoding": "mapping",
        "key": "t_address",
        "label": "mapping(address => address)",
        "numberOfBytes": "32",
        "value": "t_address"
      },
      "t_mapping(t_address,t_bool)": {
        "encoding": "mapping",
        "key": "t_address",
        "label": "mapping(address => bool)",
        "numberOfBytes": "32",
        "value": "t_bool"
      },
      "t_uint256": {
        "encoding": "inplace",
        "label": "uint256",
        "numberOfBytes": "32"
      }
    }
  }
}