{
  "address": "0x2fD8bbF5dc8b342C09ABF34f211b3488e2d9d691",
  "abi": [
    {
      "inputs": [
        {
          "internalType": "address",
          "name": "_astrOFTWithFee",
          "type": "address"
        },
        {
          "internalType": "address",
          "name": "_vAstrOFT",
          "type": "address"
        },
        {
          "internalType": "uint16",
          "name": "_destChainId",
          "type": "uint16"
        }
      ],
      "stateMutability": "nonpayable",
      "type": "constructor"
    },
    {
      "anonymous": false,
      "inputs": [
        {
          "indexed": true,
          "internalType": "address",
          "name": "caller",
          "type": "address"
        },
        {
          "indexed": true,
          "internalType": "uint256",
          "name": "amount",
          "type": "uint256"
        }
      ],
      "name": "Mint",
      "type": "event"
    },
    {
      "anonymous": false,
      "inputs": [
        {
          "indexed": true,
          "internalType": "address",
          "name": "previousOwner",
          "type": "address"
        },
        {
          "indexed": true,
          "internalType": "address",
          "name": "newOwner",
          "type": "address"
        }
      ],
      "name": "OwnershipTransferred",
      "type": "event"
    },
    {
      "anonymous": false,
      "inputs": [
        {
          "indexed": true,
          "internalType": "address",
          "name": "caller",
          "type": "address"
        },
        {
          "indexed": true,
          "internalType": "uint256",
          "name": "amount",
          "type": "uint256"
        }
      ],
      "name": "Redeem",
      "type": "event"
    },
    {
      "inputs": [],
      "name": "astrOFTWithFee",
      "outputs": [
        {
          "internalType": "address",
          "name": "",
          "type": "address"
        }
      ],
      "stateMutability": "view",
      "type": "function"
    },
    {
      "inputs": [],
      "name": "destChainId",
      "outputs": [
        {
          "internalType": "uint16",
          "name": "",
          "type": "uint16"
        }
      ],
      "stateMutability": "view",
      "type": "function"
    },
    {
      "inputs": [
        {
          "internalType": "address",
          "name": "caller",
          "type": "address"
        },
        {
          "internalType": "enum Types.Operation",
          "name": "operation",
          "type": "uint8"
        },
        {
          "internalType": "uint256",
          "name": "_amount",
          "type": "uint256"
        },
        {
          "internalType": "uint64",
          "name": "_dstGasForCall",
          "type": "uint64"
        },
        {
          "internalType": "bytes",
          "name": "_adapterParams",
          "type": "bytes"
        }
      ],
      "name": "estimateSendAndCallFee",
      "outputs": [
        {
          "internalType": "uint256",
          "name": "",
          "type": "uint256"
        },
        {
          "internalType": "bytes",
          "name": "",
          "type": "bytes"
        }
      ],
      "stateMutability": "view",
      "type": "function"
    },
    {
      "inputs": [
        {
          "internalType": "enum Types.Operation",
          "name": "",
          "type": "uint8"
        }
      ],
      "name": "minAmount",
      "outputs": [
        {
          "internalType": "uint256",
          "name": "",
          "type": "uint256"
        }
      ],
      "stateMutability": "view",
      "type": "function"
    },
    {
      "inputs": [
        {
          "internalType": "uint256",
          "name": "_amount",
          "type": "uint256"
        },
        {
          "internalType": "uint64",
          "name": "_dstGasForCall",
          "type": "uint64"
        },
        {
          "internalType": "bytes",
          "name": "_adapterParams",
          "type": "bytes"
        }
      ],
      "name": "mint",
      "outputs": [],
      "stateMutability": "payable",
      "type": "function"
    },
    {
      "inputs": [],
      "name": "owner",
      "outputs": [
        {
          "internalType": "address",
          "name": "",
          "type": "address"
        }
      ],
      "stateMutability": "view",
      "type": "function"
    },
    {
      "inputs": [
        {
          "internalType": "uint256",
          "name": "_amount",
          "type": "uint256"
        },
        {
          "internalType": "uint64",
          "name": "_dstGasForCall",
          "type": "uint64"
        },
        {
          "internalType": "bytes",
          "name": "_adapterParams",
          "type": "bytes"
        }
      ],
      "name": "redeem",
      "outputs": [],
      "stateMutability": "payable",
      "type": "function"
    },
    {
      "inputs": [],
      "name": "remoteContract",
      "outputs": [
        {
          "internalType": "bytes32",
          "name": "",
          "type": "bytes32"
        }
      ],
      "stateMutability": "view",
      "type": "function"
    },
    {
      "inputs": [],
      "name": "renounceOwnership",
      "outputs": [],
      "stateMutability": "nonpayable",
      "type": "function"
    },
    {
      "inputs": [
        {
          "internalType": "enum Types.Operation",
          "name": "_operation",
          "type": "uint8"
        },
        {
          "internalType": "uint256",
          "name": "_minAmount",
          "type": "uint256"
        }
      ],
      "name": "setMinAmount",
      "outputs": [],
      "stateMutability": "nonpayable",
      "type": "function"
    },
    {
      "inputs": [
        {
          "internalType": "address",
          "name": "_remoteContract",
          "type": "address"
        }
      ],
      "name": "setRemoteContract",
      "outputs": [],
      "stateMutability": "nonpayable",
      "type": "function"
    },
    {
      "inputs": [
        {
          "internalType": "address",
          "name": "newOwner",
          "type": "address"
        }
      ],
      "name": "transferOwnership",
      "outputs": [],
      "stateMutability": "nonpayable",
      "type": "function"
    },
    {
      "inputs": [],
      "name": "vAstrOFT",
      "outputs": [
        {
          "internalType": "address",
          "name": "",
          "type": "address"
        }
      ],
      "stateMutability": "view",
      "type": "function"
    }
  ],
  "transactionHash": "0xc05c31c464ad650df5d5969fa4b856523d13d994f6fd6ac6b1873804296f95df",
  "args": [
    "0xdf41220C7e322bFEF933D85D01821ad277f90172",
    "0x7746ef546d562b443AE4B4145541a3b1a3D75717",
    "210"
  ],
  "numDeployments": 1,
  "solcInputHash": "9c88da2e368e10a04a6c393169f71b43",
  "bytecode": "0x60806040523480156200001157600080fd5b50604051620011e5380380620011e583398101604081905262000034916200019e565b6200003f3362000131565b6001600160a01b0383166200009b5760405162461bcd60e51b815260206004820152601660248201527f496e76616c696420617374724f4654576974684665650000000000000000000060448201526064015b60405180910390fd5b6001600160a01b038216620000e65760405162461bcd60e51b815260206004820152601060248201526f125b9d985b1a59081d905cdd1c93d19560821b604482015260640162000092565b600180546001600160a01b039485166001600160a01b03199091161790556002805461ffff909216600160a01b026001600160b01b03199092169290931691909117179055620001f2565b600080546001600160a01b038381166001600160a01b0319831681178455604051919092169283917f8be0079c531659141344cd1fd0a4f28419497f9722a3daafe3b4186f6b6457e09190a35050565b80516001600160a01b03811681146200019957600080fd5b919050565b600080600060608486031215620001b457600080fd5b620001bf8462000181565b9250620001cf6020850162000181565b9150604084015161ffff81168114620001e757600080fd5b809150509250925092565b610fe380620002026000396000f3fe6080604052600436106100c25760003560e01c8063aabdc0821161007f578063c0afb3f411610059578063c0afb3f4146101fe578063c4af1c0b1461021e578063c8b7525914610253578063f2fde38b1461027357600080fd5b8063aabdc082146101ab578063aed7bbbb146101d8578063b3754e86146101eb57600080fd5b80630663b2d1146100c75780630c5d9931146100f0578063205ff03d1461012857806327e5401114610156578063715018a6146101765780638da5cb5b1461018d575b600080fd5b3480156100d357600080fd5b506100dd60035481565b6040519081526020015b60405180910390f35b3480156100fc57600080fd5b50600154610110906001600160a01b031681565b6040516001600160a01b0390911681526020016100e7565b34801561013457600080fd5b50610148610143366004610bdf565b610293565b6040516100e7929190610cab565b34801561016257600080fd5b50600254610110906001600160a01b031681565b34801561018257600080fd5b5061018b6103f3565b005b34801561019957600080fd5b506000546001600160a01b0316610110565b3480156101b757600080fd5b506100dd6101c6366004610ccc565b60046020526000908152604090205481565b61018b6101e6366004610cee565b610407565b61018b6101f9366004610cee565b6106a9565b34801561020a57600080fd5b5061018b610219366004610d48565b610945565b34801561022a57600080fd5b5060025461024090600160a01b900461ffff1681565b60405161ffff90911681526020016100e7565b34801561025f57600080fd5b5061018b61026e366004610d63565b6109aa565b34801561027f57600080fd5b5061018b61028e366004610d48565b610a30565b60006060818760018111156102aa576102aa610d8d565b14156103745760008860006040516020016102c6929190610da3565b60408051808303601f190181529082905260015460025460035463a4c51df560e01b85529294506000936001600160a01b039092169263a4c51df59261032792600160a01b900461ffff1691908d9088908e9089908f908f90600401610dde565b6040805180830381865afa158015610343573d6000803e3d6000fd5b505050506040513d601f19601f820116820180604052508101906103679190610e57565b5093509091506103e89050565b600088600160405160200161038a929190610da3565b60408051808303601f190181529082905260025460035463a4c51df560e01b84529193506000926001600160a01b0382169263a4c51df59261032792600160a01b90910461ffff1691908d9088908e9089908f908f90600401610dde565b965096945050505050565b6103fb610aa9565b6104056000610b03565b565b600160005260046020527fabd6e7cb50984ff9c2f3e18a2660c3353dadf4e3291deeb275dae2cd1e44fe055484101561047a5760405162461bcd60e51b815260206004820152601060248201526f185b5bdd5b9d081d1bdbc81cdb585b1b60821b60448201526064015b60405180910390fd5b6000604051806060016040528061048e3390565b6001600160a01b0316815260200160006001600160a01b0316815260200184848080601f0160208091040260200160405190810160405280939291908181526020018383808284376000920182905250939094525092935091508190506104fa33600189898989610293565b915091508134101561053e5760405162461bcd60e51b815260206004820152600d60248201526c746f6f20736d616c6c2066656560981b6044820152606401610471565b8134146105e25760006105518334610e7b565b604051909150600090339083908381818185875af1925050503d8060008114610596576040519150601f19603f3d011682016040523d82523d6000602084013e61059b565b606091505b50509050806105df5760405162461bcd60e51b815260206004820152601060248201526f19985a5b1959081d1bc81c99599d5b9960821b6044820152606401610471565b50505b6002546001600160a01b03166376203b48833360025460035460405160e086901b6001600160e01b03191681526106319392600160a01b900461ffff1691908e9089908f908d90600401610ed5565b6000604051808303818588803b15801561064a57600080fd5b505af115801561065e573d6000803e3d6000fd5b50505050508661066b3390565b6001600160a01b03167f222838db2794d11532d940e8dec38ae307ed0b63cd97c233322e221f998767a660405160405180910390a350505050505050565b6000805260046020527f17ef568e3e12ab5b9c7254a8d58478811de00f9e6eb34345acd53bf8fd09d3ec548410156107165760405162461bcd60e51b815260206004820152601060248201526f185b5bdd5b9d081d1bdbc81cdb585b1b60821b6044820152606401610471565b6000604051806060016040528061072a3390565b6001600160a01b0316815260200160006001600160a01b0316815260200184848080601f01602080910402602001604051908101604052809392919081815260200183838082843760009201829052509390945250929350915081905061079633600089898989610293565b91509150813410156107da5760405162461bcd60e51b815260206004820152600d60248201526c746f6f20736d616c6c2066656560981b6044820152606401610471565b81341461087e5760006107ed8334610e7b565b604051909150600090339083908381818185875af1925050503d8060008114610832576040519150601f19603f3d011682016040523d82523d6000602084013e610837565b606091505b505090508061087b5760405162461bcd60e51b815260206004820152601060248201526f19985a5b1959081d1bc81c99599d5b9960821b6044820152606401610471565b50505b6001546001600160a01b031663455ba27d8333600260149054906101000a900461ffff166003548c8d888e8c6040518a63ffffffff1660e01b81526004016108cd989796959493929190610f3c565b6000604051808303818588803b1580156108e657600080fd5b505af11580156108fa573d6000803e3d6000fd5b5050505050866109073390565b6001600160a01b03167f0f6798a560793a54c3bcfe86a93cde1e73087d944c0ea20544137d412139688560405160405180910390a350505050505050565b61094d610aa9565b6001600160a01b03811661099c5760405162461bcd60e51b8152602060048201526016602482015275125b9d985b1a59081c995b5bdd1950dbdb9d1c9858dd60521b6044820152606401610471565b6001600160a01b0316600355565b6109b2610aa9565b806109f35760405162461bcd60e51b8152602060048201526011602482015270125b9d985b1a59081b5a5b905b5bdd5b9d607a1b6044820152606401610471565b8060046000846001811115610a0a57610a0a610d8d565b6001811115610a1b57610a1b610d8d565b81526020810191909152604001600020555050565b610a38610aa9565b6001600160a01b038116610a9d5760405162461bcd60e51b815260206004820152602660248201527f4f776e61626c653a206e6577206f776e657220697320746865207a65726f206160448201526564647265737360d01b6064820152608401610471565b610aa681610b03565b50565b6000546001600160a01b031633146104055760405162461bcd60e51b815260206004820181905260248201527f4f776e61626c653a2063616c6c6572206973206e6f7420746865206f776e65726044820152606401610471565b600080546001600160a01b038381166001600160a01b0319831681178455604051919092169283917f8be0079c531659141344cd1fd0a4f28419497f9722a3daafe3b4186f6b6457e09190a35050565b80356001600160a01b0381168114610b6a57600080fd5b919050565b803560028110610b6a57600080fd5b803567ffffffffffffffff81168114610b6a57600080fd5b60008083601f840112610ba857600080fd5b50813567ffffffffffffffff811115610bc057600080fd5b602083019150836020828501011115610bd857600080fd5b9250929050565b60008060008060008060a08789031215610bf857600080fd5b610c0187610b53565b9550610c0f60208801610b6f565b945060408701359350610c2460608801610b7e565b9250608087013567ffffffffffffffff811115610c4057600080fd5b610c4c89828a01610b96565b979a9699509497509295939492505050565b6000815180845260005b81811015610c8457602081850181015186830182015201610c68565b81811115610c96576000602083870101525b50601f01601f19169290920160200192915050565b828152604060208201526000610cc46040830184610c5e565b949350505050565b600060208284031215610cde57600080fd5b610ce782610b6f565b9392505050565b60008060008060608587031215610d0457600080fd5b84359350610d1460208601610b7e565b9250604085013567ffffffffffffffff811115610d3057600080fd5b610d3c87828801610b96565b95989497509550505050565b600060208284031215610d5a57600080fd5b610ce782610b53565b60008060408385031215610d7657600080fd5b610d7f83610b6f565b946020939093013593505050565b634e487b7160e01b600052602160045260246000fd5b6001600160a01b03831681526040810160028310610dd157634e487b7160e01b600052602160045260246000fd5b8260208301529392505050565b61ffff8916815287602082015286604082015260e060608201526000610e0760e0830188610c5e565b67ffffffffffffffff8716608084015285151560a084015282810360c0840152838152838560208301376000602085830101526020601f19601f8601168201019150509998505050505050505050565b60008060408385031215610e6a57600080fd5b505080516020909101519092909150565b600082821015610e9b57634e487b7160e01b600052601160045260246000fd5b500390565b600060018060a01b0380835116845280602084015116602085015250604082015160606040850152610cc46060850182610c5e565b60018060a01b038816815261ffff8716602082015285604082015284606082015260e060808201526000610f0c60e0830186610c5e565b67ffffffffffffffff851660a084015282810360c0840152610f2e8185610ea0565b9a9950505050505050505050565b600061010060018060a01b038b16835261ffff8a1660208401528860408401528760608401528660808401528060a0840152610f7a81840187610c5e565b905067ffffffffffffffff851660c084015282810360e0840152610f9e8185610ea0565b9b9a505050505050505050505056fea26469706673582212205412c2fee0e37f5d0754f14cd9622df3adde99b9bd54cc5cfee4a8086b35d68264736f6c634300080a0033",
  "devdoc": {
    "kind": "dev",
    "methods": {
      "owner()": {
        "details": "Returns the address of the current owner."
      },
      "renounceOwnership()": {
        "details": "Leaves the contract without owner. It will not be possible to call `onlyOwner` functions. Can only be called by the current owner. NOTE: Renouncing ownership will leave the contract without an owner, thereby disabling any functionality that is only available to the owner."
      },
      "transferOwnership(address)": {
        "details": "Transfers ownership of the contract to a new account (`newOwner`). Can only be called by the current owner."
      }
    },
    "version": 1
  },
  "userdoc": {
    "kind": "user",
    "methods": {},
    "version": 1
  },
  "storageLayout": {
    "storage": [
      {
        "astId": 3944,
        "contract": "contracts/AstarZkSlpx.sol:AstarZkSlpx",
        "label": "_owner",
        "offset": 0,
        "slot": "0",
        "type": "t_address"
      },
      {
        "astId": 7711,
        "contract": "contracts/AstarZkSlpx.sol:AstarZkSlpx",
        "label": "astrOFTWithFee",
        "offset": 0,
        "slot": "1",
        "type": "t_address"
      },
      {
        "astId": 7713,
        "contract": "contracts/AstarZkSlpx.sol:AstarZkSlpx",
        "label": "vAstrOFT",
        "offset": 0,
        "slot": "2",
        "type": "t_address"
      },
      {
        "astId": 7715,
        "contract": "contracts/AstarZkSlpx.sol:AstarZkSlpx",
        "label": "destChainId",
        "offset": 20,
        "slot": "2",
        "type": "t_uint16"
      },
      {
        "astId": 7717,
        "contract": "contracts/AstarZkSlpx.sol:AstarZkSlpx",
        "label": "remoteContract",
        "offset": 0,
        "slot": "3",
        "type": "t_bytes32"
      },
      {
        "astId": 7722,
        "contract": "contracts/AstarZkSlpx.sol:AstarZkSlpx",
        "label": "minAmount",
        "offset": 0,
        "slot": "4",
        "type": "t_mapping(t_enum(Operation)10101,t_uint256)"
      }
    ],
    "types": {
      "t_address": {
        "encoding": "inplace",
        "label": "address",
        "numberOfBytes": "20"
      },
      "t_bytes32": {
        "encoding": "inplace",
        "label": "bytes32",
        "numberOfBytes": "32"
      },
      "t_enum(Operation)10101": {
        "encoding": "inplace",
        "label": "enum Types.Operation",
        "numberOfBytes": "1"
      },
      "t_mapping(t_enum(Operation)10101,t_uint256)": {
        "encoding": "mapping",
        "key": "t_enum(Operation)10101",
        "label": "mapping(enum Types.Operation => uint256)",
        "numberOfBytes": "32",
        "value": "t_uint256"
      },
      "t_uint16": {
        "encoding": "inplace",
        "label": "uint16",
        "numberOfBytes": "2"
      },
      "t_uint256": {
        "encoding": "inplace",
        "label": "uint256",
        "numberOfBytes": "32"
      }
    }
  }
}