{
  "address": "0x5D0Fe2b02d449e47715596cd256e59d501109519",
  "abi": [
    {
      "inputs": [],
      "name": "CREATE_ORDER_CALL_INDEX",
      "outputs": [
        {
          "internalType": "uint8",
          "name": "",
          "type": "uint8"
        }
      ],
      "stateMutability": "view",
      "type": "function"
    },
    {
      "inputs": [],
      "name": "MINT_CALL_INDEX",
      "outputs": [
        {
          "internalType": "uint8",
          "name": "",
          "type": "uint8"
        }
      ],
      "stateMutability": "view",
      "type": "function"
    },
    {
      "inputs": [],
      "name": "MINT_WITH_CHANNEL_ID_CALL_INDEX",
      "outputs": [
        {
          "internalType": "uint8",
          "name": "",
          "type": "uint8"
        }
      ],
      "stateMutability": "view",
      "type": "function"
    },
    {
      "inputs": [],
      "name": "PALLET_INDEX",
      "outputs": [
        {
          "internalType": "uint8",
          "name": "",
          "type": "uint8"
        }
      ],
      "stateMutability": "view",
      "type": "function"
    },
    {
      "inputs": [],
      "name": "REDEEM_CALL_INDEX",
      "outputs": [
        {
          "internalType": "uint8",
          "name": "",
          "type": "uint8"
        }
      ],
      "stateMutability": "view",
      "type": "function"
    },
    {
      "inputs": [],
      "name": "STABLE_POOL_SWAP_CALL_INDEX",
      "outputs": [
        {
          "internalType": "uint8",
          "name": "",
          "type": "uint8"
        }
      ],
      "stateMutability": "view",
      "type": "function"
    },
    {
      "inputs": [],
      "name": "SWAP_CALL_INDEX",
      "outputs": [
        {
          "internalType": "uint8",
          "name": "",
          "type": "uint8"
        }
      ],
      "stateMutability": "view",
      "type": "function"
    },
    {
      "inputs": [
        {
          "internalType": "address",
          "name": "caller",
          "type": "address"
        },
        {
          "internalType": "uint256",
          "name": "chain_id",
          "type": "uint256"
        },
        {
          "internalType": "uint256",
          "name": "block_number",
          "type": "uint256"
        },
        {
          "internalType": "bytes2",
          "name": "token",
          "type": "bytes2"
        },
        {
          "internalType": "uint128",
          "name": "amount",
          "type": "uint128"
        },
        {
          "internalType": "bytes",
          "name": "targetChain",
          "type": "bytes"
        },
        {
          "internalType": "string",
          "name": "remark",
          "type": "string"
        },
        {
          "internalType": "uint32",
          "name": "channel_id",
          "type": "uint32"
        }
      ],
      "name": "buildCreateOrderCallBytes",
      "outputs": [
        {
          "internalType": "bytes",
          "name": "",
          "type": "bytes"
        }
      ],
      "stateMutability": "pure",
      "type": "function"
    },
    {
      "inputs": [
        {
          "internalType": "address",
          "name": "caller",
          "type": "address"
        },
        {
          "internalType": "bytes2",
          "name": "token",
          "type": "bytes2"
        },
        {
          "internalType": "bytes",
          "name": "targetChain",
          "type": "bytes"
        },
        {
          "internalType": "string",
          "name": "remark",
          "type": "string"
        }
      ],
      "name": "buildMintCallBytes",
      "outputs": [
        {
          "internalType": "bytes",
          "name": "",
          "type": "bytes"
        }
      ],
      "stateMutability": "pure",
      "type": "function"
    },
    {
      "inputs": [
        {
          "internalType": "address",
          "name": "caller",
          "type": "address"
        },
        {
          "internalType": "bytes2",
          "name": "token",
          "type": "bytes2"
        },
        {
          "internalType": "bytes",
          "name": "targetChain",
          "type": "bytes"
        },
        {
          "internalType": "string",
          "name": "remark",
          "type": "string"
        },
        {
          "internalType": "uint32",
          "name": "channel_id",
          "type": "uint32"
        }
      ],
      "name": "buildMintWithChannelIdCallBytes",
      "outputs": [
        {
          "internalType": "bytes",
          "name": "",
          "type": "bytes"
        }
      ],
      "stateMutability": "pure",
      "type": "function"
    },
    {
      "inputs": [
        {
          "internalType": "address",
          "name": "caller",
          "type": "address"
        },
        {
          "internalType": "bytes2",
          "name": "vtoken",
          "type": "bytes2"
        },
        {
          "internalType": "bytes",
          "name": "targetChain",
          "type": "bytes"
        }
      ],
      "name": "buildRedeemCallBytes",
      "outputs": [
        {
          "internalType": "bytes",
          "name": "",
          "type": "bytes"
        }
      ],
      "stateMutability": "pure",
      "type": "function"
    },
    {
      "inputs": [
        {
          "internalType": "address",
          "name": "caller",
          "type": "address"
        },
        {
          "internalType": "uint32",
          "name": "pool_id",
          "type": "uint32"
        },
        {
          "internalType": "bytes2",
          "name": "currency_in",
          "type": "bytes2"
        },
        {
          "internalType": "bytes2",
          "name": "currency_out",
          "type": "bytes2"
        },
        {
          "internalType": "uint128",
          "name": "min_dy",
          "type": "uint128"
        },
        {
          "internalType": "bytes",
          "name": "targetChain",
          "type": "bytes"
        }
      ],
      "name": "buildStablePoolSwapCallBytes",
      "outputs": [
        {
          "internalType": "bytes",
          "name": "",
          "type": "bytes"
        }
      ],
      "stateMutability": "pure",
      "type": "function"
    },
    {
      "inputs": [
        {
          "internalType": "address",
          "name": "caller",
          "type": "address"
        },
        {
          "internalType": "bytes2",
          "name": "currency_in",
          "type": "bytes2"
        },
        {
          "internalType": "bytes2",
          "name": "currency_out",
          "type": "bytes2"
        },
        {
          "internalType": "uint128",
          "name": "currency_out_min",
          "type": "uint128"
        },
        {
          "internalType": "bytes",
          "name": "targetChain",
          "type": "bytes"
        }
      ],
      "name": "buildSwapCallBytes",
      "outputs": [
        {
          "internalType": "bytes",
          "name": "",
          "type": "bytes"
        }
      ],
      "stateMutability": "pure",
      "type": "function"
    }
  ],
  "transactionHash": "0x4a27b9d430bf30bd059989c80b03bb7a0090fa96bb95cef000ed994f50f6384f",
  "args": [],
  "numDeployments": 3,
  "solcInputHash": "77eebe05f8dc48e012172d808680b44d",
  "bytecode": "0x61165a61003a600b82828239805160001a60731461002d57634e487b7160e01b600052600060045260246000fd5b30600052607381538281f3fe73000000000000000000000000000000000000000030146080604052600436106100d95760003560e01c806370c8aa2d11610096578063b921552711610070578063b92155271461017a578063bae1fc551461018d578063cb070de514610195578063d53d7cad146101a857600080fd5b806370c8aa2d1461014c5780639f0047831461015f578063aa753d221461017257600080fd5b806309e4f001146100de57806314dadaaa146101075780632b6a89ca1461012157806343fef1af1461012957806354ffa3e8146101315780636bc6c67f14610139575b600080fd5b6100f16100ec366004610d58565b6101b0565b6040516100fe9190610e42565b60405180910390f35b61010f600181565b60405160ff90911681526020016100fe565b61010f600381565b61010f607d81565b61010f600281565b6100f1610147366004610e75565b6102b9565b6100f161015a366004610f04565b6103a4565b6100f161016d366004610f9a565b61048c565b61010f600e81565b6100f1610188366004610ff8565b61055c565b61010f600d81565b6100f16101a336600461107d565b610639565b61010f600081565b60408051600280825281830190925260609160009190602082018180368337019050509050607d60f81b816000815181106101ed576101ed6110fd565b60200101906001600160f81b031916908160001a905350600e60f81b8160018151811061021c5761021c6110fd565b60200101906001600160f81b031916908160001a905350808a6040516020016102459190611113565b60405160208183030381529060405261025d8b6106fe565b6102668b61079e565b8a6102708b61079e565b8a61027a8b610836565b6102838b61093a565b60405160200161029b99989796959493929190611130565b60405160208183030381529060405291505098975050505050505050565b60408051600280825281830190925260609160009190602082018180368337019050509050607d60f81b816000815181106102f6576102f66110fd565b60200101906001600160f81b031916908160001a905350600360f81b81600181518110610325576103256110fd565b60200101906001600160f81b031916908160001a905350808860405160200161034e9190611113565b6040516020818303038152906040526103668961093a565b88886103718961079e565b8860405160200161038897969594939291906111f4565b6040516020818303038152906040529150509695505050505050565b60408051600280825281830190925260609160009190602082018180368337019050509050607d60f81b816000815181106103e1576103e16110fd565b60200101906001600160f81b031916908160001a905350600d60f81b81600181518110610410576104106110fd565b60200101906001600160f81b031916908160001a90535080876040516020016104399190611113565b604051602081830303815290604052878761045388610836565b61045c8861093a565b60405160200161047196959493929190611281565b60405160208183030381529060405291505095945050505050565b60408051600280825281830190925260609160009190602082018180368337019050509050607d60f81b816000815181106104c9576104c96110fd565b60200101906001600160f81b031916908160001a905350600260f81b816001815181106104f8576104f86110fd565b60200101906001600160f81b031916908160001a90535080856040516020016105219190611113565b60408051601f1981840301815290829052610543929187908790602001611306565b6040516020818303038152906040529150509392505050565b60408051600280825281830190925260609160009190602082018180368337019050509050607d60f81b81600081518110610599576105996110fd565b60200101906001600160f81b031916908160001a905350600060f81b816001815181106105c8576105c86110fd565b60200101906001600160f81b031916908160001a90535080866040516020016105f19190611113565b604051602081830303815290604052868661060b87610836565b60405160200161061f95949392919061135d565b604051602081830303815290604052915050949350505050565b60408051600280825281830190925260609160009190602082018180368337019050509050607d60f81b81600081518110610676576106766110fd565b60200101906001600160f81b031916908160001a905350600160f81b816001815181106106a5576106a56110fd565b60200101906001600160f81b031916908160001a90535080876040516020016106ce9190611113565b60405160208183030381529060405287876106e88861079e565b87604051602001610471969594939291906113cb565b6040805160088082528183019092526060916000919060208201818036833701905050905060005b60088110156107975761073a81600861145a565b61074590600261155d565b6107599067ffffffffffffffff8616611570565b60f81b82828151811061076e5761076e6110fd565b60200101906001600160f81b031916908160001a9053508061078f81611592565b915050610726565b5092915050565b6040805160108082528183019092526060916000919060208201818036833701905050905060005b6010811015610797576107da81600861145a565b6107e590600261155d565b6107f8906001600160801b038616611570565b60f81b82828151811061080d5761080d6110fd565b60200101906001600160f81b031916908160001a9053508061082e81611592565b9150506107c6565b60606000829050600061085582516004610850919061145a565b6109cf565b90506000825167ffffffffffffffff81111561087357610873610ca1565b6040519080825280601f01601f19166020018201604052801561089d576020820181803683370190505b50905060005b835181101561090a576108ce8482815181106108c1576108c16110fd565b016020015160f81c610b3b565b60f81b8282815181106108e3576108e36110fd565b60200101906001600160f81b031916908160001a90535061090381611592565b90506108a3565b50600082826040516020016109209291906115ad565b60408051601f198184030181529190529695505050505050565b6040805160048082528183019092526060916000919060208201818036833701905050905060005b60048110156107975761097681600861145a565b61098190600261155d565b6109919063ffffffff8616611570565b60f81b8282815181106109a6576109a66110fd565b60200101906001600160f81b031916908160001a905350806109c781611592565b915050610962565b604080516008808252818301909252606091600091906020820181803683370190505090506000805b6008811015610a86576000610a0e82600861145a565b610a1990600261155d565b610a2d9067ffffffffffffffff8816611570565b905060ff811615610a6a578060f81b848381518110610a4e57610a4e6110fd565b60200101906001600160f81b031916908160001a905350610a73565b81925050610a86565b5080610a7e81611592565b9150506109f8565b5060008167ffffffffffffffff811115610aa257610aa2610ca1565b6040519080825280601f01601f191660200182016040528015610acc576020820181803683370190505b50905060005b82811015610b3257838181518110610aec57610aec6110fd565b602001015160f81c60f81b828281518110610b0957610b096110fd565b60200101906001600160f81b031916908160001a90535080610b2a81611592565b915050610ad2565b50949350505050565b6000600360fc1b60f883901b6001600160f81b03191610801590610b715750603960f81b60f883901b6001600160f81b03191611155b15610b92576030610b8283826115dc565b610b8c9190611601565b92915050565b606160f81b60f883901b6001600160f81b03191610801590610bc65750603d60f91b60f883901b6001600160f81b03191611155b15610bd7576061610b8283826115dc565b604160f81b60f883901b6001600160f81b03191610801590610c0b5750602d60f91b60f883901b6001600160f81b03191611155b15610c1c576041610b8283826115dc565b60405162461bcd60e51b8152600401610c4d9060208082526004908201526319985a5b60e21b604082015260600190565b60405180910390fd5b80356001600160a01b0381168114610c6d57600080fd5b919050565b80356001600160f01b031981168114610c6d57600080fd5b80356001600160801b0381168114610c6d57600080fd5b634e487b7160e01b600052604160045260246000fd5b600082601f830112610cc857600080fd5b813567ffffffffffffffff80821115610ce357610ce3610ca1565b604051601f8301601f19908116603f01168101908282118183101715610d0b57610d0b610ca1565b81604052838152866020858801011115610d2457600080fd5b836020870160208301376000602085830101528094505050505092915050565b803563ffffffff81168114610c6d57600080fd5b600080600080600080600080610100898b031215610d7557600080fd5b610d7e89610c56565b97506020890135965060408901359550610d9a60608a01610c72565b9450610da860808a01610c8a565b935060a089013567ffffffffffffffff80821115610dc557600080fd5b610dd18c838d01610cb7565b945060c08b0135915080821115610de757600080fd5b50610df48b828c01610cb7565b925050610e0360e08a01610d44565b90509295985092959890939650565b60005b83811015610e2d578181015183820152602001610e15565b83811115610e3c576000848401525b50505050565b6020815260008251806020840152610e61816040850160208701610e12565b601f01601f19169190910160400192915050565b60008060008060008060c08789031215610e8e57600080fd5b610e9787610c56565b9550610ea560208801610d44565b9450610eb360408801610c72565b9350610ec160608801610c72565b9250610ecf60808801610c8a565b915060a087013567ffffffffffffffff811115610eeb57600080fd5b610ef789828a01610cb7565b9150509295509295509295565b600080600080600060a08688031215610f1c57600080fd5b610f2586610c56565b9450610f3360208701610c72565b9350604086013567ffffffffffffffff80821115610f5057600080fd5b610f5c89838a01610cb7565b94506060880135915080821115610f7257600080fd5b50610f7f88828901610cb7565b925050610f8e60808701610d44565b90509295509295909350565b600080600060608486031215610faf57600080fd5b610fb884610c56565b9250610fc660208501610c72565b9150604084013567ffffffffffffffff811115610fe257600080fd5b610fee86828701610cb7565b9150509250925092565b6000806000806080858703121561100e57600080fd5b61101785610c56565b935061102560208601610c72565b9250604085013567ffffffffffffffff8082111561104257600080fd5b61104e88838901610cb7565b9350606087013591508082111561106457600080fd5b5061107187828801610cb7565b91505092959194509250565b600080600080600060a0868803121561109557600080fd5b61109e86610c56565b94506110ac60208701610c72565b93506110ba60408701610c72565b92506110c860608701610c8a565b9150608086013567ffffffffffffffff8111156110e457600080fd5b6110f088828901610cb7565b9150509295509295909350565b634e487b7160e01b600052603260045260246000fd5b60609190911b6bffffffffffffffffffffffff1916815260140190565b60008a51611142818460208f01610e12565b8a5190830190611156818360208f01610e12565b8a51910190611169818360208e01610e12565b895191019061117c818360208d01610e12565b6001600160f01b031989169101908152865161119f816002840160208b01610e12565b86519101906111b5816002840160208a01610e12565b85519101906111cb816002840160208901610e12565b84519101906111e1816002840160208801610e12565b016002019b9a5050505050505050505050565b60008851611206818460208d01610e12565b88519083019061121a818360208d01610e12565b885191019061122d818360208c01610e12565b6001600160f01b03198881169290910191825286166002820152845161125a816004840160208901610e12565b8451910190611270816004840160208801610e12565b016004019998505050505050505050565b60008751611293818460208c01610e12565b8751908301906112a7818360208c01610e12565b6001600160f01b03198816910190815285516112ca816002840160208a01610e12565b85519101906112e0816002840160208901610e12565b84519101906112f6816002840160208801610e12565b0160020198975050505050505050565b60008551611318818460208a01610e12565b85519083019061132c818360208a01610e12565b6001600160f01b031986169101908152835161134f816002840160208801610e12565b016002019695505050505050565b6000865161136f818460208b01610e12565b865190830190611383818360208b01610e12565b6001600160f01b03198716910190815284516113a6816002840160208901610e12565b84519101906113bc816002840160208801610e12565b01600201979650505050505050565b600087516113dd818460208c01610e12565b8751908301906113f1818360208c01610e12565b6001600160f01b03198881169290910191825286166002820152845161141e816004840160208901610e12565b8451910190611434816004840160208801610e12565b0160040198975050505050505050565b634e487b7160e01b600052601160045260246000fd5b600081600019048311821515161561147457611474611444565b500290565b600181815b808511156114b457816000190482111561149a5761149a611444565b808516156114a757918102915b93841c939080029061147e565b509250929050565b6000826114cb57506001610b8c565b816114d857506000610b8c565b81600181146114ee57600281146114f857611514565b6001915050610b8c565b60ff84111561150957611509611444565b50506001821b610b8c565b5060208310610133831016604e8410600b8410161715611537575081810a610b8c565b6115418383611479565b806000190482111561155557611555611444565b029392505050565b600061156983836114bc565b9392505050565b60008261158d57634e487b7160e01b600052601260045260246000fd5b500490565b60006000198214156115a6576115a6611444565b5060010190565b600083516115bf818460208801610e12565b8351908301906115d3818360208801610e12565b01949350505050565b600060ff821660ff84168060ff038211156115f9576115f9611444565b019392505050565b600060ff821660ff84168082101561161b5761161b611444565b9003939250505056fea2646970667358221220a30946d3347b12c87cb4371b7ebd817d0cf43f6fc0c604c5cbf6ce6f950d79e164736f6c634300080a0033",
  "devdoc": {
    "kind": "dev",
    "methods": {},
    "version": 1
  },
  "userdoc": {
    "kind": "user",
    "methods": {},
    "version": 1
  },
  "storageLayout": {
    "storage": [],
    "types": null
  }
}