{
  "address": "0x5e2DBf9659b64C135912DB1cb2f5397c611e8002",
  "abi": [
    {
      "anonymous": false,
      "inputs": [
        {
          "indexed": true,
          "internalType": "address",
          "name": "previousOwner",
          "type": "address"
        },
        {
          "indexed": true,
          "internalType": "address",
          "name": "newOwner",
          "type": "address"
        }
      ],
      "name": "OwnershipTransferred",
      "type": "event"
    },
    {
      "anonymous": false,
      "inputs": [
        {
          "indexed": true,
          "internalType": "address",
          "name": "caller",
          "type": "address"
        },
        {
          "indexed": true,
          "internalType": "address",
          "name": "derivativeAddress",
          "type": "address"
        }
      ],
      "name": "SetDerivativeAddress",
      "type": "event"
    },
    {
      "anonymous": false,
      "inputs": [
        {
          "indexed": true,
          "internalType": "address",
          "name": "scriptTrigger",
          "type": "address"
        },
        {
          "indexed": true,
          "internalType": "uint256",
          "name": "layerZeroFee",
          "type": "uint256"
        }
      ],
      "name": "SetLayerZeroFee",
      "type": "event"
    },
    {
      "anonymous": false,
      "inputs": [
        {
          "indexed": true,
          "internalType": "address",
          "name": "scriptTrigger",
          "type": "address"
        }
      ],
      "name": "SetScriptTrigger",
      "type": "event"
    },
    {
      "inputs": [],
      "name": "BNC",
      "outputs": [
        {
          "internalType": "address",
          "name": "",
          "type": "address"
        }
      ],
      "stateMutability": "view",
      "type": "function"
    },
    {
      "inputs": [],
      "name": "MANTA",
      "outputs": [
        {
          "internalType": "address",
          "name": "",
          "type": "address"
        }
      ],
      "stateMutability": "view",
      "type": "function"
    },
    {
      "inputs": [],
      "name": "VMANTA",
      "outputs": [
        {
          "internalType": "address",
          "name": "",
          "type": "address"
        }
      ],
      "stateMutability": "view",
      "type": "function"
    },
    {
      "inputs": [
        {
          "internalType": "address",
          "name": "",
          "type": "address"
        }
      ],
      "name": "callerToDerivativeAddress",
      "outputs": [
        {
          "internalType": "address",
          "name": "",
          "type": "address"
        }
      ],
      "stateMutability": "view",
      "type": "function"
    },
    {
      "inputs": [
        {
          "internalType": "address",
          "name": "addr",
          "type": "address"
        },
        {
          "internalType": "bytes",
          "name": "_adapterParams",
          "type": "bytes"
        }
      ],
      "name": "claimManta",
      "outputs": [],
      "stateMutability": "payable",
      "type": "function"
    },
    {
      "inputs": [
        {
          "internalType": "address",
          "name": "addr",
          "type": "address"
        },
        {
          "internalType": "bytes",
          "name": "_adapterParams",
          "type": "bytes"
        }
      ],
      "name": "claimVManta",
      "outputs": [],
      "stateMutability": "payable",
      "type": "function"
    },
    {
      "inputs": [],
      "name": "destChainId",
      "outputs": [
        {
          "internalType": "uint16",
          "name": "",
          "type": "uint16"
        }
      ],
      "stateMutability": "view",
      "type": "function"
    },
    {
      "inputs": [],
      "name": "layerZeroFee",
      "outputs": [
        {
          "internalType": "uint256",
          "name": "",
          "type": "uint256"
        }
      ],
      "stateMutability": "view",
      "type": "function"
    },
    {
      "inputs": [],
      "name": "mantaOFT",
      "outputs": [
        {
          "internalType": "address",
          "name": "",
          "type": "address"
        }
      ],
      "stateMutability": "view",
      "type": "function"
    },
    {
      "inputs": [],
      "name": "mantaPacificSlpx",
      "outputs": [
        {
          "internalType": "address",
          "name": "",
          "type": "address"
        }
      ],
      "stateMutability": "view",
      "type": "function"
    },
    {
      "inputs": [
        {
          "internalType": "uint16",
          "name": "srcChainId",
          "type": "uint16"
        },
        {
          "internalType": "bytes",
          "name": "",
          "type": "bytes"
        },
        {
          "internalType": "uint64",
          "name": "",
          "type": "uint64"
        },
        {
          "internalType": "bytes32",
          "name": "from",
          "type": "bytes32"
        },
        {
          "internalType": "uint256",
          "name": "amount",
          "type": "uint256"
        },
        {
          "internalType": "bytes",
          "name": "payload",
          "type": "bytes"
        }
      ],
      "name": "onOFTReceived",
      "outputs": [],
      "stateMutability": "nonpayable",
      "type": "function"
    },
    {
      "inputs": [],
      "name": "owner",
      "outputs": [
        {
          "internalType": "address",
          "name": "",
          "type": "address"
        }
      ],
      "stateMutability": "view",
      "type": "function"
    },
    {
      "inputs": [],
      "name": "renounceOwnership",
      "outputs": [],
      "stateMutability": "nonpayable",
      "type": "function"
    },
    {
      "inputs": [],
      "name": "scriptTrigger",
      "outputs": [
        {
          "internalType": "address",
          "name": "",
          "type": "address"
        }
      ],
      "stateMutability": "view",
      "type": "function"
    },
    {
      "inputs": [
        {
          "internalType": "address",
          "name": "addr",
          "type": "address"
        }
      ],
      "name": "setDerivativeAddress",
      "outputs": [],
      "stateMutability": "nonpayable",
      "type": "function"
    },
    {
      "inputs": [
        {
          "internalType": "uint256",
          "name": "_layerZeroFee",
          "type": "uint256"
        }
      ],
      "name": "setLayerZeroFee",
      "outputs": [],
      "stateMutability": "nonpayable",
      "type": "function"
    },
    {
      "inputs": [
        {
          "internalType": "address",
          "name": "_mantaPacificSlpx",
          "type": "address"
        }
      ],
      "name": "setRemoteContract",
      "outputs": [],
      "stateMutability": "nonpayable",
      "type": "function"
    },
    {
      "inputs": [
        {
          "internalType": "address",
          "name": "_scriptTrigger",
          "type": "address"
        }
      ],
      "name": "setScriptTrigger",
      "outputs": [],
      "stateMutability": "nonpayable",
      "type": "function"
    },
    {
      "inputs": [],
      "name": "slpx",
      "outputs": [
        {
          "internalType": "address",
          "name": "",
          "type": "address"
        }
      ],
      "stateMutability": "view",
      "type": "function"
    },
    {
      "inputs": [
        {
          "internalType": "address",
          "name": "newOwner",
          "type": "address"
        }
      ],
      "name": "transferOwnership",
      "outputs": [],
      "stateMutability": "nonpayable",
      "type": "function"
    },
    {
      "inputs": [],
      "name": "vMantaProxyOFT",
      "outputs": [
        {
          "internalType": "address",
          "name": "",
          "type": "address"
        }
      ],
      "stateMutability": "view",
      "type": "function"
    }
  ],
  "transactionHash": "0x10e87e464b80ea39dcf2e1d4cba11cc6fde94d95a1b9a93452370148102c0588",
  "args": [],
  "numDeployments": 10,
  "solcInputHash": "25c7bcbbffe077141b1ba1d0946a3d5c",
  "bytecode": "0x608060405234801561001057600080fd5b5061001a3361001f565b61006f565b600080546001600160a01b038381166001600160a01b0319831681178455604051919092169283917f8be0079c531659141344cd1fd0a4f28419497f9722a3daafe3b4186f6b6457e09190a35050565b6126998061007e6000396000f3fe60806040526004361061012a5760003560e01c8063a7fd9c6b116100ab578063c24133971161006f578063c241339714610339578063c4af1c0b14610359578063f012945314610381578063f17e1d3d146103a9578063f29588c7146103d1578063f2fde38b146103f957600080fd5b8063a7fd9c6b1461028c578063a97d9f44146102c2578063ae83f844146102e6578063afd6aab714610306578063c0afb3f41461031957600080fd5b80635d76da01116100f25780635d76da01146101e9578063715018a6146102115780637fcf35da146102265780638da5cb5b14610246578063a6a6e9261461026457600080fd5b80630d1bf91f1461012f57806325a2236714610174578063357ba05f14610189578063525560ed146101a95780635d741b09146101c9575b600080fd5b34801561013b57600080fd5b5061015773debbb9309d95dabbfb82411a9c6daa3909b164a481565b6040516001600160a01b0390911681526020015b60405180910390f35b610187610182366004611a46565b610419565b005b34801561019557600080fd5b506101876101a4366004611a9b565b610804565b3480156101b557600080fd5b50600154610157906001600160a01b031681565b3480156101d557600080fd5b50600354610157906001600160a01b031681565b3480156101f557600080fd5b5061015773f1d4797e51a4640a76769a50b57abe7479add3d881565b34801561021d57600080fd5b5061018761087c565b34801561023257600080fd5b50610187610241366004611ace565b610890565b34801561025257600080fd5b506000546001600160a01b0316610157565b34801561027057600080fd5b5061015773ffffffffda2a05fb50e7ae99275f4341aed4337981565b34801561029857600080fd5b506101576102a7366004611a9b565b6004602052600090815260409020546001600160a01b031681565b3480156102ce57600080fd5b506102d860025481565b60405190815260200161016b565b3480156102f257600080fd5b50610187610301366004611b7f565b610cdf565b610187610314366004611a46565b610d52565b34801561032557600080fd5b50610187610334366004611a9b565b6110f8565b34801561034557600080fd5b50610187610354366004611a9b565b611178565b34801561036557600080fd5b5061036e60d981565b60405161ffff909116815260200161016b565b34801561038d57600080fd5b506101577317313ce6e47d796e61fdeac34ab1f58e3e08908281565b3480156103b557600080fd5b5061015773ffffffff7d3875460d4509eb8d0362c611b4e84181565b3480156103dd57600080fd5b5061015773ffffffff7cc06abdf7201b350a1265c62c8601d281565b34801561040557600080fd5b50610187610414366004611a9b565b61127d565b6003546001600160a01b0316336001600160a01b0316146104555760405162461bcd60e51b815260040161044c90611b98565b60405180910390fd5b6001600160a01b03808416600090815260046020526040902054168061048d5760405162461bcd60e51b815260040161044c90611bc7565b6040516308aea7fd60e41b815273ffffffffda2a05fb50e7ae99275f4341aed4337960048201526000906001600160a01b03831690638aea7fd0906024016020604051808303816000875af11580156104ea573d6000803e3d6000fd5b505050506040513d601f19601f8201168201806040525081019061050e9190611bf0565b60405163095ea7b360e01b815273debbb9309d95dabbfb82411a9c6daa3909b164a460048201526024810182905290915073ffffffffda2a05fb50e7ae99275f4341aed433799063095ea7b3906044016020604051808303816000875af115801561057d573d6000803e3d6000fd5b505050506040513d601f19601f820116820180604052508101906105a19190611c09565b50600060405180606001604052806105b63390565b6001600160a01b0316815260200160006001600160a01b0316815260200186868080601f0160208091040260200160405190810160405280939291908181526020018383808284376000920182905250939094525050604051630d94982d60e21b81529293506001600160a01b0389169290915073debbb9309d95dabbfb82411a9c6daa3909b164a49063365260b49061065f9060d9908690899087908e908e90600401611c2b565b6040805180830381865afa15801561067b573d6000803e3d6000fd5b505050506040513d601f19601f8201168201806040525081019061069f9190611c7c565b509050803410156106e25760405162461bcd60e51b815260206004820152600d60248201526c746f6f20736d616c6c2066656560981b604482015260640161044c565b8034146107865760006106f58234611ca0565b604051909150600090339083908381818185875af1925050503d806000811461073a576040519150601f19603f3d011682016040523d82523d6000602084013e61073f565b606091505b50509050806107835760405162461bcd60e51b815260206004820152601060248201526f19985a5b1959081d1bc81c99599d5b9960821b604482015260640161044c565b50505b60405163695ef6bf60e01b815273debbb9309d95dabbfb82411a9c6daa3909b164a49063695ef6bf9083906107c890309060d99088908b908b90600401611d21565b6000604051808303818588803b1580156107e157600080fd5b505af11580156107f5573d6000803e3d6000fd5b50505050505050505050505050565b61080c6112f6565b6001600160a01b0381166108325760405162461bcd60e51b815260040161044c90611bc7565b600380546001600160a01b0319166001600160a01b0383169081179091556040517fda100d63215e418eb5fdfcdb0b592f13bc6aea387392797c16c70caf4ea8772190600090a250565b6108846112f6565b61088e6000611350565b565b61ffff881660d9146108f05760405162461bcd60e51b815260206004820152602360248201527f6f6e6c792072656365697665206d73672066726f6d206d616e7461207061636960448201526266696360e81b606482015260840161044c565b337317313ce6e47d796e61fdeac34ab1f58e3e089082148061092557503373debbb9309d95dabbfb82411a9c6daa3909b164a4145b6109715760405162461bcd60e51b815260206004820152601860248201527f6f6e6c79206e6174697665206f66742063616e2063616c6c0000000000000000604482015260640161044c565b6001546001600160a01b038581169116146109dd5760405162461bcd60e51b815260206004820152602660248201527f6f6e6c792072656365697665206d73672066726f6d206d616e746150616369666044820152650d2c6a6d8e0f60d31b606482015260840161044c565b6000806109ec83850185611d88565b6001600160a01b0380831660009081526004602052604090205492945090925016610a1a57610a1a82611178565b6000337317313ce6e47d796e61fdeac34ab1f58e3e0890821415610b245760035460025460405163a9059cbb60e01b81526001600160a01b039092166004830152602482015260009073ffffffff7d3875460d4509eb8d0362c611b4e8419063a9059cbb906044016020604051808303816000875af1158015610aa1573d6000803e3d6000fd5b505050506040513d601f19601f82011682018060405250810190610ac59190611c09565b905080610b075760405162461bcd60e51b815260206004820152601060248201526f6661696c656420746f2063686172676560801b604482015260640161044c565b73ffffffff7d3875460d4509eb8d0362c611b4e841915050610c69565b3373debbb9309d95dabbfb82411a9c6daa3909b164a41415610c2c5760035460025460405163a9059cbb60e01b81526001600160a01b039092166004830152602482015260009073ffffffffda2a05fb50e7ae99275f4341aed433799063a9059cbb906044016020604051808303816000875af1158015610ba9573d6000803e3d6000fd5b505050506040513d601f19601f82011682018060405250810190610bcd9190611c09565b905080610c0f5760405162461bcd60e51b815260206004820152601060248201526f6661696c656420746f2063686172676560801b604482015260640161044c565b73ffffffffda2a05fb50e7ae99275f4341aed43379915050610c69565b60405162461bcd60e51b815260206004820152601260248201527134b73b30b634b21036b9b39739b2b73232b960711b604482015260640161044c565b610cd283826001600160a01b03811673ffffffff7d3875460d4509eb8d0362c611b4e84114610c9d5761012160f31b610ca4565b61010160f31b5b600254610cb1908b611ca0565b6001600160a01b0380891660009081526004602052604090205416876113a0565b5050505050505050505050565b6003546001600160a01b0316336001600160a01b031614610d125760405162461bcd60e51b815260040161044c90611b98565b600281905560035460405182916001600160a01b0316907f405485c96e1fef0d0e7aa1b6bc6f839d6e825f49f9e5607dc07fcd69e098970690600090a350565b6003546001600160a01b0316336001600160a01b031614610d855760405162461bcd60e51b815260040161044c90611b98565b6001600160a01b038084166000908152600460205260409020541680610dbd5760405162461bcd60e51b815260040161044c90611bc7565b6040516308aea7fd60e41b815273ffffffff7d3875460d4509eb8d0362c611b4e84160048201526000906001600160a01b03831690638aea7fd0906024016020604051808303816000875af1158015610e1a573d6000803e3d6000fd5b505050506040513d601f19601f82011682018060405250810190610e3e9190611bf0565b60405163095ea7b360e01b81527317313ce6e47d796e61fdeac34ab1f58e3e08908260048201526024810182905290915073ffffffff7d3875460d4509eb8d0362c611b4e8419063095ea7b3906044016020604051808303816000875af1158015610ead573d6000803e3d6000fd5b505050506040513d601f19601f82011682018060405250810190610ed19190611c09565b5060006040518060600160405280610ee63390565b6001600160a01b0316815260200160006001600160a01b0316815260200186868080601f0160208091040260200160405190810160405280939291908181526020018383808284376000920182905250939094525050604051630d94982d60e21b81529293506001600160a01b038916929091507317313ce6e47d796e61fdeac34ab1f58e3e0890829063365260b490610f8f9060d9908690899087908e908e90600401611c2b565b6040805180830381865afa158015610fab573d6000803e3d6000fd5b505050506040513d601f19601f82011682018060405250810190610fcf9190611c7c565b509050803410156110125760405162461bcd60e51b815260206004820152600d60248201526c746f6f20736d616c6c2066656560981b604482015260640161044c565b8034146110b65760006110258234611ca0565b604051909150600090339083908381818185875af1925050503d806000811461106a576040519150601f19603f3d011682016040523d82523d6000602084013e61106f565b606091505b50509050806110b35760405162461bcd60e51b815260206004820152601060248201526f19985a5b1959081d1bc81c99599d5b9960821b604482015260640161044c565b50505b60405163695ef6bf60e01b81527317313ce6e47d796e61fdeac34ab1f58e3e0890829063695ef6bf9083906107c890309060d99088908b908b90600401611d21565b6111006112f6565b6001600160a01b0381166111565760405162461bcd60e51b815260206004820152601860248201527f496e76616c6964206d616e746150616369666963536c70780000000000000000604482015260640161044c565b600180546001600160a01b0319166001600160a01b0392909216919091179055565b6001600160a01b0381811660009081526004602052604090205416156111e05760405162461bcd60e51b815260206004820152601d60248201527f616c726561647920736574206465726976617469766541646472657373000000604482015260640161044c565b6000604051806020016111f2906119db565b601f1982820381018352601f9091011660405290506001600160a01b038216600061121e8183856115e6565b6001600160a01b0385811660008181526004602052604080822080546001600160a01b031916948616948517905551939450919290917f57b0e11e6397ba91fdcf1893a12f81fa7f83af6687a4c7c51bb7ec5cc87b700991a350505050565b6112856112f6565b6001600160a01b0381166112ea5760405162461bcd60e51b815260206004820152602660248201527f4f776e61626c653a206e6577206f776e657220697320746865207a65726f206160448201526564647265737360d01b606482015260840161044c565b6112f381611350565b50565b6000546001600160a01b0316331461088e5760405162461bcd60e51b815260206004820181905260248201527f4f776e61626c653a2063616c6c6572206973206e6f7420746865206f776e6572604482015260640161044c565b600080546001600160a01b038381166001600160a01b0319831681178455604051919092169283917f8be0079c531659141344cd1fd0a4f28419497f9722a3daafe3b4186f6b6457e09190a35050565b6000836001600160801b0316116113f95760405162461bcd60e51b815260206004820152601d60248201527f616d6f756e74206d7573742062652067726561746572207468616e2030000000604482015260640161044c565b61140d8587856001600160801b03166116ee565b60408051600160f81b6020820152606084901b6bffffffffffffffffffffffff191660218201528151601581830301815260358201928390526309e4f00160e01b909252600091735D0Fe2b02d449e47715596cd256e59d501109519916309e4f00191611489918b91469143918c918c91908b90603901611dca565b600060405180830381865af41580156114a6573d6000803e3d6000fd5b505050506040513d6000823e601f3d908101601f191682016040526114ce9190810190611e76565b9050600080600073f1d4797e51a4640a76769a50b57abe7479add3d86001600160a01b031663bddef61a60006040518263ffffffff1660e01b81526004016115169190611f23565b606060405180830381865afa158015611533573d6000803e3d6000fd5b505050506040513d601f19601f820116820180604052508101906115579190611f4b565b9194509250905061080d63b648f3fe61156e611836565b73ffffffff7cc06abdf7201b350a1265c62c8601d2868887876040518763ffffffff1660e01b81526004016115a896959493929190612001565b600060405180830381600087803b1580156115c257600080fd5b505af11580156115d6573d6000803e3d6000fd5b5050505050505050505050505050565b6000834710156116385760405162461bcd60e51b815260206004820152601d60248201527f437265617465323a20696e73756666696369656e742062616c616e6365000000604482015260640161044c565b81516116865760405162461bcd60e51b815260206004820181905260248201527f437265617465323a2062797465636f6465206c656e677468206973207a65726f604482015260640161044c565b8282516020840186f590506001600160a01b0381166116e75760405162461bcd60e51b815260206004820152601960248201527f437265617465323a204661696c6564206f6e206465706c6f7900000000000000604482015260640161044c565b9392505050565b6001600160a01b03831661173b5760405162461bcd60e51b8152602060048201526014602482015273496e76616c69642061737365744164647265737360601b604482015260640161044c565b604051631932052960e11b81526001600160a01b0383166004820152600090732fD8bbF5dc8b342C09ABF34f211b3488e2d9d691906332640a5290602401602060405180830381865af4158015611796573d6000803e3d6000fd5b505050506040513d601f19601f820116820180604052508101906117ba9190611bf0565b905060006117c7826118dd565b60405163b9f813ff60e01b81529091506108049063b9f813ff906117fd9088908790869067ffffffffffffffff90600401612063565b600060405180830381600087803b15801561181757600080fd5b505af115801561182b573d6000803e3d6000fd5b505050505050505050565b604080518082018252600080825260606020830152825160018082528185019094529192909190816020015b606081526020019060019003908161186257905050604051600060208201526103f760e11b6021820152909150602501604051602081830303815290604052816000815181106118b4576118b46120a5565b602090810291909101810191909152604080518082019091526001815290810191909152919050565b60408051808201825260008082526060602083018190528351600280825291810190945291929091816020015b606081526020019060019003908161190a57905050604051600060208201526103f760e11b60218201529091506025016040516020818303038152906040528160008151811061195c5761195c6120a5565b60200260200101819052508260405160200161198f9190600160f81b815260018101919091526000602182015260220190565b604051602081830303815290604052816001815181106119b1576119b16120a5565b60209081029190910181019190915260408051808201909152600181529081019190915292915050565b6105a8806120bc83390190565b6001600160a01b03811681146112f357600080fd5b60008083601f840112611a0f57600080fd5b50813567ffffffffffffffff811115611a2757600080fd5b602083019150836020828501011115611a3f57600080fd5b9250929050565b600080600060408486031215611a5b57600080fd5b8335611a66816119e8565b9250602084013567ffffffffffffffff811115611a8257600080fd5b611a8e868287016119fd565b9497909650939450505050565b600060208284031215611aad57600080fd5b81356116e7816119e8565b67ffffffffffffffff811681146112f357600080fd5b60008060008060008060008060c0898b031215611aea57600080fd5b883561ffff81168114611afc57600080fd5b9750602089013567ffffffffffffffff80821115611b1957600080fd5b611b258c838d016119fd565b909950975060408b01359150611b3a82611ab8565b90955060608a0135945060808a0135935060a08a01359080821115611b5e57600080fd5b50611b6b8b828c016119fd565b999c989b5096995094979396929594505050565b600060208284031215611b9157600080fd5b5035919050565b60208082526015908201527436bab9ba1031329039b1b934b83a2a3934b3b3b2b960591b604082015260600190565b6020808252600f908201526e696e76616c6964206164647265737360881b604082015260600190565b600060208284031215611c0257600080fd5b5051919050565b600060208284031215611c1b57600080fd5b815180151581146116e757600080fd5b61ffff87168152856020820152846040820152831515606082015260a060808201528160a0820152818360c0830137600081830160c090810191909152601f909201601f1916010195945050505050565b60008060408385031215611c8f57600080fd5b505080516020909101519092909150565b600082821015611cc057634e487b7160e01b600052601160045260246000fd5b500390565b60005b83811015611ce0578181015183820152602001611cc8565b83811115611cef576000848401525b50505050565b60008151808452611d0d816020860160208601611cc5565b601f01601f19169290920160200192915050565b600060018060a01b03808816835261ffff8716602084015285604084015284606084015260a060808401528084511660a08401528060208501511660c0840152506040830151606060e0840152611d7c610100840182611cf5565b98975050505050505050565b60008060408385031215611d9b57600080fd5b8235611da6816119e8565b9150602083013563ffffffff81168114611dbf57600080fd5b809150509250929050565b6001600160a01b038816815260208101879052604081018690526001600160f01b0319851660608201526001600160801b038416608082015261010060a08201819052600090611e1c83820186611cf5565b905082810360c0840152600e81526d26b0b73a30a830b1b4b334b1ab1960911b60208201526040810191505063ffffffff831660e083015298975050505050505050565b634e487b7160e01b600052604160045260246000fd5b600060208284031215611e8857600080fd5b815167ffffffffffffffff80821115611ea057600080fd5b818401915084601f830112611eb457600080fd5b815181811115611ec657611ec6611e60565b604051601f8201601f19908116603f01168101908382118183101715611eee57611eee611e60565b81604052828152876020848701011115611f0757600080fd5b611f18836020830160208801611cc5565b979650505050505050565b6020810160048310611f4557634e487b7160e01b600052602160045260246000fd5b91905290565b600080600060608486031215611f6057600080fd5b8351611f6b81611ab8565b602085015160408601519194509250611f8381611ab8565b809150509250925092565b60006040830160ff835116845260208084015160408287015282815180855260608801915060608160051b8901019450838301925060005b81811015611ff457605f19898703018352611fe2868551611cf5565b95509284019291840191600101611fc6565b5093979650505050505050565b60c08152600061201460c0830189611f8e565b6001600160a01b038816602084015267ffffffffffffffff878116604085015283820360608501526120468288611cf5565b925085608085015280851660a08501525050979650505050505050565b60018060a01b038516815283602082015260806040820152600061208a6080830185611f8e565b905067ffffffffffffffff8316606083015295945050505050565b634e487b7160e01b600052603260045260246000fdfe608060405234801561001057600080fd5b506001600081905580546001600160a01b03191633179055610571806100376000396000f3fe608060405234801561001057600080fd5b50600436106100415760003560e01c806317e0f252146100465780638aea7fd01461005b578063f7260d3e14610081575b600080fd5b6100596100543660046104b7565b6100ac565b005b61006e6100693660046104d0565b610240565b6040519081526020015b60405180910390f35b600154610094906001600160a01b031681565b6040516001600160a01b039091168152602001610078565b6100b461045d565b6001546001600160a01b031633146100ff5760405162461bcd60e51b81526020600482015260096024820152683337b93134b23232b760b91b60448201526064015b60405180910390fd5b8061013d5760405162461bcd60e51b815260206004820152600e60248201526d62616c616e636520746f206c6f7760901b60448201526064016100f6565b6001546040516000916001600160a01b03169083908381818185875af1925050503d806000811461018a576040519150601f19603f3d011682016040523d82523d6000602084013e61018f565b606091505b50509050806101e05760405162461bcd60e51b815260206004820152601d60248201527f6661696c656420746f2077697468647261774e6174697665546f6b656e00000060448201526064016100f6565b600154604080513381526001600160a01b03909216602083015260008282015260608201849052517f3115d1449a7b732c986cba18244e897a450f61e1bb8d589cd2e69e6c8924f9f79181900360800190a15061023d6001600055565b50565b600061024a61045d565b6001546001600160a01b031633146102905760405162461bcd60e51b81526020600482015260096024820152683337b93134b23232b760b91b60448201526064016100f6565b6001600160a01b0382166102d65760405162461bcd60e51b815260206004820152600d60248201526c0696e76616c696420657263323609c1b60448201526064016100f6565b6040516370a0823160e01b81523060048201526000906001600160a01b038416906370a0823190602401602060405180830381865afa15801561031d573d6000803e3d6000fd5b505050506040513d601f19601f820116820180604052508101906103419190610500565b9050806103815760405162461bcd60e51b815260206004820152600e60248201526d62616c616e636520746f206c6f7760901b60448201526064016100f6565b60015460405163a9059cbb60e01b81526001600160a01b039182166004820152602481018390529084169063a9059cbb906044016020604051808303816000875af11580156103d4573d6000803e3d6000fd5b505050506040513d601f19601f820116820180604052508101906103f89190610519565b50600154604080513381526001600160a01b0392831660208201529185168282015260608201839052517f3115d1449a7b732c986cba18244e897a450f61e1bb8d589cd2e69e6c8924f9f79181900360800190a190506104586001600055565b919050565b600260005414156104b05760405162461bcd60e51b815260206004820152601f60248201527f5265656e7472616e637947756172643a207265656e7472616e742063616c6c0060448201526064016100f6565b6002600055565b6000602082840312156104c957600080fd5b5035919050565b6000602082840312156104e257600080fd5b81356001600160a01b03811681146104f957600080fd5b9392505050565b60006020828403121561051257600080fd5b5051919050565b60006020828403121561052b57600080fd5b815180151581146104f957600080fdfea26469706673582212208cdaeacfdd5c4018a525a04627735e0394975d213762f15d3134e53ec33ca9a164736f6c634300080a0033a2646970667358221220b7bcb807772d4af83d75b6cb351240918152db91939504b144944482c690acfa64736f6c634300080a0033",
  "deployedBytecode": "0x60806040526004361061012a5760003560e01c8063a7fd9c6b116100ab578063c24133971161006f578063c241339714610339578063c4af1c0b14610359578063f012945314610381578063f17e1d3d146103a9578063f29588c7146103d1578063f2fde38b146103f957600080fd5b8063a7fd9c6b1461028c578063a97d9f44146102c2578063ae83f844146102e6578063afd6aab714610306578063c0afb3f41461031957600080fd5b80635d76da01116100f25780635d76da01146101e9578063715018a6146102115780637fcf35da146102265780638da5cb5b14610246578063a6a6e9261461026457600080fd5b80630d1bf91f1461012f57806325a2236714610174578063357ba05f14610189578063525560ed146101a95780635d741b09146101c9575b600080fd5b34801561013b57600080fd5b5061015773debbb9309d95dabbfb82411a9c6daa3909b164a481565b6040516001600160a01b0390911681526020015b60405180910390f35b610187610182366004611a46565b610419565b005b34801561019557600080fd5b506101876101a4366004611a9b565b610804565b3480156101b557600080fd5b50600154610157906001600160a01b031681565b3480156101d557600080fd5b50600354610157906001600160a01b031681565b3480156101f557600080fd5b5061015773f1d4797e51a4640a76769a50b57abe7479add3d881565b34801561021d57600080fd5b5061018761087c565b34801561023257600080fd5b50610187610241366004611ace565b610890565b34801561025257600080fd5b506000546001600160a01b0316610157565b34801561027057600080fd5b5061015773ffffffffda2a05fb50e7ae99275f4341aed4337981565b34801561029857600080fd5b506101576102a7366004611a9b565b6004602052600090815260409020546001600160a01b031681565b3480156102ce57600080fd5b506102d860025481565b60405190815260200161016b565b3480156102f257600080fd5b50610187610301366004611b7f565b610cdf565b610187610314366004611a46565b610d52565b34801561032557600080fd5b50610187610334366004611a9b565b6110f8565b34801561034557600080fd5b50610187610354366004611a9b565b611178565b34801561036557600080fd5b5061036e60d981565b60405161ffff909116815260200161016b565b34801561038d57600080fd5b506101577317313ce6e47d796e61fdeac34ab1f58e3e08908281565b3480156103b557600080fd5b5061015773ffffffff7d3875460d4509eb8d0362c611b4e84181565b3480156103dd57600080fd5b5061015773ffffffff7cc06abdf7201b350a1265c62c8601d281565b34801561040557600080fd5b50610187610414366004611a9b565b61127d565b6003546001600160a01b0316336001600160a01b0316146104555760405162461bcd60e51b815260040161044c90611b98565b60405180910390fd5b6001600160a01b03808416600090815260046020526040902054168061048d5760405162461bcd60e51b815260040161044c90611bc7565b6040516308aea7fd60e41b815273ffffffffda2a05fb50e7ae99275f4341aed4337960048201526000906001600160a01b03831690638aea7fd0906024016020604051808303816000875af11580156104ea573d6000803e3d6000fd5b505050506040513d601f19601f8201168201806040525081019061050e9190611bf0565b60405163095ea7b360e01b815273debbb9309d95dabbfb82411a9c6daa3909b164a460048201526024810182905290915073ffffffffda2a05fb50e7ae99275f4341aed433799063095ea7b3906044016020604051808303816000875af115801561057d573d6000803e3d6000fd5b505050506040513d601f19601f820116820180604052508101906105a19190611c09565b50600060405180606001604052806105b63390565b6001600160a01b0316815260200160006001600160a01b0316815260200186868080601f0160208091040260200160405190810160405280939291908181526020018383808284376000920182905250939094525050604051630d94982d60e21b81529293506001600160a01b0389169290915073debbb9309d95dabbfb82411a9c6daa3909b164a49063365260b49061065f9060d9908690899087908e908e90600401611c2b565b6040805180830381865afa15801561067b573d6000803e3d6000fd5b505050506040513d601f19601f8201168201806040525081019061069f9190611c7c565b509050803410156106e25760405162461bcd60e51b815260206004820152600d60248201526c746f6f20736d616c6c2066656560981b604482015260640161044c565b8034146107865760006106f58234611ca0565b604051909150600090339083908381818185875af1925050503d806000811461073a576040519150601f19603f3d011682016040523d82523d6000602084013e61073f565b606091505b50509050806107835760405162461bcd60e51b815260206004820152601060248201526f19985a5b1959081d1bc81c99599d5b9960821b604482015260640161044c565b50505b60405163695ef6bf60e01b815273debbb9309d95dabbfb82411a9c6daa3909b164a49063695ef6bf9083906107c890309060d99088908b908b90600401611d21565b6000604051808303818588803b1580156107e157600080fd5b505af11580156107f5573d6000803e3d6000fd5b50505050505050505050505050565b61080c6112f6565b6001600160a01b0381166108325760405162461bcd60e51b815260040161044c90611bc7565b600380546001600160a01b0319166001600160a01b0383169081179091556040517fda100d63215e418eb5fdfcdb0b592f13bc6aea387392797c16c70caf4ea8772190600090a250565b6108846112f6565b61088e6000611350565b565b61ffff881660d9146108f05760405162461bcd60e51b815260206004820152602360248201527f6f6e6c792072656365697665206d73672066726f6d206d616e7461207061636960448201526266696360e81b606482015260840161044c565b337317313ce6e47d796e61fdeac34ab1f58e3e089082148061092557503373debbb9309d95dabbfb82411a9c6daa3909b164a4145b6109715760405162461bcd60e51b815260206004820152601860248201527f6f6e6c79206e6174697665206f66742063616e2063616c6c0000000000000000604482015260640161044c565b6001546001600160a01b038581169116146109dd5760405162461bcd60e51b815260206004820152602660248201527f6f6e6c792072656365697665206d73672066726f6d206d616e746150616369666044820152650d2c6a6d8e0f60d31b606482015260840161044c565b6000806109ec83850185611d88565b6001600160a01b0380831660009081526004602052604090205492945090925016610a1a57610a1a82611178565b6000337317313ce6e47d796e61fdeac34ab1f58e3e0890821415610b245760035460025460405163a9059cbb60e01b81526001600160a01b039092166004830152602482015260009073ffffffff7d3875460d4509eb8d0362c611b4e8419063a9059cbb906044016020604051808303816000875af1158015610aa1573d6000803e3d6000fd5b505050506040513d601f19601f82011682018060405250810190610ac59190611c09565b905080610b075760405162461bcd60e51b815260206004820152601060248201526f6661696c656420746f2063686172676560801b604482015260640161044c565b73ffffffff7d3875460d4509eb8d0362c611b4e841915050610c69565b3373debbb9309d95dabbfb82411a9c6daa3909b164a41415610c2c5760035460025460405163a9059cbb60e01b81526001600160a01b039092166004830152602482015260009073ffffffffda2a05fb50e7ae99275f4341aed433799063a9059cbb906044016020604051808303816000875af1158015610ba9573d6000803e3d6000fd5b505050506040513d601f19601f82011682018060405250810190610bcd9190611c09565b905080610c0f5760405162461bcd60e51b815260206004820152601060248201526f6661696c656420746f2063686172676560801b604482015260640161044c565b73ffffffffda2a05fb50e7ae99275f4341aed43379915050610c69565b60405162461bcd60e51b815260206004820152601260248201527134b73b30b634b21036b9b39739b2b73232b960711b604482015260640161044c565b610cd283826001600160a01b03811673ffffffff7d3875460d4509eb8d0362c611b4e84114610c9d5761012160f31b610ca4565b61010160f31b5b600254610cb1908b611ca0565b6001600160a01b0380891660009081526004602052604090205416876113a0565b5050505050505050505050565b6003546001600160a01b0316336001600160a01b031614610d125760405162461bcd60e51b815260040161044c90611b98565b600281905560035460405182916001600160a01b0316907f405485c96e1fef0d0e7aa1b6bc6f839d6e825f49f9e5607dc07fcd69e098970690600090a350565b6003546001600160a01b0316336001600160a01b031614610d855760405162461bcd60e51b815260040161044c90611b98565b6001600160a01b038084166000908152600460205260409020541680610dbd5760405162461bcd60e51b815260040161044c90611bc7565b6040516308aea7fd60e41b815273ffffffff7d3875460d4509eb8d0362c611b4e84160048201526000906001600160a01b03831690638aea7fd0906024016020604051808303816000875af1158015610e1a573d6000803e3d6000fd5b505050506040513d601f19601f82011682018060405250810190610e3e9190611bf0565b60405163095ea7b360e01b81527317313ce6e47d796e61fdeac34ab1f58e3e08908260048201526024810182905290915073ffffffff7d3875460d4509eb8d0362c611b4e8419063095ea7b3906044016020604051808303816000875af1158015610ead573d6000803e3d6000fd5b505050506040513d601f19601f82011682018060405250810190610ed19190611c09565b5060006040518060600160405280610ee63390565b6001600160a01b0316815260200160006001600160a01b0316815260200186868080601f0160208091040260200160405190810160405280939291908181526020018383808284376000920182905250939094525050604051630d94982d60e21b81529293506001600160a01b038916929091507317313ce6e47d796e61fdeac34ab1f58e3e0890829063365260b490610f8f9060d9908690899087908e908e90600401611c2b565b6040805180830381865afa158015610fab573d6000803e3d6000fd5b505050506040513d601f19601f82011682018060405250810190610fcf9190611c7c565b509050803410156110125760405162461bcd60e51b815260206004820152600d60248201526c746f6f20736d616c6c2066656560981b604482015260640161044c565b8034146110b65760006110258234611ca0565b604051909150600090339083908381818185875af1925050503d806000811461106a576040519150601f19603f3d011682016040523d82523d6000602084013e61106f565b606091505b50509050806110b35760405162461bcd60e51b815260206004820152601060248201526f19985a5b1959081d1bc81c99599d5b9960821b604482015260640161044c565b50505b60405163695ef6bf60e01b81527317313ce6e47d796e61fdeac34ab1f58e3e0890829063695ef6bf9083906107c890309060d99088908b908b90600401611d21565b6111006112f6565b6001600160a01b0381166111565760405162461bcd60e51b815260206004820152601860248201527f496e76616c6964206d616e746150616369666963536c70780000000000000000604482015260640161044c565b600180546001600160a01b0319166001600160a01b0392909216919091179055565b6001600160a01b0381811660009081526004602052604090205416156111e05760405162461bcd60e51b815260206004820152601d60248201527f616c726561647920736574206465726976617469766541646472657373000000604482015260640161044c565b6000604051806020016111f2906119db565b601f1982820381018352601f9091011660405290506001600160a01b038216600061121e8183856115e6565b6001600160a01b0385811660008181526004602052604080822080546001600160a01b031916948616948517905551939450919290917f57b0e11e6397ba91fdcf1893a12f81fa7f83af6687a4c7c51bb7ec5cc87b700991a350505050565b6112856112f6565b6001600160a01b0381166112ea5760405162461bcd60e51b815260206004820152602660248201527f4f776e61626c653a206e6577206f776e657220697320746865207a65726f206160448201526564647265737360d01b606482015260840161044c565b6112f381611350565b50565b6000546001600160a01b0316331461088e5760405162461bcd60e51b815260206004820181905260248201527f4f776e61626c653a2063616c6c6572206973206e6f7420746865206f776e6572604482015260640161044c565b600080546001600160a01b038381166001600160a01b0319831681178455604051919092169283917f8be0079c531659141344cd1fd0a4f28419497f9722a3daafe3b4186f6b6457e09190a35050565b6000836001600160801b0316116113f95760405162461bcd60e51b815260206004820152601d60248201527f616d6f756e74206d7573742062652067726561746572207468616e2030000000604482015260640161044c565b61140d8587856001600160801b03166116ee565b60408051600160f81b6020820152606084901b6bffffffffffffffffffffffff191660218201528151601581830301815260358201928390526309e4f00160e01b90925260009173__$e184f4046250cd750dfdb139628ab13bdc$__916309e4f00191611489918b91469143918c918c91908b90603901611dca565b600060405180830381865af41580156114a6573d6000803e3d6000fd5b505050506040513d6000823e601f3d908101601f191682016040526114ce9190810190611e76565b9050600080600073f1d4797e51a4640a76769a50b57abe7479add3d86001600160a01b031663bddef61a60006040518263ffffffff1660e01b81526004016115169190611f23565b606060405180830381865afa158015611533573d6000803e3d6000fd5b505050506040513d601f19601f820116820180604052508101906115579190611f4b565b9194509250905061080d63b648f3fe61156e611836565b73ffffffff7cc06abdf7201b350a1265c62c8601d2868887876040518763ffffffff1660e01b81526004016115a896959493929190612001565b600060405180830381600087803b1580156115c257600080fd5b505af11580156115d6573d6000803e3d6000fd5b5050505050505050505050505050565b6000834710156116385760405162461bcd60e51b815260206004820152601d60248201527f437265617465323a20696e73756666696369656e742062616c616e6365000000604482015260640161044c565b81516116865760405162461bcd60e51b815260206004820181905260248201527f437265617465323a2062797465636f6465206c656e677468206973207a65726f604482015260640161044c565b8282516020840186f590506001600160a01b0381166116e75760405162461bcd60e51b815260206004820152601960248201527f437265617465323a204661696c6564206f6e206465706c6f7900000000000000604482015260640161044c565b9392505050565b6001600160a01b03831661173b5760405162461bcd60e51b8152602060048201526014602482015273496e76616c69642061737365744164647265737360601b604482015260640161044c565b604051631932052960e11b81526001600160a01b038316600482015260009073__$ddfb0e6c1c4d05795fcce73a90830b0995$__906332640a5290602401602060405180830381865af4158015611796573d6000803e3d6000fd5b505050506040513d601f19601f820116820180604052508101906117ba9190611bf0565b905060006117c7826118dd565b60405163b9f813ff60e01b81529091506108049063b9f813ff906117fd9088908790869067ffffffffffffffff90600401612063565b600060405180830381600087803b15801561181757600080fd5b505af115801561182b573d6000803e3d6000fd5b505050505050505050565b604080518082018252600080825260606020830152825160018082528185019094529192909190816020015b606081526020019060019003908161186257905050604051600060208201526103f760e11b6021820152909150602501604051602081830303815290604052816000815181106118b4576118b46120a5565b602090810291909101810191909152604080518082019091526001815290810191909152919050565b60408051808201825260008082526060602083018190528351600280825291810190945291929091816020015b606081526020019060019003908161190a57905050604051600060208201526103f760e11b60218201529091506025016040516020818303038152906040528160008151811061195c5761195c6120a5565b60200260200101819052508260405160200161198f9190600160f81b815260018101919091526000602182015260220190565b604051602081830303815290604052816001815181106119b1576119b16120a5565b60209081029190910181019190915260408051808201909152600181529081019190915292915050565b6105a8806120bc83390190565b6001600160a01b03811681146112f357600080fd5b60008083601f840112611a0f57600080fd5b50813567ffffffffffffffff811115611a2757600080fd5b602083019150836020828501011115611a3f57600080fd5b9250929050565b600080600060408486031215611a5b57600080fd5b8335611a66816119e8565b9250602084013567ffffffffffffffff811115611a8257600080fd5b611a8e868287016119fd565b9497909650939450505050565b600060208284031215611aad57600080fd5b81356116e7816119e8565b67ffffffffffffffff811681146112f357600080fd5b60008060008060008060008060c0898b031215611aea57600080fd5b883561ffff81168114611afc57600080fd5b9750602089013567ffffffffffffffff80821115611b1957600080fd5b611b258c838d016119fd565b909950975060408b01359150611b3a82611ab8565b90955060608a0135945060808a0135935060a08a01359080821115611b5e57600080fd5b50611b6b8b828c016119fd565b999c989b5096995094979396929594505050565b600060208284031215611b9157600080fd5b5035919050565b60208082526015908201527436bab9ba1031329039b1b934b83a2a3934b3b3b2b960591b604082015260600190565b6020808252600f908201526e696e76616c6964206164647265737360881b604082015260600190565b600060208284031215611c0257600080fd5b5051919050565b600060208284031215611c1b57600080fd5b815180151581146116e757600080fd5b61ffff87168152856020820152846040820152831515606082015260a060808201528160a0820152818360c0830137600081830160c090810191909152601f909201601f1916010195945050505050565b60008060408385031215611c8f57600080fd5b505080516020909101519092909150565b600082821015611cc057634e487b7160e01b600052601160045260246000fd5b500390565b60005b83811015611ce0578181015183820152602001611cc8565b83811115611cef576000848401525b50505050565b60008151808452611d0d816020860160208601611cc5565b601f01601f19169290920160200192915050565b600060018060a01b03808816835261ffff8716602084015285604084015284606084015260a060808401528084511660a08401528060208501511660c0840152506040830151606060e0840152611d7c610100840182611cf5565b98975050505050505050565b60008060408385031215611d9b57600080fd5b8235611da6816119e8565b9150602083013563ffffffff81168114611dbf57600080fd5b809150509250929050565b6001600160a01b038816815260208101879052604081018690526001600160f01b0319851660608201526001600160801b038416608082015261010060a08201819052600090611e1c83820186611cf5565b905082810360c0840152600e81526d26b0b73a30a830b1b4b334b1ab1960911b60208201526040810191505063ffffffff831660e083015298975050505050505050565b634e487b7160e01b600052604160045260246000fd5b600060208284031215611e8857600080fd5b815167ffffffffffffffff80821115611ea057600080fd5b818401915084601f830112611eb457600080fd5b815181811115611ec657611ec6611e60565b604051601f8201601f19908116603f01168101908382118183101715611eee57611eee611e60565b81604052828152876020848701011115611f0757600080fd5b611f18836020830160208801611cc5565b979650505050505050565b6020810160048310611f4557634e487b7160e01b600052602160045260246000fd5b91905290565b600080600060608486031215611f6057600080fd5b8351611f6b81611ab8565b602085015160408601519194509250611f8381611ab8565b809150509250925092565b60006040830160ff835116845260208084015160408287015282815180855260608801915060608160051b8901019450838301925060005b81811015611ff457605f19898703018352611fe2868551611cf5565b95509284019291840191600101611fc6565b5093979650505050505050565b60c08152600061201460c0830189611f8e565b6001600160a01b038816602084015267ffffffffffffffff878116604085015283820360608501526120468288611cf5565b925085608085015280851660a08501525050979650505050505050565b60018060a01b038516815283602082015260806040820152600061208a6080830185611f8e565b905067ffffffffffffffff8316606083015295945050505050565b634e487b7160e01b600052603260045260246000fdfe608060405234801561001057600080fd5b506001600081905580546001600160a01b03191633179055610571806100376000396000f3fe608060405234801561001057600080fd5b50600436106100415760003560e01c806317e0f252146100465780638aea7fd01461005b578063f7260d3e14610081575b600080fd5b6100596100543660046104b7565b6100ac565b005b61006e6100693660046104d0565b610240565b6040519081526020015b60405180910390f35b600154610094906001600160a01b031681565b6040516001600160a01b039091168152602001610078565b6100b461045d565b6001546001600160a01b031633146100ff5760405162461bcd60e51b81526020600482015260096024820152683337b93134b23232b760b91b60448201526064015b60405180910390fd5b8061013d5760405162461bcd60e51b815260206004820152600e60248201526d62616c616e636520746f206c6f7760901b60448201526064016100f6565b6001546040516000916001600160a01b03169083908381818185875af1925050503d806000811461018a576040519150601f19603f3d011682016040523d82523d6000602084013e61018f565b606091505b50509050806101e05760405162461bcd60e51b815260206004820152601d60248201527f6661696c656420746f2077697468647261774e6174697665546f6b656e00000060448201526064016100f6565b600154604080513381526001600160a01b03909216602083015260008282015260608201849052517f3115d1449a7b732c986cba18244e897a450f61e1bb8d589cd2e69e6c8924f9f79181900360800190a15061023d6001600055565b50565b600061024a61045d565b6001546001600160a01b031633146102905760405162461bcd60e51b81526020600482015260096024820152683337b93134b23232b760b91b60448201526064016100f6565b6001600160a01b0382166102d65760405162461bcd60e51b815260206004820152600d60248201526c0696e76616c696420657263323609c1b60448201526064016100f6565b6040516370a0823160e01b81523060048201526000906001600160a01b038416906370a0823190602401602060405180830381865afa15801561031d573d6000803e3d6000fd5b505050506040513d601f19601f820116820180604052508101906103419190610500565b9050806103815760405162461bcd60e51b815260206004820152600e60248201526d62616c616e636520746f206c6f7760901b60448201526064016100f6565b60015460405163a9059cbb60e01b81526001600160a01b039182166004820152602481018390529084169063a9059cbb906044016020604051808303816000875af11580156103d4573d6000803e3d6000fd5b505050506040513d601f19601f820116820180604052508101906103f89190610519565b50600154604080513381526001600160a01b0392831660208201529185168282015260608201839052517f3115d1449a7b732c986cba18244e897a450f61e1bb8d589cd2e69e6c8924f9f79181900360800190a190506104586001600055565b919050565b600260005414156104b05760405162461bcd60e51b815260206004820152601f60248201527f5265656e7472616e637947756172643a207265656e7472616e742063616c6c0060448201526064016100f6565b6002600055565b6000602082840312156104c957600080fd5b5035919050565b6000602082840312156104e257600080fd5b81356001600160a01b03811681146104f957600080fd5b9392505050565b60006020828403121561051257600080fd5b5051919050565b60006020828403121561052b57600080fd5b815180151581146104f957600080fdfea26469706673582212208cdaeacfdd5c4018a525a04627735e0394975d213762f15d3134e53ec33ca9a164736f6c634300080a0033a2646970667358221220b7bcb807772d4af83d75b6cb351240918152db91939504b144944482c690acfa64736f6c634300080a0033",
  "libraries": {
    "AddressToAccount": "0x2fD8bbF5dc8b342C09ABF34f211b3488e2d9d691",
    "BuildCallData": "0x5D0Fe2b02d449e47715596cd256e59d501109519"
  },
  "devdoc": {
    "kind": "dev",
    "methods": {
      "owner()": {
        "details": "Returns the address of the current owner."
      },
      "renounceOwnership()": {
        "details": "Leaves the contract without owner. It will not be possible to call `onlyOwner` functions. Can only be called by the current owner. NOTE: Renouncing ownership will leave the contract without an owner, thereby disabling any functionality that is only available to the owner."
      },
      "transferOwnership(address)": {
        "details": "Transfers ownership of the contract to a new account (`newOwner`). Can only be called by the current owner."
      }
    },
    "version": 1
  },
  "userdoc": {
    "kind": "user",
    "methods": {},
    "version": 1
  },
  "storageLayout": {
    "storage": [
      {
        "astId": 818,
        "contract": "contracts/MoonbeamReceiver.sol:MoonbeamReceiver",
        "label": "_owner",
        "offset": 0,
        "slot": "0",
        "type": "t_address"
      },
      {
        "astId": 1386,
        "contract": "contracts/MoonbeamReceiver.sol:MoonbeamReceiver",
        "label": "mantaPacificSlpx",
        "offset": 0,
        "slot": "1",
        "type": "t_address"
      },
      {
        "astId": 1388,
        "contract": "contracts/MoonbeamReceiver.sol:MoonbeamReceiver",
        "label": "layerZeroFee",
        "offset": 0,
        "slot": "2",
        "type": "t_uint256"
      },
      {
        "astId": 1390,
        "contract": "contracts/MoonbeamReceiver.sol:MoonbeamReceiver",
        "label": "scriptTrigger",
        "offset": 0,
        "slot": "3",
        "type": "t_address"
      },
      {
        "astId": 1394,
        "contract": "contracts/MoonbeamReceiver.sol:MoonbeamReceiver",
        "label": "callerToDerivativeAddress",
        "offset": 0,
        "slot": "4",
        "type": "t_mapping(t_address,t_address)"
      }
    ],
    "types": {
      "t_address": {
        "encoding": "inplace",
        "label": "address",
        "numberOfBytes": "20"
      },
      "t_mapping(t_address,t_address)": {
        "encoding": "mapping",
        "key": "t_address",
        "label": "mapping(address => address)",
        "numberOfBytes": "32",
        "value": "t_address"
      },
      "t_uint256": {
        "encoding": "inplace",
        "label": "uint256",
        "numberOfBytes": "32"
      }
    }
  }
}