{
  "address": "0x2952fD1b6dD54930B99eF3070e6b700f18f44066",
  "abi": [
    {
      "anonymous": false,
      "inputs": [
        {
          "indexed": true,
          "internalType": "address",
          "name": "previousOwner",
          "type": "address"
        },
        {
          "indexed": true,
          "internalType": "address",
          "name": "newOwner",
          "type": "address"
        }
      ],
      "name": "OwnershipTransferred",
      "type": "event"
    },
    {
      "anonymous": false,
      "inputs": [
        {
          "indexed": true,
          "internalType": "address",
          "name": "caller",
          "type": "address"
        },
        {
          "indexed": true,
          "internalType": "address",
          "name": "derivativeAddress",
          "type": "address"
        }
      ],
      "name": "SetDerivativeAddress",
      "type": "event"
    },
    {
      "anonymous": false,
      "inputs": [
        {
          "indexed": true,
          "internalType": "address",
          "name": "scriptTrigger",
          "type": "address"
        },
        {
          "indexed": true,
          "internalType": "uint256",
          "name": "layerZeroFee",
          "type": "uint256"
        }
      ],
      "name": "SetLayerZeroFee",
      "type": "event"
    },
    {
      "anonymous": false,
      "inputs": [
        {
          "indexed": true,
          "internalType": "address",
          "name": "scriptTrigger",
          "type": "address"
        }
      ],
      "name": "SetScriptTrigger",
      "type": "event"
    },
    {
      "inputs": [],
      "name": "MANTA",
      "outputs": [
        {
          "internalType": "address",
          "name": "",
          "type": "address"
        }
      ],
      "stateMutability": "view",
      "type": "function"
    },
    {
      "inputs": [],
      "name": "VMANTA",
      "outputs": [
        {
          "internalType": "address",
          "name": "",
          "type": "address"
        }
      ],
      "stateMutability": "view",
      "type": "function"
    },
    {
      "inputs": [
        {
          "internalType": "address",
          "name": "",
          "type": "address"
        }
      ],
      "name": "callerToDerivativeAddress",
      "outputs": [
        {
          "internalType": "address",
          "name": "",
          "type": "address"
        }
      ],
      "stateMutability": "view",
      "type": "function"
    },
    {
      "inputs": [
        {
          "internalType": "address",
          "name": "addr",
          "type": "address"
        },
        {
          "internalType": "bytes",
          "name": "_adapterParams",
          "type": "bytes"
        }
      ],
      "name": "claimManta",
      "outputs": [],
      "stateMutability": "payable",
      "type": "function"
    },
    {
      "inputs": [
        {
          "internalType": "address",
          "name": "addr",
          "type": "address"
        },
        {
          "internalType": "bytes",
          "name": "_adapterParams",
          "type": "bytes"
        }
      ],
      "name": "claimVManta",
      "outputs": [],
      "stateMutability": "payable",
      "type": "function"
    },
    {
      "inputs": [],
      "name": "destChainId",
      "outputs": [
        {
          "internalType": "uint16",
          "name": "",
          "type": "uint16"
        }
      ],
      "stateMutability": "view",
      "type": "function"
    },
    {
      "inputs": [],
      "name": "layerZeroFee",
      "outputs": [
        {
          "internalType": "uint256",
          "name": "",
          "type": "uint256"
        }
      ],
      "stateMutability": "view",
      "type": "function"
    },
    {
      "inputs": [],
      "name": "mantaOFT",
      "outputs": [
        {
          "internalType": "address",
          "name": "",
          "type": "address"
        }
      ],
      "stateMutability": "view",
      "type": "function"
    },
    {
      "inputs": [],
      "name": "mantaPacificSlpx",
      "outputs": [
        {
          "internalType": "address",
          "name": "",
          "type": "address"
        }
      ],
      "stateMutability": "view",
      "type": "function"
    },
    {
      "inputs": [
        {
          "internalType": "uint16",
          "name": "srcChainId",
          "type": "uint16"
        },
        {
          "internalType": "bytes",
          "name": "",
          "type": "bytes"
        },
        {
          "internalType": "uint64",
          "name": "",
          "type": "uint64"
        },
        {
          "internalType": "bytes32",
          "name": "from",
          "type": "bytes32"
        },
        {
          "internalType": "uint256",
          "name": "amount",
          "type": "uint256"
        },
        {
          "internalType": "bytes",
          "name": "payload",
          "type": "bytes"
        }
      ],
      "name": "onOFTReceived",
      "outputs": [],
      "stateMutability": "nonpayable",
      "type": "function"
    },
    {
      "inputs": [],
      "name": "owner",
      "outputs": [
        {
          "internalType": "address",
          "name": "",
          "type": "address"
        }
      ],
      "stateMutability": "view",
      "type": "function"
    },
    {
      "inputs": [],
      "name": "renounceOwnership",
      "outputs": [],
      "stateMutability": "nonpayable",
      "type": "function"
    },
    {
      "inputs": [],
      "name": "scriptTrigger",
      "outputs": [
        {
          "internalType": "address",
          "name": "",
          "type": "address"
        }
      ],
      "stateMutability": "view",
      "type": "function"
    },
    {
      "inputs": [
        {
          "internalType": "address",
          "name": "addr",
          "type": "address"
        }
      ],
      "name": "setDerivativeAddress",
      "outputs": [],
      "stateMutability": "nonpayable",
      "type": "function"
    },
    {
      "inputs": [
        {
          "internalType": "uint256",
          "name": "_layerZeroFee",
          "type": "uint256"
        }
      ],
      "name": "setLayerZeroFee",
      "outputs": [],
      "stateMutability": "nonpayable",
      "type": "function"
    },
    {
      "inputs": [
        {
          "internalType": "address",
          "name": "_mantaPacificSlpx",
          "type": "address"
        }
      ],
      "name": "setRemoteContract",
      "outputs": [],
      "stateMutability": "nonpayable",
      "type": "function"
    },
    {
      "inputs": [
        {
          "internalType": "address",
          "name": "_scriptTrigger",
          "type": "address"
        }
      ],
      "name": "setScriptTrigger",
      "outputs": [],
      "stateMutability": "nonpayable",
      "type": "function"
    },
    {
      "inputs": [],
      "name": "slpx",
      "outputs": [
        {
          "internalType": "address",
          "name": "",
          "type": "address"
        }
      ],
      "stateMutability": "view",
      "type": "function"
    },
    {
      "inputs": [
        {
          "internalType": "address",
          "name": "newOwner",
          "type": "address"
        }
      ],
      "name": "transferOwnership",
      "outputs": [],
      "stateMutability": "nonpayable",
      "type": "function"
    },
    {
      "inputs": [],
      "name": "vMantaProxyOFT",
      "outputs": [
        {
          "internalType": "address",
          "name": "",
          "type": "address"
        }
      ],
      "stateMutability": "view",
      "type": "function"
    }
  ],
  "transactionHash": "0x16580102309013a642298ffc6faf5071571e288485b4dd89b7719265327b5667",
  "args": [],
  "numDeployments": 9,
  "solcInputHash": "7455f89a748ed6c3958fab66639c6845",
  "bytecode": "0x608060405234801561001057600080fd5b5061001a3361001f565b61006f565b600080546001600160a01b038381166001600160a01b0319831681178455604051919092169283917f8be0079c531659141344cd1fd0a4f28419497f9722a3daafe3b4186f6b6457e09190a35050565b611fb88061007e6000396000f3fe60806040526004361061011f5760003560e01c8063a7fd9c6b116100a0578063c241339711610064578063c24133971461032e578063c4af1c0b1461034e578063f012945314610376578063f17e1d3d1461039e578063f2fde38b146103c657600080fd5b8063a7fd9c6b14610281578063a97d9f44146102b7578063ae83f844146102db578063afd6aab7146102fb578063c0afb3f41461030e57600080fd5b80635d76da01116100e75780635d76da01146101de578063715018a6146102065780637fcf35da1461021b5780638da5cb5b1461023b578063a6a6e9261461025957600080fd5b80630d1bf91f1461012457806325a2236714610169578063357ba05f1461017e578063525560ed1461019e5780635d741b09146101be575b600080fd5b34801561013057600080fd5b5061014c73debbb9309d95dabbfb82411a9c6daa3909b164a481565b6040516001600160a01b0390911681526020015b60405180910390f35b61017c6101773660046115ea565b6103e6565b005b34801561018a57600080fd5b5061017c61019936600461163f565b6107d1565b3480156101aa57600080fd5b5060015461014c906001600160a01b031681565b3480156101ca57600080fd5b5060035461014c906001600160a01b031681565b3480156101ea57600080fd5b5061014c73f1d4797e51a4640a76769a50b57abe7479add3d881565b34801561021257600080fd5b5061017c610849565b34801561022757600080fd5b5061017c61023636600461165c565b61085d565b34801561024757600080fd5b506000546001600160a01b031661014c565b34801561026557600080fd5b5061014c73ffffffffda2a05fb50e7ae99275f4341aed4337981565b34801561028d57600080fd5b5061014c61029c36600461163f565b6004602052600090815260409020546001600160a01b031681565b3480156102c357600080fd5b506102cd60025481565b604051908152602001610160565b3480156102e757600080fd5b5061017c6102f6366004611712565b610db6565b61017c6103093660046115ea565b610e29565b34801561031a57600080fd5b5061017c61032936600461163f565b6111cf565b34801561033a57600080fd5b5061017c61034936600461163f565b61124f565b34801561035a57600080fd5b5061036360d981565b60405161ffff9091168152602001610160565b34801561038257600080fd5b5061014c7317313ce6e47d796e61fdeac34ab1f58e3e08908281565b3480156103aa57600080fd5b5061014c73ffffffff7d3875460d4509eb8d0362c611b4e84181565b3480156103d257600080fd5b5061017c6103e136600461163f565b611354565b6003546001600160a01b0316336001600160a01b0316146104225760405162461bcd60e51b81526004016104199061172b565b60405180910390fd5b6001600160a01b03808416600090815260046020526040902054168061045a5760405162461bcd60e51b81526004016104199061175a565b6040516308aea7fd60e41b815273ffffffffda2a05fb50e7ae99275f4341aed4337960048201526000906001600160a01b03831690638aea7fd0906024016020604051808303816000875af11580156104b7573d6000803e3d6000fd5b505050506040513d601f19601f820116820180604052508101906104db9190611783565b60405163095ea7b360e01b815273debbb9309d95dabbfb82411a9c6daa3909b164a460048201526024810182905290915073ffffffffda2a05fb50e7ae99275f4341aed433799063095ea7b3906044016020604051808303816000875af115801561054a573d6000803e3d6000fd5b505050506040513d601f19601f8201168201806040525081019061056e919061179c565b50600060405180606001604052806105833390565b6001600160a01b0316815260200160006001600160a01b0316815260200186868080601f0160208091040260200160405190810160405280939291908181526020018383808284376000920182905250939094525050604051630d94982d60e21b81529293506001600160a01b0389169290915073debbb9309d95dabbfb82411a9c6daa3909b164a49063365260b49061062c9060d9908690899087908e908e906004016117be565b6040805180830381865afa158015610648573d6000803e3d6000fd5b505050506040513d601f19601f8201168201806040525081019061066c919061180f565b509050803410156106af5760405162461bcd60e51b815260206004820152600d60248201526c746f6f20736d616c6c2066656560981b6044820152606401610419565b8034146107535760006106c28234611833565b604051909150600090339083908381818185875af1925050503d8060008114610707576040519150601f19603f3d011682016040523d82523d6000602084013e61070c565b606091505b50509050806107505760405162461bcd60e51b815260206004820152601060248201526f19985a5b1959081d1bc81c99599d5b9960821b6044820152606401610419565b50505b60405163695ef6bf60e01b815273debbb9309d95dabbfb82411a9c6daa3909b164a49063695ef6bf90839061079590309060d99088908b908b906004016118a5565b6000604051808303818588803b1580156107ae57600080fd5b505af11580156107c2573d6000803e3d6000fd5b50505050505050505050505050565b6107d96113cd565b6001600160a01b0381166107ff5760405162461bcd60e51b81526004016104199061175a565b600380546001600160a01b0319166001600160a01b0383169081179091556040517fda100d63215e418eb5fdfcdb0b592f13bc6aea387392797c16c70caf4ea8772190600090a250565b6108516113cd565b61085b6000611427565b565b61ffff881660d9146108bd5760405162461bcd60e51b815260206004820152602360248201527f6f6e6c792072656365697665206d73672066726f6d206d616e7461207061636960448201526266696360e81b6064820152608401610419565b337317313ce6e47d796e61fdeac34ab1f58e3e08908214806108f257503373debbb9309d95dabbfb82411a9c6daa3909b164a4145b61093e5760405162461bcd60e51b815260206004820152601860248201527f6f6e6c79206e6174697665206f66742063616e2063616c6c00000000000000006044820152606401610419565b6001546001600160a01b038581169116146109aa5760405162461bcd60e51b815260206004820152602660248201527f6f6e6c792072656365697665206d73672066726f6d206d616e746150616369666044820152650d2c6a6d8e0f60d31b6064820152608401610419565b6000806109b98385018561190c565b6001600160a01b03808316600090815260046020526040902054929450909250166109e7576109e78261124f565b6000337317313ce6e47d796e61fdeac34ab1f58e3e0890821415610af15760035460025460405163a9059cbb60e01b81526001600160a01b039092166004830152602482015260009073ffffffff7d3875460d4509eb8d0362c611b4e8419063a9059cbb906044016020604051808303816000875af1158015610a6e573d6000803e3d6000fd5b505050506040513d601f19601f82011682018060405250810190610a92919061179c565b905080610ad45760405162461bcd60e51b815260206004820152601060248201526f6661696c656420746f2063686172676560801b6044820152606401610419565b73ffffffff7d3875460d4509eb8d0362c611b4e841915050610c36565b3373debbb9309d95dabbfb82411a9c6daa3909b164a41415610bf95760035460025460405163a9059cbb60e01b81526001600160a01b039092166004830152602482015260009073ffffffffda2a05fb50e7ae99275f4341aed433799063a9059cbb906044016020604051808303816000875af1158015610b76573d6000803e3d6000fd5b505050506040513d601f19601f82011682018060405250810190610b9a919061179c565b905080610bdc5760405162461bcd60e51b815260206004820152601060248201526f6661696c656420746f2063686172676560801b6044820152606401610419565b73ffffffffda2a05fb50e7ae99275f4341aed43379915050610c36565b60405162461bcd60e51b815260206004820152601260248201527134b73b30b634b21036b9b39739b2b73232b960711b6044820152606401610419565b806001600160a01b031663095ea7b373f1d4797e51a4640a76769a50b57abe7479add3d860025489610c689190611833565b6040516001600160e01b031960e085901b1681526001600160a01b03909216600483015260248201526044016020604051808303816000875af1158015610cb3573d6000803e3d6000fd5b505050506040513d601f19601f82011682018060405250810190610cd7919061179c565b5073f1d4797e51a4640a76769a50b57abe7479add3d86001600160a01b03166362aba6eb8260025489610d0a9190611833565b6001600160a01b03871660009081526004602090815260409182902054915160609290921b6bffffffffffffffffffffffff1916908201524690603401604051602081830303815290604052876040518663ffffffff1660e01b8152600401610d7795949392919061194e565b600060405180830381600087803b158015610d9157600080fd5b505af1158015610da5573d6000803e3d6000fd5b505050505050505050505050505050565b6003546001600160a01b0316336001600160a01b031614610de95760405162461bcd60e51b81526004016104199061172b565b600281905560035460405182916001600160a01b0316907f405485c96e1fef0d0e7aa1b6bc6f839d6e825f49f9e5607dc07fcd69e098970690600090a350565b6003546001600160a01b0316336001600160a01b031614610e5c5760405162461bcd60e51b81526004016104199061172b565b6001600160a01b038084166000908152600460205260409020541680610e945760405162461bcd60e51b81526004016104199061175a565b6040516308aea7fd60e41b815273ffffffff7d3875460d4509eb8d0362c611b4e84160048201526000906001600160a01b03831690638aea7fd0906024016020604051808303816000875af1158015610ef1573d6000803e3d6000fd5b505050506040513d601f19601f82011682018060405250810190610f159190611783565b60405163095ea7b360e01b81527317313ce6e47d796e61fdeac34ab1f58e3e08908260048201526024810182905290915073ffffffff7d3875460d4509eb8d0362c611b4e8419063095ea7b3906044016020604051808303816000875af1158015610f84573d6000803e3d6000fd5b505050506040513d601f19601f82011682018060405250810190610fa8919061179c565b5060006040518060600160405280610fbd3390565b6001600160a01b0316815260200160006001600160a01b0316815260200186868080601f0160208091040260200160405190810160405280939291908181526020018383808284376000920182905250939094525050604051630d94982d60e21b81529293506001600160a01b038916929091507317313ce6e47d796e61fdeac34ab1f58e3e0890829063365260b4906110669060d9908690899087908e908e906004016117be565b6040805180830381865afa158015611082573d6000803e3d6000fd5b505050506040513d601f19601f820116820180604052508101906110a6919061180f565b509050803410156110e95760405162461bcd60e51b815260206004820152600d60248201526c746f6f20736d616c6c2066656560981b6044820152606401610419565b80341461118d5760006110fc8234611833565b604051909150600090339083908381818185875af1925050503d8060008114611141576040519150601f19603f3d011682016040523d82523d6000602084013e611146565b606091505b505090508061118a5760405162461bcd60e51b815260206004820152601060248201526f19985a5b1959081d1bc81c99599d5b9960821b6044820152606401610419565b50505b60405163695ef6bf60e01b81527317313ce6e47d796e61fdeac34ab1f58e3e0890829063695ef6bf90839061079590309060d99088908b908b906004016118a5565b6111d76113cd565b6001600160a01b03811661122d5760405162461bcd60e51b815260206004820152601860248201527f496e76616c6964206d616e746150616369666963536c707800000000000000006044820152606401610419565b600180546001600160a01b0319166001600160a01b0392909216919091179055565b6001600160a01b0381811660009081526004602052604090205416156112b75760405162461bcd60e51b815260206004820152601d60248201527f616c7265616479207365742064657269766174697665416464726573730000006044820152606401610419565b6000604051806020016112c99061157f565b601f1982820381018352601f9091011660405290506001600160a01b03821660006112f5818385611477565b6001600160a01b0385811660008181526004602052604080822080546001600160a01b031916948616948517905551939450919290917f57b0e11e6397ba91fdcf1893a12f81fa7f83af6687a4c7c51bb7ec5cc87b700991a350505050565b61135c6113cd565b6001600160a01b0381166113c15760405162461bcd60e51b815260206004820152602660248201527f4f776e61626c653a206e6577206f776e657220697320746865207a65726f206160448201526564647265737360d01b6064820152608401610419565b6113ca81611427565b50565b6000546001600160a01b0316331461085b5760405162461bcd60e51b815260206004820181905260248201527f4f776e61626c653a2063616c6c6572206973206e6f7420746865206f776e65726044820152606401610419565b600080546001600160a01b038381166001600160a01b0319831681178455604051919092169283917f8be0079c531659141344cd1fd0a4f28419497f9722a3daafe3b4186f6b6457e09190a35050565b6000834710156114c95760405162461bcd60e51b815260206004820152601d60248201527f437265617465323a20696e73756666696369656e742062616c616e63650000006044820152606401610419565b81516115175760405162461bcd60e51b815260206004820181905260248201527f437265617465323a2062797465636f6465206c656e677468206973207a65726f6044820152606401610419565b8282516020840186f590506001600160a01b0381166115785760405162461bcd60e51b815260206004820152601960248201527f437265617465323a204661696c6564206f6e206465706c6f79000000000000006044820152606401610419565b9392505050565b6105a8806119db83390190565b6001600160a01b03811681146113ca57600080fd5b60008083601f8401126115b357600080fd5b50813567ffffffffffffffff8111156115cb57600080fd5b6020830191508360208285010111156115e357600080fd5b9250929050565b6000806000604084860312156115ff57600080fd5b833561160a8161158c565b9250602084013567ffffffffffffffff81111561162657600080fd5b611632868287016115a1565b9497909650939450505050565b60006020828403121561165157600080fd5b81356115788161158c565b60008060008060008060008060c0898b03121561167857600080fd5b883561ffff8116811461168a57600080fd5b9750602089013567ffffffffffffffff808211156116a757600080fd5b6116b38c838d016115a1565b909950975060408b0135915080821682146116cd57600080fd5b90955060608a0135945060808a0135935060a08a013590808211156116f157600080fd5b506116fe8b828c016115a1565b999c989b5096995094979396929594505050565b60006020828403121561172457600080fd5b5035919050565b60208082526015908201527436bab9ba1031329039b1b934b83a2a3934b3b3b2b960591b604082015260600190565b6020808252600f908201526e696e76616c6964206164647265737360881b604082015260600190565b60006020828403121561179557600080fd5b5051919050565b6000602082840312156117ae57600080fd5b8151801515811461157857600080fd5b61ffff87168152856020820152846040820152831515606082015260a060808201528160a0820152818360c0830137600081830160c090810191909152601f909201601f1916010195945050505050565b6000806040838503121561182257600080fd5b505080516020909101519092909150565b60008282101561185357634e487b7160e01b600052601160045260246000fd5b500390565b6000815180845260005b8181101561187e57602081850181015186830182015201611862565b81811115611890576000602083870101525b50601f01601f19169290920160200192915050565b600060018060a01b03808816835261ffff8716602084015285604084015284606084015260a060808401528084511660a08401528060208501511660c0840152506040830151606060e0840152611900610100840182611858565b98975050505050505050565b6000806040838503121561191f57600080fd5b823561192a8161158c565b9150602083013563ffffffff8116811461194357600080fd5b809150509250929050565b6001600160a01b03861681526fffffffffffffffffffffffffffffffff8516602082015267ffffffffffffffff8416604082015260c06060820181905260009061199a90830185611858565b8281036080840152600e81526d26b0b73a30a830b1b4b334b1ab1960911b60208201526040810191505063ffffffff831660a0830152969550505050505056fe608060405234801561001057600080fd5b506001600081905580546001600160a01b03191633179055610571806100376000396000f3fe608060405234801561001057600080fd5b50600436106100415760003560e01c806317e0f252146100465780638aea7fd01461005b578063f7260d3e14610081575b600080fd5b6100596100543660046104b7565b6100ac565b005b61006e6100693660046104d0565b610240565b6040519081526020015b60405180910390f35b600154610094906001600160a01b031681565b6040516001600160a01b039091168152602001610078565b6100b461045d565b6001546001600160a01b031633146100ff5760405162461bcd60e51b81526020600482015260096024820152683337b93134b23232b760b91b60448201526064015b60405180910390fd5b8061013d5760405162461bcd60e51b815260206004820152600e60248201526d62616c616e636520746f206c6f7760901b60448201526064016100f6565b6001546040516000916001600160a01b03169083908381818185875af1925050503d806000811461018a576040519150601f19603f3d011682016040523d82523d6000602084013e61018f565b606091505b50509050806101e05760405162461bcd60e51b815260206004820152601d60248201527f6661696c656420746f2077697468647261774e6174697665546f6b656e00000060448201526064016100f6565b600154604080513381526001600160a01b03909216602083015260008282015260608201849052517f3115d1449a7b732c986cba18244e897a450f61e1bb8d589cd2e69e6c8924f9f79181900360800190a15061023d6001600055565b50565b600061024a61045d565b6001546001600160a01b031633146102905760405162461bcd60e51b81526020600482015260096024820152683337b93134b23232b760b91b60448201526064016100f6565b6001600160a01b0382166102d65760405162461bcd60e51b815260206004820152600d60248201526c0696e76616c696420657263323609c1b60448201526064016100f6565b6040516370a0823160e01b81523060048201526000906001600160a01b038416906370a0823190602401602060405180830381865afa15801561031d573d6000803e3d6000fd5b505050506040513d601f19601f820116820180604052508101906103419190610500565b9050806103815760405162461bcd60e51b815260206004820152600e60248201526d62616c616e636520746f206c6f7760901b60448201526064016100f6565b60015460405163a9059cbb60e01b81526001600160a01b039182166004820152602481018390529084169063a9059cbb906044016020604051808303816000875af11580156103d4573d6000803e3d6000fd5b505050506040513d601f19601f820116820180604052508101906103f89190610519565b50600154604080513381526001600160a01b0392831660208201529185168282015260608201839052517f3115d1449a7b732c986cba18244e897a450f61e1bb8d589cd2e69e6c8924f9f79181900360800190a190506104586001600055565b919050565b600260005414156104b05760405162461bcd60e51b815260206004820152601f60248201527f5265656e7472616e637947756172643a207265656e7472616e742063616c6c0060448201526064016100f6565b6002600055565b6000602082840312156104c957600080fd5b5035919050565b6000602082840312156104e257600080fd5b81356001600160a01b03811681146104f957600080fd5b9392505050565b60006020828403121561051257600080fd5b5051919050565b60006020828403121561052b57600080fd5b815180151581146104f957600080fdfea26469706673582212208cdaeacfdd5c4018a525a04627735e0394975d213762f15d3134e53ec33ca9a164736f6c634300080a0033a26469706673582212209c6e48a3c3e7ebf32225095d8636dbc12515dee4796c5405bc84506c101fb88064736f6c634300080a0033",
  "devdoc": {
    "kind": "dev",
    "methods": {
      "owner()": {
        "details": "Returns the address of the current owner."
      },
      "renounceOwnership()": {
        "details": "Leaves the contract without owner. It will not be possible to call `onlyOwner` functions. Can only be called by the current owner. NOTE: Renouncing ownership will leave the contract without an owner, thereby disabling any functionality that is only available to the owner."
      },
      "transferOwnership(address)": {
        "details": "Transfers ownership of the contract to a new account (`newOwner`). Can only be called by the current owner."
      }
    },
    "version": 1
  },
  "userdoc": {
    "kind": "user",
    "methods": {},
    "version": 1
  },
  "storageLayout": {
    "storage": [
      {
        "astId": 7,
        "contract": "contracts/MoonbeamReceiver.sol:MoonbeamReceiver",
        "label": "_owner",
        "offset": 0,
        "slot": "0",
        "type": "t_address"
      },
      {
        "astId": 934,
        "contract": "contracts/MoonbeamReceiver.sol:MoonbeamReceiver",
        "label": "mantaPacificSlpx",
        "offset": 0,
        "slot": "1",
        "type": "t_address"
      },
      {
        "astId": 936,
        "contract": "contracts/MoonbeamReceiver.sol:MoonbeamReceiver",
        "label": "layerZeroFee",
        "offset": 0,
        "slot": "2",
        "type": "t_uint256"
      },
      {
        "astId": 938,
        "contract": "contracts/MoonbeamReceiver.sol:MoonbeamReceiver",
        "label": "scriptTrigger",
        "offset": 0,
        "slot": "3",
        "type": "t_address"
      },
      {
        "astId": 942,
        "contract": "contracts/MoonbeamReceiver.sol:MoonbeamReceiver",
        "label": "callerToDerivativeAddress",
        "offset": 0,
        "slot": "4",
        "type": "t_mapping(t_address,t_address)"
      }
    ],
    "types": {
      "t_address": {
        "encoding": "inplace",
        "label": "address",
        "numberOfBytes": "20"
      },
      "t_mapping(t_address,t_address)": {
        "encoding": "mapping",
        "key": "t_address",
        "label": "mapping(address => address)",
        "numberOfBytes": "32",
        "value": "t_address"
      },
      "t_uint256": {
        "encoding": "inplace",
        "label": "uint256",
        "numberOfBytes": "32"
      }
    }
  }
}