{
  "address": "0xd8B789158b4Dc956Ff739063cf21bB2294aE5618",
  "abi": [
    {
      "anonymous": false,
      "inputs": [
        {
          "indexed": false,
          "internalType": "uint8",
          "name": "version",
          "type": "uint8"
        }
      ],
      "name": "Initialized",
      "type": "event"
    },
    {
      "anonymous": false,
      "inputs": [
        {
          "indexed": true,
          "internalType": "address",
          "name": "previousOwner",
          "type": "address"
        },
        {
          "indexed": true,
          "internalType": "address",
          "name": "newOwner",
          "type": "address"
        }
      ],
      "name": "OwnershipTransferred",
      "type": "event"
    },
    {
      "anonymous": false,
      "inputs": [
        {
          "indexed": false,
          "internalType": "address",
          "name": "account",
          "type": "address"
        }
      ],
      "name": "Paused",
      "type": "event"
    },
    {
      "anonymous": false,
      "inputs": [
        {
          "indexed": false,
          "internalType": "address",
          "name": "account",
          "type": "address"
        }
      ],
      "name": "Unpaused",
      "type": "event"
    },
    {
      "inputs": [
        {
          "internalType": "address",
          "name": "_assetAddress",
          "type": "address"
        }
      ],
      "name": "getCurrencyIdByAssetAddress",
      "outputs": [
        {
          "internalType": "bytes2",
          "name": "",
          "type": "bytes2"
        }
      ],
      "stateMutability": "view",
      "type": "function"
    },
    {
      "inputs": [
        {
          "internalType": "address",
          "name": "_assetAddress",
          "type": "address"
        },
        {
          "internalType": "uint256",
          "name": "_vAssetAmount",
          "type": "uint256"
        }
      ],
      "name": "getTokenByVToken",
      "outputs": [
        {
          "internalType": "uint256",
          "name": "",
          "type": "uint256"
        }
      ],
      "stateMutability": "view",
      "type": "function"
    },
    {
      "inputs": [
        {
          "internalType": "address",
          "name": "_assetAddress",
          "type": "address"
        },
        {
          "internalType": "uint256",
          "name": "_assetAmount",
          "type": "uint256"
        }
      ],
      "name": "getVTokenByToken",
      "outputs": [
        {
          "internalType": "uint256",
          "name": "",
          "type": "uint256"
        }
      ],
      "stateMutability": "view",
      "type": "function"
    },
    {
      "inputs": [
        {
          "internalType": "address",
          "name": "_SlxAddress",
          "type": "address"
        },
        {
          "internalType": "address",
          "name": "_SovereignAddress",
          "type": "address"
        }
      ],
      "name": "initialize",
      "outputs": [],
      "stateMutability": "nonpayable",
      "type": "function"
    },
    {
      "inputs": [],
      "name": "owner",
      "outputs": [
        {
          "internalType": "address",
          "name": "",
          "type": "address"
        }
      ],
      "stateMutability": "view",
      "type": "function"
    },
    {
      "inputs": [],
      "name": "pause",
      "outputs": [],
      "stateMutability": "nonpayable",
      "type": "function"
    },
    {
      "inputs": [],
      "name": "paused",
      "outputs": [
        {
          "internalType": "bool",
          "name": "",
          "type": "bool"
        }
      ],
      "stateMutability": "view",
      "type": "function"
    },
    {
      "inputs": [],
      "name": "rateInfo",
      "outputs": [
        {
          "internalType": "uint8",
          "name": "mintRate",
          "type": "uint8"
        },
        {
          "internalType": "uint8",
          "name": "redeemRate",
          "type": "uint8"
        }
      ],
      "stateMutability": "view",
      "type": "function"
    },
    {
      "inputs": [],
      "name": "renounceOwnership",
      "outputs": [],
      "stateMutability": "nonpayable",
      "type": "function"
    },
    {
      "inputs": [
        {
          "internalType": "uint8",
          "name": "_mintRate",
          "type": "uint8"
        },
        {
          "internalType": "uint8",
          "name": "_redeemRate",
          "type": "uint8"
        }
      ],
      "name": "setRate",
      "outputs": [],
      "stateMutability": "nonpayable",
      "type": "function"
    },
    {
      "inputs": [
        {
          "internalType": "bytes2",
          "name": "_currencyId",
          "type": "bytes2"
        },
        {
          "internalType": "uint256",
          "name": "_assetAmount",
          "type": "uint256"
        },
        {
          "internalType": "uint256",
          "name": "_vAssetAmount",
          "type": "uint256"
        }
      ],
      "name": "setTokenAmount",
      "outputs": [],
      "stateMutability": "nonpayable",
      "type": "function"
    },
    {
      "inputs": [],
      "name": "slxAddress",
      "outputs": [
        {
          "internalType": "address",
          "name": "",
          "type": "address"
        }
      ],
      "stateMutability": "view",
      "type": "function"
    },
    {
      "inputs": [],
      "name": "sovereignAddress",
      "outputs": [
        {
          "internalType": "address",
          "name": "",
          "type": "address"
        }
      ],
      "stateMutability": "view",
      "type": "function"
    },
    {
      "inputs": [
        {
          "internalType": "bytes2",
          "name": "",
          "type": "bytes2"
        }
      ],
      "name": "tokenPool",
      "outputs": [
        {
          "internalType": "uint256",
          "name": "assetAmount",
          "type": "uint256"
        },
        {
          "internalType": "uint256",
          "name": "vAssetAmount",
          "type": "uint256"
        }
      ],
      "stateMutability": "view",
      "type": "function"
    },
    {
      "inputs": [
        {
          "internalType": "address",
          "name": "newOwner",
          "type": "address"
        }
      ],
      "name": "transferOwnership",
      "outputs": [],
      "stateMutability": "nonpayable",
      "type": "function"
    },
    {
      "inputs": [],
      "name": "unpause",
      "outputs": [],
      "stateMutability": "nonpayable",
      "type": "function"
    }
  ],
  "transactionHash": "0xf1c2eac8ea9069aff948fc4ceb5fcf3ccbefa1567cda7577e3326d9f71234bee",
  "args": [],
  "numDeployments": 2,
  "solcInputHash": "71adc3a23d2b7269ab87d9cd64e0b8a3",
  "bytecode": "0x608060405234801561001057600080fd5b50610cb6806100206000396000f3fe608060405234801561001057600080fd5b50600436106101005760003560e01c80638456cb5911610097578063a9b91a7811610066578063a9b91a781461023c578063b23060101461024f578063e582f4e41461027b578063f2fde38b1461028e57600080fd5b80638456cb59146101fd5780638da5cb5b1461020557806399bc9c1b146102165780639a41b9241461022957600080fd5b8063485cc955116100d3578063485cc9551461019c5780635c975abb146101af578063690adb53146101c5578063715018a6146101f557600080fd5b80631443d5b0146101055780631c0afa1c14610146578063249fe68f146101675780633f4ba83a14610192575b600080fd5b61012c610113366004610a71565b609a602052600090815260409020805460019091015482565b604080519283526020830191909152015b60405180910390f35b610159610154366004610ab1565b6102a1565b60405190815260200161013d565b60985461017a906001600160a01b031681565b6040516001600160a01b03909116815260200161013d565b61019a61039a565b005b61019a6101aa366004610adb565b6103ac565b60655460ff16604051901515815260200161013d565b6097546101db9060ff8082169161010090041682565b6040805160ff93841681529290911660208301520161013d565b61019a6104f7565b61019a610509565b6033546001600160a01b031661017a565b61019a610224366004610b1f565b610519565b61019a610237366004610b49565b610545565b60995461017a906001600160a01b031681565b61026261025d366004610b7e565b6105bb565b6040516001600160f01b0319909116815260200161013d565b610159610289366004610ab1565b61067e565b61019a61029c366004610b7e565b610757565b60006102ab6107d0565b60006102b6846105bb565b6001600160f01b031981166000908152609a60209081526040918290208251808401909352805483526001015490820181905291925090158015906102fb5750805115155b6103385760405162461bcd60e51b81526020600482015260096024820152684e6f7420726561647960b81b60448201526064015b60405180910390fd5b60975460009061271090610355908790610100900460ff16610baf565b61035f9190610bce565b9050600061036d8287610bf0565b602084015184519192506000916103849084610baf565b61038e9190610bce565b98975050505050505050565b6103a2610816565b6103aa610870565b565b600054610100900460ff16158080156103cc5750600054600160ff909116105b806103e65750303b1580156103e6575060005460ff166001145b6104495760405162461bcd60e51b815260206004820152602e60248201527f496e697469616c697a61626c653a20636f6e747261637420697320616c72656160448201526d191e481a5b9a5d1a585b1a5e995960921b606482015260840161032f565b6000805460ff19166001179055801561046c576000805461ff0019166101001790555b6104746108c2565b61047c6108f1565b609880546001600160a01b038086166001600160a01b031992831617909255609980549285169290911691909117905580156104f2576000805461ff0019169055604051600181527f7f26b83ff96e1f2b6a682f133852f6798a09c465da95921460cefb38474024989060200160405180910390a15b505050565b6104ff610816565b6103aa6000610920565b610511610816565b6103aa610972565b610521610816565b6097805460ff9283166101000261ffff199091169290931691909117919091179055565b6099546001600160a01b0316336001600160a01b0316146105985760405162461bcd60e51b815260206004820152600d60248201526c2737903832b936b4b9b9b4b7b760991b604482015260640161032f565b6001600160f01b03199092166000908152609a6020526040902090815560010155565b6098546040516364322a2b60e11b81526001600160a01b038381166004830152600092839283929091169063c8645456906024016040805180830381865afa15801561060b573d6000803e3d6000fd5b505050506040513d601f19601f8201168201806040525081019061062f9190610c07565b90925090506001600160f01b031982166106775760405162461bcd60e51b8152602060048201526009602482015268139bdd08199bdd5b9960ba1b604482015260640161032f565b5092915050565b60006106886107d0565b6000610693846105bb565b6001600160f01b031981166000908152609a60209081526040918290208251808401909352805483526001015490820181905291925090158015906106d85750805115155b6107105760405162461bcd60e51b81526020600482015260096024820152684e6f7420726561647960b81b604482015260640161032f565b6097546000906127109061072890879060ff16610baf565b6107329190610bce565b905060006107408287610bf0565b835160208501519192506000916103849084610baf565b61075f610816565b6001600160a01b0381166107c45760405162461bcd60e51b815260206004820152602660248201527f4f776e61626c653a206e6577206f776e657220697320746865207a65726f206160448201526564647265737360d01b606482015260840161032f565b6107cd81610920565b50565b60655460ff16156103aa5760405162461bcd60e51b815260206004820152601060248201526f14185d5cd8589b194e881c185d5cd95960821b604482015260640161032f565b6033546001600160a01b031633146103aa5760405162461bcd60e51b815260206004820181905260248201527f4f776e61626c653a2063616c6c6572206973206e6f7420746865206f776e6572604482015260640161032f565b6108786109af565b6065805460ff191690557f5db9ee0a495bf2e6ff9c91a7834c1ba4fdd244a5e8aa4e537bd38aeae4b073aa335b6040516001600160a01b03909116815260200160405180910390a1565b600054610100900460ff166108e95760405162461bcd60e51b815260040161032f90610c35565b6103aa6109f8565b600054610100900460ff166109185760405162461bcd60e51b815260040161032f90610c35565b6103aa610a28565b603380546001600160a01b038381166001600160a01b0319831681179093556040519116919082907f8be0079c531659141344cd1fd0a4f28419497f9722a3daafe3b4186f6b6457e090600090a35050565b61097a6107d0565b6065805460ff191660011790557f62e78cea01bee320cd4e420270b5ea74000d11b0c9f74754ebdbfc544b05a2586108a53390565b60655460ff166103aa5760405162461bcd60e51b815260206004820152601460248201527314185d5cd8589b194e881b9bdd081c185d5cd95960621b604482015260640161032f565b600054610100900460ff16610a1f5760405162461bcd60e51b815260040161032f90610c35565b6103aa33610920565b600054610100900460ff16610a4f5760405162461bcd60e51b815260040161032f90610c35565b6065805460ff19169055565b6001600160f01b0319811681146107cd57600080fd5b600060208284031215610a8357600080fd5b8135610a8e81610a5b565b9392505050565b80356001600160a01b0381168114610aac57600080fd5b919050565b60008060408385031215610ac457600080fd5b610acd83610a95565b946020939093013593505050565b60008060408385031215610aee57600080fd5b610af783610a95565b9150610b0560208401610a95565b90509250929050565b803560ff81168114610aac57600080fd5b60008060408385031215610b3257600080fd5b610b3b83610b0e565b9150610b0560208401610b0e565b600080600060608486031215610b5e57600080fd5b8335610b6981610a5b565b95602085013595506040909401359392505050565b600060208284031215610b9057600080fd5b610a8e82610a95565b634e487b7160e01b600052601160045260246000fd5b6000816000190483118215151615610bc957610bc9610b99565b500290565b600082610beb57634e487b7160e01b600052601260045260246000fd5b500490565b600082821015610c0257610c02610b99565b500390565b60008060408385031215610c1a57600080fd5b8251610c2581610a5b565b6020939093015192949293505050565b6020808252602b908201527f496e697469616c697a61626c653a20636f6e7472616374206973206e6f74206960408201526a6e697469616c697a696e6760a81b60608201526080019056fea2646970667358221220071bf2c960df543b217fec16e4fb5a9aafcf939130a17508bc7db70b7b5e8ab564736f6c634300080a0033",
  "devdoc": {
    "kind": "dev",
    "methods": {
      "owner()": {
        "details": "Returns the address of the current owner."
      },
      "paused()": {
        "details": "Returns true if the contract is paused, and false otherwise."
      },
      "renounceOwnership()": {
        "details": "Leaves the contract without owner. It will not be possible to call `onlyOwner` functions. Can only be called by the current owner. NOTE: Renouncing ownership will leave the contract without an owner, thereby disabling any functionality that is only available to the owner."
      },
      "transferOwnership(address)": {
        "details": "Transfers ownership of the contract to a new account (`newOwner`). Can only be called by the current owner."
      }
    },
    "version": 1
  },
  "userdoc": {
    "kind": "user",
    "methods": {
      "setRate(uint8,uint8)": {
        "notice": "Bifrost will set a fee and the data will be consistent with Bifrost Chain."
      },
      "setTokenAmount(bytes2,uint256,uint256)": {
        "notice": "Setting up data with XCM. Multi-signature is used to monitor XCM after an error to set up data."
      }
    },
    "version": 1
  },
  "storageLayout": {
    "storage": [
      {
        "astId": 139,
        "contract": "contracts/XcmOracle.sol:XcmOracle",
        "label": "_initialized",
        "offset": 0,
        "slot": "0",
        "type": "t_uint8"
      },
      {
        "astId": 142,
        "contract": "contracts/XcmOracle.sol:XcmOracle",
        "label": "_initializing",
        "offset": 1,
        "slot": "0",
        "type": "t_bool"
      },
      {
        "astId": 809,
        "contract": "contracts/XcmOracle.sol:XcmOracle",
        "label": "__gap",
        "offset": 0,
        "slot": "1",
        "type": "t_array(t_uint256)50_storage"
      },
      {
        "astId": 11,
        "contract": "contracts/XcmOracle.sol:XcmOracle",
        "label": "_owner",
        "offset": 0,
        "slot": "51",
        "type": "t_address"
      },
      {
        "astId": 131,
        "contract": "contracts/XcmOracle.sol:XcmOracle",
        "label": "__gap",
        "offset": 0,
        "slot": "52",
        "type": "t_array(t_uint256)49_storage"
      },
      {
        "astId": 323,
        "contract": "contracts/XcmOracle.sol:XcmOracle",
        "label": "_paused",
        "offset": 0,
        "slot": "101",
        "type": "t_bool"
      },
      {
        "astId": 428,
        "contract": "contracts/XcmOracle.sol:XcmOracle",
        "label": "__gap",
        "offset": 0,
        "slot": "102",
        "type": "t_array(t_uint256)49_storage"
      },
      {
        "astId": 5167,
        "contract": "contracts/XcmOracle.sol:XcmOracle",
        "label": "rateInfo",
        "offset": 0,
        "slot": "151",
        "type": "t_struct(RateInfo)5164_storage"
      },
      {
        "astId": 5169,
        "contract": "contracts/XcmOracle.sol:XcmOracle",
        "label": "slxAddress",
        "offset": 0,
        "slot": "152",
        "type": "t_address"
      },
      {
        "astId": 5171,
        "contract": "contracts/XcmOracle.sol:XcmOracle",
        "label": "sovereignAddress",
        "offset": 0,
        "slot": "153",
        "type": "t_address"
      },
      {
        "astId": 5176,
        "contract": "contracts/XcmOracle.sol:XcmOracle",
        "label": "tokenPool",
        "offset": 0,
        "slot": "154",
        "type": "t_mapping(t_bytes2,t_struct(PoolInfo)5159_storage)"
      }
    ],
    "types": {
      "t_address": {
        "encoding": "inplace",
        "label": "address",
        "numberOfBytes": "20"
      },
      "t_array(t_uint256)49_storage": {
        "base": "t_uint256",
        "encoding": "inplace",
        "label": "uint256[49]",
        "numberOfBytes": "1568"
      },
      "t_array(t_uint256)50_storage": {
        "base": "t_uint256",
        "encoding": "inplace",
        "label": "uint256[50]",
        "numberOfBytes": "1600"
      },
      "t_bool": {
        "encoding": "inplace",
        "label": "bool",
        "numberOfBytes": "1"
      },
      "t_bytes2": {
        "encoding": "inplace",
        "label": "bytes2",
        "numberOfBytes": "2"
      },
      "t_mapping(t_bytes2,t_struct(PoolInfo)5159_storage)": {
        "encoding": "mapping",
        "key": "t_bytes2",
        "label": "mapping(bytes2 => struct XcmOracle.PoolInfo)",
        "numberOfBytes": "32",
        "value": "t_struct(PoolInfo)5159_storage"
      },
      "t_struct(PoolInfo)5159_storage": {
        "encoding": "inplace",
        "label": "struct XcmOracle.PoolInfo",
        "members": [
          {
            "astId": 5156,
            "contract": "contracts/XcmOracle.sol:XcmOracle",
            "label": "assetAmount",
            "offset": 0,
            "slot": "0",
            "type": "t_uint256"
          },
          {
            "astId": 5158,
            "contract": "contracts/XcmOracle.sol:XcmOracle",
            "label": "vAssetAmount",
            "offset": 0,
            "slot": "1",
            "type": "t_uint256"
          }
        ],
        "numberOfBytes": "64"
      },
      "t_struct(RateInfo)5164_storage": {
        "encoding": "inplace",
        "label": "struct XcmOracle.RateInfo",
        "members": [
          {
            "astId": 5161,
            "contract": "contracts/XcmOracle.sol:XcmOracle",
            "label": "mintRate",
            "offset": 0,
            "slot": "0",
            "type": "t_uint8"
          },
          {
            "astId": 5163,
            "contract": "contracts/XcmOracle.sol:XcmOracle",
            "label": "redeemRate",
            "offset": 1,
            "slot": "0",
            "type": "t_uint8"
          }
        ],
        "numberOfBytes": "32"
      },
      "t_uint256": {
        "encoding": "inplace",
        "label": "uint256",
        "numberOfBytes": "32"
      },
      "t_uint8": {
        "encoding": "inplace",
        "label": "uint8",
        "numberOfBytes": "1"
      }
    }
  }
}