{
  "address": "0x2fD8bbF5dc8b342C09ABF34f211b3488e2d9d691",
  "abi": [
    {
      "inputs": [
        {
          "internalType": "address",
          "name": "token",
          "type": "address"
        },
        {
          "internalType": "address",
          "name": "_lzEndpoint",
          "type": "address"
        }
      ],
      "stateMutability": "nonpayable",
      "type": "constructor"
    },
    {
      "anonymous": false,
      "inputs": [
        {
          "indexed": true,
          "internalType": "uint16",
          "name": "_srcChainId",
          "type": "uint16"
        },
        {
          "indexed": false,
          "internalType": "bytes",
          "name": "_srcAddress",
          "type": "bytes"
        },
        {
          "indexed": false,
          "internalType": "uint64",
          "name": "_nonce",
          "type": "uint64"
        },
        {
          "indexed": false,
          "internalType": "bytes32",
          "name": "_hash",
          "type": "bytes32"
        }
      ],
      "name": "CallOFTReceivedSuccess",
      "type": "event"
    },
    {
      "anonymous": false,
      "inputs": [
        {
          "indexed": false,
          "internalType": "uint16",
          "name": "_srcChainId",
          "type": "uint16"
        },
        {
          "indexed": false,
          "internalType": "bytes",
          "name": "_srcAddress",
          "type": "bytes"
        },
        {
          "indexed": false,
          "internalType": "uint64",
          "name": "_nonce",
          "type": "uint64"
        },
        {
          "indexed": false,
          "internalType": "bytes",
          "name": "_payload",
          "type": "bytes"
        },
        {
          "indexed": false,
          "internalType": "bytes",
          "name": "_reason",
          "type": "bytes"
        }
      ],
      "name": "MessageFailed",
      "type": "event"
    },
    {
      "anonymous": false,
      "inputs": [
        {
          "indexed": false,
          "internalType": "address",
          "name": "_address",
          "type": "address"
        }
      ],
      "name": "NonContractAddress",
      "type": "event"
    },
    {
      "anonymous": false,
      "inputs": [
        {
          "indexed": true,
          "internalType": "address",
          "name": "previousOwner",
          "type": "address"
        },
        {
          "indexed": true,
          "internalType": "address",
          "name": "newOwner",
          "type": "address"
        }
      ],
      "name": "OwnershipTransferred",
      "type": "event"
    },
    {
      "anonymous": false,
      "inputs": [
        {
          "indexed": true,
          "internalType": "uint16",
          "name": "_srcChainId",
          "type": "uint16"
        },
        {
          "indexed": true,
          "internalType": "address",
          "name": "_to",
          "type": "address"
        },
        {
          "indexed": false,
          "internalType": "uint256",
          "name": "_amount",
          "type": "uint256"
        }
      ],
      "name": "ReceiveFromChain",
      "type": "event"
    },
    {
      "anonymous": false,
      "inputs": [
        {
          "indexed": false,
          "internalType": "uint16",
          "name": "_srcChainId",
          "type": "uint16"
        },
        {
          "indexed": false,
          "internalType": "bytes",
          "name": "_srcAddress",
          "type": "bytes"
        },
        {
          "indexed": false,
          "internalType": "uint64",
          "name": "_nonce",
          "type": "uint64"
        },
        {
          "indexed": false,
          "internalType": "bytes32",
          "name": "_payloadHash",
          "type": "bytes32"
        }
      ],
      "name": "RetryMessageSuccess",
      "type": "event"
    },
    {
      "anonymous": false,
      "inputs": [
        {
          "indexed": true,
          "internalType": "uint16",
          "name": "_dstChainId",
          "type": "uint16"
        },
        {
          "indexed": true,
          "internalType": "address",
          "name": "_from",
          "type": "address"
        },
        {
          "indexed": true,
          "internalType": "bytes32",
          "name": "_toAddress",
          "type": "bytes32"
        },
        {
          "indexed": false,
          "internalType": "uint256",
          "name": "_amount",
          "type": "uint256"
        }
      ],
      "name": "SendToChain",
      "type": "event"
    },
    {
      "anonymous": false,
      "inputs": [
        {
          "indexed": false,
          "internalType": "uint16",
          "name": "_dstChainId",
          "type": "uint16"
        },
        {
          "indexed": false,
          "internalType": "uint16",
          "name": "_type",
          "type": "uint16"
        },
        {
          "indexed": false,
          "internalType": "uint256",
          "name": "_minDstGas",
          "type": "uint256"
        }
      ],
      "name": "SetMinDstGas",
      "type": "event"
    },
    {
      "anonymous": false,
      "inputs": [
        {
          "indexed": false,
          "internalType": "address",
          "name": "precrime",
          "type": "address"
        }
      ],
      "name": "SetPrecrime",
      "type": "event"
    },
    {
      "anonymous": false,
      "inputs": [
        {
          "indexed": false,
          "internalType": "uint16",
          "name": "_remoteChainId",
          "type": "uint16"
        },
        {
          "indexed": false,
          "internalType": "bytes",
          "name": "_path",
          "type": "bytes"
        }
      ],
      "name": "SetTrustedRemote",
      "type": "event"
    },
    {
      "anonymous": false,
      "inputs": [
        {
          "indexed": false,
          "internalType": "uint16",
          "name": "_remoteChainId",
          "type": "uint16"
        },
        {
          "indexed": false,
          "internalType": "bytes",
          "name": "_remoteAddress",
          "type": "bytes"
        }
      ],
      "name": "SetTrustedRemoteAddress",
      "type": "event"
    },
    {
      "inputs": [],
      "name": "DEFAULT_PAYLOAD_SIZE_LIMIT",
      "outputs": [
        {
          "internalType": "uint256",
          "name": "",
          "type": "uint256"
        }
      ],
      "stateMutability": "view",
      "type": "function"
    },
    {
      "inputs": [],
      "name": "NO_EXTRA_GAS",
      "outputs": [
        {
          "internalType": "uint256",
          "name": "",
          "type": "uint256"
        }
      ],
      "stateMutability": "view",
      "type": "function"
    },
    {
      "inputs": [],
      "name": "PT_SEND",
      "outputs": [
        {
          "internalType": "uint8",
          "name": "",
          "type": "uint8"
        }
      ],
      "stateMutability": "view",
      "type": "function"
    },
    {
      "inputs": [],
      "name": "PT_SEND_AND_CALL",
      "outputs": [
        {
          "internalType": "uint8",
          "name": "",
          "type": "uint8"
        }
      ],
      "stateMutability": "view",
      "type": "function"
    },
    {
      "inputs": [
        {
          "internalType": "uint16",
          "name": "_srcChainId",
          "type": "uint16"
        },
        {
          "internalType": "bytes",
          "name": "_srcAddress",
          "type": "bytes"
        },
        {
          "internalType": "uint64",
          "name": "_nonce",
          "type": "uint64"
        },
        {
          "internalType": "bytes32",
          "name": "_from",
          "type": "bytes32"
        },
        {
          "internalType": "address",
          "name": "_to",
          "type": "address"
        },
        {
          "internalType": "uint256",
          "name": "_amount",
          "type": "uint256"
        },
        {
          "internalType": "bytes",
          "name": "_payload",
          "type": "bytes"
        },
        {
          "internalType": "uint256",
          "name": "_gasForCall",
          "type": "uint256"
        }
      ],
      "name": "callOnOFTReceived",
      "outputs": [],
      "stateMutability": "nonpayable",
      "type": "function"
    },
    {
      "inputs": [],
      "name": "circulatingSupply",
      "outputs": [
        {
          "internalType": "uint256",
          "name": "",
          "type": "uint256"
        }
      ],
      "stateMutability": "view",
      "type": "function"
    },
    {
      "inputs": [
        {
          "internalType": "uint16",
          "name": "",
          "type": "uint16"
        },
        {
          "internalType": "bytes",
          "name": "",
          "type": "bytes"
        },
        {
          "internalType": "uint64",
          "name": "",
          "type": "uint64"
        }
      ],
      "name": "creditedPackets",
      "outputs": [
        {
          "internalType": "bool",
          "name": "",
          "type": "bool"
        }
      ],
      "stateMutability": "view",
      "type": "function"
    },
    {
      "inputs": [
        {
          "internalType": "uint16",
          "name": "_dstChainId",
          "type": "uint16"
        },
        {
          "internalType": "bytes32",
          "name": "_toAddress",
          "type": "bytes32"
        },
        {
          "internalType": "uint256",
          "name": "_amount",
          "type": "uint256"
        },
        {
          "internalType": "bytes",
          "name": "_payload",
          "type": "bytes"
        },
        {
          "internalType": "uint64",
          "name": "_dstGasForCall",
          "type": "uint64"
        },
        {
          "internalType": "bool",
          "name": "_useZro",
          "type": "bool"
        },
        {
          "internalType": "bytes",
          "name": "_adapterParams",
          "type": "bytes"
        }
      ],
      "name": "estimateSendAndCallFee",
      "outputs": [
        {
          "internalType": "uint256",
          "name": "nativeFee",
          "type": "uint256"
        },
        {
          "internalType": "uint256",
          "name": "zroFee",
          "type": "uint256"
        }
      ],
      "stateMutability": "view",
      "type": "function"
    },
    {
      "inputs": [
        {
          "internalType": "uint16",
          "name": "_dstChainId",
          "type": "uint16"
        },
        {
          "internalType": "bytes32",
          "name": "_toAddress",
          "type": "bytes32"
        },
        {
          "internalType": "uint256",
          "name": "_amount",
          "type": "uint256"
        },
        {
          "internalType": "bool",
          "name": "_useZro",
          "type": "bool"
        },
        {
          "internalType": "bytes",
          "name": "_adapterParams",
          "type": "bytes"
        }
      ],
      "name": "estimateSendFee",
      "outputs": [
        {
          "internalType": "uint256",
          "name": "nativeFee",
          "type": "uint256"
        },
        {
          "internalType": "uint256",
          "name": "zroFee",
          "type": "uint256"
        }
      ],
      "stateMutability": "view",
      "type": "function"
    },
    {
      "inputs": [
        {
          "internalType": "uint16",
          "name": "",
          "type": "uint16"
        },
        {
          "internalType": "bytes",
          "name": "",
          "type": "bytes"
        },
        {
          "internalType": "uint64",
          "name": "",
          "type": "uint64"
        }
      ],
      "name": "failedMessages",
      "outputs": [
        {
          "internalType": "bytes32",
          "name": "",
          "type": "bytes32"
        }
      ],
      "stateMutability": "view",
      "type": "function"
    },
    {
      "inputs": [
        {
          "internalType": "uint16",
          "name": "_srcChainId",
          "type": "uint16"
        },
        {
          "internalType": "bytes",
          "name": "_srcAddress",
          "type": "bytes"
        }
      ],
      "name": "forceResumeReceive",
      "outputs": [],
      "stateMutability": "nonpayable",
      "type": "function"
    },
    {
      "inputs": [
        {
          "internalType": "uint16",
          "name": "_version",
          "type": "uint16"
        },
        {
          "internalType": "uint16",
          "name": "_chainId",
          "type": "uint16"
        },
        {
          "internalType": "address",
          "name": "",
          "type": "address"
        },
        {
          "internalType": "uint256",
          "name": "_configType",
          "type": "uint256"
        }
      ],
      "name": "getConfig",
      "outputs": [
        {
          "internalType": "bytes",
          "name": "",
          "type": "bytes"
        }
      ],
      "stateMutability": "view",
      "type": "function"
    },
    {
      "inputs": [
        {
          "internalType": "uint16",
          "name": "_remoteChainId",
          "type": "uint16"
        }
      ],
      "name": "getTrustedRemoteAddress",
      "outputs": [
        {
          "internalType": "bytes",
          "name": "",
          "type": "bytes"
        }
      ],
      "stateMutability": "view",
      "type": "function"
    },
    {
      "inputs": [
        {
          "internalType": "uint16",
          "name": "_srcChainId",
          "type": "uint16"
        },
        {
          "internalType": "bytes",
          "name": "_srcAddress",
          "type": "bytes"
        }
      ],
      "name": "isTrustedRemote",
      "outputs": [
        {
          "internalType": "bool",
          "name": "",
          "type": "bool"
        }
      ],
      "stateMutability": "view",
      "type": "function"
    },
    {
      "inputs": [],
      "name": "lzEndpoint",
      "outputs": [
        {
          "internalType": "contract ILayerZeroEndpoint",
          "name": "",
          "type": "address"
        }
      ],
      "stateMutability": "view",
      "type": "function"
    },
    {
      "inputs": [
        {
          "internalType": "uint16",
          "name": "_srcChainId",
          "type": "uint16"
        },
        {
          "internalType": "bytes",
          "name": "_srcAddress",
          "type": "bytes"
        },
        {
          "internalType": "uint64",
          "name": "_nonce",
          "type": "uint64"
        },
        {
          "internalType": "bytes",
          "name": "_payload",
          "type": "bytes"
        }
      ],
      "name": "lzReceive",
      "outputs": [],
      "stateMutability": "nonpayable",
      "type": "function"
    },
    {
      "inputs": [
        {
          "internalType": "uint16",
          "name": "",
          "type": "uint16"
        },
        {
          "internalType": "uint16",
          "name": "",
          "type": "uint16"
        }
      ],
      "name": "minDstGasLookup",
      "outputs": [
        {
          "internalType": "uint256",
          "name": "",
          "type": "uint256"
        }
      ],
      "stateMutability": "view",
      "type": "function"
    },
    {
      "inputs": [
        {
          "internalType": "uint16",
          "name": "_srcChainId",
          "type": "uint16"
        },
        {
          "internalType": "bytes",
          "name": "_srcAddress",
          "type": "bytes"
        },
        {
          "internalType": "uint64",
          "name": "_nonce",
          "type": "uint64"
        },
        {
          "internalType": "bytes",
          "name": "_payload",
          "type": "bytes"
        }
      ],
      "name": "nonblockingLzReceive",
      "outputs": [],
      "stateMutability": "nonpayable",
      "type": "function"
    },
    {
      "inputs": [],
      "name": "outboundAmount",
      "outputs": [
        {
          "internalType": "uint256",
          "name": "",
          "type": "uint256"
        }
      ],
      "stateMutability": "view",
      "type": "function"
    },
    {
      "inputs": [],
      "name": "owner",
      "outputs": [
        {
          "internalType": "address",
          "name": "",
          "type": "address"
        }
      ],
      "stateMutability": "view",
      "type": "function"
    },
    {
      "inputs": [
        {
          "internalType": "uint16",
          "name": "",
          "type": "uint16"
        }
      ],
      "name": "payloadSizeLimitLookup",
      "outputs": [
        {
          "internalType": "uint256",
          "name": "",
          "type": "uint256"
        }
      ],
      "stateMutability": "view",
      "type": "function"
    },
    {
      "inputs": [],
      "name": "precrime",
      "outputs": [
        {
          "internalType": "address",
          "name": "",
          "type": "address"
        }
      ],
      "stateMutability": "view",
      "type": "function"
    },
    {
      "inputs": [],
      "name": "renounceOwnership",
      "outputs": [],
      "stateMutability": "nonpayable",
      "type": "function"
    },
    {
      "inputs": [
        {
          "internalType": "uint16",
          "name": "_srcChainId",
          "type": "uint16"
        },
        {
          "internalType": "bytes",
          "name": "_srcAddress",
          "type": "bytes"
        },
        {
          "internalType": "uint64",
          "name": "_nonce",
          "type": "uint64"
        },
        {
          "internalType": "bytes",
          "name": "_payload",
          "type": "bytes"
        }
      ],
      "name": "retryMessage",
      "outputs": [],
      "stateMutability": "payable",
      "type": "function"
    },
    {
      "inputs": [
        {
          "internalType": "address",
          "name": "_from",
          "type": "address"
        },
        {
          "internalType": "uint16",
          "name": "_dstChainId",
          "type": "uint16"
        },
        {
          "internalType": "bytes32",
          "name": "_toAddress",
          "type": "bytes32"
        },
        {
          "internalType": "uint256",
          "name": "_amount",
          "type": "uint256"
        },
        {
          "internalType": "bytes",
          "name": "_payload",
          "type": "bytes"
        },
        {
          "internalType": "uint64",
          "name": "_dstGasForCall",
          "type": "uint64"
        },
        {
          "components": [
            {
              "internalType": "address payable",
              "name": "refundAddress",
              "type": "address"
            },
            {
              "internalType": "address",
              "name": "zroPaymentAddress",
              "type": "address"
            },
            {
              "internalType": "bytes",
              "name": "adapterParams",
              "type": "bytes"
            }
          ],
          "internalType": "struct ICommonOFT.LzCallParams",
          "name": "_callParams",
          "type": "tuple"
        }
      ],
      "name": "sendAndCall",
      "outputs": [],
      "stateMutability": "payable",
      "type": "function"
    },
    {
      "inputs": [
        {
          "internalType": "address",
          "name": "_from",
          "type": "address"
        },
        {
          "internalType": "uint16",
          "name": "_dstChainId",
          "type": "uint16"
        },
        {
          "internalType": "bytes32",
          "name": "_toAddress",
          "type": "bytes32"
        },
        {
          "internalType": "uint256",
          "name": "_amount",
          "type": "uint256"
        },
        {
          "components": [
            {
              "internalType": "address payable",
              "name": "refundAddress",
              "type": "address"
            },
            {
              "internalType": "address",
              "name": "zroPaymentAddress",
              "type": "address"
            },
            {
              "internalType": "bytes",
              "name": "adapterParams",
              "type": "bytes"
            }
          ],
          "internalType": "struct ICommonOFT.LzCallParams",
          "name": "_callParams",
          "type": "tuple"
        }
      ],
      "name": "sendFrom",
      "outputs": [],
      "stateMutability": "payable",
      "type": "function"
    },
    {
      "inputs": [
        {
          "internalType": "uint16",
          "name": "_version",
          "type": "uint16"
        },
        {
          "internalType": "uint16",
          "name": "_chainId",
          "type": "uint16"
        },
        {
          "internalType": "uint256",
          "name": "_configType",
          "type": "uint256"
        },
        {
          "internalType": "bytes",
          "name": "_config",
          "type": "bytes"
        }
      ],
      "name": "setConfig",
      "outputs": [],
      "stateMutability": "nonpayable",
      "type": "function"
    },
    {
      "inputs": [
        {
          "internalType": "uint16",
          "name": "_dstChainId",
          "type": "uint16"
        },
        {
          "internalType": "uint16",
          "name": "_packetType",
          "type": "uint16"
        },
        {
          "internalType": "uint256",
          "name": "_minGas",
          "type": "uint256"
        }
      ],
      "name": "setMinDstGas",
      "outputs": [],
      "stateMutability": "nonpayable",
      "type": "function"
    },
    {
      "inputs": [
        {
          "internalType": "uint16",
          "name": "_dstChainId",
          "type": "uint16"
        },
        {
          "internalType": "uint256",
          "name": "_size",
          "type": "uint256"
        }
      ],
      "name": "setPayloadSizeLimit",
      "outputs": [],
      "stateMutability": "nonpayable",
      "type": "function"
    },
    {
      "inputs": [
        {
          "internalType": "address",
          "name": "_precrime",
          "type": "address"
        }
      ],
      "name": "setPrecrime",
      "outputs": [],
      "stateMutability": "nonpayable",
      "type": "function"
    },
    {
      "inputs": [
        {
          "internalType": "uint16",
          "name": "_version",
          "type": "uint16"
        }
      ],
      "name": "setReceiveVersion",
      "outputs": [],
      "stateMutability": "nonpayable",
      "type": "function"
    },
    {
      "inputs": [
        {
          "internalType": "uint16",
          "name": "_version",
          "type": "uint16"
        }
      ],
      "name": "setSendVersion",
      "outputs": [],
      "stateMutability": "nonpayable",
      "type": "function"
    },
    {
      "inputs": [
        {
          "internalType": "uint16",
          "name": "_remoteChainId",
          "type": "uint16"
        },
        {
          "internalType": "bytes",
          "name": "_path",
          "type": "bytes"
        }
      ],
      "name": "setTrustedRemote",
      "outputs": [],
      "stateMutability": "nonpayable",
      "type": "function"
    },
    {
      "inputs": [
        {
          "internalType": "uint16",
          "name": "_remoteChainId",
          "type": "uint16"
        },
        {
          "internalType": "bytes",
          "name": "_remoteAddress",
          "type": "bytes"
        }
      ],
      "name": "setTrustedRemoteAddress",
      "outputs": [],
      "stateMutability": "nonpayable",
      "type": "function"
    },
    {
      "inputs": [],
      "name": "sharedDecimals",
      "outputs": [
        {
          "internalType": "uint8",
          "name": "",
          "type": "uint8"
        }
      ],
      "stateMutability": "view",
      "type": "function"
    },
    {
      "inputs": [
        {
          "internalType": "bytes4",
          "name": "interfaceId",
          "type": "bytes4"
        }
      ],
      "name": "supportsInterface",
      "outputs": [
        {
          "internalType": "bool",
          "name": "",
          "type": "bool"
        }
      ],
      "stateMutability": "view",
      "type": "function"
    },
    {
      "inputs": [],
      "name": "token",
      "outputs": [
        {
          "internalType": "address",
          "name": "",
          "type": "address"
        }
      ],
      "stateMutability": "view",
      "type": "function"
    },
    {
      "inputs": [
        {
          "internalType": "address",
          "name": "newOwner",
          "type": "address"
        }
      ],
      "name": "transferOwnership",
      "outputs": [],
      "stateMutability": "nonpayable",
      "type": "function"
    },
    {
      "inputs": [
        {
          "internalType": "uint16",
          "name": "",
          "type": "uint16"
        }
      ],
      "name": "trustedRemoteLookup",
      "outputs": [
        {
          "internalType": "bytes",
          "name": "",
          "type": "bytes"
        }
      ],
      "stateMutability": "view",
      "type": "function"
    }
  ],
  "transactionHash": "0xf38d6583e8b31bbfbc24131a1d9304e0222e49b2ad406ca3a9c73cf99cd0c74d",
  "args": [
    "0x95CeF13441Be50d20cA4558CC0a27B601aC544E5",
    "0xb6319cC6c8c27A8F5dAF0dD3DF91EA35C4720dd7"
  ],
  "numDeployments": 1,
  "solcInputHash": "0bbb82c011976a08d7225e9778e80a72",
  "bytecode": "0x6101006040523480156200001257600080fd5b50604051620043253803806200432583398101604081905262000035916200026e565b816006828181818180806200004a3362000201565b6001600160a01b0390811660805260ff90931660a0525050851660c081905260408051600481526024810182526020810180516001600160e01b031663313ce56760e01b179052905160009450849350620000a69190620002a6565b600060405180830381855afa9150503d8060008114620000e3576040519150601f19603f3d011682016040523d82523d6000602084013e620000e8565b606091505b5091509150816200014f5760405162461bcd60e51b815260206004820152602660248201527f50726f78794f46543a206661696c656420746f2067657420746f6b656e20646560448201526563696d616c7360d01b60648201526084015b60405180910390fd5b600081806020019051810190620001679190620002e4565b90508060ff168560ff161115620001d65760405162461bcd60e51b815260206004820152602c60248201527f50726f78794f46543a20736861726564446563696d616c73206d75737420626560448201526b203c3d20646563696d616c7360a01b606482015260840162000146565b620001e2858262000326565b620001ef90600a6200044b565b60e052506200045c9650505050505050565b600080546001600160a01b038381166001600160a01b0319831681178455604051919092169283917f8be0079c531659141344cd1fd0a4f28419497f9722a3daafe3b4186f6b6457e09190a35050565b80516001600160a01b03811681146200026957600080fd5b919050565b600080604083850312156200028257600080fd5b6200028d8362000251565b91506200029d6020840162000251565b90509250929050565b6000825160005b81811015620002c95760208186018101518583015201620002ad565b81811115620002d9576000828501525b509190910192915050565b600060208284031215620002f757600080fd5b815160ff811681146200030957600080fd5b9392505050565b634e487b7160e01b600052601160045260246000fd5b600060ff821660ff84168082101562000343576200034362000310565b90039392505050565b600181815b808511156200038d57816000190482111562000371576200037162000310565b808516156200037f57918102915b93841c939080029062000351565b509250929050565b600082620003a65750600162000445565b81620003b55750600062000445565b8160018114620003ce5760028114620003d957620003f9565b600191505062000445565b60ff841115620003ed57620003ed62000310565b50506001821b62000445565b5060208310610133831016604e8410600b84101617156200041e575081810a62000445565b6200042a83836200034c565b806000190482111562000441576200044162000310565b0290505b92915050565b60006200030960ff84168362000395565b60805160a05160c05160e051613e186200050d6000396000818161217f015281816125d50152612a710152600081816107aa01528181610f8901528181611ec301528181611f4e01528181611f8701528181611fd001526126a3015260006104c001526000818161065b015281816107d101528181610a5701528181610aff01528181610c77015281816112c5015281816117d30152818161199001528181611e1101526128880152613e186000f3fe60806040526004361061022f5760003560e01c80638da5cb5b1161012e578063c4461834116100ab578063eaffd49a1161006f578063eaffd49a1461071b578063eb8d72b71461073b578063f2fde38b1461075b578063f5ecbdbc1461077b578063fc0c546a1461079b57600080fd5b8063c44618341461069d578063cbed8b9c146106b3578063d1deba1f146106d3578063df2a5b3b146106e6578063e6a20ae61461070657600080fd5b80639f38369a116100f25780639f38369a146105e9578063a4c51df514610609578063a6c3d16514610629578063b353aaa714610649578063baf3292d1461067d57600080fd5b80638da5cb5b1461051a5780639358928b1461054c578063950c8a74146105615780639689cb05146105815780639bdb98121461059757600080fd5b806344770515116101bc578063715018a611610180578063715018a6146104595780637533d7881461046e57806376203b481461049b578063857749b0146104ae5780638cfd8f5c146104e257600080fd5b8063447705151461039b5780634c42899a146103b05780635b8c41e6146103d757806366ad5c8a14610426578063695ef6bf1461044657600080fd5b806310ddb1371161020357806310ddb137146102cb578063365260b4146102eb5780633d8b38f6146103205780633f1f4fa41461034057806342d65a8d1461037b57600080fd5b80621d35671461023457806301ffc9a71461025657806307e0db171461028b5780630df37483146102ab575b600080fd5b34801561024057600080fd5b5061025461024f3660046130f4565b6107ce565b005b34801561026257600080fd5b50610276610271366004613187565b6109ff565b60405190151581526020015b60405180910390f35b34801561029757600080fd5b506102546102a63660046131b1565b610a36565b3480156102b757600080fd5b506102546102c63660046131cc565b610abf565b3480156102d757600080fd5b506102546102e63660046131b1565b610ade565b3480156102f757600080fd5b5061030b610306366004613204565b610b36565b60408051928352602083019190915201610282565b34801561032c57600080fd5b5061027661033b36600461326b565b610b8b565b34801561034c57600080fd5b5061036d61035b3660046131b1565b60036020526000908152604090205481565b604051908152602001610282565b34801561038757600080fd5b5061025461039636600461326b565b610c58565b3480156103a757600080fd5b5061036d600081565b3480156103bc57600080fd5b506103c5600081565b60405160ff9091168152602001610282565b3480156103e357600080fd5b5061036d6103f236600461332a565b6005602090815260009384526040808520845180860184018051928152908401958401959095209452929052825290205481565b34801561043257600080fd5b506102546104413660046130f4565b610cde565b6102546104543660046133f7565b610dba565b34801561046557600080fd5b50610254610e25565b34801561047a57600080fd5b5061048e6104893660046131b1565b610e39565b60405161028291906134c2565b6102546104a93660046134d5565b610ed3565b3480156104ba57600080fd5b506103c57f000000000000000000000000000000000000000000000000000000000000000081565b3480156104ee57600080fd5b5061036d6104fd366004613587565b600260209081526000928352604080842090915290825290205481565b34801561052657600080fd5b506000546001600160a01b03165b6040516001600160a01b039091168152602001610282565b34801561055857600080fd5b5061036d610f82565b34801561056d57600080fd5b50600454610534906001600160a01b031681565b34801561058d57600080fd5b5061036d60075481565b3480156105a357600080fd5b506102766105b236600461332a565b6006602090815260009384526040808520845180860184018051928152908401958401959095209452929052825290205460ff1681565b3480156105f557600080fd5b5061048e6106043660046131b1565b611018565b34801561061557600080fd5b5061030b6106243660046135ba565b611128565b34801561063557600080fd5b5061025461064436600461326b565b6111b7565b34801561065557600080fd5b506105347f000000000000000000000000000000000000000000000000000000000000000081565b34801561068957600080fd5b50610254610698366004613677565b61124a565b3480156106a957600080fd5b5061036d61271081565b3480156106bf57600080fd5b506102546106ce366004613694565b6112a6565b6102546106e13660046130f4565b611330565b3480156106f257600080fd5b50610254610701366004613702565b611546565b34801561071257600080fd5b506103c5600181565b34801561072757600080fd5b5061025461073636600461373e565b6115b0565b34801561074757600080fd5b5061025461075636600461326b565b6116cf565b34801561076757600080fd5b50610254610776366004613677565b611729565b34801561078757600080fd5b5061048e610796366004613806565b6117a2565b3480156107a757600080fd5b507f0000000000000000000000000000000000000000000000000000000000000000610534565b337f00000000000000000000000000000000000000000000000000000000000000006001600160a01b03161461084b5760405162461bcd60e51b815260206004820152601e60248201527f4c7a4170703a20696e76616c696420656e64706f696e742063616c6c6572000060448201526064015b60405180910390fd5b61ffff86166000908152600160205260408120805461086990613853565b80601f016020809104026020016040519081016040528092919081815260200182805461089590613853565b80156108e25780601f106108b7576101008083540402835291602001916108e2565b820191906000526020600020905b8154815290600101906020018083116108c557829003601f168201915b505050505090508051868690501480156108fd575060008151115b801561092557508051602082012060405161091b9088908890613888565b6040518091039020145b6109805760405162461bcd60e51b815260206004820152602660248201527f4c7a4170703a20696e76616c696420736f757263652073656e64696e6720636f6044820152651b9d1c9858dd60d21b6064820152608401610842565b6109f68787878080601f01602080910402602001604051908101604052809392919081815260200183838082843760009201919091525050604080516020601f8a018190048102820181019092528881528a93509150889088908190840183828082843760009201919091525061185592505050565b50505050505050565b60006001600160e01b03198216631f7ecdf760e01b1480610a3057506301ffc9a760e01b6001600160e01b03198316145b92915050565b610a3e6118ce565b6040516307e0db1760e01b815261ffff821660048201527f00000000000000000000000000000000000000000000000000000000000000006001600160a01b0316906307e0db17906024015b600060405180830381600087803b158015610aa457600080fd5b505af1158015610ab8573d6000803e3d6000fd5b5050505050565b610ac76118ce565b61ffff909116600090815260036020526040902055565b610ae66118ce565b6040516310ddb13760e01b815261ffff821660048201527f00000000000000000000000000000000000000000000000000000000000000006001600160a01b0316906310ddb13790602401610a8a565b600080610b7c8888888888888080601f01602080910402602001604051908101604052809392919081815260200183838082843760009201919091525061192892505050565b91509150965096945050505050565b61ffff831660009081526001602052604081208054829190610bac90613853565b80601f0160208091040260200160405190810160405280929190818152602001828054610bd890613853565b8015610c255780601f10610bfa57610100808354040283529160200191610c25565b820191906000526020600020905b815481529060010190602001808311610c0857829003601f168201915b505050505090508383604051610c3c929190613888565b60405180910390208180519060200120149150505b9392505050565b610c606118ce565b6040516342d65a8d60e01b81526001600160a01b037f000000000000000000000000000000000000000000000000000000000000000016906342d65a8d90610cb0908690869086906004016138c1565b600060405180830381600087803b158015610cca57600080fd5b505af11580156109f6573d6000803e3d6000fd5b333014610d3c5760405162461bcd60e51b815260206004820152602660248201527f4e6f6e626c6f636b696e674c7a4170703a2063616c6c6572206d7573742062656044820152650204c7a4170760d41b6064820152608401610842565b610db28686868080601f01602080910402602001604051908101604052809392919081815260200183838082843760009201919091525050604080516020601f890181900481028201810190925287815289935091508790879081908401838280828437600092019190915250611a1c92505050565b505050505050565b610db285858585610dce6020870187613677565b610dde6040880160208901613677565b610deb60408901896138df565b8080601f016020809104026020016040519081016040528093929190818152602001838380828437600092019190915250611aa392505050565b610e2d6118ce565b610e376000611b8b565b565b60016020526000908152604090208054610e5290613853565b80601f0160208091040260200160405190810160405280929190818152602001828054610e7e90613853565b8015610ecb5780601f10610ea057610100808354040283529160200191610ecb565b820191906000526020600020905b815481529060010190602001808311610eae57829003601f168201915b505050505081565b610f778888888888888080601f0160208091040260200160405190810160405280939291908181526020018383808284376000920191909152508a9250610f209150506020890189613677565b610f3060408a0160208b01613677565b610f3d60408b018b6138df565b8080601f016020809104026020016040519081016040528093929190818152602001838380828437600092019190915250611bdb92505050565b505050505050505050565b60006007547f00000000000000000000000000000000000000000000000000000000000000006001600160a01b03166318160ddd6040518163ffffffff1660e01b8152600401602060405180830381865afa158015610fe5573d6000803e3d6000fd5b505050506040513d601f19601f820116820180604052508101906110099190613925565b6110139190613954565b905090565b61ffff811660009081526001602052604081208054606092919061103b90613853565b80601f016020809104026020016040519081016040528092919081815260200182805461106790613853565b80156110b45780601f10611089576101008083540402835291602001916110b4565b820191906000526020600020905b81548152906001019060200180831161109757829003601f168201915b5050505050905080516000141561110d5760405162461bcd60e51b815260206004820152601d60248201527f4c7a4170703a206e6f20747275737465642070617468207265636f72640000006044820152606401610842565b610c516000601483516111209190613954565b839190611cd7565b6000806111a58b8b8b8b8b8080601f01602080910402602001604051908101604052809392919081815260200183838082843760009201919091525050604080516020601f8d018190048102820181019092528b81528e93508d9250908c908c9081908401838280828437600092019190915250611de492505050565b91509150995099975050505050505050565b6111bf6118ce565b8181306040516020016111d49392919061396b565b60408051601f1981840301815291815261ffff8516600090815260016020908152919020825161120993919290910190612f71565b507f8c0400cfe2d1199b1a725c78960bcc2a344d869b80590d0f2bd005db15a572ce83838360405161123d939291906138c1565b60405180910390a1505050565b6112526118ce565b600480546001600160a01b0319166001600160a01b0383169081179091556040519081527f5db758e995a17ec1ad84bdef7e8c3293a0bd6179bcce400dff5d4c3d87db726b9060200160405180910390a150565b6112ae6118ce565b6040516332fb62e760e21b81526001600160a01b037f0000000000000000000000000000000000000000000000000000000000000000169063cbed8b9c906113029088908890889088908890600401613991565b600060405180830381600087803b15801561131c57600080fd5b505af1158015610f77573d6000803e3d6000fd5b61ffff861660009081526005602052604080822090516113539088908890613888565b90815260408051602092819003830190206001600160401b038716600090815292529020549050806113d35760405162461bcd60e51b815260206004820152602360248201527f4e6f6e626c6f636b696e674c7a4170703a206e6f2073746f726564206d65737360448201526261676560e81b6064820152608401610842565b8083836040516113e4929190613888565b6040518091039020146114435760405162461bcd60e51b815260206004820152602160248201527f4e6f6e626c6f636b696e674c7a4170703a20696e76616c6964207061796c6f616044820152601960fa1b6064820152608401610842565b61ffff871660009081526005602052604080822090516114669089908990613888565b90815260408051602092819003830181206001600160401b038916600090815290845282902093909355601f880182900482028301820190528682526114fe918991899089908190840183828082843760009201919091525050604080516020601f8a018190048102820181019092528881528a935091508890889081908401838280828437600092019190915250611a1c92505050565b7fc264d91f3adc5588250e1551f547752ca0cfa8f6b530d243b9f9f4cab10ea8e587878787856040516115359594939291906139bf565b60405180910390a150505050505050565b61154e6118ce565b61ffff83811660008181526002602090815260408083209487168084529482529182902085905581519283528201929092529081018290527f9d5c7c0b934da8fefa9c7760c98383778a12dfbfc0c3b3106518f43fb9508ac09060600161123d565b3330146115ff5760405162461bcd60e51b815260206004820152601f60248201527f4f4654436f72653a2063616c6c6572206d757374206265204f4654436f7265006044820152606401610842565b61160a308686611e9f565b9350846001600160a01b03168a61ffff167fbf551ec93859b170f9b2141bd9298bf3f64322c6f7beb2543a0cb669834118bf8660405161164c91815260200190565b60405180910390a3604051633fe79aed60e11b81526001600160a01b03861690637fcf35da908390611690908e908e908e908e908e908d908d908d906004016139fa565b600060405180830381600088803b1580156116aa57600080fd5b5087f11580156116be573d6000803e3d6000fd5b505050505050505050505050505050565b6116d76118ce565b61ffff831660009081526001602052604090206116f5908383612ff5565b507ffa41487ad5d6728f0b19276fa1eddc16558578f5109fc39d2dc33c3230470dab83838360405161123d939291906138c1565b6117316118ce565b6001600160a01b0381166117965760405162461bcd60e51b815260206004820152602660248201527f4f776e61626c653a206e6577206f776e657220697320746865207a65726f206160448201526564647265737360d01b6064820152608401610842565b61179f81611b8b565b50565b604051633d7b2f6f60e21b815261ffff808616600483015284166024820152306044820152606481018290526060907f00000000000000000000000000000000000000000000000000000000000000006001600160a01b03169063f5ecbdbc90608401600060405180830381865afa158015611822573d6000803e3d6000fd5b505050506040513d6000823e601f3d908101601f1916820160405261184a9190810190613a55565b90505b949350505050565b6000806118b85a60966366ad5c8a60e01b8989898960405160240161187d9493929190613ac2565b60408051601f198184030181529190526020810180516001600160e01b03166001600160e01b03199093169290921790915230929190612050565b9150915081610db257610db286868686856120da565b6000546001600160a01b03163314610e375760405162461bcd60e51b815260206004820181905260248201527f4f776e61626c653a2063616c6c6572206973206e6f7420746865206f776e65726044820152606401610842565b60008060006119768761193a88612177565b6040805160006020820152602181019390935260c09190911b6001600160c01b0319166041830152805160298184030181526049909201905290565b60405163040a7bb160e41b81529091506001600160a01b037f000000000000000000000000000000000000000000000000000000000000000016906340a7bb10906119cd908b90309086908b908b90600401613b00565b6040805180830381865afa1580156119e9573d6000803e3d6000fd5b505050506040513d601f19601f82011682018060405250810190611a0d9190613b54565b92509250509550959350505050565b6000611a2882826121fd565b905060ff8116611a4357611a3e85858585612259565b610ab8565b60ff811660011415611a5b57611a3e858585856122e9565b60405162461bcd60e51b815260206004820152601c60248201527f4f4654436f72653a20756e6b6e6f776e207061636b65742074797065000000006044820152606401610842565b6000611ab1878284816124f8565b611aba856125cd565b509050611ac98888888461260d565b905060008111611b175760405162461bcd60e51b815260206004820152601960248201527813d19510dbdc994e88185b5bdd5b9d081d1bdbc81cdb585b1b603a1b6044820152606401610842565b6000611b268761193a84612177565b9050611b3688828787873461275e565b86896001600160a01b03168961ffff167fd81fc9b8523134ed613870ed029d6170cbb73aa6a6bc311b9a642689fb9df59a85604051611b7791815260200190565b60405180910390a450979650505050505050565b600080546001600160a01b038381166001600160a01b0319831681178455604051919092169283917f8be0079c531659141344cd1fd0a4f28419497f9722a3daafe3b4186f6b6457e09190a35050565b6000611bf3896001846001600160401b0389166124f8565b611bfc876125cd565b509050611c0b8a8a8a8461260d565b905060008111611c595760405162461bcd60e51b815260206004820152601960248201527813d19510dbdc994e88185b5bdd5b9d081d1bdbc81cdb585b1b603a1b6044820152606401610842565b6000611c70338a611c6985612177565b8a8a612904565b9050611c808a828787873461275e565b888b6001600160a01b03168b61ffff167fd81fc9b8523134ed613870ed029d6170cbb73aa6a6bc311b9a642689fb9df59a85604051611cc191815260200190565b60405180910390a4509998505050505050505050565b606081611ce581601f613b78565b1015611d245760405162461bcd60e51b815260206004820152600e60248201526d736c6963655f6f766572666c6f7760901b6044820152606401610842565b611d2e8284613b78565b84511015611d725760405162461bcd60e51b8152602060048201526011602482015270736c6963655f6f75744f66426f756e647360781b6044820152606401610842565b606082158015611d915760405191506000825260208201604052611ddb565b6040519150601f8416801560200281840101858101878315602002848b0101015b81831015611dca578051835260209283019201611db2565b5050858452601f01601f1916604052505b50949350505050565b6000806000611df7338a611c698b612177565b60405163040a7bb160e41b81529091506001600160a01b037f000000000000000000000000000000000000000000000000000000000000000016906340a7bb1090611e4e908d90309086908b908b90600401613b00565b6040805180830381865afa158015611e6a573d6000803e3d6000fd5b505050506040513d601f19601f82011682018060405250810190611e8e9190613b54565b925092505097509795505050505050565b6040516370a0823160e01b81526001600160a01b03838116600483015260009182917f000000000000000000000000000000000000000000000000000000000000000016906370a0823190602401602060405180830381865afa158015611f0a573d6000803e3d6000fd5b505050506040513d601f19601f82011682018060405250810190611f2e9190613925565b90506001600160a01b038516301415611f7a57611f756001600160a01b037f0000000000000000000000000000000000000000000000000000000000000000168585612945565b611faf565b611faf6001600160a01b037f0000000000000000000000000000000000000000000000000000000000000000168686866129ad565b6040516370a0823160e01b81526001600160a01b03858116600483015282917f0000000000000000000000000000000000000000000000000000000000000000909116906370a0823190602401602060405180830381865afa158015612019573d6000803e3d6000fd5b505050506040513d601f19601f8201168201806040525081019061203d9190613925565b6120479190613954565b95945050505050565b6000606060008060008661ffff166001600160401b03811115612075576120756132bd565b6040519080825280601f01601f19166020018201604052801561209f576020820181803683370190505b50905060008087516020890160008d8df191503d9250868311156120c1578692505b828152826000602083013e909890975095505050505050565b8180519060200120600560008761ffff1661ffff1681526020019081526020016000208560405161210b9190613b90565b9081526040805191829003602090810183206001600160401b0388166000908152915220919091557fe183f33de2837795525b4792ca4cd60535bd77c53b7e7030060bfcf5734d6b0c906121689087908790879087908790613bac565b60405180910390a15050505050565b6000806121a47f000000000000000000000000000000000000000000000000000000000000000084613c14565b90506001600160401b03811115610a305760405162461bcd60e51b815260206004820152601a60248201527f4f4654436f72653a20616d6f756e745344206f766572666c6f770000000000006044820152606401610842565b600061220a826001613b78565b835110156122505760405162461bcd60e51b8152602060048201526013602482015272746f55696e74385f6f75744f66426f756e647360681b6044820152606401610842565b50016001015190565b600080612265836129e5565b90925090506001600160a01b03821661227e5761dead91505b600061228982612a6a565b9050612296878483612a9f565b9050826001600160a01b03168761ffff167fbf551ec93859b170f9b2141bd9298bf3f64322c6f7beb2543a0cb669834118bf836040516122d891815260200190565b60405180910390a350505050505050565b60008060008060006122fa86612adb565b945094509450945094506000600660008b61ffff1661ffff1681526020019081526020016000208960405161232f9190613b90565b90815260408051602092819003830190206001600160401b038b166000908152925281205460ff16915061236285612a6a565b9050816123d0576123748b3083612a9f565b61ffff8c1660009081526006602052604090819020905191925060019161239c908d90613b90565b90815260408051602092819003830190206001600160401b038d16600090815292529020805460ff19169115159190911790555b6001600160a01b0386163b612427576040516001600160a01b03871681527f9aedf5fdba8716db3b6705ca00150643309995d4f818a249ed6dde6677e7792d9060200160405180910390a1505050505050506124f2565b8a8a8a8a8a8a868a60008a612445578b6001600160401b0316612447565b5a5b90506000806124795a609663eaffd49a60e01b8e8e8e8d8d8d8d8d60405160240161187d989796959493929190613c28565b9150915081156124d2578751602089012060405161ffff8d16907fb8890edbfc1c74692f527444645f95489c3703cc2df42e4a366f5d06fa6cd884906124c4908e908e908690613c9c565b60405180910390a2506124df565b6124df8b8b8b8b856120da565b5050505050505050505050505050505050505b50505050565b600061250383612b92565b61ffff808716600090815260026020908152604080832093891683529290522054909150806125745760405162461bcd60e51b815260206004820152601a60248201527f4c7a4170703a206d696e4761734c696d6974206e6f74207365740000000000006044820152606401610842565b61257e8382613b78565b821015610db25760405162461bcd60e51b815260206004820152601b60248201527f4c7a4170703a20676173206c696d697420697320746f6f206c6f7700000000006044820152606401610842565b6000806125fa7f000000000000000000000000000000000000000000000000000000000000000084613cca565b90506126068184613954565b9150915091565b60006001600160a01b03851633146126725760405162461bcd60e51b815260206004820152602260248201527f50726f78794f46543a206f776e6572206973206e6f742073656e642063616c6c60448201526132b960f11b6064820152608401610842565b61267d853084611e9f565b915060008061268b846125cd565b909250905080156126ca576126ca6001600160a01b037f0000000000000000000000000000000000000000000000000000000000000000168883612945565b81600760008282546126dc9190613b78565b90915550600090506126f46001600160401b03612a6a565b90506007548110156127525760405162461bcd60e51b815260206004820152602160248201527f50726f78794f46543a206f7574626f756e64416d6f756e74206f766572666c6f6044820152607760f81b6064820152608401610842565b50909695505050505050565b61ffff86166000908152600160205260408120805461277c90613853565b80601f01602080910402602001604051908101604052809291908181526020018280546127a890613853565b80156127f55780601f106127ca576101008083540402835291602001916127f5565b820191906000526020600020905b8154815290600101906020018083116127d857829003601f168201915b505050505090508051600014156128675760405162461bcd60e51b815260206004820152603060248201527f4c7a4170703a2064657374696e6174696f6e20636861696e206973206e6f742060448201526f61207472757374656420736f7572636560801b6064820152608401610842565b612872878751612bee565b60405162c5803160e81b81526001600160a01b037f0000000000000000000000000000000000000000000000000000000000000000169063c58031009084906128c9908b9086908c908c908c908c90600401613cde565b6000604051808303818588803b1580156128e257600080fd5b505af11580156128f6573d6000803e3d6000fd5b505050505050505050505050565b6060600185856001600160a01b038916858760405160200161292b96959493929190613d45565b604051602081830303815290604052905095945050505050565b6040516001600160a01b0383166024820152604481018290526129a890849063a9059cbb60e01b906064015b60408051601f198184030181529190526020810180516001600160e01b03166001600160e01b031990931692909217909152612c5c565b505050565b6040516001600160a01b03808516602483015283166044820152606481018290526124f29085906323b872dd60e01b90608401612971565b600080806129f384826121fd565b60ff16148015612a04575082516029145b612a4b5760405162461bcd60e51b815260206004820152601860248201527713d19510dbdc994e881a5b9d985b1a59081c185e5b1bd85960421b6044820152606401610842565b612a5683600d612d31565b9150612a63836021612d96565b9050915091565b6000610a307f00000000000000000000000000000000000000000000000000000000000000006001600160401b038416613da6565b60008160076000828254612ab39190613954565b90915550506001600160a01b038316301415612ad0575080610c51565b61184d308484611e9f565b600080806060816001612aee87836121fd565b60ff1614612b395760405162461bcd60e51b815260206004820152601860248201527713d19510dbdc994e881a5b9d985b1a59081c185e5b1bd85960421b6044820152606401610842565b612b4486600d612d31565b9350612b51866021612d96565b9250612b5e866029612df3565b9450612b6b866049612d96565b9050612b876051808851612b7f9190613954565b889190611cd7565b915091939590929450565b6000602282511015612be65760405162461bcd60e51b815260206004820152601c60248201527f4c7a4170703a20696e76616c69642061646170746572506172616d73000000006044820152606401610842565b506022015190565b61ffff821660009081526003602052604090205480612c0c57506127105b808211156129a85760405162461bcd60e51b815260206004820181905260248201527f4c7a4170703a207061796c6f61642073697a6520697320746f6f206c617267656044820152606401610842565b6000612cb1826040518060400160405280602081526020017f5361666545524332303a206c6f772d6c6576656c2063616c6c206661696c6564815250856001600160a01b0316612e519092919063ffffffff16565b9050805160001480612cd2575080806020019051810190612cd29190613dc5565b6129a85760405162461bcd60e51b815260206004820152602a60248201527f5361666545524332303a204552433230206f7065726174696f6e20646964206e6044820152691bdd081cdd58d8d9595960b21b6064820152608401610842565b6000612d3e826014613b78565b83511015612d865760405162461bcd60e51b8152602060048201526015602482015274746f416464726573735f6f75744f66426f756e647360581b6044820152606401610842565b500160200151600160601b900490565b6000612da3826008613b78565b83511015612dea5760405162461bcd60e51b8152602060048201526014602482015273746f55696e7436345f6f75744f66426f756e647360601b6044820152606401610842565b50016008015190565b6000612e00826020613b78565b83511015612e485760405162461bcd60e51b8152602060048201526015602482015274746f427974657333325f6f75744f66426f756e647360581b6044820152606401610842565b50016020015190565b606061184d848460008585600080866001600160a01b03168587604051612e789190613b90565b60006040518083038185875af1925050503d8060008114612eb5576040519150601f19603f3d011682016040523d82523d6000602084013e612eba565b606091505b5091509150612ecb87838387612ed6565b979650505050505050565b60608315612f42578251612f3b576001600160a01b0385163b612f3b5760405162461bcd60e51b815260206004820152601d60248201527f416464726573733a2063616c6c20746f206e6f6e2d636f6e74726163740000006044820152606401610842565b508161184d565b61184d8383815115612f575781518083602001fd5b8060405162461bcd60e51b815260040161084291906134c2565b828054612f7d90613853565b90600052602060002090601f016020900481019282612f9f5760008555612fe5565b82601f10612fb857805160ff1916838001178555612fe5565b82800160010185558215612fe5579182015b82811115612fe5578251825591602001919060010190612fca565b50612ff1929150613069565b5090565b82805461300190613853565b90600052602060002090601f0160209004810192826130235760008555612fe5565b82601f1061303c5782800160ff19823516178555612fe5565b82800160010185558215612fe5579182015b82811115612fe557823582559160200191906001019061304e565b5b80821115612ff1576000815560010161306a565b803561ffff8116811461309057600080fd5b919050565b60008083601f8401126130a757600080fd5b5081356001600160401b038111156130be57600080fd5b6020830191508360208285010111156130d657600080fd5b9250929050565b80356001600160401b038116811461309057600080fd5b6000806000806000806080878903121561310d57600080fd5b6131168761307e565b955060208701356001600160401b038082111561313257600080fd5b61313e8a838b01613095565b909750955085915061315260408a016130dd565b9450606089013591508082111561316857600080fd5b5061317589828a01613095565b979a9699509497509295939492505050565b60006020828403121561319957600080fd5b81356001600160e01b031981168114610c5157600080fd5b6000602082840312156131c357600080fd5b610c518261307e565b600080604083850312156131df57600080fd5b6131e88361307e565b946020939093013593505050565b801515811461179f57600080fd5b60008060008060008060a0878903121561321d57600080fd5b6132268761307e565b955060208701359450604087013593506060870135613244816131f6565b925060808701356001600160401b0381111561325f57600080fd5b61317589828a01613095565b60008060006040848603121561328057600080fd5b6132898461307e565b925060208401356001600160401b038111156132a457600080fd5b6132b086828701613095565b9497909650939450505050565b634e487b7160e01b600052604160045260246000fd5b604051601f8201601f191681016001600160401b03811182821017156132fb576132fb6132bd565b604052919050565b60006001600160401b0382111561331c5761331c6132bd565b50601f01601f191660200190565b60008060006060848603121561333f57600080fd5b6133488461307e565b925060208401356001600160401b0381111561336357600080fd5b8401601f8101861361337457600080fd5b803561338761338282613303565b6132d3565b81815287602083850101111561339c57600080fd5b816020840160208301376000602083830101528094505050506133c1604085016130dd565b90509250925092565b6001600160a01b038116811461179f57600080fd5b6000606082840312156133f157600080fd5b50919050565b600080600080600060a0868803121561340f57600080fd5b853561341a816133ca565b94506134286020870161307e565b9350604086013592506060860135915060808601356001600160401b0381111561345157600080fd5b61345d888289016133df565b9150509295509295909350565b60005b8381101561348557818101518382015260200161346d565b838111156124f25750506000910152565b600081518084526134ae81602086016020860161346a565b601f01601f19169290920160200192915050565b602081526000610c516020830184613496565b60008060008060008060008060e0898b0312156134f157600080fd5b88356134fc816133ca565b975061350a60208a0161307e565b9650604089013595506060890135945060808901356001600160401b038082111561353457600080fd5b6135408c838d01613095565b909650945084915061355460a08c016130dd565b935060c08b013591508082111561356a57600080fd5b506135778b828c016133df565b9150509295985092959890939650565b6000806040838503121561359a57600080fd5b6135a38361307e565b91506135b16020840161307e565b90509250929050565b600080600080600080600080600060e08a8c0312156135d857600080fd5b6135e18a61307e565b985060208a0135975060408a0135965060608a01356001600160401b038082111561360b57600080fd5b6136178d838e01613095565b909850965086915061362b60808d016130dd565b955060a08c0135915061363d826131f6565b90935060c08b0135908082111561365357600080fd5b506136608c828d01613095565b915080935050809150509295985092959850929598565b60006020828403121561368957600080fd5b8135610c51816133ca565b6000806000806000608086880312156136ac57600080fd5b6136b58661307e565b94506136c36020870161307e565b93506040860135925060608601356001600160401b038111156136e557600080fd5b6136f188828901613095565b969995985093965092949392505050565b60008060006060848603121561371757600080fd5b6137208461307e565b925061372e6020850161307e565b9150604084013590509250925092565b6000806000806000806000806000806101008b8d03121561375e57600080fd5b6137678b61307e565b995060208b01356001600160401b038082111561378357600080fd5b61378f8e838f01613095565b909b5099508991506137a360408e016130dd565b985060608d0135975060808d013591506137bc826133ca565b90955060a08c0135945060c08c013590808211156137d957600080fd5b506137e68d828e01613095565b9150809450508092505060e08b013590509295989b9194979a5092959850565b6000806000806080858703121561381c57600080fd5b6138258561307e565b93506138336020860161307e565b92506040850135613843816133ca565b9396929550929360600135925050565b600181811c9082168061386757607f821691505b602082108114156133f157634e487b7160e01b600052602260045260246000fd5b8183823760009101908152919050565b81835281816020850137506000828201602090810191909152601f909101601f19169091010190565b61ffff8416815260406020820152600061184a604083018486613898565b6000808335601e198436030181126138f657600080fd5b8301803591506001600160401b0382111561391057600080fd5b6020019150368190038213156130d657600080fd5b60006020828403121561393757600080fd5b5051919050565b634e487b7160e01b600052601160045260246000fd5b6000828210156139665761396661393e565b500390565b8284823760609190911b6bffffffffffffffffffffffff19169101908152601401919050565b600061ffff808816835280871660208401525084604083015260806060830152612ecb608083018486613898565b61ffff861681526080602082015260006139dd608083018688613898565b6001600160401b0394909416604083015250606001529392505050565b61ffff8916815260c060208201526000613a1860c08301898b613898565b6001600160401b038816604084015286606084015285608084015282810360a0840152613a46818587613898565b9b9a5050505050505050505050565b600060208284031215613a6757600080fd5b81516001600160401b03811115613a7d57600080fd5b8201601f81018413613a8e57600080fd5b8051613a9c61338282613303565b818152856020838501011115613ab157600080fd5b61204782602083016020860161346a565b61ffff85168152608060208201526000613adf6080830186613496565b6001600160401b03851660408401528281036060840152612ecb8185613496565b61ffff861681526001600160a01b038516602082015260a060408201819052600090613b2e90830186613496565b84151560608401528281036080840152613b488185613496565b98975050505050505050565b60008060408385031215613b6757600080fd5b505080516020909101519092909150565b60008219821115613b8b57613b8b61393e565b500190565b60008251613ba281846020870161346a565b9190910192915050565b61ffff8616815260a060208201526000613bc960a0830187613496565b6001600160401b03861660408401528281036060840152613bea8186613496565b90508281036080840152613b488185613496565b634e487b7160e01b600052601260045260246000fd5b600082613c2357613c23613bfe565b500490565b600061010061ffff8b168352806020840152613c468184018b613496565b6001600160401b038a166040850152606084018990526001600160a01b038816608085015260a0840187905283810360c08501529050613c868186613496565b9150508260e08301529998505050505050505050565b606081526000613caf6060830186613496565b6001600160401b039490941660208301525060400152919050565b600082613cd957613cd9613bfe565b500690565b61ffff8716815260c060208201526000613cfb60c0830188613496565b8281036040840152613d0d8188613496565b6001600160a01b0387811660608601528616608085015283810360a08501529050613d388185613496565b9998505050505050505050565b60ff60f81b8760f81b16815285600182015260006001600160401b0360c01b808760c01b166021840152856029840152808560c01b166049840152508251613d9481605185016020870161346a565b91909101605101979650505050505050565b6000816000190483118215151615613dc057613dc061393e565b500290565b600060208284031215613dd757600080fd5b8151610c51816131f656fea2646970667358221220859096bac4d1f325e0adf09b5921d7b88feb3148eecf0393cf89a5d9b7422be264736f6c634300080a0033",
  "devdoc": {
    "kind": "dev",
    "methods": {
      "circulatingSupply()": {
        "details": "returns the circulating amount of tokens on current chain"
      },
      "estimateSendFee(uint16,bytes32,uint256,bool,bytes)": {
        "details": "estimate send token `_tokenId` to (`_dstChainId`, `_toAddress`) _dstChainId - L0 defined chain id to send tokens too _toAddress - dynamic bytes array which contains the address to whom you are sending tokens to on the dstChain _amount - amount of the tokens to transfer _useZro - indicates to use zro to pay L0 fees _adapterParam - flexible bytes array to indicate messaging adapter services in L0"
      },
      "owner()": {
        "details": "Returns the address of the current owner."
      },
      "renounceOwnership()": {
        "details": "Leaves the contract without owner. It will not be possible to call `onlyOwner` functions. Can only be called by the current owner. NOTE: Renouncing ownership will leave the contract without an owner, thereby disabling any functionality that is only available to the owner."
      },
      "sendFrom(address,uint16,bytes32,uint256,(address,address,bytes))": {
        "details": "send `_amount` amount of token to (`_dstChainId`, `_toAddress`) from `_from` `_from` the owner of token `_dstChainId` the destination chain identifier `_toAddress` can be any size depending on the `dstChainId`. `_amount` the quantity of tokens in wei `_refundAddress` the address LayerZero refunds if too much message fee is sent `_zroPaymentAddress` set to address(0x0) if not paying in ZRO (LayerZero Token) `_adapterParams` is a flexible bytes array to indicate messaging adapter services"
      },
      "token()": {
        "details": "returns the address of the ERC20 token"
      },
      "transferOwnership(address)": {
        "details": "Transfers ownership of the contract to a new account (`newOwner`). Can only be called by the current owner."
      }
    },
    "version": 1
  },
  "userdoc": {
    "kind": "user",
    "methods": {},
    "version": 1
  },
  "storageLayout": {
    "storage": [
      {
        "astId": 2950,
        "contract": "contracts/OFTs/MantaProxyOFT.sol:MantaProxyOFT",
        "label": "_owner",
        "offset": 0,
        "slot": "0",
        "type": "t_address"
      },
      {
        "astId": 455,
        "contract": "contracts/OFTs/MantaProxyOFT.sol:MantaProxyOFT",
        "label": "trustedRemoteLookup",
        "offset": 0,
        "slot": "1",
        "type": "t_mapping(t_uint16,t_bytes_storage)"
      },
      {
        "astId": 461,
        "contract": "contracts/OFTs/MantaProxyOFT.sol:MantaProxyOFT",
        "label": "minDstGasLookup",
        "offset": 0,
        "slot": "2",
        "type": "t_mapping(t_uint16,t_mapping(t_uint16,t_uint256))"
      },
      {
        "astId": 465,
        "contract": "contracts/OFTs/MantaProxyOFT.sol:MantaProxyOFT",
        "label": "payloadSizeLimitLookup",
        "offset": 0,
        "slot": "3",
        "type": "t_mapping(t_uint16,t_uint256)"
      },
      {
        "astId": 467,
        "contract": "contracts/OFTs/MantaProxyOFT.sol:MantaProxyOFT",
        "label": "precrime",
        "offset": 0,
        "slot": "4",
        "type": "t_address"
      },
      {
        "astId": 997,
        "contract": "contracts/OFTs/MantaProxyOFT.sol:MantaProxyOFT",
        "label": "failedMessages",
        "offset": 0,
        "slot": "5",
        "type": "t_mapping(t_uint16,t_mapping(t_bytes_memory_ptr,t_mapping(t_uint64,t_bytes32)))"
      },
      {
        "astId": 1618,
        "contract": "contracts/OFTs/MantaProxyOFT.sol:MantaProxyOFT",
        "label": "creditedPackets",
        "offset": 0,
        "slot": "6",
        "type": "t_mapping(t_uint16,t_mapping(t_bytes_memory_ptr,t_mapping(t_uint64,t_bool)))"
      },
      {
        "astId": 2557,
        "contract": "contracts/OFTs/MantaProxyOFT.sol:MantaProxyOFT",
        "label": "outboundAmount",
        "offset": 0,
        "slot": "7",
        "type": "t_uint256"
      }
    ],
    "types": {
      "t_address": {
        "encoding": "inplace",
        "label": "address",
        "numberOfBytes": "20"
      },
      "t_bool": {
        "encoding": "inplace",
        "label": "bool",
        "numberOfBytes": "1"
      },
      "t_bytes32": {
        "encoding": "inplace",
        "label": "bytes32",
        "numberOfBytes": "32"
      },
      "t_bytes_memory_ptr": {
        "encoding": "bytes",
        "label": "bytes",
        "numberOfBytes": "32"
      },
      "t_bytes_storage": {
        "encoding": "bytes",
        "label": "bytes",
        "numberOfBytes": "32"
      },
      "t_mapping(t_bytes_memory_ptr,t_mapping(t_uint64,t_bool))": {
        "encoding": "mapping",
        "key": "t_bytes_memory_ptr",
        "label": "mapping(bytes => mapping(uint64 => bool))",
        "numberOfBytes": "32",
        "value": "t_mapping(t_uint64,t_bool)"
      },
      "t_mapping(t_bytes_memory_ptr,t_mapping(t_uint64,t_bytes32))": {
        "encoding": "mapping",
        "key": "t_bytes_memory_ptr",
        "label": "mapping(bytes => mapping(uint64 => bytes32))",
        "numberOfBytes": "32",
        "value": "t_mapping(t_uint64,t_bytes32)"
      },
      "t_mapping(t_uint16,t_bytes_storage)": {
        "encoding": "mapping",
        "key": "t_uint16",
        "label": "mapping(uint16 => bytes)",
        "numberOfBytes": "32",
        "value": "t_bytes_storage"
      },
      "t_mapping(t_uint16,t_mapping(t_bytes_memory_ptr,t_mapping(t_uint64,t_bool)))": {
        "encoding": "mapping",
        "key": "t_uint16",
        "label": "mapping(uint16 => mapping(bytes => mapping(uint64 => bool)))",
        "numberOfBytes": "32",
        "value": "t_mapping(t_bytes_memory_ptr,t_mapping(t_uint64,t_bool))"
      },
      "t_mapping(t_uint16,t_mapping(t_bytes_memory_ptr,t_mapping(t_uint64,t_bytes32)))": {
        "encoding": "mapping",
        "key": "t_uint16",
        "label": "mapping(uint16 => mapping(bytes => mapping(uint64 => bytes32)))",
        "numberOfBytes": "32",
        "value": "t_mapping(t_bytes_memory_ptr,t_mapping(t_uint64,t_bytes32))"
      },
      "t_mapping(t_uint16,t_mapping(t_uint16,t_uint256))": {
        "encoding": "mapping",
        "key": "t_uint16",
        "label": "mapping(uint16 => mapping(uint16 => uint256))",
        "numberOfBytes": "32",
        "value": "t_mapping(t_uint16,t_uint256)"
      },
      "t_mapping(t_uint16,t_uint256)": {
        "encoding": "mapping",
        "key": "t_uint16",
        "label": "mapping(uint16 => uint256)",
        "numberOfBytes": "32",
        "value": "t_uint256"
      },
      "t_mapping(t_uint64,t_bool)": {
        "encoding": "mapping",
        "key": "t_uint64",
        "label": "mapping(uint64 => bool)",
        "numberOfBytes": "32",
        "value": "t_bool"
      },
      "t_mapping(t_uint64,t_bytes32)": {
        "encoding": "mapping",
        "key": "t_uint64",
        "label": "mapping(uint64 => bytes32)",
        "numberOfBytes": "32",
        "value": "t_bytes32"
      },
      "t_uint16": {
        "encoding": "inplace",
        "label": "uint16",
        "numberOfBytes": "2"
      },
      "t_uint256": {
        "encoding": "inplace",
        "label": "uint256",
        "numberOfBytes": "32"
      },
      "t_uint64": {
        "encoding": "inplace",
        "label": "uint64",
        "numberOfBytes": "8"
      }
    }
  }
}