{
  "address": "0x174aEfe55aaC3894696984A2d6a029e668219593",
  "abi": [
    {
      "anonymous": false,
      "inputs": [
        {
          "indexed": true,
          "internalType": "address",
          "name": "caller",
          "type": "address"
        },
        {
          "indexed": true,
          "internalType": "uint256",
          "name": "amount",
          "type": "uint256"
        }
      ],
      "name": "Mint",
      "type": "event"
    },
    {
      "anonymous": false,
      "inputs": [
        {
          "indexed": true,
          "internalType": "address",
          "name": "previousOwner",
          "type": "address"
        },
        {
          "indexed": true,
          "internalType": "address",
          "name": "newOwner",
          "type": "address"
        }
      ],
      "name": "OwnershipTransferred",
      "type": "event"
    },
    {
      "anonymous": false,
      "inputs": [
        {
          "indexed": true,
          "internalType": "address",
          "name": "caller",
          "type": "address"
        },
        {
          "indexed": true,
          "internalType": "uint256",
          "name": "amount",
          "type": "uint256"
        }
      ],
      "name": "Redeem",
      "type": "event"
    },
    {
      "inputs": [],
      "name": "destChainId",
      "outputs": [
        {
          "internalType": "uint16",
          "name": "",
          "type": "uint16"
        }
      ],
      "stateMutability": "view",
      "type": "function"
    },
    {
      "inputs": [
        {
          "internalType": "address",
          "name": "caller",
          "type": "address"
        },
        {
          "internalType": "enum Types.Operation",
          "name": "operation",
          "type": "uint8"
        },
        {
          "internalType": "uint256",
          "name": "_amount",
          "type": "uint256"
        },
        {
          "internalType": "uint64",
          "name": "_dstGasForCall",
          "type": "uint64"
        },
        {
          "internalType": "bytes",
          "name": "_adapterParams",
          "type": "bytes"
        }
      ],
      "name": "estimateSendAndCallFee",
      "outputs": [
        {
          "internalType": "uint256",
          "name": "",
          "type": "uint256"
        },
        {
          "internalType": "bytes",
          "name": "",
          "type": "bytes"
        }
      ],
      "stateMutability": "view",
      "type": "function"
    },
    {
      "inputs": [],
      "name": "manta",
      "outputs": [
        {
          "internalType": "address",
          "name": "",
          "type": "address"
        }
      ],
      "stateMutability": "view",
      "type": "function"
    },
    {
      "inputs": [],
      "name": "mantaOFT",
      "outputs": [
        {
          "internalType": "address",
          "name": "",
          "type": "address"
        }
      ],
      "stateMutability": "view",
      "type": "function"
    },
    {
      "inputs": [
        {
          "internalType": "enum Types.Operation",
          "name": "",
          "type": "uint8"
        }
      ],
      "name": "minAmount",
      "outputs": [
        {
          "internalType": "uint256",
          "name": "",
          "type": "uint256"
        }
      ],
      "stateMutability": "view",
      "type": "function"
    },
    {
      "inputs": [
        {
          "internalType": "uint256",
          "name": "_amount",
          "type": "uint256"
        },
        {
          "internalType": "uint64",
          "name": "_dstGasForCall",
          "type": "uint64"
        },
        {
          "internalType": "bytes",
          "name": "_adapterParams",
          "type": "bytes"
        }
      ],
      "name": "mint",
      "outputs": [],
      "stateMutability": "payable",
      "type": "function"
    },
    {
      "inputs": [],
      "name": "owner",
      "outputs": [
        {
          "internalType": "address",
          "name": "",
          "type": "address"
        }
      ],
      "stateMutability": "view",
      "type": "function"
    },
    {
      "inputs": [
        {
          "internalType": "uint256",
          "name": "_amount",
          "type": "uint256"
        },
        {
          "internalType": "uint64",
          "name": "_dstGasForCall",
          "type": "uint64"
        },
        {
          "internalType": "bytes",
          "name": "_adapterParams",
          "type": "bytes"
        }
      ],
      "name": "redeem",
      "outputs": [],
      "stateMutability": "payable",
      "type": "function"
    },
    {
      "inputs": [],
      "name": "remoteContract",
      "outputs": [
        {
          "internalType": "bytes32",
          "name": "",
          "type": "bytes32"
        }
      ],
      "stateMutability": "view",
      "type": "function"
    },
    {
      "inputs": [],
      "name": "renounceOwnership",
      "outputs": [],
      "stateMutability": "nonpayable",
      "type": "function"
    },
    {
      "inputs": [
        {
          "internalType": "enum Types.Operation",
          "name": "_operation",
          "type": "uint8"
        },
        {
          "internalType": "uint256",
          "name": "_minAmount",
          "type": "uint256"
        }
      ],
      "name": "setMinAmount",
      "outputs": [],
      "stateMutability": "nonpayable",
      "type": "function"
    },
    {
      "inputs": [
        {
          "internalType": "address",
          "name": "_remoteContract",
          "type": "address"
        }
      ],
      "name": "setRemoteContract",
      "outputs": [],
      "stateMutability": "nonpayable",
      "type": "function"
    },
    {
      "inputs": [
        {
          "internalType": "address",
          "name": "newOwner",
          "type": "address"
        }
      ],
      "name": "transferOwnership",
      "outputs": [],
      "stateMutability": "nonpayable",
      "type": "function"
    },
    {
      "inputs": [],
      "name": "vMantaOFT",
      "outputs": [
        {
          "internalType": "address",
          "name": "",
          "type": "address"
        }
      ],
      "stateMutability": "view",
      "type": "function"
    }
  ],
  "transactionHash": "0xb1451636a42aa7d4aa12bf565db455e56464fce042eeacb052b650d5dad4d98b",
  "args": [],
  "numDeployments": 3,
  "solcInputHash": "824b348f206cbec852fbbd6e281a4016",
  "bytecode": "0x608060405234801561001057600080fd5b5061001a3361001f565b61006f565b600080546001600160a01b038381166001600160a01b0319831681178455604051919092169283917f8be0079c531659141344cd1fd0a4f28419497f9722a3daafe3b4186f6b6457e09190a35050565b6110b88061007e6000396000f3fe6080604052600436106100dd5760003560e01c8063aed7bbbb1161007f578063c4af1c0b11610059578063c4af1c0b14610249578063c8b7525914610271578063f012945314610291578063f2fde38b146102b957600080fd5b8063aed7bbbb14610203578063b3754e8614610216578063c0afb3f41461022957600080fd5b806329416368116100bb5780632941636814610179578063715018a6146101a15780638da5cb5b146101b8578063aabdc082146101d657600080fd5b80630663b2d1146100e25780631e77ffca1461010b578063205ff03d1461014b575b600080fd5b3480156100ee57600080fd5b506100f860015481565b6040519081526020015b60405180910390f35b34801561011757600080fd5b50610133737746ef546d562b443ae4b4145541a3b1a3d7571781565b6040516001600160a01b039091168152602001610102565b34801561015757600080fd5b5061016b610166366004610d13565b6102d9565b604051610102929190610ddf565b34801561018557600080fd5b506101337395cef13441be50d20ca4558cc0a27b601ac544e581565b3480156101ad57600080fd5b506101b6610430565b005b3480156101c457600080fd5b506000546001600160a01b0316610133565b3480156101e257600080fd5b506100f86101f1366004610e00565b60026020526000908152604090205481565b6101b6610211366004610e22565b610444565b6101b6610224366004610e22565b6106de565b34801561023557600080fd5b506101b6610244366004610e7c565b610a79565b34801561025557600080fd5b5061025e607e81565b60405161ffff9091168152602001610102565b34801561027d57600080fd5b506101b661028c366004610e97565b610ade565b34801561029d57600080fd5b506101337317313ce6e47d796e61fdeac34ab1f58e3e08908281565b3480156102c557600080fd5b506101b66102d4366004610e7c565b610b64565b60006060818760018111156102f0576102f0610ec1565b14156103b457600088600060405160200161030c929190610ed7565b60408051601f198184030181529082905260015463a4c51df560e01b83529092506000917317313ce6e47d796e61fdeac34ab1f58e3e0890829163a4c51df59161036791607e918d9088908e9089908f908f90600401610f12565b6040805180830381865afa158015610383573d6000803e3d6000fd5b505050506040513d601f19601f820116820180604052508101906103a79190610f8b565b5093509091506104259050565b60008860016040516020016103ca929190610ed7565b60408051601f198184030181529082905260015463a4c51df560e01b8352909250600091737746ef546d562b443ae4b4145541a3b1a3d757179163a4c51df59161036791607e918d9088908e9089908f908f90600401610f12565b965096945050505050565b610438610bdd565b6104426000610c37565b565b600160005260026020527fe90b7bceb6e7df5418fb78d8ee546e97c83a08bbccc01a0644d599ccd2a7c2e0548410156104b75760405162461bcd60e51b815260206004820152601060248201526f185b5bdd5b9d081d1bdbc81cdb585b1b60821b60448201526064015b60405180910390fd5b600060405180606001604052806104cb3390565b6001600160a01b0316815260200160006001600160a01b0316815260200184848080601f016020809104026020016040519081016040528093929190818152602001838380828437600092018290525093909452509293509150819050610537336001898989896102d9565b915091508134101561057b5760405162461bcd60e51b815260206004820152600d60248201526c746f6f20736d616c6c2066656560981b60448201526064016104ae565b81341461061f57600061058e8334610faf565b604051909150600090339083908381818185875af1925050503d80600081146105d3576040519150601f19603f3d011682016040523d82523d6000602084013e6105d8565b606091505b505090508061061c5760405162461bcd60e51b815260206004820152601060248201526f19985a5b1959081d1bc81c99599d5b9960821b60448201526064016104ae565b50505b600154604051630ec4076960e31b8152737746ef546d562b443ae4b4145541a3b1a3d75717916376203b48918591610666913391607e918e9089908f908d90600401610fd4565b6000604051808303818588803b15801561067f57600080fd5b505af1158015610693573d6000803e3d6000fd5b5050505050866106a03390565b6001600160a01b03167f222838db2794d11532d940e8dec38ae307ed0b63cd97c233322e221f998767a660405160405180910390a350505050505050565b6000805260026020527fac33ff75c19e70fe83507db0d683fd3465c996598dc972688b7ace676c89077b5484101561074b5760405162461bcd60e51b815260206004820152601060248201526f185b5bdd5b9d081d1bdbc81cdb585b1b60821b60448201526064016104ae565b7395cef13441be50d20ca4558cc0a27b601ac544e56323b872dd336040516001600160e01b031960e084901b1681526001600160a01b039091166004820152306024820152604481018790526064016020604051808303816000875af11580156107b9573d6000803e3d6000fd5b505050506040513d601f19601f820116820180604052508101906107dd9190611060565b5060405163095ea7b360e01b81527317313ce6e47d796e61fdeac34ab1f58e3e0890826004820152602481018590527395cef13441be50d20ca4558cc0a27b601ac544e59063095ea7b3906044016020604051808303816000875af115801561084a573d6000803e3d6000fd5b505050506040513d601f19601f8201168201806040525081019061086e9190611060565b5060408051606081018252308152600060208083018290528351601f8601829004820281018201855285815291938301919086908690819084018382808284376000920182905250939094525092935091508190506108d2336000898989896102d9565b91509150813410156109165760405162461bcd60e51b815260206004820152600d60248201526c746f6f20736d616c6c2066656560981b60448201526064016104ae565b8134146109ba5760006109298334610faf565b604051909150600090339083908381818185875af1925050503d806000811461096e576040519150601f19603f3d011682016040523d82523d6000602084013e610973565b606091505b50509050806109b75760405162461bcd60e51b815260206004820152601060248201526f19985a5b1959081d1bc81c99599d5b9960821b60448201526064016104ae565b50505b600154604051630ec4076960e31b81527317313ce6e47d796e61fdeac34ab1f58e3e089082916376203b48918591610a01913091607e918e9089908f908d90600401610fd4565b6000604051808303818588803b158015610a1a57600080fd5b505af1158015610a2e573d6000803e3d6000fd5b505050505086610a3b3390565b6001600160a01b03167f0f6798a560793a54c3bcfe86a93cde1e73087d944c0ea20544137d412139688560405160405180910390a350505050505050565b610a81610bdd565b6001600160a01b038116610ad05760405162461bcd60e51b8152602060048201526016602482015275125b9d985b1a59081c995b5bdd1950dbdb9d1c9858dd60521b60448201526064016104ae565b6001600160a01b0316600155565b610ae6610bdd565b80610b275760405162461bcd60e51b8152602060048201526011602482015270125b9d985b1a59081b5a5b905b5bdd5b9d607a1b60448201526064016104ae565b8060026000846001811115610b3e57610b3e610ec1565b6001811115610b4f57610b4f610ec1565b81526020810191909152604001600020555050565b610b6c610bdd565b6001600160a01b038116610bd15760405162461bcd60e51b815260206004820152602660248201527f4f776e61626c653a206e6577206f776e657220697320746865207a65726f206160448201526564647265737360d01b60648201526084016104ae565b610bda81610c37565b50565b6000546001600160a01b031633146104425760405162461bcd60e51b815260206004820181905260248201527f4f776e61626c653a2063616c6c6572206973206e6f7420746865206f776e657260448201526064016104ae565b600080546001600160a01b038381166001600160a01b0319831681178455604051919092169283917f8be0079c531659141344cd1fd0a4f28419497f9722a3daafe3b4186f6b6457e09190a35050565b80356001600160a01b0381168114610c9e57600080fd5b919050565b803560028110610c9e57600080fd5b803567ffffffffffffffff81168114610c9e57600080fd5b60008083601f840112610cdc57600080fd5b50813567ffffffffffffffff811115610cf457600080fd5b602083019150836020828501011115610d0c57600080fd5b9250929050565b60008060008060008060a08789031215610d2c57600080fd5b610d3587610c87565b9550610d4360208801610ca3565b945060408701359350610d5860608801610cb2565b9250608087013567ffffffffffffffff811115610d7457600080fd5b610d8089828a01610cca565b979a9699509497509295939492505050565b6000815180845260005b81811015610db857602081850181015186830182015201610d9c565b81811115610dca576000602083870101525b50601f01601f19169290920160200192915050565b828152604060208201526000610df86040830184610d92565b949350505050565b600060208284031215610e1257600080fd5b610e1b82610ca3565b9392505050565b60008060008060608587031215610e3857600080fd5b84359350610e4860208601610cb2565b9250604085013567ffffffffffffffff811115610e6457600080fd5b610e7087828801610cca565b95989497509550505050565b600060208284031215610e8e57600080fd5b610e1b82610c87565b60008060408385031215610eaa57600080fd5b610eb383610ca3565b946020939093013593505050565b634e487b7160e01b600052602160045260246000fd5b6001600160a01b03831681526040810160028310610f0557634e487b7160e01b600052602160045260246000fd5b8260208301529392505050565b61ffff8916815287602082015286604082015260e060608201526000610f3b60e0830188610d92565b67ffffffffffffffff8716608084015285151560a084015282810360c0840152838152838560208301376000602085830101526020601f19601f8601168201019150509998505050505050505050565b60008060408385031215610f9e57600080fd5b505080516020909101519092909150565b600082821015610fcf57634e487b7160e01b600052601160045260246000fd5b500390565b600060018060a01b03808a16835261ffff8916602084015287604084015286606084015260e0608084015261100c60e0840187610d92565b67ffffffffffffffff861660a085015283810360c085015281855116815281602086015116602082015260408501519150606060408201526110516060820183610d92565b9b9a5050505050505050505050565b60006020828403121561107257600080fd5b81518015158114610e1b57600080fdfea2646970667358221220d37cbe354aec295284583de2f6c7258c67532ce48d7dbbcd560bd2af719bb6ee64736f6c634300080a0033",
  "devdoc": {
    "kind": "dev",
    "methods": {
      "owner()": {
        "details": "Returns the address of the current owner."
      },
      "renounceOwnership()": {
        "details": "Leaves the contract without owner. It will not be possible to call `onlyOwner` functions. Can only be called by the current owner. NOTE: Renouncing ownership will leave the contract without an owner, thereby disabling any functionality that is only available to the owner."
      },
      "transferOwnership(address)": {
        "details": "Transfers ownership of the contract to a new account (`newOwner`). Can only be called by the current owner."
      }
    },
    "version": 1
  },
  "userdoc": {
    "kind": "user",
    "methods": {},
    "version": 1
  },
  "storageLayout": {
    "storage": [
      {
        "astId": 818,
        "contract": "contracts/MantaPacificSlpx.sol:MantaPacificSlpx",
        "label": "_owner",
        "offset": 0,
        "slot": "0",
        "type": "t_address"
      },
      {
        "astId": 1352,
        "contract": "contracts/MantaPacificSlpx.sol:MantaPacificSlpx",
        "label": "remoteContract",
        "offset": 0,
        "slot": "1",
        "type": "t_bytes32"
      },
      {
        "astId": 1357,
        "contract": "contracts/MantaPacificSlpx.sol:MantaPacificSlpx",
        "label": "minAmount",
        "offset": 0,
        "slot": "2",
        "type": "t_mapping(t_enum(Operation)4216,t_uint256)"
      }
    ],
    "types": {
      "t_address": {
        "encoding": "inplace",
        "label": "address",
        "numberOfBytes": "20"
      },
      "t_bytes32": {
        "encoding": "inplace",
        "label": "bytes32",
        "numberOfBytes": "32"
      },
      "t_enum(Operation)4216": {
        "encoding": "inplace",
        "label": "enum Types.Operation",
        "numberOfBytes": "1"
      },
      "t_mapping(t_enum(Operation)4216,t_uint256)": {
        "encoding": "mapping",
        "key": "t_enum(Operation)4216",
        "label": "mapping(enum Types.Operation => uint256)",
        "numberOfBytes": "32",
        "value": "t_uint256"
      },
      "t_uint256": {
        "encoding": "inplace",
        "label": "uint256",
        "numberOfBytes": "32"
      }
    }
  }
}