{
  "address": "0x7746ef546d562b443AE4B4145541a3b1a3D75717",
  "abi": [
    {
      "inputs": [
        {
          "internalType": "address",
          "name": "_lzEndpoint",
          "type": "address"
        }
      ],
      "stateMutability": "nonpayable",
      "type": "constructor"
    },
    {
      "anonymous": false,
      "inputs": [
        {
          "indexed": true,
          "internalType": "address",
          "name": "owner",
          "type": "address"
        },
        {
          "indexed": true,
          "internalType": "address",
          "name": "spender",
          "type": "address"
        },
        {
          "indexed": false,
          "internalType": "uint256",
          "name": "value",
          "type": "uint256"
        }
      ],
      "name": "Approval",
      "type": "event"
    },
    {
      "anonymous": false,
      "inputs": [
        {
          "indexed": true,
          "internalType": "uint16",
          "name": "_srcChainId",
          "type": "uint16"
        },
        {
          "indexed": false,
          "internalType": "bytes",
          "name": "_srcAddress",
          "type": "bytes"
        },
        {
          "indexed": false,
          "internalType": "uint64",
          "name": "_nonce",
          "type": "uint64"
        },
        {
          "indexed": false,
          "internalType": "bytes32",
          "name": "_hash",
          "type": "bytes32"
        }
      ],
      "name": "CallOFTReceivedSuccess",
      "type": "event"
    },
    {
      "anonymous": false,
      "inputs": [
        {
          "indexed": false,
          "internalType": "uint16",
          "name": "_srcChainId",
          "type": "uint16"
        },
        {
          "indexed": false,
          "internalType": "bytes",
          "name": "_srcAddress",
          "type": "bytes"
        },
        {
          "indexed": false,
          "internalType": "uint64",
          "name": "_nonce",
          "type": "uint64"
        },
        {
          "indexed": false,
          "internalType": "bytes",
          "name": "_payload",
          "type": "bytes"
        },
        {
          "indexed": false,
          "internalType": "bytes",
          "name": "_reason",
          "type": "bytes"
        }
      ],
      "name": "MessageFailed",
      "type": "event"
    },
    {
      "anonymous": false,
      "inputs": [
        {
          "indexed": false,
          "internalType": "address",
          "name": "_address",
          "type": "address"
        }
      ],
      "name": "NonContractAddress",
      "type": "event"
    },
    {
      "anonymous": false,
      "inputs": [
        {
          "indexed": true,
          "internalType": "address",
          "name": "previousOwner",
          "type": "address"
        },
        {
          "indexed": true,
          "internalType": "address",
          "name": "newOwner",
          "type": "address"
        }
      ],
      "name": "OwnershipTransferred",
      "type": "event"
    },
    {
      "anonymous": false,
      "inputs": [
        {
          "indexed": true,
          "internalType": "uint16",
          "name": "_srcChainId",
          "type": "uint16"
        },
        {
          "indexed": true,
          "internalType": "address",
          "name": "_to",
          "type": "address"
        },
        {
          "indexed": false,
          "internalType": "uint256",
          "name": "_amount",
          "type": "uint256"
        }
      ],
      "name": "ReceiveFromChain",
      "type": "event"
    },
    {
      "anonymous": false,
      "inputs": [
        {
          "indexed": false,
          "internalType": "uint16",
          "name": "_srcChainId",
          "type": "uint16"
        },
        {
          "indexed": false,
          "internalType": "bytes",
          "name": "_srcAddress",
          "type": "bytes"
        },
        {
          "indexed": false,
          "internalType": "uint64",
          "name": "_nonce",
          "type": "uint64"
        },
        {
          "indexed": false,
          "internalType": "bytes32",
          "name": "_payloadHash",
          "type": "bytes32"
        }
      ],
      "name": "RetryMessageSuccess",
      "type": "event"
    },
    {
      "anonymous": false,
      "inputs": [
        {
          "indexed": true,
          "internalType": "uint16",
          "name": "_dstChainId",
          "type": "uint16"
        },
        {
          "indexed": true,
          "internalType": "address",
          "name": "_from",
          "type": "address"
        },
        {
          "indexed": true,
          "internalType": "bytes32",
          "name": "_toAddress",
          "type": "bytes32"
        },
        {
          "indexed": false,
          "internalType": "uint256",
          "name": "_amount",
          "type": "uint256"
        }
      ],
      "name": "SendToChain",
      "type": "event"
    },
    {
      "anonymous": false,
      "inputs": [
        {
          "indexed": false,
          "internalType": "uint16",
          "name": "_dstChainId",
          "type": "uint16"
        },
        {
          "indexed": false,
          "internalType": "uint16",
          "name": "_type",
          "type": "uint16"
        },
        {
          "indexed": false,
          "internalType": "uint256",
          "name": "_minDstGas",
          "type": "uint256"
        }
      ],
      "name": "SetMinDstGas",
      "type": "event"
    },
    {
      "anonymous": false,
      "inputs": [
        {
          "indexed": false,
          "internalType": "address",
          "name": "precrime",
          "type": "address"
        }
      ],
      "name": "SetPrecrime",
      "type": "event"
    },
    {
      "anonymous": false,
      "inputs": [
        {
          "indexed": false,
          "internalType": "uint16",
          "name": "_remoteChainId",
          "type": "uint16"
        },
        {
          "indexed": false,
          "internalType": "bytes",
          "name": "_path",
          "type": "bytes"
        }
      ],
      "name": "SetTrustedRemote",
      "type": "event"
    },
    {
      "anonymous": false,
      "inputs": [
        {
          "indexed": false,
          "internalType": "uint16",
          "name": "_remoteChainId",
          "type": "uint16"
        },
        {
          "indexed": false,
          "internalType": "bytes",
          "name": "_remoteAddress",
          "type": "bytes"
        }
      ],
      "name": "SetTrustedRemoteAddress",
      "type": "event"
    },
    {
      "anonymous": false,
      "inputs": [
        {
          "indexed": true,
          "internalType": "address",
          "name": "from",
          "type": "address"
        },
        {
          "indexed": true,
          "internalType": "address",
          "name": "to",
          "type": "address"
        },
        {
          "indexed": false,
          "internalType": "uint256",
          "name": "value",
          "type": "uint256"
        }
      ],
      "name": "Transfer",
      "type": "event"
    },
    {
      "inputs": [],
      "name": "DEFAULT_PAYLOAD_SIZE_LIMIT",
      "outputs": [
        {
          "internalType": "uint256",
          "name": "",
          "type": "uint256"
        }
      ],
      "stateMutability": "view",
      "type": "function"
    },
    {
      "inputs": [],
      "name": "NO_EXTRA_GAS",
      "outputs": [
        {
          "internalType": "uint256",
          "name": "",
          "type": "uint256"
        }
      ],
      "stateMutability": "view",
      "type": "function"
    },
    {
      "inputs": [],
      "name": "PT_SEND",
      "outputs": [
        {
          "internalType": "uint8",
          "name": "",
          "type": "uint8"
        }
      ],
      "stateMutability": "view",
      "type": "function"
    },
    {
      "inputs": [],
      "name": "PT_SEND_AND_CALL",
      "outputs": [
        {
          "internalType": "uint8",
          "name": "",
          "type": "uint8"
        }
      ],
      "stateMutability": "view",
      "type": "function"
    },
    {
      "inputs": [
        {
          "internalType": "address",
          "name": "owner",
          "type": "address"
        },
        {
          "internalType": "address",
          "name": "spender",
          "type": "address"
        }
      ],
      "name": "allowance",
      "outputs": [
        {
          "internalType": "uint256",
          "name": "",
          "type": "uint256"
        }
      ],
      "stateMutability": "view",
      "type": "function"
    },
    {
      "inputs": [
        {
          "internalType": "address",
          "name": "spender",
          "type": "address"
        },
        {
          "internalType": "uint256",
          "name": "amount",
          "type": "uint256"
        }
      ],
      "name": "approve",
      "outputs": [
        {
          "internalType": "bool",
          "name": "",
          "type": "bool"
        }
      ],
      "stateMutability": "nonpayable",
      "type": "function"
    },
    {
      "inputs": [
        {
          "internalType": "address",
          "name": "account",
          "type": "address"
        }
      ],
      "name": "balanceOf",
      "outputs": [
        {
          "internalType": "uint256",
          "name": "",
          "type": "uint256"
        }
      ],
      "stateMutability": "view",
      "type": "function"
    },
    {
      "inputs": [
        {
          "internalType": "uint16",
          "name": "_srcChainId",
          "type": "uint16"
        },
        {
          "internalType": "bytes",
          "name": "_srcAddress",
          "type": "bytes"
        },
        {
          "internalType": "uint64",
          "name": "_nonce",
          "type": "uint64"
        },
        {
          "internalType": "bytes32",
          "name": "_from",
          "type": "bytes32"
        },
        {
          "internalType": "address",
          "name": "_to",
          "type": "address"
        },
        {
          "internalType": "uint256",
          "name": "_amount",
          "type": "uint256"
        },
        {
          "internalType": "bytes",
          "name": "_payload",
          "type": "bytes"
        },
        {
          "internalType": "uint256",
          "name": "_gasForCall",
          "type": "uint256"
        }
      ],
      "name": "callOnOFTReceived",
      "outputs": [],
      "stateMutability": "nonpayable",
      "type": "function"
    },
    {
      "inputs": [],
      "name": "circulatingSupply",
      "outputs": [
        {
          "internalType": "uint256",
          "name": "",
          "type": "uint256"
        }
      ],
      "stateMutability": "view",
      "type": "function"
    },
    {
      "inputs": [
        {
          "internalType": "uint16",
          "name": "",
          "type": "uint16"
        },
        {
          "internalType": "bytes",
          "name": "",
          "type": "bytes"
        },
        {
          "internalType": "uint64",
          "name": "",
          "type": "uint64"
        }
      ],
      "name": "creditedPackets",
      "outputs": [
        {
          "internalType": "bool",
          "name": "",
          "type": "bool"
        }
      ],
      "stateMutability": "view",
      "type": "function"
    },
    {
      "inputs": [],
      "name": "decimals",
      "outputs": [
        {
          "internalType": "uint8",
          "name": "",
          "type": "uint8"
        }
      ],
      "stateMutability": "view",
      "type": "function"
    },
    {
      "inputs": [
        {
          "internalType": "address",
          "name": "spender",
          "type": "address"
        },
        {
          "internalType": "uint256",
          "name": "subtractedValue",
          "type": "uint256"
        }
      ],
      "name": "decreaseAllowance",
      "outputs": [
        {
          "internalType": "bool",
          "name": "",
          "type": "bool"
        }
      ],
      "stateMutability": "nonpayable",
      "type": "function"
    },
    {
      "inputs": [
        {
          "internalType": "uint16",
          "name": "_dstChainId",
          "type": "uint16"
        },
        {
          "internalType": "bytes32",
          "name": "_toAddress",
          "type": "bytes32"
        },
        {
          "internalType": "uint256",
          "name": "_amount",
          "type": "uint256"
        },
        {
          "internalType": "bytes",
          "name": "_payload",
          "type": "bytes"
        },
        {
          "internalType": "uint64",
          "name": "_dstGasForCall",
          "type": "uint64"
        },
        {
          "internalType": "bool",
          "name": "_useZro",
          "type": "bool"
        },
        {
          "internalType": "bytes",
          "name": "_adapterParams",
          "type": "bytes"
        }
      ],
      "name": "estimateSendAndCallFee",
      "outputs": [
        {
          "internalType": "uint256",
          "name": "nativeFee",
          "type": "uint256"
        },
        {
          "internalType": "uint256",
          "name": "zroFee",
          "type": "uint256"
        }
      ],
      "stateMutability": "view",
      "type": "function"
    },
    {
      "inputs": [
        {
          "internalType": "uint16",
          "name": "_dstChainId",
          "type": "uint16"
        },
        {
          "internalType": "bytes32",
          "name": "_toAddress",
          "type": "bytes32"
        },
        {
          "internalType": "uint256",
          "name": "_amount",
          "type": "uint256"
        },
        {
          "internalType": "bool",
          "name": "_useZro",
          "type": "bool"
        },
        {
          "internalType": "bytes",
          "name": "_adapterParams",
          "type": "bytes"
        }
      ],
      "name": "estimateSendFee",
      "outputs": [
        {
          "internalType": "uint256",
          "name": "nativeFee",
          "type": "uint256"
        },
        {
          "internalType": "uint256",
          "name": "zroFee",
          "type": "uint256"
        }
      ],
      "stateMutability": "view",
      "type": "function"
    },
    {
      "inputs": [
        {
          "internalType": "uint16",
          "name": "",
          "type": "uint16"
        },
        {
          "internalType": "bytes",
          "name": "",
          "type": "bytes"
        },
        {
          "internalType": "uint64",
          "name": "",
          "type": "uint64"
        }
      ],
      "name": "failedMessages",
      "outputs": [
        {
          "internalType": "bytes32",
          "name": "",
          "type": "bytes32"
        }
      ],
      "stateMutability": "view",
      "type": "function"
    },
    {
      "inputs": [
        {
          "internalType": "uint16",
          "name": "_srcChainId",
          "type": "uint16"
        },
        {
          "internalType": "bytes",
          "name": "_srcAddress",
          "type": "bytes"
        }
      ],
      "name": "forceResumeReceive",
      "outputs": [],
      "stateMutability": "nonpayable",
      "type": "function"
    },
    {
      "inputs": [
        {
          "internalType": "uint16",
          "name": "_version",
          "type": "uint16"
        },
        {
          "internalType": "uint16",
          "name": "_chainId",
          "type": "uint16"
        },
        {
          "internalType": "address",
          "name": "",
          "type": "address"
        },
        {
          "internalType": "uint256",
          "name": "_configType",
          "type": "uint256"
        }
      ],
      "name": "getConfig",
      "outputs": [
        {
          "internalType": "bytes",
          "name": "",
          "type": "bytes"
        }
      ],
      "stateMutability": "view",
      "type": "function"
    },
    {
      "inputs": [
        {
          "internalType": "uint16",
          "name": "_remoteChainId",
          "type": "uint16"
        }
      ],
      "name": "getTrustedRemoteAddress",
      "outputs": [
        {
          "internalType": "bytes",
          "name": "",
          "type": "bytes"
        }
      ],
      "stateMutability": "view",
      "type": "function"
    },
    {
      "inputs": [
        {
          "internalType": "address",
          "name": "spender",
          "type": "address"
        },
        {
          "internalType": "uint256",
          "name": "addedValue",
          "type": "uint256"
        }
      ],
      "name": "increaseAllowance",
      "outputs": [
        {
          "internalType": "bool",
          "name": "",
          "type": "bool"
        }
      ],
      "stateMutability": "nonpayable",
      "type": "function"
    },
    {
      "inputs": [
        {
          "internalType": "uint16",
          "name": "_srcChainId",
          "type": "uint16"
        },
        {
          "internalType": "bytes",
          "name": "_srcAddress",
          "type": "bytes"
        }
      ],
      "name": "isTrustedRemote",
      "outputs": [
        {
          "internalType": "bool",
          "name": "",
          "type": "bool"
        }
      ],
      "stateMutability": "view",
      "type": "function"
    },
    {
      "inputs": [],
      "name": "lzEndpoint",
      "outputs": [
        {
          "internalType": "contract ILayerZeroEndpoint",
          "name": "",
          "type": "address"
        }
      ],
      "stateMutability": "view",
      "type": "function"
    },
    {
      "inputs": [
        {
          "internalType": "uint16",
          "name": "_srcChainId",
          "type": "uint16"
        },
        {
          "internalType": "bytes",
          "name": "_srcAddress",
          "type": "bytes"
        },
        {
          "internalType": "uint64",
          "name": "_nonce",
          "type": "uint64"
        },
        {
          "internalType": "bytes",
          "name": "_payload",
          "type": "bytes"
        }
      ],
      "name": "lzReceive",
      "outputs": [],
      "stateMutability": "nonpayable",
      "type": "function"
    },
    {
      "inputs": [
        {
          "internalType": "uint16",
          "name": "",
          "type": "uint16"
        },
        {
          "internalType": "uint16",
          "name": "",
          "type": "uint16"
        }
      ],
      "name": "minDstGasLookup",
      "outputs": [
        {
          "internalType": "uint256",
          "name": "",
          "type": "uint256"
        }
      ],
      "stateMutability": "view",
      "type": "function"
    },
    {
      "inputs": [],
      "name": "name",
      "outputs": [
        {
          "internalType": "string",
          "name": "",
          "type": "string"
        }
      ],
      "stateMutability": "view",
      "type": "function"
    },
    {
      "inputs": [
        {
          "internalType": "uint16",
          "name": "_srcChainId",
          "type": "uint16"
        },
        {
          "internalType": "bytes",
          "name": "_srcAddress",
          "type": "bytes"
        },
        {
          "internalType": "uint64",
          "name": "_nonce",
          "type": "uint64"
        },
        {
          "internalType": "bytes",
          "name": "_payload",
          "type": "bytes"
        }
      ],
      "name": "nonblockingLzReceive",
      "outputs": [],
      "stateMutability": "nonpayable",
      "type": "function"
    },
    {
      "inputs": [],
      "name": "owner",
      "outputs": [
        {
          "internalType": "address",
          "name": "",
          "type": "address"
        }
      ],
      "stateMutability": "view",
      "type": "function"
    },
    {
      "inputs": [
        {
          "internalType": "uint16",
          "name": "",
          "type": "uint16"
        }
      ],
      "name": "payloadSizeLimitLookup",
      "outputs": [
        {
          "internalType": "uint256",
          "name": "",
          "type": "uint256"
        }
      ],
      "stateMutability": "view",
      "type": "function"
    },
    {
      "inputs": [],
      "name": "precrime",
      "outputs": [
        {
          "internalType": "address",
          "name": "",
          "type": "address"
        }
      ],
      "stateMutability": "view",
      "type": "function"
    },
    {
      "inputs": [],
      "name": "renounceOwnership",
      "outputs": [],
      "stateMutability": "nonpayable",
      "type": "function"
    },
    {
      "inputs": [
        {
          "internalType": "uint16",
          "name": "_srcChainId",
          "type": "uint16"
        },
        {
          "internalType": "bytes",
          "name": "_srcAddress",
          "type": "bytes"
        },
        {
          "internalType": "uint64",
          "name": "_nonce",
          "type": "uint64"
        },
        {
          "internalType": "bytes",
          "name": "_payload",
          "type": "bytes"
        }
      ],
      "name": "retryMessage",
      "outputs": [],
      "stateMutability": "payable",
      "type": "function"
    },
    {
      "inputs": [
        {
          "internalType": "address",
          "name": "_from",
          "type": "address"
        },
        {
          "internalType": "uint16",
          "name": "_dstChainId",
          "type": "uint16"
        },
        {
          "internalType": "bytes32",
          "name": "_toAddress",
          "type": "bytes32"
        },
        {
          "internalType": "uint256",
          "name": "_amount",
          "type": "uint256"
        },
        {
          "internalType": "bytes",
          "name": "_payload",
          "type": "bytes"
        },
        {
          "internalType": "uint64",
          "name": "_dstGasForCall",
          "type": "uint64"
        },
        {
          "components": [
            {
              "internalType": "address payable",
              "name": "refundAddress",
              "type": "address"
            },
            {
              "internalType": "address",
              "name": "zroPaymentAddress",
              "type": "address"
            },
            {
              "internalType": "bytes",
              "name": "adapterParams",
              "type": "bytes"
            }
          ],
          "internalType": "struct ICommonOFT.LzCallParams",
          "name": "_callParams",
          "type": "tuple"
        }
      ],
      "name": "sendAndCall",
      "outputs": [],
      "stateMutability": "payable",
      "type": "function"
    },
    {
      "inputs": [
        {
          "internalType": "address",
          "name": "_from",
          "type": "address"
        },
        {
          "internalType": "uint16",
          "name": "_dstChainId",
          "type": "uint16"
        },
        {
          "internalType": "bytes32",
          "name": "_toAddress",
          "type": "bytes32"
        },
        {
          "internalType": "uint256",
          "name": "_amount",
          "type": "uint256"
        },
        {
          "components": [
            {
              "internalType": "address payable",
              "name": "refundAddress",
              "type": "address"
            },
            {
              "internalType": "address",
              "name": "zroPaymentAddress",
              "type": "address"
            },
            {
              "internalType": "bytes",
              "name": "adapterParams",
              "type": "bytes"
            }
          ],
          "internalType": "struct ICommonOFT.LzCallParams",
          "name": "_callParams",
          "type": "tuple"
        }
      ],
      "name": "sendFrom",
      "outputs": [],
      "stateMutability": "payable",
      "type": "function"
    },
    {
      "inputs": [
        {
          "internalType": "uint16",
          "name": "_version",
          "type": "uint16"
        },
        {
          "internalType": "uint16",
          "name": "_chainId",
          "type": "uint16"
        },
        {
          "internalType": "uint256",
          "name": "_configType",
          "type": "uint256"
        },
        {
          "internalType": "bytes",
          "name": "_config",
          "type": "bytes"
        }
      ],
      "name": "setConfig",
      "outputs": [],
      "stateMutability": "nonpayable",
      "type": "function"
    },
    {
      "inputs": [
        {
          "internalType": "uint16",
          "name": "_dstChainId",
          "type": "uint16"
        },
        {
          "internalType": "uint16",
          "name": "_packetType",
          "type": "uint16"
        },
        {
          "internalType": "uint256",
          "name": "_minGas",
          "type": "uint256"
        }
      ],
      "name": "setMinDstGas",
      "outputs": [],
      "stateMutability": "nonpayable",
      "type": "function"
    },
    {
      "inputs": [
        {
          "internalType": "uint16",
          "name": "_dstChainId",
          "type": "uint16"
        },
        {
          "internalType": "uint256",
          "name": "_size",
          "type": "uint256"
        }
      ],
      "name": "setPayloadSizeLimit",
      "outputs": [],
      "stateMutability": "nonpayable",
      "type": "function"
    },
    {
      "inputs": [
        {
          "internalType": "address",
          "name": "_precrime",
          "type": "address"
        }
      ],
      "name": "setPrecrime",
      "outputs": [],
      "stateMutability": "nonpayable",
      "type": "function"
    },
    {
      "inputs": [
        {
          "internalType": "uint16",
          "name": "_version",
          "type": "uint16"
        }
      ],
      "name": "setReceiveVersion",
      "outputs": [],
      "stateMutability": "nonpayable",
      "type": "function"
    },
    {
      "inputs": [
        {
          "internalType": "uint16",
          "name": "_version",
          "type": "uint16"
        }
      ],
      "name": "setSendVersion",
      "outputs": [],
      "stateMutability": "nonpayable",
      "type": "function"
    },
    {
      "inputs": [
        {
          "internalType": "uint16",
          "name": "_remoteChainId",
          "type": "uint16"
        },
        {
          "internalType": "bytes",
          "name": "_path",
          "type": "bytes"
        }
      ],
      "name": "setTrustedRemote",
      "outputs": [],
      "stateMutability": "nonpayable",
      "type": "function"
    },
    {
      "inputs": [
        {
          "internalType": "uint16",
          "name": "_remoteChainId",
          "type": "uint16"
        },
        {
          "internalType": "bytes",
          "name": "_remoteAddress",
          "type": "bytes"
        }
      ],
      "name": "setTrustedRemoteAddress",
      "outputs": [],
      "stateMutability": "nonpayable",
      "type": "function"
    },
    {
      "inputs": [],
      "name": "sharedDecimals",
      "outputs": [
        {
          "internalType": "uint8",
          "name": "",
          "type": "uint8"
        }
      ],
      "stateMutability": "view",
      "type": "function"
    },
    {
      "inputs": [
        {
          "internalType": "bytes4",
          "name": "interfaceId",
          "type": "bytes4"
        }
      ],
      "name": "supportsInterface",
      "outputs": [
        {
          "internalType": "bool",
          "name": "",
          "type": "bool"
        }
      ],
      "stateMutability": "view",
      "type": "function"
    },
    {
      "inputs": [],
      "name": "symbol",
      "outputs": [
        {
          "internalType": "string",
          "name": "",
          "type": "string"
        }
      ],
      "stateMutability": "view",
      "type": "function"
    },
    {
      "inputs": [],
      "name": "token",
      "outputs": [
        {
          "internalType": "address",
          "name": "",
          "type": "address"
        }
      ],
      "stateMutability": "view",
      "type": "function"
    },
    {
      "inputs": [],
      "name": "totalSupply",
      "outputs": [
        {
          "internalType": "uint256",
          "name": "",
          "type": "uint256"
        }
      ],
      "stateMutability": "view",
      "type": "function"
    },
    {
      "inputs": [
        {
          "internalType": "address",
          "name": "to",
          "type": "address"
        },
        {
          "internalType": "uint256",
          "name": "amount",
          "type": "uint256"
        }
      ],
      "name": "transfer",
      "outputs": [
        {
          "internalType": "bool",
          "name": "",
          "type": "bool"
        }
      ],
      "stateMutability": "nonpayable",
      "type": "function"
    },
    {
      "inputs": [
        {
          "internalType": "address",
          "name": "from",
          "type": "address"
        },
        {
          "internalType": "address",
          "name": "to",
          "type": "address"
        },
        {
          "internalType": "uint256",
          "name": "amount",
          "type": "uint256"
        }
      ],
      "name": "transferFrom",
      "outputs": [
        {
          "internalType": "bool",
          "name": "",
          "type": "bool"
        }
      ],
      "stateMutability": "nonpayable",
      "type": "function"
    },
    {
      "inputs": [
        {
          "internalType": "address",
          "name": "newOwner",
          "type": "address"
        }
      ],
      "name": "transferOwnership",
      "outputs": [],
      "stateMutability": "nonpayable",
      "type": "function"
    },
    {
      "inputs": [
        {
          "internalType": "uint16",
          "name": "",
          "type": "uint16"
        }
      ],
      "name": "trustedRemoteLookup",
      "outputs": [
        {
          "internalType": "bytes",
          "name": "",
          "type": "bytes"
        }
      ],
      "stateMutability": "view",
      "type": "function"
    }
  ],
  "transactionHash": "0xd2c4fa526c52ba43913372878e12d5c7b6f589db38ef5ca068c53b6077fdb691",
  "args": [
    "0xb6319cC6c8c27A8F5dAF0dD3DF91EA35C4720dd7"
  ],
  "numDeployments": 1,
  "solcInputHash": "35889166a514e701f6402a91669c8624",
  "bytecode": "0x60e06040523480156200001157600080fd5b506040516200461238038062004612833981016040819052620000349162000299565b6040518060400160405280601581526020017f426966726f737420566f7563686572204d414e5441000000000000000000000081525060405180604001604052806006815260200165764d414e544160d01b8152506006838383838381818080620000ae620000a86200019a60201b60201c565b6200019e565b6001600160a01b0316608052505060ff1660a05250508151620000d990600a906020850190620001f3565b508051620000ef90600b906020840190620001f3565b505050600062000104620001ee60201b60201c565b90508060ff168360ff161115620001715760405162461bcd60e51b815260206004820152602760248201527f4f46543a20736861726564446563696d616c73206d757374206265203c3d20646044820152666563696d616c7360c81b606482015260840160405180910390fd5b6200017d8382620002e1565b6200018a90600a62000406565b60c0525062000454945050505050565b3390565b600080546001600160a01b038381166001600160a01b0319831681178455604051919092169283917f8be0079c531659141344cd1fd0a4f28419497f9722a3daafe3b4186f6b6457e09190a35050565b601290565b828054620002019062000417565b90600052602060002090601f01602090048101928262000225576000855562000270565b82601f106200024057805160ff191683800117855562000270565b8280016001018555821562000270579182015b828111156200027057825182559160200191906001019062000253565b506200027e92915062000282565b5090565b5b808211156200027e576000815560010162000283565b600060208284031215620002ac57600080fd5b81516001600160a01b0381168114620002c457600080fd5b9392505050565b634e487b7160e01b600052601160045260246000fd5b600060ff821660ff841680821015620002fe57620002fe620002cb565b90039392505050565b600181815b80851115620003485781600019048211156200032c576200032c620002cb565b808516156200033a57918102915b93841c93908002906200030c565b509250929050565b600082620003615750600162000400565b81620003705750600062000400565b81600181146200038957600281146200039457620003b4565b600191505062000400565b60ff841115620003a857620003a8620002cb565b50506001821b62000400565b5060208310610133831016604e8410600b8410161715620003d9575081810a62000400565b620003e5838362000307565b8060001904821115620003fc57620003fc620002cb565b0290505b92915050565b6000620002c460ff84168362000350565b600181811c908216806200042c57607f821691505b602082108114156200044e57634e487b7160e01b600052602260045260246000fd5b50919050565b60805160a05160c051614141620004d16000396000818161262801528181612a7d0152612d5a0152600061060a0152600081816107e40152818161095a01528181610c7201528181610d3201528181610eef0152818161155601528181611a8f01528181611f93015281816124140152612c1101526141416000f3fe6080604052600436106102ad5760003560e01c8063857749b011610175578063b353aaa7116100dc578063df2a5b3b11610095578063eb8d72b71161006f578063eb8d72b7146108e4578063f2fde38b14610904578063f5ecbdbc14610924578063fc0c546a1461094457600080fd5b8063df2a5b3b1461088f578063e6a20ae6146108af578063eaffd49a146108c457600080fd5b8063b353aaa7146107d2578063baf3292d14610806578063c446183414610826578063cbed8b9c1461083c578063d1deba1f1461085c578063dd62ed3e1461086f57600080fd5b80639bdb98121161012e5780639bdb9812146106e05780639f38369a14610732578063a457c2d714610752578063a4c51df514610772578063a6c3d16514610792578063a9059cbb146107b257600080fd5b8063857749b0146105f85780638cfd8f5c1461062c5780638da5cb5b146106645780639358928b14610696578063950c8a74146106ab57806395d89b41146106cb57600080fd5b80633d8b38f61161021957806366ad5c8a116101d257806366ad5c8a14610547578063695ef6bf1461056757806370a082311461057a578063715018a6146105b05780637533d788146105c557806376203b48146105e557600080fd5b80633d8b38f6146104615780633f1f4fa41461048157806342d65a8d146104ae57806344770515146104ce5780634c42899a146104e35780635b8c41e6146104f857600080fd5b806310ddb1371161026b57806310ddb1371461038b57806318160ddd146103ab57806323b872dd146103ca578063313ce567146103ea578063365260b41461040c578063395093511461044157600080fd5b80621d3567146102b257806301ffc9a7146102d457806306fdde031461030957806307e0db171461032b578063095ea7b31461034b5780630df374831461036b575b600080fd5b3480156102be57600080fd5b506102d26102cd3660046133b4565b610957565b005b3480156102e057600080fd5b506102f46102ef366004613447565b610b88565b60405190151581526020015b60405180910390f35b34801561031557600080fd5b5061031e610bbf565b60405161030091906134c9565b34801561033757600080fd5b506102d26103463660046134dc565b610c51565b34801561035757600080fd5b506102f461036636600461350c565b610cda565b34801561037757600080fd5b506102d2610386366004613538565b610cf2565b34801561039757600080fd5b506102d26103a63660046134dc565b610d11565b3480156103b757600080fd5b506009545b604051908152602001610300565b3480156103d657600080fd5b506102f46103e5366004613554565b610d69565b3480156103f657600080fd5b5060125b60405160ff9091168152602001610300565b34801561041857600080fd5b5061042c6104273660046135a5565b610d8d565b60408051928352602083019190915201610300565b34801561044d57600080fd5b506102f461045c36600461350c565b610de2565b34801561046d57600080fd5b506102f461047c36600461360a565b610e04565b34801561048d57600080fd5b506103bc61049c3660046134dc565b60036020526000908152604090205481565b3480156104ba57600080fd5b506102d26104c936600461360a565b610ed0565b3480156104da57600080fd5b506103bc600081565b3480156104ef57600080fd5b506103fa600081565b34801561050457600080fd5b506103bc6105133660046136c9565b6005602090815260009384526040808520845180860184018051928152908401958401959095209452929052825290205481565b34801561055357600080fd5b506102d26105623660046133b4565b610f56565b6102d2610575366004613781565b611032565b34801561058657600080fd5b506103bc6105953660046137f4565b6001600160a01b031660009081526007602052604090205490565b3480156105bc57600080fd5b506102d261109d565b3480156105d157600080fd5b5061031e6105e03660046134dc565b6110b1565b6102d26105f3366004613811565b61114b565b34801561060457600080fd5b506103fa7f000000000000000000000000000000000000000000000000000000000000000081565b34801561063857600080fd5b506103bc6106473660046138c3565b600260209081526000928352604080842090915290825290205481565b34801561067057600080fd5b506000546001600160a01b03165b6040516001600160a01b039091168152602001610300565b3480156106a257600080fd5b506103bc6111fa565b3480156106b757600080fd5b5060045461067e906001600160a01b031681565b3480156106d757600080fd5b5061031e61120a565b3480156106ec57600080fd5b506102f46106fb3660046136c9565b6006602090815260009384526040808520845180860184018051928152908401958401959095209452929052825290205460ff1681565b34801561073e57600080fd5b5061031e61074d3660046134dc565b611219565b34801561075e57600080fd5b506102f461076d36600461350c565b611330565b34801561077e57600080fd5b5061042c61078d3660046138f6565b6113ab565b34801561079e57600080fd5b506102d26107ad36600461360a565b61143a565b3480156107be57600080fd5b506102f46107cd36600461350c565b6114cd565b3480156107de57600080fd5b5061067e7f000000000000000000000000000000000000000000000000000000000000000081565b34801561081257600080fd5b506102d26108213660046137f4565b6114db565b34801561083257600080fd5b506103bc61271081565b34801561084857600080fd5b506102d26108573660046139af565b611537565b6102d261086a3660046133b4565b6115c1565b34801561087b57600080fd5b506103bc61088a366004613a1d565b6117d7565b34801561089b57600080fd5b506102d26108aa366004613a56565b611802565b3480156108bb57600080fd5b506103fa600181565b3480156108d057600080fd5b506102d26108df366004613a92565b61186c565b3480156108f057600080fd5b506102d26108ff36600461360a565b61198b565b34801561091057600080fd5b506102d261091f3660046137f4565b6119e5565b34801561093057600080fd5b5061031e61093f366004613b5a565b611a5e565b34801561095057600080fd5b503061067e565b337f00000000000000000000000000000000000000000000000000000000000000006001600160a01b0316146109d45760405162461bcd60e51b815260206004820152601e60248201527f4c7a4170703a20696e76616c696420656e64706f696e742063616c6c6572000060448201526064015b60405180910390fd5b61ffff8616600090815260016020526040812080546109f290613ba7565b80601f0160208091040260200160405190810160405280929190818152602001828054610a1e90613ba7565b8015610a6b5780601f10610a4057610100808354040283529160200191610a6b565b820191906000526020600020905b815481529060010190602001808311610a4e57829003601f168201915b50505050509050805186869050148015610a86575060008151115b8015610aae575080516020820120604051610aa49088908890613bdc565b6040518091039020145b610b095760405162461bcd60e51b815260206004820152602660248201527f4c7a4170703a20696e76616c696420736f757263652073656e64696e6720636f6044820152651b9d1c9858dd60d21b60648201526084016109cb565b610b7f8787878080601f01602080910402602001604051908101604052809392919081815260200183838082843760009201919091525050604080516020601f8a018190048102820181019092528881528a935091508890889081908401838280828437600092019190915250611b0f92505050565b50505050505050565b60006001600160e01b03198216631f7ecdf760e01b1480610bb957506301ffc9a760e01b6001600160e01b03198316145b92915050565b6060600a8054610bce90613ba7565b80601f0160208091040260200160405190810160405280929190818152602001828054610bfa90613ba7565b8015610c475780601f10610c1c57610100808354040283529160200191610c47565b820191906000526020600020905b815481529060010190602001808311610c2a57829003601f168201915b5050505050905090565b610c59611b88565b6040516307e0db1760e01b815261ffff821660048201527f00000000000000000000000000000000000000000000000000000000000000006001600160a01b0316906307e0db17906024015b600060405180830381600087803b158015610cbf57600080fd5b505af1158015610cd3573d6000803e3d6000fd5b5050505050565b600033610ce8818585611be2565b5060019392505050565b610cfa611b88565b61ffff909116600090815260036020526040902055565b610d19611b88565b6040516310ddb13760e01b815261ffff821660048201527f00000000000000000000000000000000000000000000000000000000000000006001600160a01b0316906310ddb13790602401610ca5565b600033610d77858285611d06565b610d82858585611d80565b506001949350505050565b600080610dd38888888888888080601f016020809104026020016040519081016040528093929190818152602001838380828437600092019190915250611f2b92505050565b91509150965096945050505050565b600033610ce8818585610df583836117d7565b610dff9190613c02565b611be2565b61ffff831660009081526001602052604081208054829190610e2590613ba7565b80601f0160208091040260200160405190810160405280929190818152602001828054610e5190613ba7565b8015610e9e5780601f10610e7357610100808354040283529160200191610e9e565b820191906000526020600020905b815481529060010190602001808311610e8157829003601f168201915b505050505090508383604051610eb5929190613bdc565b60405180910390208180519060200120149150509392505050565b610ed8611b88565b6040516342d65a8d60e01b81526001600160a01b037f000000000000000000000000000000000000000000000000000000000000000016906342d65a8d90610f2890869086908690600401613c43565b600060405180830381600087803b158015610f4257600080fd5b505af1158015610b7f573d6000803e3d6000fd5b333014610fb45760405162461bcd60e51b815260206004820152602660248201527f4e6f6e626c6f636b696e674c7a4170703a2063616c6c6572206d7573742062656044820152650204c7a4170760d41b60648201526084016109cb565b61102a8686868080601f01602080910402602001604051908101604052809392919081815260200183838082843760009201919091525050604080516020601f89018190048102820181019092528781528993509150879087908190840183828082843760009201919091525061201f92505050565b505050505050565b61102a8585858561104660208701876137f4565b61105660408801602089016137f4565b6110636040890189613c61565b8080601f0160208091040260200160405190810160405280939291908181526020018383808284376000920191909152506120a692505050565b6110a5611b88565b6110af600061218e565b565b600160205260009081526040902080546110ca90613ba7565b80601f01602080910402602001604051908101604052809291908181526020018280546110f690613ba7565b80156111435780601f1061111857610100808354040283529160200191611143565b820191906000526020600020905b81548152906001019060200180831161112657829003601f168201915b505050505081565b6111ef8888888888888080601f0160208091040260200160405190810160405280939291908181526020018383808284376000920191909152508a925061119891505060208901896137f4565b6111a860408a0160208b016137f4565b6111b560408b018b613c61565b8080601f0160208091040260200160405190810160405280939291908181526020018383808284376000920191909152506121de92505050565b505050505050505050565b600061120560095490565b905090565b6060600b8054610bce90613ba7565b61ffff811660009081526001602052604081208054606092919061123c90613ba7565b80601f016020809104026020016040519081016040528092919081815260200182805461126890613ba7565b80156112b55780601f1061128a576101008083540402835291602001916112b5565b820191906000526020600020905b81548152906001019060200180831161129857829003601f168201915b5050505050905080516000141561130e5760405162461bcd60e51b815260206004820152601d60248201527f4c7a4170703a206e6f20747275737465642070617468207265636f726400000060448201526064016109cb565b6113296000601483516113219190613ca7565b8391906122da565b9392505050565b6000338161133e82866117d7565b90508381101561139e5760405162461bcd60e51b815260206004820152602560248201527f45524332303a2064656372656173656420616c6c6f77616e63652062656c6f77604482015264207a65726f60d81b60648201526084016109cb565b610d828286868403611be2565b6000806114288b8b8b8b8b8080601f01602080910402602001604051908101604052809392919081815260200183838082843760009201919091525050604080516020601f8d018190048102820181019092528b81528e93508d9250908c908c90819084018382808284376000920191909152506123e792505050565b91509150995099975050505050505050565b611442611b88565b81813060405160200161145793929190613cbe565b60408051601f1981840301815291815261ffff8516600090815260016020908152919020825161148c93919290910190613231565b507f8c0400cfe2d1199b1a725c78960bcc2a344d869b80590d0f2bd005db15a572ce8383836040516114c093929190613c43565b60405180910390a1505050565b600033610ce8818585611d80565b6114e3611b88565b600480546001600160a01b0319166001600160a01b0383169081179091556040519081527f5db758e995a17ec1ad84bdef7e8c3293a0bd6179bcce400dff5d4c3d87db726b9060200160405180910390a150565b61153f611b88565b6040516332fb62e760e21b81526001600160a01b037f0000000000000000000000000000000000000000000000000000000000000000169063cbed8b9c906115939088908890889088908890600401613ce4565b600060405180830381600087803b1580156115ad57600080fd5b505af11580156111ef573d6000803e3d6000fd5b61ffff861660009081526005602052604080822090516115e49088908890613bdc565b90815260408051602092819003830190206001600160401b038716600090815292529020549050806116645760405162461bcd60e51b815260206004820152602360248201527f4e6f6e626c6f636b696e674c7a4170703a206e6f2073746f726564206d65737360448201526261676560e81b60648201526084016109cb565b808383604051611675929190613bdc565b6040518091039020146116d45760405162461bcd60e51b815260206004820152602160248201527f4e6f6e626c6f636b696e674c7a4170703a20696e76616c6964207061796c6f616044820152601960fa1b60648201526084016109cb565b61ffff871660009081526005602052604080822090516116f79089908990613bdc565b90815260408051602092819003830181206001600160401b038916600090815290845282902093909355601f8801829004820283018201905286825261178f918991899089908190840183828082843760009201919091525050604080516020601f8a018190048102820181019092528881528a93509150889088908190840183828082843760009201919091525061201f92505050565b7fc264d91f3adc5588250e1551f547752ca0cfa8f6b530d243b9f9f4cab10ea8e587878787856040516117c6959493929190613d1d565b60405180910390a150505050505050565b6001600160a01b03918216600090815260086020908152604080832093909416825291909152205490565b61180a611b88565b61ffff83811660008181526002602090815260408083209487168084529482529182902085905581519283528201929092529081018290527f9d5c7c0b934da8fefa9c7760c98383778a12dfbfc0c3b3106518f43fb9508ac0906060016114c0565b3330146118bb5760405162461bcd60e51b815260206004820152601f60248201527f4f4654436f72653a2063616c6c6572206d757374206265204f4654436f72650060448201526064016109cb565b6118c63086866124a2565b9350846001600160a01b03168a61ffff167fbf551ec93859b170f9b2141bd9298bf3f64322c6f7beb2543a0cb669834118bf8660405161190891815260200190565b60405180910390a3604051633fe79aed60e11b81526001600160a01b03861690637fcf35da90839061194c908e908e908e908e908e908d908d908d90600401613d58565b600060405180830381600088803b15801561196657600080fd5b5087f115801561197a573d6000803e3d6000fd5b505050505050505050505050505050565b611993611b88565b61ffff831660009081526001602052604090206119b19083836132b5565b507ffa41487ad5d6728f0b19276fa1eddc16558578f5109fc39d2dc33c3230470dab8383836040516114c093929190613c43565b6119ed611b88565b6001600160a01b038116611a525760405162461bcd60e51b815260206004820152602660248201527f4f776e61626c653a206e6577206f776e657220697320746865207a65726f206160448201526564647265737360d01b60648201526084016109cb565b611a5b8161218e565b50565b604051633d7b2f6f60e21b815261ffff808616600483015284166024820152306044820152606481018290526060907f00000000000000000000000000000000000000000000000000000000000000006001600160a01b03169063f5ecbdbc90608401600060405180830381865afa158015611ade573d6000803e3d6000fd5b505050506040513d6000823e601f3d908101601f19168201604052611b069190810190613db3565b95945050505050565b600080611b725a60966366ad5c8a60e01b89898989604051602401611b379493929190613e20565b60408051601f198184030181529190526020810180516001600160e01b03166001600160e01b031990931692909217909152309291906124f4565b915091508161102a5761102a868686868561257e565b6000546001600160a01b031633146110af5760405162461bcd60e51b815260206004820181905260248201527f4f776e61626c653a2063616c6c6572206973206e6f7420746865206f776e657260448201526064016109cb565b6001600160a01b038316611c445760405162461bcd60e51b8152602060048201526024808201527f45524332303a20617070726f76652066726f6d20746865207a65726f206164646044820152637265737360e01b60648201526084016109cb565b6001600160a01b038216611ca55760405162461bcd60e51b815260206004820152602260248201527f45524332303a20617070726f766520746f20746865207a65726f206164647265604482015261737360f01b60648201526084016109cb565b6001600160a01b0383811660008181526008602090815260408083209487168084529482529182902085905590518481527f8c5be1e5ebec7d5bd14f71427d1e84f3dd0314c0f7b2291e5b200ac8c7c3b925910160405180910390a3505050565b6000611d1284846117d7565b90506000198114611d7a5781811015611d6d5760405162461bcd60e51b815260206004820152601d60248201527f45524332303a20696e73756666696369656e7420616c6c6f77616e636500000060448201526064016109cb565b611d7a8484848403611be2565b50505050565b6001600160a01b038316611de45760405162461bcd60e51b815260206004820152602560248201527f45524332303a207472616e736665722066726f6d20746865207a65726f206164604482015264647265737360d81b60648201526084016109cb565b6001600160a01b038216611e465760405162461bcd60e51b815260206004820152602360248201527f45524332303a207472616e7366657220746f20746865207a65726f206164647260448201526265737360e81b60648201526084016109cb565b6001600160a01b03831660009081526007602052604090205481811015611ebe5760405162461bcd60e51b815260206004820152602660248201527f45524332303a207472616e7366657220616d6f756e7420657863656564732062604482015265616c616e636560d01b60648201526084016109cb565b6001600160a01b0380851660008181526007602052604080822086860390559286168082529083902080548601905591517fddf252ad1be2c89b69c2b068fc378daa952ba7f163c4a11628f55a4df523b3ef90611f1e9086815260200190565b60405180910390a3611d7a565b6000806000611f7987611f3d88612620565b6040805160006020820152602181019390935260c09190911b6001600160c01b0319166041830152805160298184030181526049909201905290565b60405163040a7bb160e41b81529091506001600160a01b037f000000000000000000000000000000000000000000000000000000000000000016906340a7bb1090611fd0908b90309086908b908b90600401613e5e565b6040805180830381865afa158015611fec573d6000803e3d6000fd5b505050506040513d601f19601f820116820180604052508101906120109190613eb2565b92509250509550959350505050565b600061202b82826126a6565b905060ff81166120465761204185858585612702565b610cd3565b60ff81166001141561205e5761204185858585612792565b60405162461bcd60e51b815260206004820152601c60248201527f4f4654436f72653a20756e6b6e6f776e207061636b657420747970650000000060448201526064016109cb565b60006120b4878284816129a0565b6120bd85612a75565b5090506120cc88888884612ab5565b90506000811161211a5760405162461bcd60e51b815260206004820152601960248201527813d19510dbdc994e88185b5bdd5b9d081d1bdbc81cdb585b1b603a1b60448201526064016109cb565b600061212987611f3d84612620565b9050612139888287878734612ae7565b86896001600160a01b03168961ffff167fd81fc9b8523134ed613870ed029d6170cbb73aa6a6bc311b9a642689fb9df59a8560405161217a91815260200190565b60405180910390a450979650505050505050565b600080546001600160a01b038381166001600160a01b0319831681178455604051919092169283917f8be0079c531659141344cd1fd0a4f28419497f9722a3daafe3b4186f6b6457e09190a35050565b60006121f6896001846001600160401b0389166129a0565b6121ff87612a75565b50905061220e8a8a8a84612ab5565b90506000811161225c5760405162461bcd60e51b815260206004820152601960248201527813d19510dbdc994e88185b5bdd5b9d081d1bdbc81cdb585b1b603a1b60448201526064016109cb565b6000612273338a61226c85612620565b8a8a612c8d565b90506122838a8287878734612ae7565b888b6001600160a01b03168b61ffff167fd81fc9b8523134ed613870ed029d6170cbb73aa6a6bc311b9a642689fb9df59a856040516122c491815260200190565b60405180910390a4509998505050505050505050565b6060816122e881601f613c02565b10156123275760405162461bcd60e51b815260206004820152600e60248201526d736c6963655f6f766572666c6f7760901b60448201526064016109cb565b6123318284613c02565b845110156123755760405162461bcd60e51b8152602060048201526011602482015270736c6963655f6f75744f66426f756e647360781b60448201526064016109cb565b60608215801561239457604051915060008252602082016040526123de565b6040519150601f8416801560200281840101858101878315602002848b0101015b818310156123cd5780518352602092830192016123b5565b5050858452601f01601f1916604052505b50949350505050565b60008060006123fa338a61226c8b612620565b60405163040a7bb160e41b81529091506001600160a01b037f000000000000000000000000000000000000000000000000000000000000000016906340a7bb1090612451908d90309086908b908b90600401613e5e565b6040805180830381865afa15801561246d573d6000803e3d6000fd5b505050506040513d601f19601f820116820180604052508101906124919190613eb2565b925092505097509795505050505050565b600033306001600160a01b038616148015906124d05750806001600160a01b0316856001600160a01b031614155b156124e0576124e0858285611d06565b6124eb858585611d80565b50909392505050565b6000606060008060008661ffff166001600160401b038111156125195761251961365c565b6040519080825280601f01601f191660200182016040528015612543576020820181803683370190505b50905060008087516020890160008d8df191503d925086831115612565578692505b828152826000602083013e909890975095505050505050565b8180519060200120600560008761ffff1661ffff168152602001908152602001600020856040516125af9190613ed6565b9081526040805191829003602090810183206001600160401b0388166000908152915220919091557fe183f33de2837795525b4792ca4cd60535bd77c53b7e7030060bfcf5734d6b0c9061260c9087908790879087908790613ef2565b60405180910390a15050505050565b505050565b60008061264d7f000000000000000000000000000000000000000000000000000000000000000084613f5a565b90506001600160401b03811115610bb95760405162461bcd60e51b815260206004820152601a60248201527f4f4654436f72653a20616d6f756e745344206f766572666c6f7700000000000060448201526064016109cb565b60006126b3826001613c02565b835110156126f95760405162461bcd60e51b8152602060048201526013602482015272746f55696e74385f6f75744f66426f756e647360681b60448201526064016109cb565b50016001015190565b60008061270e83612cce565b90925090506001600160a01b0382166127275761dead91505b600061273282612d53565b905061273f878483612d88565b9050826001600160a01b03168761ffff167fbf551ec93859b170f9b2141bd9298bf3f64322c6f7beb2543a0cb669834118bf8360405161278191815260200190565b60405180910390a350505050505050565b60008060008060006127a386612d9b565b945094509450945094506000600660008b61ffff1661ffff168152602001908152602001600020896040516127d89190613ed6565b90815260408051602092819003830190206001600160401b038b166000908152925281205460ff16915061280b85612d53565b9050816128795761281d8b3083612d88565b61ffff8c16600090815260066020526040908190209051919250600191612845908d90613ed6565b90815260408051602092819003830190206001600160401b038d16600090815292529020805460ff19169115159190911790555b6001600160a01b0386163b6128d0576040516001600160a01b03871681527f9aedf5fdba8716db3b6705ca00150643309995d4f818a249ed6dde6677e7792d9060200160405180910390a150505050505050611d7a565b8a8a8a8a8a8a868a60008a6128ee578b6001600160401b03166128f0565b5a5b90506000806129225a609663eaffd49a60e01b8e8e8e8d8d8d8d8d604051602401611b37989796959493929190613f6e565b91509150811561297b578751602089012060405161ffff8d16907fb8890edbfc1c74692f527444645f95489c3703cc2df42e4a366f5d06fa6cd8849061296d908e908e908690613fe2565b60405180910390a250612988565b6129888b8b8b8b8561257e565b50505050505050505050505050505050505050505050565b60006129ab83612e52565b61ffff80871660009081526002602090815260408083209389168352929052205490915080612a1c5760405162461bcd60e51b815260206004820152601a60248201527f4c7a4170703a206d696e4761734c696d6974206e6f742073657400000000000060448201526064016109cb565b612a268382613c02565b82101561102a5760405162461bcd60e51b815260206004820152601b60248201527f4c7a4170703a20676173206c696d697420697320746f6f206c6f77000000000060448201526064016109cb565b600080612aa27f000000000000000000000000000000000000000000000000000000000000000084614010565b9050612aae8184613ca7565b9150915091565b6000336001600160a01b0386168114612ad357612ad3868285611d06565b612add8684612eae565b5090949350505050565b61ffff861660009081526001602052604081208054612b0590613ba7565b80601f0160208091040260200160405190810160405280929190818152602001828054612b3190613ba7565b8015612b7e5780601f10612b5357610100808354040283529160200191612b7e565b820191906000526020600020905b815481529060010190602001808311612b6157829003601f168201915b50505050509050805160001415612bf05760405162461bcd60e51b815260206004820152603060248201527f4c7a4170703a2064657374696e6174696f6e20636861696e206973206e6f742060448201526f61207472757374656420736f7572636560801b60648201526084016109cb565b612bfb878751612fe2565b60405162c5803160e81b81526001600160a01b037f0000000000000000000000000000000000000000000000000000000000000000169063c5803100908490612c52908b9086908c908c908c908c90600401614024565b6000604051808303818588803b158015612c6b57600080fd5b505af1158015612c7f573d6000803e3d6000fd5b505050505050505050505050565b6060600185856001600160a01b0389168587604051602001612cb49695949392919061408b565b604051602081830303815290604052905095945050505050565b60008080612cdc84826126a6565b60ff16148015612ced575082516029145b612d345760405162461bcd60e51b815260206004820152601860248201527713d19510dbdc994e881a5b9d985b1a59081c185e5b1bd85960421b60448201526064016109cb565b612d3f83600d613050565b9150612d4c8360216130b5565b9050915091565b6000610bb97f00000000000000000000000000000000000000000000000000000000000000006001600160401b0384166140ec565b6000612d948383613112565b5092915050565b600080806060816001612dae87836126a6565b60ff1614612df95760405162461bcd60e51b815260206004820152601860248201527713d19510dbdc994e881a5b9d985b1a59081c185e5b1bd85960421b60448201526064016109cb565b612e0486600d613050565b9350612e118660216130b5565b9250612e1e8660296131d3565b9450612e2b8660496130b5565b9050612e476051808851612e3f9190613ca7565b8891906122da565b915091939590929450565b6000602282511015612ea65760405162461bcd60e51b815260206004820152601c60248201527f4c7a4170703a20696e76616c69642061646170746572506172616d730000000060448201526064016109cb565b506022015190565b6001600160a01b038216612f0e5760405162461bcd60e51b815260206004820152602160248201527f45524332303a206275726e2066726f6d20746865207a65726f206164647265736044820152607360f81b60648201526084016109cb565b6001600160a01b03821660009081526007602052604090205481811015612f825760405162461bcd60e51b815260206004820152602260248201527f45524332303a206275726e20616d6f756e7420657863656564732062616c616e604482015261636560f01b60648201526084016109cb565b6001600160a01b03831660008181526007602090815260408083208686039055600980548790039055518581529192917fddf252ad1be2c89b69c2b068fc378daa952ba7f163c4a11628f55a4df523b3ef910160405180910390a3505050565b61ffff82166000908152600360205260409020548061300057506127105b8082111561261b5760405162461bcd60e51b815260206004820181905260248201527f4c7a4170703a207061796c6f61642073697a6520697320746f6f206c6172676560448201526064016109cb565b600061305d826014613c02565b835110156130a55760405162461bcd60e51b8152602060048201526015602482015274746f416464726573735f6f75744f66426f756e647360581b60448201526064016109cb565b500160200151600160601b900490565b60006130c2826008613c02565b835110156131095760405162461bcd60e51b8152602060048201526014602482015273746f55696e7436345f6f75744f66426f756e647360601b60448201526064016109cb565b50016008015190565b6001600160a01b0382166131685760405162461bcd60e51b815260206004820152601f60248201527f45524332303a206d696e7420746f20746865207a65726f20616464726573730060448201526064016109cb565b806009600082825461317a9190613c02565b90915550506001600160a01b0382166000818152600760209081526040808320805486019055518481527fddf252ad1be2c89b69c2b068fc378daa952ba7f163c4a11628f55a4df523b3ef910160405180910390a35050565b60006131e0826020613c02565b835110156132285760405162461bcd60e51b8152602060048201526015602482015274746f427974657333325f6f75744f66426f756e647360581b60448201526064016109cb565b50016020015190565b82805461323d90613ba7565b90600052602060002090601f01602090048101928261325f57600085556132a5565b82601f1061327857805160ff19168380011785556132a5565b828001600101855582156132a5579182015b828111156132a557825182559160200191906001019061328a565b506132b1929150613329565b5090565b8280546132c190613ba7565b90600052602060002090601f0160209004810192826132e357600085556132a5565b82601f106132fc5782800160ff198235161785556132a5565b828001600101855582156132a5579182015b828111156132a557823582559160200191906001019061330e565b5b808211156132b1576000815560010161332a565b803561ffff8116811461335057600080fd5b919050565b60008083601f84011261336757600080fd5b5081356001600160401b0381111561337e57600080fd5b60208301915083602082850101111561339657600080fd5b9250929050565b80356001600160401b038116811461335057600080fd5b600080600080600080608087890312156133cd57600080fd5b6133d68761333e565b955060208701356001600160401b03808211156133f257600080fd5b6133fe8a838b01613355565b909750955085915061341260408a0161339d565b9450606089013591508082111561342857600080fd5b5061343589828a01613355565b979a9699509497509295939492505050565b60006020828403121561345957600080fd5b81356001600160e01b03198116811461132957600080fd5b60005b8381101561348c578181015183820152602001613474565b83811115611d7a5750506000910152565b600081518084526134b5816020860160208601613471565b601f01601f19169290920160200192915050565b602081526000611329602083018461349d565b6000602082840312156134ee57600080fd5b6113298261333e565b6001600160a01b0381168114611a5b57600080fd5b6000806040838503121561351f57600080fd5b823561352a816134f7565b946020939093013593505050565b6000806040838503121561354b57600080fd5b61352a8361333e565b60008060006060848603121561356957600080fd5b8335613574816134f7565b92506020840135613584816134f7565b929592945050506040919091013590565b8035801515811461335057600080fd5b60008060008060008060a087890312156135be57600080fd5b6135c78761333e565b955060208701359450604087013593506135e360608801613595565b925060808701356001600160401b038111156135fe57600080fd5b61343589828a01613355565b60008060006040848603121561361f57600080fd5b6136288461333e565b925060208401356001600160401b0381111561364357600080fd5b61364f86828701613355565b9497909650939450505050565b634e487b7160e01b600052604160045260246000fd5b604051601f8201601f191681016001600160401b038111828210171561369a5761369a61365c565b604052919050565b60006001600160401b038211156136bb576136bb61365c565b50601f01601f191660200190565b6000806000606084860312156136de57600080fd5b6136e78461333e565b925060208401356001600160401b0381111561370257600080fd5b8401601f8101861361371357600080fd5b8035613726613721826136a2565b613672565b81815287602083850101111561373b57600080fd5b816020840160208301376000602083830101528094505050506137606040850161339d565b90509250925092565b60006060828403121561377b57600080fd5b50919050565b600080600080600060a0868803121561379957600080fd5b85356137a4816134f7565b94506137b26020870161333e565b9350604086013592506060860135915060808601356001600160401b038111156137db57600080fd5b6137e788828901613769565b9150509295509295909350565b60006020828403121561380657600080fd5b8135611329816134f7565b60008060008060008060008060e0898b03121561382d57600080fd5b8835613838816134f7565b975061384660208a0161333e565b9650604089013595506060890135945060808901356001600160401b038082111561387057600080fd5b61387c8c838d01613355565b909650945084915061389060a08c0161339d565b935060c08b01359150808211156138a657600080fd5b506138b38b828c01613769565b9150509295985092959890939650565b600080604083850312156138d657600080fd5b6138df8361333e565b91506138ed6020840161333e565b90509250929050565b600080600080600080600080600060e08a8c03121561391457600080fd5b61391d8a61333e565b985060208a0135975060408a0135965060608a01356001600160401b038082111561394757600080fd5b6139538d838e01613355565b909850965086915061396760808d0161339d565b955061397560a08d01613595565b945060c08c013591508082111561398b57600080fd5b506139988c828d01613355565b915080935050809150509295985092959850929598565b6000806000806000608086880312156139c757600080fd5b6139d08661333e565b94506139de6020870161333e565b93506040860135925060608601356001600160401b03811115613a0057600080fd5b613a0c88828901613355565b969995985093965092949392505050565b60008060408385031215613a3057600080fd5b8235613a3b816134f7565b91506020830135613a4b816134f7565b809150509250929050565b600080600060608486031215613a6b57600080fd5b613a748461333e565b9250613a826020850161333e565b9150604084013590509250925092565b6000806000806000806000806000806101008b8d031215613ab257600080fd5b613abb8b61333e565b995060208b01356001600160401b0380821115613ad757600080fd5b613ae38e838f01613355565b909b509950899150613af760408e0161339d565b985060608d0135975060808d01359150613b10826134f7565b90955060a08c0135945060c08c01359080821115613b2d57600080fd5b50613b3a8d828e01613355565b9150809450508092505060e08b013590509295989b9194979a5092959850565b60008060008060808587031215613b7057600080fd5b613b798561333e565b9350613b876020860161333e565b92506040850135613b97816134f7565b9396929550929360600135925050565b600181811c90821680613bbb57607f821691505b6020821081141561377b57634e487b7160e01b600052602260045260246000fd5b8183823760009101908152919050565b634e487b7160e01b600052601160045260246000fd5b60008219821115613c1557613c15613bec565b500190565b81835281816020850137506000828201602090810191909152601f909101601f19169091010190565b61ffff84168152604060208201526000611b06604083018486613c1a565b6000808335601e19843603018112613c7857600080fd5b8301803591506001600160401b03821115613c9257600080fd5b60200191503681900382131561339657600080fd5b600082821015613cb957613cb9613bec565b500390565b8284823760609190911b6bffffffffffffffffffffffff19169101908152601401919050565b600061ffff808816835280871660208401525084604083015260806060830152613d12608083018486613c1a565b979650505050505050565b61ffff86168152608060208201526000613d3b608083018688613c1a565b6001600160401b0394909416604083015250606001529392505050565b61ffff8916815260c060208201526000613d7660c08301898b613c1a565b6001600160401b038816604084015286606084015285608084015282810360a0840152613da4818587613c1a565b9b9a5050505050505050505050565b600060208284031215613dc557600080fd5b81516001600160401b03811115613ddb57600080fd5b8201601f81018413613dec57600080fd5b8051613dfa613721826136a2565b818152856020838501011115613e0f57600080fd5b611b06826020830160208601613471565b61ffff85168152608060208201526000613e3d608083018661349d565b6001600160401b03851660408401528281036060840152613d12818561349d565b61ffff861681526001600160a01b038516602082015260a060408201819052600090613e8c9083018661349d565b84151560608401528281036080840152613ea6818561349d565b98975050505050505050565b60008060408385031215613ec557600080fd5b505080516020909101519092909150565b60008251613ee8818460208701613471565b9190910192915050565b61ffff8616815260a060208201526000613f0f60a083018761349d565b6001600160401b03861660408401528281036060840152613f30818661349d565b90508281036080840152613ea6818561349d565b634e487b7160e01b600052601260045260246000fd5b600082613f6957613f69613f44565b500490565b600061010061ffff8b168352806020840152613f8c8184018b61349d565b6001600160401b038a166040850152606084018990526001600160a01b038816608085015260a0840187905283810360c08501529050613fcc818661349d565b9150508260e08301529998505050505050505050565b606081526000613ff5606083018661349d565b6001600160401b039490941660208301525060400152919050565b60008261401f5761401f613f44565b500690565b61ffff8716815260c06020820152600061404160c083018861349d565b8281036040840152614053818861349d565b6001600160a01b0387811660608601528616608085015283810360a0850152905061407e818561349d565b9998505050505050505050565b60ff60f81b8760f81b16815285600182015260006001600160401b0360c01b808760c01b166021840152856029840152808560c01b1660498401525082516140da816051850160208701613471565b91909101605101979650505050505050565b600081600019048311821515161561410657614106613bec565b50029056fea26469706673582212206188c1e474b1515b2a059d403c7b659920e4bdce5fb09c7067d7c0a3cac7c9f764736f6c634300080a0033",
  "devdoc": {
    "kind": "dev",
    "methods": {
      "allowance(address,address)": {
        "details": "See {IERC20-allowance}."
      },
      "approve(address,uint256)": {
        "details": "See {IERC20-approve}. NOTE: If `amount` is the maximum `uint256`, the allowance is not updated on `transferFrom`. This is semantically equivalent to an infinite approval. Requirements: - `spender` cannot be the zero address."
      },
      "balanceOf(address)": {
        "details": "See {IERC20-balanceOf}."
      },
      "circulatingSupply()": {
        "details": "returns the circulating amount of tokens on current chain"
      },
      "decimals()": {
        "details": "Returns the number of decimals used to get its user representation. For example, if `decimals` equals `2`, a balance of `505` tokens should be displayed to a user as `5.05` (`505 / 10 ** 2`). Tokens usually opt for a value of 18, imitating the relationship between Ether and Wei. This is the default value returned by this function, unless it's overridden. NOTE: This information is only used for _display_ purposes: it in no way affects any of the arithmetic of the contract, including {IERC20-balanceOf} and {IERC20-transfer}."
      },
      "decreaseAllowance(address,uint256)": {
        "details": "Atomically decreases the allowance granted to `spender` by the caller. This is an alternative to {approve} that can be used as a mitigation for problems described in {IERC20-approve}. Emits an {Approval} event indicating the updated allowance. Requirements: - `spender` cannot be the zero address. - `spender` must have allowance for the caller of at least `subtractedValue`."
      },
      "estimateSendFee(uint16,bytes32,uint256,bool,bytes)": {
        "details": "estimate send token `_tokenId` to (`_dstChainId`, `_toAddress`) _dstChainId - L0 defined chain id to send tokens too _toAddress - dynamic bytes array which contains the address to whom you are sending tokens to on the dstChain _amount - amount of the tokens to transfer _useZro - indicates to use zro to pay L0 fees _adapterParam - flexible bytes array to indicate messaging adapter services in L0"
      },
      "increaseAllowance(address,uint256)": {
        "details": "Atomically increases the allowance granted to `spender` by the caller. This is an alternative to {approve} that can be used as a mitigation for problems described in {IERC20-approve}. Emits an {Approval} event indicating the updated allowance. Requirements: - `spender` cannot be the zero address."
      },
      "name()": {
        "details": "Returns the name of the token."
      },
      "owner()": {
        "details": "Returns the address of the current owner."
      },
      "renounceOwnership()": {
        "details": "Leaves the contract without owner. It will not be possible to call `onlyOwner` functions. Can only be called by the current owner. NOTE: Renouncing ownership will leave the contract without an owner, thereby disabling any functionality that is only available to the owner."
      },
      "sendFrom(address,uint16,bytes32,uint256,(address,address,bytes))": {
        "details": "send `_amount` amount of token to (`_dstChainId`, `_toAddress`) from `_from` `_from` the owner of token `_dstChainId` the destination chain identifier `_toAddress` can be any size depending on the `dstChainId`. `_amount` the quantity of tokens in wei `_refundAddress` the address LayerZero refunds if too much message fee is sent `_zroPaymentAddress` set to address(0x0) if not paying in ZRO (LayerZero Token) `_adapterParams` is a flexible bytes array to indicate messaging adapter services"
      },
      "symbol()": {
        "details": "Returns the symbol of the token, usually a shorter version of the name."
      },
      "token()": {
        "details": "returns the address of the ERC20 token"
      },
      "totalSupply()": {
        "details": "See {IERC20-totalSupply}."
      },
      "transfer(address,uint256)": {
        "details": "See {IERC20-transfer}. Requirements: - `to` cannot be the zero address. - the caller must have a balance of at least `amount`."
      },
      "transferFrom(address,address,uint256)": {
        "details": "See {IERC20-transferFrom}. Emits an {Approval} event indicating the updated allowance. This is not required by the EIP. See the note at the beginning of {ERC20}. NOTE: Does not update the allowance if the current allowance is the maximum `uint256`. Requirements: - `from` and `to` cannot be the zero address. - `from` must have a balance of at least `amount`. - the caller must have allowance for ``from``'s tokens of at least `amount`."
      },
      "transferOwnership(address)": {
        "details": "Transfers ownership of the contract to a new account (`newOwner`). Can only be called by the current owner."
      }
    },
    "version": 1
  },
  "userdoc": {
    "kind": "user",
    "methods": {},
    "version": 1
  },
  "storageLayout": {
    "storage": [
      {
        "astId": 3133,
        "contract": "contracts/OFTs/VoucherMantaOFT.sol:VoucherMantaOFT",
        "label": "_owner",
        "offset": 0,
        "slot": "0",
        "type": "t_address"
      },
      {
        "astId": 455,
        "contract": "contracts/OFTs/VoucherMantaOFT.sol:VoucherMantaOFT",
        "label": "trustedRemoteLookup",
        "offset": 0,
        "slot": "1",
        "type": "t_mapping(t_uint16,t_bytes_storage)"
      },
      {
        "astId": 461,
        "contract": "contracts/OFTs/VoucherMantaOFT.sol:VoucherMantaOFT",
        "label": "minDstGasLookup",
        "offset": 0,
        "slot": "2",
        "type": "t_mapping(t_uint16,t_mapping(t_uint16,t_uint256))"
      },
      {
        "astId": 465,
        "contract": "contracts/OFTs/VoucherMantaOFT.sol:VoucherMantaOFT",
        "label": "payloadSizeLimitLookup",
        "offset": 0,
        "slot": "3",
        "type": "t_mapping(t_uint16,t_uint256)"
      },
      {
        "astId": 467,
        "contract": "contracts/OFTs/VoucherMantaOFT.sol:VoucherMantaOFT",
        "label": "precrime",
        "offset": 0,
        "slot": "4",
        "type": "t_address"
      },
      {
        "astId": 997,
        "contract": "contracts/OFTs/VoucherMantaOFT.sol:VoucherMantaOFT",
        "label": "failedMessages",
        "offset": 0,
        "slot": "5",
        "type": "t_mapping(t_uint16,t_mapping(t_bytes_memory_ptr,t_mapping(t_uint64,t_bytes32)))"
      },
      {
        "astId": 1618,
        "contract": "contracts/OFTs/VoucherMantaOFT.sol:VoucherMantaOFT",
        "label": "creditedPackets",
        "offset": 0,
        "slot": "6",
        "type": "t_mapping(t_uint16,t_mapping(t_bytes_memory_ptr,t_mapping(t_uint64,t_bool)))"
      },
      {
        "astId": 3254,
        "contract": "contracts/OFTs/VoucherMantaOFT.sol:VoucherMantaOFT",
        "label": "_balances",
        "offset": 0,
        "slot": "7",
        "type": "t_mapping(t_address,t_uint256)"
      },
      {
        "astId": 3260,
        "contract": "contracts/OFTs/VoucherMantaOFT.sol:VoucherMantaOFT",
        "label": "_allowances",
        "offset": 0,
        "slot": "8",
        "type": "t_mapping(t_address,t_mapping(t_address,t_uint256))"
      },
      {
        "astId": 3262,
        "contract": "contracts/OFTs/VoucherMantaOFT.sol:VoucherMantaOFT",
        "label": "_totalSupply",
        "offset": 0,
        "slot": "9",
        "type": "t_uint256"
      },
      {
        "astId": 3264,
        "contract": "contracts/OFTs/VoucherMantaOFT.sol:VoucherMantaOFT",
        "label": "_name",
        "offset": 0,
        "slot": "10",
        "type": "t_string_storage"
      },
      {
        "astId": 3266,
        "contract": "contracts/OFTs/VoucherMantaOFT.sol:VoucherMantaOFT",
        "label": "_symbol",
        "offset": 0,
        "slot": "11",
        "type": "t_string_storage"
      }
    ],
    "types": {
      "t_address": {
        "encoding": "inplace",
        "label": "address",
        "numberOfBytes": "20"
      },
      "t_bool": {
        "encoding": "inplace",
        "label": "bool",
        "numberOfBytes": "1"
      },
      "t_bytes32": {
        "encoding": "inplace",
        "label": "bytes32",
        "numberOfBytes": "32"
      },
      "t_bytes_memory_ptr": {
        "encoding": "bytes",
        "label": "bytes",
        "numberOfBytes": "32"
      },
      "t_bytes_storage": {
        "encoding": "bytes",
        "label": "bytes",
        "numberOfBytes": "32"
      },
      "t_mapping(t_address,t_mapping(t_address,t_uint256))": {
        "encoding": "mapping",
        "key": "t_address",
        "label": "mapping(address => mapping(address => uint256))",
        "numberOfBytes": "32",
        "value": "t_mapping(t_address,t_uint256)"
      },
      "t_mapping(t_address,t_uint256)": {
        "encoding": "mapping",
        "key": "t_address",
        "label": "mapping(address => uint256)",
        "numberOfBytes": "32",
        "value": "t_uint256"
      },
      "t_mapping(t_bytes_memory_ptr,t_mapping(t_uint64,t_bool))": {
        "encoding": "mapping",
        "key": "t_bytes_memory_ptr",
        "label": "mapping(bytes => mapping(uint64 => bool))",
        "numberOfBytes": "32",
        "value": "t_mapping(t_uint64,t_bool)"
      },
      "t_mapping(t_bytes_memory_ptr,t_mapping(t_uint64,t_bytes32))": {
        "encoding": "mapping",
        "key": "t_bytes_memory_ptr",
        "label": "mapping(bytes => mapping(uint64 => bytes32))",
        "numberOfBytes": "32",
        "value": "t_mapping(t_uint64,t_bytes32)"
      },
      "t_mapping(t_uint16,t_bytes_storage)": {
        "encoding": "mapping",
        "key": "t_uint16",
        "label": "mapping(uint16 => bytes)",
        "numberOfBytes": "32",
        "value": "t_bytes_storage"
      },
      "t_mapping(t_uint16,t_mapping(t_bytes_memory_ptr,t_mapping(t_uint64,t_bool)))": {
        "encoding": "mapping",
        "key": "t_uint16",
        "label": "mapping(uint16 => mapping(bytes => mapping(uint64 => bool)))",
        "numberOfBytes": "32",
        "value": "t_mapping(t_bytes_memory_ptr,t_mapping(t_uint64,t_bool))"
      },
      "t_mapping(t_uint16,t_mapping(t_bytes_memory_ptr,t_mapping(t_uint64,t_bytes32)))": {
        "encoding": "mapping",
        "key": "t_uint16",
        "label": "mapping(uint16 => mapping(bytes => mapping(uint64 => bytes32)))",
        "numberOfBytes": "32",
        "value": "t_mapping(t_bytes_memory_ptr,t_mapping(t_uint64,t_bytes32))"
      },
      "t_mapping(t_uint16,t_mapping(t_uint16,t_uint256))": {
        "encoding": "mapping",
        "key": "t_uint16",
        "label": "mapping(uint16 => mapping(uint16 => uint256))",
        "numberOfBytes": "32",
        "value": "t_mapping(t_uint16,t_uint256)"
      },
      "t_mapping(t_uint16,t_uint256)": {
        "encoding": "mapping",
        "key": "t_uint16",
        "label": "mapping(uint16 => uint256)",
        "numberOfBytes": "32",
        "value": "t_uint256"
      },
      "t_mapping(t_uint64,t_bool)": {
        "encoding": "mapping",
        "key": "t_uint64",
        "label": "mapping(uint64 => bool)",
        "numberOfBytes": "32",
        "value": "t_bool"
      },
      "t_mapping(t_uint64,t_bytes32)": {
        "encoding": "mapping",
        "key": "t_uint64",
        "label": "mapping(uint64 => bytes32)",
        "numberOfBytes": "32",
        "value": "t_bytes32"
      },
      "t_string_storage": {
        "encoding": "bytes",
        "label": "string",
        "numberOfBytes": "32"
      },
      "t_uint16": {
        "encoding": "inplace",
        "label": "uint16",
        "numberOfBytes": "2"
      },
      "t_uint256": {
        "encoding": "inplace",
        "label": "uint256",
        "numberOfBytes": "32"
      },
      "t_uint64": {
        "encoding": "inplace",
        "label": "uint64",
        "numberOfBytes": "8"
      }
    }
  }
}